:020000040000FA
:06000000D3EF0AF012002C
:020006001200E6
:06000800FAEF08F01200FF
:02000E000000F0
:020010000000EE
:06001800C1EF08F0120028
:02001E000500DB
:100020007B160000380F0000280000000E000000C2
:10003000F4000000040000001A1600008000000018
:1000400061000000E2150000000F00003800000011
:0C005000C2150000600F0000200000003E
:04005C0042EC04F07E
:100060007BDB11AE02D01268136820DB13E289DB60
:1000700049DB04E6050E105C000E115806E2020E84
:10008000DB2A030EF5E3DB2AF3D7DF2A010EE8E3D0
:10009000DB2AE6D7040EE15C02E2E16AE552E16E9A
:1000A000BBD2F0DB59DB11AE02D012681368FEDA66
:1000B00013E267DB27DB04E6EE0E105C000E11583E
:1000C00006E2020EDB2A030EF5E3DB2AF3D7DF2A72
:1000D000010EE8E3DB2AE6D7040EE15C02E2E16A06
:1000E000E552E16E99D2D4DBF00B6BDBFE0EDB3810
:1000F000F00B811278DA90D2C2DB190E50DB0F0EB2
:100100008116F80E81160F0E8116300E5ADB300E56
:1001100058DB300E56DB818A66DA280EE66EE3DFA6
:10012000E5520C0EE66EDFDFE552E55275D29DDB3F
:10013000010EDB6A81944ADBE76E010EE7CFDBFF3D
:10014000819644DBDF6E010EDB50DF128196010EDB
:1001500051DADF50106E020EE15C02E2E16AE55214
:10016000E16E105059D28BDBDF6AE1DFDF6EDFBE5C
:10017000FCD7DF50E55250D28BDB81128186050E11
:1001800039DA8196050E36DA47D241DA8194050EC6
:1001900031DA98DA41D23BDA8184050E2BDA92DA31
:1001A00081943AD23BD33AD332DAFD0EDBCFF6FF5D
:1001B000FE0EDBCFF7FF0800F5500DE0FD0EDBCFA4
:1001C000F6FFDB2AFE0EDBCFF7FF01E3DB2A080098
:1001D000F5501BDBEAD720D252DBFD0EDB500F0BB4
:1001E000106EFE0EDB50010B400DF3501024DF6E3D
:1001F0007F0EDF14800FDF6EDFCFE6FFC6DFE55234
:10020000E5520AD2010EE66EC0DFE552E66AE66A02
:100210004EEF04F0FCD9050EE126010EF36EDB6E05
:10022000B0DA040EDB6ADF6ADFCF10F0116A10BEAD
:10023000116899DA11501318E8AE02D0133404D0C3
:100240001250105C135011581FE2FD0EDBCF10F05E
:10025000FE0EDBCF11F0126A136A11AE02D01268E3
:100260001368D950010FE96EDACFEAFF10C00BF026
:1002700011C00CF012C00DF013C00EF0DBDA08EC68
:100280000AF0E1DADF2AD0D7010EDBCF10F0020E40
:10029000DBCF11F0030EDBCF12F0040EDBCF13F037
:1002A00010C006F011C007F012C008F013C009F02A
:1002B000050EE15C02E2E16AE552E16EADD1D5DA0C
:1002C000FB0EDBCF10F0FC0EDBCF11F0FD0EDBCF11
:1002D00012F0FE0EDBCF13F010501110121013109D
:1002E00003E1300E92DA36D0D950FB0F14DA01E672
:1002F00018DA05E22D0E89DAD950FB0FCAD9DE5281
:10030000070EDD6E37DAE8AE02D0103403D0E750C6
:10031000D88010541FE217DA14BE156871D936DA86
:100320005EDA08DA0BE0010EDF6EDB04186E196A84
:1003300018BE196883D953DA9FD903D0DF5002E081
:10034000300E63DA00DA14BE15685AD9D950FB0FA3
:100350006CD9D8D7020EE15C02E2E16AE552E16EA7
:100360005BD155D9C7D9D950F90F53DAEECFE6FF93
:10037000EECFE6FFEECFE6FFEFCFE6FFA0DFE552E0
:10038000E552E552E55248D142D9B4D9FB0EDBCF54
:10039000E6FFFC0EDBCFE6FF07DFE552E5523CD17E
:1003A00036D9F0C010F0F1C011F0040ED89010361C
:1003B0001136E806FBE192D9FE0EDBCFEFFFF22B00
:1003C000000EF32329D15BDADF6ADFCF10F0100EC5
:1003D000E76E1018E8AE02D0E73402D0E750105CA8
:1003E00018E2DFCFE9FFEA6AE9BEEA68C10EE92652
:1003F000000EEA22200EEF6EDFCFE9FFEA6AE9BEC7
:10040000EA68D10EE926000EEA22200EEF6EDF2AFE
:10041000DCD7E55201D133DA0001C051030A29E0EB
:10042000010A1CE0030A0CE0010A32E13BDA080E83
:10043000DF5C03E2DF50B9D9FAD70001010E17D013
:10044000080EE66EE66A09D9080EDF5C04E2080EC3
:10045000DF24ABD9F9D70001020E09D00BDA080E60
:10046000DF5C03E2DF50A7D9FAD70001030EC06FAB
:1004700010D0080EE66E010EE66EEFD8080EDF5CB7
:1004800004E2080EDF2497D9F9D70001C06B01D030
:10049000C06BE552C1D0F3D90001C051010A0DE093
:1004A000010A15E1FFD9100EDF5C03E2DF507DD9B0
:1004B000FAD70001010EC06F0BD0DCD9100EDF5C43
:1004C00003E2DF5078D9FAD70001C06B01D0C06BCE
:1004D000E552A2D0D4D9E6D9100EDF5C03E2DF509A
:1004E00064D9FAD7C7D9100EDF5C03E2DF5063D9B5
:1004F000FAD7E55291D08BD8B3D8F0C010F0F1C044
:1005000011F0040ED89010361136E806FBE1E6D85B
:10051000FC0EDBCFEFFF80D0A8D9A2D8F90EDBCF3D
:1005200010F0FA0EDBCF11F01ED91050111012107E
:10053000131003E1300E0CD936D0D950F90FEBD897
:1005400001E6EFD805E22D0E03D9D950F90FA1D855
:10055000DE52070EDD6E0ED9E8AE02D0103403D0A5
:10056000E750D88010541FE2EED814BE156848D862
:100570000DD940D9DFD80BE0010EDF6EDB04186E19
:10058000196A18BE19685AD835D976D803D0DF5001
:1005900002E0300EDDD8D7D814BE156831D8D95056
:1005A000F90F43D8D8D7020EE15C02E2E16AE552C6
:1005B000E16E32D02CD854D8FB0EDBCFF6FFFC0E08
:1005C000DBCFF7FF0800F5500DE0FB0EDBCFF6FFA9
:1005D000DB2AFC0EDBCFF7FF01E3DB2A0800F55036
:1005E000B7D8EAD719D08186010ED9D88196010EE5
:1005F000CFEF03F0E66EE66AE66AE66A2FDD56D1D3
:1006000014C0E6FF15C0E6FF10D92CEF04F0D9CFD7
:10061000E6FFE1CFD9FF1200E552E7CFD9FF120084
:10062000EA22EF50F2D8DF2A1200F3D8AFD802D96D
:100630006CEC0AF008D9010EDB06120018C0E6FFC8
:1006400019C0E6FFF2D806C014F007C015F008C0C4
:1006500016F009C017F0C6EF03F020D9DF6A1200C8
:10066000FE0EDB50010B0001F06FF16BFD0EDB5055
:100670000F0BF26FF36B1200DBCF09F06CEC0AF09A
:10068000EBD8300E1026000E112212221322105029
:100690001200BFD8000EEE6CEF1EEE22EF1EEE220F
:1006A000EF1EEF22ED52ED52ED521200D950FB0F2A
:1006B000B0D8EE50105CEE501158EE501258EE507B
:1006C00013581200FE0EDBCFE6FF56DDE552FE0E9C
:1006D000DB38F00BE66E50DDE5521200C10E10263D
:1006E000000E112210500001F225E96E1150F32185
:1006F000EA6E1200FD0EDBCFE6FFFE0EDBCFE6FF5B
:100700004EEF04F0020EDBCF10F0030EDBCF11F042
:10071000D890115012007DD8D890030EEB50000AEB
:100720001200000EEE5C000EEE58000EEE58000EA9
:10073000EE581200DBCF09F06CEC0AF006500710FF
:10074000081009101200010EDB04146E156A120065
:10075000E66E26DEE5521200DECF10F0DDCF11F09E
:10076000126A136A1200FB0EDBCF12F0FC0EDBCF15
:1007700013F01200010EDBCF10F0000EE76E101820
:100780001200020EDB6A030EDB6A120006C00BF0D9
:1007900007C00CF008C00DF009C00EF01200E66EA4
:1007A000E66AE66AE66A7DDC81D0EA6AC10FE96E34
:1007B000000E10EF03F0EA6AD10FE96E000E10EFA1
:1007C00003F0811210DF0F0E811612000F0E12DFE0
:1007D0000F0E811281860EDF0F0E81141200FB0EA8
:1007E000DBCF06F0FC0EDBCF07F0FD0EDBCF08F011
:1007F000FE0E1200F90EDBCF06F0FA0EDBCF07F08B
:10080000FB0EDBCF08F0FC0E1200E66ECCDCE552EE
:100810001200E96EFF0EDA20EA6E1200F8DEFE0E1C
:10082000DBCFE6FFB8DCE552F7D60A0EE66EE66AE5
:10083000F1DC3CD0EECF06F0EECF07F0EECF08F0C3
:10084000EFCF09F0120005C0EDFF04C0EDFF03C0BB
:10085000EDFF02C0EFFF120006C010F007C011F05C
:1008600008C012F009C013F01200D1DE020EE1261A
:10087000DF6A1200E66A010EE66E2DEF03F0C7DEB6
:10088000E6521200C4DE040EE126DE6ADD6A1200C2
:10089000BEDE0F0E8116FE0EDB5012009DDCE5520F
:1008A000E5521200E66AE66A2DEF03F0E552E552E2
:0608B000E552E5521200C2
:0A08B60024DA43D80F016B51FDE076
:1008C0006B6BC3EC07F0DFD80BEC02F0F6D7D8D98E
:1008D000040EE126DE6ADD6ADECF10F0DDCF11F016
:1008E000E8D911501318E8AE02D0133404D01250D6
:1008F000105C135011581DE2020EDB6A030EDB6A16
:10090000020EDBCF10F0030EDBCF11F0D8901150A8
:1009100004E6EE0E105C000E115806E2020EDB2A11
:10092000030EEEE3DB2AECD7DF2A010ED5E3DB2A48
:10093000D3D7040EE15C02E2E16AE552E16EA5D193
:10094000936A956A7CEC00F0E3EC01F0B9EC08F0F6
:10095000E80EE66E030EE66EBADFE552E552570E7C
:10096000E66E120EE66E8DEC06F0E552E552AE0E26
:10097000E66E240EE66EA3EC06F0E552E552660E36
:10098000E66EB70EE66ED2EC06F0E552E552020EC8
:10099000E66EE66A2BEC07F0E552E5520A0EE66ECB
:1009A000E66A37EC07F0E552E552320EE66EE66A8B
:1009B00050EC07F0E552E552BFEF07F093D90CE198
:1009C00078D9133404E212500708000E135404E3DC
:1009D00060D9EF508310836E58D184D90CE169D966
:1009E000133404E212500708000E135404E351D9E3
:1009F000EF1C8314836E49D143D93CD9EF0407E13E
:100A00006AD9EBDFE552E55235D9EF6A07D063D9F1
:100A1000D5DFE552E5522ED9010EEF6E36D170D9F1
:100A2000DECF10F0DDCF11F0113404E210500708D2
:100A3000000E115411E3DECFE6FFDDCFE6FFBEDF8F
:100A40002ED9DECFE6FFDDCFE6FFC7DF28D9DF2ACC
:100A5000010EE6E3DB2AE4D7020EE15C02E2E16A82
:100A6000E552E16E12D10F01010E3C1903E13D5137
:100A700001E1010C000C0F01010E3E1903E13F5191
:100A800001E1010C000C0F013451040A5CE0070A7B
:100A90004FE0010A42E0030A16E0010A01E01200F9
:100AA000C60EE66E140EE2D8B50EE66E140EE66EB5
:100AB000E66A06D9D4D8C4D8000950E00F01356BD6
:100AC000366B010E33D0A40EE66E140ECFD80F0194
:100AD000362B93D8000912E0A20EE66E140EE66ED5
:100AE00035CFE6FFEDD80F013551EA6AEB0FE96E1D
:100AF000000EEA22EFC0EFFF352B366B040E0F011C
:100B0000355D02E3020E346F640E365D01E3346B33
:100B100097D8000923E00F011FD0366B20D80009B9
:100B200003E00F01030E02D00F01040E346F120018
:100B3000362B910EE66E140E99D88AD8640E0F01EA
:100B4000365D0CE309D0362B800EE66E140E8ED87F
:100B5000280E0F01365D02E3346B1200120090D8AC
:100B6000040EE126B0D8DF6A050EDF5C3DE2ABD8AB
:100B7000010EDB6A040EF36E010EDBCFF4FFF350BF
:100B8000F45C24E2010EDB50EA6AEB0FE96E000E22
:100B9000EA22EFCF10F0DF50040DF3CF11F0F4CFC5
:100BA00012F0200E11260F0E1222010EDB5011241E
:100BB000E96E000E1220EA6EEF50105C04E0020EA7
:100BC000DB6A030EDB6A010EDB2AD4D7D950020F91
:100BD000E96EDACFEAFF010EEE1804E1ED5002E112
:100BE000DF2802D0DF2AC0D7106E040EE15C02E2DB
:100BF000E16AE552E16E105048D042D8E652DF6A11
:100C0000DF500F081AE3EA6ADF34FE0BEA36E96EBA
:100C1000380EE9260F0EEA22010EEE180CE1ED5017
:100C20000AE1DF50EA6A100FE96E0F0EEA22EFCFF9
:100C3000EFF0010E03D0DF2AE3D7000EE55225D0F6
:100C40000F01010E501903E1515101E1010C000C9B
:100C5000000EE66EE66AB2DEE552E5521200000EC4
:100C6000E66EE66ABADEE552E5521200E66EE66A24
:100C7000E66A3FD04BD8080EE9260F0EEA22120092
:100C8000D9CFE6FFE1CFD9FF1200E552E7CFD9FF78
:100C900012003CD8000EE9260F0EEA221200E5529F
:100CA000E552F40EE66E010EE66E11DEE552E552F7
:100CB0001200FD0EDBCF12F0FE0EDBCF13F01200A0
:100CC000010EE66E16D0010EF36E020EF3CFDBFFBF
:100CD000030EDB6A1200FD0EDBCFE6FFFE0EDBCF5C
:100CE000E6FF1200CDDFFE0EDBCF11F0800E1114F7
:100CF0001200DAEC02F0E552E552E552E55212003C
:100D0000BFDF020EE126DE6ADD6A1200FD0EDBCFD8
:0A0D1000E9FFFE0EDBCFEAFF120040
:060D1A00F1D8D59EFD0E8C
:100D2000DBCF60FFFE0EDBCF61FFD59C05D9D59AE6
:100D3000D586F28AF294F184D58EE6D0D59E120043
:100D4000FBD8D58E1200DBD8CD90FD0EDBCF62FF35
:100D5000FE0EDBCF63FFF7D89D809E909F90CD8ED7
:100D6000CD8CCD98CD9ACD96CD92CD80CDD0EBD8EF
:100D7000CD801200CD901200C2D8CA94CC6AFE0E6B
:100D8000DB500F01646F656BCB6E9D829E929F92CC
:100D9000CA90CA92CA84B8D064CFCBFFCA8412006A
:100DA000CA941200ACD8B190FD0EDBCF66FFFE0EE8
:100DB000DBCF67FFCFD80750B36ECCD8B5D8B26EB3
:100DC000A082A192A292B18EB198B19AB192B18053
:100DD0009BD0C0D80350B26EBDD89ED8B36EB18040
:100DE0001200B19012000F01702B000E7123785188
:100DF000705D7951715904E3706B716B010E686F0E
:100E000012000F01722B000E73237A51725D7B5119
:100E1000735904E3726B736B010E696F12000F015B
:100E2000742B000E75237C51745D7D51755904E35C
:100E3000746B756B010E6A6F12000F01762B000E3A
:100E400077237E51765D7F51775904E3766B776B1C
:100E5000010E6B6F120053D8FD0EDBCF78FFFE0E34
:100E6000DBCF79FF0F01706B716B686B4DD047D88A
:100E7000FD0EDBCF7AFFFE0EDBCF7BFF050E0D6E86
:100E80000E6A7ACF08F07BCF09F066EC09F008C053
:100E90007AFF09C07BFF0F01726B736B696B34D0F3
:100EA0002ED8FD0EDBCF7EFFFE0EDBCF7FFF0A0EBE
:100EB0000D6E0E6A7ECF08F07FCF09F066EC09F068
:100EC00008C07EFF09C07FFF0F01766B776B6B6BED
:100ED0001BD0186A1650135C106E17501458116E00
:100EE00018501558126E0C6A010E0D6E0E6A10C065
:100EF00007F011C008F012C009F08CEF09F0D9CF4B
:100F0000E6FFE1CFD9FF1200E552E7CFD9FF12008B
:100F100013681468156A120007C010F008C011F0B9
:100F200009C012F00750120003C010F004C011F005
:100F300005C012F00350120014D80350D66E11D819
:100F4000EBDFD76E120014D80750CF6E11D8ECDF4C
:100F5000CE6E1200DDDF66CF16F067CF17F069EFB7
:100F600007F0D6DF60CF16F061CF17F069EF07F01A
:0E0F7000CFDF62CF16F063CF17F069EF07F006
:020F7E000F0E54
:100F8000946E82681200BAD8E2D801E6DBD835E266
:100F9000A6D8BDD801E6D6D82BE2C2D820E1DECF54
:100FA00014F0DDCF15F0D89014361536D8901436DD
:100FB0001536020EDB501424E96E030EDB501520AB
:100FC000CAD8EECF12F0EFCF13F0010E1226000EAA
:100FD000132275D812C0EEFF13C0EDFF03D06FD8F7
:100FE000EE6AED6A020EDB2A030ED3E3DB2AD1D7C9
:100FF000DF2A010EC9E3DB2AC7D7040EE15C02E257
:10100000E16AE5529AD07AD8AFD8FD0EDBCF12F064
:10101000FE0EDBCF13F011501318E8AE02D01334DC
:1010200004D01250105C1350115816E2020EDB6A05
:10103000030EDB6A6CD804E6EE0E105C000E11584D
:1010400006E2020EDB2A030EF5E3DB2AF3D7DF2AE2
:10105000010EDAE3DB2AD8D7040EE15C02E2E16A92
:10106000E5526BD04BD873D801E66CD822E237D862
:101070004ED801E667D80FE222D8EE6AED6A50D862
:1010800004E11DD8010EEE6EED6A020EDB2A030E9E
:10109000EFE3DB2AEDD78250816EE80EE66E030E99
:1010A000E66EB1DFE552E552DF2A010EDCE3DB2A12
:1010B000DAD7040EE15C02E2E16AE5523ED054D890
:1010C000D89010361136D89010361136020EDB50FB
:1010D0001024E96E030EDB501120ABEF08F0DECFD9
:1010E000E9FFDDCFEAFF580EE9260F0EEA22EF1CDA
:1010F000826E020EDB6A030EDB6A1200D9CFE6FFB6
:10110000E1CFD9FF040EE126DE6ADD6A1200020E8D
:10111000DBCF10F0030EDBCF11F0D890115012008E
:10112000020EDBCFE9FF030EDBCFEAFF5C0EE92600
:101130000F0EEA22EF5082141200E16EE552E7CF63
:10114000D9FF1200040E105C000E115812000CD8CA
:10115000D89011501200EA6ED890E936EA36380E6F
:10116000E9260F0EEA221200DECF10F0DDCF11F0DB
:0211700012006B
:0E117200F28ED08EF28C1200F19CF292F28876
:101180001200D8CFE4FFE0CFE4FFE46E62D800EEB7
:1011900000F0100EE80403E3EECFE4FFFBD700EE0F
:1011A00010F00A0EE80403E3EECFE4FFFBD7E652AB
:1011B000F2B477D89EB07CD8A1B281D8F2B2F292C4
:1011C0009EBA9E9AE55200EE19F00A0EE80403E377
:1011D000E5CFEDFFFBD700EE0FF0100EE80403E3C0
:1011E000E5CFEDFFFBD74AD8E550E5CFE0FFE5CFEF
:1011F000D8FF10002ED800EE00F0100EE80403E334
:10120000EECFE4FFFBD700EE10F00A0EE80403E394
:10121000EECFE4FFFBD7E652F2B443D89EB048D8F5
:10122000A1B24DD8F2B2F2929EBA9E9AE55200EE69
:1012300019F00A0EE80403E3E5CFEDFFFBD700EE5B
:101240000FF0100EE80403E3E5CFEDFFFBD716D84F
:101250001100DACFE4FFE2CFDAFFE9CFE4FFEACF13
:10126000E4FFF6CFE4FFF7CFE4FFF5CFE4FFF3CFE1
:10127000E4FFF4CFE4FFFACFE4FF1200E5CFFAFF7A
:10128000E5CFF4FFE5CFF3FFE5CFF5FFE5CFF7FFBF
:10129000E5CFF6FFE5CFEAFFE5CFE9FFE5CFDAFFDF
:1012A00012009EEC06F0F294A0EC06F0F3EF06F0CC
:1012B000BAEC06F09E90B7EC06F001EF07F0F1EC07
:0C12C00006F0A192E9EC06F01DEF07F02B
:0412CC00006A0EAEF8
:1012D0006FEF09F00D6C0E1EE86A0E22001E09AEBB
:1012E00077EF09F0086C091EE86A0922001EADECD0
:1012F0000AF009BE87EF09F000AE000C086C091E69
:10130000E86A0922046C051EE86A0522000C00BE8A
:101310007EEF09F00188FF0C006A0EAE97EF09F02E
:101320000C6C0D1E0E1EE86A0D220E22001E09AE68
:10133000A1EF09F0076C081E091EE86A08220922BD
:10134000001E90EC0AF009BEB4EF09F000AE000CEC
:10135000076C081E091EE86A08220922036C041E95
:10136000051E04220522000C00BEA8EF09F001882A
:02137000FF0C70
:0E1372001E0EF66E000EF76E000EF86E0001F5
:101380000900F550E66F0900F550E76F03E1E667E5
:1013900001D03DD00900F550E16F0900F550E26F32
:1013A0000900F550E36F09000900F550E96E0900E6
:1013B000F550EA6E090009000900F550E46F0900D4
:1013C000F550E56F09000900F6CFE8F0F7CFE9F036
:1013D000F8CFEAF0E1C0F6FFE2C0F7FFE3C0F8FFA4
:1013E0000001E45302E1E55307E00900F550EE6E19
:1013F000E407F8E2E507F9D7E8C0F6FFE9C0F7FF30
:10140000EAC0F8FF0001E607000EE75BBFD7120055
:1014100006500B02F3CF02F0F4CF03F00C02F350AE
:101420000326000EF420046E06500D02F35004262D
:10143000000EF420056E06500E02F35005260750EC
:101440000B02F3500326F4500422000E052207502D
:101450000C02F3500426F450052207500D02F350FD
:10146000052608500B02F3500426F45005220850BC
:101470000C02F350052609500B02F350052612000A
:1014800050415353574F52442057524F4E472020FC
:10149000004F50454E494E4720444F4F5220202088
:1014A00020002A00454E5445522050415353574F77
:1014B00052442020002020202020202020202020F6
:1014C0002020202020005052455353202A20464FF0
:0714D000522050415353006C
:0814D800056A046A036A026A56
:1014E000200EE76ED89006360736083609360236E3
:1014F0000336043605360B50025C0C5003580D5071
:1015000004580E50055809E30B50025E0C50035A64
:101510000D50045A0E50055A062AE72EE4D7120041
:10152000056A046A036A180EE76ED8900736083613
:1015300009360336043605360C50035C0D5004584A
:101540000E50055807E30C50035E0D50045A0E5020
:0A155000055A072AE72EEAD7120019
:06155A00056A046A100E90
:10156000E76ED89008360936043605360D50045C0F
:101570000E50055805E30D50045E0E50055A082A1A
:06158000E72EF0D7120077
:0A158600800EF36E00EE00F00F0E71
:1015900001D81200EA6002D0EE6AFCD7F350E9608D
:0615A0001200EE6AFCD708
:0A15A6001EEE00F02EEE00F0F86AD1
:1015B000019CB9EC09F003EC00F05BEC04F0FBD704
:0215C000120017
:0E15C20000000000000000000000000000001B
:1015D0000000000000000000000001000100010008
:0215E000010008
:0E15E2000102040810204080000000000000FC
:1015F00000000102034104050642070809432A00CE
:101600004544010203040207080903030303040815
:0A16100006080541424300000000F7
:06161A00000000000000CA
:1016200000001010101010101010181818181818AA
:1016300018181C1C1C1C1C1C1C1C1E1E1E1E1E1EE6
:101640001E1E1F1F1F1F1F1F1F1F00000000000066
:10165000000000000000000000000000000000008A
:10166000000000000000000000000000000000007A
:0B16700000000000000000000000006F
:05167B0000000000006A
:10168000000000000000000000000000000000005A
:101690000000000000000000000000102040800159
:0316A00002040839
:020000040030CA
:0100010002FC
:0100020003FA
:010003001EDE
:010005008179
:010006008178
:010008000FE8
:01000900C036
:01000A000FE6
:01000B00E014
:01000C000FE4
:01000D0040B2
:00000001FF
