:020000040000FA
:0600000064EF1CF0120089
:020006001200E6
:06000800A1EF19F0120047
:02000E000000F0
:020010000000EE
:060018002FEF19F01200A9
:02001E000500DB
:100020002B3A0000AA010000290000000E00000089
:10003000EC00000004000000CA390000800000004D
:10004000610000002039000000010000AA0000004B
:0C00500000390000D30100002000000077
:04005C00D9CFE6FF13
:10006000E1CFD9FF020EE126DE6ADD6A4ED801013A
:10007000DE51FDE0DE6B91EC17F099D948EC12F0FF
:10008000F6D7D9CFE6FFE1CFD9FF040EE126DE6A2D
:10009000DD6ADECF10F0DDCF11F0FD0EDBCF12F008
:1000A000FE0EDBCF13F011501318E8AE02D013345C
:1000B00004D01250105C135011581DE2020EDB6A7E
:1000C000030EDB6A020EDBCF10F0030EDBCF11F064
:1000D000D890115004E6EE0E105C000E115806E2A6
:1000E000020EDB2A030EEEE3DB2AECD7DF2A010E39
:1000F000D0E3DB2ACED7040EE15C02E2E16AE552EE
:10010000E16EE552E7CFD9FF1200936A956A79EC68
:100110000EF019EC12F027EC19F0E80EE66E030E63
:10012000E66EAFDFE552E552570EE66E120EE66E52
:10013000FFEC14F0E552E552AE0EE66E240EE66ECC
:10014000A1EC15F0E552E552660EE66EB70EE66ECE
:1001500062EC16F0E552E552020EE66EE66A3DEC00
:1001600017F0E552E5520A0EE66EE66A4FEC17F01C
:10017000E552E552320EE66EE66A6EEC17F0E55295
:10018000E5528DEF17F0D9CFE6FFE1CFD9FFFE0E94
:10019000DBCF11F0800E11141AE1FD0EDBCF12F04F
:1001A000FE0EDBCF13F0133404E212500708000EEA
:1001B00013540DE3FD0EDBCFE9FFFE0EDBCFEAFFAC
:1001C000000EE926010EEA22EF508310836EE552FD
:1001D000E7CFD9FF1200D9CFE6FFE1CFD9FFFE0E5E
:1001E000DBCF11F0800E11141AE1FD0EDBCF12F0FF
:1001F000FE0EDBCF13F0133404E212500708000E9A
:1002000013540DE3FD0EDBCFE9FFFE0EDBCFEAFF5B
:10021000000EE926010EEA22EF1C8314836EE552DC
:10022000E7CFD9FF1200D9CFE6FFE1CFD9FFFD0E0E
:10023000DBCFE9FFFE0EDBCFEAFF080EE926010E59
:10024000EA22EF0415E1FD0EDBCFE6FFFE0EDBCF69
:10025000E6FFC1DFE552E552FD0EDBCFE9FFFE0E02
:10026000DBCFEAFF080EE926010EEA22EF6A15D07D
:10027000FD0EDBCFE6FFFE0EDBCFE6FF84DFE552AF
:10028000E552FD0EDBCFE9FFFE0EDBCFEAFF080EE5
:10029000E926010EEA22010EEF6EE552E7CFD9FF03
:1002A0001200D9CFE6FFE1CFD9FF020EE126DE6AC8
:1002B000DD6ADECF10F0DDCF11F0113404E2105012
:1002C0000708000E115421E3DECFE6FFDDCFE6FF85
:1002D0005ADFE552E552F40EE66E010EE66ED1DE0F
:1002E000E552E552DECFE6FFDDCFE6FF74DFE552F3
:1002F000E552F40EE66E010EE66EC3DEE552E552FF
:10030000DF2A010ED6E3DB2AD4D7020EE15C02E23B
:10031000E16AE552E16EE552E7CFD9FF1200D9CF8D
:10032000E6FFE1CFD9FF020EE126DE6ADD6ADE6A72
:10033000DD6ADECF10F0DDCF11F001019651105CC7
:100340009751115828E2DECFE9FFDDCFEAFF030E17
:10035000D890E936EA36E806FBE13E0EE926010EC2
:10036000EA22EECF10F0EFCF11F0FD0EDB501018A7
:100370000DE1FE0EDB50111809E1DECF10F0DDCFEC
:1003800011F010C0F3FF11C0F4FF07D0DF2A010EF7
:10039000D0E3DB2ACED7F368F468020EE15C02E218
:1003A000E16AE552E16EE552E7CFD9FF1200D9CFFD
:1003B000E6FFE1CFD9FF020EE12601019051040AC8
:1003C00002E150EF0CF0070A02E134EF0CF0080AEA
:1003D00002E119EF0CF01F0A02E1E0EF0BF0070A4F
:1003E00002E155EF0BF01C0A02E1E0EF09F01D0AF3
:1003F00002E180EF09F0030A02E109EF09F01F0AA8
:1004000002E18FEF07F01E0A02E1E5EF06F01D0A98
:1004100002E15DEF06F0070A01E16AD3060A01E195
:100420002AD3050A01E1B9D2010A01E143D21E0A29
:1004300001E1D2D1030A01E189D1170A01E174D1A6
:10044000030A01E1EAD0060A01E1D2D0010A01E182
:10045000B5D0030A2DE0050A02E062EF0CF09A0E17
:10046000E66E350EE66EE66AE66A8EEC14F0E5524C
:10047000E552E552E552890EE66E350EE66EE66A05
:10048000010EE66E8EEC14F0E552E552E552E552AF
:10049000EBEC0CF0D3EC0CF0000902E162EF0CF095
:1004A0009FEC0DF001018E6B8F6B050EDEEF09F0F6
:1004B000932B780EE66E350EE66EE66AE66A8EECF3
:1004C00014F0E552E552E552E552AAEC0CF00009B1
:1004D00032E0410E0001E75D14E101019251000894
:1004E00028E20A0E0D6E0E6A8EC108F08FC109F067
:1004F0003EEC1CF008C08EF109C08FF1010192079B
:1005000018D00A0EE75D15E28EC110F08FC111F010
:100510000A0E1102F3CF11F01002F3CF10F0F450D5
:100520001126E7510101F3248E6F000E11208F6F09
:10053000922B0101936B92C1E6FF8EC1E6FF8FC142
:10054000E6FF000EE66EE66A010EE66EE66AF3EC82
:100550000CF0106E070EE15E10506A0EE66E350E5E
:10056000E66E030EE66E010EE66E8EEC14F0E552BA
:10057000E552E552E552030E0101925D04E2D3EC2F
:100580000CF0000905E09FEC0DF00101060E906FE4
:10059000DBEC0CF0000902E00101906B01019351CA
:1005A000106E116AD890115004E6580E105C020EBD
:1005B000115802E262EF0CF04EEF0CF0936B8EC11B
:1005C000E6FF8FC1E6FFABDEE552E552F3CF94F1D3
:1005D000F4CF95F10101F31C01E1951D06E0010E38
:1005E000906F19EC12F062EF0CF0070EDEEF09F0DD
:1005F000932B590EE66E350EE66EE66AE66A8EECD1
:1006000014F0E552E552E552E552280E0101935DE2
:1006100002E262EF0CF04EEF0CF04C0EE66E350E7F
:10062000E66EE66AE66A8EEC14F0E552E552E552B3
:10063000E55294C1E9FF95C1EAFF030ED890E9366F
:10064000EA36E806FBE13E0EE926010EEA22EECF8D
:1006500010F0EFCF11F0126A136A10C0E6FF11C05C
:10066000E6FF12C0E6FF13C0E6FF0D0EE66EE66A77
:1006700067EC13F0146E060EE15E14500101932B2B
:10068000AAEC0CF0000935E0410E0001E75D14E131
:100690000101915100082BE291074A0EE66E350EDA
:1006A000E66E91C1E6FF010EE66E8EEC14F0E552A7
:1006B000E552E552E5521BD00A0EE75D18E2480EFE
:1006C000E66E350EE66E91C1E6FF010EE66E8EEC2B
:1006D00014F0E552E552E552E55201019151EA6A02
:1006E000E10FE96E000EEA22E7C0EFFF912B010156
:1006F000936B060E0101915D02E3020E906F935120
:10070000106E116AD890115004E6580E105C020E5B
:10071000115801E3906BDBEC0CF0000902E162EF91
:100720000CF001014EEF0CF0936B916B6CEC0CF044
:10073000000908E001019451951101E1BCD2150EA8
:10074000DEEF09F00101040EDEEF09F0932B3C0E01
:10075000E66E350EE66EE66AB9EC14F0E552E55247
:10076000E5522E0EE66E350EE66E010EE66EB9EC23
:1007700014F0E552E552E5520101D20502E1010112
:10078000936BDBEC0CF0000902E00101906B0101BE
:10079000010EAA1906E1AB5104E1A7C190F19FEC4B
:1007A0000DF00101010EAC1906E1AD5104E1A8C143
:1007B00090F19FEC0DF001019351106E116A11340C
:1007C00002E362EF0CF010505808020E115402E3DD
:1007D00062EF0CF04EEF0CF0932B1D0EE66E350E13
:1007E000E66EE66AB9EC14F0E552E552E552AAEC81
:1007F0000CF0000939E0410E0001E75D14E1010150
:10080000915100082FE291074A0EE66E350EE66E12
:1008100091C1E6FF010EE66E8EEC14F0E552E55252
:10082000E552E5521FD00A0EE75D1CE2060E0101FB
:10083000915D18E2480EE66E350EE66E91C1E6FF58
:10084000010EE66E8EEC14F0E552E552E552E552EB
:1008500001019151EA6AE10FE96E000EEA22E7C058
:10086000EFFF912B0101936BD3EC0CF0000908E032
:10087000060E0101915D04E30C0E906F9FEC0DF0EC
:10088000DBEC0CF0000905E00101150E906F9FEC08
:100890000DF001019351106E116A113402E362EF01
:1008A0000CF010505808020E115402E362EF0CF0E5
:1008B0004EEF0CF0932B9E51010A10E0010A23E148
:1008C0003C0EE66E350EE66EE66AB9EC14F0E552C3
:1008D000E552E5522E0EE66E350E0DD00F0EE66E89
:1008E000350EE66EE66AB9EC14F0E552E552E552D3
:1008F000020EE66E350EE66E010EE66EB9EC14F0F1
:10090000E552E552E5520101D20502E10101936B86
:10091000D3EC0CF0000905E001019E29010B9E6F4C
:10092000936BDBEC0CF0000902E00101906B01011C
:10093000010EAA1911E1AB510FE101019E51E96EBF
:10094000EA6AD890E936EA369A0EE926010EEA22DA
:10095000EFCF90F19FEC0DF00101010EAC1915E104
:10096000AD5113E101019E51E96EEA6AD890E93672
:10097000EA369A0EE926010EEA22010EE926000E59
:10098000EA22EFCF90F19FEC0DF001019351640842
:1009900002E362EF0CF04EEF0CF0932BF30EE66ED9
:1009A000340EE66EE66AB9EC14F0E552E552E55213
:1009B000AAEC0CF0000939E0410E0001E75D14E1FA
:1009C0000101915100082FE291074A0EE66E350EA3
:1009D000E66E91C1E6FF010EE66E8EEC14F0E55274
:1009E000E552E552E5521FD00A0EE75D1CE2060E05
:1009F0000101915D18E2480EE66E350EE66E91C17A
:100A0000E6FF010EE66E8EEC14F0E552E552E5527B
:100A1000E55201019151EA6AE10FE96E000EEA2206
:100A2000E7C0EFFF912B0101936BD3EC0CF00009B1
:100A300008E0060E0101915D04E30C0E906F9FEC3F
:100A40000DF0DBEC0CF0000905E00101080E906FE1
:100A50009FEC0DF001019351106E116A113402E305
:100A600062EF0CF010505808020E115402E362EFCE
:100A70000CF04EEF0CF0932BE40EE66E340EE66EA7
:100A8000E66AB9EC14F0E552E552E552010193052E
:100A900027E1060EE66EE66AE10EE66E000EE66EF1
:100AA00094C1E9FF95C1EAFF030ED890E936EA3612
:100AB000E806FBE13E0EE926010EEA22020EE926D7
:100AC000000EEA22E9CF10F0EACF11F0E9CFE6FFFD
:100AD000EACFE6FF79EC1BF0126E060EE15E1250D3
:100AE00001019351280802E362EF0CF04EEF0CF085
:100AF000932BA351010A10E0010A23E1D70EE66E01
:100B0000340EE66EE66AB9EC14F0E552E552E552B1
:100B1000C70EE66E340E0DD0B70EE66E340EE66EDE
:100B2000E66AB9EC14F0E552E552E5524A0EE66E7B
:100B3000350EE66E010EE66EB9EC14F0E552E552A4
:100B4000E5520101D20502E10101936BD3EC0CF0F7
:100B5000000905E00101A329010BA36F936BDBECF6
:100B60000CF0000905E00101080E906F9FEC0DF0FC
:100B70000101010EAA1944E1AB5142E10101A35167
:100B8000E96EEA6AD890E936EA369F0EE926010E48
:100B9000EA22EFCF90F19FEC0DF096C112F097C1D1
:100BA00013F01206000E135A0001136A030E1216F8
:100BB0001250131010E196C110F097C111F01006F9
:100BC000000E115A020E0F0B19E0D890113210329C
:100BD000E806FBE113D096C110F097C111F01006A2
:100BE000000E115A020E0F0B05E0D8901132103290
:100BF000E806FBE1010E1026000E112210C0A4F140
:100C00000101010EAC1948E1AD5146E10101A351CA
:100C1000E96EEA6AD890E936EA369F0EE926010EB7
:100C2000EA22010EE926000EEA22EFCF90F19FECB6
:100C30000DF096C112F097C113F01206000E135A70
:100C40000001136A030E12161250131010E196C120
:100C500010F097C111F01006000E115A020E0F0B82
:100C600019E0D89011321032E806FBE113D096C19A
:100C700010F097C111F01006000E115A020E0F0B62
:100C800005E0D89011321032E806FBE1010E102683
:100C9000000E112210C0A4F101019351106E116ACF
:100CA000113402E362EF0CF010505808020E115498
:100CB00002E362EF0CF0080E81D3932BAC0EE66ECC
:100CC000340EE66EE66AE66A8EEC14F0E552E55202
:100CD000E552E55298C110F099C111F0126A136AF9
:100CE00098C1E6FF99C1E6FF12C0E6FF13C0E6FF18
:100CF0000A0EE66EE66A67EC13F0146E060EE15E0D
:100D00001450AAEC0CF0000939E0410E0001E75D37
:100D100014E10101915100082FE291074A0EE66E9D
:100D2000350EE66E91C1E6FF010EE66E8EEC14F014
:100D3000E552E552E552E5521FD00A0EE75D1CE28E
:100D4000060E0101915D18E2480EE66E350EE66E64
:100D500091C1E6FF010EE66E8EEC14F0E552E5520D
:100D6000E552E55201019151EA6AE10FE96E000E88
:100D7000EA22E7C0EFFF912B0101936BD3EC0CF05B
:100D8000000908E0060E0101915D04E3100E906F6A
:100D90009FEC0DF0DBEC0CF0000905E001010A0E00
:100DA000906F9FEC0DF001019351106E116A113498
:100DB00002E362EF0CF010505808020E115402E3E7
:100DC00062EF0CF0080E16EF0CF0932BA20EE66EFD
:100DD000340EE66EE66AE66A8EEC14F0E552E552F1
:100DE000E552E552970EE66E340EE66EE66A010EA7
:100DF000E66E8EEC14F0E552E552E552E552010143
:100E000093056BE1DE6ADD6A96C1E9FF97C1EAFFEF
:100E1000030ED890E936EA36E806FBE13E0EE926F5
:100E2000010EEA2298C1EEFF99C1EDFFDE6ADD6A8C
:100E3000DECF10F0DDCF11F0D890115004E6060E91
:100E4000105C000E115843E2DECFE9FFDDCFEAFF70
:100E5000E10EE926000EEA22EF50E66E96C1E9FFA8
:100E600097C1EAFF030ED890E936EA36E806FBE1BF
:100E70003E0EE926010EEA22020EE926000EEA22C3
:100E8000DE50E924E96EDD50EA20EA6EE552E750D3
:100E9000EF6EDECFE9FFDDCFEAFFE10EE926000EBF
:100EA000EA22EF50300FE66EDECF10F0DDCF11F00A
:100EB0000A0E1024E66E010EE66E3CEC13F0E552CD
:100EC000E552E552DF2A010EB3E3DB2AB1D7010177
:100ED000982B000E9923962B972398C110F099C157
:100EE00011F01006000E115A126A136A10C0E6FFC4
:100EF00011C0E6FF12C0E6FF13C0E6FF090EE66E62
:100F0000E66A67EC13F0146E060EE15E1450010100
:100F10009351280802E362EF0CF0DEEF0BF0932B05
:100F2000040EA503F328106E9651105C000E975521
:100F300030E2930EE66E340EE66EE66AE66A8EECFA
:100F400014F0E552E552E552E552040E0101A50305
:100F5000F328080DF3CFE9FFF4CFEAFF3E0EE926B0
:100F6000010EEA22EECF10F0EFCF11F0126A136AF1
:100F700010C0E6FF11C0E6FF12C0E6FF13C0E6FF97
:100F8000030EE66EE66A67EC13F0146E060EE15E81
:100F90001450040E0101A503F350020F106E965178
:100FA000105C000E975532E28F0EE66E340EE66E40
:100FB000080EE66EE66A8EEC14F0E552E552E55254
:100FC000E552040E0101A503F350020F080DF3CF03
:100FD000E9FFF4CFEAFF3E0EE926010EEA22EECF4A
:100FE00010F0EFCF11F0126A136A10C0E6FF11C0C3
:100FF000E6FF12C0E6FF13C0E6FF0B0EE66EE66AE0
:1010000067EC13F0146E060EE15E1450040E01013D
:10101000A503F350030F106E9651105C000E975508
:1010200033E28B0EE66E340EE66EE66A010EE66E75
:101030008EEC14F0E552E552E552E552040E010142
:10104000A503F350030F080DF3CFE9FFF4CFEAFF38
:101050003E0EE926010EEA22EECF10F0EFCF11F09E
:10106000126A136A10C0E6FF11C0E6FF12C0E6FF65
:1010700013C0E6FF030EE66E010EE66E67EC13F09A
:10108000146E060EE15E1450040E0101A503F35028
:10109000040F106E9651105C000E975534E2870EC7
:1010A000E66E340EE66E080EE66E010EE66E8EEC0F
:1010B00014F0E552E552E552E552040E0101A50394
:1010C000F350040F080DF3CFE9FFF4CFEAFF3E0E13
:1010D000E926010EEA22EECF10F0EFCF11F0126AEE
:1010E000136A10C0E6FF11C0E6FF12C0E6FF13C08E
:1010F000E6FF0B0EE66E010EE66E67EC13F0146E63
:10110000060EE15E1450D3EC0CF000090EE0010174
:10111000A529106EA4C10EF0096E72EC1CF005C07A
:10112000A5F119EC12F00101936BDBEC0CF0000956
:1011300005E001010A0E906F9FEC0DF0AAEC0CF097
:10114000000959E00001E7050EE1040E0101A503C5
:10115000F328106E9651105C000E975504E2040EB1
:10116000A503F3283ED0020E0001E75D10E1040E56
:101170000101A503F350020F106E9651105C000E92
:10118000975505E2040EA503F350020F2AD0030E73
:101190000001E75D10E1040E0101A503F350030F08
:1011A000106E9651105C000E975505E2040EA503D3
:1011B000F350030F16D0040E0001E75D10E1040E9A
:1011C0000101A503F350040F106E9651105C000E40
:1011D000975505E2040EA503F350040F02D0010158
:1011E0000F0EA66F0F0EA65D04E0110E906F9FEC20
:1011F0000DF00101936B01019351106E116A1134CE
:1012000001E360D310505808020E115401E35AD381
:10121000D5D2932B7C0EE66E340EE66EE66AE66A55
:101220008EEC14F0E552E552E552E5520101A6516B
:10123000080DF3CFE9FFF4CFEAFF3E0EE926010ED9
:10124000EA22EECF10F0EFCF11F0126A136A10C04D
:10125000E6FF11C0E6FF12C0E6FF13C0E6FF0A0E6C
:10126000E66EE66A67EC13F0146E060EE15E14504B
:101270003F0EE66E0F0EE66EE66A3CEC13F0E552AA
:10128000E552E552750EE66E340EE66EE66A010E24
:10129000E66E8EEC14F0E552E552E552E5526D0E25
:1012A000E66E340EE66E080EE66E010EE66E8EEC0D
:1012B00014F0E552E552E552E5520101D20502E192
:1012C0000101936B70DB000905E09FEC0DF001015B
:1012D000120E906F70DB000905E09FEC0DF001012C
:1012E0000E0E906F01019351106E116A113401E3DB
:1012F000E9D210505808020E115401E3E3D25BD03A
:10130000932B5D0EE66E340EE66EE66AE66A8EECB0
:1013100014F0E552E552E552E5520101930547E12B
:10132000A651126E136A1250965D106E13509759A3
:10133000116E1006000E115A030ED8901036113699
:10134000E806FBE110C0E6FF11C0E6FF0101A6516F
:10135000080DF3CF14F0F4CF15F03E0E1426010E55
:101360001522080E1426000E152214C0E6FF15C023
:10137000E6FFA651080DF3CF16F0F4CF17F03E0E9E
:101380001626010E172216C0E6FF17C0E6FF79ECFD
:101390001BF0186E060EE15E18500101000ED88099
:1013A0009655000E975503E29607000E975B9351F2
:1013B000280801E387D2C3DB01010A0E906F82D2B5
:1013C000932B040EA503F328106E9651105C000EAB
:1013D000975530E2930EE66E340EE66EE66AE66AE4
:1013E0008EEC14F0E552E552E552E552040E01018F
:1013F000A503F328080DF3CFE9FFF4CFEAFF3E0E73
:10140000E926010EEA22EECF10F0EFCF11F0126ABA
:10141000136A10C0E6FF11C0E6FF12C0E6FF13C05A
:10142000E6FF030EE66EE66A67EC13F0146E060E36
:10143000E15E1450040E0101A503F350020F106E7B
:101440009651105C000E975532E28F0EE66E340E08
:10145000E66E080EE66EE66A8EEC14F0E552E55292
:10146000E552E552040E0101A503F350020F080DE9
:10147000F3CFE9FFF4CFEAFF3E0EE926010EEA22A0
:10148000EECF10F0EFCF11F0126A136A10C0E6FF32
:1014900011C0E6FF12C0E6FF13C0E6FF0B0EE66EBA
:1014A000E66A67EC13F0146E060EE15E1450040E4B
:1014B0000101A503F350030F106E9651105C000E4E
:1014C000975533E28B0EE66E340EE66EE66A010E39
:1014D000E66E8EEC14F0E552E552E552E552040E4C
:1014E0000101A503F350030F080DF3CFE9FFF4CF7B
:1014F000EAFF3E0EE926010EEA22EECF10F0EFCF12
:1015000011F0126A136A10C0E6FF11C0E6FF12C0A4
:10151000E6FF13C0E6FF030EE66E010EE66E67EC13
:1015200013F0146E060EE15E1450040E0101A503C3
:10153000F350040F106E9651105C000E975534E274
:10154000870EE66E340EE66E080EE66E010EE66E4F
:101550008EEC14F0E552E552E552E552040E01011D
:10156000A503F350040F080DF3CFE9FFF4CFEAFF12
:101570003E0EE926010EEA22EECF10F0EFCF11F079
:10158000126A136A10C0E6FF11C0E6FF12C0E6FF40
:1015900013C0E6FF0B0EE66E010EE66E67EC13F06D
:1015A000146E060EE15E1450FED900090EE0010132
:1015B000A529106EA4C10EF0096E72EC1CF005C0D6
:1015C000A5F119EC12F00101936BF5D9000904E0C3
:1015D00001010A0E906FB3DABDD9000958E000018D
:1015E000E7050EE1040E0101A503F328106E9651E4
:1015F000105C000E975504E2040EA503F3283ED0BC
:10160000020E0001E75D10E1040E0101A503F35095
:10161000020F106E9651105C000E975505E2040EF5
:10162000A503F350020F2AD0030E0001E75D10E17D
:10163000040E0101A503F350030F106E9651105CC8
:10164000000E975505E2040EA503F350030F16D0C4
:10165000040E0001E75D10E1040E0101A503F35043
:10166000040F106E9651105C000E975505E2040EA3
:10167000A503F350040F02D001010F0EA66F0F0E49
:10168000A65D03E0130E906F5ADA0101936B01011E
:101690009351106E116A113401E314D1105058089F
:1016A000020E115401E30ED189D0932B520EE66E37
:1016B000340EE66EE66AE66A8EEC14F0E552E55208
:1016C000E552E5520101A651080DF3CFE9FFF4CF31
:1016D000EAFF3E0EE926010EEA22EECF10F0EFCF30
:1016E00011F0126A136A10C0E6FF11C0E6FF12C0C3
:1016F000E6FF13C0E6FF0B0EE66EE66A67EC13F03A
:10170000146E060EE15E145025D9000939E0410E31
:101710000001E75D14E10101915100082FE29107FA
:101720004A0EE66E350EE66E91C1E6FF010EE66EDC
:101730008EEC14F0E552E552E552E5521FD00A0E48
:10174000E75D1CE2060E0101915D18E2480EE66EAF
:10175000350EE66E91C1E6FF010EE66E8EEC14F0DA
:10176000E552E552E552E55201019151EA6AE10F75
:10177000E96E000EEA22E7C0EFFF912B0101936BA7
:1017800012D9000907E0060E0101915D03E3140E72
:10179000906FD5D910D9000904E001010F0E906FA8
:1017A000CED901019351106E116A113401E38AD030
:1017B00010505808020E115401E384D00A0E36D09E
:1017C000932BE40EE66E340EE66EE66AB9EC14F086
:1017D000E552E552E5520101930523E1060EE66E5E
:1017E000E66AE10EE66E000EE66EA651080DF3CF36
:1017F000E9FFF4CFEAFF3E0EE926010EEA22020ECF
:10180000E926000EEA22E9CF10F0EACF11F0E9CF85
:10181000E6FFEACFE6FF79EC1BF0126E060EE15E02
:1018200012500101935128084DE20A0E906F87D99A
:1018300049D0932B470EE66E340EE66EE66AB9EC9D
:1018400014F0E552E552E552390EE66E340EE66EBE
:10185000010EE66EB9EC14F0E552E552E5520101D5
:10186000935128082FE21AD0932B280EE66E340EDF
:10187000E66EE66AE66A8EEC14F0E552E552E55251
:10188000E552A1D801019351106E116AD890115000
:1018900004E6580E105C020E115814E3906B12D03F
:1018A000932B170EE66E340EE66EE66AE66A8EEC51
:1018B00014F0E552E552E552E552280E0101935D20
:1018C00001E3906B020EE15C02E2E16AE552E16E37
:1018D000E552E7CFD9FF1200D9CFE6FFE1CFD9FF1C
:1018E000020EE126DF6A060EDF5C27E294C1E9FF03
:1018F00095C1EAFF030ED890E936EA36E806FBE127
:101900003E0EE926010EEA22020EE926000EEA2228
:10191000DF50E924E96E000EEA20EA6EEFCF10F006
:10192000DF50EA6AE10FE96E000EEA22EF50105C28
:1019300002E0000E03D0DF2AD6D7010E106E020E91
:10194000E15C02E2E16AE552E16E1050E552E7CF58
:10195000D9FF1200D9CFE6FFE1CFD9FFE652DF6A07
:10196000DF500F081AE3EA6ADF34FE0BEA36E96E4D
:10197000AA0EE926010EEA22010EEE180CE1ED5046
:101980000AE1DF50EA6A100FE96E010EEA22EFCF9A
:10199000E7F0010E03D0DF2AE3D7000EE552E5524F
:1019A000E7CFD9FF12000101010EC61903E1C751AB
:1019B00001E1010C000C0101010EC21903E1C35148
:1019C00001E1010C000C000EE66EE66AC3EC00F0CB
:1019D000E552E5521200000EE66EE66AEBEC00F00E
:1019E000E552E5521200D9CFE6FFE1CFD9FFF90E5B
:1019F000DBCF10F0FA0EDBCF11F00A0E105C000EF8
:101A000011582CE2F80EDB50030828E1140EE66EA4
:101A1000340EE66EFB0EDBCFE6FFFD0EDBCFE6FFFE
:101A20008EEC14F0E552E552E552E552F90EDBCFAB
:101A300010F0FA0EDBCF11F0126A136A10C0E6FF45
:101A400011C0E6FF12C0E6FF13C0E6FFFB0EDBCFBE
:101A500014F0FC0EDBCF15F0020E45D0F90EDBCFF3
:101A600010F0FA0EDBCF11F00A0E105C000E1158C8
:101A700004E2F80EDB5002080FE0F90EDBCF10F0A5
:101A8000FA0EDBCF11F0580E105C020E115837E23F
:101A9000F80EDB50030833E1120EE66E340EE66EEC
:101AA000FB0EDBCFE6FFFD0EDBCFE6FF8EEC14F086
:101AB000E552E552E552E552F90EDBCF10F0FA0E91
:101AC000DBCF11F0126A136A10C0E6FF11C0E6FF07
:101AD00012C0E6FF13C0E6FFFB0EDBCF14F0FC0ED6
:101AE000DBCF15F0010E1424E66EFD0EDBCFE6FF12
:101AF00067EC13F0166E060EE15E16501CD0F90E60
:101B0000DBCF10F0FA0EDBCF11F0126A136A10C0AF
:101B1000E6FF11C0E6FF12C0E6FF13C0E6FFFB0EB2
:101B2000DBCFE6FFFD0EDBCFE6FF67EC13F0146EB4
:101B3000060EE15E1450E552E7CFD9FF120019EC12
:101B400012F00101936BA56B9E6BA36B916B926B73
:021B5000120081
:0E1B5200D9CFE6FFE1CFD9FF040EE126DE6A0F
:101B6000DD6ADECF10F0DDCF11F0126A136A11AE1C
:101B700002D012681368D950FB0FE96EFF0EDA200D
:101B8000EA6EEE50105CEE501158EE501258EE50C6
:101B900013581DE2020EDB6A030EDB6A020EDBCF76
:101BA00010F0030EDBCF11F0D890115004E6050EB3
:101BB000105C000E115806E2020EDB2A030EEEE363
:101BC000DB2AECD7DF2A010ECCE3DB2ACAD7040ECE
:101BD000E15C02E2E16AE552E16EE552E7CFD9FF4E
:101BE0001200D9CFE6FFE1CFD9FF040EE126DE6A6D
:101BF000DD6ADECF10F0DDCF11F0126A136A11AE8C
:101C000002D012681368D950FB0FE96EFF0EDA207C
:101C1000EA6EEE50105CEE501158EE501258EE5035
:101C200013581DE2020EDB6A030EDB6A020EDBCFE5
:101C300010F0030EDBCF11F0D890115004E6EE0E39
:101C4000105C000E115806E2020EDB2A030EEEE3D2
:101C5000DB2AECD7DF2A010ECCE3DB2ACAD7040E3D
:101C6000E15C02E2E16AE552E16EE552E7CFD9FFBD
:101C70001200D9CFE6FFE1CFD9FF0F0E8116FE0E7D
:101C8000DB50F00B81128186010EE66EE66AE66A91
:101C9000E66AA7DFE552E552E552E5528196010E6C
:101CA000E66EE66AE66AE66A9CDFE552E552E552D0
:101CB000E5520F0E8116FE0EDB38F00B8112818685
:101CC000010EE66EE66AE66AE66A8BDFE552E552E9
:101CD000E552E5528196010EE66EE66AE66AE66A2C
:101CE00080DFE552E552E552E552E552E7CFD9FFF4
:101CF0001200D9CFE6FFE1CFD9FFE652190EE66E0A
:101D0000E66AE66AE66A6DDFE552E552E552E552BB
:101D10000F0E8116F80E81160F0E8116300E8112ED
:101D20008186010EE66EE66AE66AE66A5ADFE552E9
:101D3000E552E552E5528196010EE66EE66AE66AE4
:101D4000E66A4FDFE552E552E552E5520F0E811685
:101D5000300E81128186010EE66EE66AE66AE66A58
:101D600040DFE552E552E552E5528196010EE66EFE
:101D7000E66AE66AE66A35DFE552E552E552E55283
:101D80000F0E8116300E81128186010EE66EE66A14
:101D9000E66AE66A26DFE552E552E552E5528196AB
:101DA000010EE66EE66AE66AE66A1BDFE552E55278
:101DB000E552E5520F0E8116818A8186010EE66E8C
:101DC000E66AE66AE66A0DDFE552E552E552E5525B
:101DD0008196010EE66EE66AE66AE66A02DFE55281
:101DE000E552E552E552280EE66E43DFE5520C0E51
:101DF000E66E3FDFE552E552E552E7CFD9FF12002C
:101E0000D9CFE6FFE1CFD9FF020EE126DF6A010E4E
:101E1000DB6A81940F0EE66EE66AE66AE66A99DE90
:101E2000E552E552E552E5520F0E81128186E66ECB
:101E3000E66AE66AE66A8DDEE552E552E552E5526B
:101E40000F0E8114E76E010EE7CFDBFF81960F0EB8
:101E5000E66EE66AE66AE66A7CDEE552E552E5523F
:101E6000E5520F0E81128186E66EE66AE66AE66A40
:101E700070DEE552E552E552E5520F0E8114DF6E39
:101E8000010EDB50DF128196010EE66EE66AE66A0D
:101E9000E66A5FDEE552E552E552E552DF50106E2C
:101EA000020EE15C02E2E16AE552E16E1050E55299
:101EB000E7CFD9FF1200D9CFE6FFE1CFD9FFE65235
:101EC000DF6A9EDFDF6EDFBEFCD7DF50E552E552F2
:101ED000E7CFD9FF1200D9CFE6FFE1CFD9FF0F0E30
:101EE0008116FE0EDB5081128186050EE66EE66AD3
:101EF000E66AE66A2EDEE552E552E552E552819643
:101F0000050EE66EE66AE66AE66A23DEE552E5520B
:101F1000E552E552E552E7CFD9FF1200D9CFE6FFEF
:101F2000E1CFD9FF8194050EE66EE66AE66AE66ABD
:101F300010DEE552E552E552E552FE0EDBCFE6FF3C
:101F4000CADFE552FE0EDB38F00BE66EC4DFE55269
:101F5000E552E7CFD9FF1200D9CFE6FFE1CFD9FF95
:101F60008184050EE66EE66AE66AE66AF2DDE5520F
:101F7000E552E552E552FE0EDBCFE6FFACDFE5525F
:101F8000FE0EDB38F00BE66EA6DFE5528194E552DB
:101F9000E7CFD9FF1200D9CFE6FFE1CFD9FFFE0E80
:101FA000DBCFE6FFD9DFE552E552E7CFD9FF1200DC
:101FB000D9CFE6FFE1CFD9FFFE0EDBCFE6FFCCDFC6
:101FC000E552E552E7CFD9FF1200D9CFE6FFE1CFC6
:101FD000D9FFFD0EDBCFF6FFFE0EDBCFF7FF0800CB
:101FE000F5500FE0FD0EDBCFF6FFDB2AFE0EDBCF58
:101FF000F7FF01E3DB2A0800F550E66ED9DFE55272
:10200000E8D7E552E7CFD9FF1200D9CFE6FFE1CFFD
:10201000D9FFE652FD0EDB500F0B106EFE0EDB50AB
:10202000010B400DF3501024DF6E7F0EDF14800F84
:10203000DF6EDFCFE6FF72DFE552E552E552E7CF14
:10204000D9FF1200010EE66E69DFE552E66AE66A24
:10205000DCDFE552E5521200D9CFE6FFE1CFD9FF30
:10206000050EE126010EF36EDB6E020EDB6A030E37
:10207000DB6A040EDB6ADF6ADFCF10F0116A10BE84
:102080001168FB0EDBCF12F0FC0EDBCF13F011500A
:102090001318E8AE02D0133404D01250105C135061
:1020A00011582DE2FD0EDBCF10F0FE0EDBCF11F04C
:1020B000126A136A11AE02D012681368D950010F68
:1020C000E96EDACFEAFF10C00BF011C00CF012C0BD
:1020D0000DF013C00EF0EECF06F0EECF07F0EECF0E
:1020E00008F0EFCF09F0C5EC1BF005C0EDFF04C010
:1020F000EDFF03C0EDFF02C0EFFFDF2ABDD7010EE9
:10210000DBCF10F0020EDBCF11F0030EDBCF12F0AD
:10211000040EDBCF13F010C006F011C007F012C0A0
:1021200008F013C009F0050EE15C02E2E16AE55235
:10213000E16EE552E7CFD9FF1200D9CFE6FFE1CF3C
:10214000D9FF020EE126DF6AFB0EDBCF10F0FC0E9A
:10215000DBCF11F0FD0EDBCF12F0FE0EDBCF13F064
:10216000105011101210131005E1300EE66E20DF32
:10217000E552F4D0D950FB0FE96EFF0EDA20EA6E7B
:10218000D890030EEB50000A08E6000EEE5C000E3D
:10219000EE58000EEE58000EEE5815E22D0EE66ECB
:1021A00007DFE552D950FB0FE96EFF0EDA20EA6E29
:1021B000000EEE6CEF1EEE22EF1EEE22EF1EEF225F
:1021C000ED52ED52ED52DE52070EDD6E010EDBCF09
:1021D00010F0000EE76E1018E8AE02D0103403D0F5
:1021E000E750D880105401E3B9D0010EDB04146E1F
:1021F000156A14BE156814C0E6FF15C0E6FF0A0E86
:10220000E66EE66A29DFE552E552E552E55206C080
:1022100010F007C011F008C012F009C013F006C09A
:102220000BF007C00CF008C00DF009C00EF0FB0E5B
:10223000DBCF06F0FC0EDBCF07F0FD0EDBCF08F0A6
:10224000FE0EDBCF09F0FDEC1BF006500710081066
:10225000091041E0010EDF6EDB04186E196A18BE2A
:10226000196818C0E6FF19C0E6FF0A0EE66EE66AB6
:10227000F3DEE552E552E552E55206C014F007C020
:1022800015F008C016F009C017F006C00BF007C023
:102290000CF008C00DF009C00EF0FB0EDBCF06F00D
:1022A000FC0EDBCF07F0FD0EDBCF08F0FE0EDBCF20
:1022B00009F0FDEC1BF006C010F007C011F008C0DB
:1022C00012F009C013F0300E1026000E1122122257
:1022D0001322105003D0DF5004E0300EE66E68DEAB
:1022E000E552010EDB04146E156A14BE156814C0A5
:1022F000E6FF15C0E6FF0A0EE66EE66AADDEE552C1
:10230000E552E552E55206C010F007C011F008C0D2
:1023100012F009C013F0D950FB0FE96EFF0EDA205E
:10232000EA6E06C00BF007C00CF008C00DF009C043
:102330000EF0EECF06F0EECF07F0EECF08F0EFCFC5
:1023400009F0FDEC1BF005C0EDFF04C0EDFF03C07C
:10235000EDFF02C0EFFF010EDB0638D7020EE15C95
:1023600002E2E16AE552E16EE552E7CFD9FF1200E1
:10237000D9CFE6FFE1CFD9FFFD0EDBCFE6FFFE0EA2
:10238000DBCFE6FF42DEE552E552D950F90FE96EA8
:10239000FF0EDA20EA6EEECFE6FFEECFE6FFEECFDD
:1023A000E6FFEFCFE6FFC9DEE552E552E552E55222
:1023B000E552E7CFD9FF1200D9CFE6FFE1CFD9FF31
:1023C000FD0EDBCFE6FFFE0EDBCFE6FF1EDEE552A5
:1023D000E552FB0EDBCFE6FFFC0EDBCFE6FFF5DDC3
:1023E000E552E552E552E7CFD9FF1200D9CFE6FF1B
:1023F000E1CFD9FFE8C010F0E9C011F0040ED89089
:1024000010361136E806FBE1C10E1026000E11222F
:1024100010500001EA25E96E1150EB21EA6EFE0E24
:10242000DBCFEFFFEA2B000EEB23E552E7CFD9FF1E
:102430001200D9CFE6FFE1CFD9FFE652DF6ADFCF46
:1024400010F0100EE76E1018E8AE02D0E73402D09C
:10245000E750105C18E2DFCFE9FFEA6AE9BEEA68FC
:10246000C10EE926000EEA22200EEF6EDFCFE9FF53
:10247000EA6AE9BEEA68D10EE926000EEA22200ED9
:10248000EF6EDF2ADCD7E552E552E7CFD9FF120025
:10249000D9CFE6FFE1CFD9FFE6520001C051030AD0
:1024A00052E0010A36E0030A1AE0010A67E1E66A2F
:1024B000E66AABDDE552E552DF6A080EDF5C0CE24E
:1024C000DF50EA6AC10FE96E000EEA22EF50E66EB5
:1024D0006FDDE552DF2AF1D70001010E32D0080E80
:1024E000E66EE66A92DDE552E552DF6A080EDF5CD1
:1024F0000DE2080EDF24EA6AC10FE96E000EEA223F
:10250000EF50E66E55DDE552DF2AF0D70001020EEE
:1025100018D0E66A010EE66E78DDE552E552DF6A14
:10252000080EDF5C0CE2DF50EA6AD10FE96E000EA4
:10253000EA22EF50E66E3CDDE552DF2AF1D70001DA
:10254000030EC06F1CD0080EE66E010EE66E5DDD58
:10255000E552E552DF6A080EDF5C0DE2080EDF246B
:10256000EA6AD10FE96E000EEA22EF50E66E20DD36
:10257000E552DF2AF0D70001C06B01D0C06BE552F5
:10258000E552E7CFD9FF1200D9CFE6FFE1CFD9FF5F
:10259000E6520001C051010A1BE0010A32E1E66A7D
:1025A000E66A33DDE552E552DF6A100EDF5C0CE2CD
:1025B000DF50EA6AC10FE96E000EEA22EF50E66EC4
:1025C000F7DCE552DF2AF1D70001010EC06F1AD007
:1025D000E66A010EE66E19DDE552E552DF6A100E7D
:1025E000DF5C0CE2DF50EA6AD10FE96E000EEA22EE
:1025F000EF50E66EDDDCE552DF2AF1D70001C06B5B
:1026000001D0C06BE552E552E7CFD9FF1200D9CF18
:10261000E6FFE1CFD9FFE652E66AE66AF6DCE5526C
:10262000E552DF6A100EDF5C0CE2DF50EA6AC10F90
:10263000E96E000EEA22EF50E66EBADCE552DF2AC0
:10264000F1D7E66A010EE66EE0DCE552E552DF6A9C
:10265000100EDF5C0CE2DF50EA6AD10FE96E000E6B
:10266000EA22EF50E66EA4DCE552DF2AF1D7E5520C
:10267000E552E7CFD9FF1200D9CFE6FFE1CFD9FF6E
:10268000FE0EDB50010B0001E86FE96BFD0EDB5025
:102690000F0BEA6FEB6BE8C010F0E9C011F0040E0D
:1026A000D89010361136E806FBE1C10E1026000E58
:1026B000112210500001EA25E96E1150EB21EA6E5B
:1026C000FC0EDBCFEFFFE552E7CFD9FF1200D9CFE9
:1026D000E6FFE1CFD9FF020EE126DF6AFE0EDB50F6
:1026E000010B0001E86FE96BFD0EDB500F0BEA6F89
:1026F000EB6BF90EDBCF10F0FA0EDBCF11F0FB0E17
:10270000DBCF12F0FC0EDBCF13F0105011101210C3
:10271000131005E1300EE66E69DEE552F5D0D950B2
:10272000F90FE96EFF0EDA20EA6ED890030EEB5037
:10273000000A08E6000EEE5C000EEE58000EEE58A1
:10274000000EEE5815E22D0EE66E50DEE552D95021
:10275000F90FE96EFF0EDA20EA6E000EEE6CEF1E46
:10276000EE22EF1EEE22EF1EEF22ED52ED52ED5261
:10277000DE52070EDD6E010EDBCF10F0000EE76EAD
:102780001018E8AE02D0103403D0E750D8801054AF
:1027900001E3BAD0010EDB04146E156A14BE15688D
:1027A00014C0E6FF15C0E6FF0A0EE66EE66A54DCCA
:1027B000E552E552E552E55206C010F007C011F0AF
:1027C00008C012F009C013F006C00BF007C00CF0EF
:1027D00008C00DF009C00EF0F90EDBCF06F0FA0EBE
:1027E000DBCF07F0FB0EDBCF08F0FC0EDBCF09F0F0
:1027F000FDEC1BF0065007100810091041E0010E17
:10280000DF6EDB04186E196A18BE196818C0E6FF7F
:1028100019C0E6FF0A0EE66EE66A1EDCE552E552D6
:10282000E552E55206C014F007C015F008C016F0D6
:1028300009C017F006C00BF007C00CF008C00DF07F
:1028400009C00EF0F90EDBCF06F0FA0EDBCF07F071
:10285000FB0EDBCF08F0FC0EDBCF09F0FDEC1BF02C
:1028600006C010F007C011F008C012F009C013F044
:10287000300E1026000E112212221322105003D007
:10288000DF5004E0300EE66EB1DDE552010EDB04F0
:10289000146E156A14BE156814C0E6FF15C0E6FF75
:1028A0000A0EE66EE66A2CEC10F0E552E552E552AF
:1028B000E55206C010F007C011F008C012F009C0C0
:1028C00013F0D950F90FE96EFF0EDA20EA6E06C058
:1028D0000BF007C00CF008C00DF009C00EF0EECFF1
:1028E00006F0EECF07F0EECF08F0EFCF09F0FDECE9
:1028F0001BF005C0EDFF04C0EDFF03C0EDFF02C0FB
:10290000EFFF010EDB0637D7020EE15C02E2E16A5F
:10291000E552E16EE552E7CFD9FF1200D9CFE6FFCD
:10292000E1CFD9FFFE0EDB50010B0001E86FE96B30
:10293000FD0EDB500F0BEA6FEB6BFB0EDBCFF6FFF0
:10294000FC0EDBCFF7FF0800F5500FE0FB0EDBCFEE
:10295000F6FFDB2AFC0EDBCFF7FF01E3DB2A0800E2
:10296000F550E66E43DDE552E8D7E552E7CFD9FFF3
:102970001200D9CFE6FFE1CFD9FF020EE126DE6AD1
:10298000DD6AFE0EDB50010B0001E86FE96BEA6BBC
:10299000EB6BDE6ADD6ADECF10F0DDCF11F0D89090
:1029A000115004E6100E105C000E11581EE2FC0ED1
:1029B000DBCFF6FFFD0EDBCFF7FF0800F5500CE094
:1029C000FC0EDBCFF6FFDB2AFD0EDBCFF7FF01E3CA
:1029D000DB2A0800F55001D0200EE66E07DDE55237
:1029E000DF2A010ED8E3DB2AD6D7020EE15C02E231
:0E29F000E16AE552E16EE552E7CFD9FF120031
:0229FE00D9CF2F
:102A0000E6FFE1CFD9FFD59EFD0EDBCFD3F1FE0E61
:102A1000DBCFD4F1D59C13681468156AD3C116F0C6
:102A2000D4C117F0186A1650135C106E1750145862
:102A3000116E18501558126E0C6A010E0D6E0E6A4A
:102A400010C007F011C008F012C009F0FDEC1AF038
:102A50000350D66E13681468156AD3C116F0D4C13A
:102A600017F0186A1650135C106E17501458116E38
:102A700018501558126E0C6A010E0D6E0E6A10C0B9
:102A800007F011C008F012C009F0FDEC1AF007C001
:102A900010F008C011F009C012F00750D76ED59A97
:102AA000D586F28AF294F184D58EE552E7CFD9FF2C
:102AB0001200D59E120013681468156AD3C116F06F
:102AC000D4C117F0186A1650135C106E17501458C2
:102AD000116E18501558126E0C6A010E0D6E0E6AAA
:102AE00010C007F011C008F012C009F0FDEC1AF098
:102AF0000350D66E13681468156AD3C116F0D4C19A
:102B000017F0186A1650135C106E17501458116E97
:102B100018501558126E0C6A010E0D6E0E6A10C018
:102B200007F011C008F012C009F0FDEC1AF007C060
:102B300010F008C011F009C012F00750D76ED58E02
:102B40001200D9CFE6FFE1CFD9FFCD90FD0EDBCF4C
:102B5000D5F1FE0EDBCFD6F113681468156AD5C126
:102B600016F0D6C117F0186A1650135C106E175085
:102B70001458116E18501558126E0C6A010E0D6E15
:102B80000E6A10C007F011C008F012C009F0FDEC89
:102B90001AF00750CF6E13681468156AD5C116F085
:102BA000D6C117F0186A1650135C106E17501458DF
:102BB000116E18501558126E0C6A010E0D6E0E6AC9
:102BC00010C007F011C008F012C009F0FDEC1AF0B7
:102BD00003C010F004C011F005C012F00350CE6E17
:102BE0009D809E909F90CD8ECD8CCD98CD9ACD9688
:102BF000CD92CD80E552E7CFD9FF1200136814685B
:102C0000156AD5C116F0D6C117F0186A1650135CB4
:102C1000106E17501458116E18501558126E0C6A19
:102C2000010E0D6E0E6A10C007F011C008F012C040
:102C300009F0FDEC1AF00750CF6E13681468156A9E
:102C4000D5C116F0D6C117F0186A1650135C106E75
:102C500017501458116E18501558126E0C6A010E48
:102C60000D6E0E6A10C007F011C008F012C009F016
:102C7000FDEC1AF003C010F004C011F005C012F012
:102C80000350CE6ECD801200CD901200D9CFE6FF5A
:102C9000E1CFD9FFCA94CC6AFE0EDB500101D76F99
:102CA000D86BCB6E9D829E929F92CA90CA92CA8424
:102CB000E552E7CFD9FF1200D7C1CBFFCA8412007B
:102CC000CA941200D9CFE6FFE1CFD9FFB190FD0E33
:102CD000DBCFD9F1FE0EDBCFDAF113681468156A89
:102CE000D9C116F0DAC117F0186A1650135C106ECD
:102CF00017501458116E18501558126E0C6A010EA8
:102D00000D6E0E6A10C007F011C008F012C009F075
:102D1000FDEC1AF00750B36E13681468156AD9C138
:102D200016F0DAC117F0186A1650135C106E1750BF
:102D30001458116E18501558126E0C6A010E0D6E53
:102D40000E6A10C007F011C008F012C009F0FDECC7
:102D50001AF003C010F004C011F005C012F00350C7
:102D6000B26EA082A192A292B18EB198B19AB192A4
:102D7000B180E552E7CFD9FF120013681468156AD5
:102D8000D9C116F0DAC117F0186A1650135C106E2C
:102D900017501458116E18501558126E0C6A010E07
:102DA0000D6E0E6A10C007F011C008F012C009F0D5
:102DB000FDEC1AF00350B26E13681468156AD9C19D
:102DC00016F0DAC117F0186A1650135C106E17501F
:102DD0001458116E18501558126E0C6A010E0D6EB3
:102DE0000E6A10C007F011C008F012C009F0FDEC27
:102DF0001AF007C010F008C011F009C012F0075017
:102E0000B36EB1801200B19012000101E32B000EED
:102E1000E423EB51E35DEC51E45904E3E36BE46B31
:102E2000010EDB6F12000101E52B000EE623ED51D0
:102E3000E55DEE51E65904E3E56BE66B010EDC6FF0
:102E400012000101E72B000EE823EF51E75DF0517E
:102E5000E85904E3E76BE86B010EDD6F1200010136
:102E6000E92B000EEA23F151E95DF251EA5904E33E
:102E7000E96BEA6B010EDE6F1200D9CFE6FFE1CFFE
:102E8000D9FFFD0EDBCFEBF1FE0EDBCFECF1010144
:102E9000E36BE46BDB6BE552E7CFD9FF1200D9CFD0
:102EA000E6FFE1CFD9FFFD0EDBCFEDF1FE0EDBCF6C
:102EB000EEF1050E0D6E0E6AEDC108F0EEC109F0DF
:102EC000D7EC1AF008C0EDF109C0EEF10101E56B95
:102ED000E66BDC6BE552E7CFD9FF1200D9CFE6FFF6
:102EE000E1CFD9FFFD0EDBCFF1F1FE0EDBCFF2F12A
:102EF0000A0E0D6E0E6AF1C108F0F2C109F0D7ECAE
:102F00001AF008C0F1F109C0F2F10101E96BEA6BB6
:0A2F1000DE6BE552E7CFD9FF120097
:062F1A000F0E946E8268A8
:102F20001200D9CFE6FFE1CFD9FF050EE126040E4E
:102F3000DB6ADE6ADD6ADECF10F0DDCF11F0D890FB
:102F4000115004E6040E105C000E115801E395D0F8
:102F5000DECFE9FFDDCFEAFFCA0EE926010EEA2245
:102F6000EF1C826E020EDB6A030EDB6A020EDBCF01
:102F700010F0030EDBCF11F0D890115004E6040ED0
:102F8000105C000E115873E2020EDBCFE9FF030E56
:102F9000DBCFEAFFCE0EE926010EEA22EF508214C3
:102FA00044E1DECF14F0DDCF15F0D890143615369D
:102FB000D89014361536020EDB501424E96E030E39
:102FC000DB501520EA6ED890E936EA36AA0EE926DB
:102FD000010EEA22EECF12F0EFCF13F0010E12260F
:102FE000000E1322DECF10F0DDCF11F0D890103696
:102FF0001136D89010361136020EDB501024E96ECF
:10300000030EDB501120EA6ED890E936EA36AA0E9C
:10301000E926010EEA2212C0EEFF13C0EDFF010EF9
:10302000F36E040EF3CFDBFF1BD0DECF10F0DDCF4D
:1030300011F0D89010361136D89010361136020E95
:10304000DB501024E96E030EDB501120EA6ED8909D
:10305000E936EA36AA0EE926010EEA22EE6AED6AA0
:10306000020EDB2A030E01E281D7DB2A7FD7DF2A9B
:10307000010E01E260D7DB2A5ED7040EDB0404E117
:103080000101010ED26F02D00101D26B050EE15C8D
:1030900002E2E16AE552E16EE552E7CFD9FF1200A4
:1030A000D9CFE6FFE1CFD9FF040EE126DE6ADD6A63
:1030B000DECF10F0DDCF11F0FD0EDBCF12F0FE0EF3
:1030C000DBCF13F011501318E8AE02D0133404D044
:1030D0001250105C135011581DE2020EDB6A030EF1
:1030E000DB6A020EDBCF10F0030EDBCF11F0D890BD
:1030F000115004E6EE0E105C000E115806E2020EAE
:10310000DB2A030EEEE3DB2AECD7DF2A010ED0E345
:10311000DB2ACED7040EE15C02E2E16AE552E16E01
:10312000E552E7CFD9FF1200D9CFE6FFE1CFD9FFB3
:10313000040EE126DE6ADD6ADECF10F0DDCF11F08D
:10314000D890115004E6040E105C000E115875E280
:10315000DECFE9FFDDCFEAFFCA0EE926010EEA2243
:10316000EF1C826E020EDB6A030EDB6A020EDBCFFF
:1031700010F0030EDBCF11F0D890115004E6040ECE
:10318000105C000E11584AE2DECF10F0DDCF11F0D6
:10319000D89010361136D89010361136020EDB500A
:1031A0001024E96E030EDB501120EA6ED890E93648
:1031B000EA36AA0EE926010EEA22EE6AED6A020E4E
:1031C000DBCFE9FF030EDBCFEAFFCE0EE926010ECF
:1031D000EA22EF5082141CE1DECF10F0DDCF11F0B7
:1031E000D89010361136D89010361136020EDB50BA
:1031F0001024E96E030EDB501120EA6ED890E936F8
:10320000EA36AA0EE926010EEA22010EEE6EED6AFA
:10321000020EDB2A030EAAE3DB2AA8D78250816EB6
:10322000E80EE66E030EE66E3BDFE552E552DF2A5E
:10323000010E01E281D7DB2A7FD7040EE15C02E2B6
:0E324000E16AE552E16EE552E7CFD9FF1200D8
:02324E00F28EFE
:10325000D08EF28C1200F19CF292F2881200D8CF3C
:10326000E4FFE0CFE4FFE46EDACFE4FFE2CFDAFF81
:10327000E9CFE4FFEACFE4FFF6CFE4FFF7CFE4FFC6
:10328000F5CFE4FFF3CFE4FFF4CFE4FFFACFE4FFA0
:1032900000EE00F0100EE80403E3EECFE4FFFBD7EE
:1032A00000EE10F00A0EE80403E3EECFE4FFFBD7D4
:1032B000E652F2A407D059EC15F0F2945BEC15F04D
:1032C00005EC17F09EA007D044EC16F09E90FEECA3
:1032D00015F013EC17F0A1A207D003EC17F0A192A0
:1032E000BDEC16F02FEC17F0F2B2F2929EBA9E9A55
:1032F000E55200EE19F00A0EE80403E3E5CFEDFF16
:10330000FBD700EE0FF0100EE80403E3E5CFEDFF6E
:10331000FBD7E5CFFAFFE5CFF4FFE5CFF3FFE5CF2D
:10332000F5FFE5CFF7FFE5CFF6FFE5CFEAFFE5CF05
:10333000E9FFE5CFDAFFE550E5CFE0FFE5CFD8FFC5
:103340001000DACFE4FFE2CFDAFFE9CFE4FFEACF03
:10335000E4FFF6CFE4FFF7CFE4FFF5CFE4FFF3CFD0
:10336000E4FFF4CFE4FFFACFE4FF00EE00F0100E2C
:10337000E80403E3EECFE4FFFBD700EE10F00A0E03
:10338000E80403E3EECFE4FFFBD7E652F2A407D054
:1033900059EC15F0F2945BEC15F005EC17F09EA0DB
:1033A00007D044EC16F09E90FEEC15F013EC17F0ED
:1033B000A1A207D003EC17F0A192BDEC16F02FEC00
:1033C00017F0F2B2F2929EBA9E9AE55200EE19F010
:1033D0000A0EE80403E3E5CFEDFFFBD700EE0FF0A4
:1033E000100EE80403E3E5CFEDFFFBD7E5CFFAFFCE
:1033F000E5CFF4FFE5CFF3FFE5CFF5FFE5CFF7FF2E
:10340000E5CFF6FFE5CFEAFFE5CFE9FFE5CFDAFF4D
:023410001100A9
:0E341200300030300050415353574F52442089
:1034200057524F4E472020004F50454E494E47209F
:10343000444F4F5220202020004E4F5420415641EF
:10344000494C41424C4500435245415445204C4F64
:1034500047004E4557205057204944200052454DC3
:103460004F564520434F4D504C45544500593A4521
:103470004E544552004E3A4241434B0052454D4F47
:1034800056452049442000342E2000332E2000329F
:103490002E2000312E200050415353574F52443AB2
:1034A00020004E4557204944203A200050572046DE
:1034B0004F522049442000312E4348414E47452079
:1034C0004D454D20505700322E52454D4F56452008
:1034D0004D454D42455200312E414444204D454D0D
:1034E000424552004348414E4745205355434345CA
:1034F0005353004348414E474520414420504153D7
:103500005300322E435245415445204C4F47003121
:103510002E4D414E414745205553455200434841A9
:103520004E47452055534552205041535300322EAB
:103530004348414E4745205041535300312E4F5090
:10354000454E20444F4F52002A0020005041535313
:1035500020464F522049442000496E76616C6964D0
:10356000204944202020202020002020202020202E
:103570002020202020202000454E54455220494440
:10358000202020202020202000202020202020205B
:10359000202020202020202020005052455353205E
:0D35A0002320464F52205041535300460057
:0235AE00006AB1
:1035B0000EAEE0EF1AF00D6C0E1EE86A0E22001E31
:1035C00009AEE8EF1AF0086C091EE86A0922001E2D
:1035D0003EEC1CF009BEF8EF1AF000AE000C086CCF
:1035E000091EE86A0922046C051EE86A0522000C1F
:1035F00000BEEFEF1AF00188FF0C006A0EAE08EF74
:103600001BF00C6C0D1E0E1EE86A0D220E22001E11
:1036100009AE12EF1BF0076C081E091EE86A0822AB
:103620000922001E21EC1CF009BE25EF1BF000AEA4
:10363000000C076C081E091EE86A08220922036CA8
:10364000041E051E04220522000C00BE19EF1BF00B
:043650000188FF0CE2
:0C3654001E0EF66E000EF76E000EF86EF3
:1036600001010900F550F86F0900F550F96F03E109
:10367000F86701D03DD00900F550F36F0900F5500F
:10368000F46F0900F550F56F09000900F550E96E77
:103690000900F550EA6E090009000900F550F66FBF
:1036A0000900F550F76F09000900F6CFFAF1F7CFDE
:1036B000FBF1F8CFFCF1F3C1F6FFF4C1F7FFF5C160
:1036C000F8FF0101F65302E1F75307E00900F55056
:1036D000EE6EF607F8E2F707F9D7FAC1F6FFFBC17D
:1036E000F7FFFCC1F8FF0101F807000EF95BBFD737
:0236F0001200C6
:0E36F200D9CFE6FFDACFE6FFFA0EE3CFD9FF1D
:10370000FB0EE3CFDAFFFC0EE3CFE9FFFD0EE3CFC4
:10371000EAFFE9CFF3FFEACFF4FFE950D95CEA50C2
:10372000DA580EE3F80EE35003E1F90EE35024E01B
:10373000F80EE30602E2F90EE306DECFEEFFF2D763
:10374000F80EE350D926F90EE350DA22DD52F80ED6
:10375000E350E926F90EE350EA22ED52F80EE35069
:1037600003E1F90EE35008E0F80EE30602E2F90E79
:10377000E306DDCFEDFFF2D7FF0EE3CFDAFFE55230
:0A378000FF0EE3CFD9FFE55212005F
:06378A0006500B02F3CF14
:1037900002F0F4CF03F00C02F3500326000EF420E5
:1037A000046E06500D02F3500426000EF420056E40
:1037B00006500E02F350052607500B02F350032665
:1037C000F4500422000E052207500C02F350042688
:1037D000F450052207500D02F350052608500B0245
:1037E000F3500426F450052208500C02F35005262D
:0A37F00009500B02F35005261200E9
:0637FA00056A046A036A7F
:10380000026A200EE76ED89006360736083609366B
:1038100002360336043605360B50025C0C50035852
:103820000D5004580E50055809E30B50025E0C5021
:10383000035A0D50045A0E50055A062AE72EE4D7B3
:02384000120074
:0E384200056A046A036A180EE76ED89007360E
:10385000083609360336043605360C50035C0D5025
:1038600004580E50055807E30C50035E0D50045ADF
:0C3870000E50055A072AE72EEAD7120076
:04387C00056A046A6B
:10388000100EE76ED89008360936043605360D500E
:10389000045C0E50055805E30D50045E0E50055AA9
:0838A000082AE72EF0D7120000
:0838A800800EF36E00EE00F04B
:1038B0000F0E01D81200EA6002D0EE6AFCD7F35076
:0838C000E9601200EE6AFCD77A
:0838C8001EEE00F02EEE00F0F0
:1038D000F86A019C2AEC1BF003EC00F02EEC00F0DF
:0438E000FBD7120000
:0C38E400056A080EE76ED890093605361C
:1038F0000E50055C02E3056E092AE72EF7D7120089
:1039000000000000000000000000000000000000B7
:1039100000000000000000000100010001000100A3
:103920000102040810204080000000000000000098
:103930000102034104050642070809432A004544E1
:10394000010203040506020708090708030303032D
:1039500003030408060802010541424344AB00008A
:103960000102030405060100020708090708020016
:103970000303030303030300040806080201040011
:103980000541424344AB000000000000000000007D
:103990000000000000000000000000000000000027
:1039A0000000000000000000000000000000000017
:1039B0000000000000000500050003090A0B000DCF
:0A39C0000E0F0A00000000031600BD
:0639CA00000000000000F7
:1039D00000001010101010101010181818181818D7
:1039E00018181C1C1C1C1C1C1C1C1E1E1E1E1E1E13
:1039F0001E1E1F1F1F1F1F1F1F1F00000000000093
:103A000000000000000000000000000000000000B6
:103A100000000000000000000000000000000000A6
:0B3A200000000000000000000000009B
:053A2B00000000000096
:103A30000000000000000000000000000000000086
:103A40000000000000000000000000102040800185
:043A50000204080064
:020000040030CA
:0100010002FC
:0100020003FA
:010003001EDE
:010005008179
:010006008178
:010008000FE8
:01000900C036
:01000A000FE6
:01000B00E014
:01000C000FE4
:01000D0040B2
:00000001FF
