:020000040000FA
:0600000086EF1BF0120068
:020006001200E6
:06000800CCEF18F012001D
:02000E000000F0
:020010000000EE
:060018005AEF18F012007F
:02001E000500DB
:100020006D380000A8010000280000000E0000004C
:10003000E8000000040000000C3800008000000010
:10004000610000006437000000010000A80000000B
:0C00500044370000D00100002000000038
:04005C00D9CFE6FF13
:10006000E1CFD9FF020EE126DE6ADD6A4ED801013A
:10007000DB51FDE0DB6BCCEC16F099D983EC11F091
:10008000F6D7D9CFE6FFE1CFD9FF040EE126DE6A2D
:10009000DD6ADECF10F0DDCF11F0FD0EDBCF12F008
:1000A000FE0EDBCF13F011501318E8AE02D013345C
:1000B00004D01250105C135011581DE2020EDB6A7E
:1000C000030EDB6A020EDBCF10F0030EDBCF11F064
:1000D000D890115004E6EE0E105C000E115806E2A6
:1000E000020EDB2A030EEEE3DB2AECD7DF2A010E39
:1000F000D0E3DB2ACED7040EE15C02E2E16AE552EE
:10010000E16EE552E7CFD9FF1200936A956AB4EC2D
:100110000DF054EC11F052EC18F0E80EE66E030E00
:10012000E66EAFDFE552E552570EE66E120EE66E52
:100130003AEC14F0E552E552AE0EE66E240EE66E91
:10014000DCEC14F0E552E552660EE66EB70EE66E94
:100150009DEC15F0E552E552020EE66EE66A78EC8B
:1001600016F0E552E5520A0EE66EE66A8AEC16F0E3
:10017000E552E552320EE66EE66AA9EC16F0E5525B
:10018000E552C8EF16F0D9CFE6FFE1CFD9FFFE0E5A
:10019000DBCF11F0800E11141AE1FD0EDBCF12F04F
:1001A000FE0EDBCF13F0133404E212500708000EEA
:1001B00013540DE3FD0EDBCFE9FFFE0EDBCFEAFFAC
:1001C000000EE926010EEA22EF508310836EE552FD
:1001D000E7CFD9FF1200D9CFE6FFE1CFD9FFFE0E5E
:1001E000DBCF11F0800E11141AE1FD0EDBCF12F0FF
:1001F000FE0EDBCF13F0133404E212500708000E9A
:1002000013540DE3FD0EDBCFE9FFFE0EDBCFEAFF5B
:10021000000EE926010EEA22EF1C8314836EE552DC
:10022000E7CFD9FF1200D9CFE6FFE1CFD9FFFD0E0E
:10023000DBCFE9FFFE0EDBCFEAFF080EE926010E59
:10024000EA22EF0415E1FD0EDBCFE6FFFE0EDBCF69
:10025000E6FFC1DFE552E552FD0EDBCFE9FFFE0E02
:10026000DBCFEAFF080EE926010EEA22EF6A15D07D
:10027000FD0EDBCFE6FFFE0EDBCFE6FF84DFE552AF
:10028000E552FD0EDBCFE9FFFE0EDBCFEAFF080EE5
:10029000E926010EEA22010EEF6EE552E7CFD9FF03
:1002A0001200D9CFE6FFE1CFD9FF020EE126DE6AC8
:1002B000DD6ADECF10F0DDCF11F0113404E2105012
:1002C0000708000E115421E3DECFE6FFDDCFE6FF85
:1002D0005ADFE552E552F40EE66E010EE66ED1DE0F
:1002E000E552E552DECFE6FFDDCFE6FF74DFE552F3
:1002F000E552F40EE66E010EE66EC3DEE552E552FF
:10030000DF2A010ED6E3DB2AD4D7020EE15C02E23B
:10031000E16AE552E16EE552E7CFD9FF1200D9CF8D
:10032000E6FFE1CFD9FF020EE126DE6ADD6ADE6A72
:10033000DD6ADECF10F0DDCF11F001019651105CC7
:100340009751115828E2DECFE9FFDDCFEAFF030E17
:10035000D890E936EA36E806FBE13E0EE926010EC2
:10036000EA22EECF10F0EFCF11F0FD0EDB501018A7
:100370000DE1FE0EDB50111809E1DECF10F0DDCFEC
:1003800011F010C0F3FF11C0F4FF07D0DF2A010EF7
:10039000D0E3DB2ACED7F368F468020EE15C02E218
:1003A000E16AE552E16EE552E7CFD9FF1200D9CFFD
:1003B000E6FFE1CFD9FF020EE12601019051040AC8
:1003C00002E18BEF0BF0070A02E16FEF0BF0080A76
:1003D00002E154EF0BF01F0A02E11BEF0BF0070ADA
:1003E00002E190EF0AF01C0A02E11DEF09F01D0A7C
:1003F00002E1BDEF08F0030A02E14BEF08F01F0A2B
:1004000002E1D3EF06F01E0A02E129EF06F01D0A11
:1004100001E197D3070A01E1B4D2060A01E174D2DF
:10042000050A01E103D2010A01E189D10A0A01E1C9
:1004300074D1030A01E1EAD0060A01E1D2D0010A2F
:1004400001E1B5D0030A2DE0050A02E09DEF0BF0B3
:10045000DF0EE66E330EE66EE66AE66AC9EC13F06E
:10046000E552E552E552E552CE0EE66E330EE66EEB
:10047000E66A010EE66EC9EC13F0E552E552E5526C
:10048000E55226EC0CF00EEC0CF0000902E19DEFB9
:100490000BF0DAEC0CF001018E6B8F6B050E1BEF8D
:1004A00009F0932BBD0EE66E330EE66EE66AE66A41
:1004B000C9EC13F0E552E552E552E552E5EC0BF0DC
:1004C000000932E0410E0001E75D14E101019251A3
:1004D000000828E20A0E0D6E0E6A8EC108F08FC168
:1004E00009F060EC1BF008C08EF109C08FF101012A
:1004F000920718D00A0EE75D15E28EC110F08FC189
:1005000011F00A0E1102F3CF11F01002F3CF10F028
:10051000F4501126E7510101F3248E6F000E1120D3
:100520008F6F922B0101936B92C1E6FF8EC1E6FFA4
:100530008FC1E6FF000EE66EE66A010EE66EE66A21
:100540002EEC0CF0106E070EE15E1050AF0EE66E52
:10055000330EE66E030EE66E010EE66EC9EC13F086
:10056000E552E552E552E552030E0101925D04E2C7
:100570000EEC0CF0000905E0DAEC0CF00101060EBF
:10058000906F16EC0CF0000902E00101906B010184
:100590009351106E116AD890115004E6C80E105C89
:1005A000000E115802E29DEF0BF089EF0BF0936BF8
:1005B0008EC1E6FF8FC1E6FFB2DEE552E552F3CF12
:1005C00094F1F4CF95F10101F31C01E1951D06E0D2
:1005D000010E906F54EC11F09DEF0BF0070E1BEF26
:1005E00009F0932B9E0EE66E330EE66EE66AE66A1F
:1005F000C9EC13F0E552E552E552E552280E01012F
:10060000935D02E29DEF0BF089EF0BF0910EE66E29
:10061000330EE66EE66AE66AC9EC13F0E552E5527F
:10062000E552E55294C1E9FF95C1EAFF030ED89067
:10063000E936EA36E806FBE13E0EE926010EEA223B
:10064000EECF10F0EFCF11F0126A136A10C0E6FF80
:1006500011C0E6FF12C0E6FF13C0E6FF0D0EE66E06
:10066000E66AA2EC12F0146E060EE15E145001016F
:10067000932BE5EC0BF0000935E0410E0001E75D3E
:1006800014E10101915100082BE291078F0EE66EF3
:10069000330EE66E91C1E6FF010EE66EC9EC13F073
:1006A000E552E552E552E5521BD00A0EE75D18E22D
:1006B0008D0EE66E330EE66E91C1E6FF010EE66E1C
:1006C000C9EC13F0E552E552E552E55201019151B2
:1006D000EA6AE10FE96E000EEA22E7C0EFFF912B14
:1006E0000101936B060E0101915D02E3020E906F12
:1006F0009351106E116AD890115004E6C80E105C28
:10070000000E115801E3906B16EC0CF0000902E1A9
:100710009DEF0BF0010189EF0BF0936B916BA7EC50
:100720000BF0000908E001019451951101E107D295
:10073000030E1BEF09F00101040E1BEF09F0932BD0
:100740009E51010A10E0010A23E1810EE66E330E8C
:10075000E66EE66AF4EC13F0E552E552E552730EEC
:10076000E66E330E0DD0650EE66E330EE66EE66A6B
:10077000F4EC13F0E552E552E552580EE66E330EF6
:10078000E66E010EE66EF4EC13F0E552E552E5522A
:100790000EEC0CF0000905E001019E29010B9E6F93
:1007A000936B16EC0CF0000902E00101906B010163
:1007B000010EA81911E1A9510FE101019E51E96E45
:1007C000EA6AD890E936EA369A0EE926010EEA225C
:1007D000EFCF90F1DAEC0CF00101010EAA1915E14E
:1007E000AB5113E101019E51E96EEA6AD890E936F6
:1007F000EA369A0EE926010EEA22010EE926000EDB
:10080000EA22EFCF90F1DAEC0CF001019351106E77
:10081000116A113402E39DEF0BF01050C808000E6E
:10082000115402E39DEF0BF089EF0BF0932B490E6F
:10083000E66E330EE66EE66AF4EC13F0E552E5522E
:10084000E552E5EC0BF0000939E0410E0001E75DEF
:1008500014E10101915100082FE291078F0EE66E1D
:10086000330EE66E91C1E6FF010EE66EC9EC13F0A1
:10087000E552E552E552E5521FD00A0EE75D1CE253
:10088000060E0101915D18E28D0EE66E330EE66EE6
:1008900091C1E6FF010EE66EC9EC13F0E552E55298
:1008A000E552E55201019151EA6AE10FE96E000E4D
:1008B000EA22E7C0EFFF912B0101936B0EEC0CF0E5
:1008C000000908E0060E0101915D04E30C0E906F33
:1008D000DAEC0CF016EC0CF0000905E00101080E52
:1008E000906FDAEC0CF001019351106E116A113423
:1008F00002E39DEF0BF01050C808000E115402E304
:100900009DEF0BF089EF0BF0932B3A0EE66E330E52
:10091000E66EE66AF4EC13F0E552E552E5520101A9
:10092000930527E1060EE66EE66AE10EE66E000E1E
:10093000E66E94C1E9FF95C1EAFF030ED890E9364F
:10094000EA36E806FBE13E0EE926010EEA22020E37
:10095000E926000EEA22E9CF10F0EACF11F0E9CF44
:10096000E6FFEACFE6FF9BEC1AF0126E060EE15EA0
:10097000125001019351280802E39DEF0BF089EF1B
:100980000BF0932BA351010A10E0010A23E12D0E75
:10099000E66E330EE66EE66AF4EC13F0E552E552CD
:1009A000E5521D0EE66E330E0DD00D0EE66E330EC3
:1009B000E66EE66AF4EC13F0E552E552E5528F0E6E
:1009C000E66E330EE66E010EE66EF4EC13F0E552C1
:1009D000E552E5520EEC0CF0000905E00101A329F7
:1009E000010BA36F936B16EC0CF0000905E00101FD
:1009F000080E906FDAEC0CF00101010EA81944E129
:100A0000A95142E10101A351E96EEA6AD890E936A1
:100A1000EA369F0EE926010EEA22EFCF90F1DAECDA
:100A20000CF096C112F097C113F01206000E135A83
:100A30000001136A030E12161250131010E196C132
:100A400010F097C111F01006000E115A020E0F0B94
:100A500019E0D89011321032E806FBE113D096C1AC
:100A600010F097C111F01006000E115A020E0F0B74
:100A700005E0D89011321032E806FBE1010E102695
:100A8000000E112210C0A4F10101010EAA1948E1C3
:100A9000AB5146E10101A351E96EEA6AD890E9360B
:100AA000EA369F0EE926010EEA22010EE926000E23
:100AB000EA22EFCF90F1DAEC0CF096C112F097C178
:100AC00013F01206000E135A0001136A030E1216D9
:100AD0001250131010E196C110F097C111F01006DA
:100AE000000E115A020E0F0B19E0D890113210327D
:100AF000E806FBE113D096C110F097C111F0100683
:100B0000000E115A020E0F0B05E0D8901132103270
:100B1000E806FBE1010E1026000E112210C0A4F120
:100B200001019351106E116A113402E39DEF0BF035
:100B30001050C808000E115402E39DEF0BF0080E90
:100B40007AD3932B020EE66E330EE66EE66AE66A01
:100B5000C9EC13F0E552E552E552E55298C110F0A8
:100B600099C111F0126A136A98C1E6FF99C1E6FFB4
:100B700012C0E6FF13C0E6FF0A0EE66EE66AA2ECBC
:100B800012F0146E060EE15E1450E5EC0BF0000955
:100B900039E0410E0001E75D14E1010191510008C7
:100BA0002FE291078F0EE66E330EE66E91C1E6FFDF
:100BB000010EE66EC9EC13F0E552E552E552E5523E
:100BC0001FD00A0EE75D1CE2060E0101915D18E2DE
:100BD0008D0EE66E330EE66E91C1E6FF010EE66EF7
:100BE000C9EC13F0E552E552E552E552010191518D
:100BF000EA6AE10FE96E000EEA22E7C0EFFF912BEF
:100C00000101936B0EEC0CF0000908E0060E0101E7
:100C1000915D04E3100E906FDAEC0CF016EC0CF022
:100C2000000905E001010A0E906FDAEC0CF00101F9
:100C30009351106E116A113402E39DEF0BF01050C6
:100C4000C808000E115402E39DEF0BF0080E51EF9F
:100C50000BF0932BF80EE66E320EE66EE66AE66A4D
:100C6000C9EC13F0E552E552E552E552ED0EE66EA1
:100C7000320EE66EE66A010EE66EC9EC13F0E5523E
:100C8000E552E552E552010193056BE1DE6ADD6A4A
:100C900096C1E9FF97C1EAFF030ED890E936EA361C
:100CA000E806FBE13E0EE926010EEA2298C1EEFFBE
:100CB00099C1EDFFDE6ADD6ADECF10F0DDCF11F005
:100CC000D890115004E6060E105C000E115843E255
:100CD000DECFE9FFDDCFEAFFE10EE926000EEA22D2
:100CE000EF50E66E96C1E9FF97C1EAFF030ED89078
:100CF000E936EA36E806FBE13E0EE926010EEA2275
:100D0000020EE926000EEA22DE50E924E96EDD50EB
:100D1000EA20EA6EE552E750EF6EDECFE9FFDDCF65
:100D2000EAFFE10EE926000EEA22EF50300FE66EF0
:100D3000DECF10F0DDCF11F00A0E1024E66E010EAA
:100D4000E66E77EC12F0E552E552E552DF2A010E2D
:100D5000B3E3DB2AB1D70101982B000E9923962B20
:100D6000972398C110F099C111F01006000E115A86
:100D7000126A136A10C0E6FF11C0E6FF12C0E6FF58
:100D800013C0E6FF090EE66EE66AA2EC12F0146EDE
:100D9000060EE15E145001019351280802E39DEF15
:100DA0000BF019EF0BF0932B040EA503F328106E34
:100DB0009651105C000E975530E2E90EE66E320E49
:100DC000E66EE66AE66AC9EC13F0E552E552E552D2
:100DD000E552040E0101A503F328080DF3CFE9FF46
:100DE000F4CFEAFF3E0EE926010EEA22EECF10F024
:100DF000EFCF11F0126A136A10C0E6FF11C0E6FFD0
:100E000012C0E6FF13C0E6FF030EE66EE66AA2EC30
:100E100012F0146E060EE15E1450040E0101A503DB
:100E2000F350020F106E9651105C000E975532E28F
:100E3000E50EE66E320EE66E080EE66EE66AC9EC68
:100E400013F0E552E552E552E552040E0101A50307
:100E5000F350020F080DF3CFE9FFF4CFEAFF3E0E87
:100E6000E926010EEA22EECF10F0EFCF11F0126A60
:100E7000136A10C0E6FF11C0E6FF12C0E6FF13C000
:100E8000E6FF0B0EE66EE66AA2EC12F0146E060E9A
:100E9000E15E1450040E0101A503F350030F106E20
:100EA0009651105C000E975533E2E10EE66E320E5D
:100EB000E66EE66A010EE66EC9EC13F0E552E55205
:100EC000E552E552040E0101A503F350030F080D8E
:100ED000F3CFE9FFF4CFEAFF3E0EE926010EEA2246
:100EE000EECF10F0EFCF11F0126A136A10C0E6FFD8
:100EF00011C0E6FF12C0E6FF13C0E6FF030EE66E68
:100F0000010EE66EA2EC12F0146E060EE15E1450B5
:100F1000040E0101A503F350040F106E9651105CEE
:100F2000000E975534E2DD0EE66E320EE66E080EC8
:100F3000E66E010EE66EC9EC13F0E552E552E5529D
:100F4000E552040E0101A503F350040F080DF3CF81
:100F5000E9FFF4CFEAFF3E0EE926010EEA22EECFCA
:100F600010F0EFCF11F0126A136A10C0E6FF11C043
:100F7000E6FF12C0E6FF13C0E6FF0B0EE66E010EA1
:100F8000E66EA2EC12F0146E060EE15E14500EEC4A
:100F90000CF000090EE00101A529106EA4C10EF0AD
:100FA000096E94EC1BF005C0A5F154EC11F00101A1
:100FB000936B16EC0CF0000905E001010A0E906F2E
:100FC000DAEC0CF0E5EC0BF0000957E00001E70566
:100FD0000EE1040E0101A503F328106E9651105C7A
:100FE000000E975504E2040EA503F3283ED0020E2E
:100FF0000001E75D10E1040E0101A503F350020FAB
:10100000106E9651105C000E975505E2040EA50374
:10101000F350020F2AD0030E0001E75D10E1040E29
:101020000101A503F350030F106E9651105C000EE2
:10103000975505E2040EA503F350030F16D0040ED6
:101040000001E75D10E1040E0101A503F350040F58
:10105000106E9651105C000E975505E2040EA50324
:10106000F350040F02D001010F0EA66F0F0EA65D04
:1010700004E0110E906FDAEC0CF001019351106E48
:10108000116A113401E359D31050C808000E1154ED
:1010900001E353D3CED2932BD20EE66E320EE66E20
:1010A000E66AE66AC9EC13F0E552E552E552E5520C
:1010B0000101A651080DF3CFE9FFF4CFEAFF3E0E80
:1010C000E926010EEA22EECF10F0EFCF11F0126AFE
:1010D000136A10C0E6FF11C0E6FF12C0E6FF13C09E
:1010E000E6FF0A0EE66EE66AA2EC12F0146E060E39
:1010F000E15E14503F0EE66E0F0EE66EE66A77EC88
:1011000012F0E552E552E552CB0EE66E320EE66E77
:10111000E66A010EE66EC9EC13F0E552E552E552BF
:10112000E552C30EE66E320EE66E080EE66E010E56
:10113000E66EC9EC13F0E552E552E552E5526EDB7E
:10114000000905E0DAEC0CF00101120E906F6EDB85
:10115000000905E0DAEC0CF001010E0E906F0101C0
:101160009351106E116A113401E3E7D21050C80890
:10117000000E115401E3E1D25BD0932BB30EE66E67
:10118000320EE66EE66AE66AC9EC13F0E552E55205
:10119000E552E5520101930547E1A651126E136A2B
:1011A0001250965D106E13509759116E1006000E76
:1011B000115A030ED89010361136E806FBE110C024
:1011C000E6FF11C0E6FF0101A651080DF3CF14F0B0
:1011D000F4CF15F03E0E1426010E1522080E14262B
:1011E000000E152214C0E6FF15C0E6FFA651080D3B
:1011F000F3CF16F0F4CF17F03E0E1626010E17228D
:1012000016C0E6FF17C0E6FF9BEC1AF0186E060E3C
:10121000E15E18500101000ED8809655000E9755DA
:1012200003E29607000E975B9351280801E385D2ED
:10123000C1DB01010A0E906F80D2932B040EA5032F
:10124000F328106E9651105C000E975530E2E90EAF
:10125000E66E320EE66EE66AE66AC9EC13F0E55217
:10126000E552E552E552040E0101A503F328080DED
:10127000F3CFE9FFF4CFEAFF3E0EE926010EEA22A2
:10128000EECF10F0EFCF11F0126A136A10C0E6FF34
:1012900011C0E6FF12C0E6FF13C0E6FF030EE66EC4
:1012A000E66AA2EC12F0146E060EE15E1450040E13
:1012B0000101A503F350020F106E9651105C000E51
:1012C000975532E2E50EE66E320EE66E080EE66ED9
:1012D000E66AC9EC13F0E552E552E552E552040E18
:1012E0000101A503F350020F080DF3CFE9FFF4CF7E
:1012F000EAFF3E0EE926010EEA22EECF10F0EFCF14
:1013000011F0126A136A10C0E6FF11C0E6FF12C0A6
:10131000E6FF13C0E6FF0B0EE66EE66AA2EC12F0E3
:10132000146E060EE15E1450040E0101A503F35085
:10133000030F106E9651105C000E975533E2E10ECC
:10134000E66E320EE66EE66A010EE66EC9EC13F04A
:10135000E552E552E552E552040E0101A503F350B2
:10136000030F080DF3CFE9FFF4CFEAFF3E0EE926A5
:10137000010EEA22EECF10F0EFCF11F0126A136ADD
:1013800010C0E6FF11C0E6FF12C0E6FF13C0E6FF83
:10139000030EE66E010EE66EA2EC12F0146E060E5F
:1013A000E15E1450040E0101A503F350040F106E0A
:1013B0009651105C000E975534E2DD0EE66E320E4B
:1013C000E66E080EE66E010EE66EC9EC13F0E5520D
:1013D000E552E552E552040E0101A503F350040F56
:1013E000080DF3CFE9FFF4CFEAFF3E0EE926010E28
:1013F000EA22EECF10F0EFCF11F0126A136A10C09C
:10140000E6FF11C0E6FF12C0E6FF13C0E6FF0B0EB9
:10141000E66E010EE66EA2EC12F0146E060EE15EB0
:101420001450FCD900090EE00101A529106EA4C1D9
:101430000EF0096E94EC1BF005C0A5F154EC11F010
:101440000101936BF3D9000904E001010A0E906FCA
:10145000B1DABBD9000956E00001E7050EE1040E40
:101460000101A503F328106E9651105C000E9755EC
:1014700004E2040EA503F3283ED0020E0001E75D4E
:1014800010E1040E0101A503F350020F106E9651F6
:10149000105C000E975505E2040EA503F350020FF1
:1014A0002AD0030E0001E75D10E1040E0101A5033F
:1014B000F350030F106E9651105C000E975505E225
:1014C000040EA503F350030F16D0040E0001E75DD0
:1014D00010E1040E0101A503F350040F106E9651A4
:1014E000105C000E975505E2040EA503F350040F9F
:1014F00002D001010F0EA66F0F0EA65D03E0130EC2
:10150000906F58DA01019351106E116A113401E3A2
:1015100014D11050C808000E115401E30ED189D027
:10152000932BA80EE66E320EE66EE66AE66AC9EC0A
:1015300013F0E552E552E552E5520101A651080DBE
:10154000F3CFE9FFF4CFEAFF3E0EE926010EEA22CF
:10155000EECF10F0EFCF11F0126A136A10C0E6FF61
:1015600011C0E6FF12C0E6FF13C0E6FF0B0EE66EE9
:10157000E66AA2EC12F0146E060EE15E145025D954
:10158000000939E0410E0001E75D14E101019151CC
:1015900000082FE291078F0EE66E330EE66E91C1C2
:1015A000E6FF010EE66EC9EC13F0E552E552E55296
:1015B000E5521FD00A0EE75D1CE2060E0101915DA7
:1015C00018E28D0EE66E330EE66E91C1E6FF010E57
:1015D000E66EC9EC13F0E552E552E552E552010121
:1015E0009151EA6AE10FE96E000EEA22E7C0EFFFCF
:1015F000912B0101936B12D9000907E0060E01013E
:10160000915D03E3140E906FD5D910D9000904E061
:1016100001010F0E906FCED901019351106E116A26
:10162000113401E38AD01050C808000E115401E3B0
:1016300084D00A0E36D0932B3A0EE66E330EE66E49
:10164000E66AF4EC13F0E552E552E5520101930528
:1016500023E1060EE66EE66AE10EE66E000EE66E29
:10166000A651080DF3CFE9FFF4CFEAFF3E0EE926BD
:10167000010EEA22020EE926000EEA22E9CF10F05E
:10168000EACF11F0E9CFE6FFEACFE6FF9BEC1AF0D4
:10169000126E060EE15E12500101935128084DE2D0
:1016A0000A0E906F87D949D0932B9D0EE66E320EAD
:1016B000E66EE66AF4EC13F0E552E552E5528F0E61
:1016C000E66E320EE66E010EE66EF4EC13F0E552B5
:1016D000E552E5520101935128082FE21AD0932BCD
:1016E0007E0EE66E320EE66EE66AE66AC9EC13F02E
:1016F000E552E552E552E552A1D801019351106E31
:10170000116AD890115004E6C80E105C000E1158F2
:1017100014E3906B12D0932B6D0EE66E320EE66ED4
:10172000E66AE66AC9EC13F0E552E552E552E55285
:10173000280E0101935D01E3906B020EE15C02E271
:10174000E16AE552E16EE552E7CFD9FF1200D9CF49
:10175000E6FFE1CFD9FF020EE126DF6A060EDF5C6D
:1017600027E294C1E9FF95C1EAFF030ED890E9365C
:10177000EA36E806FBE13E0EE926010EEA22020EF9
:10178000E926000EEA22DF50E924E96E000EEA2085
:10179000EA6EEFCF10F0DF50EA6AE10FE96E000E5B
:1017A000EA22EF50105C02E0000E03D0DF2AD6D709
:1017B000010E106E020EE15C02E2E16AE552E16E9A
:1017C0001050E552E7CFD9FF1200D9CFE6FFE1CFA5
:1017D000D9FFE652DF6ADF500F081AE3EA6ADF3406
:1017E000FE0BEA36E96EA80EE926010EEA22010E8A
:1017F000EE180CE1ED500AE1DF50EA6A100FE96ED5
:10180000010EEA22EFCFE7F0010E03D0DF2AE3D783
:10181000000EE552E552E7CFD9FF12000101010E9B
:10182000C41903E1C55101E1010C000C0101010ED5
:10183000C01903E1C15101E1010C000C000EE66E7C
:10184000E66AC3EC00F0E552E5521200000EE66EC7
:10185000E66AEBEC00F0E552E5521200D9CFE6FF64
:10186000E1CFD9FFF90EDBCF10F0FA0EDBCF11F08C
:101870000A0E105C000E11582CE2F80EDB50030823
:1018800028E16A0EE66E320EE66EFB0EDBCFE6FF57
:10189000FD0EDBCFE6FFC9EC13F0E552E552E55251
:1018A000E552F90EDBCF10F0FA0EDBCF11F0126A21
:1018B000136A10C0E6FF11C0E6FF12C0E6FF13C0B6
:1018C000E6FFFB0EDBCF14F0FC0EDBCF15F0020EB3
:1018D00045D0F90EDBCF10F0FA0EDBCF11F00A0E77
:1018E000105C000E115804E2F80EDB5002080FE005
:1018F000F90EDBCF10F0FA0EDBCF11F0C80E105C42
:10190000000E115837E2F80EDB50030833E1680E81
:10191000E66E320EE66EFB0EDBCFE6FFFD0EDBCF92
:10192000E6FFC9EC13F0E552E552E552E552F90E37
:10193000DBCF10F0FA0EDBCF11F0126A136A10C081
:10194000E6FF11C0E6FF12C0E6FF13C0E6FFFB0E84
:10195000DBCF14F0FC0EDBCF15F0010E1424E66E85
:10196000FD0EDBCFE6FFA2EC12F0166E060EE15E76
:1019700016501CD0F90EDBCF10F0FA0EDBCF11F0B1
:10198000126A136A10C0E6FF11C0E6FF12C0E6FF3C
:1019900013C0E6FFFB0EDBCFE6FFFD0EDBCFE6FF5D
:1019A000A2EC12F0146E060EE15E1450E552E7CF81
:1019B000D9FF120054EC11F00101936BA56B9E6BE3
:0819C000A36B916B926B120006
:0819C800D9CFE6FFE1CFD9FF02
:1019D000040EE126DE6ADD6ADECF10F0DDCF11F005
:1019E000126A136A11AE02D012681368D950FB0F45
:1019F000E96EFF0EDA20EA6EEE50105CEE501158E0
:101A0000EE501258EE5013581DE2020EDB6A030E20
:101A1000DB6A020EDBCF10F0030EDBCF11F0D890A3
:101A2000115004E6050E105C000E115806E2020E7D
:101A3000DB2A030EEEE3DB2AECD7DF2A010ECCE330
:101A4000DB2ACAD7040EE15C02E2E16AE552E16EEC
:101A5000E552E7CFD9FF1200D9CFE6FFE1CFD9FF9A
:101A6000040EE126DE6ADD6ADECF10F0DDCF11F074
:101A7000126A136A11AE02D012681368D950FB0FB4
:101A8000E96EFF0EDA20EA6EEE50105CEE5011584F
:101A9000EE501258EE5013581DE2020EDB6A030E90
:101AA000DB6A020EDBCF10F0030EDBCF11F0D89013
:101AB000115004E6EE0E105C000E115806E2020E04
:101AC000DB2A030EEEE3DB2AECD7DF2A010ECCE3A0
:101AD000DB2ACAD7040EE15C02E2E16AE552E16E5C
:101AE000E552E7CFD9FF1200D9CFE6FFE1CFD9FF0A
:101AF0000F0E8116FE0EDB50F00B81128186010E57
:101B0000E66EE66AE66AE66AA7DFE552E552E55266
:101B1000E5528196010EE66EE66AE66AE66A9CDFA9
:101B2000E552E552E552E5520F0E8116FE0EDB3806
:101B3000F00B81128186010EE66EE66AE66AE66ABD
:101B40008BDFE552E552E552E5528196010EE66ED5
:101B5000E66AE66AE66A80DFE552E552E552E5525A
:101B6000E552E7CFD9FF1200D9CFE6FFE1CFD9FF89
:101B7000E652190EE66EE66AE66AE66A6DDFE5523F
:101B8000E552E552E5520F0E8116F80E81160F0E42
:101B90008116300E81128186010EE66EE66AE66AD3
:101BA000E66A5ADFE552E552E552E5528196010EAA
:101BB000E66EE66AE66AE66A4FDFE552E552E5520E
:101BC000E5520F0E8116300E81128186010EE66EEF
:101BD000E66AE66AE66A40DFE552E552E552E5521A
:101BE0008196010EE66EE66AE66AE66A35DFE55240
:101BF000E552E552E5520F0E8116300E81128186B4
:101C0000010EE66EE66AE66AE66A26DFE552E5520E
:101C1000E552E5528196010EE66EE66AE66AE66AEC
:101C20001BDFE552E552E552E5520F0E8116818A1F
:101C30008186010EE66EE66AE66AE66A0DDFE55227
:101C4000E552E552E5528196010EE66EE66AE66AD5
:101C5000E66A02DFE552E552E552E552280EE66EED
:101C600043DFE5520C0EE66E3FDFE552E552E552EA
:101C7000E7CFD9FF1200D9CFE6FFE1CFD9FF020E9F
:101C8000E126DF6A010EDB6A81940F0EE66EE66ADA
:101C9000E66AE66A99DEE552E552E552E5520F0E34
:101CA00081128186E66EE66AE66AE66A8DDEE552B4
:101CB000E552E552E5520F0E8114E76E010EE7CFB3
:101CC000DBFF81960F0EE66EE66AE66AE66A7CDE68
:101CD000E552E552E552E5520F0E81128186E66E1D
:101CE000E66AE66AE66A70DEE552E552E552E552DA
:101CF0000F0E8114DF6E010EDB50DF128196010E94
:101D0000E66EE66AE66AE66A5FDEE552E552E552AD
:101D1000E552DF50106E020EE15C02E2E16AE5522C
:101D2000E16E1050E552E7CFD9FF1200D9CFE6FFA0
:101D3000E1CFD9FFE652DF6A9EDFDF6EDFBEFCD760
:101D4000DF50E552E552E7CFD9FF1200D9CFE6FFC9
:101D5000E1CFD9FF0F0E8116FE0EDB508112818676
:101D6000050EE66EE66AE66AE66A2EDEE552E552A2
:101D7000E552E5528196050EE66EE66AE66AE66A87
:101D800023DEE552E552E552E552E552E7CFD9FFB1
:101D90001200D9CFE6FFE1CFD9FF8194050EE66EA0
:101DA000E66AE66AE66A10DEE552E552E552E55279
:101DB000FE0EDBCFE6FFCADFE552FE0EDB38F00B8E
:101DC000E66EC4DFE552E552E7CFD9FF1200D9CF66
:101DD000E6FFE1CFD9FF8184050EE66EE66AE66A8A
:101DE000E66AF2DDE552E552E552E552FE0EDBCF42
:101DF000E6FFACDFE552FE0EDB38F00BE66EA6DF49
:101E0000E5528194E552E7CFD9FF1200D9CFE6FF22
:101E1000E1CFD9FFFE0EDBCFE6FFD9DFE552E55279
:101E2000E7CFD9FF1200D9CFE6FFE1CFD9FFFE0EF1
:101E3000DBCFE6FFCCDFE552E552E7CFD9FF12005A
:101E4000D9CFE6FFE1CFD9FFFD0EDBCFF6FFFE0EC7
:101E5000DBCFF7FF0800F5500FE0FD0EDBCFF6FFFC
:101E6000DB2AFE0EDBCFF7FF01E3DB2A0800F5508B
:101E7000E66ED9DFE552E8D7E552E7CFD9FF120089
:101E8000D9CFE6FFE1CFD9FFE652FD0EDB500F0BB5
:101E9000106EFE0EDB50010B400DF3501024DF6E70
:101EA0007F0EDF14800FDF6EDFCFE6FF72DFE552BB
:101EB000E552E552E7CFD9FF1200010EE66E69DF69
:101EC000E552E66AE66ADCDFE552E5521200D9CF58
:101ED000E6FFE1CFD9FF050EE126010EF36EDB6EC2
:101EE000020EDB6A030EDB6A040EDB6ADF6ADFCFF9
:101EF00010F0116A10BE1168FB0EDBCF12F0FC0E61
:101F0000DBCF13F011501318E8AE02D0133404D015
:101F10001250105C135011582DE2FD0EDBCF10F063
:101F2000FE0EDBCF11F0126A136A11AE02D01268F6
:101F30001368D950010FE96EDACFEAFF10C00BF039
:101F400011C00CF012C00DF013C00EF0EECF06F071
:101F5000EECF07F0EECF08F0EFCF09F0E7EC1AF084
:101F600005C0EDFF04C0EDFF03C0EDFF02C0EFFFB1
:101F7000DF2ABDD7010EDBCF10F0020EDBCF11F050
:101F8000030EDBCF12F0040EDBCF13F010C006F00F
:101F900011C007F012C008F013C009F0050EE15C93
:101FA00002E2E16AE552E16EE552E7CFD9FF1200A5
:101FB000D9CFE6FFE1CFD9FF020EE126DF6AFB0EA3
:101FC000DBCF10F0FC0EDBCF11F0FD0EDBCF12F0FB
:101FD000FE0EDBCF13F0105011101210131005E19C
:101FE000300EE66E20DFE552F4D0D950FB0FE96EDB
:101FF000FF0EDA20EA6ED890030EEB50000A08E6D6
:10200000000EEE5C000EEE58000EEE58000EEE587C
:1020100015E22D0EE66E07DFE552D950FB0FE96E93
:10202000FF0EDA20EA6E000EEE6CEF1EEE22EF1EBF
:10203000EE22EF1EEF22ED52ED52ED52DE52070E70
:10204000DD6E010EDBCF10F0000EE76E1018E8AE6B
:1020500002D0103403D0E750D880105401E3B9D037
:10206000010EDB04146E156A14BE156814C0E6FF79
:1020700015C0E6FF0A0EE66EE66A29DFE552E55274
:10208000E552E55206C010F007C011F008C012F08A
:1020900009C013F006C00BF007C00CF008C00DF02B
:1020A00009C00EF0FB0EDBCF06F0FC0EDBCF07F015
:1020B000FD0EDBCF08F0FE0EDBCF09F01FEC1BF0AE
:1020C000065007100810091041E0010EDF6EDB0416
:1020D000186E196A18BE196818C0E6FF19C0E6FF25
:1020E0000A0EE66EE66AF3DEE552E552E552E55287
:1020F00006C014F007C015F008C016F009C017F0AC
:1021000006C00BF007C00CF008C00DF009C00EF0BF
:10211000FB0EDBCF06F0FC0EDBCF07F0FD0EDBCFB6
:1021200008F0FE0EDBCF09F01FEC1BF006C010F02C
:1021300007C011F008C012F009C013F0300E1026CD
:10214000000E112212221322105003D0DF5004E09F
:10215000300EE66E68DEE552010EDB04146E156A81
:1021600014BE156814C0E6FF15C0E6FF0A0EE66E41
:10217000E66AADDEE552E552E552E55206C010F0E2
:1021800007C011F008C012F009C013F0D950FB0FBE
:10219000E96EFF0EDA20EA6E06C00BF007C00CF005
:1021A00008C00DF009C00EF0EECF06F0EECF07F03C
:1021B000EECF08F0EFCF09F01FEC1BF005C0EDFFEC
:1021C00004C0EDFF03C0EDFF02C0EFFF010EDB0610
:1021D00038D7020EE15C02E2E16AE552E16EE552B7
:1021E000E7CFD9FF1200D9CFE6FFE1CFD9FFFD0E2F
:1021F000DBCFE6FFFE0EDBCFE6FF42DEE552E55227
:10220000D950F90FE96EFF0EDA20EA6EEECFE6FF45
:10221000EECFE6FFEECFE6FFEFCFE6FFC9DEE552F9
:10222000E552E552E552E552E7CFD9FF1200D9CF8A
:10223000E6FFE1CFD9FFFD0EDBCFE6FFFE0EDBCFE1
:10224000E6FF1EDEE552E552FB0EDBCFE6FFFC0E9D
:10225000DBCFE6FFF5DDE552E552E552E7CFD9FFEA
:102260001200D9CFE6FFE1CFD9FFFAC110F0FBC1D0
:1022700011F0040ED89010361136E806FBE1C10EBD
:102280001026000E112210500101FC25E96E11509C
:10229000FD21EA6EFE0EDBCFEFFFFC2B000EFD23CF
:1022A000E552E7CFD9FF1200D9CFE6FFE1CFD9FF42
:1022B000E652DF6ADFCF10F0100EE76E1018E8AEBE
:1022C00002D0E73402D0E750105C18E2DFCFE9FF1C
:1022D000EA6AE9BEEA68C10EE926000EEA22200E8B
:1022E000EF6EDFCFE9FFEA6AE9BEEA68D10EE926C0
:1022F000000EEA22200EEF6EDF2ADCD7E552E5520F
:10230000E7CFD9FF1200D9CFE6FFE1CFD9FFE652E0
:102310000001C051030A52E0010A36E0030A1AE044
:10232000010A67E1E66AE66AABDDE552E552DF6A7B
:10233000080EDF5C0CE2DF50EA6AC10FE96E000EA6
:10234000EA22EF50E66E6FDDE552DF2AF1D7000199
:10235000010E32D0080EE66EE66A92DDE552E552D5
:10236000DF6A080EDF5C0DE2080EDF24EA6AC10FA7
:10237000E96E000EEA22EF50E66E55DDE552DF2AE7
:10238000F0D70001020E18D0E66A010EE66E78DD85
:10239000E552E552DF6A080EDF5C0CE2DF50EA6AC4
:1023A000D10FE96E000EEA22EF50E66E3CDDE552F9
:1023B000DF2AF1D70001030EC06F1CD0080EE66EB5
:1023C000010EE66E5DDDE552E552DF6A080EDF5C68
:1023D0000DE2080EDF24EA6AD10FE96E000EEA2250
:1023E000EF50E66E20DDE552DF2AF0D70001C06B2A
:1023F00001D0C06BE552E552E7CFD9FF1200D9CF2B
:10240000E6FFE1CFD9FFE6520001C051010A1BE00F
:10241000010A32E1E66AE66A33DDE552E552DF6A37
:10242000100EDF5C0CE2DF50EA6AC10FE96E000EAD
:10243000EA22EF50E66EF7DCE552DF2AF1D7000121
:10244000010EC06F1AD0E66A010EE66E19DDE55284
:10245000E552DF6A100EDF5C0CE2DF50EA6AD10F52
:10246000E96E000EEA22EF50E66EDDDCE552DF2A6F
:10247000F1D70001C06B01D0C06BE552E552E7CF48
:10248000D9FF1200D9CFE6FFE1CFD9FFE652E66AC5
:10249000E66AF6DCE552E552DF6A100EDF5C0CE21C
:1024A000DF50EA6AC10FE96E000EEA22EF50E66ED5
:1024B000BADCE552DF2AF1D7E66A010EE66EE0DC0F
:1024C000E552E552DF6A100EDF5C0CE2DF50EA6A8B
:1024D000D10FE96E000EEA22EF50E66EA4DCE55261
:1024E000DF2AF1D7E552E552E7CFD9FF1200D9CF65
:1024F000E6FFE1CFD9FFFE0EDB50010B0101FA6FC1
:10250000FB6BFD0EDB500F0BFC6FFD6BFAC110F087
:10251000FBC111F0040ED89010361136E806FBE12D
:10252000C10E1026000E112210500101FC25E96E8B
:102530001150FD21EA6EFC0EDBCFEFFFE552E7CF35
:10254000D9FF1200D9CFE6FFE1CFD9FF020EE12675
:10255000DF6AFE0EDB50010B0101FA6FFB6BFD0E13
:10256000DB500F0BFC6FFD6BF90EDBCF10F0FA0E9A
:10257000DBCF11F0FB0EDBCF12F0FC0EDBCF13F044
:10258000105011101210131005E1300EE66E69DEC6
:10259000E552F5D0D950F90FE96EFF0EDA20EA6E58
:1025A000D890030EEB50000A08E6000EEE5C000E19
:1025B000EE58000EEE58000EEE5815E22D0EE66EA7
:1025C00050DEE552D950F90FE96EFF0EDA20EA6EBF
:1025D000000EEE6CEF1EEE22EF1EEE22EF1EEF223B
:1025E000ED52ED52ED52DE52070EDD6E010EDBCFE5
:1025F00010F0000EE76E1018E8AE02D0103403D0D1
:10260000E750D880105401E3BAD0010EDB04146EF9
:10261000156A14BE156814C0E6FF15C0E6FF0A0E61
:10262000E66EE66A54DCE552E552E552E55206C034
:1026300010F007C011F008C012F009C013F006C076
:102640000BF007C00CF008C00DF009C00EF0F90E39
:10265000DBCF06F0FA0EDBCF07F0FB0EDBCF08F086
:10266000FC0EDBCF09F01FEC1BF006500710081022
:10267000091041E0010EDF6EDB04186E196A18BE06
:10268000196818C0E6FF19C0E6FF0A0EE66EE66A92
:102690001EDCE552E552E552E55206C014F007C0D3
:1026A00015F008C016F009C017F006C00BF007C0FF
:1026B0000CF008C00DF009C00EF0F90EDBCF06F0EB
:1026C000FA0EDBCF07F0FB0EDBCF08F0FC0EDBCF02
:1026D00009F01FEC1BF006C010F007C011F008C095
:1026E00012F009C013F0300E1026000E1122122233
:1026F0001322105003D0DF5004E0300EE66EB1DD3F
:10270000E552010EDB04146E156A14BE156814C080
:10271000E6FF15C0E6FF0A0EE66EE66A67EC0FF00C
:10272000E552E552E552E55206C010F007C011F03F
:1027300008C012F009C013F0D950F90FE96EFF0E6E
:10274000DA20EA6E06C00BF007C00CF008C00DF0EE
:1027500009C00EF0EECF06F0EECF07F0EECF08F096
:10276000EFCF09F01FEC1BF005C0EDFF04C0EDFF3B
:1027700003C0EDFF02C0EFFF010EDB0637D7020EEC
:10278000E15C02E2E16AE552E16EE552E7CFD9FF92
:102790001200D9CFE6FFE1CFD9FFFE0EDB50010BCF
:1027A0000101FA6FFB6BFD0EDB500F0BFC6FFD6B35
:1027B000FB0EDBCFF6FFFC0EDBCFF7FF0800F5507A
:1027C0000FE0FB0EDBCFF6FFDB2AFC0EDBCFF7FFC3
:1027D00001E3DB2A0800F550E66E43DDE552E8D759
:1027E000E552E7CFD9FF1200D9CFE6FFE1CFD9FFFD
:1027F000020EE126DE6ADD6AFE0EDB50010B0101EE
:10280000FA6FFB6BFC6BFD6BDE6ADD6ADECF10F0EE
:10281000DDCF11F0D890115004E6100E105C000EC0
:1028200011581EE2FC0EDBCFF6FFFD0EDBCFF7FFEB
:102830000800F5500CE0FC0EDBCFF6FFDB2AFD0EA6
:10284000DBCFF7FF01E3DB2A0800F55001D0200EB3
:10285000E66E07DDE552DF2A010ED8E3DB2AD6D784
:10286000020EE15C02E2E16AE552E16EE552E7CF79
:04287000D9FF12007A
:0C287400D9CFE6FFE1CFD9FFD59EFD0EC5
:10288000DBCFD0F1FE0EDBCFD1F1D59C13681468FD
:10289000156AD0C116F0D1C117F0186A1650135C32
:1028A000106E17501458116E18501558126E0C6A8D
:1028B000010E0D6E0E6A10C007F011C008F012C0B4
:1028C00009F01FEC1AF00350D66E13681468156AED
:1028D000D0C116F0D1C117F0186A1650135C106EF3
:1028E00017501458116E18501558126E0C6A010EBC
:1028F0000D6E0E6A10C007F011C008F012C009F08A
:102900001FEC1AF007C010F008C011F009C012F057
:102910000750D76ED59AD586F28AF294F184D58E77
:10292000E552E7CFD9FF1200D59E12001368146854
:10293000156AD0C116F0D1C117F0186A1650135C91
:10294000106E17501458116E18501558126E0C6AEC
:10295000010E0D6E0E6A10C007F011C008F012C013
:1029600009F01FEC1AF00350D66E13681468156A4C
:10297000D0C116F0D1C117F0186A1650135C106E52
:1029800017501458116E18501558126E0C6A010E1B
:102990000D6E0E6A10C007F011C008F012C009F0E9
:1029A0001FEC1AF007C010F008C011F009C012F0B7
:1029B0000750D76ED58E1200D9CFE6FFE1CFD9FFF1
:1029C000CD90FD0EDBCFD2F1FE0EDBCFD3F113683D
:1029D0001468156AD2C116F0D3C117F0186A1650E0
:1029E000135C106E17501458116E18501558126E53
:1029F0000C6A010E0D6E0E6A10C007F011C008F0CF
:102A000012C009F01FEC1AF00750CF6E136814685B
:102A1000156AD2C116F0D3C117F0186A1650135CAC
:102A2000106E17501458116E18501558126E0C6A0B
:102A3000010E0D6E0E6A10C007F011C008F012C032
:102A400009F01FEC1AF003C010F004C011F005C02B
:102A500012F00350CE6E9D809E909F90CD8ECD8CB7
:102A6000CD98CD9ACD96CD92CD80E552E7CFD9FFC6
:102A7000120013681468156AD2C116F0D3C117F09A
:102A8000186A1650135C106E17501458116E1850B7
:102A90001558126E0C6A010E0D6E0E6A10C007F00A
:102AA00011C008F012C009F01FEC1AF00750CF6EE9
:102AB00013681468156AD2C116F0D3C117F0186AEA
:102AC0001650135C106E17501458116E185015588C
:102AD000126E0C6A010E0D6E0E6A10C007F011C066
:102AE00008F012C009F01FEC1AF003C010F004C087
:102AF00011F005C012F00350CE6ECD801200CD90C3
:102B00001200D9CFE6FFE1CFD9FFCA94CC6AFE0EFE
:102B1000DB500101D46FD56BCB6E9D829E929F924C
:102B2000CA90CA92CA84E552E7CFD9FF1200D4C135
:102B3000CBFFCA841200CA941200D9CFE6FFE1CFBE
:102B4000D9FFB190FD0EDBCFD6F1FE0EDBCFD7F172
:102B500013681468156AD6C116F0D7C117F0186A41
:102B60001650135C106E17501458116E18501558EB
:102B7000126E0C6A010E0D6E0E6A10C007F011C0C5
:102B800008F012C009F01FEC1AF00750B36E13687A
:102B90001468156AD6C116F0D7C117F0186A165016
:102BA000135C106E17501458116E18501558126E91
:102BB0000C6A010E0D6E0E6A10C007F011C008F00D
:102BC00012C009F01FEC1AF003C010F004C011F09D
:102BD00005C012F00350B26EA082A192A292B18EF3
:102BE000B198B19AB192B180E552E7CFD9FF120006
:102BF00013681468156AD6C116F0D7C117F0186AA1
:102C00001650135C106E17501458116E185015584A
:102C1000126E0C6A010E0D6E0E6A10C007F011C024
:102C200008F012C009F01FEC1AF00350B26E1368DE
:102C30001468156AD6C116F0D7C117F0186A165075
:102C4000135C106E17501458116E18501558126EF0
:102C50000C6A010E0D6E0E6A10C007F011C008F06C
:102C600012C009F01FEC1AF007C010F008C011F0F4
:102C700009C012F00750B36EB1801200B19012007B
:102C80000101E02B000EE123E851E05DE951E1593B
:102C900004E3E06BE16B010ED86F12000101E22B3F
:102CA000000EE323EA51E25DEB51E35904E3E26BEA
:102CB000E36B010ED96F12000101E42B000EE52336
:102CC000EC51E45DED51E55904E3E46BE56B010E75
:102CD000DA6F12000101E62B000EE723EE51E65DEC
:102CE000EF51E75904E3E66BE76B010EDB6F12006F
:102CF000D9CFE6FFE1CFD9FFFD0EDBCFE8F1FE0E25
:102D0000DBCFE9F10101E06BE16BD86BE552E7CF76
:102D1000D9FF1200D9CFE6FFE1CFD9FFFD0EDBCFFF
:102D2000EAF1FE0EDBCFEBF1050E0D6E0E6AEAC185
:102D300008F0EBC109F0F9EC19F008C0EAF109C09C
:102D4000EBF10101E26BE36BD96BE552E7CFD9FF01
:102D50001200D9CFE6FFE1CFD9FFFD0EDBCFEEF1B8
:102D6000FE0EDBCFEFF10A0E0D6E0E6AEEC108F01B
:102D7000EFC109F0F9EC19F008C0EEF109C0EFF16C
:102D80000101E66BE76BDB6BE552E7CFD9FF120081
:102D90000F0E946E82681200D9CFE6FFE1CFD9FF03
:102DA000040EE126DE6ADD6ADECF10F0DDCF11F021
:102DB000D890115004E6040E105C000E115801E387
:102DC00090D0DECFE9FFDDCFEAFFC80EE926010E85
:102DD000EA22EF1C826E020EDB6A030EDB6A020E31
:102DE000DBCF10F0030EDBCF11F0D890115004E6CA
:102DF000040E105C000E11586EE2020EDBCFE9FFEC
:102E0000030EDBCFEAFFCC0EE926010EEA22EF50DB
:102E100082143FE1DECF14F0DDCF15F0D8901436E8
:102E20001536D89014361536020EDB501424E96E90
:102E3000030EDB501520EA6ED890E936EA36A80E6C
:102E4000E926010EEA22EECF12F0EFCF13F0010EC9
:102E50001226000E1322DECF10F0DDCF11F0D89035
:102E600010361136D89010361136020EDB50102471
:102E7000E96E030EDB501120EA6ED890E936EA368F
:102E8000A80EE926010EEA2212C0EEFF13C0EDFFE4
:102E90001BD0DECF10F0DDCF11F0D89010361136F8
:102EA000D89010361136020EDB501024E96E030E56
:102EB000DB501120EA6ED890E936EA36A80EE926F2
:102EC000010EEA22EE6AED6A020EDB2A030E01E22F
:102ED00086D7DB2A84D7DF2A010E01E265D7DB2AF9
:102EE00063D7040EE15C02E2E16AE552E16EE5526D
:102EF000E7CFD9FF1200D9CFE6FFE1CFD9FF040E0B
:102F0000E126DE6ADD6ADECF10F0DDCF11F0FD0EC6
:102F1000DBCF12F0FE0EDBCF13F011501318E8AE2A
:102F200002D0133404D01250105C135011581DE21B
:102F3000020EDB6A030EDB6A020EDBCF10F0030E1B
:102F4000DBCF11F0D890115004E6EE0E105C000EAD
:102F5000115806E2020EDB2A030EEEE3DB2AECD761
:102F6000DF2A010ED0E3DB2ACED7040EE15C02E2B9
:102F7000E16AE552E16EE552E7CFD9FF1200D9CF01
:102F8000E6FFE1CFD9FF040EE126DE6ADD6ADECF7F
:102F900010F0DDCF11F0D890115004E6040E105C53
:102FA000000E115875E2DECFE9FFDDCFEAFFC80E53
:102FB000E926010EEA22EF1C826E020EDB6A030E86
:102FC000DB6A020EDBCF10F0030EDBCF11F0D890DE
:102FD000115004E6040E105C000E11584AE2DECFD8
:102FE00010F0DDCF11F0D89010361136D890103691
:102FF0001136020EDB501024E96E030EDB50112057
:10300000EA6ED890E936EA36A80EE926010EEA22E1
:10301000EE6AED6A020EDBCFE9FF030EDBCFEAFFBB
:10302000CC0EE926010EEA22EF5082141CE1DECF1D
:1030300010F0DDCF11F0D89010361136D890103640
:103040001136020EDB501024E96E030EDB50112006
:10305000EA6ED890E936EA36A80EE926010EEA2291
:10306000010EEE6EED6A020EDB2A030EAAE3DB2AE6
:10307000A8D78250816EE80EE66E030EE66E3BDF47
:10308000E552E552DF2A010E01E281D7DB2A7FD724
:10309000040EE15C02E2E16AE552E16EE552E7CF3F
:0430A000D9FF120042
:0C30A400F28ED08EF28C1200F19CF292A1
:1030B000F2881200D8CFE4FFE0CFE4FFE46EDACF6D
:1030C000E4FFE2CFDAFFE9CFE4FFEACFE4FFF6CF97
:1030D000E4FFF7CFE4FFF5CFE4FFF3CFE4FFF4CF55
:1030E000E4FFFACFE4FF00EE00F0100EE80403E383
:1030F000EECFE4FFFBD700EE10F00A0EE80403E386
:10310000EECFE4FFFBD7E652F2A407D094EC14F024
:10311000F29496EC14F040EC16F09EA007D07FECF1
:1031200015F09E9039EC15F04EEC16F0A1A207D0E8
:103130003EEC16F0A192F8EC15F06AEC16F0F2B243
:10314000F2929EBA9E9AE55200EE19F00A0EE80439
:1031500003E3E5CFEDFFFBD700EE0FF0100EE80420
:1031600003E3E5CFEDFFFBD7E5CFFAFFE5CFF4FFB3
:10317000E5CFF3FFE5CFF5FFE5CFF7FFE5CFF6FFAE
:10318000E5CFEAFFE5CFE9FFE5CFDAFFE550E5CF90
:10319000E0FFE5CFD8FF1000DACFE4FFE2CFDAFF9F
:1031A000E9CFE4FFEACFE4FFF6CFE4FFF7CFE4FF97
:1031B000F5CFE4FFF3CFE4FFF4CFE4FFFACFE4FF71
:1031C00000EE00F0100EE80403E3EECFE4FFFBD7BF
:1031D00000EE10F00A0EE80403E3EECFE4FFFBD7A5
:1031E000E652F2A407D094EC14F0F29496EC14F0AA
:1031F00040EC16F09EA007D07FEC15F09E9039ECC5
:1032000015F04EEC16F0A1A207D03EEC16F0A192FC
:10321000F8EC15F06AEC16F0F2B2F2929EBA9E9AB1
:10322000E55200EE19F00A0EE80403E3E5CFEDFFE6
:10323000FBD700EE0FF0100EE80403E3E5CFEDFF3F
:10324000FBD7E5CFFAFFE5CFF4FFE5CFF3FFE5CFFE
:10325000F5FFE5CFF7FFE5CFF6FFE5CFEAFFE5CFD6
:08326000E9FFE5CFDAFF1100E0
:083268003000303000504153EA
:1032700053574F52442057524F4E472020004F5033
:10328000454E494E4720444F4F5220202020004EAB
:103290004F5420415641494C41424C450043524510
:1032A000415445204C4F47004E4557205057204928
:1032B00044200052454D4F564520434F4D504C45FC
:1032C000544500593A454E544552004E3A42414306
:1032D0004B0052454D4F56452049442000342E2086
:1032E00000332E2000322E2000312E20005041537A
:1032F00053574F52443A20004E4557204944203AF4
:103300002000505720464F522049442000312E4380
:1033100048414E4745204D454D20505700322E52D2
:10332000454D4F5645204D454D42455200312E41A9
:103330004444204D454D424552004348414E474587
:103340002053554343455353004348414E4745207E
:103350004144205041535300322E4352454154457D
:10336000204C4F4700312E4D414E4147452055538B
:10337000455200322E4348414E4745205041535359
:1033800000312E4F50454E20444F4F52002A00200E
:10339000005041535320464F522049442000496E6B
:1033A00076616C6964204944202020202020002080
:1033B00020202020202020202020202000454E54A6
:1033C0004552204944202020202020202000202079
:1033D00020202020202020202020202020200050DD
:1033E00052455353202320464F52205041535300FF
:0233F000460095
:0E33F200006A0EAE02EF1AF00D6C0E1EE86AB5
:103400000E22001E09AE0AEF1AF0086C091EE86AC7
:103410000922001E60EC1BF009BE1AEF1AF000AE84
:10342000000C086C091EE86A0922046C051EE86A93
:103430000522000C00BE11EF1AF00188FF0C006A93
:103440000EAE2AEF1AF00C6C0D1E0E1EE86A0D224D
:103450000E22001E09AE34EF1AF0076C081E091E7A
:10346000E86A08220922001E43EC1BF009BE47EF60
:103470001AF000AE000C076C081E091EE86A08224C
:103480000922036C041E051E04220522000C00BE46
:083490003BEF1AF00188FF0C6C
:083498001E0EF66E000EF76E29
:1034A000000EF86E01010900F550F56F0900F550A6
:1034B000F66F03E1F56701D03DD00900F550F06FDC
:1034C0000900F550F16F0900F550F26F090009008D
:1034D000F550E96E0900F550EA6E0900090009008F
:1034E000F550F36F0900F550F46F09000900F6CFAD
:1034F000F7F1F7CFF8F1F8CFF9F1F0C1F6FFF1C12C
:10350000F7FFF2C1F8FF0101F35302E1F45307E0C2
:103510000900F550EE6EF307F8E2F407F9D7F7C1AA
:10352000F6FFF8C1F7FFF9C1F8FF0101F507000E3A
:06353000F65BBFD712009C
:0A353600D9CFE6FFDACFE6FFFA0E68
:10354000E3CFD9FFFB0EE3CFDAFFFC0EE3CFE9FFB9
:10355000FD0EE3CFEAFFE9CFF3FFEACFF4FFE95036
:10356000D95CEA50DA580EE3F80EE35003E1F90EA5
:10357000E35024E0F80EE30602E2F90EE306DECFA4
:10358000EEFFF2D7F80EE350D926F90EE350DA2217
:10359000DD52F80EE350E926F90EE350EA22ED522F
:1035A000F80EE35003E1F90EE35008E0F80EE306ED
:1035B00002E2F90EE306DDCFEDFFF2D7FF0EE3CF17
:0E35C000DAFFE552FF0EE3CFD9FFE55212000D
:0235CE000650A5
:1035D0000B02F3CF02F0F4CF03F00C02F3500326FA
:1035E000000EF420046E06500D02F3500426000E67
:1035F000F420056E06500E02F350052607500B020C
:10360000F3500326F4500422000E052207500C024A
:10361000F3500426F450052207500D02F3500526FE
:1036200008500B02F3500426F450052208500C02F7
:0E363000F350052609500B02F3500526120038
:02363E00056A1B
:10364000046A036A026A200EE76ED89006360736CF
:103650000836093602360336043605360B50025C4E
:103660000C5003580D5004580E50055809E30B50E8
:10367000025E0C50035A0D50045A0E50055A062A89
:06368000E72EE4D7120062
:0A368600056A046A036A180EE76E75
:10369000D8900736083609360336043605360C50FE
:1036A000035C0D5004580E50055807E30C50035EA0
:1036B0000D50045A0E50055A072AE72EEAD7120079
:1036C000056A046A100EE76ED8900836093604368B
:1036D00005360D50045C0E50055805E30D50045E90
:0C36E0000E50055A082AE72EF0D7120001
:0436EC00800EF36EEB
:1036F00000EE00F00F0E01D81200EA6002D0EE6A70
:0C370000FCD7F350E9601200EE6AFCD721
:04370C001EEE00F0BD
:103710002EEE00F0F86A019C4CEC1AF003EC00F07D
:083720002EEC00F0FBD71200B3
:08372800056A080EE76ED89057
:10373000093605360E50055C02E3056E092AE72EB0
:04374000F7D71200A5
:0C37440000000000000000000000000079
:103750000000000000000000000000000100010067
:043760000100010063
:0C3764000102040810204080000000005A
:103770000000000001020341040506420708094356
:103780002A00454401020304050602070809070848
:10379000030303030303040806080201054142432F
:1037A00044F00000010203040506010002070809B5
:1037B00007080C000303030303032500040806089D
:1037C000020129000541424344F0000000000000CE
:1037D00000000000000000000000000000000000E9
:1037E00000000000000000000000000000000000D9
:1037F00000000000000000000000050005000309B3
:0C3800000A0B000D0E0F0A000000000073
:04380C0000000000B8
:1038100000000000101010101010101018181818C8
:10382000181818181C1C1C1C1C1C1C1C1E1E1E1EE0
:103830001E1E1E1E1F1F1F1F1F1F1F1F0000000018
:103840000000000000000000000000000000000078
:103850000000000000000000000000000000000068
:0D386000000000000000000000000000005B
:03386D0000000058
:103870000000000000000000000000000000000048
:1038800000000000000000000000000000102040C8
:053890008001020408A4
:020000040030CA
:0100010002FC
:0100020003FA
:010003001EDE
:010005008179
:010006008178
:010008000FE8
:01000900C036
:01000A000FE6
:01000B00E014
:01000C000FE4
:01000D0040B2
:00000001FF
