:020000040000FA
:0600000029EF12F01200CE
:020006001200E6
:0600080038EF10F01200B9
:02000E000000F0
:020010000000EE
:06001800C6EF0FF012001C
:02001E000500DB
:100020008825000080000000280000000E0000006D
:10003000D9000000040000002725000099010000FD
:10004000610000008E240000000100009900000003
:0C0050006E240000A8000000200000004A
:04005C00D9CFE6FF13
:10006000E1CFD9FF040EE126DE6ADD6ADECF10F0B3
:10007000DDCF11F0126A136A11AE02D01268136854
:10008000D950FB0FE96EFF0EDA20EA6EEE50105CDD
:10009000EE501158EE501258EE5013581DE2020E59
:1000A000DB6A030EDB6A020EDBCF10F0030EDBCF40
:1000B00011F0D890115004E6050E105C000E115896
:1000C00006E2020EDB2A030EEEE3DB2AECD7DF2A80
:1000D000010ECCE3DB2ACAD7040EE15C02E2E16A3E
:1000E000E552E16EE552E7CFD9FF1200D9CFE6FF26
:1000F000E1CFD9FF040EE126DE6ADD6ADECF10F023
:10010000DDCF11F0126A136A11AE02D012681368C3
:10011000D950FB0FE96EFF0EDA20EA6EEE50105C4C
:10012000EE501158EE501258EE5013581DE2020EC8
:10013000DB6A030EDB6A020EDBCF10F0030EDBCFAF
:1001400011F0D890115004E6EE0E105C000E11581C
:1001500006E2020EDB2A030EEEE3DB2AECD7DF2AEF
:10016000010ECCE3DB2ACAD7040EE15C02E2E16AAD
:10017000E552E16EE552E7CFD9FF1200D9CFE6FF95
:10018000E1CFD9FF0F0E8116FE0EDB50F00B81126E
:100190008186010EE66EE66AE66AE66AA7DFE55248
:1001A000E552E552E5528196010EE66EE66AE66A90
:1001B000E66A9CDFE552E552E552E5520F0E8116E4
:1001C000FE0EDB38F00B81128186010EE66EE66AC8
:1001D000E66AE66A8BDFE552E552E552E552819622
:1001E000010EE66EE66AE66AE66A80DFE552E552EF
:1001F000E552E552E552E7CFD9FF1200D9CFE6FF2D
:10020000E1CFD9FFE652190EE66EE66AE66AE66AC3
:100210006DDFE552E552E552E5520F0E8116F80EFC
:1002200081160F0E8116300E81128186010EE66E48
:10023000E66AE66AE66A5ADFE552E552E552E552B9
:100240008196010EE66EE66AE66AE66A4FDFE552DF
:10025000E552E552E5520F0E8116300E811281866D
:10026000010EE66EE66AE66AE66A40DFE552E552AE
:10027000E552E5528196010EE66EE66AE66AE66AA6
:1002800035DFE552E552E552E5520F0E8116300E8C
:1002900081128186010EE66EE66AE66AE66A26DF6C
:1002A000E552E552E552E5528196010EE66EE66AA8
:1002B000E66AE66A1BDFE552E552E552E5520F0EAB
:1002C0008116818A8186010EE66EE66AE66AE66A32
:1002D0000DDFE552E552E552E5528196010EE66EDC
:1002E000E66AE66AE66A02DFE552E552E552E55261
:1002F000280EE66E43DFE5520C0EE66E3FDFE55258
:10030000E552E552E7CFD9FF1200D9CFE6FFE1CFA2
:10031000D9FF020EE126DF6A010EDB6A81940F0E1F
:10032000E66EE66AE66AE66A99DEE552E552E5526D
:10033000E5520F0E81128186E66EE66AE66AE66A8B
:100340008DDEE552E552E552E5520F0E8114E76E5F
:10035000010EE7CFDBFF81960F0EE66EE66AE66AD6
:10036000E66A7CDEE552E552E552E5520F0E811257
:100370008186E66EE66AE66AE66A70DEE552E55276
:10038000E552E5520F0E8114DF6E010EDB50DF12D5
:100390008196010EE66EE66AE66AE66A5FDEE5527F
:1003A000E552E552E552DF50106E020EE15C02E2CA
:1003B000E16AE552E16E1050E552E7CFD9FF120035
:1003C000D9CFE6FFE1CFD9FFE652DF6A9EDFDF6ECD
:1003D000DFBEFCD7DF50E552E552E7CFD9FF120070
:1003E000D9CFE6FFE1CFD9FF0F0E8116FE0EDB500D
:1003F00081128186050EE66EE66AE66AE66A2EDE00
:10040000E552E552E552E5528196050EE66EE66A42
:10041000E66AE66A23DEE552E552E552E552E55228
:10042000E7CFD9FF1200D9CFE6FFE1CFD9FF819402
:10043000050EE66EE66AE66AE66A10DEE552E55209
:10044000E552E552FE0EDBCFE6FFCADFE552FE0EB7
:10045000DB38F00BE66EC4DFE552E552E7CFD9FF9B
:100460001200D9CFE6FFE1CFD9FF8184050EE66EF9
:10047000E66AE66AE66AF2DDE552E552E552E552E1
:10048000FE0EDBCFE6FFACDFE552FE0EDB38F00BF5
:10049000E66EA6DFE5528194E552E7CFD9FF120060
:1004A000D9CFE6FFE1CFD9FFFE0EDBCFE6FFD9DFE4
:1004B000E552E552E7CFD9FF1200D9CFE6FFE1CFF1
:1004C000D9FFFE0EDBCFE6FFCCDFE552E552E7CFEA
:1004D000D9FF1200D9CFE6FFE1CFD9FFFD0EDBCF68
:1004E000F6FFFE0EDBCFF7FF0800F5500FE0FD0E24
:1004F000DBCFF6FFDB2AFE0EDBCFF7FF01E3DB2AC3
:100500000800F550E66ED9DFE552E8D7E552E7CFAF
:10051000D9FF1200D9CFE6FFE1CFD9FFE652FD0E99
:10052000DB500F0B106EFE0EDB50010B400DF35035
:100530001024DF6E7F0EDF14800FDF6EDFCFE6FF4B
:1005400072DFE552E552E552E7CFD9FF1200010E06
:10055000E66E69DFE552E66AE66ADCDFE552E552FF
:100560001200D9CFE6FFE1CFD9FF050EE126010E3B
:10057000F36EDB6E020EDB6A030EDB6A040EDB6ACF
:10058000DF6ADFCF10F0116A10BE1168FB0EDBCFFF
:1005900012F0FC0EDBCF13F011501318E8AE02D0AE
:1005A000133404D01250105C135011582DE2FD0E7C
:1005B000DBCF10F0FE0EDBCF11F0126A136A11AE22
:1005C00002D012681368D950010FE96EDACFEAFF42
:1005D00010C00BF011C00CF012C00DF013C00EF0E3
:1005E000EECF06F0EECF07F0EECF08F0EFCF09F038
:1005F0008AEC11F005C0EDFF04C0EDFF03C0EDFF74
:1006000002C0EFFFDF2ABDD7010EDBCF10F0020ED4
:10061000DBCF11F0030EDBCF12F0040EDBCF13F0B3
:1006200010C006F011C007F012C008F013C009F0A6
:10063000050EE15C02E2E16AE552E16EE552E7CFC8
:10064000D9FF1200D9CFE6FFE1CFD9FF020EE12694
:10065000DF6AFB0EDBCF10F0FC0EDBCF11F0FD0EDE
:10066000DBCF12F0FE0EDBCF13F010501110121082
:10067000131005E1300EE66E20DFE552F4D0D950BC
:10068000FB0FE96EFF0EDA20EA6ED890030EEB50F6
:10069000000A08E6000EEE5C000EEE58000EEE5862
:1006A000000EEE5815E22D0EE66E07DFE552D9502A
:1006B000FB0FE96EFF0EDA20EA6E000EEE6CEF1E05
:1006C000EE22EF1EEE22EF1EEF22ED52ED52ED5222
:1006D000DE52070EDD6E010EDBCF10F0000EE76E6E
:1006E0001018E8AE02D0103403D0E750D880105470
:1006F00001E3B9D0010EDB04146E156A14BE15684F
:1007000014C0E6FF15C0E6FF0A0EE66EE66A29DFB2
:10071000E552E552E552E55206C010F007C011F06F
:1007200008C012F009C013F006C00BF007C00CF0AF
:1007300008C00DF009C00EF0FB0EDBCF06F0FC0E7A
:10074000DBCF07F0FD0EDBCF08F0FE0EDBCF09F0AC
:10075000C2EC11F0065007100810091041E0010E1C
:10076000DF6EDB04186E196A18BE196818C0E6FF40
:1007700019C0E6FF0A0EE66EE66AF3DEE552E552C0
:10078000E552E55206C014F007C015F008C016F097
:1007900009C017F006C00BF007C00CF008C00DF040
:1007A00009C00EF0FB0EDBCF06F0FC0EDBCF07F02E
:1007B000FD0EDBCF08F0FE0EDBCF09F0C2EC11F02E
:1007C00006C010F007C011F008C012F009C013F005
:1007D000300E1026000E112212221322105003D0C8
:1007E000DF5004E0300EE66E68DEE552010EDB04F9
:1007F000146E156A14BE156814C0E6FF15C0E6FF36
:100800000A0EE66EE66AADDEE552E552E552E552C5
:1008100006C010F007C011F008C012F009C013F0B4
:10082000D950FB0FE96EFF0EDA20EA6E06C00BF01E
:1008300007C00CF008C00DF009C00EF0EECF06F0B6
:10084000EECF07F0EECF08F0EFCF09F0C2EC11F0D9
:1008500005C0EDFF04C0EDFF03C0EDFF02C0EFFFD8
:10086000010EDB0638D7020EE15C02E2E16AE552D6
:10087000E16EE552E7CFD9FF1200D9CFE6FFE1CF15
:10088000D9FFFD0EDBCFE6FFFE0EDBCFE6FF42DE3B
:10089000E552E552D950F90FE96EFF0EDA20EA6E03
:1008A000EECFE6FFEECFE6FFEECFE6FFEFCFE6FFBF
:1008B000C9DEE552E552E552E552E552E7CFD9FFF0
:1008C0001200D9CFE6FFE1CFD9FFFD0EDBCFE6FF67
:1008D000FE0EDBCFE6FF1EDEE552E552FB0EDBCF60
:1008E000E6FFFC0EDBCFE6FFF5DDE552E552E55213
:1008F000E7CFD9FF1200D9CFE6FFE1CFD9FFFAC188
:1009000010F0FBC111F0040ED89010361136E80635
:10091000FBE1DA0E1026010E112210500101FC2518
:10092000E96E1150FD21EA6EFE0EDBCFEFFFFC2BCE
:10093000000EFD23E552E7CFD9FF1200D9CFE6FF25
:10094000E1CFD9FFE652DF6ADFCF10F0100EE76E7D
:100950001018E8AE02D0E73402D0E750105C18E27D
:10096000DFCFE9FFEA6AE9BEEA68DA0EE926010E9E
:10097000EA22200EEF6EDFCFE9FFEA6AE9BEEA68FD
:10098000EA0EE926010EEA22200EEF6EDF2ADCD7FE
:10099000E552E552E7CFD9FF1200D9CFE6FFE1CF0C
:1009A000D9FFE6520101D951030A52E0010A36E0AB
:1009B000030A1AE0010A67E1E66AE66AABDDE5527E
:1009C000E552DF6A080EDF5C0CE2DF50EA6ADA0FFC
:1009D000E96E010EEA22EF50E66E6FDDE552DF2A86
:1009E000F1D70101010E32D0080EE66EE66A92DD03
:1009F000E552E552DF6A080EDF5C0DE2080EDF24E7
:100A0000EA6ADA0FE96E010EEA22EF50E66E55DD72
:100A1000E552DF2AF0D70101020E18D0E66A010E76
:100A2000E66E78DDE552E552DF6A080EDF5C0CE227
:100A3000DF50EA6AEA0FE96E010EEA22EF50E66E35
:100A40003CDDE552DF2AF1D70101030ED96F1CD03E
:100A5000080EE66E010EE66E5DDDE552E552DF6AD8
:100A6000080EDF5C0DE2080EDF24EA6AEA0FE96E89
:100A7000010EEA22EF50E66E20DDE552DF2AF0D7C4
:100A80000101D96B01D0D96BE552E552E7CFD9FF0F
:100A90001200D9CFE6FFE1CFD9FFE6520101D951CB
:100AA000010A1BE0010A32E1E66AE66A33DDE5523B
:100AB000E552DF6A100EDF5C0CE2DF50EA6ADA0F03
:100AC000E96E010EEA22EF50E66EF7DCE552DF2A0E
:100AD000F1D70101010ED96F1AD0E66A010EE66E58
:100AE00019DDE552E552DF6A100EDF5C0CE2DF50E3
:100AF000EA6AEA0FE96E010EEA22EF50E66EDDDCEB
:100B0000E552DF2AF1D70101D96B01D0D96BE5524B
:100B1000E552E7CFD9FF1200D9CFE6FFE1CFD9FFE9
:100B2000E652E66AE66AF6DCE552E552DF6A100E46
:100B3000DF5C0CE2DF50EA6ADA0FE96E010EEA22AE
:100B4000EF50E66EBADCE552DF2AF1D7E66A010E15
:100B5000E66EE0DCE552E552DF6A100EDF5C0CE287
:100B6000DF50EA6AEA0FE96E010EEA22EF50E66E04
:100B7000A4DCE552DF2AF1D7E552E552E7CFD9FFF1
:100B80001200D9CFE6FFE1CFD9FFFE0EDB50010BFB
:100B90000101FA6FFB6BFD0EDB500F0BFC6FFD6B61
:100BA000FAC110F0FBC111F0040ED89010361136C6
:100BB000E806FBE1DA0E1026010E112210500101A9
:100BC000FC25E96E1150FD21EA6EFC0EDBCFEFFF34
:100BD000E552E7CFD9FF1200D9CFE6FFE1CFD9FF29
:100BE000020EE126DF6AFE0EDB50010B0101FA6FF7
:100BF000FB6BFD0EDB500F0BFC6FFD6BF90EDBCFBB
:100C000010F0FA0EDBCF11F0FB0EDBCF12F0FC0E72
:100C1000DBCF13F0105011101210131005E1300E3D
:100C2000E66E69DEE552F5D0D950F90FE96EFF0E98
:100C3000DA20EA6ED890030EEB50000A08E6000EA8
:100C4000EE5C000EEE58000EEE58000EEE5815E267
:100C50002D0EE66E50DEE552D950F90FE96EFF0E0B
:100C6000DA20EA6E000EEE6CEF1EEE22EF1EEE2290
:100C7000EF1EEF22ED52ED52ED52DE52070EDD6E09
:100C8000010EDBCF10F0000EE76E1018E8AE02D0B8
:100C9000103403D0E750D880105401E3BAD0010ECD
:100CA000DB04146E156A14BE156814C0E6FF15C087
:100CB000E6FF0A0EE66EE66A54DCE552E552E552BE
:100CC000E55206C010F007C011F008C012F009C0CC
:100CD00013F006C00BF007C00CF008C00DF009C0FF
:100CE0000EF0F90EDBCF06F0FA0EDBCF07F0FB0EAD
:100CF000DBCF08F0FC0EDBCF09F0C2EC11F00650A0
:100D000007100810091041E0010EDF6EDB04186EB9
:100D1000196A18BE196818C0E6FF19C0E6FF0A0E66
:100D2000E66EE66A1EDCE552E552E552E55206C083
:100D300014F007C015F008C016F009C017F006C07F
:100D40000BF007C00CF008C00DF009C00EF0F90E52
:100D5000DBCF06F0FA0EDBCF07F0FB0EDBCF08F09F
:100D6000FC0EDBCF09F0C2EC11F006C010F007C09A
:100D700011F008C012F009C013F0300E1026000E5A
:100D8000112212221322105003D0DF5004E0300E43
:100D9000E66EB1DDE552010EDB04146E156A14BE79
:100DA000156814C0E6FF15C0E6FF0A0EE66EE66A97
:100DB000B1EC02F0E552E552E552E55206C010F002
:100DC00007C011F008C012F009C013F0D950F90F94
:100DD000E96EFF0EDA20EA6E06C00BF007C00CF0D9
:100DE00008C00DF009C00EF0EECF06F0EECF07F010
:100DF000EECF08F0EFCF09F0C2EC11F005C0EDFF27
:100E000004C0EDFF03C0EDFF02C0EFFF010EDB06E3
:100E100037D7020EE15C02E2E16AE552E16EE5528B
:100E2000E7CFD9FF1200D9CFE6FFE1CFD9FFFE0E01
:100E3000DB50010B0101FA6FFB6BFD0EDB500F0B5A
:100E4000FC6FFD6BFB0EDBCFF6FFFC0EDBCFF7FF7D
:100E50000800F5500FE0FB0EDBCFF6FFDB2AFC0E9F
:100E6000DBCFF7FF01E3DB2A0800F550E66E43DD38
:0C0E7000E552E8D7E552E7CFD9FF1200A9
:040E7C00D9CFE6FFE5
:100E8000E1CFD9FF020EE126DE6ADD6A4ED800010D
:100E9000B351FDE0B36B38EC0EF099D9CDEC04F012
:100EA000F6D7D9CFE6FFE1CFD9FF040EE126DE6AFF
:100EB000DD6ADECF10F0DDCF11F0FD0EDBCF12F0DA
:100EC000FE0EDBCF13F011501318E8AE02D013342E
:100ED00004D01250105C135011581DE2020EDB6A50
:100EE000030EDB6A020EDBCF10F0030EDBCF11F036
:100EF000D890115004E6EE0E105C000E115806E278
:100F0000020EDB2A030EEEE3DB2AECD7DF2A010E0A
:100F1000D0E3DB2ACED7040EE15C02E2E16AE552BF
:100F2000E16EE552E7CFD9FF1200936A956AFEECB5
:100F300000F09EEC04F0BEEC0FF0E80EE66E030E3F
:100F4000E66EAFDFE552E552570EE66E120EE66E24
:100F5000A6EC0BF0E552E552AE0EE66E240EE66E00
:100F600048EC0CF0E552E552660EE66EB70EE66E02
:100F700009EC0DF0E552E552020EE66EE66AE4EC8D
:100F80000DF0E552E5520A0EE66EE66AF6EC0DF05B
:100F9000E552E552320EE66EE66A15EC0EF0E552C9
:100FA000E55234EF0EF0D9CFE6FFE1CFD9FFFE0EC8
:100FB000DBCF11F0800E11141AE1FD0EDBCF12F021
:100FC000FE0EDBCF13F0133404E212500708000EBC
:100FD00013540DE3FD0EDBCFE9FFFE0EDBCFEAFF7E
:100FE000000EE926010EEA22EF508310836EE552CF
:100FF000E7CFD9FF1200D9CFE6FFE1CFD9FFFE0E30
:10100000DBCF11F0800E11141AE1FD0EDBCF12F0D0
:10101000FE0EDBCF13F0133404E212500708000E6B
:1010200013540DE3FD0EDBCFE9FFFE0EDBCFEAFF2D
:10103000000EE926010EEA22EF1C8314836EE552AE
:10104000E7CFD9FF1200D9CFE6FFE1CFD9FFFD0EE0
:10105000DBCFE9FFFE0EDBCFEAFF080EE926010E2B
:10106000EA22EF0415E1FD0EDBCFE6FFFE0EDBCF3B
:10107000E6FFC1DFE552E552FD0EDBCFE9FFFE0ED4
:10108000DBCFEAFF080EE926010EEA22EF6A15D04F
:10109000FD0EDBCFE6FFFE0EDBCFE6FF84DFE55281
:1010A000E552FD0EDBCFE9FFFE0EDBCFEAFF080EB7
:1010B000E926010EEA22010EEF6EE552E7CFD9FFD5
:1010C0001200D9CFE6FFE1CFD9FF020EE126DE6A9A
:1010D000DD6ADECF10F0DDCF11F0113404E21050E4
:1010E0000708000E115421E3DECFE6FFDDCFE6FF57
:1010F0005ADFE552E552F40EE66E010EE66ED1DEE1
:10110000E552E552DECFE6FFDDCFE6FF74DFE552C4
:10111000E552F40EE66E010EE66EC3DEE552E552D0
:10112000DF2A010ED6E3DB2AD4D7020EE15C02E20D
:10113000E16AE552E16EE552E7CFD9FF1200D9CF5F
:10114000E6FFE1CFD9FF020EE126DE6ADD6ADE6A44
:10115000DD6ADECF10F0DDCF11F001019651105C99
:101160009751115828E2DECFE9FFDDCFEAFF030EE9
:10117000D890E936EA36E806FBE13E0EE926010E94
:10118000EA22EECF10F0EFCF11F0FD0EDB50101879
:101190000DE1FE0EDB50111809E1DECF10F0DDCFBE
:1011A00011F010C0F3FF11C0F4FF07D0DF2A010EC9
:1011B000D0E3DB2ACED7F368F468020EE15C02E2EA
:1011C000E16AE552E16EE552E7CFD9FF1200010175
:1011D0009051040A01E175D1070A01E15FD1010ACA
:1011E00001E151D1030A01E1E5D0060A01E1CFD0C6
:1011F000010A01E1B5D0030A29E0050A01E0120065
:10120000010EE66E230EE66EE66AE66A13EC07F060
:10121000E552E552E552E552F00EE66E220EE66E1C
:10122000E66A010EE66E13EC07F0E552E552E55270
:10123000E552D9D9C1D9000901E156D10101916B1B
:10124000936B8E6B8F6B926B050E26D1932BDF0EFB
:10125000E66E220EE66EE66AE66A13EC07F0E552E9
:10126000E552E552E5527FD9000944E0410E000104
:10127000D85D21E10101925100083AE20A0E0D6E9B
:101280000E6A8EC108F08FC109F003EC12F008C09D
:101290008EF109C08FF101019207DB0EE66E220E7E
:1012A000E66EE66A010EE66E13EC07F0E552E552D3
:1012B000E552E5521DD0D851090805E20101070E9B
:1012C000906F936B15D08EC110F08FC111F00A0E84
:1012D0001102F3CF11F01002F3CF10F0F4501126E9
:1012E000D8510101F3248E6F000E11208F6F922BC5
:1012F0000101936B92C1E6FF8EC1E6FF8FC1E6FF4D
:10130000000EE66EE66A010EE66EE66A73D9106EAE
:10131000070EE15E1050CD0EE66E220EE66E030E55
:10132000E66E010EE66E13EC07F0E552E552E5526B
:10133000E552030E0101925D03E23ED9000905E08A
:101340000101916B936B060E906F3ED9000902E08C
:101350000101906B640E0101935D01E2C5D0C2D022
:10136000936B8EC1E6FF8FC1E6FFE9DEE552E552E1
:10137000F3CF94F1F4CF95F10101F31C01E1951D38
:1013800004E0010E906F9EEF04F0070E85D0932BC2
:10139000BC0EE66E220EE66EE66AE66A13EC07F015
:1013A000E552E552E552E552280E0101935D01E256
:1013B0009BD098D0AF0EE66E220EE66EE66AE66A25
:1013C00013EC07F0E552E552E552E55294C110F0F6
:1013D00095C111F0126A136A94C1E6FF95C1E6FF48
:1013E00012C0E6FF13C0E6FF0D0EE66EE66AECECF7
:1013F00005F0146E060EE15E14500101932BB3D874
:10140000000932E0410E0001D85D14E10101915163
:10141000000828E29107AD0EE66E220EE66E91C13D
:10142000E6FF010EE66E13EC07F0E552E552E552D9
:10143000E55218D0AB0EE66E220EE66E91C1E6FFC5
:10144000010EE66E13EC07F0E552E552E552E55267
:1014500001019151EA6AD20FE96E000EEA22D8C06A
:10146000EFFF912B0101936B060E0101915D02E3E9
:10147000020E906F640E935D01E3906BA5D8000996
:1014800033E001012FD0936B30D8000903E0010154
:10149000030E02D00101040E906F1200932B9A0EDE
:1014A000E66E220EE66EE66AE66A13EC07F0E55297
:1014B000E552E552E55290D8640E0101935D14E3C4
:1014C00011D0932B890EE66E220EE66EE66AE66A6E
:1014D00013EC07F0E552E552E552E552280E010102
:1014E000935D02E3906B12001200D9CFE6FFE1CFCB
:1014F000D9FF020EE126DF6A060EDF5C27E294C107
:10150000E9FF95C1EAFF030ED890E936EA36E8060E
:10151000FBE13E0EE926010EEA22020EE926000E4C
:10152000EA22DF50E924E96E000EEA20EA6EEFCFEE
:1015300010F0DF50EA6AD20FE96E000EEA22EF5097
:10154000105C02E0000E03D0DF2AD6D7010E106E29
:10155000020EE15C02E2E16AE552E16E1050E552F2
:10156000E7CFD9FF1200D9CFE6FFE1CFD9FFE6528E
:10157000DF6ADF500F081AE3EA6ADF34FE0BEA364F
:10158000E96E800EE926000EEA22010EEE180CE14B
:10159000ED500AE1DF50EA6A100FE96E010EEA220F
:1015A000EFCFD8F0010E03D0DF2AE3D7000EE552CB
:1015B000E552E7CFD9FF12000001010E9C1903E1AB
:1015C0009D5101E1010C000C0001010E981903E18D
:1015D000995101E1010C000C000EE66EE66AE3DCB5
:1015E000E552E5521200000EE66EE66A04DDE552B1
:1015F000E5521200D9CFE6FFE1CFD9FFF90EDBCFDC
:1016000010F0FA0EDBCF11F00A0E105C000E11582C
:101610002CE2F80EDB50030828E1860EE66E220E5F
:10162000E66EFB0EDBCFE6FFFD0EDBCFE6FF13EC35
:1016300007F0E552E552E552E552F90EDBCF10F026
:10164000FA0EDBCF11F0126A136A10C0E6FF11C068
:10165000E6FF12C0E6FF13C0E6FFFB0EDBCF14F07F
:10166000FC0EDBCF15F0020E45D0F90EDBCF10F0EB
:10167000FA0EDBCF11F00A0E105C000E115804E2D6
:10168000F80EDB5002080FE0F90EDBCF10F0FA0E77
:10169000DBCF11F0640E105C000E115837E2F80E2B
:1016A000DB50030833E1840EE66E220EE66EFB0E7D
:1016B000DBCFE6FFFD0EDBCFE6FF13EC07F0E552D4
:1016C000E552E552E552F90EDBCF10F0FA0EDBCF12
:1016D00011F0126A136A10C0E6FF11C0E6FF12C0D3
:1016E000E6FF13C0E6FFFB0EDBCF14F0FC0EDBCFF2
:1016F00015F0010E1424E66EFD0EDBCFE6FFECECD8
:1017000005F0166E060EE15E16501CD0F90EDBCF0A
:1017100010F0FA0EDBCF11F0126A136A10C0E6FF68
:1017200011C0E6FF12C0E6FF13C0E6FFFB0EDBCFE1
:10173000E6FFFD0EDBCFE6FFECEC05F0146E060EC7
:0C174000E15E1450E552E7CFD9FF120023
:04174C00D9CFE6FF0C
:10175000E1CFD9FFD59EFD0EDBCFA8F0FE0EDBCF8B
:10176000A9F0D59C13681468156AA8C016F0A9C022
:1017700017F0186A1650135C106E17501458116E3B
:1017800018501558126E0C6A010E0D6E0E6A10C0BC
:1017900007F011C008F012C009F0C6EC10F00350B9
:1017A000D66E13681468156AA8C016F0A9C017F0A1
:1017B000186A1650135C106E17501458116E18509A
:1017C0001558126E0C6A010E0D6E0E6A10C007F0ED
:1017D00011C008F012C009F0C6EC10F007C010F0FC
:1017E00008C011F009C012F00750D76ED59AD586FF
:1017F000F28AF294F184D58EE552E7CFD9FF120038
:10180000D59E120013681468156AA8C016F0A9C006
:1018100017F0186A1650135C106E17501458116E9A
:1018200018501558126E0C6A010E0D6E0E6A10C01B
:1018300007F011C008F012C009F0C6EC10F0035018
:10184000D66E13681468156AA8C016F0A9C017F000
:10185000186A1650135C106E17501458116E1850F9
:101860001558126E0C6A010E0D6E0E6A10C007F04C
:1018700011C008F012C009F0C6EC10F007C010F05B
:1018800008C011F009C012F00750D76ED58E1200B3
:10189000D9CFE6FFE1CFD9FFCD90FD0EDBCFAAF087
:1018A000FE0EDBCFABF013681468156AAAC016F001
:1018B000ABC017F0186A1650135C106E175014580E
:1018C000116E18501558126E0C6A010E0D6E0E6ACC
:1018D00010C007F011C008F012C009F0C6EC10F0FB
:1018E0000750CF6E13681468156AAAC016F0ABC013
:1018F00017F0186A1650135C106E17501458116EBA
:1019000018501558126E0C6A010E0D6E0E6A10C03A
:1019100007F011C008F012C009F0C6EC10F003C0C7
:1019200010F004C011F005C012F00350CE6E9D807F
:101930009E909F90CD8ECD8CCD98CD9ACD96CD9208
:10194000CD80E552E7CFD9FF120013681468156AFD
:10195000AAC016F0ABC017F0186A1650135C106ED0
:1019600017501458116E18501558126E0C6A010E4B
:101970000D6E0E6A10C007F011C008F012C009F019
:10198000C6EC10F00750CF6E13681468156AAAC031
:1019900016F0ABC017F0186A1650135C106E175093
:1019A0001458116E18501558126E0C6A010E0D6EF7
:1019B0000E6A10C007F011C008F012C009F0C6ECA2
:1019C00010F003C010F004C011F005C012F0035075
:1019D000CE6ECD801200CD901200D9CFE6FFE1CFC0
:1019E000D9FFCA94CC6AFE0EDB500001AC6FAD6B20
:1019F000CB6E9D829E929F92CA90CA92CA84E552F3
:101A0000E7CFD9FF1200ACC0CBFFCA841200CA9442
:101A10001200D9CFE6FFE1CFD9FFB190FD0EDBCFA9
:101A2000AEF0FE0EDBCFAFF013681468156AAEC0DF
:101A300016F0AFC017F0186A1650135C106E1750EE
:101A40001458116E18501558126E0C6A010E0D6E56
:101A50000E6A10C007F011C008F012C009F0C6EC01
:101A600010F00750B36E13681468156AAEC016F014
:101A7000AFC017F0186A1650135C106E1750145848
:101A8000116E18501558126E0C6A010E0D6E0E6A0A
:101A900010C007F011C008F012C009F0C6EC10F039
:101AA00003C010F004C011F005C012F00350B26E74
:101AB000A082A192A292B18EB198B19AB192B18056
:101AC000E552E7CFD9FF120013681468156AAEC05B
:101AD00016F0AFC017F0186A1650135C106E17504E
:101AE0001458116E18501558126E0C6A010E0D6EB6
:101AF0000E6A10C007F011C008F012C009F0C6EC61
:101B000010F00350B26E13681468156AAEC016F078
:101B1000AFC017F0186A1650135C106E17501458A7
:101B2000116E18501558126E0C6A010E0D6E0E6A69
:101B300010C007F011C008F012C009F0C6EC10F098
:101B400007C010F008C011F009C012F00750B36EC2
:101B5000B1801200B19012000001B82B000EB92321
:101B6000C051B85DC151B95904E3B86BB96B010EEE
:101B7000B06F12000001BA2B000EBB23C251BA5D38
:101B8000C351BB5904E3BA6BBB6B010EB16F1200BA
:101B90000001BC2B000EBD23C451BC5DC551BD5915
:101BA00004E3BC6BBD6B010EB26F12000001BE2BD3
:101BB000000EBF23C651BE5DC751BF5904E3BE6BC3
:101BC000BF6B010EB36F1200D9CFE6FFE1CFD9FF93
:101BD000FD0EDBCFC0F0FE0EDBCFC1F00001B86B15
:101BE000B96BB06BE552E7CFD9FF1200D9CFE6FF52
:101BF000E1CFD9FFFD0EDBCFC2F0FE0EDBCFC3F08D
:101C0000050E0D6E0E6AC2C008F0C3C009F0A0EC4C
:101C100010F008C0C2F009C0C3F00001BA6BBB6B82
:101C2000B16BE552E7CFD9FF1200D9CFE6FFE1CF84
:101C3000D9FFFD0EDBCFC6F0FE0EDBCFC7F00A0EDC
:101C40000D6E0E6AC6C008F0C7C009F0A0EC10F017
:101C500008C0C6F009C0C7F00001BE6BBF6BB36B14
:081C6000E552E7CFD9FF1200A5
:081C68000F0E946E8268120059
:101C7000D9CFE6FFE1CFD9FF040EE126DE6ADD6AA7
:101C8000DECF10F0DDCF11F0D890115004E6040E35
:101C9000105C000E115801E390D0DECFE9FFDDCFDC
:101CA000EAFFA00EE926000EEA22EF1C826E020E69
:101CB000DB6A030EDB6A020EDBCF10F0030EDBCF14
:101CC00011F0D890115004E6040E105C000E11586B
:101CD0006EE2020EDBCFE9FF030EDBCFEAFFA40EBC
:101CE000E926000EEA22EF5082143FE1DECF14F025
:101CF000DDCF15F0D89014361536D8901436153639
:101D0000020EDB501424E96E030EDB501520EA6E40
:101D1000D890E936EA36800EE926000EEA22EECFA8
:101D200012F0EFCF13F0010E1226000E1322DECFB9
:101D300010F0DDCF11F0D89010361136D890103653
:101D40001136020EDB501024E96E030EDB50112019
:101D5000EA6ED890E936EA36800EE926000EEA22CD
:101D600012C0EEFF13C0EDFF1BD0DECF10F0DDCFB1
:101D700011F0D89010361136D89010361136020E68
:101D8000DB501024E96E030EDB501120EA6ED89070
:101D9000E936EA36800EE926000EEA22EE6AED6A9E
:101DA000020EDB2A030E01E286D7DB2A84D7DF2A64
:101DB000010E01E265D7DB2A63D7040EE15C02E283
:101DC000E16AE552E16EE552E7CFD9FF1200D9CFC3
:101DD000E6FFE1CFD9FF040EE126DE6ADD6ADECF41
:101DE00010F0DDCF11F0FD0EDBCF12F0FE0EDBCFD9
:101DF00013F011501318E8AE02D0133404D012506F
:101E0000105C135011581DE2020EDB6A030EDB6AF0
:101E1000020EDBCF10F0030EDBCF11F0D890115083
:101E200004E6EE0E105C000E115806E2020EDB2AEC
:101E3000030EEEE3DB2AECD7DF2A010ED0E3DB2A28
:101E4000CED7040EE15C02E2E16AE552E16EE552B2
:101E5000E7CFD9FF1200D9CFE6FFE1CFD9FF040EBB
:101E6000E126DE6ADD6ADECF10F0DDCF11F0D8901A
:101E7000115004E6040E105C000E115875E2DECF1E
:101E8000E9FFDDCFEAFFA00EE926000EEA22EF1CF3
:101E9000826E020EDB6A030EDB6A020EDBCF10F0ED
:101EA000030EDBCF11F0D890115004E6040E105C45
:101EB000000E11584AE2DECF10F0DDCF11F0D890BD
:101EC00010361136D89010361136020EDB50102421
:101ED000E96E030EDB501120EA6ED890E936EA363F
:101EE000800EE926000EEA22EE6AED6A020EDBCFD2
:101EF000E9FF030EDBCFEAFFA40EE926000EEA227B
:101F0000EF5082141CE1DECF10F0DDCF11F0D8903D
:101F100010361136D89010361136020EDB501024D0
:101F2000E96E030EDB501120EA6ED890E936EA36EE
:101F3000800EE926000EEA22010EEE6EED6A020E18
:101F4000DB2A030EAAE3DB2AA8D78250816EE80EB3
:101F5000E66E030EE66E3BDFE552E552DF2A010E28
:101F600001E281D7DB2A7FD7040EE15C02E2E16A5D
:0C1F7000E552E16EE552E7CFD9FF120008
:041F7C00F28ED08E83
:101F8000F28C1200F19CF292F2881200D8CFE4FF9A
:101F9000E0CFE4FFE46EDACFE4FFE2CFDAFFE9CF8F
:101FA000E4FFEACFE4FFF6CFE4FFF7CFE4FFF5CF9D
:101FB000E4FFF3CFE4FFF4CFE4FFFACFE4FF00EE59
:101FC00000F0100EE80403E3EECFE4FFFBD700EED1
:101FD00010F00A0EE80403E3EECFE4FFFBD7E6526D
:101FE000F2A407D000EC0CF0F29402EC0CF0ACEC94
:101FF0000DF09EA007D0EBEC0CF09E90A5EC0CF041
:10200000BAEC0DF0A1A207D0AAEC0DF0A19264ECFD
:102010000DF0D6EC0DF0F2B2F2929EBA9E9AE55215
:1020200000EE19F00A0EE80403E3E5CFEDFFFBD75D
:1020300000EE0FF0100EE80403E3E5CFEDFFFBD751
:10204000E5CFFAFFE5CFF4FFE5CFF3FFE5CFF5FFEE
:10205000E5CFF7FFE5CFF6FFE5CFEAFFE5CFE9FFF4
:10206000E5CFDAFFE550E5CFE0FFE5CFD8FF100080
:10207000DACFE4FFE2CFDAFFE9CFE4FFEACFE4FF13
:10208000F6CFE4FFF7CFE4FFF5CFE4FFF3CFE4FFB3
:10209000F4CFE4FFFACFE4FF00EE00F0100EE80406
:1020A00003E3EECFE4FFFBD700EE10F00A0EE804E6
:1020B00003E3EECFE4FFFBD7E652F2A407D000EC37
:1020C0000CF0F29402EC0CF0ACEC0DF09EA007D0FA
:1020D000EBEC0CF09E90A5EC0CF0BAEC0DF0A1A28C
:1020E00007D0AAEC0DF0A19264EC0DF0D6EC0DF047
:1020F000F2B2F2929EBA9E9AE55200EE19F00A0EE2
:10210000E80403E3E5CFEDFFFBD700EE0FF0100E80
:10211000E80403E3E5CFEDFFFBD7E5CFFAFFE5CF1A
:10212000F4FFE5CFF3FFE5CFF5FFE5CFF7FFE5CF10
:10213000F6FFE5CFEAFFE5CFE9FFE5CFDAFF1100D3
:10214000006A0EAEA9EF10F00D6C0E1EE86A0E22AA
:10215000001E09AEB1EF10F0086C091EE86A0922F2
:10216000001E03EC12F009BEC1EF10F000AE000C2F
:10217000086C091EE86A0922046C051EE86A05223B
:10218000000C00BEB8EF10F00188FF0C006A0EAE24
:10219000D1EF10F00C6C0D1E0E1EE86A0D220E22FF
:1021A000001E09AEDBEF10F0076C081E091EE86A7E
:1021B00008220922001EE6EC11F009BEEEEF10F035
:1021C00000AE000C076C081E091EE86A08220922EE
:1021D000036C041E051E04220522000C00BEE2EF63
:0621E00010F00188FF0C65
:0A21E6001E0EF66E000EF76E000EDE
:1021F000F86E00010900F550CD6F0900F550CE6F63
:1022000003E1CD6701D03DD00900F550C86F09004A
:10221000F550C96F0900F550CA6F09000900F55063
:10222000E96E0900F550EA6E090009000900F55051
:10223000CB6F0900F550CC6F09000900F6CFCFF045
:10224000F7CFD0F0F8CFD1F0C8C0F6FFC9C0F7FF84
:10225000CAC0F8FF0001CB5302E1CC5307E00900EC
:10226000F550EE6ECB07F8E2CC07F9D7CFC0F6FFFA
:10227000D0C0F7FFD1C0F8FF0001CD07000ECE5B44
:04228000BFD71200B2
:0C228400300030300050415353574F528F
:10229000442057524F4E472020004F50454E494E44
:1022A0004720444F4F5220202020002A0020005079
:1022B00041535320464F522049442000496E7661D5
:1022C0006C69642049442020202020200020202008
:1022D0002020202020202020202000202020004519
:1022E0004E54455220494420202020202020200008
:1022F00020202020202020202020202020202020DE
:10230000005052455353202320464F5220504153F2
:042310005300460030
:0C23140006500B02F3CF02F0F4CF03F0F0
:102320000C02F3500326000EF420046E06500D023A
:10233000F3500426000EF420056E06500E02F350F2
:10234000052607500B02F3500326F4500422000E1A
:10235000052207500C02F3500426F45005220750C2
:102360000D02F350052608500B02F3500426F450DA
:10237000052208500C02F350052609500B02F350B9
:04238000052612001C
:0C238400056A046A036A026A200EE76E14
:10239000D890063607360836093602360336043634
:1023A00005360B50025C0C5003580D5004580E506B
:1023B000055809E30B50025E0C50035A0D50045AA5
:0C23C0000E50055A062AE72EE4D7120042
:0423CC00056A046A30
:1023D000036A180EE76ED8900736083609360336BA
:1023E000043605360C50035C0D5004580E50055849
:1023F00007E30C50035E0D50045A0E50055A072A8D
:06240000E72EEAD71200EE
:0A240600056A046A100EE76ED89014
:1024100008360936043605360D50045C0E50055852
:1024200005E30D50045E0E50055A082AE72EF0D73A
:02243000120098
:0E243200800EF36E00EE00F00F0E01D81200C7
:10244000EA6002D0EE6AFCD7F350E9601200EE6A4F
:02245000FCD7B7
:0E2452001EEE00F02EEE00F0F86A019CF3EC96
:0E24600010F003EC00F03EEC07F0FBD712008A
:02246E0000006C
:10247000000000000000000000000000000000005C
:0E24800000000000000001000100010001004A
:02248E00010249
:10249000040810204080000000000000000001023D
:1024A000034104050642070809432A004544010286
:1024B00003040506020708090708030303030303CF
:1024C00004080608020105414243441200000102CB
:1024D00003040506010002070809070802000303B8
:1024E0000303030303000408060802010400054176
:1024F0004243441200000000000000000000000001
:1025000000000000000000000000000000000000CB
:1025100000000000000000000000000000000000BB
:0725200000000000050000AF
:092527000000000000000000109B
:102530001010101010101018181818181818181C4F
:102540001C1C1C1C1C1C1C1E1E1E1E1E1E1E1E1FB8
:102550001F1F1F1F1F1F1F000000000000000000A2
:10256000000000000000000000000000000000006B
:10257000000000000000000000000000000000005B
:08258000000000000000000053
:0825880000000000000000004B
:10259000000000000000000000000000000000003B
:1025A000000000000000000010204080010204082C
:020000040030CA
:0100010002FC
:0100020003FA
:010003001EDE
:010005008179
:010006008178
:010008000FE8
:01000900C036
:01000A000FE6
:01000B00E014
:01000C000FE4
:01000D0040B2
:00000001FF
