:020000040000FA
:0600000098EF28F0120049
:020006001200E6
:060008005BEF26F0120080
:02000E000000F0
:020010000000EE
:06001800E9EF25F01200E3
:02001E000600DA
:10002000D2520000CD01000029000000B6520000AD
:10003000E10000001C0000000E000000450F000061
:100040000400000055520000800000006100000024
:100050008851000000010000CD0000006851000040
:08006000000F00002000000069
:08006800D9CFE6FFE1CFD9FF7B
:10007000020EE126DE6ADD6A57D864EC10F0E80E65
:10008000E66E030EE66E0CD8E552E5520F010B51F9
:10009000FDE00B6B46EC21F09ED934EC19F0F6D75D
:1000A000D9CFE6FFE1CFD9FF040EE126DE6ADD6A93
:1000B000DECF10F0DDCF11F0FD0EDBCF12F0FE0E23
:1000C000DBCF13F011501318E8AE02D0133404D074
:1000D0001250105C135011581DE2020EDB6A030E21
:1000E000DB6A020EDBCF10F0030EDBCF11F0D890ED
:1000F000115004E6EE0E105C000E115806E2020EDE
:10010000DB2A030EEEE3DB2AECD7DF2A010ED0E375
:10011000DB2ACED7040EE15C02E2E16AE552E16E31
:10012000E552E7CFD9FF1200936A956A65EC15F0A6
:1001300005EC19F0E1EC25F0E80EE66E030EE66E34
:10014000AFDFE552E552570EE66E120EE66EAFECEB
:100150001EF0E552E552AE0EE66E240EE66E51EC50
:100160001FF0E552E552660EE66EB70EE66E12EC33
:1001700020F0E552E552020EE66EE66AEDEC20F064
:10018000E552E5520A0EE66EE66AFFEC20F0E55213
:10019000E552320EE66EE66A1EEC21F0E552E552BB
:1001A0003DEC21F0DBEF23F0D9CFE6FFE1CFD9FF23
:1001B000FE0EDBCF11F0800E11141AE1FD0EDBCF25
:1001C00012F0FE0EDBCF13F0133404E212500708D6
:1001D000000E13540DE3FD0EDBCFE9FFFE0EDBCF67
:1001E000EAFF000EE926010EEA22EF508310836E2B
:1001F000E552E7CFD9FF1200D9CFE6FFE1CFD9FF13
:10020000FE0EDBCF11F0800E11141AE1FD0EDBCFD4
:1002100012F0FE0EDBCF13F0133404E21250070885
:10022000000E13540DE3FD0EDBCFE9FFFE0EDBCF16
:10023000EAFF000EE926010EEA22EF1C8314836E0A
:10024000E552E7CFD9FF1200D9CFE6FFE1CFD9FFC2
:10025000FD0EDBCFE9FFFE0EDBCFEAFF080EE9263D
:10026000010EEA22EF0415E1FD0EDBCFE6FFFE0EE4
:10027000DBCFE6FFC1DFE552E552FD0EDBCFE9FF44
:10028000FE0EDBCFEAFF080EE926010EEA22EF6A36
:1002900015D0FD0EDBCFE6FFFE0EDBCFE6FF84DFE1
:1002A000E552E552FD0EDBCFE9FFFE0EDBCFEAFFA4
:1002B000080EE926010EEA22010EEF6EE552E7CFA5
:1002C000D9FF1200D9CFE6FFE1CFD9FF020EE12618
:1002D000DE6ADD6ADECF10F0DDCF11F0113404E20A
:1002E00010500708000E115421E3DECFE6FFDDCFEA
:1002F000E6FF5ADFE552E552F40EE66E010EE66EB9
:10030000CFDEE552E552DECFE6FFDDCFE6FF74DF5C
:10031000E552E552F40EE66E010EE66EC1DEE552E0
:10032000E552DF2A010ED6E3DB2AD4D7020EE15CC8
:1003300002E2E16AE552E16EE552E7CFD9FF120031
:10034000D9CFE6FFE1CFD9FF020EE126DE6ADD6AF2
:10035000DE6ADD6ADECF10F0DDCF11F00101B451AD
:10036000105CB55111582BE2DECFE9FFDDCFEAFF7B
:10037000090EEA02F3CFEAFFE902F3CFE9FFF450F6
:10038000EA26510EE926010EEA22EECF10F0EFCF59
:1003900011F0FD0EDB5010180DE1FE0EDB501118B0
:1003A00009E1DECF10F0DDCF11F010C0F3FF11C076
:1003B000F4FF07D0DF2A010ECDE3DB2ACBD7F368A9
:1003C000F468020EE15C02E2E16AE552E16EE55298
:1003D000E7CFD9FF1200D9CFE6FFE1CFD9FF020E58
:1003E000E1260101AD51040A02E12DEF0EF0130ADE
:1003F00002E10FEF0EF00F0A02E1E3EF0DF01B0A2E
:1004000002E16AEF0DF0190A02E14BEF0DF0030A69
:1004100002E12FEF0DF0120A02E19BEF0CF01F0A30
:1004200002E15BEF0CF0070A02E1D3EF0BF01C0ACC
:1004300002E15EEF0AF01D0A02E1F3EF09F0030AA0
:1004400002E17AEF09F01F0A02E100EF08F01E0A4C
:1004500002E12FEF07F01D0A02E1AAEF06F0070AFA
:1004600001E19BD3060A01E150D3050A01E1E2D282
:10047000010A01E144D21E0A01E1D6D1030A01E1D9
:100480008FD1170A01E179D1030A01E1EFD0060A01
:1004900001E1D3D0010A01E1B5D0030A30E0050A39
:1004A00002E043EF0EF0AB0EE66E4B0EE66EE66A30
:1004B000E66A7AEC1BF0E552E552E552E5529A0EF7
:1004C000E66E4B0EE66EE66A010EE66E7AEC1BF007
:1004D000E552E552E552E55275EC10F00101010ECE
:1004E000226FB7EC0EF0000902E143EF0EF0ACEC26
:1004F0000FF00101AB6BAC6B050E5CEF0AF0B02B9B
:10050000000EB123890EE66E4B0EE66EE66AE66AD1
:100510007AEC1BF0E552E552E552E5528EEC0EF016
:10052000000933E0410E0F01405D14E10101AF51BC
:10053000000828E20A0E0D6E0E6AABC108F0ACC1CD
:1005400009F072EC28F008C0ABF109C0ACF1010170
:10055000AF0718D00A0E405D15E2ABC110F0ACC178
:1005600011F00A0E1102F3CF11F01002F3CF10F0C8
:10057000F450112640510101F324AB6F000E1120FD
:10058000AC6FAF2B0101B06BB16BAFC1E6FFABC17C
:10059000E6FFACC1E6FF000EE66EE66A010EE66E0F
:1005A000E66AF4EC0EF0106E070EE15E10507B0E62
:1005B000E66E4B0EE66E030EE66E010EE66E7AEC0C
:1005C0001BF0E552E552E552E552030E0101AF5D25
:1005D00004E2B7EC0EF0000905E0ACEC0FF001010D
:1005E000060EAD6FBFEC0EF0000902E00101AD6B2D
:1005F00001012C0EB05D010EB15902E243EF0EF085
:100600000DEF0EF0B06BB16BABC1E6FFACC1E6FF16
:1006100097DEE552E552F3CFB2F1F4CFB3F1010129
:10062000F31C01E1B31D06E0010EAD6F05EC19F0FE
:1006300043EF0EF0070E5CEF0AF0B02B000EB12373
:100640006A0EE66E4B0EE66EE66AE66A7AEC1BF020
:10065000E552E552E552E5520101280EB05D000E6B
:10066000B15902E243EF0EF00DEF0EF05D0EE66EB3
:100670004B0EE66EE66AE66A7AEC1BF0E552E5524E
:10068000E552E552B2C1E9FFB3C1EAFF090EEA0241
:10069000F3CFEAFFE902F3CFE9FFF450EA26510E67
:1006A000E926010EEA22EECF10F0EFCF11F0126A28
:1006B000136A10C0E6FF11C0E6FF12C0E6FF13C0C8
:1006C000E6FF0D0EE66EE66A53EC1AF0146E060EA7
:1006D000E15E14500101B02B000EB1238EEC0EF040
:1006E000000936E0410E0F01405D14E10101AE51F9
:1006F00000082BE2AE075B0EE66E4B0EE66EAEC157
:10070000E6FF010EE66E7AEC1BF0E552E552E5528B
:10071000E5521BD00A0E405D18E2590EE66E4B0EF4
:10072000E66EAEC1E6FF010EE66E7AEC1BF0E55216
:10073000E552E552E5520101AE51EA6A3A0FE96E1F
:100740000F0EEA2240CFEFFFAE2B0101B06BB16B71
:10075000060E0101AE5D02E3020EAD6F2C0EB05D20
:10076000010EB15901E3AD6BBFEC0EF0000902E1DF
:1007700043EF0EF001010DEF0EF0B06BB16BAE6BFD
:100780004DEC0EF0000908E00101B251B31101E196
:10079000DFD2150E5CEF0AF00101040E5CEF0AF0E7
:1007A000B02B000EB1234D0EE66E4B0EE66EE66AE0
:1007B000A5EC1BF0E552E552E5523F0EE66E4B0EFE
:1007C000E66E010EE66EA5EC1BF0E552E552E55231
:1007D000BFEC0EF0000902E00101AD6B0101010E5A
:1007E000CD1906E1CE5104E1C9C1ADF1ACEC0FF079
:1007F0000101010ECF1906E1D05104E1CAC1ADF1EA
:10080000ACEC0FF08EEC0EF0000903E00101B06BD0
:10081000B16B01012C0ED880B055010EB15502E329
:1008200043EF0EF00DEF0EF0B02B000EB1232E0EA5
:10083000E66E4B0EE66EE66AA5EC1BF0E552E5525D
:10084000E5528EEC0EF000093AE0410E0F01405DDA
:1008500014E10101AE5100082FE2AE075B0EE66E17
:100860004B0EE66EAEC1E6FF010EE66E7AEC1BF0B3
:10087000E552E552E552E5521FD00A0E405D1CE2FA
:10088000060E0101AE5D18E2590EE66E4B0EE66EE5
:10089000AEC1E6FF010EE66E7AEC1BF0E552E552C2
:1008A000E552E5520101AE51EA6A3A0FE96E0F0EC8
:1008B000EA2240CFEFFFAE2B0101B06BB16BB7EC7A
:1008C0000EF0000908E0060E0101AE5D04E30C0E17
:1008D000AD6FACEC0FF0BFEC0EF0000905E00101CC
:1008E000150EAD6FACEC0FF001012C0ED880B05599
:1008F000010EB15502E343EF0EF00DEF0EF0B02BF9
:10090000000EB123C051030A30E0010A20E0030ABF
:1009100010E0010A3FE14D0EE66E4B0EE66EE66A10
:10092000A5EC1BF0E552E552E5523F0EE66E4B0E8C
:1009300029D0200EE66E4B0EE66EE66AA5EC1BF0A3
:10094000E552E552E552130EE66E4B0E1BD0020E39
:10095000E66E4B0EE66EE66AA5EC1BF0E552E5523C
:10096000E552F40EE66E4A0E0DD0E40EE66E4A0E27
:10097000E66EE66AA5EC1BF0E552E552E552E30EA1
:10098000E66E4A0EE66E010EE66EA5EC1BF0E55231
:10099000E552E552B7EC0EF0000906E00101C0296E
:1009A000030BC06FB06BB16BBFEC0EF0000902E03F
:1009B0000101AD6B0101010ECD1911E1CE510FE125
:1009C0000101C051E96EEA6AD890E936EA36B80EFC
:1009D000E926010EEA22EFCFADF1ACEC0FF00101F8
:1009E000010ECF1915E1D05113E10101C051E96E9B
:1009F000EA6AD890E936EA36B80EE926010EEA220C
:100A0000010EE926000EEA22EFCFADF1ACEC0FF0BB
:100A10008EEC0EF0000903E00101B06BB16B010137
:100A20002C0ED880B055010EB15502E343EF0EF005
:100A30000DEF0EF0B02B000EB123D40EE66E4A0E71
:100A4000E66EE66AA5EC1BF0E552E552E5528EEC47
:100A50000EF000093AE0410E0F01405D14E1010182
:100A6000AE5100082FE2AE075B0EE66E4B0EE66E4F
:100A7000AEC1E6FF010EE66E7AEC1BF0E552E552E0
:100A8000E552E5521FD00A0E405D1CE2060E010140
:100A9000AE5D18E2590EE66E4B0EE66EAEC1E6FF95
:100AA000010EE66E7AEC1BF0E552E552E552E55296
:100AB0000101AE51EA6A3A0FE96E0F0EEA2240CF09
:100AC000EFFFAE2B0101B06BB16BB7EC0EF000097C
:100AD00008E0060E0101AE5D04E30C0EAD6FACEC58
:100AE0000FF0BFEC0EF0000905E00101080EAD6F3C
:100AF000ACEC0FF001012C0ED880B055010EB155B1
:100B000002E343EF0EF00DEF0EF0B02B000EB12319
:100B1000C50EE66E4A0EE66EE66AA5EC1BF0E552DF
:100B2000E552E5520101010EB0192CE1B1512AE163
:100B3000060EE66EE66A3A0EE66E0F0EE66EB2C17D
:100B4000E9FFB3C1EAFF090EEA02F3CFEAFFE902C7
:100B5000F3CFE9FFF450EA26510EE926010EEA220E
:100B6000020EE926000EEA22E9CF10F0EACF11F0DA
:100B7000E9CFE6FFEACFE6FF65EC27F0126E060E3E
:100B8000E15E12500101280ED880B055000EB1551B
:100B900002E343EF0EF00DEF0EF0B02B000EB12389
:100BA000C551010A10E0010A23E1B80EE66E4A0EB3
:100BB000E66EE66AA5EC1BF0E552E552E552A80E9A
:100BC000E66E4A0E0DD0980EE66E4A0EE66EE66AA6
:100BD000A5EC1BF0E552E552E5525B0EE66E4B0EBE
:100BE000E66E010EE66EA5EC1BF0E552E552E5520D
:100BF000B7EC0EF0000906E00101C529010BC56F35
:100C0000B06BB16BBFEC0EF0000905E00101080EFE
:100C1000AD6FACEC0FF00101010ECD1944E1CE51E6
:100C200042E10101C551E96EEA6AD890E936EA3637
:100C3000C10EE926010EEA22EFCFADF1ACEC0FF0C8
:100C4000B4C112F0B5C113F01206000E135A000120
:100C5000136A030E12161250131010E1B4C110F0F3
:100C6000B5C111F01006000E115A020E0F0B19E05B
:100C7000D89011321032E806FBE113D0B4C110F065
:100C8000B5C111F01006000E115A020E0F0B05E04F
:100C9000D89011321032E806FBE1010E1026000E4A
:100CA000112210C0C6F10101010ECF1948E1D05147
:100CB00046E10101C551E96EEA6AD890E936EA36A3
:100CC000C10EE926010EEA22010EE926000EEA22F3
:100CD000EFCFADF1ACEC0FF0B4C112F0B5C113F031
:100CE0001206000E135A0001136A030E1216125058
:100CF000131010E1B4C110F0B5C111F01006000ED0
:100D0000115A020E0F0B19E0D89011321032E8067A
:100D1000FBE113D0B4C110F0B5C111F01006000E04
:100D2000115A020E0F0B05E0D89011321032E8066E
:100D3000FBE1010E1026000E112210C0C6F10101C8
:100D40002C0ED880B055010EB15502E343EF0EF0E2
:100D5000080EB2D3B02B000EB1238D0EE66E4A0EF4
:100D6000E66EE66AE66A7AEC1BF0E552E552E55279
:100D7000E552B6C110F0B7C111F0126A136AB6C1DC
:100D8000E6FFB7C1E6FF12C0E6FF13C0E6FF0A0E9A
:100D9000E66EE66A53EC1AF0146E060EE15E14502D
:100DA0008EEC0EF000093AE0410E0F01405D14E1B7
:100DB0000101AE5100082FE2AE075B0EE66E4B0E4E
:100DC000E66EAEC1E6FF010EE66E7AEC1BF0E55270
:100DD000E552E552E5521FD00A0E405D1CE2060EB8
:100DE0000101AE5D18E2590EE66E4B0EE66EAEC125
:100DF000E6FF010EE66E7AEC1BF0E552E552E55295
:100E0000E5520101AE51EA6A3A0FE96E0F0EEA228D
:100E100040CFEFFFAE2B0101B06BB16BB7EC0EF022
:100E2000000908E0060E0101AE5D04E3100EAD6F8F
:100E3000ACEC0FF0BFEC0EF0000905E001010A0E6A
:100E4000AD6FACEC0FF001012C0ED880B055010E47
:100E5000B15502E343EF0EF0080E2AEF0EF0B02B6F
:100E6000000EB123830EE66E4A0EE66EE66AE66A6F
:100E70007AEC1BF0E552E552E552E552780EE66E4B
:100E80004A0EE66EE66A010EE66E7AEC1BF0E5525B
:100E9000E552E552E5520101010EB01901E08BD097
:100EA000B15101E088D0DE6ADD6AB4C1E9FFB5C1A5
:100EB000EAFF090EEA02F3CFEAFFE902F3CFE9FF06
:100EC000F450EA26510EE926010EEA22B6C1EEFFE1
:100ED000B7C1EDFFDE6ADD6ADECF10F0DDCF11F0C5
:100EE000D890115004E6060E105C000E115846E230
:100EF000DECFE9FFDDCFEAFF3A0EE9260F0EEA2248
:100F0000EF50E66EB4C1E9FFB5C1EAFF090EEA028F
:100F1000F3CFEAFFE902F3CFE9FFF450EA26510EDE
:100F2000E926010EEA22020EE926000EEA22DE5030
:100F3000E924E96EDD50EA20EA6EE552E750EF6EF3
:100F4000DECFE9FFDDCFEAFF3A0EE9260F0EEA22F7
:100F5000EF50300FE66EDECF10F0DDCF11F00A0E4D
:100F60001024E66E010EE66E28EC1AF0E552E5520A
:100F7000E552DF2A010EB0E3DB2AAED7B4C1E9FFA8
:100F8000B5C1EAFF090EEA02F3CFEAFFE902F3CFA7
:100F9000E9FFF450EA26510EE926010EEA22080E76
:100FA000E926000EEA22020EEF6E0101B62B000EBA
:100FB000B723B42BB523B6C110F0B7C111F010069A
:100FC000000E115A126A136A10C0E6FF11C0E6FF44
:100FD00012C0E6FF13C0E6FF090EE66EE66A53ECA8
:100FE0001AF0146E060EE15E14500101280ED8802E
:100FF000B055000EB15502E343EF0EF099EF0CF03F
:10100000B02B000EB123040EC703F328106EB451A9
:10101000105C000EB55530E2740EE66E4A0EE66EB8
:10102000E66AE66A7AEC1BF0E552E552E552E552D3
:10103000040E0101C703F328090DF3CFE9FFF4CF34
:10104000EAFF510EE926010EEA22EECF10F0EFCFB3
:1010500011F0126A136A10C0E6FF11C0E6FF12C059
:10106000E6FF13C0E6FF030EE66EE66A53EC1AF0E5
:10107000146E060EE15E1450040E0101C703F35016
:10108000020F106EB451105C000EB55532E2700EB6
:10109000E66E4A0EE66E080EE66EE66A7AEC1BF025
:1010A000E552E552E552E552040E0101C703F35043
:1010B000020F090DF3CFE9FFF4CFEAFF510EE92645
:1010C000010EEA22EECF10F0EFCF11F0126A136A90
:1010D00010C0E6FF11C0E6FF12C0E6FF13C0E6FF36
:1010E0000B0EE66EE66A53EC1AF0146E060EE15E25
:1010F0001450040E0101C703F350030F106EB451D6
:10110000105C000EB55533E26C0EE66E4A0EE66ECC
:10111000E66A010EE66E7AEC1BF0E552E552E55206
:10112000E552040E0101C703F350030F090DF3CF7D
:10113000E9FFF4CFEAFF510EE926010EEA22EECFD5
:1011400010F0EFCF11F0126A136A10C0E6FF11C061
:10115000E6FF12C0E6FF13C0E6FF030EE66E010EC7
:10116000E66E53EC1AF0146E060EE15E1450040E97
:101170000101C703F350040F106EB451105C000E50
:10118000B55534E2680EE66E4A0EE66E080EE66E5F
:10119000010EE66E7AEC1BF0E552E552E552E5529F
:1011A000040E0101C703F350040F090DF3CFE9FF4B
:1011B000F4CFEAFF510EE926010EEA22EECF10F03D
:1011C000EFCF11F0126A136A10C0E6FF11C0E6FFFC
:1011D00012C0E6FF13C0E6FF0B0EE66E010EE66ED0
:1011E00053EC1AF0146E060EE15E1450B7EC0EF0DC
:1011F00000090FE00101C729106EC6C10EF0096E8B
:10120000A6EC28F005C0C7F105EC19F00101B06BA0
:10121000B16BBFEC0EF0000905E001010A0EAD6FE5
:10122000ACEC0FF08EEC0EF000095AE00F01400517
:101230000EE1040E0101C703F328106EB451105CD7
:10124000000EB55504E2040EC703F3283ED0020E8B
:101250000F01405D10E1040E0101C703F350020FBE
:10126000106EB451105C000EB55505E2040EC703B4
:10127000F350020F2AD0030E0F01405D10E1040E5F
:101280000101C703F350030F106EB451105C000E40
:10129000B55505E2040EC703F350030F16D0040E34
:1012A0000F01405D10E1040E0101C703F350040F6C
:1012B000106EB451105C000EB55505E2040EC70364
:1012C000F350040F02D001010F0EC86F0F0EC85D5E
:1012D00004E0110EAD6FACEC0FF00101B06BB16B1F
:1012E00001012C0ED880B055010EB15502E343EF39
:1012F0000EF01FD3B02B000EB1235D0EE66E4A0E2A
:10130000E66EE66AE66A7AEC1BF0E552E552E552D3
:10131000E5520101C851090DF3CFE9FFF4CFEAFF0F
:10132000510EE926010EEA22EECF10F0EFCF11F0B8
:10133000126A136A10C0E6FF11C0E6FF12C0E6FF92
:1013400013C0E6FF0A0EE66EE66A53EC1AF0146E5E
:10135000060EE15E14503F0EE66E0F0EE66EE66A74
:1013600028EC1AF0E552E552E552560EE66E4A0EAA
:10137000E66EE66A010EE66E7AEC1BF0E552E55287
:10138000E552E5524E0EE66E4A0EE66E080EE66E29
:10139000010EE66E7AEC1BF0E552E552E552E5529D
:1013A000B7EC0EF0000905E0ACEC0FF00101120EF5
:1013B000AD6FBFEC0EF0000905E0ACEC0FF00101E1
:1013C0000E0EAD6F8EEC0EF0000903E00101B06B64
:1013D000B16B01012C0ED880B055010EB15502E35E
:1013E00043EF0EF065D0B02B000EB1233E0EE66E3B
:1013F0004A0EE66EE66AE66A7AEC1BF0E552E552C2
:10140000E552E5520101010EB0194BE1B15149E13C
:10141000C851126E136A1250B45D106E1350B55954
:10142000116E1006000E115A090E1102F3CF11F0C1
:101430001002F3CF10F0F4501126F3CFE6FF11C0E5
:10144000E6FFC851090DF3CF14F0F4CF15F0510E9B
:101450001426010E1522090E1426000E152214C0A2
:10146000E6FF15C0E6FFC851090DF3CF16F0F4CF23
:1014700017F0510E1626010E172216C0E6FF17C0F0
:10148000E6FF65EC27F0186E060EE15E18500101CC
:10149000000ED880B455000EB55503E2B407000E17
:1014A000B55B280ED880B055000EB15501E3EBD3E3
:1014B000ACEC0FF001010A0EAD6FE5D3B02B000EBE
:1014C000B123040EC703F328106EB451105C000E54
:1014D000B55530E2740EE66E4A0EE66EE66AE66ACE
:1014E0007AEC1BF0E552E552E552E552040E01019B
:1014F000C703F328090DF3CFE9FFF4CFEAFF510E3C
:10150000E926010EEA22EECF10F0EFCF11F0126AB9
:10151000136A10C0E6FF11C0E6FF12C0E6FF13C059
:10152000E6FF030EE66EE66A53EC1AF0146E060E42
:10153000E15E1450040E0101C703F350020F106E58
:10154000B451105C000EB55532E2700EE66E4A0ED4
:10155000E66E080EE66EE66A7AEC1BF0E552E5529E
:10156000E552E552040E0101C703F350020F090DC5
:10157000F3CFE9FFF4CFEAFF510EE926010EEA228C
:10158000EECF10F0EFCF11F0126A136A10C0E6FF31
:1015900011C0E6FF12C0E6FF13C0E6FF0B0EE66EB9
:1015A000E66A53EC1AF0146E060EE15E1450040E57
:1015B0000101C703F350030F106EB451105C000E0D
:1015C000B55533E26C0EE66E4A0EE66EE66A010E23
:1015D000E66E7AEC1BF0E552E552E552E552040E58
:1015E0000101C703F350030F090DF3CFE9FFF4CF57
:1015F000EAFF510EE926010EEA22EECF10F0EFCFFE
:1016000011F0126A136A10C0E6FF11C0E6FF12C0A3
:10161000E6FF13C0E6FF030EE66E010EE66E53EC26
:101620001AF0146E060EE15E1450040E0101C70399
:10163000F350040F106EB451105C000EB55534E237
:10164000680EE66E4A0EE66E080EE66E010EE66E57
:101650007AEC1BF0E552E552E552E552040E010129
:10166000C703F350040F090DF3CFE9FFF4CFEAFFEE
:10167000510EE926010EEA22EECF10F0EFCF11F065
:10168000126A136A10C0E6FF11C0E6FF12C0E6FF3F
:1016900013C0E6FF0B0EE66E010EE66E53EC1AF079
:1016A000146E060EE15E145062DB00090FE00101CA
:1016B000C729106EC6C10EF0096EA6EC28F005C051
:1016C000C7F105EC19F00101B06BB16B58DB0009F3
:1016D00005E001010A0EAD6FACEC0FF01FDB000955
:1016E00059E00F0140050EE1040E0101C703F32884
:1016F000106EB451105C000EB55504E2040EC70321
:10170000F3283ED0020E0F01405D10E1040E0101EE
:10171000C703F350020F106EB451105C000EB555A4
:1017200005E2040EC703F350020F2AD0030E0F0187
:10173000405D10E1040E0101C703F350030F106E6A
:10174000B451105C000EB55505E2040EC703F3500A
:10175000030F16D0040E0F01405D10E1040E0101CD
:10176000C703F350040F106EB451105C000EB55552
:1017700005E2040EC703F350040F02D001010F0E5F
:10178000C86F0F0EC85D03E0130EAD6FE5DB0101FE
:10179000B06BB16B01012C0ED880B055010EB15564
:1017A00001E371D2C6D0B02B000EB123330EE66E2A
:1017B0004A0EE66EE66AE66A7AEC1BF0E552E552FE
:1017C000E552E5520101C851090DF3CFE9FFF4CF0D
:1017D000EAFF510EE926010EEA22EECF10F0EFCF1C
:1017E00011F0126A136A10C0E6FF11C0E6FF12C0C2
:1017F000E6FF13C0E6FF0B0EE66EE66A53EC1AF046
:10180000146E060EE15E145089DA00093AE0410ECA
:101810000F01405D14E10101AE5100082FE2AE0757
:101820005B0EE66E4B0EE66EAEC1E6FF010EE66E97
:101830007AEC1BF0E552E552E552E5521FD00A0E54
:10184000405D1CE2060E0101AE5D18E2590EE66E27
:101850004B0EE66EAEC1E6FF010EE66E7AEC1BF0B3
:10186000E552E552E552E5520101AE51EA6A3A0FFE
:10187000E96E0F0EEA2240CFEFFFAE2B0101B06BF5
:10188000B16B75DA000907E0060E0101AE5D03E3F6
:10189000140EAD6F61DB73DA000904E001010F0E75
:1018A000AD6F5ADB01012C0ED880B055010EB15539
:1018B00001E3E9D13ED0B02B000EB123C50EE66E98
:1018C0004A0EE66EE66AA5EC1BF0E552E552E552DB
:1018D0000101010EB01925E1B15123E1060EE66EBA
:1018E000E66A3A0EE66E0F0EE66EC851090DF3CFAA
:1018F000E9FFF4CFEAFF510EE926010EEA22020EBB
:10190000E926000EEA22E9CF10F0EACF11F0E9CF84
:10191000E6FFEACFE6FF65EC27F0126E060EE15E09
:1019200012500101280ED880B055000EB15501E3C8
:10193000AAD10A0E8FD1B02B000EB123010EB0191F
:1019400003E1B15101E113DB2A0EE66E4A0EE66EA9
:10195000E66AE66A7AEC1BF0E552E552E552E5529A
:10196000220EE66E4A0EE66E080EE66EE66A7AEC27
:101970001BF0E552E552E552E5521CC110F01DC1C5
:1019800011F0126A136A1CC1E6FF1DC1E6FF12C006
:10199000E6FF13C0E6FF0C0EE66EE66A53EC1AF0A3
:1019A000146E060EE15E14501B0EE66E4A0EE66ED5
:1019B000E66A010EE66E7AEC1BF0E552E552E5525E
:1019C000E55220C110F021C111F0126A136A20C142
:1019D000E6FF21C1E6FF12C0E6FF13C0E6FF030EDB
:1019E000E66E010EE66E53EC1AF0146E060EE15E22
:1019F0001450140EE66E4A0EE66E080EE66E010EE8
:101A0000E66E7AEC1BF0E552E552E552E5521EC156
:101A100010F01FC111F0126A136A1EC1E6FF1FC148
:101A2000E6FF12C0E6FF13C0E6FF0C0EE66E010EE5
:101A3000E66E53EC1AF0146E060EE15E14509FD958
:101A4000000904E00101080EAD6F86DA01012C0ED9
:101A5000D880B055010EB15501E315D1DED0B02BC1
:101A6000000EB1232BEC12F059D9000903E001015B
:101A7000B06BB16B84D9000905E00101080EAD6FB0
:101A8000010ECB6F01012C0ED880B055010EB1555F
:101A900001E3F9D01BD0B02B000EB12354EC13F0AE
:101AA0003DD9000903E00101B06BB16B68D90009B1
:101AB00005E00101080EAD6F010ECB6F01012C0E88
:101AC000D880B055010EB15501E3DDD0AD6B010EEC
:101AD000CB6FD9D0B02B000EB123010EB01956E157
:101AE000B15154E1E66AC2EC24F0E55201011B6FEA
:101AF000010EE66EC2EC24F0E55201011A6F020EEF
:101B0000E66EC2EC24F0E5520101196F1651D8803F
:101B100019550EE31651195D23E11751D8801A5556
:101B200007E317511A5D1CE11851D8801B5518E2C4
:101B3000B2C1E9FFB3C1EAFF090EEA02F3CFEAFF3F
:101B4000E902F3CFE9FFF450EA26510EE926010E2F
:101B5000EA22080EE926000EEA22010EEF6E16D0E8
:101B6000B2C1E9FFB3C1EAFF090EEA02F3CFEAFF0F
:101B7000E902F3CFE9FFF450EA26510EE926010EFF
:101B8000EA22080EE926000EEA22EF6A22050DE19C
:101B9000030EE66E4A0EE66EE66AE66A7AEC1BF023
:101BA000E552E552E552E552F2D80101225103E136
:101BB000180EAD6FD1D90101280EB05D000EB159DC
:101BC00062E3180E47D0B02B000EB123F10EE66E83
:101BD000490EE66EE66AA5EC1BF0E552E552E552C9
:101BE000E50EE66E490EE66E010EE66EA5EC1BF004
:101BF000E552E552E552E9D80101226BB8D8000957
:101C000006E0AAD90101050EAD6FAB6BAC6B01010B
:101C1000640EB05D000EB15936E3AD6B34D0B02B1D
:101C2000000EB123D60EE66E490EE66EE66AA5EC0E
:101C30001BF0E552E552E5520101010EB01903E136
:101C4000B15101E1E8D90101280EB05D000EB15992
:101C50001AE3080EAD6F80D916D0B02B000EB12359
:101C6000C50EE66E490EE66EE66AE66A7AEC1BF091
:101C7000E552E552E552E5520101280EB05D000E35
:101C8000B15901E3AD6B020EE15C02E2E16AE5529B
:101C9000E16EE552E7CFD9FF1200D9CFE6FFE1CFE1
:101CA000D9FF020EE126DF6A060EDF5C2AE2B2C12E
:101CB000E9FFB3C1EAFF090EEA02F3CFEAFFE90246
:101CC000F3CFE9FFF450EA26510EE926010EEA228D
:101CD000020EE926000EEA22DF50E924E96E000E2A
:101CE000EA20EA6EEFCF10F0DF50EA6A3A0FE96EB1
:101CF0000F0EEA22EF50105C02E0000E03D0DF2A44
:101D0000D3D7010E106E020EE15C02E2E16AE552E9
:101D1000E16E1050E552E7CFD9FF1200D9CFE6FFB0
:101D2000E1CFD9FFE652DF6ADF500F081AE3EA6A13
:101D3000DF34FE0BEA36E96ECD0EE926010EEA220B
:101D4000010EEE180CE1ED500AE1DF50EA6A230FB4
:101D5000E96E010EEA22EFCF40FF010E03D0DF2A29
:101D6000E3D7000EE552E552E7CFD9FF120001019B
:101D7000010EE91903E1EA5101E1010C000C010136
:101D8000010EE51903E1E65101E1010C000C000E22
:101D9000E66EE66AD4EC00F0E552E552010EE66E1E
:101DA000E66AFCEC00F0E552E5521200000EE66E29
:101DB000E66AFCEC00F0E552E552010EE66EE66ADA
:101DC000D4EC00F0E552E5521200000EE66EE66A31
:101DD000FCEC00F0E552E552010EE66EE66AFCEC22
:101DE00000F0E552E5521200D9CFE6FFE1CFD9FF6E
:101DF000F90EDBCF10F0FA0EDBCF11F00A0E105CFB
:101E0000000E11582CE2F80EDB50030828E1C20E38
:101E1000E66E490EE66EFB0EDBCFE6FFFD0EDBCF76
:101E2000E6FF7AEC1BF0E552E552E552E552F90E79
:101E3000DBCF10F0FA0EDBCF11F0126A136A10C07C
:101E4000E6FF11C0E6FF12C0E6FF13C0E6FFFB0E7F
:101E5000DBCF14F0FC0EDBCF15F0020E45D0F90EEF
:101E6000DBCF10F0FA0EDBCF11F00A0E105C000E83
:101E7000115804E2F80EDB5002080FE0F90EDBCF38
:101E800010F0FA0EDBCF11F0640E105C000E11584A
:101E900037E2F80EDB50030833E1C00EE66E490E60
:101EA000E66EFB0EDBCFE6FFFD0EDBCFE6FF7AEC46
:101EB0001BF0E552E552E552E552F90EDBCF10F08A
:101EC000FA0EDBCF11F0126A136A10C0E6FF11C0E0
:101ED000E6FF12C0E6FF13C0E6FFFB0EDBCF14F0F7
:101EE000FC0EDBCF15F0010E1424E66EFD0EDBCFE9
:101EF000E6FF53EC1AF0166E060EE15E165028D07F
:101F0000E30EE66E4A0EE66EFD0EDBCFE6FFA5ECB5
:101F10001BF0E552E552E552F90EDBCF10F0FA0E58
:101F2000DBCF11F0126A136A10C0E6FF11C0E6FFA2
:101F300012C0E6FF13C0E6FFFB0EDBCFE6FFFD0E8F
:101F4000DBCFE6FF53EC1AF0146E060EE15E145080
:101F5000E552E7CFD9FF120005EC19F00101B06B93
:101F6000B16BC76BC06BC56BAE6BAF6B1200D9CFDB
:101F7000E6FFE1CFD9FF030EE126DE6ADD6A000E3F
:101F800001011E6F1F6B206F216B1C6F1D6BDE6AC2
:101F9000DD6ADECF10F0DDCF11F0B451105CB55129
:101FA00011582FE2DECFE9FFDDCFEAFF090EEA028A
:101FB000F3CFEAFFE902F3CFE9FFF450EA26510E2E
:101FC000E926010EEA22080EE926000EEA22020E98
:101FD000EFCFDBFFDB50020A0CE0030A06E0010A48
:101FE0000BE11C2B000E1D2307D0202B000E2123FC
:101FF00003D01E2B000E1F23DF2A010ECAE3DB2AAB
:10200000C8D7030EE15C02E2E16AE552E16EE552F7
:10201000E7CFD9FF1200D9CFE6FFE1CFD9FF020EFB
:10202000E126DE6ADD6ADE6ADD6ADECF10F0DDCF32
:1020300011F00101B451105CB55111581CE2DECF12
:10204000E9FFDDCFEAFF090EEA02F3CFEAFFE9027A
:10205000F3CFE9FFF450EA26510EE926010EEA22F9
:10206000080EE926000EEA22020EEF6EDF2A010EAC
:10207000DCE3DB2ADAD7020EE15C02E2E16AE55238
:10208000E16EE552E7CFD9FF12000101320E106F69
:102090003B0E116F170E126F10C1E6FFE66A71EC6E
:1020A00024F0E552E55211C1E6FF010EE66E71EC37
:1020B00024F0E552E55212C1E6FF020EE66E71EC25
:1020C00024F0E552E5521200200EE66EC2EC24F038
:1020D000E552220809E0D9DF220EE66E200EE66EF8
:1020E000B1EC24F0E552E5521200E66AC2EC24F0AD
:1020F000E5520101106F010EE66EC2EC24F0E552CC
:102100000101116F020EE66EC2EC24F0E5520101EE
:10211000126F0A0E125D1DE2C00EE66E490EE66EEB
:10212000070EE66E010EE66E7AEC1BF0E552E55204
:10213000E552E55212C110F0116A126A136A12C117
:10214000E6FF11C0E6FF12C0E6FF13C0E6FF080E6F
:102150000ED012C110F0116A126A136A12C1E6FFA2
:1021600011C0E6FF12C0E6FF13C0E6FF070EE66EE1
:10217000010EE66E53EC1AF0146E060EE15E14507A
:10218000BE0EE66E490EE66E090EE66E010EE66EB6
:102190007AEC1BF0E552E552E552E5520A0E0101D8
:1021A000115D1DE2C00EE66E490EE66E0A0EE66E89
:1021B000010EE66E7AEC1BF0E552E552E552E5526F
:1021C00011C110F0116A126A136A11C1E6FF11C041
:1021D000E6FF12C0E6FF13C0E6FF0B0E0ED011C1E2
:1021E00010F0116A126A136A11C1E6FF11C0E6FF0E
:1021F00012C0E6FF13C0E6FF0A0EE66E010EE66EA1
:1022000053EC1AF0146E060EE15E1450BE0EE66E2C
:10221000490EE66E0C0EE66E010EE66E7AEC1BF0D1
:10222000E552E552E552E5520A0E0101105D1DE24C
:10223000C00EE66E490EE66E0D0EE66E010EE66EFF
:102240007AEC1BF0E552E552E552E55210C110F070
:10225000116A126A136A10C1E6FF11C0E6FF12C0CC
:10226000E6FF13C0E6FF0E0E0ED010C110F0116A8B
:10227000126A136A10C1E6FF11C0E6FF12C0E6FF42
:1022800013C0E6FF0D0EE66E010EE66E53EC1AF07B
:10229000146E060EE15E14501200D9CFE6FFE1CFB6
:1022A000D9FF0A0EF36EFE0EDBCFF4FFF350F45CA1
:1022B0001EE2C00EE66E490EE66E070EE66E010ED9
:1022C000E66E7AEC1BF0E552E552E552E552FE0E61
:1022D000DBCF10F0116A126A136A10C0E6FF11C05A
:1022E000E6FF12C0E6FF13C0E6FF080E0FD0FE0E99
:1022F000DBCF10F0116A126A136A10C0E6FF11C03A
:10230000E6FF12C0E6FF13C0E6FF070EE66E010E01
:10231000E66E53EC1AF0146E060EE15E1450BE0E1B
:10232000E66E490EE66E090EE66E010EE66E7AEC7A
:102330001BF0E552E552E552E5520A0EF36EFD0E32
:10234000DBCFF4FFF350F45C1EE2C00EE66E490EE4
:10235000E66E0A0EE66E010EE66E7AEC1BF0E552B2
:10236000E552E552E552FD0EDBCF10F0116A126A1C
:10237000136A10C0E6FF11C0E6FF12C0E6FF13C0EB
:10238000E6FF0B0E0FD0FD0EDBCF10F0116A126AC4
:10239000136A10C0E6FF11C0E6FF12C0E6FF13C0CB
:1023A000E6FF0A0EE66E010EE66E53EC1AF0146EAE
:1023B000060EE15E1450BE0EE66E490EE66E0C0E81
:1023C000E66E010EE66E7AEC1BF0E552E552E55240
:1023D000E5520A0EF36EFC0EDBCFF4FFF350F45C13
:1023E0001EE2C00EE66E490EE66E0D0EE66E010EA2
:1023F000E66E7AEC1BF0E552E552E552E552FC0E32
:10240000DBCF10F0116A126A136A10C0E6FF11C028
:10241000E6FF12C0E6FF13C0E6FF0E0E0FD0FC0E63
:10242000DBCF10F0116A126A136A10C0E6FF11C008
:10243000E6FF12C0E6FF13C0E6FF0D0EE66E010ECA
:10244000E66E53EC1AF0146E060EE15E1450E5527F
:10245000E7CFD9FF12000101CB51060A01E1FBD001
:10246000030A01E1B6D0010A72E0070A2DE0010A71
:1024700015E0030A01E009D1B20EE66E490EE66EE0
:10248000E66AA5EC1BF0E552E552E5522EDE45DA90
:10249000000901E1FCD00101020EF8D0E66AC2ECAD
:1024A00024F0E5520101156F010EE66EC2EC24F036
:1024B000E5520101146F020EE66EC2EC24F0E55203
:1024C0000101136F030EE2D015C1E6FF14C1E6FF50
:1024D00013C1E6FFE2DEE552E552E5520101CD51BE
:1024E000CE1115E1CF51D01112E10A0E0101CC5DE0
:1024F0000EE2AF0EE66E490EE66E070EE66E010EB8
:10250000E66E7AEC1BF0E552E552E552E552C9D988
:1025100000090CE001011329106E180E116E0E6EE9
:1025200010C009F0A6EC28F005C013F1D8D90009B5
:1025300007E0010113071351170802E2170E136F8A
:10254000ECD9000901E1A3D00101040E9FD015C10F
:10255000E6FF14C1E6FF13C1E6FF9FDEE552E55238
:10256000E5520101CD51CE1115E1CF51D01112E14B
:102570000A0E0101CC5D0EE2AF0EE66E490EE66E6C
:102580000A0EE66E010EE66E7AEC1BF0E552E5529D
:10259000E552E55286D900090CE001011429106EBC
:1025A0003C0E116E0E6E10C009F0A6EC28F005C0AE
:1025B00014F195D9000907E00101140714513B08F3
:1025C00002E23B0E146FA9D9000961E00101050E7A
:1025D0005DD015C1E6FF14C1E6FF13C1E6FF5DDE65
:1025E000E552E552E5520101CD51CE1115E1CF5131
:1025F000D01112E10A0E0101CC5D0EE2AF0EE66EC3
:10260000490EE66E0D0EE66E010EE66E7AEC1BF0DC
:10261000E552E552E552E55244D900090CE00101CA
:102620001529106E3C0E116E0E6E10C009F0A6EC4E
:1026300028F005C015F153D9000907E0010115077D
:1026400015513B0802E23B0E156F67D900091FE0E8
:102650000101060E1BD015C1E6FFE66A71EC24F0FD
:10266000E552E55214C1E6FF010EE66E71EC24F06E
:10267000E552E55213C1E6FF020EE66E71EC24F05E
:10268000E552E5520101010E01D0010ECB6F0101AF
:10269000CC29106E140E116E0E6E10C009F0A6EC4F
:1026A00028F005C0CCF112000101CB51050A01E16F
:1026B000A7D0010A63E0070A1EE0020A01E0E2D0A7
:1026C0009E0EE66E490EE66EE66AA5EC1BF0E5523C
:1026D000E552E55218C1E6FF17C1E6FF16C1E6FF55
:1026E000DCDDE552E552E55218D9000901E1CCD014
:1026F0000101030EC8D018C1E6FF17C1E6FF16C1DD
:10270000E6FFCBDDE552E552E5520101CD51CE1198
:1027100015E1CF51D01112E10A0E0101CC5D0EE29C
:10272000AF0EE66E490EE66E070EE66E010EE66E21
:102730007AEC1BF0E552E552E552E552B2D80009B9
:102740000CE001011629106E180E116E0E6E10C0ED
:1027500009F0A6EC28F005C016F1C1D8000907E081
:10276000010116071651170802E2170E166FD5D889
:10277000000901E189D00101040E85D018C1E6FFEE
:1027800017C1E6FF16C1E6FF88DDE552E552E552C6
:102790000101CD51CE1115E1CF51D01112E10A0E38
:1027A0000101CC5D0EE2AF0EE66E490EE66E0A0E3A
:1027B000E66E010EE66E7AEC1BF0E552E552E5524C
:1027C000E5526FD800090CE001011729106E3C0E8C
:1027D000116E0E6E10C009F0A6EC28F005C017F1BE
:1027E0007ED8000907E00101170717513B0802E2F4
:1027F0003B0E176F92D8000947E00101050E43D048
:1028000018C1E6FF17C1E6FF16C1E6FF46DDE55237
:10281000E552E5520101CD51CE1115E1CF51D01154
:1028200012E10A0E0101CC5D0EE2AF0EE66E490E1A
:10283000E66E0D0EE66E010EE66E7AEC1BF0E552CA
:10284000E552E552E5522DD800090CE001011829A6
:10285000106E3C0E116E0E6E10C009F0A6EC28F042
:1028600005C018F13CD8000907E00101180718510C
:102870003B0802E23B0E186F50D8000905E0010149
:10288000010E01D0010ECB6F0101CC29106E140E88
:10289000116E0E6E10C009F0A6EC28F005C0CCF148
:1028A00012000101010ECD1901E1CE5116E0140E06
:1028B000D880CD55000ECE5511E2CDC110F0CEC15D
:1028C00011F0050E0D6E0E6ACDC108F0CEC109F0F3
:1028D00072EC28F00450051001E1010C000C01011C
:1028E000010ECF1901E1D05116E0140ED880CF555A
:1028F000000ED05511E2CFC110F0D0C111F0050E7D
:102900000D6E0E6ACFC108F0D0C109F072EC28F04C
:102910000450051001E1010C000C0101010ED11958
:0A29200003E1D25101E1010C000CAB
:06292A00D9CFE6FFE1CF6A
:10293000D9FF040EE126DE6ADD6ADECF10F0DDCFBE
:1029400011F0126A136A11AE02D012681368D950DE
:10295000FB0FE96EFF0EDA20EA6EEE50105CEE50CF
:102960001158EE501258EE5013581DE2020EDB6A59
:10297000030EDB6A020EDBCF10F0030EDBCF11F08B
:10298000D890115004E6050E105C000E115806E2B6
:10299000020EDB2A030EEEE3DB2AECD7DF2A010E60
:1029A000CCE3DB2ACAD7040EE15C02E2E16AE5521D
:1029B000E16EE552E7CFD9FF1200D9CFE6FFE1CFB4
:1029C000D9FF040EE126DE6ADD6ADECF10F0DDCF2E
:1029D00011F0126A136A11AE02D012681368D9504E
:1029E000FB0FE96EFF0EDA20EA6EEE50105CEE503F
:1029F0001158EE501258EE5013581DE2020EDB6AC9
:102A0000030EDB6A020EDBCF10F0030EDBCF11F0FA
:102A1000D890115004E6EE0E105C000E115806E23C
:102A2000020EDB2A030EEEE3DB2AECD7DF2A010ECF
:102A3000CCE3DB2ACAD7040EE15C02E2E16AE5528C
:102A4000E16EE552E7CFD9FF1200D9CFE6FFE1CF23
:102A5000D9FF0F0E8116FE0EDB50F00B811281861E
:102A6000010EE66EE66AE66AE66AA7DFE552E5521F
:102A7000E552E5528196010EE66EE66AE66AE66A7E
:102A80009CDFE552E552E552E5520F0E8116FE0E2F
:102A9000DB38F00B81128186010EE66EE66AE66A8B
:102AA000E66A8BDFE552E552E552E5528196010E6A
:102AB000E66EE66AE66AE66A80DFE552E552E552CE
:102AC000E552E552E7CFD9FF1200D9CFE6FFE1CFBB
:102AD000D9FFE652190EE66EE66AE66AE66A6DDF2F
:102AE000E552E552E552E5520F0E8116F80E8116B9
:102AF0000F0E8116300E81128186010EE66EE66A97
:102B0000E66AE66A5ADFE552E552E552E5528196F9
:102B1000010EE66EE66AE66AE66A4FDFE552E552C6
:102B2000E552E5520F0E8116300E81128186010E9C
:102B3000E66EE66AE66AE66A40DFE552E552E5528D
:102B4000E5528196010EE66EE66AE66AE66A35DFD0
:102B5000E552E552E552E5520F0E8116300E811214
:102B60008186010EE66EE66AE66AE66A26DFE552CF
:102B7000E552E552E5528196010EE66EE66AE66A96
:102B8000E66A1BDFE552E552E552E5520F0E81166B
:102B9000818A8186010EE66EE66AE66AE66A0DDFE4
:102BA000E552E552E552E5528196010EE66EE66A7F
:102BB000E66AE66A02DFE552E552E552E552280E82
:102BC000E66E43DFE5520C0EE66E3FDFE552E5525E
:102BD000E552E7CFD9FF1200D9CFE6FFE1CFD9FF09
:102BE000020EE126DF6A010EDB6A81940F0EE66EAB
:102BF000E66AE66AE66A99DEE552E552E552E55292
:102C00000F0E81128186E66EE66AE66AE66A8DDE5E
:102C1000E552E552E552E5520F0E8114E76E010EC2
:102C2000E7CFDBFF81960F0EE66EE66AE66AE66A9C
:102C30007CDEE552E552E552E5520F0E81128186A7
:102C4000E66EE66AE66AE66A70DEE552E552E5524D
:102C5000E5520F0E8114DF6E010EDB50DF128196FC
:102C6000010EE66EE66AE66AE66A5FDEE552E55266
:102C7000E552E552DF50106E020EE15C02E2E16ABD
:102C8000E552E16E1050E552E7CFD9FF1200D9CFDF
:102C9000E6FFE1CFD9FFE652DF6A9EDFDF6EDFBEDF
:102CA000FCD7DF50E552E552E7CFD9FF1200D9CF6C
:102CB000E6FFE1CFD9FF0F0E8116FE0EDB50811229
:102CC0008186050EE66EE66AE66AE66A2EDEE55263
:102CD000E552E552E5528196050EE66EE66AE66A31
:102CE000E66A23DEE552E552E552E552E552E7CFCA
:102CF000D9FF1200D9CFE6FFE1CFD9FF8194050EAD
:102D0000E66EE66AE66AE66A10DEE552E552E552EC
:102D1000E552FE0EDBCFE6FFCADFE552FE0EDB38E2
:102D2000F00BE66EC4DFE552E552E7CFD9FF1200A3
:102D3000D9CFE6FFE1CFD9FF8184050EE66EE66AC2
:102D4000E66AE66AF2DDE552E552E552E552FE0E2C
:102D5000DBCFE6FFACDFE552FE0EDB38F00BE66EB4
:102D6000A6DFE5528194E552E7CFD9FF1200D9CF13
:102D7000E6FFE1CFD9FFFE0EDBCFE6FFD9DFE5525C
:102D8000E552E7CFD9FF1200D9CFE6FFE1CFD9FF57
:102D9000FE0EDBCFE6FFCCDFE552E552E7CFD9FFF1
:102DA0001200D9CFE6FFE1CFD9FFFD0EDBCFF6FF52
:102DB000FE0EDBCFF7FF0800F5500FE0FD0EDBCF76
:102DC000F6FFDB2AFE0EDBCFF7FF01E3DB2A08006C
:102DD000F550E66ED9DFE552E8D7E552E7CFD9FFE7
:102DE0001200D9CFE6FFE1CFD9FFE652FD0EDB504E
:102DF0000F0B106EFE0EDB50010B400DF350102434
:102E0000DF6E7F0EDF14800FDF6EDFCFE6FF72DF35
:102E1000E552E552E552E7CFD9FF1200010EE66E0A
:102E200069DFE552E66AE66ADCDFE552E552120048
:102E3000D9CFE6FFE1CFD9FF050EE126010EF36EF3
:102E4000DB6E020EDB6A030EDB6A040EDB6ADF6AEE
:102E5000DFCF10F0116A10BE1168FB0EDBCF12F04D
:102E6000FC0EDBCF13F011501318E8AE02D0133470
:102E700004D01250105C135011582DE2FD0EDBCF20
:102E800010F0FE0EDBCF11F0126A136A11AE02D001
:102E900012681368D950010FE96EDACFEAFF10C04B
:102EA0000BF011C00CF012C00DF013C00EF0EECFFD
:102EB00006F0EECF07F0EECF08F0EFCF09F0F9EC17
:102EC00027F005C0EDFF04C0EDFF03C0EDFF02C019
:102ED000EFFFDF2ABDD7010EDBCF10F0020EDBCFF4
:102EE00011F0030EDBCF12F0040EDBCF13F010C095
:102EF00006F011C007F012C008F013C009F0050E6B
:102F0000E15C02E2E16AE552E16EE552E7CFD9FF0A
:102F10001200D9CFE6FFE1CFD9FF020EE126DF6A2A
:102F2000FB0EDBCF10F0FC0EDBCF11F0FD0EDBCF84
:102F300012F0FE0EDBCF13F0105011101210131010
:102F400005E1300EE66E20DFE552F4D0D950FB0FDC
:102F5000E96EFF0EDA20EA6ED890030EEB50000AFD
:102F600008E6000EEE5C000EEE58000EEE58000E65
:102F7000EE5815E22D0EE66E07DFE552D950FB0F35
:102F8000E96EFF0EDA20EA6E000EEE6CEF1EEE2206
:102F9000EF1EEE22EF1EEF22ED52ED52ED52DE5209
:102FA000070EDD6E010EDBCF10F0000EE76E10187D
:102FB000E8AE02D0103403D0E750D880105401E3BB
:102FC000B9D0010EDB04146E156A14BE156814C066
:102FD000E6FF15C0E6FF0A0EE66EE66A29DFE55257
:102FE000E552E552E55206C010F007C011F008C0E6
:102FF00012F009C013F006C00BF007C00CF008C0B7
:103000000DF009C00EF0FB0EDBCF06F0FC0EDBCF9F
:1030100007F0FD0EDBCF08F0FE0EDBCF09F031EC40
:1030200028F0065007100810091041E0010EDF6E6D
:10303000DB04186E196A18BE196818C0E6FF19C0BB
:10304000E6FF0A0EE66EE66AF3DEE552E552E55269
:10305000E55206C014F007C015F008C016F009C00C
:1030600017F006C00BF007C00CF008C00DF009C047
:103070000EF0FB0EDBCF06F0FC0EDBCF07F0FD0EF3
:10308000DBCF08F0FE0EDBCF09F031EC28F006C0F4
:1030900010F007C011F008C012F009C013F0300E94
:1030A0001026000E112212221322105003D0DF50DE
:1030B00004E0300EE66E68DEE552010EDB04146EAD
:1030C000156A14BE156814C0E6FF15C0E6FF0A0EA7
:1030D000E66EE66AADDEE552E552E552E55206C01F
:1030E00010F007C011F008C012F009C013F0D95059
:1030F000FB0FE96EFF0EDA20EA6E06C00BF007C088
:103100000CF008C00DF009C00EF0EECF06F0EECFC7
:1031100007F0EECF08F0EFCF09F031EC28F005C052
:10312000EDFF04C0EDFF03C0EDFF02C0EFFF010E95
:10313000DB0638D7020EE15C02E2E16AE552E16E9D
:10314000E552E7CFD9FF1200D9CFE6FFE1CFD9FF93
:10315000FD0EDBCFE6FFFE0EDBCFE6FF42DEE552E3
:10316000E552D950F90FE96EFF0EDA20EA6EEECF84
:10317000E6FFEECFE6FFEECFE6FFEFCFE6FFC9DEDC
:10318000E552E552E552E552E552E7CFD9FF12008C
:10319000D9CFE6FFE1CFD9FFFD0EDBCFE6FFFE0E74
:1031A000DBCFE6FF1EDEE552E552FB0EDBCFE6FF8E
:1031B000FC0EDBCFE6FFF5DDE552E552E552E7CF49
:1031C000D9FF1200D9CFE6FFE1CFD9FF41CF10F0F0
:1031D00042CF11F0040ED89010361136E806FBE10C
:1031E000C10E1026000E112210500F014325E96E6A
:1031F00011504421EA6EFE0EDBCFEFFF432B000E91
:103200004423E552E7CFD9FF1200D9CFE6FFE1CF43
:10321000D9FFE652DF6ADFCF10F0100EE76E10180C
:10322000E8AE02D0E73402D0E750105C18E2DFCFFE
:10323000E9FFEA6AE9BEEA68C10EE926000EEA2261
:10324000200EEF6EDFCFE9FFEA6AE9BEEA68D10E31
:10325000E926000EEA22200EEF6EDF2ADCD7E552C7
:10326000E552E7CFD9FF1200D9CFE6FFE1CFD9FF72
:10327000E6520001C051030A52E0010A36E0030A97
:103280001AE0010A67E1E66AE66AABDDE552E5525B
:10329000DF6A080EDF5C0CE2DF50EA6AC10FE96EFC
:1032A000000EEA22EF50E66E6FDDE552DF2AF1D71D
:1032B0000001010E32D0080EE66EE66A92DDE5529C
:1032C000E552DF6A080EDF5C0DE2080EDF24EA6AD1
:1032D000C10FE96E000EEA22EF50E66E55DDE552B1
:1032E000DF2AF0D70001020E18D0E66A010EE66E62
:1032F00078DDE552E552DF6A080EDF5C0CE2DF5054
:10330000EA6AD10FE96E000EEA22EF50E66E3CDD6C
:10331000E552DF2AF1D70001030EC06F1CD0080E62
:10332000E66E010EE66E5DDDE552E552DF6A080EDF
:10333000DF5C0DE2080EDF24EA6AD10FE96E000EB1
:10334000EA22EF50E66E20DDE552DF2AF0D70001D9
:10335000C06B01D0C06BE552E552E7CFD9FF120038
:10336000D9CFE6FFE1CFD9FFE6520001C051010AF3
:103370001BE0010A32E1E66AE66A33DDE552E55216
:10338000DF6A100EDF5C0CE2DF50EA6AC10FE96E03
:10339000000EEA22EF50E66EF7DCE552DF2AF1D7A5
:1033A0000001010EC06F1AD0E66A010EE66E19DD4B
:1033B000E552E552DF6A100EDF5C0CE2DF50EA6A8C
:1033C000D10FE96E000EEA22EF50E66EDDDCE55229
:1033D000DF2AF1D70001C06B01D0C06BE552E55286
:1033E000E7CFD9FF1200D9CFE6FFE1CFD9FFE652F0
:1033F000E66AE66AF6DCE552E552DF6A100EDF5C4B
:103400000CE2DF50EA6AC10FE96E000EEA22EF50CB
:10341000E66EBADCE552DF2AF1D7E66A010EE66E07
:10342000E0DCE552E552DF6A100EDF5C0CE2DF50B3
:10343000EA6AD10FE96E000EEA22EF50E66EA4DCD4
:10344000E552DF2AF1D7E552E552E7CFD9FF120066
:10345000D9CFE6FFE1CFD9FFFE0EDB50010B0F0104
:10346000416F426BFD0EDB500F0B436F446B41CF3E
:1034700010F042CF11F0040ED89010361136E80645
:10348000FBE1C10E1026000E112210500F01432542
:10349000E96E11504421EA6EFC0EDBCFEFFFE552DE
:1034A000E7CFD9FF1200D9CFE6FFE1CFD9FF020E57
:1034B000E126DF6AFE0EDB50010B0F01416F426B0C
:1034C000FD0EDB500F0B436F446BF90EDBCF10F09A
:1034D000FA0EDBCF11F0FB0EDBCF12F0FC0EDBCFD0
:1034E00013F0105011101210131005E1300EE66E9B
:1034F00069DEE552F5D0D950F90FE96EFF0EDA20FA
:10350000EA6ED890030EEB50000A08E6000EEE5C5F
:10351000000EEE58000EEE58000EEE5815E22D0E7D
:10352000E66E50DEE552D950F90FE96EFF0EDA2053
:10353000EA6E000EEE6CEF1EEE22EF1EEE22EF1E84
:10354000EF22ED52ED52ED52DE52070EDD6E010E0E
:10355000DBCF10F0000EE76E1018E8AE02D010348A
:1035600003D0E750D880105401E3BAD0010EDB0439
:10357000146E156A14BE156814C0E6FF15C0E6FF88
:103580000A0EE66EE66A54DCE552E552E552E55273
:1035900006C010F007C011F008C012F009C013F007
:1035A00006C00BF007C00CF008C00DF009C00EF00B
:1035B000F90EDBCF06F0FA0EDBCF07F0FB0EDBCF08
:1035C00008F0FC0EDBCF09F031EC28F006500710B4
:1035D0000810091041E0010EDF6EDB04186E196A55
:1035E00018BE196818C0E6FF19C0E6FF0A0EE66E9D
:1035F000E66A1EDCE552E552E552E55206C014F0DB
:1036000007C015F008C016F009C017F006C00BF08F
:1036100007C00CF008C00DF009C00EF0F90EDBCFAA
:1036200006F0FA0EDBCF07F0FB0EDBCF08F0FC0E46
:10363000DBCF09F031EC28F006C010F007C011F024
:1036400008C012F009C013F0300E1026000E11222F
:1036500012221322105003D0DF5004E0300EE66E29
:10366000B1DDE552010EDB04146E156A14BE156857
:1036700014C0E6FF15C0E6FF0A0EE66EE66A18EC17
:1036800017F0E552E552E552E55206C010F007C0CA
:1036900011F008C012F009C013F0D950F90FE96E0B
:1036A000FF0EDA20EA6E06C00BF007C00CF008C06F
:1036B0000DF009C00EF0EECF06F0EECF07F0EECF22
:1036C00008F0EFCF09F031EC28F005C0EDFF04C0A1
:1036D000EDFF03C0EDFF02C0EFFF010EDB0637D7A1
:1036E000020EE15C02E2E16AE552E16EE552E7CFEB
:1036F000D9FF1200D9CFE6FFE1CFD9FFFE0EDB5094
:10370000010B0F01416F426BFD0EDB500F0B436F3E
:10371000446BFB0EDBCFF6FFFC0EDBCFF7FF0800A0
:10372000F5500FE0FB0EDBCFF6FFDB2AFC0EDBCF04
:10373000F7FF01E3DB2A0800F550E66E43DDE552B2
:10374000E8D7E552E7CFD9FF1200D9CFE6FFE1CFA6
:10375000D9FF020EE126DE6ADD6AFE0EDB50010BA8
:103760000F01416F426B436B446BDE6ADD6ADECF53
:1037700010F0DDCF11F0D890115004E6100E105C5F
:10378000000E11581EE2FC0EDBCFF6FFFD0EDBCF64
:10379000F7FF0800F5500CE0FC0EDBCFF6FFDB2A4C
:1037A000FD0EDBCFF7FF01E3DB2A0800F55001D067
:1037B000200EE66E07DDE552DF2A010ED8E3DB2A94
:1037C000D6D7020EE15C02E2E16AE552E16EE55213
:0637D000E7CFD9FF120053
:0A37D600B06A810EAF6EAC8AAC94AD
:1037E000B886AC98AB8E9E9A9D8A9F9A949C120044
:1037F000B06A810EAF6EAC9AAC94B896AC88AB9EB2
:103800009E9A9D9A9F9A1200D9CFE6FFE1CFD9FFE9
:10381000040EE126DE6ADD6ADECF10F0DDCF11F0A6
:10382000FD0EDBCF12F0FE0EDBCF13F0115013189C
:10383000E8AE02D0133404D01250105C135011586B
:103840001DE2020EDB6A030EDB6A020EDBCF10F014
:10385000030EDBCF11F0D890115004E6EE0E105C91
:10386000000E115806E2020EDB2A030EEEE3DB2AFD
:10387000ECD7DF2A010ED0E3DB2ACED7040EE15CC1
:1038800002E2E16AE552E16EE552E7CFD9FF1200AC
:10389000D9CFE6FFE1CFD9FF9EA8FED7FE0EDB50C1
:1038A000AD6E9E98E552E7CFD9FF1200D9CFE6FF63
:1038B000E1CFD9FFFD0EDBCFE9FFFE0EDBCFEAFF44
:1038C000EF5010E0FD0EDBCFE9FFFE0EDBCFEAFF8D
:1038D000EF50E66EDDDFE552FD0EDB2AFE0EEAE379
:1038E000DB2AE8D7E552E7CFD9FF1200D9CFE6FFB0
:1038F000E1CFD9FFFD0EDBCFF6FFFE0EDBCFF7FFEA
:103900000800F55015E0FD0EDBCFF6FFFE0EDBCF15
:10391000F7FF0800F550E66EBBDFE552FD0EDBCF8A
:10392000F6FFDB2AFE0EDBCFF7FFE4E3DB2AE2D76C
:10393000E552E7CFD9FF1200D9CFE6FFE1CFD9FF9B
:10394000050EE126010EF36EDB6E020EDB6A030E3E
:10395000DB6A040EDB6ADF6ADFCF10F0116A10BE8B
:103960001168FB0EDBCF12F0FC0EDBCF13F0115011
:103970001318E8AE02D0133404D01250105C135068
:1039800011582DE2FD0EDBCF10F0FE0EDBCF11F053
:10399000126A136A11AE02D012681368D950010F6F
:1039A000E96EDACFEAFF10C00BF011C00CF012C0C4
:1039B0000DF013C00EF0EECF06F0EECF07F0EECF15
:1039C00008F0EFCF09F0F9EC27F005C0EDFF04C0D7
:1039D000EDFF03C0EDFF02C0EFFFDF2ABDD7010EF0
:1039E000DBCF10F0020EDBCF11F0030EDBCF12F0B5
:1039F000040EDBCF13F010C006F011C007F012C0A8
:103A000008F013C009F0050EE15C02E2E16AE5523C
:103A1000E16EE552E7CFD9FF1200D9CFE6FFE1CF43
:103A2000D9FF020EE126DF6AFB0EDBCF10F0FC0EA1
:103A3000DBCF11F0FD0EDBCF12F0FE0EDBCF13F06B
:103A4000105011101210131005E1300EE66E20DF39
:103A5000E552F4D0D950FB0FE96EFF0EDA20EA6E82
:103A6000D890030EEB50000A08E6000EEE5C000E44
:103A7000EE58000EEE58000EEE5815E22D0EE66ED2
:103A800007DFE552D950FB0FE96EFF0EDA20EA6E30
:103A9000000EEE6CEF1EEE22EF1EEE22EF1EEF2266
:103AA000ED52ED52ED52DE520A0EDD6E010EDBCF0D
:103AB00010F0000EE76E1018E8AE02D0103403D0FC
:103AC000E750D880105401E3B9D0010EDB04146E26
:103AD000156A14BE156814C0E6FF15C0E6FF0A0E8D
:103AE000E66EE66A29DFE552E552E552E55206C088
:103AF00010F007C011F008C012F009C013F006C0A2
:103B00000BF007C00CF008C00DF009C00EF0FB0E62
:103B1000DBCF06F0FC0EDBCF07F0FD0EDBCF08F0AD
:103B2000FE0EDBCF09F031EC28F00650071008102C
:103B3000091041E0010EDF6EDB04186E196A18BE31
:103B4000196818C0E6FF19C0E6FF0A0EE66EE66ABD
:103B5000F3DEE552E552E552E55206C014F007C027
:103B600015F008C016F009C017F006C00BF007C02A
:103B70000CF008C00DF009C00EF0FB0EDBCF06F014
:103B8000FC0EDBCF07F0FD0EDBCF08F0FE0EDBCF27
:103B900009F031EC28F006C010F007C011F008C0A1
:103BA00012F009C013F0300E1026000E112212225E
:103BB0001322105003D0DF5004E0300EE66E68DEB2
:103BC000E552010EDB04146E156A14BE156814C0AC
:103BD000E6FF15C0E6FF0A0EE66EE66AADDEE552C8
:103BE000E552E552E55206C010F007C011F008C0DA
:103BF00012F009C013F0D950FB0FE96EFF0EDA2066
:103C0000EA6E06C00BF007C00CF008C00DF009C04A
:103C10000EF0EECF06F0EECF07F0EECF08F0EFCFCC
:103C200009F031EC28F005C0EDFF04C0EDFF03C042
:103C3000EDFF02C0EFFF010EDB0638D7020EE15C9C
:103C400002E2E16AE552E16EE552E7CFD9FF1200E8
:103C5000D9CFE6FFE1CFD9FFFD0EDBCF10F0FE0E8E
:103C6000DBCF11F0640E0D6E0E6A10C008F011C0AB
:103C700009F0C3EC26F008C010F009C011F0126A78
:103C8000136A11AE02D01268136810C0E6FF11C0AB
:103C9000E6FF12C0E6FF13C0E6FFBFDEE552E552C5
:103CA000E552E5522E0EE66EF3DDE552FD0EDBCF5A
:103CB00010F0FE0EDBCF11F0640E0D6E0E6A10C018
:103CC00008F011C009F0C3EC26F004C010F005C0E4
:103CD00011F0126A136A11AE02D01268136810C094
:103CE000E6FF11C0E6FF12C0E6FF13C0E6FF95DE57
:103CF000E552E552E552E552E552E7CFD9FF120011
:103D0000D9CFE6FFE1CFD9FFE652AE50DF6EBE0E4F
:103D1000E66E4B0EE66EE66A010EE66E7AEC1BF07E
:103D2000E552E552E552E552DFCF10F0116A126A12
:103D3000136A10C0E6FF11C0E6FF12C0E6FF13C011
:103D4000E6FFE66A010EE66E53EC1AF0146E060EFC
:0E3D5000E15E1450E552E552E7CFD9FF1200B4
:023D5E00D9CFBB
:103D6000E6FFE1CFD9FFD59EFD0EDBCF00FFFE0EB3
:103D7000DBCF01FFD59C13681468156A00CF16F0DD
:103D800001CF17F0186A1650135C106E17501458B4
:103D9000116E18501558126E0C6A010E0D6E0E6AD7
:103DA00010C007F011C008F012C009F0E9EC26F0CD
:103DB0000350D66E13681468156A00CF16F001CF51
:103DC00017F0186A1650135C106E17501458116EC5
:103DD00018501558126E0C6A010E0D6E0E6A10C046
:103DE00007F011C008F012C009F0E9EC26F007C096
:103DF00010F008C011F009C012F00750D76ED59A24
:103E0000D586F28AF294F184D58EE552E7CFD9FFB8
:103E10001200D59E120013681468156A00CF16F0C0
:103E200001CF17F0186A1650135C106E1750145813
:103E3000116E18501558126E0C6A010E0D6E0E6A36
:103E400010C007F011C008F012C009F0E9EC26F02C
:103E50000350D66E13681468156A00CF16F001CFB0
:103E600017F0186A1650135C106E17501458116E24
:103E700018501558126E0C6A010E0D6E0E6A10C0A5
:103E800007F011C008F012C009F0E9EC26F007C0F5
:103E900010F008C011F009C012F00750D76ED58E8F
:103EA0001200D9CFE6FFE1CFD9FFCD90FD0EDBCFD9
:103EB00002FFFE0EDBCF03FF13681468156A02CF02
:103EC00016F003CF17F0186A1650135C106E1750D7
:103ED0001458116E18501558126E0C6A010E0D6EA2
:103EE0000E6A10C007F011C008F012C009F0E9EC2A
:103EF00026F00750CF6E13681468156A02CF16F0CB
:103F000003CF17F0186A1650135C106E1750145830
:103F1000116E18501558126E0C6A010E0D6E0E6A55
:103F200010C007F011C008F012C009F0E9EC26F04B
:103F300003C010F004C011F005C012F00350CE6EA3
:103F40009D809E909F90CD8ECD8CCD98CD9ACD9614
:103F5000CD92CD80E552E7CFD9FF120013681468E7
:103F6000156A02CF16F003CF17F0186A1650135CCB
:103F7000106E17501458116E18501558126E0C6AA6
:103F8000010E0D6E0E6A10C007F011C008F012C0CD
:103F900009F0E9EC26F00750CF6E13681468156A33
:103FA00002CF16F003CF17F0186A1650135C106E8C
:103FB00017501458116E18501558126E0C6A010ED5
:103FC0000D6E0E6A10C007F011C008F012C009F0A3
:103FD000E9EC26F003C010F004C011F005C012F0A7
:103FE0000350CE6ECD801200CD901200D9CFE6FFE7
:103FF000E1CFD9FFCA94CC6AFE0EDB500F01046FEB
:10400000056BCB6E9D829E929F92CA90CA92CA8483
:10401000E552E7CFD9FF120004CFCBFFCA841200CC
:10402000CA941200D9CFE6FFE1CFD9FFB190FD0EBF
:10403000DBCF06FFFE0EDBCF07FF13681468156A9F
:1040400006CF16F007CF17F0186A1650135C106EE3
:1040500017501458116E18501558126E0C6A010E34
:104060000D6E0E6A10C007F011C008F012C009F002
:10407000E9EC26F00750B36E13681468156A06CF92
:1040800016F007CF17F0186A1650135C106E175011
:104090001458116E18501558126E0C6A010E0D6EE0
:1040A0000E6A10C007F011C008F012C009F0E9EC68
:1040B00026F003C010F004C011F005C012F0035048
:1040C000B26EA082A192A292B18EB198B19AB19231
:1040D000B180E552E7CFD9FF120013681468156A62
:1040E00006CF16F007CF17F0186A1650135C106E43
:1040F00017501458116E18501558126E0C6A010E94
:104100000D6E0E6A10C007F011C008F012C009F061
:10411000E9EC26F00350B26E13681468156A06CFF6
:1041200016F007CF17F0186A1650135C106E175070
:104130001458116E18501558126E0C6A010E0D6E3F
:104140000E6A10C007F011C008F012C009F0E9ECC7
:1041500026F007C010F008C011F009C012F0075097
:10416000B36EB1801200B19012000F01102B000E3F
:1041700011231851105D1951115904E3106B116B83
:10418000010E086F12000F01122B000E13231A519B
:10419000125D1B51135904E3126B136B010E096F6F
:1041A00012000F01142B000E15231C51145D1D511C
:1041B000155904E3146B156B010E0A6F12000F0101
:1041C000162B000E17231E51165D1F51175904E3BD
:1041D000166B176B010E0B6F1200D9CFE6FFE1CF04
:1041E000D9FFFD0EDBCF18FFFE0EDBCF19FF0F014D
:1041F000106B116B086BE552E7CFD9FF1200D9CFD6
:10420000E6FFE1CFD9FFFD0EDBCF1AFFFE0EDBCFBD
:104210001BFF050E0D6E0E6A1ACF08F01BCF09F0BA
:10422000C3EC26F008C01AFF09C01BFF0F01126B78
:10423000136B096BE552E7CFD9FF1200D9CFE6FF28
:10424000E1CFD9FFFD0EDBCF1EFFFE0EDBCF1FFF40
:104250000A0E0D6E0E6A1ECF08F01FCF09F0C3ECD8
:1042600026F008C01EFF09C01FFF0F01166B176B59
:0A4270000B6BE552E7CFD9FF1200F7
:06427A000F0E946E826835
:104280001200CF0E9414946E82681200D9CFE6FF0C
:10429000E1CFD9FF050EE126040EDB6ADE6ADD6A96
:1042A000DECF10F0DDCF11F0D890115004E6040EEF
:1042B000105C000E115801E390D0DECFE9FFDDCF96
:1042C000EAFFED0EE926010EEA22EF1C826E020ED5
:1042D000DB6A030EDB6A020EDBCF10F0030EDBCFCE
:1042E00011F0D890115004E6040E105C000E115825
:1042F0006EE2020EDBCFE9FF030EDBCFEAFFF10E29
:10430000E926010EEA22EF5082143FE1DECF14F0DD
:10431000DDCF15F0D89014361536D89014361536F2
:10432000020EDB501424E96E030EDB501520EA6EFA
:10433000D890E936EA36CD0EE926010EEA22EECF14
:1043400012F0EFCF13F0010E1226000E1322DECF73
:1043500010F0DDCF11F0D89010361136D89010360D
:104360001136020EDB501024E96E030EDB501120D3
:10437000EA6ED890E936EA36CD0EE926010EEA2239
:1043800012C0EEFF13C0EDFF1BD0DECF10F0DDCF6B
:1043900011F0D89010361136D89010361136020E22
:1043A000DB501024E96E030EDB501120EA6ED8902A
:1043B000E936EA36CD0EE926010EEA22EE6AED6A0A
:1043C000020EDB2A030E01E286D7DB2A84D7DF2A1E
:1043D000010E01E265D7DB2A63D7050EE15C02E23C
:1043E000E16AE552E16EE552E7CFD9FF1200D9CF7D
:1043F000E6FFE1CFD9FF050EE126040EDB6ADE6A97
:10440000DD6ADECF10F0DDCF11F0D890115004E658
:10441000020E105C000E115801E399D0DECFE9FFC7
:10442000DDCFEAFFED0EE926010EEA22EF1C821431
:10443000826E0F0E8210826E020EDB6A030EDB6A42
:10444000020EDBCF10F0030EDBCF11F0D89011502D
:1044500004E6040E105C000E115873E2020EDBCF6E
:10446000E9FF030EDBCFEAFFF10EE926010EEA2297
:10447000EF50821444E1DECF14F0DDCF15F0D89078
:1044800014361536D89014361536020EDB50142427
:10449000E96E030EDB501520EA6ED890E936EA3655
:1044A000CD0EE926010EEA22EECF12F0EFCF13F087
:1044B000010E1226000E1322DECF10F0DDCF11F018
:1044C000D89010361136D89010361136020EDB50C7
:1044D0001024E96E030EDB501120EA6ED890E93605
:1044E000EA36CD0EE926010EEA2212C0EEFF13C015
:1044F000EDFF010EF36E040EF3CFDBFF1BD0DECF1A
:1045000010F0DDCF11F0D89010361136D89010365B
:104510001136020EDB501024E96E030EDB50112021
:10452000EA6ED890E936EA36CD0EE926010EEA2287
:10453000EE6AED6A020EDB2A030E01E281D7DB2A66
:104540007FD7DF2A010E01E25CD7DB2A5AD7040E9F
:10455000DB0404E10101010EF56F02D00101F56BEE
:10456000050EE15C02E2E16AE552E16EE552E7CF59
:10457000D9FF1200D9CFE6FFE1CFD9FF040EE12623
:10458000DE6ADD6ADECF10F0DDCF11F0FD0EDBCF8D
:1045900012F0FE0EDBCF13F011501318E8AE02D06C
:1045A000133404D01250105C135011581DE2020E47
:1045B000DB6A030EDB6A020EDBCF10F0030EDBCFEB
:1045C00011F0D890115004E6EE0E105C000E115858
:1045D00006E2020EDB2A030EEEE3DB2AECD7DF2A2B
:1045E000010ED0E3DB2ACED7040EE15C02E2E16AE1
:1045F000E552E16EE552E7CFD9FF1200D9CFE6FFD1
:10460000E1CFD9FF040EE126DE6ADD6ADECF10F0CD
:10461000DDCF11F0D890115004E6040E105C000EAE
:10462000115875E2DECFE9FFDDCFEAFFED0EE92696
:10463000010EEA22EF1C826E020EDB6A030EDB6AB9
:10464000020EDBCF10F0030EDBCF11F0D89011502B
:1046500004E6040E105C000E11584AE2DECF10F0A2
:10466000DDCF11F0D89010361136D89010361136B3
:10467000020EDB501024E96E030EDB501120EA6EAF
:10468000D890E936EA36CD0EE926010EEA22EE6A26
:10469000ED6A020EDBCFE9FF030EDBCFEAFFF10E7E
:1046A000E926010EEA22EF5082141CE1DECF10F061
:1046B000DDCF11F0D89010361136D8901036113663
:1046C000020EDB501024E96E030EDB501120EA6E5F
:1046D000D890E936EA36CD0EE926010EEA22010E1F
:1046E000EE6EED6A020EDB2A030EAAE3DB2AA8D7E0
:1046F0008250816EE80EE66E030EE66E3BDFE552F9
:10470000E552DF2A010E01E281D7DB2A7FD7040EB2
:10471000E15C02E2E16AE552E16EE552E7CFD9FFE2
:02472000120085
:0E472200D9CFE6FFE1CFD9FF020EE126FE0E51
:10473000DB500F0BDF6EFE0EDB380F0B0A0D010E88
:10474000F3CFDBFFDB50DF24106E020EE15C02E2F0
:10475000E16AE552E16E1050E552E7CFD9FF120051
:10476000D9CFE6FFE1CFD9FF020EE1260A0E106E87
:104770000E6EFE0EDBCF09F0A6EC28F00550DF6EC2
:104780000A0E106E0E6EFE0EDBCF09F0A6EC28F0BE
:104790000950100D010EF3CFDBFFDB50DF24106E4C
:1047A000020EE15C02E2E16AE552E16E1050E55270
:1047B000E7CFD9FF1200949694981200D9CFE6FF64
:1047C000E1CFD9FFE652DF6AFE0EDB50DF5C02E28A
:1047D000DF2AFAD7E552E552E7CFD9FF120082A8C7
:1047E000000C010C0001FC5102E082888286829854
:1047F0008296010EFC6F12008298828682880001E8
:10480000FC6B1200D9CFE6FFE1CFD9FF020EE12603
:10481000DF6ADFCF10F0080EE76E1018E8AE02D0A6
:10482000E73402D0E750105C0FE2FE0EDBBE02D090
:10483000829801D0828882868296DB50020DFE0E1D
:10484000F3CFDBFFDF2AE5D794888286C8DFE76EE7
:10485000010EE7CFDBFF82969498DB50106E020EBC
:10486000E15C02E2E16AE552E16E1050E552E7CF09
:10487000D9FF1200D9CFE6FFE1CFD9FF020EE12622
:10488000DF6A9488010EDB6ADBCF10F0080EE76E5A
:104890001018E8AE02D0E73402D0E750105C0BE20B
:1048A00082869DDF106EDF50E8241010DF6E829646
:1048B000010EDB2AE9D79498FE0EDB5002E08288D5
:1048C00001D0829882868296DF50106E020EE15CE3
:1048D00002E2E16AE552E16E1050E552E7CFD9FFFE
:1048E0001200D9CFE6FFE1CFD9FF7CDFD00EE66E14
:1048F00089DFE552FE0EDBCFE6FF84DFE552FD0ED9
:10490000DBCFE6FF2DDFE552E66E7CDFE55274DF9C
:10491000E552E7CFD9FF1200D9CFE6FFE1CFD9FFAB
:10492000E65260DFD00EE66E6DDFE552FE0EDBCFA5
:10493000E6FF68DFE55256DFD10EE66E63DFE55233
:10494000010EE66E97DFE552DF6EDFCFE6FFE9DEB0
:10495000E552DF6E51DFDF50E552E552E7CFD9FF78
:104960001200D9CFE6FFE1CFD9FFFD0EDBCFE6FF86
:10497000FE0EDBCFE6FFB5DFE552E552E552E7CFAD
:10498000D9FF1200D9CFE6FFE1CFD9FFFE0EDBCF72
:0E499000E6FFC2DFE552E552E7CFD9FF120085
:02499E0043488C
:1049A000414E4745204C4154452054494D45002037
:1049B00020004348414E47452054494D45003A00A8
:1049C000300030300050415353574F52442057521B
:1049D0004F4E47202000434C454152204348454319
:1049E0004B20494E004E4558542049442020202059
:1049F000005052455353202320544F20454E5445D8
:104A00005220004F50454E494E4720444F4F5220B0
:104A1000202020005620202020200054202020206C
:104A2000200048442020202020004C4F47202020F8
:104A30002020004E45572050572049442000524521
:104A40004D4F564520434F4D504C45544500593A23
:104A5000454E544552004E3A4241434B0052454D5B
:104A60004F56452049442000342E2000332E20008C
:104A7000322E2000312E200050415353574F5244C4
:104A80003A20004E4557204944203A2000505720F4
:104A9000464F522049442000312E4348414E47455D
:104AA000204D454D20505700322E52454D4F564512
:104AB000204D454D42455200312E414444204D4544
:104AC0004D424552004348414E47452053554343CC
:104AD000455353004348414E4745204144205041EF
:104AE00053530000312E4348414E4745204C2E542D
:104AF000494D4500322E4348414E47452054494DCB
:104B00004500312E434C45415220434845434B20FC
:104B1000494E00322E435245415445204C4F4700E8
:104B2000312E4D414E414745205553455200434893
:104B3000414E474520555345522050415353003272
:104B40002E4348414E4745205041535300312E4F8C
:104B500050454E20444F4F52002A002000504153F0
:104B60005320464F522049442000496E76616C69BB
:104B700064204944202020202020002020202020C4
:104B8000202020202020202000454E54455220493E
:104B90004420202020202020200020202020202011
:104BA0002020202020202020202000505245535338
:104BB000202320464F5220504153530046002020CE
:024BC0002000D3
:0E4BC200F28ED08EF28C1200F19CF292F288EC
:104BD0001200D8CFE4FFE0CFE4FFE46EDACFE4FFC9
:104BE000E2CFDAFFE9CFE4FFEACFE4FFF6CFE4FF5C
:104BF000F7CFE4FFF5CFE4FFF3CFE4FFF4CFE4FF1A
:104C0000FACFE4FF00EE00F0100EE80403E3EECF6D
:104C1000E4FFFBD700EE10F00A0EE80403E3EECF4A
:104C2000E4FFFBD7E652F2A407D009EC1FF0F294A0
:104C30000BEC1FF0B5EC20F09EA007D0F4EC1FF0B9
:104C40009E90AEEC1FF0C3EC20F0A1A207D0B3EC15
:104C500020F0A1926DEC20F0DFEC20F0F2B2F292A5
:104C60009EBA9E9AE55200EE19F00A0EE80403E39C
:104C7000E5CFEDFFFBD700EE0FF0100EE80403E3E5
:104C8000E5CFEDFFFBD7E5CFFAFFE5CFF4FFE5CFAA
:104C9000F3FFE5CFF5FFE5CFF7FFE5CFF6FFE5CF73
:104CA000EAFFE5CFE9FFE5CFDAFFE550E5CFE0FF2A
:104CB000E5CFD8FF1000DACFE4FFE2CFDAFFE9CF8B
:104CC000E4FFEACFE4FFF6CFE4FFF7CFE4FFF5CF50
:104CD000E4FFF3CFE4FFF4CFE4FFFACFE4FF00EE0C
:104CE00000F0100EE80403E3EECFE4FFFBD700EE84
:104CF00010F00A0EE80403E3EECFE4FFFBD7E65220
:104D0000F2A407D009EC1FF0F2940BEC1FF0B5EC05
:104D100020F09EA007D0F4EC1FF09E90AEEC1FF0A8
:104D2000C3EC20F0A1A207D0B3EC20F0A1926DEC6F
:104D300020F0DFEC20F0F2B2F2929EBA9E9AE55299
:104D400000EE19F00A0EE80403E3E5CFEDFFFBD710
:104D500000EE0FF0100EE80403E3E5CFEDFFFBD704
:104D6000E5CFFAFFE5CFF4FFE5CFF3FFE5CFF5FFA1
:104D7000E5CFF7FFE5CFF6FFE5CFEAFFE5CFE9FFA7
:064D8000E5CFDAFF11008F
:0A4D8600006A0EAECCEF26F00D6CB3
:104D90000E1EE86A0E22001E09AED4EF26F0086C43
:104DA000091EE86A0922001E72EC28F009BEE4EF31
:104DB00026F000AE000C086C091EE86A0922046C9B
:104DC000051EE86A0522000C00BEDBEF26F0018814
:104DD000FF0C006A0EAEF4EF26F00C6C0D1E0E1EDA
:104DE000E86A0D220E22001E09AEFEEF26F0076CC7
:104DF000081E091EE86A08220922001E55EC28F048
:104E000009BE11EF27F000AE000C076C081E091E4A
:104E1000E86A08220922036C041E051E04220522EA
:0C4E2000000C00BE05EF27F00188FF0C1D
:044E2C001E0EF66EF2
:104E3000000EF76E000EF86E01010900F550FB6FD1
:104E40000900F550FC6F03E1FB6701D03DD009007C
:104E5000F550F66F0900F550F76F0900F550F86F3F
:104E600009000900F550E96E0900F550EA6E0900E5
:104E700009000900F550F96F0900F550FA6F0900B3
:104E80000900F6CFFDF1F7CFFEF1F8CFFFF1F6C143
:104E9000F6FFF7C1F7FFF8C1F8FF0101F95302E18E
:104EA000FA5307E00900F550EE6EF907F8E2FA0749
:104EB000F9D7FDC1F6FFFEC1F7FFFFC1F8FF010101
:0A4EC000FB07000EFC5BBFD71200D9
:064ECA00D9CFE6FFDACFAC
:104ED000E6FFFA0EE3CFD9FFFB0EE3CFDAFFFC0EBD
:104EE000E3CFE9FFFD0EE3CFEAFFE9CFF3FFEACF1F
:104EF000F4FFE950D95CEA50DA580EE3F80EE350BB
:104F000003E1F90EE35024E0F80EE30602E2F90EA5
:104F1000E306DECFEEFFF2D7F80EE350D926F90E06
:104F2000E350DA22DD52F80EE350E926F90EE350A1
:104F3000EA22ED52F80EE35003E1F90EE35008E0E7
:104F4000F80EE30602E2F90EE306DDCFEDFFF2D73D
:104F5000FF0EE3CFDAFFE552FF0EE3CFD9FFE552B4
:024F600012003D
:0E4F6200010E926E0E0EC16EC26A040EC06E7B
:104F7000C2801200D9CFE6FFE1CFD9FF020EE126B1
:104F8000DE6ADD6AC282C2B2FED7C450DE6EDD6A5E
:104F9000DECF12F0DDCF13F0D89012361336D89052
:104FA00012361336060EC3CFE7FF070B04E0E742C5
:104FB000E79EE806FCE1E7501224106E000E132075
:104FC00010C0DEFFDD6EDECF20FFDDCF21FFDECFA4
:104FD00010F0DDCF11F010C0F3FF11C0F4FF020E8E
:104FE000E15C02E2E16AE552E16EE552E7CFD9FF0A
:024FF0001200AD
:0E4FF20006500B02F3CF02F0F4CF03F00C02D6
:10500000F3500326000EF420046E06500D02F350F8
:105010000426000EF420056E06500E02F3500526FD
:1050200007500B02F3500326F4500422000E052211
:1050300007500C02F3500426F450052207500D02CD
:10504000F350052608500B02F3500426F4500522B5
:1050500008500C02F350052609500B02F3500526A8
:0250600012003C
:0E506200056A046A036A026A200EE76ED8909F
:105070000636073608360936023603360436053654
:105080000B50025C0C5003580D5004580E5005583C
:1050900009E30B50025E0C50035A0D50045A0E5097
:0A50A000055A062AE72EE4D7120095
:0650AA00056A046A036AB6
:1050B000180EE76ED89007360836093603360436E0
:1050C00005360C50035C0D5004580E50055807E38C
:1050D0000C50035E0D50045A0E50055A072AE72E55
:0450E000EAD71200F9
:0C50E400056A046A100EE76ED8900836CA
:1050F0000936043605360D50045C0E50055805E39C
:105100000D50045E0E50055A082AE72EF0D7120003
:10511000800EF36E00EE00F00F0E01D81200EA6070
:1051200002D0EE6AFCD7F350E9601200EE6AFCD7B9
:105130001EEE00F02EEE00F0F86A019C16EC27F04F
:0C51400003EC00F034EC00F0FBD7120090
:04514C00056A080EDA
:10515000E76ED890093605360E50055C02E3056E01
:08516000092AE72EF7D712001F
:0851680000000000000000003F
:10517000000000000000000000000000000000002F
:08518000010001000100010023
:08518800010204081020408020
:10519000000000000000000000000000000000000F
:1051A00000000000000000000000010102034104B3
:1051B000050642070809432A004544010203040585
:1051C000060207080907080303030303030408068C
:1051D0000802010541424344BC00000102030405EA
:1051E0000602010002070809070802020003030380
:1051F0000303030203000408060802010200000082
:10520000000000000000000000000000000000009E
:10521000000000000000000000000000000000008E
:10522000000000000000000000000000000000007E
:105230000000000000000000000000000400040066
:1052400003090A0B17191A08000D0E0F0A000000B7
:0552500000031601003F
:0B52550000000000000000001010101E
:10526000101010101018181818181818181C1C1CDA
:105270001C1C1C1C1C1E1E1E1E1E1E1E1E1F1F1F55
:105280001F1F1F1F1F000000000000000000000083
:10529000000000000000000000000000000000000E
:1052A00000000000000000000000000000000000FE
:0652B000000000000000F8
:0A52B600000000D00022222207258C
:1052C00009100001000000000000000000000000C4
:0252D0000000DC
:0E52D2000000000000000000000000000000CE
:1052E00000000000000000000000000000000000BE
:0B52F0000000102040800102040800B4
:020000040030CA
:0100010002FC
:0100020003FA
:010003001EDE
:010005008179
:010006008178
:010008000FE8
:01000900C036
:01000A000FE6
:01000B00E014
:01000C000FE4
:01000D0040B2
:00000001FF
