:020000040000FA
:0600000052EF25F0120092
:020006001200E6
:0600080015EF23F01200C9
:02000E000000F0
:020010000000EE
:06001800A3EF22F012002C
:02001E000600DA
:100020003E4C0000C501000029000000224C0000E9
:10003000E10000001C0000000E0000003E0F000068
:1000400004000000C14B00008000000061000000BF
:10005000FC4A000000010000C5000000DC4A00006E
:08006000000F00002000000069
:08006800D9CFE6FFE1CFD9FF7B
:10007000020EE126DE6ADD6A4ED80F010B51FDE06B
:100080000B6B10EC1EF09CD9FEEC15F0F6D7D9CF17
:10009000E6FFE1CFD9FF040EE126DE6ADD6ADECF9E
:1000A00010F0DDCF11F0FD0EDBCF12F0FE0EDBCF36
:1000B00013F011501318E8AE02D0133404D01250CC
:1000C000105C135011581DE2020EDB6A030EDB6A4E
:1000D000020EDBCF10F0030EDBCF11F0D8901150E1
:1000E00004E6EE0E105C000E115806E2020EDB2A4A
:1000F000030EEEE3DB2AECD7DF2A010ED0E3DB2A86
:10010000CED7040EE15C02E2E16AE552E16EE5520F
:10011000E7CFD9FF1200936A956A2FEC12F0CFEC6B
:1001200015F09BEC22F0E80EE66E030EE66EAFDFF4
:10013000E552E552570EE66E120EE66E79EC1BF0B4
:10014000E552E552AE0EE66E240EE66E1BEC1CF098
:10015000E552E552660EE66EB70EE66EDCEC1CF07C
:10016000E552E552020EE66EE66AB7EC1DF0E55286
:10017000E5520A0EE66EE66AC9EC1DF0E552E5525C
:10018000320EE66EE66AE8EC1DF0E552E55207EF46
:100190001EF0D9CFE6FFE1CFD9FFFE0EDBCF11F085
:1001A000800E11141AE1FD0EDBCF12F0FE0EDBCF34
:1001B00013F0133404E212500708000E13540DE339
:1001C000FD0EDBCFE9FFFE0EDBCFEAFF000EE926D6
:1001D000010EEA22EF508310836EE552E7CFD9FF7C
:1001E0001200D9CFE6FFE1CFD9FFFE0EDBCF11F031
:1001F000800E11141AE1FD0EDBCF12F0FE0EDBCFE4
:1002000013F0133404E212500708000E13540DE3E8
:10021000FD0EDBCFE9FFFE0EDBCFEAFF000EE92685
:10022000010EEA22EF1C8314836EE552E7CFD9FF5B
:100230001200D9CFE6FFE1CFD9FFFD0EDBCFE9FFFA
:10024000FE0EDBCFEAFF080EE926010EEA22EF04DC
:1002500015E1FD0EDBCFE6FFFE0EDBCFE6FFC1DFD3
:10026000E552E552FD0EDBCFE9FFFE0EDBCFEAFFE4
:10027000080EE926010EEA22EF6A15D0FD0EDBCF4B
:10028000E6FFFE0EDBCFE6FF84DFE552E552FD0E12
:10029000DBCFE9FFFE0EDBCFEAFF080EE926010EF9
:1002A000EA22010EEF6EE552E7CFD9FF1200D9CF57
:1002B000E6FFE1CFD9FF020EE126DE6ADD6ADECF7E
:1002C00010F0DDCF11F0113404E210500708000ED9
:1002D000115421E3DECFE6FFDDCFE6FF5ADFE55222
:1002E000E552F40EE66E010EE66ED1DEE552E55201
:1002F000DECFE6FFDDCFE6FF74DFE552E552F40E18
:10030000E66E010EE66EC3DEE552E552DF2A010E0F
:10031000D6E3DB2AD4D7020EE15C02E2E16AE552C1
:10032000E16EE552E7CFD9FF1200D9CFE6FFE1CF6A
:10033000D9FF020EE126DE6ADD6ADE6ADD6ADECF03
:1003400010F0DDCF11F00101AF51105CB051115828
:100350002BE2DECFE9FFDDCFEAFF090EEA02F3CFA1
:10036000EAFFE902F3CFE9FFF450EA264C0EE92652
:10037000010EEA22EECF10F0EFCF11F0FD0EDB50B0
:1003800010180DE1FE0EDB50111809E1DECF10F060
:10039000DDCF11F010C0F3FF11C0F4FF07D0DF2A4A
:1003A000010ECDE3DB2ACBD7F368F468020EE15CE3
:1003B00002E2E16AE552E16EE552E7CFD9FF1200B1
:1003C000D9CFE6FFE1CFD9FF020EE1260101A85106
:1003D000040A02E196EF0DF0130A02E178EF0DF046
:1003E0000F0A02E14EEF0DF01B0A02E113EF0DF0D0
:1003F000080A02E17FEF0CF01F0A02E13FEF0CF068
:10040000070A02E1B7EF0BF01C0A02E143EF0AF022
:100410001D0A02E1D8EF09F0030A02E160EF09F0DA
:100420001F0A02E1E6EF07F01E0A02E115EF07F0EE
:100430001D0A02E190EF06F0070A01E194D3060AD3
:1004400001E149D3050A01E1DBD2010A01E144D20D
:100450001E0A01E1D6D1030A01E18FD1170A01E199
:1004600079D1030A01E1EFD0060A01E1D3D0010AF4
:1004700001E1B5D0030A30E0050A02E0ACEF0DF06F
:100480001F0EE66E450EE66EE66AE66A44EC18F06C
:10049000E552E552E552E5520E0EE66E450EE66E69
:1004A000E66A010EE66E44EC18F0E552E552E552BC
:1004B000E5523FEC0EF00101010E1D6F20EC0EF035
:1004C000000902E1ACEF0DF015EC0FF00101A66B95
:1004D000A76B050E41EF0AF0AB2B000EAC23FD0E0F
:1004E000E66E440EE66EE66AE66A44EC18F0E55203
:1004F000E552E552E552F7EC0DF0000933E0410E0C
:100500000101FE5D14E10101AA51000828E20A0E72
:100510000D6E0E6AA6C108F0A7C109F02CEC25F0FB
:1005200008C0A6F109C0A7F10101AA0718D00A0E58
:10053000FE5D15E2A6C110F0A7C111F00A0E11026E
:10054000F3CF11F01002F3CF10F0F4501126FE514A
:100550000101F324A66F000E1120A76FAA2B010141
:10056000AB6BAC6BAAC1E6FFA6C1E6FFA7C1E6FF75
:10057000000EE66EE66A010EE66EE66A5DEC0EF0CF
:10058000106E070EE15E1050EF0EE66E440EE66E42
:10059000030EE66E010EE66E44EC18F0E552E552ED
:1005A000E552E552030E0101AA5D04E220EC0EF0D3
:1005B000000905E015EC0FF00101060EA86F28EC0C
:1005C0000EF0000902E00101A86B01012C0EAB5DE9
:1005D000010EAC5902E2ACEF0DF076EF0DF0AB6B13
:1005E000AC6BA6C1E6FFA7C1E6FF9FDEE552E55270
:1005F000F3CFADF1F4CFAEF10101F31C01E1AE1D7B
:1006000006E0010EA86FCFEC15F0ACEF0DF0070E71
:1006100041EF0AF0AB2B000EAC23DE0EE66E440E6B
:10062000E66EE66AE66A44EC18F0E552E552E552F9
:10063000E5520101280EAB5D000EAC5902E2ACEFB1
:100640000DF076EF0DF0D10EE66E440EE66EE66A22
:10065000E66A44EC18F0E552E552E552E552ADC1C8
:10066000E9FFAEC1EAFF090EEA02F3CFEAFFE902B1
:10067000F3CFE9FFF450EA264C0EE926010EEA22F8
:10068000EECF10F0EFCF11F0126A136A10C0E6FF40
:1006900011C0E6FF12C0E6FF13C0E6FF0D0EE66EC6
:1006A000E66A1DEC17F0146E060EE15E14500101AF
:1006B000AB2B000EAC23F7EC0DF0000936E0410E39
:1006C0000101FE5D14E10101A95100082BE2A90717
:1006D000CF0EE66E440EE66EA9C1E6FF010EE66E91
:1006E00044EC18F0E552E552E552E5521BD00A0EF3
:1006F000FE5D18E2CD0EE66E440EE66EA9C1E6FF81
:10070000010EE66E44EC18F0E552E552E552E55272
:100710000101A951EA6AF80FE96E010EEA22FEC151
:10072000EFFFA92B0101AB6BAC6B060E0101A95DBC
:1007300002E3020EA86F2C0EAB5D010EAC5901E373
:10074000A86B28EC0EF0000902E1ACEF0DF00101FE
:1007500076EF0DF0AB6BAC6BA96BB6EC0DF000094E
:1007600008E00101AD51AE1101E1D8D2150E41EF03
:100770000AF00101040E41EF0AF0AB2B000EAC238E
:10078000C10EE66E440EE66EE66A6FEC18F0E552B6
:10079000E552E552B30EE66E440EE66E010EE66ECD
:1007A0006FEC18F0E552E552E55228EC0EF0000926
:1007B00002E00101A86B0101010EC51906E1C65155
:1007C00004E1C2C1A8F115EC0FF00101010EC71937
:1007D00006E1C85104E1C3C1A8F115EC0FF0F7EC34
:1007E0000DF0000903E00101AB6BAC6B01012C0EB5
:1007F000D880AB55010EAC5502E3ACEF0DF076EFAF
:100800000DF0AB2B000EAC23A20EE66E440EE66E8E
:10081000E66A6FEC18F0E552E552E552F7EC0DF0A0
:1008200000093AE0410E0101FE5D14E10101A95108
:1008300000082FE2A907CF0EE66E440EE66EA9C1AE
:10084000E6FF010EE66E44EC18F0E552E552E55283
:10085000E5521FD00A0EFE5D1CE2060E0101A95DE5
:1008600018E2CD0EE66E440EE66EA9C1E6FF010E5B
:10087000E66E44EC18F0E552E552E552E55201010E
:10088000A951EA6AF80FE96E010EEA22FEC1EFFFF4
:10089000A92B0101AB6BAC6B20EC0EF0000908E05A
:1008A000060E0101A95D04E30C0EA86F15EC0FF014
:1008B00028EC0EF0000905E00101150EA86F15ECFB
:1008C0000FF001012C0ED880AB55010EAC5502E3A0
:1008D000ACEF0DF076EF0DF0AB2B000EAC23B95161
:1008E000020A20E0030A10E0010A31E1C10EE66EBF
:1008F000440EE66EE66A6FEC18F0E552E552E552FA
:10090000B30EE66E440E1BD0940EE66E440EE66EF9
:10091000E66A6FEC18F0E552E552E552870EE66E96
:10092000440E0DD0760EE66E440EE66EE66A6FEC6F
:1009300018F0E552E552E552750EE66E440EE66E8D
:10094000010EE66E6FEC18F0E552E552E55220EC30
:100950000EF000090FE00101B929106E030E116EAF
:100960000E6E10C009F060EC25F005C0B9F1010170
:10097000AB6BAC6B28EC0EF0000902E00101A86B38
:100980000101010EC51911E1C6510FE10101B95173
:10099000E96EEA6AD890E936EA36B30EE926010E26
:1009A000EA22EFCFA8F115EC0FF00101010EC719F3
:1009B00015E1C85113E10101B951E96EEA6AD89015
:1009C000E936EA36B30EE926010EEA22010EE926DF
:1009D000000EEA22EFCFA8F115EC0FF0F7EC0DF0C6
:1009E000000903E00101AB6BAC6B01012C0ED88058
:1009F000AB55010EAC5502E3ACEF0DF076EF0DF008
:100A0000AB2B000EAC23660EE66E440EE66EE66A75
:100A10006FEC18F0E552E552E552F7EC0DF00009E5
:100A20003AE0410E0101FE5D14E10101A951000807
:100A30002FE2A907CF0EE66E440EE66EA9C1E6FFCF
:100A4000010EE66E44EC18F0E552E552E552E5522F
:100A50001FD00A0EFE5D1CE2060E0101A95D18E220
:100A6000CD0EE66E440EE66EA9C1E6FF010EE66EFF
:100A700044EC18F0E552E552E552E5520101A95166
:100A8000EA6AF80FE96E010EEA22FEC1EFFFA92B18
:100A90000101AB6BAC6B20EC0EF0000908E0060E18
:100AA0000101A95D04E30C0EA86F15EC0FF028EC12
:100AB0000EF0000905E00101080EA86F15EC0FF01B
:100AC00001012C0ED880AB55010EAC5502E3ACEF02
:100AD0000DF076EF0DF0AB2B000EAC23570EE66E4B
:100AE000440EE66EE66A6FEC18F0E552E552E55208
:100AF0000101010EAB192CE1AC512AE1060EE66EA4
:100B0000E66AF80EE66E010EE66EADC1E9FFAEC113
:100B1000EAFF090EEA02F3CFEAFFE902F3CFE9FFA9
:100B2000F450EA264C0EE926010EEA22020EE926CE
:100B3000000EEA22E9CF10F0EACF11F0E9CFE6FF8C
:100B4000EACFE6FF1FEC24F0126E060EE15E1250B3
:100B50000101280ED880AB55000EAC5502E3ACEF76
:100B60000DF076EF0DF0AB2B000EAC23BE51010A59
:100B700010E0010A23E14A0EE66E440EE66EE66AD4
:100B80006FEC18F0E552E552E5523A0EE66E440E6F
:100B90000DD02A0EE66E440EE66EE66A6FEC18F093
:100BA000E552E552E552CF0EE66E440EE66E010EBA
:100BB000E66E6FEC18F0E552E552E55220EC0EF0CF
:100BC000000906E00101BE29010BBE6FAB6BAC6BE7
:100BD00028EC0EF0000905E00101080EA86F15ECE5
:100BE0000FF00101010EC51944E1C65142E10101B6
:100BF000BE51E96EEA6AD890E936EA36BA0EE926BD
:100C0000010EEA22EFCFA8F115EC0FF0AFC112F000
:100C1000B0C113F01206000E135A0001136A030E3E
:100C200012161250131010E1AFC110F0B0C111F044
:100C30001006000E115A020E0F0B19E0D890113257
:100C40001032E806FBE113D0AFC110F0B0C111F0D3
:100C50001006000E115A020E0F0B05E0D89011324B
:100C60001032E806FBE1010E1026000E112210C022
:100C7000BFF10101010EC71948E1C85146E1010168
:100C8000BE51E96EEA6AD890E936EA36BA0EE9262C
:100C9000010EEA22010EE926000EEA22EFCFA8F1AA
:100CA00015EC0FF0AFC112F0B0C113F01206000E38
:100CB000135A0001136A030E12161250131010E19A
:100CC000AFC110F0B0C111F01006000E115A020EA3
:100CD0000F0B19E0D89011321032E806FBE113D067
:100CE000AFC110F0B0C111F01006000E115A020E83
:100CF0000F0B05E0D89011321032E806FBE1010E2F
:100D00001026000E112210C0BFF101012C0ED88058
:100D1000AB55010EAC5502E3ACEF0DF0080EB1D3AC
:100D2000AB2B000EAC231F0EE66E440EE66EE66A99
:100D3000E66A44EC18F0E552E552E552E552B1C1DD
:100D400010F0B2C111F0126A136AB1C1E6FFB2C16C
:100D5000E6FF12C0E6FF13C0E6FF0A0EE66EE66A83
:100D60001DEC17F0146E060EE15E1450F7EC0DF05A
:100D700000093AE0410E0101FE5D14E10101A951B3
:100D800000082FE2A907CF0EE66E440EE66EA9C159
:100D9000E6FF010EE66E44EC18F0E552E552E5522E
:100DA000E5521FD00A0EFE5D1CE2060E0101A95D90
:100DB00018E2CD0EE66E440EE66EA9C1E6FF010E06
:100DC000E66E44EC18F0E552E552E552E5520101B9
:100DD000A951EA6AF80FE96E010EEA22FEC1EFFF9F
:100DE000A92B0101AB6BAC6B20EC0EF0000908E005
:100DF000060E0101A95D04E3100EA86F15EC0FF0BB
:100E000028EC0EF0000905E001010A0EA86F15ECB0
:100E10000FF001012C0ED880AB55010EAC5502E34A
:100E2000ACEF0DF0080E93EF0DF0AB2B000EAC23E2
:100E3000150EE66E440EE66EE66AE66A44EC18F0BD
:100E4000E552E552E552E5520A0EE66E440EE66EB4
:100E5000E66A010EE66E44EC18F0E552E552E55202
:100E6000E5520101010EAB1901E08BD0AC5101E05C
:100E700088D0DE6ADD6AAFC1E9FFB0C1EAFF090EC2
:100E8000EA02F3CFEAFFE902F3CFE9FFF450EA26E2
:100E90004C0EE926010EEA22B1C1EEFFB2C1EDFF10
:100EA000DE6ADD6ADECF10F0DDCF11F0D890115090
:100EB00004E6060E105C000E115846E2DECFE9FF94
:100EC000DDCFEAFFF80EE926010EEA22EF50E66ECA
:100ED000AFC1E9FFB0C1EAFF090EEA02F3CFEAFFB2
:100EE000E902F3CFE9FFF450EA264C0EE926010EA1
:100EF000EA22020EE926000EEA22DE50E924E96E1B
:100F0000DD50EA20EA6EE552E750EF6EDECFE9FFF2
:100F1000DDCFEAFFF80EE926010EEA22EF50300F8E
:100F2000E66EDECF10F0DDCF11F00A0E1024E66E73
:100F3000010EE66EF2EC16F0E552E552E552DF2ABC
:100F4000010EB0E3DB2AAED7AFC1E9FFB0C1EAFFC3
:100F5000090EEA02F3CFEAFFE902F3CFE9FFF4500A
:100F6000EA264C0EE926010EEA22080EE926000EBA
:100F7000EA22020EEF6E0101B12B000EB223AF2B5D
:100F8000B023B1C110F0B2C111F01006000E115A19
:100F9000126A136A10C0E6FF11C0E6FF12C0E6FF36
:100FA00013C0E6FF090EE66EE66A1DEC17F0146E3C
:100FB000060EE15E14500101280ED880AB55000EDC
:100FC000AC5502E3ACEF0DF07DEF0CF0AB2B000E57
:100FD000AC23040EC003F328106EAF51105C000E5A
:100FE000B05530E2060EE66E440EE66EE66AE66A3C
:100FF00044EC18F0E552E552E552E552040E0101C9
:10100000C003F328090DF3CFE9FFF4CFEAFF4C0E3C
:10101000E926010EEA22EECF10F0EFCF11F0126AAE
:10102000136A10C0E6FF11C0E6FF12C0E6FF13C04E
:10103000E6FF030EE66EE66A1DEC17F0146E060E70
:10104000E15E1450040E0101C003F350020F106E54
:10105000AF51105C000EB05532E2020EE66E440E47
:10106000E66E080EE66EE66A44EC18F0E552E552CC
:10107000E552E552040E0101C003F350020F090DC1
:10108000F3CFE9FFF4CFEAFF4C0EE926010EEA2286
:10109000EECF10F0EFCF11F0126A136A10C0E6FF26
:1010A00011C0E6FF12C0E6FF13C0E6FF0B0EE66EAE
:1010B000E66A1DEC17F0146E060EE15E1450040E85
:1010C0000101C003F350030F106EAF51105C000E0E
:1010D000B05533E2FE0EE66E430EE66EE66A010E92
:1010E000E66E44EC18F0E552E552E552E552040E86
:1010F0000101C003F350030F090DF3CFE9FFF4CF53
:10110000EAFF4C0EE926010EEA22EECF10F0EFCFF7
:1011100011F0126A136A10C0E6FF11C0E6FF12C098
:10112000E6FF13C0E6FF030EE66E010EE66E1DEC51
:1011300017F0146E060EE15E1450040E0101C00398
:10114000F350040F106EAF51105C000EB05534E236
:10115000FA0EE66E430EE66E080EE66E010EE66EC1
:1011600044EC18F0E552E552E552E552040E010157
:10117000C003F350040F090DF3CFE9FFF4CFEAFFEA
:101180004C0EE926010EEA22EECF10F0EFCF11F05F
:10119000126A136A10C0E6FF11C0E6FF12C0E6FF34
:1011A00013C0E6FF0B0EE66E010EE66E1DEC17F0A7
:1011B000146E060EE15E145020EC0EF000090FE0F4
:1011C0000101C029106EBFC10EF0096E60EC25F060
:1011D00005C0C0F1CFEC15F00101AB6BAC6B28EC96
:1011E0000EF0000905E001010A0EA86F15EC0FF0E2
:1011F000F7EC0DF000095AE00101FE050EE1040EC6
:101200000101C003F328106EAF51105C000EB05501
:1012100004E2040EC003F3283ED0020E0101FE5D7D
:1012200010E1040E0101C003F350020F106EAF5124
:10123000105C000EB05505E2040EC003F350020F1F
:101240002AD0030E0101FE5D10E1040E0101C0036E
:10125000F350030F106EAF51105C000EB05505E255
:10126000040EC003F350030F16D0040E0101FE5DFF
:1012700010E1040E0101C003F350040F106EAF51D2
:10128000105C000EB05505E2040EC003F350040FCD
:1012900002D001010F0EC16F0F0EC15D04E0110EEF
:1012A000A86F15EC0FF00101AB6BAC6B01012C0EBC
:1012B000D880AB55010EAC5502E3ACEF0DF01DD359
:1012C000AB2B000EAC23EF0EE66E430EE66EE66A25
:1012D000E66A44EC18F0E552E552E552E5520101A8
:1012E000C151090DF3CFE9FFF4CFEAFF4C0EE92617
:1012F000010EEA22EECF10F0EFCF11F0126A136A5E
:1013000010C0E6FF11C0E6FF12C0E6FF13C0E6FF03
:101310000A0EE66EE66A1DEC17F0146E060EE15E2C
:1013200014503F0EE66E0F0EE66EE66AF2EC16F013
:10133000E552E552E552E80EE66E430EE66EE66AC9
:10134000010EE66E44EC18F0E552E552E552E55226
:10135000E00EE66E430EE66E080EE66E010EE66ED9
:1013600044EC18F0E552E552E552E55220EC0EF05F
:10137000000905E015EC0FF00101120EA86F28EC32
:101380000EF0000905E015EC0FF001010E0EA86F3C
:10139000F7EC0DF0000903E00101AB6BAC6B010150
:1013A0002C0ED880AB55010EAC5501E3D5D365D0DA
:1013B000AB2B000EAC23D00EE66E430EE66EE66A53
:1013C000E66A44EC18F0E552E552E552E5520101B7
:1013D000010EAB194BE1AC5149E1C151126E136AD8
:1013E0001250AF5D106E1350B059116E1006000E02
:1013F000115A090E1102F3CF11F01002F3CF10F0C1
:10140000F4501126F3CFE6FF11C0E6FFC151090DDC
:10141000F3CF14F0F4CF15F04C0E1426010E152264
:10142000090E1426000E152214C0E6FF15C0E6FFB3
:10143000C151090DF3CF16F0F4CF17F04C0E16265C
:10144000010E172216C0E6FF17C0E6FF1FEC24F0BE
:10145000186E060EE15E18500101000ED880AF55DF
:10146000000EB05503E2AF07000EB05B280ED88027
:10147000AB55000EAC5501E36FD315EC0FF0010135
:101480000A0EA86F69D3AB2B000EAC23040EC00369
:10149000F328106EAF51105C000EB05530E2060E0E
:1014A000E66E440EE66EE66AE66A44EC18F0E55233
:1014B000E552E552E552040E0101C003F328090D7F
:1014C000F3CFE9FFF4CFEAFF4C0EE926010EEA2242
:1014D000EECF10F0EFCF11F0126A136A10C0E6FFE2
:1014E00011C0E6FF12C0E6FF13C0E6FF030EE66E72
:1014F000E66A1DEC17F0146E060EE15E1450040E41
:101500000101C003F350020F106EAF51105C000ECA
:10151000B05532E2020EE66E440EE66E080EE66E3E
:10152000E66A44EC18F0E552E552E552E552040E45
:101530000101C003F350020F090DF3CFE9FFF4CF0F
:10154000EAFF4C0EE926010EEA22EECF10F0EFCFB3
:1015500011F0126A136A10C0E6FF11C0E6FF12C054
:10156000E6FF13C0E6FF0B0EE66EE66A1DEC17F011
:10157000146E060EE15E1450040E0101C003F35018
:10158000030F106EAF51105C000EB05533E2FE0E2B
:10159000E66E430EE66EE66A010EE66E44EC18F067
:1015A000E552E552E552E552040E0101C003F35045
:1015B000030F090DF3CFE9FFF4CFEAFF4C0EE92644
:1015C000010EEA22EECF10F0EFCF11F0126A136A8B
:1015D00010C0E6FF11C0E6FF12C0E6FF13C0E6FF31
:1015E000030EE66E010EE66E1DEC17F0146E060E8D
:1015F000E15E1450040E0101C003F350040F106E9D
:10160000AF51105C000EB05534E2FA0EE66E430E98
:10161000E66E080EE66E010EE66E44EC18F0E5523A
:10162000E552E552E552040E0101C003F350040FE8
:10163000090DF3CFE9FFF4CFEAFF4C0EE926010EC6
:10164000EA22EECF10F0EFCF11F0126A136A10C049
:10165000E6FF11C0E6FF12C0E6FF13C0E6FF0B0E67
:10166000E66E010EE66E1DEC17F0146E060EE15EDE
:101670001450E6DA00090FE00101C029106EBFC165
:101680000EF0096E60EC25F005C0C0F1CFEC15F04E
:101690000101AB6BAC6BDCDA000904E001010A0E5E
:1016A000A86FC3DBA4DA000959E00101FE050EE1D1
:1016B000040E0101C003F328106EAF51105C000E40
:1016C000B05504E2040EC003F3283ED0020E01011F
:1016D000FE5D10E1040E0101C003F350020F106E15
:1016E000AF51105C000EB05505E2040EC003F3507C
:1016F000020F2AD0030E0101FE5D10E1040E01016C
:10170000C003F350030F106EAF51105C000EB055C4
:1017100005E2040EC003F350030F16D0040E0101BE
:10172000FE5D10E1040E0101C003F350040F106EC2
:10173000AF51105C000EB05505E2040EC003F3502B
:10174000040F02D001010F0EC16F0F0EC15D03E047
:10175000130EA86F6ADB0101AB6BAC6B01012C0EA1
:10176000D880AB55010EAC5501E3F6D1C6D0AB2BFA
:10177000000EAC23C50EE66E430EE66EE66AE66A20
:1017800044EC18F0E552E552E552E5520101C15131
:10179000090DF3CFE9FFF4CFEAFF4C0EE926010E65
:1017A000EA22EECF10F0EFCF11F0126A136A10C0E8
:1017B000E6FF11C0E6FF12C0E6FF13C0E6FF0B0E06
:1017C000E66EE66A1DEC17F0146E060EE15E14502C
:1017D0000EDA00093AE0410E0101FE5D14E101015B
:1017E000A95100082FE2A907CF0EE66E440EE66E5F
:1017F000A9C1E6FF010EE66E44EC18F0E552E55291
:10180000E552E5521FD00A0EFE5D1CE2060E0101F4
:10181000A95D18E2CD0EE66E440EE66EA9C1E6FFA4
:10182000010EE66E44EC18F0E552E552E552E55241
:101830000101A951EA6AF80FE96E010EEA22FEC120
:10184000EFFFA92B0101AB6BAC6BFAD9000907E0E4
:10185000060E0101A95D03E3140EA86FE6DAF8D9BC
:10186000000904E001010F0EA86FDFDA01012C0E60
:10187000D880AB55010EAC5501E36ED13ED0AB2BF9
:10188000000EAC23570EE66E440EE66EE66A6FEC71
:1018900018F0E552E552E5520101010EAB1925E1C0
:1018A000AC5123E1060EE66EE66AF80EE66E010E16
:1018B000E66EC151090DF3CFE9FFF4CFEAFF4C0EFC
:1018C000E926010EEA22020EE926000EEA22E9CFFD
:1018D00010F0EACF11F0E9CFE6FFEACFE6FF1FEC08
:1018E00024F0126E060EE15E12500101280ED8801F
:1018F000AB55000EAC5501E32FD10A0E14D1AB2B22
:10190000000EAC23010EAB1903E1AC5101E198DAF2
:10191000BC0EE66E430EE66EE66AE66A44EC18F02C
:10192000E552E552E552E552B40EE66E430EE66E20
:10193000080EE66EE66A44EC18F0E552E552E55210
:10194000E55217C110F018C111F0126A136A17C1DD
:10195000E6FF18C1E6FF12C0E6FF13C0E6FF0C0E5B
:10196000E66EE66A1DEC17F0146E060EE15E14508A
:10197000AD0EE66E430EE66EE66A010EE66E44ECD0
:1019800018F0E552E552E552E5521BC110F01CC1BA
:1019900011F0126A136A1BC1E6FF1CC1E6FF12C0F8
:1019A000E6FF13C0E6FF030EE66E010EE66E1DECC9
:1019B00017F0146E060EE15E1450A60EE66E430E8E
:1019C000E66E080EE66E010EE66E44EC18F0E55287
:1019D000E552E552E55219C110F01AC111F0126A30
:1019E000136A19C1E6FF1AC1E6FF12C0E6FF13C071
:1019F000E6FF0C0EE66E010EE66E1DEC17F0146E9F
:101A0000060EE15E145024D9000904E00101080E1D
:101A1000A86F0BDA01012C0ED880AB55010EAC5526
:101A200001E39AD063D0AB2B000EAC23010EAB19AF
:101A300018E1AC5116E1ADC1E9FFAEC1EAFF090EF4
:101A4000EA02F3CFEAFFE902F3CFE9FFF450EA2616
:101A50004C0EE926010EEA22080EE926000EEA22C3
:101A6000EF6A1D050DE1950EE66E430EE66EE66A21
:101A7000E66A44EC18F0E552E552E552E552F0D83A
:101A800001011D5103E1180EA86FCFD90101280EE5
:101A9000AB5D000EAC5960E3180E45D0AB2B000EC9
:101AA000AC23830EE66E430EE66EE66A6FEC18F02A
:101AB000E552E552E552770EE66E430EE66E010EF4
:101AC000E66E6FEC18F0E552E552E552E7D80101F9
:101AD0001D6BB6D8000904E0A8D90101050EA86F56
:101AE0000101640EAB5D000EAC5936E3A86B34D037
:101AF000AB2B000EAC23680EE66E430EE66EE66A74
:101B00006FEC18F0E552E552E5520101010EAB19F8
:101B100003E1AC5101E1E8D90101280EAB5D000EF3
:101B2000AC591AE3080EA86F80D916D0AB2B000E63
:101B3000AC23570EE66E430EE66EE66AE66A44ECA8
:101B400018F0E552E552E552E5520101280EAB5D71
:101B5000000EAC5901E3A86B020EE15C02E2E16AFF
:101B6000E552E16EE552E7CFD9FF1200D9CFE6FF8B
:101B7000E1CFD9FF020EE126DF6A060EDF5C2AE222
:101B8000ADC1E9FFAEC1EAFF090EEA02F3CFEAFFF9
:101B9000E902F3CFE9FFF450EA264C0EE926010EE4
:101BA000EA22020EE926000EEA22DF50E924E96E5D
:101BB000000EEA20EA6EEFCF10F0DF50EA6AF80F6D
:101BC000E96E010EEA22EF50105C02E0000E03D035
:101BD000DF2AD3D7010E106E020EE15C02E2E16A49
:101BE000E552E16E1050E552E7CFD9FF1200D9CF90
:101BF000E6FFE1CFD9FFE652DF6ADF500F081AE3B4
:101C0000EA6ADF34FE0BEA36E96EC50EE926010EFC
:101C1000EA22010EEE180CE1ED500AE1DF50EA6A0B
:101C20001E0FE96E010EEA22EFCFFEF1010E03D086
:101C3000DF2AE3D7000EE552E552E7CFD9FF1200C5
:101C40000101010EE11903E1E25101E1010C000C77
:101C50000101010EDD1903E1DE5101E1010C000C6F
:101C6000000EE66EE66AC9EC00F0E552E552010EA0
:101C7000E66EE66AF1EC00F0E552E5521200000E65
:101C8000E66EE66AF1EC00F0E552E552010EE66E12
:101C9000E66AC9EC00F0E552E5521200000EE66E6D
:101CA000E66AF1EC00F0E552E552010EE66EE66AF6
:101CB000F1EC00F0E552E5521200D9CFE6FFE1CF9A
:101CC000D9FFF90EDBCF10F0FA0EDBCF11F00A0EC0
:101CD000105C000E11582CE2F80EDB50030828E1CE
:101CE000540EE66E430EE66EFB0EDBCFE6FFFD0EF6
:101CF000DBCFE6FF44EC18F0E552E552E552E55241
:101D0000F90EDBCF10F0FA0EDBCF11F0126A136A76
:101D100010C0E6FF11C0E6FF12C0E6FF13C0E6FFE9
:101D2000FB0EDBCF14F0FC0EDBCF15F0020E45D01E
:101D3000F90EDBCF10F0FA0EDBCF11F00A0E105CBB
:101D4000000E115804E2F80EDB5002080FE0F90E05
:101D5000DBCF10F0FA0EDBCF11F0640E105C000E3A
:101D6000115837E2F80EDB50030833E1520EE66EED
:101D7000430EE66EFB0EDBCFE6FFFD0EDBCFE6FF8C
:101D800044EC18F0E552E552E552E552F90EDBCF8E
:101D900010F0FA0EDBCF11F0126A136A10C0E6FFE2
:101DA00011C0E6FF12C0E6FF13C0E6FFFB0EDBCF5B
:101DB00014F0FC0EDBCF15F0010E1424E66EFD0EC0
:101DC000DBCFE6FF1DEC17F0166E060EE15E165037
:101DD00028D0750EE66E440EE66EFD0EDBCFE6FFF4
:101DE0006FEC18F0E552E552E552F90EDBCF10F03A
:101DF000FA0EDBCF11F0126A136A10C0E6FF11C0B1
:101E0000E6FF12C0E6FF13C0E6FFFB0EDBCFE6FFE6
:101E1000FD0EDBCFE6FF1DEC17F0146E060EE15E43
:101E20001450E552E7CFD9FF1200CFEC15F00101B5
:101E3000AB6BAC6BC06BB96BBE6BA96BAA6B1200C2
:101E4000D9CFE6FFE1CFD9FF030EE126DE6ADD6AD6
:101E5000000E0101196F1A6B1B6F1C6B176F186B4B
:101E6000DE6ADD6ADECF10F0DDCF11F0AF51105C1D
:101E7000B05111582FE2DECFE9FFDDCFEAFF090EA6
:101E8000EA02F3CFEAFFE902F3CFE9FFF450EA26D2
:101E90004C0EE926010EEA22080EE926000EEA227F
:101EA000020EEFCFDBFFDB50020A0CE0030A06E074
:101EB000010A0BE1172B000E182307D01B2B000E75
:101EC0001C2303D0192B000E1A23DF2A010ECAE3AC
:101ED000DB2AC8D7030EE15C02E2E16AE552E16E5B
:101EE000E552E7CFD9FF1200D9CFE6FFE1CFD9FF06
:101EF000020EE126DE6ADD6ADE6ADD6ADECF10F000
:101F0000DDCF11F00101AF51105CB05111581CE24E
:101F1000DECFE9FFDDCFEAFF090EEA02F3CFEAFFE9
:101F2000E902F3CFE9FFF450EA264C0EE926010E50
:101F3000EA22080EE926000EEA22020EEF6EDF2AE0
:101F4000010EDCE3DB2ADAD7020EE15C02E2E16A91
:101F5000E552E16EE552E7CFD9FF1200200EE66EA2
:101F60009AEC21F0E552220809E009D8220EE66E2B
:101F7000200EE66E89EC21F0E552E55212000101D7
:101F8000320E106F3B0E116F170E126F1F0E146F73
:101F90000C0E156F0E0E166F10C1E6FFE66A49ECC7
:101FA00021F0E552E55211C1E6FF010EE66E49EC63
:101FB00021F0E552E55212C1E6FF020EE66E49EC51
:101FC00021F0E552E55214C1E6FF040EE66E49EC3D
:101FD00021F0E552E55215C1E6FF050EE66E49EC2B
:101FE00021F0E552E55216C1E6FF060EE66E49EC19
:101FF00021F0E552E5521200E66A9AEC21F0E55232
:102000000101106F010EE66E9AEC21F0E55201011C
:10201000116F020EE66E9AEC21F0E5520101126F8B
:10202000040EE66E9AEC21F0E5520101146F050EE4
:10203000E66E9AEC21F0E5520101156F0A0E125D71
:102040001DE2520EE66E430EE66EE66A010EE66E85
:1020500044EC18F0E552E552E552E55212C110F099
:10206000116A126A136A12C1E6FF11C0E6FF12C0BC
:10207000E6FF13C0E6FF010EE66E0FD012C110F0AE
:10208000116A126A136A12C1E6FF11C0E6FF12C09C
:10209000E6FF13C0E6FFE66A010EE66E1DEC17F0E0
:1020A000146E060EE15E1450500EE66E430EE66EA0
:1020B000020EE66E010EE66E44EC18F0E552E552B3
:1020C000E552E5520A0E0101115D1DE2520EE66E67
:1020D000430EE66E030EE66E010EE66E44EC18F05B
:1020E000E552E552E552E55211C110F0116A126A4B
:1020F000136A11C1E6FF11C0E6FF12C0E6FF13C06C
:10210000E6FF040E0ED011C110F0116A126A136AB4
:1021100011C1E6FF11C0E6FF12C0E6FF13C0E6FFE3
:10212000030EE66E010EE66E1DEC17F0146E060E41
:10213000E15E1450500EE66E430EE66E050EE66E3E
:10214000010EE66E44EC18F0E552E552E552E55218
:102150000A0E0101105D1DE2520EE66E430EE66EA0
:10216000060EE66E010EE66E44EC18F0E552E552FE
:10217000E552E55210C110F0116A126A136A10C1DB
:10218000E6FF11C0E6FF12C0E6FF13C0E6FF070E30
:102190000ED010C110F0116A126A136A10C1E6FF66
:1021A00011C0E6FF12C0E6FF13C0E6FF060EE66EA2
:1021B000010EE66E1DEC17F0146E060EE15E145073
:1021C0000A0E0101145D1DE2CF0EE66E440EE66EAE
:1021D0000B0EE66E010EE66E44EC18F0E552E55289
:1021E000E552E55214C110F0116A126A136A14C163
:1021F000E6FF11C0E6FF12C0E6FF13C0E6FF0C0EBB
:102200000ED014C110F0116A126A136A14C1E6FFED
:1022100011C0E6FF12C0E6FF13C0E6FF0B0EE66E2C
:10222000010EE66E1DEC17F0146E060EE15E145002
:102230004E0EE66E430EE66E0D0EE66E010EE66E77
:1022400044EC18F0E552E552E552E5520A0E010160
:10225000155D1DE2CF0EE66E440EE66E0E0EE66EC6
:10226000010EE66E44EC18F0E552E552E552E552F7
:1022700015C110F0116A126A136A15C1E6FF11C088
:10228000E6FF12C0E6FF13C0E6FF0F0E0ED015C129
:1022900010F0116A126A136A15C1E6FF11C0E6FF59
:1022A00012C0E6FF13C0E6FF0E0EE66E010EE66EEC
:0E22B0001DEC17F0146E060EE15E14501200C5
:0222BE00D9CF76
:1022C000E6FFE1CFD9FF040EE126DE6ADD6ADECF4C
:1022D00010F0DDCF11F0126A136A11AE02D012684D
:1022E0001368D950FB0FE96EFF0EDA20EA6EEE504C
:1022F000105CEE501158EE501258EE5013581DE27B
:10230000020EDB6A030EDB6A020EDBCF10F0030E57
:10231000DBCF11F0D890115004E6050E105C000ED2
:10232000115806E2020EDB2A030EEEE3DB2AECD79D
:10233000DF2A010ECCE3DB2ACAD7040EE15C02E2FD
:10234000E16AE552E16EE552E7CFD9FF1200D9CF3D
:10235000E6FFE1CFD9FF040EE126DE6ADD6ADECFBB
:1023600010F0DDCF11F0126A136A11AE02D01268BC
:102370001368D950FB0FE96EFF0EDA20EA6EEE50BB
:10238000105CEE501158EE501258EE5013581DE2EA
:10239000020EDB6A030EDB6A020EDBCF10F0030EC7
:1023A000DBCF11F0D890115004E6EE0E105C000E59
:1023B000115806E2020EDB2A030EEEE3DB2AECD70D
:1023C000DF2A010ECCE3DB2ACAD7040EE15C02E26D
:1023D000E16AE552E16EE552E7CFD9FF1200D9CFAD
:1023E000E6FFE1CFD9FF0F0E8116FE0EDB50F00B9A
:1023F00081128186010EE66EE66AE66AE66AA7DF6A
:10240000E552E552E552E5528196010EE66EE66A26
:10241000E66AE66A9CDFE552E552E552E5520F0EA8
:102420008116FE0EDB38F00B81128186010EE66EFE
:10243000E66AE66AE66A8BDFE552E552E552E55266
:102440008196010EE66EE66AE66AE66A80DFE5528C
:10245000E552E552E552E552E7CFD9FF1200D9CF58
:10246000E6FFE1CFD9FFE652190EE66EE66AE66AAC
:10247000E66A6DDFE552E552E552E5520F0E811630
:10248000F80E81160F0E8116300E81128186010E14
:10249000E66EE66AE66AE66A5ADFE552E552E5521A
:1024A000E5528196010EE66EE66AE66AE66A4FDF5D
:1024B000E552E552E552E5520F0E8116300E8112BB
:1024C0008186010EE66EE66AE66AE66A40DFE5525C
:1024D000E552E552E5528196010EE66EE66AE66A3D
:1024E000E66A35DFE552E552E552E5520F0E8116F8
:1024F000300E81128186010EE66EE66AE66AE66AB1
:1025000026DFE552E552E552E5528196010EE66E70
:10251000E66AE66AE66A1BDFE552E552E552E552F5
:102520000F0E8116818A8186010EE66EE66AE66AE2
:10253000E66A0DDFE552E552E552E5528196010E5D
:10254000E66EE66AE66AE66A02DFE552E552E552C1
:10255000E552280EE66E43DFE5520C0EE66E3FDFD5
:10256000E552E552E552E7CFD9FF1200D9CFE6FF99
:10257000E1CFD9FF020EE126DF6A010EDB6A81940A
:102580000F0EE66EE66AE66AE66A99DEE552E55205
:10259000E552E5520F0E81128186E66EE66AE66A22
:1025A000E66A8DDEE552E552E552E5520F0E8114E2
:1025B000E76E010EE7CFDBFF81960F0EE66EE66A4F
:1025C000E66AE66A7CDEE552E552E552E5520F0E18
:1025D00081128186E66EE66AE66AE66A70DEE55298
:1025E000E552E552E5520F0E8114DF6E010EDB500D
:1025F000DF128196010EE66EE66AE66AE66A5FDE43
:10260000E552E552E552E552DF50106E020EE15CF4
:1026100002E2E16AE552E16E1050E552E7CFD9FFE0
:102620001200D9CFE6FFE1CFD9FFE652DF6A9EDF85
:10263000DF6EDFBEFCD7DF50E552E552E7CFD9FFB2
:102640001200D9CFE6FFE1CFD9FF0F0E8116FE0EA3
:10265000DB5081128186050EE66EE66AE66AE66A5E
:102660002EDEE552E552E552E5528196050EE66E04
:10267000E66AE66AE66A23DEE552E552E552E5528D
:10268000E552E7CFD9FF1200D9CFE6FFE1CFD9FF5E
:102690008194050EE66EE66AE66AE66A10DEE552A9
:1026A000E552E552E552FE0EDBCFE6FFCADFE5520A
:1026B000FE0EDB38F00BE66EC4DFE552E552E7CFE5
:1026C000D9FF1200D9CFE6FFE1CFD9FF8184050EF3
:1026D000E66EE66AE66AE66AF2DDE552E552E55242
:1026E000E552FE0EDBCFE6FFACDFE552FE0EDB3837
:1026F000F00BE66EA6DFE5528194E552E7CFD9FFF5
:102700001200D9CFE6FFE1CFD9FFFE0EDBCFE6FF07
:10271000D9DFE552E552E7CFD9FF1200D9CFE6FF66
:10272000E1CFD9FFFE0EDBCFE6FFCCDFE552E5526D
:10273000E7CFD9FF1200D9CFE6FFE1CFD9FFFD0ED9
:10274000DBCFF6FFFE0EDBCFF7FF0800F5500FE002
:10275000FD0EDBCFF6FFDB2AFE0EDBCFF7FF01E33A
:10276000DB2A0800F550E66ED9DFE552E8D7E552DE
:10277000E7CFD9FF1200D9CFE6FFE1CFD9FFE6526C
:10278000FD0EDB500F0B106EFE0EDB50010B400DEB
:10279000F3501024DF6E7F0EDF14800FDF6EDFCF6B
:1027A000E6FF72DFE552E552E552E7CFD9FF1200AE
:1027B000010EE66E69DFE552E66AE66ADCDFE552A5
:1027C000E5521200D9CFE6FFE1CFD9FF050EE12691
:1027D000010EF36EDB6E020EDB6A030EDB6A040E83
:1027E000DB6ADF6ADFCF10F0116A10BE1168FB0EE2
:1027F000DBCF12F0FC0EDBCF13F011501318E8AE54
:1028000002D0133404D01250105C135011582DE232
:10281000FD0EDBCF10F0FE0EDBCF11F0126A136A53
:1028200011AE02D012681368D950010FE96EDACFE9
:10283000EAFF10C00BF011C00CF012C00DF013C075
:102840000EF0EECF06F0EECF07F0EECF08F0EFCFB0
:1028500009F0B3EC24F005C0EDFF04C0EDFF03C0A8
:10286000EDFF02C0EFFFDF2ABDD7010EDBCF10F076
:10287000020EDBCF11F0030EDBCF12F0040EDBCF24
:1028800013F010C006F011C007F012C008F013C01A
:1028900009F0050EE15C02E2E16AE552E16EE55203
:1028A000E7CFD9FF1200D9CFE6FFE1CFD9FF020E63
:1028B000E126DF6AFB0EDBCF10F0FC0EDBCF11F060
:1028C000FD0EDBCF12F0FE0EDBCF13F01050111017
:1028D0001210131005E1300EE66E20DFE552F4D041
:1028E000D950FB0FE96EFF0EDA20EA6ED890030E86
:1028F000EB50000A08E6000EEE5C000EEE58000EEB
:10290000EE58000EEE5815E22D0EE66E07DFE5528A
:10291000D950FB0FE96EFF0EDA20EA6E000EEE6C66
:10292000EF1EEE22EF1EEE22EF1EEF22ED52ED52D1
:10293000ED52DE52070EDD6E010EDBCF10F0000E01
:10294000E76E1018E8AE02D0103403D0E750D880FC
:10295000105401E3B9D0010EDB04146E156A14BEE5
:10296000156814C0E6FF15C0E6FF0A0EE66EE66ABB
:1029700029DFE552E552E552E55206C010F007C0E6
:1029800011F008C012F009C013F006C00BF007C028
:102990000CF008C00DF009C00EF0FB0EDBCF06F006
:1029A000FC0EDBCF07F0FD0EDBCF08F0FE0EDBCF19
:1029B00009F0EBEC24F0065007100810091041E074
:1029C000010EDF6EDB04186E196A18BE196818C094
:1029D000E6FF19C0E6FF0A0EE66EE66AF3DEE55290
:1029E000E552E552E55206C014F007C015F008C0E4
:1029F00016F009C017F006C00BF007C00CF008C0B5
:102A00000DF009C00EF0FB0EDBCF06F0FC0EDBCFA5
:102A100007F0FD0EDBCF08F0FE0EDBCF09F0EBEC8C
:102A200024F006C010F007C011F008C012F009C071
:102A300013F0300E1026000E112212221322105015
:102A400003D0DF5004E0300EE66E68DEE552010E82
:102A5000DB04146E156A14BE156814C0E6FF15C0B9
:102A6000E6FF0A0EE66EE66AADDEE552E552E55295
:102A7000E55206C010F007C011F008C012F009C0FE
:102A800013F0D950FB0FE96EFF0EDA20EA6E06C094
:102A90000BF007C00CF008C00DF009C00EF0EECF2F
:102AA00006F0EECF07F0EECF08F0EFCF09F0EBEC39
:102AB00024F005C0EDFF04C0EDFF03C0EDFF02C030
:102AC000EFFF010EDB0638D7020EE15C02E2E16A9D
:102AD000E552E16EE552E7CFD9FF1200D9CFE6FF0C
:102AE000E1CFD9FFFD0EDBCFE6FFFE0EDBCFE6FF29
:102AF00042DEE552E552D950F90FE96EFF0EDA20B9
:102B0000EA6EEECFE6FFEECFE6FFEECFE6FFEFCFC9
:102B1000E6FFC9DEE552E552E552E552E552E7CF60
:102B2000D9FF1200D9CFE6FFE1CFD9FFFD0EDBCFF1
:102B3000E6FFFE0EDBCFE6FF1EDEE552E552FB0EA2
:102B4000DBCFE6FFFC0EDBCFE6FFF5DDE552E5521D
:102B5000E552E7CFD9FF1200D9CFE6FFE1CFD9FF89
:102B60003ACF10F03BCF11F0040ED890103611364A
:102B7000E806FBE1C10E1026000E112210500F01D5
:102B80003C25E96E11503D21EA6EFE0EDBCFEFFFD2
:102B90003C2B000E3D23E552E7CFD9FF1200D9CFE1
:102BA000E6FFE1CFD9FFE652DF6ADFCF10F0100E6B
:102BB000E76E1018E8AE02D0E73402D0E750105CA0
:102BC00018E2DFCFE9FFEA6AE9BEEA68C10EE9264A
:102BD000000EEA22200EEF6EDFCFE9FFEA6AE9BEBF
:102BE000EA68D10EE926000EEA22200EEF6EDF2AF7
:102BF000DCD7E552E552E7CFD9FF1200D9CFE6FF87
:102C0000E1CFD9FFE6520001C051030A52E0010AA8
:102C100036E0030A1AE0010A67E1E66AE66AABDD1C
:102C2000E552E552DF6A080EDF5C0CE2DF50EA6A2B
:102C3000C10FE96E000EEA22EF50E66E6FDDE5523D
:102C4000DF2AF1D70001010E32D0080EE66EE66AE7
:102C500092DDE552E552DF6A080EDF5C0DE2080EF8
:102C6000DF24EA6AC10FE96E000EEA22EF50E66E39
:102C700055DDE552DF2AF0D70001020E18D0E66AD2
:102C8000010EE66E78DDE552E552DF6A080EDF5C84
:102C90000CE2DF50EA6AD10FE96E000EEA22EF5033
:102CA000E66E3CDDE552DF2AF1D70001030EC06F6E
:102CB0001CD0080EE66E010EE66E5DDDE552E552B3
:102CC000DF6A080EDF5C0DE2080EDF24EA6AD10F2E
:102CD000E96E000EEA22EF50E66E20DDE552DF2AB3
:102CE000F0D70001C06B01D0C06BE552E552E7CFD1
:102CF000D9FF1200D9CFE6FFE1CFD9FFE65200019C
:102D0000C051010A1BE0010A32E1E66AE66A33DDDE
:102D1000E552E552DF6A100EDF5C0CE2DF50EA6A32
:102D2000C10FE96E000EEA22EF50E66EF7DCE552C5
:102D3000DF2AF1D70001010EC06F1AD0E66A010E3A
:102D4000E66E19DDE552E552DF6A100EDF5C0CE23B
:102D5000DF50EA6AD10FE96E000EEA22EF50E66E0C
:102D6000DDDCE552DF2AF1D70001C06B01D0C06B7A
:102D7000E552E552E7CFD9FF1200D9CFE6FFE1CF08
:102D8000D9FFE652E66AE66AF6DCE552E552DF6A0A
:102D9000100EDF5C0CE2DF50EA6AC10FE96E000E34
:102DA000EA22EF50E66EBADCE552DF2AF1D7E66A96
:102DB000010EE66EE0DCE552E552DF6A100EDF5CE4
:102DC0000CE2DF50EA6AD10FE96E000EEA22EF5002
:102DD000E66EA4DCE552DF2AF1D7E552E552E7CFF3
:102DE000D9FF1200D9CFE6FFE1CFD9FFFE0EDB50AD
:102DF000010B0F013A6F3B6BFD0EDB500F0B3C6F6D
:102E00003D6B3ACF10F03BCF11F0040ED890103646
:102E10001136E806FBE1C10E1026000E11221050FB
:102E20000F013C25E96E11503D21EA6EFC0EDBCF0F
:102E3000EFFFE552E7CFD9FF1200D9CFE6FFE1CF90
:102E4000D9FF020EE126DF6AFE0EDB50010B0F01F7
:102E50003A6F3B6BFD0EDB500F0B3C6F3D6BF90E79
:102E6000DBCF10F0FA0EDBCF11F0FB0EDBCF12F050
:102E7000FC0EDBCF13F0105011101210131005E1EF
:102E8000300EE66E69DEE552F5D0D950F90FE96EE5
:102E9000FF0EDA20EA6ED890030EEB50000A08E627
:102EA000000EEE5C000EEE58000EEE58000EEE58CE
:102EB00015E22D0EE66E50DEE552D950F90FE96E9F
:102EC000FF0EDA20EA6E000EEE6CEF1EEE22EF1E11
:102ED000EE22EF1EEF22ED52ED52ED52DE52070EC2
:102EE000DD6E010EDBCF10F0000EE76E1018E8AEBD
:102EF00002D0103403D0E750D880105401E3BAD088
:102F0000010EDB04146E156A14BE156814C0E6FFCA
:102F100015C0E6FF0A0EE66EE66A54DCE552E5529D
:102F2000E552E55206C010F007C011F008C012F0DB
:102F300009C013F006C00BF007C00CF008C00DF07C
:102F400009C00EF0F90EDBCF06F0FA0EDBCF07F06A
:102F5000FB0EDBCF08F0FC0EDBCF09F0EBEC24F02E
:102F6000065007100810091041E0010EDF6EDB0467
:102F7000186E196A18BE196818C0E6FF19C0E6FF76
:102F80000A0EE66EE66A1EDCE552E552E552E552AF
:102F900006C014F007C015F008C016F009C017F0FD
:102FA00006C00BF007C00CF008C00DF009C00EF011
:102FB000F90EDBCF06F0FA0EDBCF07F0FB0EDBCF0E
:102FC00008F0FC0EDBCF09F0EBEC24F006C010F0AB
:102FD00007C011F008C012F009C013F0300E10261F
:102FE000000E112212221322105003D0DF5004E0F1
:102FF000300EE66EB1DDE552010EDB04146E156A8B
:1030000014BE156814C0E6FF15C0E6FF0A0EE66E92
:10301000E66AE2EC13F0E552E552E552E55206C0ED
:1030200010F007C011F008C012F009C013F0D95019
:10303000F90FE96EFF0EDA20EA6E06C00BF007C04A
:103040000CF008C00DF009C00EF0EECF06F0EECF88
:1030500007F0EECF08F0EFCF09F0EBEC24F005C05D
:10306000EDFF04C0EDFF03C0EDFF02C0EFFF010E56
:10307000DB0637D7020EE15C02E2E16AE552E16E5F
:10308000E552E7CFD9FF1200D9CFE6FFE1CFD9FF54
:10309000FE0EDB50010B0F013A6F3B6BFD0EDB5058
:1030A0000F0B3C6F3D6BFB0EDBCFF6FFFC0EDBCF57
:1030B000F7FF0800F5500FE0FB0EDBCFF6FFDB2A31
:1030C000FC0EDBCFF7FF01E3DB2A0800F550E66ECC
:1030D00043DDE552E8D7E552E7CFD9FF1200D9CF5B
:1030E000E6FFE1CFD9FF020EE126DE6ADD6AFE0EC1
:1030F000DB50010B0F013A6F3B6B3C6B3D6BDE6AA3
:10310000DD6ADECF10F0DDCF11F0D890115004E66B
:10311000100E105C000E11581EE2FC0EDBCFF6FF05
:10312000FD0EDBCFF7FF0800F5500CE0FC0EDBCF07
:10313000F6FFDB2AFD0EDBCFF7FF01E3DB2A0800F9
:10314000F55001D0200EE66E07DDE552DF2A010EB4
:10315000D8E3DB2AD6D7020EE15C02E2E16AE5524F
:0A316000E16EE552E7CFD9FF12003F
:06316A00B06A810EAF6E99
:10317000AC8AAC94B886AC98AB8E9E9A9D8A9F9A86
:10318000949C1200B06A810EAF6EAC9AAC94B89663
:10319000AC88AB9E9E9A9D9A9F9A1200D9CFE6FF6B
:1031A000E1CFD9FF040EE126DE6ADD6ADECF10F042
:1031B000DDCF11F0FD0EDBCF12F0FE0EDBCF13F0F2
:1031C00011501318E8AE02D0133404D01250105C22
:1031D000135011581DE2020EDB6A030EDB6A020E69
:1031E000DBCF10F0030EDBCF11F0D890115004E6C6
:1031F000EE0E105C000E115806E2020EDB2A030EE2
:10320000EEE3DB2AECD7DF2A010ED0E3DB2ACED7B0
:10321000040EE15C02E2E16AE552E16EE552E7CFBD
:10322000D9FF1200D9CFE6FFE1CFD9FF9EA8FED784
:10323000FE0EDB50AD6E9E98E552E7CFD9FF12002F
:10324000D9CFE6FFE1CFD9FFFD0EDBCFE9FFFE0EC0
:10325000DBCFEAFFEF5010E0FD0EDBCFE9FFFE0E03
:10326000DBCFEAFFEF50E66EDDDFE552FD0EDB2A35
:10327000FE0EEAE3DB2AE8D7E552E7CFD9FF1200DA
:10328000D9CFE6FFE1CFD9FFFD0EDBCFF6FFFE0E73
:10329000DBCFF7FF0800F55015E0FD0EDBCFF6FFA2
:1032A000FE0EDBCFF7FF0800F550E66EBBDFE55200
:1032B000FD0EDBCFF6FFDB2AFE0EDBCFF7FFE4E3EC
:1032C000DB2AE2D7E552E7CFD9FF1200D9CFE6FFDC
:1032D000E1CFD9FF050EE126010EF36EDB6E020E83
:1032E000DB6A030EDB6A040EDB6ADF6ADFCF10F0F5
:1032F000116A10BE1168FB0EDBCF12F0FC0EDBCFA3
:1033000013F011501318E8AE02D0133404D0125049
:10331000105C135011582DE2FD0EDBCF10F0FE0EA5
:10332000DBCF11F0126A136A11AE02D01268136873
:10333000D950010FE96EDACFEAFF10C00BF011C0CF
:103340000CF012C00DF013C00EF0EECF06F0EECF71
:1033500007F0EECF08F0EFCF09F0B3EC24F005C092
:10336000EDFF04C0EDFF03C0EDFF02C0EFFFDF2A59
:10337000BDD7010EDBCF10F0020EDBCF11F0030E34
:10338000DBCF12F0040EDBCF13F010C006F011C03B
:1033900007F012C008F013C009F0050EE15C02E26C
:1033A000E16AE552E16EE552E7CFD9FF1200D9CFCD
:1033B000E6FFE1CFD9FF020EE126DF6AFB0EDBCF8D
:1033C00010F0FC0EDBCF11F0FD0EDBCF12F0FE0E85
:1033D000DBCF13F0105011101210131005E1300E56
:1033E000E66E20DFE552F4D0D950FB0FE96EFF0EF8
:1033F000DA20EA6ED890030EEB50000A08E6000EC1
:10340000EE5C000EEE58000EEE58000EEE5815E27F
:103410002D0EE66E07DFE552D950FB0FE96EFF0E69
:10342000DA20EA6E000EEE6CEF1EEE22EF1EEE22A8
:10343000EF1EEF22ED52ED52ED52DE520A0EDD6E1E
:10344000010EDBCF10F0000EE76E1018E8AE02D0D0
:10345000103403D0E750D880105401E3B9D0010EE6
:10346000DB04146E156A14BE156814C0E6FF15C09F
:10347000E6FF0A0EE66EE66A29DFE552E552E552FE
:10348000E55206C010F007C011F008C012F009C0E4
:1034900013F006C00BF007C00CF008C00DF009C017
:1034A0000EF0FB0EDBCF06F0FC0EDBCF07F0FD0EBF
:1034B000DBCF08F0FE0EDBCF09F0EBEC24F006507A
:1034C00007100810091041E0010EDF6EDB04186ED2
:1034D000196A18BE196818C0E6FF19C0E6FF0A0E7F
:1034E000E66EE66AF3DEE552E552E552E55206C0C5
:1034F00014F007C015F008C016F009C017F006C098
:103500000BF007C00CF008C00DF009C00EF0FB0E68
:10351000DBCF06F0FC0EDBCF07F0FD0EDBCF08F0B3
:10352000FE0EDBCF09F0EBEC24F006C010F007C074
:1035300011F008C012F009C013F0300E1026000E72
:10354000112212221322105003D0DF5004E0300E5B
:10355000E66E68DEE552010EDB04146E156A14BED9
:10356000156814C0E6FF15C0E6FF0A0EE66EE66AAF
:10357000ADDEE552E552E552E55206C010F007C057
:1035800011F008C012F009C013F0D950FB0FE96E1A
:10359000FF0EDA20EA6E06C00BF007C00CF008C080
:1035A0000DF009C00EF0EECF06F0EECF07F0EECF33
:1035B00008F0EFCF09F0EBEC24F005C0EDFF04C0FC
:1035C000EDFF03C0EDFF02C0EFFF010EDB0638D7B1
:1035D000020EE15C02E2E16AE552E16EE552E7CFFC
:1035E000D9FF1200D9CFE6FFE1CFD9FFFD0EDBCF27
:1035F00010F0FE0EDBCF11F0640E0D6E0E6A10C0DF
:1036000008F011C009F07DEC23F008C010F009C0EB
:1036100011F0126A136A11AE02D01268136810C05A
:10362000E6FF11C0E6FF12C0E6FF13C0E6FFBFDEF3
:10363000E552E552E552E5522E0EE66EF3DDE55217
:10364000FD0EDBCF10F0FE0EDBCF11F0640E0D6E21
:103650000E6A10C008F011C009F07DEC23F004C020
:1036600010F005C011F0126A136A11AE02D0126890
:10367000136810C0E6FF11C0E6FF12C0E6FF13C0DA
:10368000E6FF95DEE552E552E552E552E552E7CF19
:10369000D9FF1200D9CFE6FFE1CFD9FFE652AE50F5
:1036A000DF6E320EE66E450EE66EE66A010EE66EDF
:1036B00044EC18F0E552E552E552E552DFCF10F048
:1036C000116A126A136A10C0E6FF11C0E6FF12C049
:1036D000E6FF13C0E6FFE66A010EE66E1DEC17F08A
:1036E000146E060EE15E1450E552E552E7CFD9FFA5
:0236F0001200C6
:0E36F200D9CFE6FFE1CFD9FFD59EFD0EDBCF8D
:1037000000FFFE0EDBCF01FFD59C13681468156A1D
:1037100000CF16F001CF17F0186A1650135C106E28
:1037200017501458116E18501558126E0C6A010E6D
:103730000D6E0E6A10C007F011C008F012C009F03B
:10374000A3EC23F00350D66E13681468156A00CFFB
:1037500016F001CF17F0186A1650135C106E175050
:103760001458116E18501558126E0C6A010E0D6E19
:103770000E6A10C007F011C008F012C009F0A3ECE7
:1037800023F007C010F008C011F009C012F0075074
:10379000D76ED59AD586F28AF294F184D58EE55209
:1037A000E7CFD9FF1200D59E120013681468156A7E
:1037B00000CF16F001CF17F0186A1650135C106E88
:1037C00017501458116E18501558126E0C6A010ECD
:1037D0000D6E0E6A10C007F011C008F012C009F09B
:1037E000A3EC23F00350D66E13681468156A00CF5B
:1037F00016F001CF17F0186A1650135C106E1750B0
:103800001458116E18501558126E0C6A010E0D6E78
:103810000E6A10C007F011C008F012C009F0A3EC46
:1038200023F007C010F008C011F009C012F00750D3
:10383000D76ED58E1200D9CFE6FFE1CFD9FFCD905C
:10384000FD0EDBCF02FFFE0EDBCF03FF1368146813
:10385000156A02CF16F003CF17F0186A1650135CE2
:10386000106E17501458116E18501558126E0C6ABD
:10387000010E0D6E0E6A10C007F011C008F012C0E4
:1038800009F0A3EC23F00750CF6E13681468156A93
:1038900002CF16F003CF17F0186A1650135C106EA3
:1038A00017501458116E18501558126E0C6A010EEC
:1038B0000D6E0E6A10C007F011C008F012C009F0BA
:1038C000A3EC23F003C010F004C011F005C012F007
:1038D0000350CE6E9D809E909F90CD8ECD8CCD98C6
:1038E000CD9ACD96CD92CD80E552E7CFD9FF12008B
:1038F00013681468156A02CF16F003CF17F0186A20
:103900001650135C106E17501458116E185015583D
:10391000126E0C6A010E0D6E0E6A10C007F011C017
:1039200008F012C009F0A3EC23F00750CF6E136823
:103930001468156A02CF16F003CF17F0186A1650F4
:10394000135C106E17501458116E18501558126EE3
:103950000C6A010E0D6E0E6A10C007F011C008F05F
:1039600012C009F0A3EC23F003C010F004C011F062
:1039700005C012F00350CE6ECD801200CD90120023
:10398000D9CFE6FFE1CFD9FFCA94CC6AFE0EDB5057
:103990000F01046F056BCB6E9D829E929F92CA9021
:1039A000CA92CA84E552E7CFD9FF120004CFCBFFF9
:1039B000CA841200CA941200D9CFE6FFE1CFD9FF22
:1039C000B190FD0EDBCF06FFFE0EDBCF07FF1368C5
:1039D0001468156A06CF16F007CF17F0186A16504C
:1039E000135C106E17501458116E18501558126E43
:1039F0000C6A010E0D6E0E6A10C007F011C008F0BF
:103A000012C009F0A3EC23F00750B36E13681468DA
:103A1000156A06CF16F007CF17F0186A1650135C18
:103A2000106E17501458116E18501558126E0C6AFB
:103A3000010E0D6E0E6A10C007F011C008F012C022
:103A400009F0A3EC23F003C010F004C011F005C08E
:103A500012F00350B26EA082A192A292B18EB198E0
:103A6000B19AB192B180E552E7CFD9FF1200136845
:103A70001468156A06CF16F007CF17F0186A1650AB
:103A8000135C106E17501458116E18501558126EA2
:103A90000C6A010E0D6E0E6A10C007F011C008F01E
:103AA00012C009F0A3EC23F00350B26E136814683F
:103AB000156A06CF16F007CF17F0186A1650135C78
:103AC000106E17501458116E18501558126E0C6A5B
:103AD000010E0D6E0E6A10C007F011C008F012C082
:103AE00009F0A3EC23F007C010F008C011F009C0E2
:103AF00012F00750B36EB1801200B19012000F01A6
:103B0000102B000E11231851105D1951115904E3A7
:103B1000106B116B010E086F12000F01122B000EBB
:103B200013231A51125D1B51135904E3126B136BCB
:103B3000010E096F12000F01142B000E15231C51EA
:103B4000145D1D51155904E3146B156B010E0A6FBA
:103B500012000F01162B000E17231E51165D1F5168
:103B6000175904E3166B176B010E0B6F1200D9CFB8
:103B7000E6FFE1CFD9FFFD0EDBCF18FFFE0EDBCF56
:103B800019FF0F01106B116B086BE552E7CFD9FFDE
:103B90001200D9CFE6FFE1CFD9FFFD0EDBCF1AFF30
:103BA000FE0EDBCF1BFF050E0D6E0E6A1ACF08F05E
:103BB0001BCF09F07DEC23F008C01AFF09C01BFFE2
:103BC0000F01126B136B096BE552E7CFD9FF12009F
:103BD000D9CFE6FFE1CFD9FFFD0EDBCF1EFFFE0EF2
:103BE000DBCF1FFF0A0E0D6E0E6A1ECF08F01FCF2F
:103BF00009F07DEC23F008C01EFF09C01FFF0F0174
:0E3C0000166B176B0B6BE552E7CFD9FF120066
:023C0E000F0E97
:103C1000946E82681200CF0E9414946E8268120023
:103C2000D9CFE6FFE1CFD9FF050EE126040EDB6A0E
:103C3000DE6ADD6ADECF10F0DDCF11F0D8901150D2
:103C400004E6040E105C000E115801E395D0DECF9F
:103C5000E9FFDDCFEAFFE50EE926010EEA22EF1CBF
:103C6000826E020EDB6A030EDB6A020EDBCF10F0FF
:103C7000030EDBCF11F0D890115004E6040E105C57
:103C8000000E115873E2020EDBCFE9FF030EDBCF0B
:103C9000EAFFE90EE926010EEA22EF50821444E120
:103CA000DECF14F0DDCF15F0D89014361536D8904D
:103CB00014361536020EDB501424E96E030EDB5069
:103CC0001520EA6ED890E936EA36C50EE926010ECF
:103CD000EA22EECF12F0EFCF13F0010E1226000E03
:103CE0001322DECF10F0DDCF11F0D8901036113650
:103CF000D89010361136020EDB501024E96E030EF8
:103D0000DB501120EA6ED890E936EA36C50EE92676
:103D1000010EEA2212C0EEFF13C0EDFF010EF36E9A
:103D2000040EF3CFDBFF1BD0DECF10F0DDCF11F0A0
:103D3000D89010361136D89010361136020EDB505E
:103D40001024E96E030EDB501120EA6ED890E9369C
:103D5000EA36C50EE926010EEA22EE6AED6A020E87
:103D6000DB2A030E01E281D7DB2A7FD7DF2A010E8F
:103D700001E260D7DB2A5ED7040EDB0404E1010117
:103D8000010EED6F02D00101ED6B050EE15C02E268
:103D9000E16AE552E16EE552E7CFD9FF1200D9CFD3
:103DA000E6FFE1CFD9FF050EE126040EDB6ADE6AED
:103DB000DD6ADECF10F0DDCF11F0D890115004E6AF
:103DC000020E105C000E115801E399D0DECFE9FF1E
:103DD000DDCFEAFFE50EE926010EEA22EF1C821490
:103DE000826E0F0E8210826E020EDB6A030EDB6A99
:103DF000020EDBCF10F0030EDBCF11F0D890115084
:103E000004E6040E105C000E115873E2020EDBCFC4
:103E1000E9FF030EDBCFEAFFE90EE926010EEA22F5
:103E2000EF50821444E1DECF14F0DDCF15F0D890CE
:103E300014361536D89014361536020EDB5014247D
:103E4000E96E030EDB501520EA6ED890E936EA36AB
:103E5000C50EE926010EEA22EECF12F0EFCF13F0E5
:103E6000010E1226000E1322DECF10F0DDCF11F06E
:103E7000D89010361136D89010361136020EDB501D
:103E80001024E96E030EDB501120EA6ED890E9365B
:103E9000EA36C50EE926010EEA2212C0EEFF13C073
:103EA000EDFF010EF36E040EF3CFDBFF1BD0DECF70
:103EB00010F0DDCF11F0D89010361136D8901036B2
:103EC0001136020EDB501024E96E030EDB50112078
:103ED000EA6ED890E936EA36C50EE926010EEA22E6
:103EE000EE6AED6A020EDB2A030E01E281D7DB2ABD
:103EF0007FD7DF2A010E01E25CD7DB2A5AD7040EF6
:103F0000DB0404E10101010EED6F02D00101ED6B54
:103F1000050EE15C02E2E16AE552E16EE552E7CFAF
:103F2000D9FF1200D9CFE6FFE1CFD9FF040EE12679
:103F3000DE6ADD6ADECF10F0DDCF11F0FD0EDBCFE3
:103F400012F0FE0EDBCF13F011501318E8AE02D0C2
:103F5000133404D01250105C135011581DE2020E9D
:103F6000DB6A030EDB6A020EDBCF10F0030EDBCF41
:103F700011F0D890115004E6EE0E105C000E1158AE
:103F800006E2020EDB2A030EEEE3DB2AECD7DF2A81
:103F9000010ED0E3DB2ACED7040EE15C02E2E16A37
:103FA000E552E16EE552E7CFD9FF1200D9CFE6FF27
:103FB000E1CFD9FF040EE126DE6ADD6ADECF10F024
:103FC000DDCF11F0D890115004E6040E105C000E05
:103FD000115875E2DECFE9FFDDCFEAFFE50EE926F5
:103FE000010EEA22EF1C826E020EDB6A030EDB6A10
:103FF000020EDBCF10F0030EDBCF11F0D890115082
:1040000004E6040E105C000E11584AE2DECF10F0F8
:10401000DDCF11F0D89010361136D8901036113609
:10402000020EDB501024E96E030EDB501120EA6E05
:10403000D890E936EA36C50EE926010EEA22EE6A84
:10404000ED6A020EDBCFE9FF030EDBCFEAFFE90EDC
:10405000E926010EEA22EF5082141CE1DECF10F0B7
:10406000DDCF11F0D89010361136D89010361136B9
:10407000020EDB501024E96E030EDB501120EA6EB5
:10408000D890E936EA36C50EE926010EEA22010E7D
:10409000EE6EED6A020EDB2A030EAAE3DB2AA8D736
:1040A0008250816EE80EE66E030EE66E3BDFE5524F
:1040B000E552DF2A010E01E281D7DB2A7FD7040E09
:1040C000E15C02E2E16AE552E16EE552E7CFD9FF39
:0240D0001200DC
:0E40D200D9CFE6FFE1CFD9FF020EE126FE0EA8
:1040E000DB500F0BDF6EFE0EDB380F0B0A0D010EDF
:1040F000F3CFDBFFDB50DF24106E020EE15C02E247
:10410000E16AE552E16E1050E552E7CFD9FF1200A7
:10411000D9CFE6FFE1CFD9FF020EE1260A0E106EDD
:104120000E6EFE0EDBCF09F060EC25F00550DF6E61
:104130000A0E106E0E6EFE0EDBCF09F060EC25F05D
:104140000950100D010EF3CFDBFFDB50DF24106EA2
:10415000020EE15C02E2E16AE552E16E1050E552C6
:10416000E7CFD9FF1200949694981200D9CFE6FFBA
:10417000E1CFD9FFE652DF6AFE0EDB50DF5C02E2E0
:10418000DF2AFAD7E552E552E7CFD9FF120082A81D
:10419000000C010C0001FC5102E0828882868298AA
:1041A0008296010EFC6F120082988286828800013E
:1041B000FC6B1200D9CFE6FFE1CFD9FF020EE1265A
:1041C000DF6ADFCF10F0080EE76E1018E8AE02D0FD
:1041D000E73402D0E750105C0FE2FE0EDBBE02D0E7
:1041E000829801D0828882868296DB50020DFE0E74
:1041F000F3CFDBFFDF2AE5D794888286C8DFE76E3E
:10420000010EE7CFDBFF82969498DB50106E020E12
:10421000E15C02E2E16AE552E16E1050E552E7CF5F
:10422000D9FF1200D9CFE6FFE1CFD9FF020EE12678
:10423000DF6A9488010EDB6ADBCF10F0080EE76EB0
:104240001018E8AE02D0E73402D0E750105C0BE261
:1042500082869DDF106EDF50E8241010DF6E82969C
:10426000010EDB2AE9D79498FE0EDB5002E082882B
:1042700001D0829882868296DF50106E020EE15C39
:1042800002E2E16AE552E16E1050E552E7CFD9FF54
:104290001200D9CFE6FFE1CFD9FF7CDFD00EE66E6A
:1042A00089DFE552FE0EDBCFE6FF84DFE552FD0E2F
:1042B000DBCFE6FF2DDFE552E66E7CDFE55274DFF3
:1042C000E552E7CFD9FF1200D9CFE6FFE1CFD9FF02
:1042D000E65260DFD00EE66E6DDFE552FE0EDBCFFC
:1042E000E6FF68DFE55256DFD10EE66E63DFE5528A
:1042F000010EE66E97DFE552DF6EDFCFE6FFE9DE07
:10430000E552DF6E51DFDF50E552E552E7CFD9FFCE
:104310001200D9CFE6FFE1CFD9FFFD0EDBCFE6FFDC
:10432000FE0EDBCFE6FFB5DFE552E552E552E7CF03
:10433000D9FF1200D9CFE6FFE1CFD9FFFE0EDBCFC8
:0E434000E6FFC2DFE552E552E7CFD9FF1200DB
:02434E002F003E
:104350003A00300030300050415353574F52442000
:1043600057524F4E47202000434C4541522043486E
:1043700045434B20494E004E455854204944202087
:104380002020005052455353202320544F20454EA7
:1043900054455220004F50454E494E4720444F4F00
:1043A00052202020200056202020202000542020B1
:1043B0002020200048442020202020004C4F47206F
:1043C00020202020004E45572050572049442000EF
:1043D00052454D4F564520434F4D504C4554450096
:1043E000593A454E544552004E3A4241434B0052D1
:1043F000454D4F56452049442000342E2000332E91
:104400002000322E2000312E200050415353574FB0
:1044100052443A20004E4557204944203A2000504B
:104420005720464F522049442000312E4348414EE8
:104430004745204D454D20505700322E52454D4F97
:104440005645204D454D42455200312E41444420B1
:104450004D454D424552004348414E474520535536
:104460004343455353004348414E47452041442070
:10447000504153530000312E434C45415220434894
:1044800045434B20494E00322E435245415445206E
:104490004C4F4700312E4D414E4147452055534525
:1044A00052004348414E4745205553455220504104
:1044B000535300322E4348414E47452050415353F9
:1044C00000312E4F50454E20444F4F52002A0020BD
:1044D000005041535320464F522049442000496E1A
:1044E00076616C696420494420202020202000202F
:1044F00020202020202020202020202000454E5455
:104500004552204944202020202020202000202027
:10451000202020202020202020202020202000508B
:1045200052455353202320464F52205041535300AD
:06453000460020202000DF
:0A453600F28ED08EF28C1200F19C80
:10454000F292F2881200D8CFE4FFE0CFE4FFE46EED
:10455000DACFE4FFE2CFDAFFE9CFE4FFEACFE4FF0E
:10456000F6CFE4FFF7CFE4FFF5CFE4FFF3CFE4FFAE
:10457000F4CFE4FFFACFE4FF00EE00F0100EE80401
:1045800003E3EECFE4FFFBD700EE10F00A0EE804E1
:1045900003E3EECFE4FFFBD7E652F2A407D0D3EC5F
:1045A0001BF0F294D5EC1BF07FEC1DF09EA007D021
:1045B000BEEC1CF09E9078EC1CF08DEC1DF0A1A2DE
:1045C00007D07DEC1DF0A19237EC1DF0A9EC1DF099
:1045D000F2B2F2929EBA9E9AE55200EE19F00A0EDD
:1045E000E80403E3E5CFEDFFFBD700EE0FF0100E7C
:1045F000E80403E3E5CFEDFFFBD7E5CFFAFFE5CF16
:10460000F4FFE5CFF3FFE5CFF5FFE5CFF7FFE5CF0B
:10461000F6FFE5CFEAFFE5CFE9FFE5CFDAFFE550AA
:10462000E5CFE0FFE5CFD8FF1000DACFE4FFE2CF1F
:10463000DAFFE9CFE4FFEACFE4FFF6CFE4FFF7CFFC
:10464000E4FFF5CFE4FFF3CFE4FFF4CFE4FFFACFCC
:10465000E4FF00EE00F0100EE80403E3EECFE4FF09
:10466000FBD700EE10F00A0EE80403E3EECFE4FF00
:10467000FBD7E652F2A407D0D3EC1BF0F294D5ECB2
:104680001BF07FEC1DF09EA007D0BEEC1CF09E90AE
:1046900078EC1CF08DEC1DF0A1A207D07DEC1DF094
:1046A000A19237EC1DF0A9EC1DF0F2B2F2929EBA85
:1046B0009E9AE55200EE19F00A0EE80403E3E5CFF6
:1046C000EDFFFBD700EE0FF0100EE80403E3E5CF9B
:1046D000EDFFFBD7E5CFFAFFE5CFF4FFE5CFF3FF22
:1046E000E5CFF5FFE5CFF7FFE5CFF6FFE5CFEAFF32
:0A46F000E5CFE9FFE5CFDAFF110086
:0646FA00006A0EAE86EF1F
:1047000023F00D6C0E1EE86A0E22001E09AE8EEF1D
:1047100023F0086C091EE86A0922001E2CEC25F023
:1047200009BE9EEF23F000AE000C086C091EE86A7B
:104730000922046C051EE86A0522000C00BE95EFF4
:1047400023F00188FF0C006A0EAEAEEF23F00C6C74
:104750000D1E0E1EE86A0D220E22001E09AEB8EFD5
:1047600023F0076C081E091EE86A08220922001EB1
:104770000FEC25F009BECBEF23F000AE000C076C68
:10478000081E091EE86A08220922036C041E051E81
:1047900004220522000C00BEBFEF23F00188FF0CAD
:1047A0001E0EF66E000EF76E000EF86E0101090087
:1047B000F550F36F0900F550F46F03E1F36701D092
:1047C0003DD00900F550EE6F0900F550EF6F09007C
:1047D000F550F06F09000900F550E96E0900F55039
:1047E000EA6E090009000900F550F16F0900F55063
:1047F000F26F09000900F6CFF5F1F7CFF6F1F8CF27
:10480000F7F1EEC1F6FFEFC1F7FFF0C1F8FF0101CC
:10481000F15302E1F25307E00900F550EE6EF107A3
:10482000F8E2F207F9D7F5C1F6FFF6C1F7FFF7C1D5
:0E483000F8FF0101F307000EF45BBFD7120082
:02483E00D9CFD0
:10484000E6FFDACFE6FFFA0EE3CFD9FFFB0EE3CFA8
:10485000DAFFFC0EE3CFE9FFFD0EE3CFEAFFE9CF7D
:10486000F3FFEACFF4FFE950D95CEA50DA580EE3DF
:10487000F80EE35003E1F90EE35024E0F80EE306EE
:1048800002E2F90EE306DECFEEFFF2D7F80EE350B8
:10489000D926F90EE350DA22DD52F80EE350E9266C
:1048A000F90EE350EA22ED52F80EE35003E1F90E5F
:1048B000E35008E0F80EE30602E2F90EE306DDCF6E
:1048C000EDFFF2D7FF0EE3CFDAFFE552FF0EE3CFA5
:0648D000D9FFE5521200C1
:0A48D600010E926E0E0EC16EC26A52
:1048E000040EC06EC2801200D9CFE6FFE1CFD9FF1F
:1048F000020EE126DE6ADD6AC282C2B2FED7C45071
:10490000DE6EDD6ADECF12F0DDCF13F0D890123606
:104910001336D89012361336060EC3CFE7FF070BB7
:1049200004E0E742E79EE806FCE1E7501224106E3F
:10493000000E132010C0DEFFDD6EDECF20FFDDCFC6
:1049400021FFDECF10F0DDCF11F010C0F3FF11C05A
:10495000F4FF020EE15C02E2E16AE552E16EE5522B
:06496000E7CFD9FF1200B1
:0A49660006500B02F3CF02F0F4CF6D
:1049700003F00C02F3500326000EF420046E0650E0
:104980000D02F3500426000EF420056E06500E02B0
:10499000F350052607500B02F3500326F45004226F
:1049A000000E052207500C02F3500426F450052295
:1049B00007500D02F350052608500B02F350042651
:1049C000F450052208500C02F350052609500B0242
:0649D000F3500526120061
:0A49D600056A046A036A026A200EF3
:1049E000E76ED890063607360836093602360336A3
:1049F000043605360B50025C0C5003580D50045819
:104A00000E50055809E30B50025E0C50035A0D502E
:0E4A1000045A0E50055A062AE72EE4D712006B
:024A1E00056A27
:104A2000046A036A180EE76ED8900736083609360E
:104A30000336043605360C50035C0D5004580E50F6
:104A4000055807E30C50035E0D50045A0E50055AEA
:084A5000072AE72EEAD7120045
:084A5800056A046A100EE76E06
:104A6000D89008360936043605360D50045C0E50D1
:104A7000055805E30D50045E0E50055A082AE72E2E
:044A8000F0D7120059
:0C4A8400800EF36E00EE00F00F0E01D863
:104A90001200EA6002D0EE6AFCD7F350E96012001F
:044AA000EE6AFCD7E7
:0C4AA4001EEE00F02EEE00F0F86A019CFF
:104AB000D0EC23F003EC00F034EC00F0FBD7120054
:104AC000056A080EE76ED890093605360E50055C6B
:0C4AD00002E3056E092AE72EF7D712005A
:044ADC0000000000D6
:104AE00000000000000000000000000000000000C6
:0C4AF000000000000100010001000100B6
:044AFC0001020408A7
:104B000010204080000000000000000000000000B5
:104B10000000000000000000000101020341040544
:104B20000642070809432A0045440102030405061A
:104B30000207080907080303030303030408060820
:104B4000020105414243443000000102030405060E
:104B50000201000207080907080202000303030319
:104B6000030302030004080608020102000000001B
:104B70000000000000000000000000000000000035
:104B80000000000000000000000000000000000025
:104B90000000000000000000000000000000000015
:104BA00000000000000000000000000400040003FA
:104BB000090A0B1708000D0E0F0A0000000003166B
:014BC00000F4
:0F4BC10000000000000000001010101010101075
:104BD0001018181818181818181C1C1C1C1C1C1C41
:104BE0001C1E1E1E1E1E1E1E1E1F1F1F1F1F1F1FE0
:104BF0001F00000000000000000000000000000096
:104C000000000000000000000000000000000000A4
:104C10000000000000000000000000000000000094
:024C2000000092
:0E4C2200000000D00022222207250910000108
:0E4C3000000000000000000000000000000076
:024C3E00000074
:104C40000000000000000000000000000000000064
:104C50000000000000000000000000000000102024
:074C6000408001020408007E
:020000040030CA
:0100010002FC
:0100020003FA
:010003001EDE
:010005008179
:010006008178
:010008000FE8
:01000900C036
:01000A000FE6
:01000B00E014
:01000C000FE4
:01000D0040B2
:00000001FF
