:020000040000FA
:060000005DEF24F0120088
:020006001200E6
:0600080053EF21F012008D
:02000E000000F0
:020010000000EE
:06001800E1EF20F01200F0
:02001E000600DA
:10002000504A0000C101000029000000344A0000CD
:10003000E10000001C0000000E0000003A0F00006C
:1000400004000000D34900008000000061000000AF
:100050001249000000010000C1000000F248000049
:08006000000F00002000000069
:08006800D9CFE6FFE1CFD9FF7B
:10007000020EE126DE6ADD6A4ED80F010B51FDE06B
:100080000B6B42EC1DF09ED930EC15F0F6D7D9CFB2
:10009000E6FFE1CFD9FF040EE126DE6ADD6ADECF9E
:1000A00010F0DDCF11F0FD0EDBCF12F0FE0EDBCF36
:1000B00013F011501318E8AE02D0133404D01250CC
:1000C000105C135011581DE2020EDB6A030EDB6A4E
:1000D000020EDBCF10F0030EDBCF11F0D8901150E1
:1000E00004E6EE0E105C000E115806E2020EDB2A4A
:1000F000030EEEE3DB2AECD7DF2A010ED0E3DB2A86
:10010000CED7040EE15C02E2E16AE552E16EE5520F
:10011000E7CFD9FF1200936A956A61EC11F001EC08
:1001200015F0D9EC20F0E80EE66E030EE66EAFDFB8
:10013000E552E552570EE66E120EE66EABEC1AF083
:10014000E552E552AE0EE66E240EE66E4DEC1BF067
:10015000E552E552660EE66EB70EE66E0EEC1CF04A
:10016000E552E552020EE66EE66AE9EC1CF0E55255
:10017000E5520A0EE66EE66AFBEC1CF0E552E5522B
:10018000320EE66EE66A1AEC1DF0E552E55239ECE5
:100190001DF0E5EF1FF0D9CFE6FFE1CFD9FFFE0E4E
:1001A000DBCF11F0800E11141AE1FD0EDBCF12F03F
:1001B000FE0EDBCF13F0133404E212500708000EDA
:1001C00013540DE3FD0EDBCFE9FFFE0EDBCFEAFF9C
:1001D000000EE926010EEA22EF508310836EE552ED
:1001E000E7CFD9FF1200D9CFE6FFE1CFD9FFFE0E4E
:1001F000DBCF11F0800E11141AE1FD0EDBCF12F0EF
:10020000FE0EDBCF13F0133404E212500708000E89
:1002100013540DE3FD0EDBCFE9FFFE0EDBCFEAFF4B
:10022000000EE926010EEA22EF1C8314836EE552CC
:10023000E7CFD9FF1200D9CFE6FFE1CFD9FFFD0EFE
:10024000DBCFE9FFFE0EDBCFEAFF080EE926010E49
:10025000EA22EF0415E1FD0EDBCFE6FFFE0EDBCF59
:10026000E6FFC1DFE552E552FD0EDBCFE9FFFE0EF2
:10027000DBCFEAFF080EE926010EEA22EF6A15D06D
:10028000FD0EDBCFE6FFFE0EDBCFE6FF84DFE5529F
:10029000E552FD0EDBCFE9FFFE0EDBCFEAFF080ED5
:1002A000E926010EEA22010EEF6EE552E7CFD9FFF3
:1002B0001200D9CFE6FFE1CFD9FF020EE126DE6AB8
:1002C000DD6ADECF10F0DDCF11F0113404E2105002
:1002D0000708000E115421E3DECFE6FFDDCFE6FF75
:1002E0005ADFE552E552F40EE66E010EE66ECFDE01
:1002F000E552E552DECFE6FFDDCFE6FF74DFE552E3
:10030000E552F40EE66E010EE66EC1DEE552E552F0
:10031000DF2A010ED6E3DB2AD4D7020EE15C02E22B
:10032000E16AE552E16EE552E7CFD9FF1200D9CF7D
:10033000E6FFE1CFD9FF020EE126DE6ADD6ADE6A62
:10034000DD6ADECF10F0DDCF11F00101AD51105CA0
:10035000AE5111582BE2DECFE9FFDDCFEAFF090EE7
:10036000EA02F3CFEAFFE902F3CFE9FFF450EA260D
:100370004B0EE926010EEA22EECF10F0EFCF11F07E
:10038000FD0EDB5010180DE1FE0EDB50111809E1D7
:10039000DECF10F0DDCF11F010C0F3FF11C0F4FF7D
:1003A00007D0DF2A010ECDE3DB2ACBD7F368F46850
:1003B000020EE15C02E2E16AE552E16EE552E7CF4E
:1003C000D9FF1200D9CFE6FFE1CFD9FF020EE12617
:1003D0000101A751040A02E107EF0DF0070A02E14B
:1003E000D5EF0CF0080A02E143EF0CF01F0A02E11E
:1003F00009EF0CF0070A02E17EEF0BF01C0A02E1A4
:1004000009EF0AF01D0A02E1A6EF09F0030A02E172
:100410002DEF09F01F0A02E1B3EF07F01E0A02E117
:10042000EBEF06F01D0A02E163EF06F0070A01E1B7
:1004300065D3060A01E122D3050A01E1B1D2010A1E
:1004400001E13BD21E0A01E1CAD1030A01E181D1D7
:10045000170A01E16CD1030A01E1DFD0060A01E1CC
:10046000C7D0010A01E1AAD0030A22E0050A02E08E
:1004700019EF0DF0F80EE66E440EE66EE66AE66AD7
:1004800076EC17F0E552E552E552E5522EEC0FF00E
:10049000BBEC0DF08DEC0DF0000902E119EF0DF051
:1004A00082EC0EF00101A56BA66B050E07EF0AF0BA
:1004B000AA2BE70EE66E440EE66EE66AE66A76EC76
:1004C00017F0E552E552E552E55264EC0DF00009F3
:1004D00032E0410E0101FA5D14E10101A951000869
:1004E00028E20A0E0D6E0E6AA5C108F0A6C109F039
:1004F00037EC24F008C0A5F109C0A6F10101A90755
:1005000018D00A0EFA5D15E2A5C110F0A6C111F0CF
:100510000A0E1102F3CF11F01002F3CF10F0F450D5
:100520001126FA510101F324A56F000E1120A66FC8
:10053000A92B0101AA6BA9C1E6FFA5C1E6FFA6C1CF
:10054000E6FF000EE66EE66A010EE66EE66ACAECAB
:100550000DF0106E070EE15E1050D90EE66E440EDF
:10056000E66E030EE66E010EE66E76EC17F0E552CF
:10057000E552E552E552030E0101A95D04E28DEC5E
:100580000DF0000905E082EC0EF00101060EA76FE8
:1005900095EC0DF0000902E00101A76B0101AA51E1
:1005A000106E116AD890115004E6580E105C020EBD
:1005B000115802E219EF0DF005EF0DF0AA6BA5C17D
:1005C000E6FFA6C1E6FFB3DEE552E552F3CFABF19D
:1005D000F4CFACF10101F31C01E1AC1D06E0010E0A
:1005E000A76F01EC15F019EF0DF0070E07EF0AF0F9
:1005F000AA2BC80EE66E440EE66EE66AE66A76EC54
:1006000017F0E552E552E552E552280E0101AA5DC8
:1006100002E219EF0DF005EF0DF0BB0EE66E440E91
:10062000E66EE66AE66A76EC17F0E552E552E552C8
:10063000E552ABC1E9FFACC1EAFF090EEA02F3CF14
:10064000EAFFE902F3CFE9FFF450EA264B0EE92670
:10065000010EEA22EECF10F0EFCF11F0126A136A0A
:1006600010C0E6FF11C0E6FF12C0E6FF13C0E6FFB0
:100670000D0EE66EE66A4FEC16F0146E060EE15EA5
:1006800014500101AA2B64EC0DF0000935E0410E75
:100690000101FA5D14E10101A85100082BE2A8074D
:1006A000B90EE66E440EE66EA8C1E6FF010EE66ED8
:1006B00076EC17F0E552E552E552E5521BD00A0EF2
:1006C000FA5D18E2B70EE66E440EE66EA8C1E6FFCC
:1006D000010EE66E76EC17F0E552E552E552E55272
:1006E0000101A851EA6AF40FE96E010EEA22FAC18B
:1006F000EFFFA82B0101AA6B060E0101A85D02E322
:10070000020EA76FAA51106E116AD890115004E61C
:10071000580E105C020E115801E3A76B95EC0DF01A
:10072000000902E119EF0DF0010105EF0DF0AA6BD0
:10073000A86B23EC0DF0000908E00101AB51AC11EE
:1007400001E1BFD2150E07EF0AF00101040E07EF19
:100750000AF0AA2BAB0EE66E440EE66EE66AA1EC3A
:1007600017F0E552E552E5529D0EE66E440EE66E38
:10077000010EE66EA1EC17F0E552E552E5520101DB
:10078000E90502E10101AA6B95EC0DF0000902E018
:100790000101A76B0101010EC11906E1C25104E17B
:1007A000BEC1A7F182EC0EF00101010EC31906E1F2
:1007B000C45104E1BFC1A7F182EC0EF00101AA51BE
:1007C000106E116A113402E319EF0DF01050580841
:1007D000020E115402E319EF0DF005EF0DF0AA2BF4
:1007E0008C0EE66E440EE66EE66AA1EC17F0E5525A
:1007F000E552E55264EC0DF0000939E0410E0101CB
:10080000FA5D14E10101A85100082FE2A807B90E12
:10081000E66E440EE66EA8C1E6FF010EE66E76ECCB
:1008200017F0E552E552E552E5521FD00A0EFA5D87
:100830001CE2060E0101A85D18E2B70EE66E440E3A
:10084000E66EA8C1E6FF010EE66E76EC17F0E55203
:10085000E552E552E5520101A851EA6AF40FE96E4A
:10086000010EEA22FAC1EFFFA82B0101AA6B8DEC61
:100870000DF0000908E0060E0101A85D04E30C0E6E
:10088000A76F82EC0EF095EC0DF0000905E0010178
:10089000150EA76F82EC0EF00101AA51106E116ABD
:1008A000113402E319EF0DF010505808020E1154E4
:1008B00002E319EF0DF005EF0DF0AA2BB551010A77
:1008C00010E0010A23E1AB0EE66E440EE66EE66A26
:1008D000A1EC17F0E552E552E5529D0EE66E440E8E
:1008E0000DD07E0EE66E440EE66EE66AA1EC17F0C1
:1008F000E552E552E552710EE66E440EE66E010ECB
:10090000E66EA1EC17F0E552E552E5520101E9056A
:1009100002E10101AA6B8DEC0DF0000905E0010177
:10092000B529010BB56FAA6B95EC0DF0000902E03B
:100930000101A76B0101010EC11911E1C2510FE1C3
:100940000101B551E96EEA6AD890E936EA36B10E8E
:10095000E926010EEA22EFCFA7F182EC0EF00101A9
:10096000010EC31915E1C45113E10101B551E96E3E
:10097000EA6AD890E936EA36B10EE926010EEA2293
:10098000010EE926000EEA22EFCFA7F182EC0EF06D
:100990000101AA51640802E319EF0DF005EF0DF013
:1009A000AA2B620EE66E440EE66EE66AA1EC17F024
:1009B000E552E552E55264EC0DF0000939E0410ED4
:1009C0000101FA5D14E10101A85100082FE2A80716
:1009D000B90EE66E440EE66EA8C1E6FF010EE66EA5
:1009E00076EC17F0E552E552E552E5521FD00A0EBB
:1009F000FA5D1CE2060E0101A85D18E2B70EE66E74
:100A0000440EE66EA8C1E6FF010EE66E76EC17F026
:100A1000E552E552E552E5520101A851EA6AF40FA8
:100A2000E96E010EEA22FAC1EFFFA82B0101AA6BC1
:100A30008DEC0DF0000908E0060E0101A85D04E34D
:100A40000C0EA76F82EC0EF095EC0DF0000905E09E
:100A50000101080EA76F82EC0EF00101AA51106E81
:100A6000116A113402E319EF0DF010505808020E0C
:100A7000115402E319EF0DF005EF0DF0AA2B530E00
:100A8000E66E440EE66EE66AA1EC17F0E552E5521A
:100A9000E5520101AA052AE1060EE66EE66AF40EA9
:100AA000E66E010EE66EABC1E9FFACC1EAFF090ECE
:100AB000EA02F3CFEAFFE902F3CFE9FFF450EA26B6
:100AC0004B0EE926010EEA22020EE926000EEA226A
:100AD000E9CF10F0EACF11F0E9CFE6FFEACFE6FF69
:100AE0002AEC23F0126E060EE15E12500101AA51AB
:100AF000280802E319EF0DF005EF0DF0AA2BBA510B
:100B0000010A10E0010A23E1460EE66E440EE66E8D
:100B1000E66AA1EC17F0E552E552E552360EE66EB4
:100B2000440E0DD0260EE66E440EE66EE66AA1EC8B
:100B300017F0E552E552E552B90EE66E440EE66E48
:100B4000010EE66EA1EC17F0E552E552E552010107
:100B5000E90502E10101AA6B8DEC0DF0000905E049
:100B60000101BA29010BBA6FAA6B95EC0DF00009CF
:100B700005E00101080EA76F82EC0EF00101010EE5
:100B8000C11944E1C25142E10101BA51E96EEA6A78
:100B9000D890E936EA36B60EE926010EEA22EFCF02
:100BA000A7F182EC0EF0ADC112F0AEC113F0120647
:100BB000000E135A0001136A030E1216125013107E
:100BC00010E1ADC110F0AEC111F01006000E115AC7
:100BD000020E0F0B19E0D89011321032E806FBE13B
:100BE00013D0ADC110F0AEC111F01006000E115AB5
:100BF000020E0F0B05E0D89011321032E806FBE12F
:100C0000010E1026000E112210C0BBF10101010ED1
:100C1000C31948E1C45146E10101BA51E96EEA6ADB
:100C2000D890E936EA36B60EE926010EEA22010E20
:100C3000E926000EEA22EFCFA7F182EC0EF0ADC15B
:100C400012F0AEC113F01206000E135A0001136A1F
:100C5000030E12161250131010E1ADC110F0AEC108
:100C600011F01006000E115A020E0F0B19E0D89069
:100C700011321032E806FBE113D0ADC110F0AEC165
:100C800011F01006000E115A020E0F0B05E0D8905D
:100C900011321032E806FBE1010E1026000E11227F
:100CA00010C0BBF10101AA51106E116A113402E3A8
:100CB00019EF0DF010505808020E115402E319EF0D
:100CC0000DF0080EA4D3AA2B1B0EE66E440EE66EA2
:100CD000E66AE66A76EC17F0E552E552E552E5522F
:100CE000AFC110F0B0C111F0126A136AAFC1E6FFD4
:100CF000B0C1E6FF12C0E6FF13C0E6FF0A0EE66EC3
:100D0000E66A4FEC16F0146E060EE15E145064ECC9
:100D10000DF0000939E0410E0101FA5D14E1010115
:100D2000A85100082FE2A807B90EE66E440EE66E41
:100D3000A8C1E6FF010EE66E76EC17F0E552E5522B
:100D4000E552E5521FD00A0EFA5D1CE2060E0101C3
:100D5000A85D18E2B70EE66E440EE66EA8C1E6FF87
:100D6000010EE66E76EC17F0E552E552E552E552DB
:100D70000101A851EA6AF40FE96E010EEA22FAC1F4
:100D8000EFFFA82B0101AA6B8DEC0DF0000908E024
:100D9000060E0101A85D04E3100EA76F82EC0EF0B1
:100DA00095EC0DF0000905E001010A0EA76F82EC39
:100DB0000EF00101AA51106E116A113402E319EF0D
:100DC0000DF010505808020E115402E319EF0DF007
:100DD000080E40EF0CF0AA2B110EE66E440EE66EE4
:100DE000E66AE66A76EC17F0E552E552E552E5521E
:100DF000060EE66E440EE66EE66A010EE66E76ECD0
:100E000017F0E552E552E552E5520101AA0501E06D
:100E100088D0DE6ADD6AADC1E9FFAEC1EAFF090E26
:100E2000EA02F3CFEAFFE902F3CFE9FFF450EA2642
:100E30004B0EE926010EEA22AFC1EEFFB0C1EDFF75
:100E4000DE6ADD6ADECF10F0DDCF11F0D8901150F0
:100E500004E6060E105C000E115846E2DECFE9FFF4
:100E6000DDCFEAFFF40EE926010EEA22EF50E66E2E
:100E7000ADC1E9FFAEC1EAFF090EEA02F3CFEAFF16
:100E8000E902F3CFE9FFF450EA264B0EE926010E02
:100E9000EA22020EE926000EEA22DE50E924E96E7B
:100EA000DD50EA20EA6EE552E750EF6EDECFE9FF53
:100EB000DDCFEAFFF40EE926010EEA22EF50300FF3
:100EC000E66EDECF10F0DDCF11F00A0E1024E66ED4
:100ED000010EE66E24EC16F0E552E552E552DF2AEB
:100EE000010EB0E3DB2AAED7ADC1E9FFAEC1EAFF28
:100EF000090EEA02F3CFEAFFE902F3CFE9FFF4506B
:100F0000EA264B0EE926010EEA22080EE926000E1B
:100F1000EA22020EEF6E0101AF2B000EB023AD2BC3
:100F2000AE23AFC110F0B0C111F01006000E115A7F
:100F3000126A136A10C0E6FF11C0E6FF12C0E6FF96
:100F400013C0E6FF090EE66EE66A4FEC16F0146E6B
:100F5000060EE15E14500101AA51280802E319EFC0
:100F60000DF007EF0CF0AA2B040EBC03F328106E53
:100F7000AD51105C000EAE5530E2020EE66E440E2E
:100F8000E66EE66AE66A76EC17F0E552E552E5525F
:100F9000E552040E0101BC03F328090DF3CFE9FF6C
:100FA000F4CFEAFF4B0EE926010EEA22EECF10F055
:100FB000EFCF11F0126A136A10C0E6FF11C0E6FF0E
:100FC00012C0E6FF13C0E6FF030EE66EE66A4FECC2
:100FD00016F0146E060EE15E1450040E0101BC03FF
:100FE000F350020F106EAD51105C000EAE5532E2A0
:100FF000FE0EE66E430EE66E080EE66EE66A76ECD0
:1010000017F0E552E552E552E552040E0101BC032A
:10101000F350020F090DF3CFE9FFF4CFEAFF4B0EB7
:10102000E926010EEA22EECF10F0EFCF11F0126A9E
:10103000136A10C0E6FF11C0E6FF12C0E6FF13C03E
:10104000E6FF0B0EE66EE66A4FEC16F0146E060E27
:10105000E15E1450040E0101BC03F350030F106E47
:10106000AD51105C000EAE5533E2FA0EE66E430E43
:10107000E66EE66A010EE66E76EC17F0E552E55292
:10108000E552E552040E0101BC03F350030F090DB4
:10109000F3CFE9FFF4CFEAFF4B0EE926010EEA2277
:1010A000EECF10F0EFCF11F0126A136A10C0E6FF16
:1010B00011C0E6FF12C0E6FF13C0E6FF030EE66EA6
:1010C000010EE66E4FEC16F0146E060EE15E145043
:1010D000040E0101BC03F350040F106EAD51105CFF
:1010E000000EAE5534E2F60EE66E430EE66E080EC6
:1010F000E66E010EE66E76EC17F0E552E552E5522B
:10110000E552040E0101BC03F350040F090DF3CFA7
:10111000E9FFF4CFEAFF4B0EE926010EEA22EECFFB
:1011200010F0EFCF11F0126A136A10C0E6FF11C081
:10113000E6FF12C0E6FF13C0E6FF0B0EE66E010EDF
:10114000E66E4FEC16F0146E060EE15E14508DEC58
:101150000DF000090EE00101BC29106EBBC10EF0BC
:10116000096E6BEC24F005C0BCF101EC15F0010137
:10117000AA6B95EC0DF0000905E001010A0EA76FBE
:1011800082EC0EF064EC0DF0000959E00101FA0563
:101190000EE1040E0101BC03F328106EAD51105C8A
:1011A000000EAE5504E2040EBC03F3283ED0020E3E
:1011B0000101FA5D10E1040E0101BC03F350020FBE
:1011C000106EAD51105C000EAE5505E2040EBC036E
:1011D000F350020F2AD0030E0101FA5D10E1040E54
:1011E0000101BC03F350030F106EAD51105C000EF3
:1011F000AE5505E2040EBC03F350030F16D0040EE7
:101200000101FA5D10E1040E0101BC03F350040F6B
:10121000106EAD51105C000EAE5505E2040EBC031D
:10122000F350040F02D001010F0EBD6F0F0EBD5D14
:1012300004E0110EA76F82EC0EF00101AA6B010110
:10124000AA51106E116A113401E3F3D310505808FB
:10125000020E115401E3EDD3DAD2AA2BEB0EE66EA7
:10126000430EE66EE66AE66A76EC17F0E552E55262
:10127000E552E5520101BD51090DF3CFE9FFF4CF6D
:10128000EAFF4B0EE926010EEA22EECF10F0EFCF77
:1012900011F0126A136A10C0E6FF11C0E6FF12C017
:1012A000E6FF13C0E6FF0A0EE66EE66A4FEC16F0A4
:1012B000146E060EE15E14503F0EE66E0F0EE66EE3
:1012C000E66A24EC16F0E552E552E552E40EE66ECD
:1012D000430EE66EE66A010EE66E76EC17F0E55216
:1012E000E552E552E552DC0EE66E430EE66E080E60
:1012F000E66E010EE66E76EC17F0E552E552E55229
:10130000E5520101E90502E10101AA6B8DEC0DF046
:10131000000905E082EC0EF00101120EA76F95ECBA
:101320000DF0000905E082EC0EF001010E0EA76F32
:101330000101AA51106E116A113401E37AD31050E1
:101340005808020E115401E374D35DD0AA2BCC0EC1
:10135000E66E430EE66EE66AE66A76EC17F0E55254
:10136000E552E552E5520101AA0549E1BD51126E6F
:10137000136A1250AD5D106E1350AE59116E100607
:10138000000E115A090E1102F3CF11F01002F3CF23
:1013900010F0F4501126F3CFE6FF11C0E6FFBD5167
:1013A000090DF3CF14F0F4CF15F04B0E1426010EF7
:1013B0001522090E1426000E152214C0E6FF15C0D2
:1013C000E6FFBD51090DF3CF16F0F4CF17F04B0E29
:1013D0001626010E172216C0E6FF17C0E6FF2AECFC
:1013E00023F0186E060EE15E18500101000ED88041
:1013F000AD55000EAE5503E2AD07000EAE5BAA512F
:10140000280801E316D382EC0EF001010A0EA76F43
:1014100010D3AA2B040EBC03F328106EAD51105C40
:10142000000EAE5530E2020EE66E440EE66EE66A3F
:10143000E66A76EC17F0E552E552E552E552040E05
:101440000101BC03F328090DF3CFE9FFF4CFEAFF54
:101450004B0EE926010EEA22EECF10F0EFCF11F08D
:10146000126A136A10C0E6FF11C0E6FF12C0E6FF61
:1014700013C0E6FF030EE66EE66A4FEC16F0146E3C
:10148000060EE15E1450040E0101BC03F350020F7E
:10149000106EAD51105C000EAE5532E2FE0EE66EDF
:1014A000430EE66E080EE66EE66A76EC17F0E5523D
:1014B000E552E552E552040E0101BC03F350020F60
:1014C000090DF3CFE9FFF4CFEAFF4B0EE926010E39
:1014D000EA22EECF10F0EFCF11F0126A136A10C0BB
:1014E000E6FF11C0E6FF12C0E6FF13C0E6FF0B0ED9
:1014F000E66EE66A4FEC16F0146E060EE15E1450CE
:10150000040E0101BC03F350030F106EAD51105CCB
:10151000000EAE5533E2FA0EE66E430EE66EE66A54
:10152000010EE66E76EC17F0E552E552E552E55213
:10153000040E0101BC03F350030F090DF3CFE9FFC3
:10154000F4CFEAFF4B0EE926010EEA22EECF10F0AF
:10155000EFCF11F0126A136A10C0E6FF11C0E6FF68
:1015600012C0E6FF13C0E6FF030EE66E010EE66E44
:101570004FEC16F0146E060EE15E1450040E0101DD
:10158000BC03F350040F106EAD51105C000EAE554D
:1015900034E2F60EE66E430EE66E080EE66E010EBF
:1015A000E66E76EC17F0E552E552E552E552040E90
:1015B0000101BC03F350040F090DF3CFE9FFF4CF91
:1015C000EAFF4B0EE926010EEA22EECF10F0EFCF34
:1015D00011F0126A136A10C0E6FF11C0E6FF12C0D4
:1015E000E6FF13C0E6FF0B0EE66E010EE66E4FEC53
:1015F00016F0146E060EE15E14508FDA00090EE04C
:101600000101BC29106EBBC10EF0096E6BEC24F019
:1016100005C0BCF101EC15F00101AA6B86DA0009E6
:1016200004E001010A0EA76F6DDB4EDA000958E0F5
:101630000101FA050EE1040E0101BC03F328106E4E
:10164000AD51105C000EAE5504E2040EBC03F3284D
:101650003ED0020E0101FA5D10E1040E0101BC034F
:10166000F350020F106EAD51105C000EAE5505E246
:10167000040EBC03F350020F2AD0030E0101FA5DE1
:1016800010E1040E0101BC03F350030F106EAD51C5
:10169000105C000EAE5505E2040EBC03F350030FC0
:1016A00016D0040E0101FA5D10E1040E0101BC0325
:1016B000F350040F106EAD51105C000EAE5505E2F4
:1016C000040EBC03F350040F02D001010F0EBD6FD6
:1016D0000F0EBD5D03E0130EA76F14DB0101AA6BB3
:1016E0000101AA51106E116A113401E3A2D1105008
:1016F0005808020E115401E39CD189D0AA2BC10EC7
:10170000E66E430EE66EE66AE66A76EC17F0E552A0
:10171000E552E552E5520101BD51090DF3CFE9FF54
:10172000F4CFEAFF4B0EE926010EEA22EECF10F0CD
:10173000EFCF11F0126A136A10C0E6FF11C0E6FF86
:1017400012C0E6FF13C0E6FF0B0EE66EE66A4FEC32
:1017500016F0146E060EE15E1450B6D9000939E099
:10176000410E0101FA5D14E10101A85100082FE2C8
:10177000A807B90EE66E440EE66EA8C1E6FF010E9C
:10178000E66E76EC17F0E552E552E552E5521FD0D1
:101790000A0EFA5D1CE2060E0101A85D18E2B70E02
:1017A000E66E440EE66EA8C1E6FF010EE66E76EC2C
:1017B00017F0E552E552E552E5520101A851EA6AF7
:1017C000F40FE96E010EEA22FAC1EFFFA82B010126
:1017D000AA6BA3D9000907E0060E0101A85D03E387
:1017E000140EA76F8FDAA1D9000904E001010F0ED2
:1017F000A76F88DA0101AA51106E116A113401E352
:1018000018D110505808020E115401E312D10A0EDB
:1018100037D0AA2B530EE66E440EE66EE66AA1ECB4
:1018200017F0E552E552E5520101AA0523E1060E43
:10183000E66EE66AF40EE66E010EE66EBD51090D27
:10184000F3CFE9FFF4CFEAFF4B0EE926010EEA22BF
:10185000020EE926000EEA22E9CF10F0EACF11F0DD
:10186000E9CFE6FFEACFE6FF2AEC23F0126E060E80
:10187000E15E12500101AA51280801E3DAD00A0EF4
:10188000A76F40DAD6D0AA2BAA0501E145DAB80E37
:10189000E66E430EE66EE66AE66A76EC17F0E5520F
:1018A000E552E552E552B00EE66E430EE66E080EC6
:1018B000E66EE66A76EC17F0E552E552E552E5523F
:1018C00017C110F018C111F0126A136A17C1E6FFB0
:1018D00018C1E6FF12C0E6FF13C0E6FF0C0EE66E6D
:1018E000E66A4FEC16F0146E060EE15E1450A90E77
:1018F000E66E430EE66EE66A010EE66E76EC17F0D3
:10190000E552E552E552E5521BC110F01CC111F041
:10191000126A136A1BC1E6FF1CC1E6FF12C0E6FF94
:1019200013C0E6FF030EE66E010EE66E4FEC16F0F6
:10193000146E060EE15E1450A20EE66E430EE66EC5
:10194000080EE66E010EE66E76EC17F0E552E552F3
:10195000E552E55219C110F01AC111F0126A136A6A
:1019600019C1E6FF1AC1E6FF12C0E6FF13C0E6FF89
:101970000C0EE66E010EE66E4FEC16F0146E060EBF
:10198000E15E1450D2D8000904E00101080EA76FEF
:10199000B9D90101AA51106E116A11344AE21050EE
:1019A0005808020E115445E230D0AA2BAA0516E1C0
:1019B000ABC1E9FFACC1EAFF090EEA02F3CFEAFFCF
:1019C000E902F3CFE9FFF450EA264B0EE926010EB7
:1019D000EA22080EE926000EEA22EF6A910EE66E70
:1019E000430EE66EE66AE66A76EC17F0E552E552DB
:1019F000E552E552320E0101AA5D02E29ED801D005
:101A0000ABD8640E0101AA5D14E3A76B12D0AA2B18
:101A1000800EE66E430EE66EE66AE66A76EC17F036
:101A2000E552E552E552E552280E0101AA5D01E3B7
:101A3000A76B020EE15C02E2E16AE552E16EE5525B
:101A4000E7CFD9FF1200D9CFE6FFE1CFD9FF020ED1
:101A5000E126DF6A060EDF5C2AE2ABC1E9FFACC11A
:101A6000EAFF090EEA02F3CFEAFFE902F3CFE9FF4A
:101A7000F450EA264B0EE926010EEA22020EE92670
:101A8000000EEA22DF50E924E96E000EEA20EA6E39
:101A9000EFCF10F0DF50EA6AF40FE96E010EEA2290
:101AA000EF50105C02E0000E03D0DF2AD3D7010E06
:101AB000106E020EE15C02E2E16AE552E16E105046
:101AC000E552E7CFD9FF1200D9CFE6FFE1CFD9FF2A
:101AD000E652DF6ADF500F081AE3EA6ADF34FE0BD2
:101AE000EA36E96EC10EE926010EEA22010EEE1871
:101AF0000CE1ED500AE1DF50EA6A1D0FE96E010EBC
:101B0000EA22EFCFFAF1010E03D0DF2AE3D7000E6D
:101B1000E552E552E7CFD9FF12000101010EDD19B0
:101B200003E1DE5101E1010C000C0101010ED919A4
:101B300003E1DA5101E1010C000C000EE66EE66AE9
:101B4000CBEC00F0E552E552010EE66EE66AF3ECEE
:101B500000F0E552E5521200000EE66EE66AF3EC84
:101B600000F0E552E552010EE66EE66ACBEC00F0BD
:101B7000E552E5521200000EE66EE66AF3EC00F064
:101B8000E552E552010EE66EE66AF3EC00F0E5522E
:101B9000E5521200D9CFE6FFE1CFD9FFF90EDBCF36
:101BA00010F0FA0EDBCF11F00A0E105C000E115887
:101BB0002CE2F80EDB50030828E17D0EE66E430EA2
:101BC000E66EFB0EDBCFE6FFFD0EDBCFE6FF76EC2D
:101BD00017F0E552E552E552E552F90EDBCF10F071
:101BE000FA0EDBCF11F0126A136A10C0E6FF11C0C3
:101BF000E6FF12C0E6FF13C0E6FFFB0EDBCF14F0DA
:101C0000FC0EDBCF15F0020E45D0F90EDBCF10F045
:101C1000FA0EDBCF11F00A0E105C000E115804E230
:101C2000F80EDB5002080FE0F90EDBCF10F0FA0ED1
:101C3000DBCF11F0640E105C000E115837E2F80E85
:101C4000DB50030833E17B0EE66E430EE66EFB0EBF
:101C5000DBCFE6FFFD0EDBCFE6FF76EC17F0E552BB
:101C6000E552E552E552F90EDBCF10F0FA0EDBCF6C
:101C700011F0126A136A10C0E6FF11C0E6FF12C02D
:101C8000E6FF13C0E6FFFB0EDBCF14F0FC0EDBCF4C
:101C900015F0010E1424E66EFD0EDBCFE6FF4FECCF
:101CA00016F0166E060EE15E165028D07A0EE66E1D
:101CB000430EE66EFD0EDBCFE6FFA1EC17F0E5521A
:101CC000E552E552F90EDBCF10F0FA0EDBCF11F042
:101CD000126A136A10C0E6FF11C0E6FF12C0E6FFE9
:101CE00013C0E6FFFB0EDBCFE6FFFD0EDBCFE6FF0A
:101CF0004FEC16F0146E060EE15E1450E552E7CF7D
:101D0000D9FF120001EC15F00101AA6BBC6BB56B99
:101D1000BA6BA86BA96B1200D9CFE6FFE1CFD9FF50
:101D2000030EE126DE6ADD6A000E0101196F1A6BEF
:101D30001B6F1C6B176F186BDE6ADD6ADECF10F04D
:101D4000DDCF11F0AD51105CAE5111582FE2DECF56
:101D5000E9FFDDCFEAFF090EEA02F3CFEAFFE9026D
:101D6000F3CFE9FFF450EA264B0EE926010EEA22F2
:101D7000080EE926000EEA22020EEFCFDBFFDB5051
:101D8000020A0CE0030A06E0010A0BE1172B000E21
:101D9000182307D01B2B000E1C2303D0192B000E79
:101DA0001A23DF2A010ECAE3DB2AC8D7030EE15C3F
:101DB00002E2E16AE552E16EE552E7CFD9FF120097
:101DC000200EE66ECCEC20F0E552220809E009D89E
:101DD000220EE66E200EE66EBBEC20F0E552E552D8
:101DE00012000101320E106F3B0E116F170E126FB1
:101DF0001F0E146F0C0E156F0E0E166F10C1E6FF3E
:101E0000E66A7BEC20F0E552E55211C1E6FF010ED7
:101E1000E66E7BEC20F0E552E55212C1E6FF020EC1
:101E2000E66E7BEC20F0E552E55214C1E6FF040EAD
:101E3000E66E7BEC20F0E552E55215C1E6FF050E9B
:101E4000E66E7BEC20F0E552E55216C1E6FF060E89
:101E5000E66E7BEC20F0E552E5521200E66ACCEC2F
:101E600020F0E5520101106F010EE66ECCEC20F07F
:101E7000E5520101116F020EE66ECCEC20F0E55246
:101E80000101126F040EE66ECCEC20F0E552010168
:101E9000146F050EE66ECCEC20F0E5520101156FD3
:101EA0000A0E125D1DE27B0EE66E430EE66EE66ADA
:101EB000010EE66E76EC17F0E552E552E552E5527A
:101EC00012C110F0116A126A136A12C1E6FF11C042
:101ED000E6FF12C0E6FF13C0E6FF010EE66E0FD06C
:101EE00012C110F0116A126A136A12C1E6FF11C022
:101EF000E6FF12C0E6FF13C0E6FFE66A010EE66EDB
:101F00004FEC16F0146E060EE15E1450780EE66E7D
:101F1000430EE66E020EE66E010EE66E76EC17F0EC
:101F2000E552E552E552E5520A0E0101115D1DE24E
:101F30007B0EE66E430EE66E030EE66E010EE66E57
:101F400076EC17F0E552E552E552E55211C110F07A
:101F5000116A126A136A11C1E6FF11C0E6FF12C0CE
:101F6000E6FF13C0E6FF040E0ED011C110F0116A97
:101F7000126A136A11C1E6FF11C0E6FF12C0E6FF44
:101F800013C0E6FF030EE66E010EE66E4FEC16F090
:101F9000146E060EE15E1450780EE66E430EE66E89
:101FA000050EE66E010EE66E76EC17F0E552E55290
:101FB000E552E5520A0E0101105D1DE27B0EE66E50
:101FC000430EE66E060EE66E010EE66E76EC17F038
:101FD000E552E552E552E55210C110F0116A126A5D
:101FE000136A10C1E6FF11C0E6FF12C0E6FF13C07E
:101FF000E6FF070E0ED010C110F0116A126A136AC4
:1020000010C1E6FF11C0E6FF12C0E6FF13C0E6FFF5
:10201000060EE66E010EE66E4FEC16F0146E060E1E
:10202000E15E14500A0E0101145D1DE2B90EE66E68
:10203000440EE66E0B0EE66E010EE66E76EC17F0C1
:10204000E552E552E552E55214C110F0116A126AE8
:10205000136A14C1E6FF11C0E6FF12C0E6FF13C009
:10206000E6FF0C0E0ED014C110F0116A126A136A4A
:1020700014C1E6FF11C0E6FF12C0E6FF13C0E6FF81
:102080000B0EE66E010EE66E4FEC16F0146E060EA9
:10209000E15E1450760EE66E430EE66E0D0EE66EB1
:1020A000010EE66E76EC17F0E552E552E552E55288
:1020B0000A0E0101155D1DE2B90EE66E440EE66ED4
:1020C0000E0EE66E010EE66E76EC17F0E552E55266
:1020D000E552E55215C110F0116A126A136A15C172
:1020E000E6FF11C0E6FF12C0E6FF13C0E6FF0F0EC9
:1020F0000ED015C110F0116A126A136A15C1E6FFFD
:1021000011C0E6FF12C0E6FF13C0E6FF0E0EE66E3A
:10211000010EE66E4FEC16F0146E060EE15E1450E2
:022120001200AB
:0E212200D9CFE6FFE1CFD9FF040EE126DE6A39
:10213000DD6ADECF10F0DDCF11F0126A136A11AE46
:1021400002D012681368D950FB0FE96EFF0EDA2037
:10215000EA6EEE50105CEE501158EE501258EE50F0
:1021600013581DE2020EDB6A030EDB6A020EDBCFA0
:1021700010F0030EDBCF11F0D890115004E6050EDD
:10218000105C000E115806E2020EDB2A030EEEE38D
:10219000DB2AECD7DF2A010ECCE3DB2ACAD7040EF8
:1021A000E15C02E2E16AE552E16EE552E7CFD9FF78
:1021B0001200D9CFE6FFE1CFD9FF040EE126DE6A97
:1021C000DD6ADECF10F0DDCF11F0126A136A11AEB6
:1021D00002D012681368D950FB0FE96EFF0EDA20A7
:1021E000EA6EEE50105CEE501158EE501258EE5060
:1021F00013581DE2020EDB6A030EDB6A020EDBCF10
:1022000010F0030EDBCF11F0D890115004E6EE0E63
:10221000105C000E115806E2020EDB2A030EEEE3FC
:10222000DB2AECD7DF2A010ECCE3DB2ACAD7040E67
:10223000E15C02E2E16AE552E16EE552E7CFD9FFE7
:102240001200D9CFE6FFE1CFD9FF0F0E8116FE0EA7
:10225000DB50F00B81128186010EE66EE66AE66ABB
:10226000E66AA7DFE552E552E552E5528196010E96
:10227000E66EE66AE66AE66A9CDFE552E552E552FA
:10228000E5520F0E8116FE0EDB38F00B81128186AF
:10229000010EE66EE66AE66AE66A8BDFE552E55213
:1022A000E552E5528196010EE66EE66AE66AE66A56
:1022B00080DFE552E552E552E552E552E7CFD9FF1E
:1022C0001200D9CFE6FFE1CFD9FFE652190EE66E34
:1022D000E66AE66AE66A6DDFE552E552E552E552E6
:1022E0000F0E8116F80E81160F0E8116300E811218
:1022F0008186010EE66EE66AE66AE66A5ADFE55214
:10230000E552E552E5528196010EE66EE66AE66A0E
:10231000E66A4FDFE552E552E552E5520F0E8116AF
:10232000300E81128186010EE66EE66AE66AE66A82
:1023300040DFE552E552E552E5528196010EE66E28
:10234000E66AE66AE66A35DFE552E552E552E552AD
:102350000F0E8116300E81128186010EE66EE66A3E
:10236000E66AE66A26DFE552E552E552E5528196D5
:10237000010EE66EE66AE66AE66A1BDFE552E552A2
:10238000E552E5520F0E8116818A8186010EE66EB6
:10239000E66AE66AE66A0DDFE552E552E552E55285
:1023A0008196010EE66EE66AE66AE66A02DFE552AB
:1023B000E552E552E552280EE66E43DFE5520C0E7B
:1023C000E66E3FDFE552E552E552E7CFD9FF120056
:1023D000D9CFE6FFE1CFD9FF020EE126DF6A010E79
:1023E000DB6A81940F0EE66EE66AE66AE66A99DEBB
:1023F000E552E552E552E5520F0E81128186E66EF6
:10240000E66AE66AE66A8DDEE552E552E552E55295
:102410000F0E8114E76E010EE7CFDBFF81960F0EE2
:10242000E66EE66AE66AE66A7CDEE552E552E55269
:10243000E5520F0E81128186E66EE66AE66AE66A6A
:1024400070DEE552E552E552E5520F0E8114DF6E63
:10245000010EDB50DF128196010EE66EE66AE66A37
:10246000E66A5FDEE552E552E552E552DF50106E56
:10247000020EE15C02E2E16AE552E16E1050E552C3
:10248000E7CFD9FF1200D9CFE6FFE1CFD9FFE6525F
:10249000DF6A9EDFDF6EDFBEFCD7DF50E552E5521C
:1024A000E7CFD9FF1200D9CFE6FFE1CFD9FF0F0E5A
:1024B0008116FE0EDB5081128186050EE66EE66AFD
:1024C000E66AE66A2EDEE552E552E552E55281966D
:1024D000050EE66EE66AE66AE66A23DEE552E55236
:1024E000E552E552E552E7CFD9FF1200D9CFE6FF1A
:1024F000E1CFD9FF8194050EE66EE66AE66AE66AE8
:1025000010DEE552E552E552E552FE0EDBCFE6FF66
:10251000CADFE552FE0EDB38F00BE66EC4DFE55293
:10252000E552E7CFD9FF1200D9CFE6FFE1CFD9FFBF
:102530008184050EE66EE66AE66AE66AF2DDE55239
:10254000E552E552E552FE0EDBCFE6FFACDFE55289
:10255000FE0EDB38F00BE66EA6DFE5528194E55205
:10256000E7CFD9FF1200D9CFE6FFE1CFD9FFFE0EAA
:10257000DBCFE6FFD9DFE552E552E7CFD9FF120006
:10258000D9CFE6FFE1CFD9FFFE0EDBCFE6FFCCDFF0
:10259000E552E552E7CFD9FF1200D9CFE6FFE1CFF0
:1025A000D9FFFD0EDBCFF6FFFE0EDBCFF7FF0800F5
:1025B000F5500FE0FD0EDBCFF6FFDB2AFE0EDBCF82
:1025C000F7FF01E3DB2A0800F550E66ED9DFE5529C
:1025D000E8D7E552E7CFD9FF1200D9CFE6FFE1CF28
:1025E000D9FFE652FD0EDB500F0B106EFE0EDB50D6
:1025F000010B400DF3501024DF6E7F0EDF14800FAF
:10260000DF6EDFCFE6FF72DFE552E552E552E7CF3E
:10261000D9FF1200010EE66E69DFE552E66AE66A4E
:10262000DCDFE552E5521200D9CFE6FFE1CFD9FF5A
:10263000050EE126010EF36EDB6E020EDB6A030E61
:10264000DB6A040EDB6ADF6ADFCF10F0116A10BEAE
:102650001168FB0EDBCF12F0FC0EDBCF13F0115034
:102660001318E8AE02D0133404D01250105C13508B
:1026700011582DE2FD0EDBCF10F0FE0EDBCF11F076
:10268000126A136A11AE02D012681368D950010F92
:10269000E96EDACFEAFF10C00BF011C00CF012C0E7
:1026A0000DF013C00EF0EECF06F0EECF07F0EECF38
:1026B00008F0EFCF09F0BEEC23F005C0EDFF04C039
:1026C000EDFF03C0EDFF02C0EFFFDF2ABDD7010E13
:1026D000DBCF10F0020EDBCF11F0030EDBCF12F0D8
:1026E000040EDBCF13F010C006F011C007F012C0CB
:1026F00008F013C009F0050EE15C02E2E16AE55260
:10270000E16EE552E7CFD9FF1200D9CFE6FFE1CF66
:10271000D9FF020EE126DF6AFB0EDBCF10F0FC0EC4
:10272000DBCF11F0FD0EDBCF12F0FE0EDBCF13F08E
:10273000105011101210131005E1300EE66E20DF5C
:10274000E552F4D0D950FB0FE96EFF0EDA20EA6EA5
:10275000D890030EEB50000A08E6000EEE5C000E67
:10276000EE58000EEE58000EEE5815E22D0EE66EF5
:1027700007DFE552D950FB0FE96EFF0EDA20EA6E53
:10278000000EEE6CEF1EEE22EF1EEE22EF1EEF2289
:10279000ED52ED52ED52DE52070EDD6E010EDBCF33
:1027A00010F0000EE76E1018E8AE02D0103403D01F
:1027B000E750D880105401E3B9D0010EDB04146E49
:1027C000156A14BE156814C0E6FF15C0E6FF0A0EB0
:1027D000E66EE66A29DFE552E552E552E55206C0AB
:1027E00010F007C011F008C012F009C013F006C0C5
:1027F0000BF007C00CF008C00DF009C00EF0FB0E86
:10280000DBCF06F0FC0EDBCF07F0FD0EDBCF08F0D0
:10281000FE0EDBCF09F0F6EC23F00650071008108F
:10282000091041E0010EDF6EDB04186E196A18BE54
:10283000196818C0E6FF19C0E6FF0A0EE66EE66AE0
:10284000F3DEE552E552E552E55206C014F007C04A
:1028500015F008C016F009C017F006C00BF007C04D
:102860000CF008C00DF009C00EF0FB0EDBCF06F037
:10287000FC0EDBCF07F0FD0EDBCF08F0FE0EDBCF4A
:1028800009F0F6EC23F006C010F007C011F008C004
:1028900012F009C013F0300E1026000E1122122281
:1028A0001322105003D0DF5004E0300EE66E68DED5
:1028B000E552010EDB04146E156A14BE156814C0CF
:1028C000E6FF15C0E6FF0A0EE66EE66AADDEE552EB
:1028D000E552E552E55206C010F007C011F008C0FD
:1028E00012F009C013F0D950FB0FE96EFF0EDA2089
:1028F000EA6E06C00BF007C00CF008C00DF009C06E
:102900000EF0EECF06F0EECF07F0EECF08F0EFCFEF
:1029100009F0F6EC23F005C0EDFF04C0EDFF03C0A5
:10292000EDFF02C0EFFF010EDB0638D7020EE15CBF
:1029300002E2E16AE552E16EE552E7CFD9FF12000B
:10294000D9CFE6FFE1CFD9FFFD0EDBCFE6FFFE0ECC
:10295000DBCFE6FF42DEE552E552D950F90FE96ED2
:10296000FF0EDA20EA6EEECFE6FFEECFE6FFEECF07
:10297000E6FFEFCFE6FFC9DEE552E552E552E5524C
:10298000E552E7CFD9FF1200D9CFE6FFE1CFD9FF5B
:10299000FD0EDBCFE6FFFE0EDBCFE6FF1EDEE552CF
:1029A000E552FB0EDBCFE6FFFC0EDBCFE6FFF5DDED
:1029B000E552E552E552E7CFD9FF1200D9CFE6FF45
:1029C000E1CFD9FFFBC110F0FCC111F0040ED8908B
:1029D00010361136E806FBE1C10E1026000E11225A
:1029E00010500101FD25E96E1150FE21EA6EFE0E28
:1029F000DBCFEFFFFD2B000EFE23E552E7CFD9FF23
:102A00001200D9CFE6FFE1CFD9FFE652DF6ADFCF70
:102A100010F0100EE76E1018E8AE02D0E73402D0C6
:102A2000E750105C18E2DFCFE9FFEA6AE9BEEA6826
:102A3000C10EE926000EEA22200EEF6EDFCFE9FF7D
:102A4000EA6AE9BEEA68D10EE926000EEA22200E03
:102A5000EF6EDF2ADCD7E552E552E7CFD9FF12004F
:102A6000D9CFE6FFE1CFD9FFE6520001C051030AFA
:102A700052E0010A36E0030A1AE0010A67E1E66A59
:102A8000E66AABDDE552E552DF6A080EDF5C0CE278
:102A9000DF50EA6AC10FE96E000EEA22EF50E66EDF
:102AA0006FDDE552DF2AF1D70001010E32D0080EAA
:102AB000E66EE66A92DDE552E552DF6A080EDF5CFB
:102AC0000DE2080EDF24EA6AC10FE96E000EEA2269
:102AD000EF50E66E55DDE552DF2AF0D70001020E19
:102AE00018D0E66A010EE66E78DDE552E552DF6A3F
:102AF000080EDF5C0CE2DF50EA6AD10FE96E000ECF
:102B0000EA22EF50E66E3CDDE552DF2AF1D7000104
:102B1000030EC06F1CD0080EE66E010EE66E5DDD82
:102B2000E552E552DF6A080EDF5C0DE2080EDF2495
:102B3000EA6AD10FE96E000EEA22EF50E66E20DD60
:102B4000E552DF2AF0D70001C06B01D0C06BE5521F
:102B5000E552E7CFD9FF1200D9CFE6FFE1CFD9FF89
:102B6000E6520001C051010A1BE0010A32E1E66AA7
:102B7000E66A33DDE552E552DF6A100EDF5C0CE2F7
:102B8000DF50EA6AC10FE96E000EEA22EF50E66EEE
:102B9000F7DCE552DF2AF1D70001010EC06F1AD031
:102BA000E66A010EE66E19DDE552E552DF6A100EA7
:102BB000DF5C0CE2DF50EA6AD10FE96E000EEA2218
:102BC000EF50E66EDDDCE552DF2AF1D70001C06B85
:102BD00001D0C06BE552E552E7CFD9FF1200D9CF43
:102BE000E6FFE1CFD9FFE652E66AE66AF6DCE55297
:102BF000E552DF6A100EDF5C0CE2DF50EA6AC10FBB
:102C0000E96E000EEA22EF50E66EBADCE552DF2AEA
:102C1000F1D7E66A010EE66EE0DCE552E552DF6AC6
:102C2000100EDF5C0CE2DF50EA6AD10FE96E000E95
:102C3000EA22EF50E66EA4DCE552DF2AF1D7E55236
:102C4000E552E7CFD9FF1200D9CFE6FFE1CFD9FF98
:102C5000FE0EDB50010B0101FB6FFC6BFD0EDB5028
:102C60000F0BFD6FFE6BFBC110F0FCC111F0040EE9
:102C7000D89010361136E806FBE1C10E1026000E82
:102C8000112210500101FD25E96E1150FE21EA6E5E
:102C9000FC0EDBCFEFFFE552E7CFD9FF1200D9CF13
:102CA000E6FFE1CFD9FF020EE126DF6AFE0EDB5020
:102CB000010B0101FB6FFC6BFD0EDB500F0BFD6F79
:102CC000FE6BF90EDBCF10F0FA0EDBCF11F0FB0E2E
:102CD000DBCF12F0FC0EDBCF13F0105011101210EE
:102CE000131005E1300EE66E69DEE552F5D0D950DD
:102CF000F90FE96EFF0EDA20EA6ED890030EEB5062
:102D0000000A08E6000EEE5C000EEE58000EEE58CB
:102D1000000EEE5815E22D0EE66E50DEE552D9504B
:102D2000F90FE96EFF0EDA20EA6E000EEE6CEF1E70
:102D3000EE22EF1EEE22EF1EEF22ED52ED52ED528B
:102D4000DE52070EDD6E010EDBCF10F0000EE76ED7
:102D50001018E8AE02D0103403D0E750D8801054D9
:102D600001E3BAD0010EDB04146E156A14BE1568B7
:102D700014C0E6FF15C0E6FF0A0EE66EE66A54DCF4
:102D8000E552E552E552E55206C010F007C011F0D9
:102D900008C012F009C013F006C00BF007C00CF019
:102DA00008C00DF009C00EF0F90EDBCF06F0FA0EE8
:102DB000DBCF07F0FB0EDBCF08F0FC0EDBCF09F01A
:102DC000F6EC23F0065007100810091041E0010E40
:102DD000DF6EDB04186E196A18BE196818C0E6FFAA
:102DE00019C0E6FF0A0EE66EE66A1EDCE552E55201
:102DF000E552E55206C014F007C015F008C016F001
:102E000009C017F006C00BF007C00CF008C00DF0A9
:102E100009C00EF0F90EDBCF06F0FA0EDBCF07F09B
:102E2000FB0EDBCF08F0FC0EDBCF09F0F6EC23F055
:102E300006C010F007C011F008C012F009C013F06E
:102E4000300E1026000E112212221322105003D031
:102E5000DF5004E0300EE66EB1DDE552010EDB041A
:102E6000146E156A14BE156814C0E6FF15C0E6FF9F
:102E70000A0EE66EE66A14EC13F0E552E552E552EE
:102E8000E55206C010F007C011F008C012F009C0EA
:102E900013F0D950F90FE96EFF0EDA20EA6E06C082
:102EA0000BF007C00CF008C00DF009C00EF0EECF1B
:102EB00006F0EECF07F0EECF08F0EFCF09F0F6EC1A
:102EC00023F005C0EDFF04C0EDFF03C0EDFF02C01D
:102ED000EFFF010EDB0637D7020EE15C02E2E16A8A
:102EE000E552E16EE552E7CFD9FF1200D9CFE6FFF8
:102EF000E1CFD9FFFE0EDB50010B0101FB6FFC6B34
:102F0000FD0EDB500F0BFD6FFE6BFB0EDBCFF6FFF4
:102F1000FC0EDBCFF7FF0800F5500FE0FB0EDBCF18
:102F2000F6FFDB2AFC0EDBCFF7FF01E3DB2A08000C
:102F3000F550E66E43DDE552E8D7E552E7CFD9FF1D
:102F40001200D9CFE6FFE1CFD9FF020EE126DE6AFB
:102F5000DD6AFE0EDB50010B0101FB6FFC6BFD6BAC
:102F6000FE6BDE6ADD6ADECF10F0DDCF11F0D890A7
:102F7000115004E6100E105C000E11581EE2FC0EFB
:102F8000DBCFF6FFFD0EDBCFF7FF0800F5500CE0BE
:102F9000FC0EDBCFF6FFDB2AFD0EDBCFF7FF01E3F4
:102FA000DB2A0800F55001D0200EE66E07DDE55261
:102FB000DF2A010ED8E3DB2AD6D7020EE15C02E25B
:0E2FC000E16AE552E16EE552E7CFD9FF12005B
:022FCE00B06AE7
:102FD000810EAF6EAC8AAC94B886AC98AB8E9E9ADC
:102FE0009D8A9F9A949C1200B06A810EAF6EAC9A33
:102FF000AC94B896AC88AB9E9E9A9D9A9F9A12000C
:10300000D9CFE6FFE1CFD9FF040EE126DE6ADD6A03
:10301000DECF10F0DDCF11F0FD0EDBCF12F0FE0E93
:10302000DBCF13F011501318E8AE02D0133404D0E4
:103030001250105C135011581DE2020EDB6A030E91
:10304000DB6A020EDBCF10F0030EDBCF11F0D8905D
:10305000115004E6EE0E105C000E115806E2020E4E
:10306000DB2A030EEEE3DB2AECD7DF2A010ED0E3E6
:10307000DB2ACED7040EE15C02E2E16AE552E16EA2
:10308000E552E7CFD9FF1200D9CFE6FFE1CFD9FF54
:103090009EA8FED7FE0EDB50AD6E9E98E552E7CFA0
:1030A000D9FF1200D9CFE6FFE1CFD9FFFD0EDBCF6C
:1030B000E9FFFE0EDBCFEAFFEF5010E0FD0EDBCFA5
:1030C000E9FFFE0EDBCFEAFFEF50E66EDDDFE552F3
:1030D000FD0EDB2AFE0EEAE3DB2AE8D7E552E7CF56
:1030E000D9FF1200D9CFE6FFE1CFD9FFFD0EDBCF2C
:1030F000F6FFFE0EDBCFF7FF0800F55015E0FD0EE2
:10310000DBCFF6FFFE0EDBCFF7FF0800F550E66ED3
:10311000BBDFE552FD0EDBCFF6FFDB2AFE0EDBCF79
:10312000F7FFE4E3DB2AE2D7E552E7CFD9FF12004D
:10313000D9CFE6FFE1CFD9FF050EE126010EF36EF0
:10314000DB6E020EDB6A030EDB6A040EDB6ADF6AEB
:10315000DFCF10F0116A10BE1168FB0EDBCF12F04A
:10316000FC0EDBCF13F011501318E8AE02D013346D
:1031700004D01250105C135011582DE2FD0EDBCF1D
:1031800010F0FE0EDBCF11F0126A136A11AE02D0FE
:1031900012681368D950010FE96EDACFEAFF10C048
:1031A0000BF011C00CF012C00DF013C00EF0EECFFA
:1031B00006F0EECF07F0EECF08F0EFCF09F0BEEC4F
:1031C00023F005C0EDFF04C0EDFF03C0EDFF02C01A
:1031D000EFFFDF2ABDD7010EDBCF10F0020EDBCFF1
:1031E00011F0030EDBCF12F0040EDBCF13F010C092
:1031F00006F011C007F012C008F013C009F0050E68
:10320000E15C02E2E16AE552E16EE552E7CFD9FF07
:103210001200D9CFE6FFE1CFD9FF020EE126DF6A27
:10322000FB0EDBCF10F0FC0EDBCF11F0FD0EDBCF81
:1032300012F0FE0EDBCF13F010501110121013100D
:1032400005E1300EE66E20DFE552F4D0D950FB0FD9
:10325000E96EFF0EDA20EA6ED890030EEB50000AFA
:1032600008E6000EEE5C000EEE58000EEE58000E62
:10327000EE5815E22D0EE66E07DFE552D950FB0F32
:10328000E96EFF0EDA20EA6E000EEE6CEF1EEE2203
:10329000EF1EEE22EF1EEF22ED52ED52ED52DE5206
:1032A0000A0EDD6E010EDBCF10F0000EE76E101877
:1032B000E8AE02D0103403D0E750D880105401E3B8
:1032C000B9D0010EDB04146E156A14BE156814C063
:1032D000E6FF15C0E6FF0A0EE66EE66A29DFE55254
:1032E000E552E552E55206C010F007C011F008C0E3
:1032F00012F009C013F006C00BF007C00CF008C0B4
:103300000DF009C00EF0FB0EDBCF06F0FC0EDBCF9C
:1033100007F0FD0EDBCF08F0FE0EDBCF09F0F6EC78
:1033200023F0065007100810091041E0010EDF6E6F
:10333000DB04186E196A18BE196818C0E6FF19C0B8
:10334000E6FF0A0EE66EE66AF3DEE552E552E55266
:10335000E55206C014F007C015F008C016F009C009
:1033600017F006C00BF007C00CF008C00DF009C044
:103370000EF0FB0EDBCF06F0FC0EDBCF07F0FD0EF0
:10338000DBCF08F0FE0EDBCF09F0F6EC23F006C031
:1033900010F007C011F008C012F009C013F0300E91
:1033A0001026000E112212221322105003D0DF50DB
:1033B00004E0300EE66E68DEE552010EDB04146EAA
:1033C000156A14BE156814C0E6FF15C0E6FF0A0EA4
:1033D000E66EE66AADDEE552E552E552E55206C01C
:1033E00010F007C011F008C012F009C013F0D95056
:1033F000FB0FE96EFF0EDA20EA6E06C00BF007C085
:103400000CF008C00DF009C00EF0EECF06F0EECFC4
:1034100007F0EECF08F0EFCF09F0F6EC23F005C08F
:10342000EDFF04C0EDFF03C0EDFF02C0EFFF010E92
:10343000DB0638D7020EE15C02E2E16AE552E16E9A
:10344000E552E7CFD9FF1200D9CFE6FFE1CFD9FF90
:10345000FD0EDBCF10F0FE0EDBCF11F0640E0D6E13
:103460000E6A10C008F011C009F088EC22F008C004
:1034700010F009C011F0126A136A11AE02D012687E
:10348000136810C0E6FF11C0E6FF12C0E6FF13C0CC
:10349000E6FFBFDEE552E552E552E5522E0EE66E3E
:1034A000F3DDE552FD0EDBCF10F0FE0EDBCF11F0A9
:1034B000640E0D6E0E6A10C008F011C009F088ECA1
:1034C00022F004C010F005C011F0126A136A11AEA8
:1034D00002D01268136810C0E6FF11C0E6FF12C0E8
:1034E000E6FF13C0E6FF95DEE552E552E552E552F0
:1034F000E552E7CFD9FF1200D9CFE6FFE1CFD9FFE0
:10350000E652AE50DF6E0B0EE66E450EE66EE66AD4
:10351000010EE66E76EC17F0E552E552E552E55203
:10352000DFCF10F0116A126A136A10C0E6FF11C0F3
:10353000E6FF12C0E6FF13C0E6FFE66A010EE66E84
:103540004FEC16F0146E060EE15E1450E552E55293
:06355000E7CFD9FF1200D5
:0A355600D9CFE6FFE1CFD9FFD59EE3
:10356000FD0EDBCF00FFFE0EDBCF01FFD59C136805
:103570001468156A00CF16F001CF17F0186A1650BC
:10358000135C106E17501458116E18501558126EA7
:103590000C6A010E0D6E0E6A10C007F011C008F023
:1035A00012C009F0AEEC22F00350D66E1368146816
:1035B000156A00CF16F001CF17F0186A1650135C89
:1035C000106E17501458116E18501558126E0C6A60
:1035D000010E0D6E0E6A10C007F011C008F012C087
:1035E00009F0AEEC22F007C010F008C011F009C0DD
:1035F00012F00750D76ED59AD586F28AF294F184EC
:10360000D58EE552E7CFD9FF1200D59E1200136880
:103610001468156A00CF16F001CF17F0186A16501B
:10362000135C106E17501458116E18501558126E06
:103630000C6A010E0D6E0E6A10C007F011C008F082
:1036400012C009F0AEEC22F00350D66E1368146875
:10365000156A00CF16F001CF17F0186A1650135CE8
:10366000106E17501458116E18501558126E0C6ABF
:10367000010E0D6E0E6A10C007F011C008F012C0E6
:1036800009F0AEEC22F007C010F008C011F009C03C
:1036900012F00750D76ED58E1200D9CFE6FFE1CFDA
:1036A000D9FFCD90FD0EDBCF02FFFE0EDBCF03FF77
:1036B00013681468156A02CF16F003CF17F0186A62
:1036C0001650135C106E17501458116E1850155880
:1036D000126E0C6A010E0D6E0E6A10C007F011C05A
:1036E00008F012C009F0AEEC22F00750CF6E13685C
:1036F0001468156A02CF16F003CF17F0186A165037
:10370000135C106E17501458116E18501558126E25
:103710000C6A010E0D6E0E6A10C007F011C008F0A1
:1037200012C009F0AEEC22F003C010F004C011F09A
:1037300005C012F00350CE6E9D809E909F90CD8E5E
:10374000CD8CCD98CD9ACD96CD92CD80E552E7CF58
:10375000D9FF120013681468156A02CF16F003CF60
:1037600017F0186A1650135C106E17501458116E2B
:1037700018501558126E0C6A010E0D6E0E6A10C0AC
:1037800007F011C008F012C009F0AEEC22F00750AB
:10379000CF6E13681468156A02CF16F003CF17F0C6
:1037A000186A1650135C106E17501458116E18508A
:1037B0001558126E0C6A010E0D6E0E6A10C007F0DD
:1037C00011C008F012C009F0AEEC22F003C010F0F6
:1037D00004C011F005C012F00350CE6ECD8012006F
:1037E000CD901200D9CFE6FFE1CFD9FFCA94CC6AC1
:1037F000FE0EDB500F01046F056BCB6E9D829E9217
:103800009F92CA90CA92CA84E552E7CFD9FF1200AC
:1038100004CFCBFFCA841200CA941200D9CFE6FFAE
:10382000E1CFD9FFB190FD0EDBCF06FFFE0EDBCF5F
:1038300007FF13681468156A06CF16F007CF17F054
:10384000186A1650135C106E17501458116E1850E9
:103850001558126E0C6A010E0D6E0E6A10C007F03C
:1038600011C008F012C009F0AEEC22F00750B36EA0
:1038700013681468156A06CF16F007CF17F0186A98
:103880001650135C106E17501458116E18501558BE
:10389000126E0C6A010E0D6E0E6A10C007F011C098
:1038A00008F012C009F0AEEC22F003C010F004C022
:1038B00011F005C012F00350B26EA082A192A29244
:1038C000B18EB198B19AB192B180E552E7CFD9FFEC
:1038D000120013681468156A06CF16F007CF17F0A8
:1038E000186A1650135C106E17501458116E185049
:1038F0001558126E0C6A010E0D6E0E6A10C007F09C
:1039000011C008F012C009F0AEEC22F00350B26E04
:1039100013681468156A06CF16F007CF17F0186AF7
:103920001650135C106E17501458116E185015581D
:10393000126E0C6A010E0D6E0E6A10C007F011C0F7
:1039400008F012C009F0AEEC22F007C010F008C079
:1039500011F009C012F00750B36EB1801200B1909F
:1039600012000F01102B000E11231851105D195178
:10397000115904E3106B116B010E086F12000F0157
:10398000122B000E13231A51125D1B51135904E31D
:10399000126B136B010E096F12000F01142B000E36
:1039A00015231C51145D1D51155904E3146B156B3F
:1039B000010E0A6F12000F01162B000E17231E5165
:1039C000165D1F51175904E3166B176B010E0B6F31
:1039D0001200D9CFE6FFE1CFD9FFFD0EDBCF18FFF4
:1039E000FE0EDBCF19FF0F01106B116B086BE55258
:1039F000E7CFD9FF1200D9CFE6FFE1CFD9FFFD0E07
:103A0000DBCF1AFFFE0EDBCF1BFF050E0D6E0E6A1D
:103A10001ACF08F01BCF09F088EC22F008C01AFF7B
:103A200009C01BFF0F01126B136B096BE552E7CF47
:103A3000D9FF1200D9CFE6FFE1CFD9FFFD0EDBCFD2
:103A40001EFFFE0EDBCF1FFF0A0E0D6E0E6A1ECF8D
:103A500008F01FCF09F088EC22F008C01EFF09C053
:103A60001FFF0F01166B176B0B6BE552E7CFD9FFEA
:023A7000120042
:0E3A72000F0E946E82681200CF0E9414946EA4
:103A800082681200D9CFE6FFE1CFD9FF050EE1260B
:103A9000040EDB6ADE6ADD6ADECF10F0DDCF11F0E6
:103AA000D890115004E6040E105C000E115801E38A
:103AB00095D0DECFE9FFDDCFEAFFE10EE926010E6A
:103AC000EA22EF1C826E020EDB6A030EDB6A020E34
:103AD000DBCF10F0030EDBCF11F0D890115004E6CD
:103AE000040E105C000E115873E2020EDBCFE9FFEA
:103AF000030EDBCFEAFFE50EE926010EEA22EF50C6
:103B0000821444E1DECF14F0DDCF15F0D8901436E6
:103B10001536D89014361536020EDB501424E96E93
:103B2000030EDB501520EA6ED890E936EA36C10E56
:103B3000E926010EEA22EECF12F0EFCF13F0010ECC
:103B40001226000E1322DECF10F0DDCF11F0D89038
:103B500010361136D89010361136020EDB50102474
:103B6000E96E030EDB501120EA6ED890E936EA3692
:103B7000C10EE926010EEA2212C0EEFF13C0EDFFCE
:103B8000010EF36E040EF3CFDBFF1BD0DECF10F07F
:103B9000DDCF11F0D89010361136D890103611368E
:103BA000020EDB501024E96E030EDB501120EA6E8A
:103BB000D890E936EA36C10EE926010EEA22EE6A0D
:103BC000ED6A020EDB2A030E01E281D7DB2A7FD7E2
:103BD000DF2A010E01E260D7DB2A5ED7040EDB0488
:103BE00004E10101010EE96F02D00101E96B050E4C
:103BF000E15C02E2E16AE552E16EE552E7CFD9FF0E
:103C00001200D9CFE6FFE1CFD9FF050EE126040E61
:103C1000DB6ADE6ADD6ADECF10F0DDCF11F0D8900E
:103C2000115004E6020E105C000E115801E399D009
:103C3000DECFE9FFDDCFEAFFE10EE926010EEA2241
:103C4000EF1C8214826E0F0E8210826E020EDB6AEF
:103C5000030EDB6A020EDBCF10F0030EDBCF11F098
:103C6000D890115004E6040E105C000E115873E257
:103C7000020EDBCFE9FF030EDBCFEAFFE50EE926FC
:103C8000010EEA22EF50821444E1DECF14F0DDCFC2
:103C900015F0D89014361536D89014361536020E15
:103CA000DB501424E96E030EDB501520EA6ED89029
:103CB000E936EA36C10EE926010EEA22EECF12F00D
:103CC000EFCF13F0010E1226000E1322DECF10F0FC
:103CD000DDCF11F0D89010361136D890103611364D
:103CE000020EDB501024E96E030EDB501120EA6E49
:103CF000D890E936EA36C10EE926010EEA2212C052
:103D0000EEFF13C0EDFF010EF36E040EF3CFDBFFE9
:103D10001BD0DECF10F0DDCF11F0D8901036113669
:103D2000D89010361136020EDB501024E96E030EC7
:103D3000DB501120EA6ED890E936EA36C10EE9264A
:103D4000010EEA22EE6AED6A020EDB2A030E01E2A0
:103D500081D7DB2A7FD7DF2A010E01E25CD7DB2A7D
:103D60005AD7040EDB0404E10101010EE96F02D011
:103D70000101E96B050EE15C02E2E16AE552E16EE8
:103D8000E552E7CFD9FF1200D9CFE6FFE1CFD9FF47
:103D9000040EE126DE6ADD6ADECF10F0DDCF11F021
:103DA000FD0EDBCF12F0FE0EDBCF13F01150131817
:103DB000E8AE02D0133404D01250105C13501158E6
:103DC0001DE2020EDB6A030EDB6A020EDBCF10F08F
:103DD000030EDBCF11F0D890115004E6EE0E105C0C
:103DE000000E115806E2020EDB2A030EEEE3DB2A78
:103DF000ECD7DF2A010ED0E3DB2ACED7040EE15C3C
:103E000002E2E16AE552E16EE552E7CFD9FF120026
:103E1000D9CFE6FFE1CFD9FF040EE126DE6ADD6AE5
:103E2000DECF10F0DDCF11F0D890115004E6040E73
:103E3000105C000E115875E2DECFE9FFDDCFEAFF1E
:103E4000E10EE926010EEA22EF1C826E020EDB6A09
:103E5000030EDB6A020EDBCF10F0030EDBCF11F096
:103E6000D890115004E6040E105C000E11584AE27E
:103E7000DECF10F0DDCF11F0D89010361136D8908B
:103E800010361136020EDB501024E96E030EDB50A3
:103E90001120EA6ED890E936EA36C10EE926010E05
:103EA000EA22EE6AED6A020EDBCFE9FF030EDBCFFA
:103EB000EAFFE50EE926010EEA22EF5082141CE12A
:103EC000DECF10F0DDCF11F0D89010361136D8903B
:103ED00010361136020EDB501024E96E030EDB5053
:103EE0001120EA6ED890E936EA36C10EE926010EB5
:103EF000EA22010EEE6EED6A020EDB2A030EAAE341
:103F0000DB2AA8D78250816EE80EE66E030EE66EBD
:103F10003BDFE552E552DF2A010E01E281D7DB2AC1
:103F20007FD7040EE15C02E2E16AE552E16EE55200
:063F3000E7CFD9FF1200EB
:0A3F3600D9CFE6FFE1CFD9FF020E5C
:103F4000E126FE0EDB500F0BDF6EFE0EDB380F0B93
:103F50000A0D010EF3CFDBFFDB50DF24106E020EE3
:103F6000E15C02E2E16AE552E16E1050E552E7CF12
:103F7000D9FF1200D9CFE6FFE1CFD9FF020EE1262B
:103F80000A0E106E0E6EFE0EDBCF09F06BEC24F005
:103F90000550DF6E0A0E106E0E6EFE0EDBCF09F0BE
:103FA0006BEC24F00950100D010EF3CFDBFFDB505A
:103FB000DF24106E020EE15C02E2E16AE552E16E7E
:103FC0001050E552E7CFD9FF120094969498120052
:103FD000D9CFE6FFE1CFD9FFE652DF6AFE0EDB5014
:103FE000DF5C02E2DF2AFAD7E552E552E7CFD9FFDC
:103FF000120082A8000C010C0001FC5102E0828832
:10400000828682988296010EFC6F120082988286C8
:1040100082880001FC6B1200D9CFE6FFE1CFD9FF07
:10402000020EE126DF6ADFCF10F0080EE76E1018EF
:10403000E8AE02D0E73402D0E750105C0FE2FE0E8B
:10404000DBBE02D0829801D0828882868296DB50C5
:10405000020DFE0EF3CFDBFFDF2AE5D794888286C0
:10406000C8DFE76E010EE7CFDBFF82969498DB5046
:10407000106E020EE15C02E2E16AE552E16E105060
:10408000E552E7CFD9FF1200D9CFE6FFE1CFD9FF44
:10409000020EE126DF6A9488010EDB6ADBCF10F0A6
:1040A000080EE76E1018E8AE02D0E73402D0E750F1
:1040B000105C0BE282869DDF106EDF50E82410104A
:1040C000DF6E8296010EDB2AE9D79498FE0EDB5054
:1040D00002E0828801D0829882868296DF50106E3C
:1040E000020EE15C02E2E16AE552E16E1050E55237
:1040F000E7CFD9FF1200D9CFE6FFE1CFD9FF7CDFB0
:10410000D00EE66E89DFE552FE0EDBCFE6FF84DFE0
:10411000E552FD0EDBCFE6FF2DDFE552E66E7CDFDC
:10412000E55274DFE552E7CFD9FF1200D9CFE6FFA1
:10413000E1CFD9FFE65260DFD00EE66E6DDFE552CB
:10414000FE0EDBCFE6FF68DFE55256DFD10EE66EEE
:1041500063DFE552010EE66E97DFE552DF6EDFCFDB
:10416000E6FFE9DEE552DF6E51DFDF50E552E55252
:10417000E7CFD9FF1200D9CFE6FFE1CFD9FFFD0E7F
:10418000DBCFE6FFFE0EDBCFE6FFB5DFE552E55203
:10419000E552E7CFD9FF1200D9CFE6FFE1CFD9FF33
:1041A000FE0EDBCFE6FFC2DFE552E552E7CFD9FFD7
:0241B0001200FB
:0E41B200F28ED08EF28C1200F19CF292F28806
:1041C0001200D8CFE4FFE0CFE4FFE46EDACFE4FFE3
:1041D000E2CFDAFFE9CFE4FFEACFE4FFF6CFE4FF76
:1041E000F7CFE4FFF5CFE4FFF3CFE4FFF4CFE4FF34
:1041F000FACFE4FF00EE00F0100EE80403E3EECF88
:10420000E4FFFBD700EE10F00A0EE80403E3EECF64
:10421000E4FFFBD7E652F2A407D005EC1BF0F294C2
:1042200007EC1BF0B1EC1CF09EA007D0F0EC1BF0EB
:104230009E90AAEC1BF0BFEC1CF0A1A207D0AFEC43
:104240001CF0A19269EC1CF0DBEC1CF0F2B2F292D3
:104250009EBA9E9AE55200EE19F00A0EE80403E3B6
:10426000E5CFEDFFFBD700EE0FF0100EE80403E3FF
:10427000E5CFEDFFFBD7E5CFFAFFE5CFF4FFE5CFC4
:10428000F3FFE5CFF5FFE5CFF7FFE5CFF6FFE5CF8D
:10429000EAFFE5CFE9FFE5CFDAFFE550E5CFE0FF44
:1042A000E5CFD8FF1000DACFE4FFE2CFDAFFE9CFA5
:1042B000E4FFEACFE4FFF6CFE4FFF7CFE4FFF5CF6A
:1042C000E4FFF3CFE4FFF4CFE4FFFACFE4FF00EE26
:1042D00000F0100EE80403E3EECFE4FFFBD700EE9E
:1042E00010F00A0EE80403E3EECFE4FFFBD7E6523A
:1042F000F2A407D005EC1BF0F29407EC1BF0B1EC34
:104300001CF09EA007D0F0EC1BF09E90AAEC1BF0D6
:10431000BFEC1CF0A1A207D0AFEC1CF0A19269EC9D
:104320001CF0DBEC1CF0F2B2F2929EBA9E9AE552BF
:1043300000EE19F00A0EE80403E3E5CFEDFFFBD72A
:1043400000EE0FF0100EE80403E3E5CFEDFFFBD71E
:10435000E5CFFAFFE5CFF4FFE5CFF3FFE5CFF5FFBB
:10436000E5CFF7FFE5CFF6FFE5CFEAFFE5CFE9FFC1
:06437000E5CFDAFF1100A9
:0A4376002F003A0000300030300044
:1043800050415353574F52442057524F4E472020CD
:10439000004F50454E494E4720444F4F5220202059
:1043A0002000562020202020005420202020200003
:1043B00048442020202020004C4F4720202020204F
:1043C000004E4557205057204944200052454D4F3C
:1043D000564520434F4D504C45544500593A454EA3
:1043E000544552004E3A4241434B0052454D4F56C0
:1043F000452049442000342E2000332E2000322E48
:104400002000312E200050415353574F52443A2040
:10441000004E4557204944203A2000505720464F2F
:10442000522049442000312E4348414E4745204DFB
:10443000454D20505700322E52454D4F5645204D88
:10444000454D42455200312E414444204D454D4298
:104450004552004348414E47452053554343455339
:1044600053004348414E4745204144205041535357
:1044700000322E435245415445204C4F4700312EC7
:104480004D414E4147452055534552004348414E0A
:1044900047452055534552205041535300322E4337
:1044A00048414E4745205041535300312E4F50450F
:1044B0004E20444F4F52002A0020005041535320B9
:1044C000464F522049442000496E76616C69642051
:1044D00049442020202020200020202020202020AF
:1044E00020202020202000454E54455220494420C1
:1044F00020202020202020005052455353202320EC
:0F450000464F52205041535300460020202000C8
:10451000006A0EAE91EF22F00D6C0E1EE86A0E22BC
:10452000001E09AE99EF22F0086C091EE86A092204
:10453000001E37EC24F009BEA9EF22F000AE000CFB
:10454000086C091EE86A0922046C051EE86A052247
:10455000000C00BEA0EF22F00188FF0C006A0EAE36
:10456000B9EF22F00C6C0D1E0E1EE86A0D220E2211
:10457000001E09AEC3EF22F0076C081E091EE86A90
:1045800008220922001E1AEC24F009BED6EF22F000
:1045900000AE000C076C081E091EE86A08220922FA
:1045A000036C041E051E04220522000C00BECAEF87
:0645B00022F00188FF0C5F
:0A45B6001E0EF66E000EF76E000EEA
:1045C000F86E01010900F550EF6F0900F550F06F2A
:1045D00003E1EF6701D03DD00900F550EA6F090013
:1045E000F550EB6F0900F550EC6F09000900F5502C
:1045F000E96E0900F550EA6E090009000900F5505E
:10460000ED6F0900F550EE6F09000900F6CFF1F1EA
:10461000F7CFF2F1F8CFF3F1EAC1F6FFEBC1F7FF04
:10462000ECC1F8FF0101ED5302E1EE5307E0090090
:10463000F550EE6EED07F8E2EE07F9D7F1C1F6FF9F
:10464000F2C1F7FFF3C1F8FF0101EF07000EF05BC5
:04465000BFD71200BE
:0C465400D9CFE6FFDACFE6FFFA0EE3CF85
:10466000D9FFFB0EE3CFDAFFFC0EE3CFE9FFFD0E2F
:10467000E3CFEAFFE9CFF3FFEACFF4FFE950D95CDB
:10468000EA50DA580EE3F80EE35003E1F90EE35076
:1046900024E0F80EE30602E2F90EE306DECFEEFFB9
:1046A000F2D7F80EE350D926F90EE350DA22DD52A4
:1046B000F80EE350E926F90EE350EA22ED52F80E27
:1046C000E35003E1F90EE35008E0F80EE30602E2DE
:1046D000F90EE306DDCFEDFFF2D7FF0EE3CFDAFFF1
:0C46E000E552FF0EE3CFD9FFE5521200B7
:0446EC00010E926EBB
:1046F0000E0EC16EC26A040EC06EC2801200D9CF07
:10470000E6FFE1CFD9FF020EE126DE6ADD6AC28252
:10471000C2B2FED7C450DE6EDD6ADECF12F0DDCF4E
:1047200013F0D89012361336D89012361336060E80
:10473000C3CFE7FF070B04E0E742E79EE806FCE192
:10474000E7501224106E000E132010C0DEFFDD6E45
:10475000DECF20FFDDCF21FFDECF10F0DDCF11F067
:1047600010C0F3FF11C0F4FF020EE15C02E2E16A47
:0C477000E552E16EE552E7CFD9FF1200E0
:04477C0006500B02D6
:10478000F3CF02F0F4CF03F00C02F3500326000E37
:10479000F420046E06500D02F3500426000EF4209F
:1047A000056E06500E02F350052607500B02F3501B
:1047B0000326F4500422000E052207500C02F35089
:1047C0000426F450052207500D02F3500526085028
:1047D0000B02F3500426F450052208500C02F3504B
:0C47E000052609500B02F35005261200BC
:0447EC00056A046AEC
:1047F000036A026A200EE76ED8900636073608363E
:10480000093602360336043605360B50025C0C506E
:1048100003580D5004580E50055809E30B50025E22
:104820000C50035A0D50045A0E50055A062AE72E12
:04483000E4D71200B7
:0C483400056A046A036A180EE76ED8904B
:104840000736083609360336043605360C50035C45
:104850000D5004580E50055807E30C50035E0D50E0
:0E486000045A0E50055A072AE72EEAD7120016
:02486E00056AD9
:10487000046A100EE76ED8900836093604360536FD
:104880000D50045C0E50055805E30D50045E0E50AB
:0A489000055A082AE72EF0D712009F
:06489A00800EF36E00EE3B
:1048A00000F00F0E01D81200EA6002D0EE6AFCD7C9
:0A48B000F350E9601200EE6AFCD735
:0648BA001EEE00F02EEEE0
:1048C00000F0F86A019CDBEC22F003EC00F034EC21
:0648D00000F0FBD712000E
:0A48D600056A080EE76ED890093657
:1048E00005360E50055C02E3056E092AE72EF7D760
:0248F0001200B4
:0E48F2000000000000000000000000000000B8
:1049000000000000000000000000010001000100A4
:024910000100A4
:0E491200010204081020408000000000000098
:104920000000000000000000000000000000000186
:1049300002034104050642070809432A00454401D1
:10494000020304050602070809070803030303031B
:10495000030408060802010541424344090000011E
:104960000203040506020100020708090708020203
:104970000003030303030302030004080608020103
:104980000200000000000000000000000000000025
:104990000000000000000000000000000000000017
:1049A0000000000000000000000000000000000007
:1049B00000000000000000000000000000000004F3
:1049C00000040003090A0B000D0E0F0A000000008E
:0349D000031600CB
:0D49D3000000000000000000101010101087
:1049E00010101018181818181818181C1C1C1C1C4B
:1049F0001C1C1C1E1E1E1E1E1E1E1E1F1F1F1F1FD8
:104A00001F1F1F0000000000000000000000000049
:104A10000000000000000000000000000000000096
:104A20000000000000000000000000000000000086
:044A30000000000082
:0C4A3400000000D00022222207250910FB
:104A40000001000000000000000000000000000065
:104A50000000000000000000000000000000000056
:104A60000000000000000000000000000000000046
:094A70001020408001020408003E
:020000040030CA
:0100010002FC
:0100020003FA
:010003001EDE
:010005008179
:010006008178
:010008000FE8
:01000900C036
:01000A000FE6
:01000B00E014
:01000C000FE4
:01000D0040B2
:00000001FF
