:020000040000FA
:0600000076EF28F012006B
:020006001200E6
:0600080039EF26F01200A2
:02000E000000F0
:020010000000EE
:06001800C7EF25F0120005
:02001E000600DA
:100020008B520000CA010000290000006F5200003E
:10003000E10000001C0000000E000000450F000061
:10004000040000000E52000080000000610000006B
:100050004451000000010000CA00000024510000CB
:08006000000F00002000000069
:08006800D9CFE6FFE1CFD9FF7B
:10007000020EE126DE6ADD6A4ED80F010B51FDE06B
:100080000B6B16EC21F09ED904EC19F0F6D7D9CF02
:10009000E6FFE1CFD9FF040EE126DE6ADD6ADECF9E
:1000A00010F0DDCF11F0FD0EDBCF12F0FE0EDBCF36
:1000B00013F011501318E8AE02D0133404D01250CC
:1000C000105C135011581DE2020EDB6A030EDB6A4E
:1000D000020EDBCF10F0030EDBCF11F0D8901150E1
:1000E00004E6EE0E105C000E115806E2020EDB2A4A
:1000F000030EEEE3DB2AECD7DF2A010ED0E3DB2A86
:10010000CED7040EE15C02E2E16AE552E16EE5520F
:10011000E7CFD9FF1200936A956A35EC15F0D5EC5C
:1001200018F0BFEC25F0E80EE66E030EE66EAFDFCA
:10013000E552E552570EE66E120EE66E7FEC1EF0AB
:10014000E552E552AE0EE66E240EE66E21EC1FF08F
:10015000E552E552660EE66EB70EE66EE2EC1FF073
:10016000E552E552020EE66EE66ABDEC20F0E5527D
:10017000E5520A0EE66EE66ACFEC20F0E552E55253
:10018000320EE66EE66AEEEC20F0E552E5520DEC3A
:1001900021F0B9EF23F0D9CFE6FFE1CFD9FFFE0E72
:1001A000DBCF11F0800E11141AE1FD0EDBCF12F03F
:1001B000FE0EDBCF13F0133404E212500708000EDA
:1001C00013540DE3FD0EDBCFE9FFFE0EDBCFEAFF9C
:1001D000000EE926010EEA22EF508310836EE552ED
:1001E000E7CFD9FF1200D9CFE6FFE1CFD9FFFE0E4E
:1001F000DBCF11F0800E11141AE1FD0EDBCF12F0EF
:10020000FE0EDBCF13F0133404E212500708000E89
:1002100013540DE3FD0EDBCFE9FFFE0EDBCFEAFF4B
:10022000000EE926010EEA22EF1C8314836EE552CC
:10023000E7CFD9FF1200D9CFE6FFE1CFD9FFFD0EFE
:10024000DBCFE9FFFE0EDBCFEAFF080EE926010E49
:10025000EA22EF0415E1FD0EDBCFE6FFFE0EDBCF59
:10026000E6FFC1DFE552E552FD0EDBCFE9FFFE0EF2
:10027000DBCFEAFF080EE926010EEA22EF6A15D06D
:10028000FD0EDBCFE6FFFE0EDBCFE6FF84DFE5529F
:10029000E552FD0EDBCFE9FFFE0EDBCFEAFF080ED5
:1002A000E926010EEA22010EEF6EE552E7CFD9FFF3
:1002B0001200D9CFE6FFE1CFD9FF020EE126DE6AB8
:1002C000DD6ADECF10F0DDCF11F0113404E2105002
:1002D0000708000E115421E3DECFE6FFDDCFE6FF75
:1002E0005ADFE552E552F40EE66E010EE66ECFDE01
:1002F000E552E552DECFE6FFDDCFE6FF74DFE552E3
:10030000E552F40EE66E010EE66EC1DEE552E552F0
:10031000DF2A010ED6E3DB2AD4D7020EE15C02E22B
:10032000E16AE552E16EE552E7CFD9FF1200D9CF7D
:10033000E6FFE1CFD9FF020EE126DE6ADD6ADE6A62
:10034000DD6ADECF10F0DDCF11F00101B151105C9C
:10035000B25111582BE2DECFE9FFDDCFEAFF090EE3
:10036000EA02F3CFEAFFE902F3CFE9FFF450EA260D
:100370004E0EE926010EEA22EECF10F0EFCF11F07B
:10038000FD0EDB5010180DE1FE0EDB50111809E1D7
:10039000DECF10F0DDCF11F010C0F3FF11C0F4FF7D
:1003A00007D0DF2A010ECDE3DB2ACBD7F368F46850
:1003B000020EE15C02E2E16AE552E16EE552E7CF4E
:1003C000D9FF1200D9CFE6FFE1CFD9FF020EE12617
:1003D0000101AA51040A02E1E8EF0DF0130A02E15B
:1003E000CAEF0DF00F0A02E1A0EF0DF01B0A02E1C7
:1003F00065EF0DF0190A02E145EF0DF0030A02E185
:1004000028EF0DF0120A02E194EF0CF01F0A02E14E
:1004100054EF0CF0070A02E1CCEF0BF01C0A02E1EA
:1004200057EF0AF01D0A02E1ECEF09F0030A02E1BE
:1004300073EF09F01F0A02E1F9EF07F01E0A02E16B
:1004400028EF07F01D0A02E1A3EF06F0070A01E119
:100450009DD3060A01E152D3050A01E1E4D2010A63
:1004600001E146D21E0A01E1D8D1030A01E191D18E
:10047000170A01E17BD1030A01E1F1D0060A01E18B
:10048000D5D0010A01E1B7D0030A32E0050A02E043
:10049000FEEF0DF0670EE66E4B0EE66EE66AE66A5C
:1004A0004AEC1BF0E552E552E552E552560EE66E77
:1004B0004B0EE66EE66A010EE66E4AEC1BF0E55264
:1004C000E552E552E55230EC10F091EC0EF00101EE
:1004D000010E1F6F72EC0EF0000902E1FEEF0DF04D
:1004E00067EC0FF00101A86BA96B050E55EF0AF040
:1004F000AD2B000EAE23450EE66E4B0EE66EE66AA1
:10050000E66A4AEC1BF0E552E552E552E55249EC49
:100510000EF0000933E0410E0F01405D14E10101CE
:10052000AC51000828E20A0E0D6E0E6AA8C108F050
:10053000A9C109F050EC28F008C0A8F109C0A9F140
:100540000101AC0718D00A0E405D15E2A8C110F0F9
:10055000A9C111F00A0E1102F3CF11F01002F3CF6E
:1005600010F0F450112640510101F324A86F000E41
:100570001120A96FAC2B0101AD6BAE6BACC1E6FFD6
:10058000A8C1E6FFA9C1E6FF000EE66EE66A010E0D
:10059000E66EE66AAFEC0EF0106E070EE15E1050EC
:1005A000370EE66E4B0EE66E030EE66E010EE66E3D
:1005B0004AEC1BF0E552E552E552E552030E01010B
:1005C000AC5D04E272EC0EF0000905E067EC0FF0A0
:1005D0000101060EAA6F7AEC0EF0000902E001019B
:1005E000AA6B01012C0EAD5D010EAE5902E2FEEFC9
:1005F0000DF0C8EF0DF0AD6BAE6BA8C1E6FFA9C161
:10060000E6FF95DEE552E552F3CFAFF1F4CFB0F15E
:100610000101F31C01E1B01D06E0010EAA6FD5EC4B
:1006200018F0FEEF0DF0070E55EF0AF0AD2B000E9F
:10063000AE23260EE66E4B0EE66EE66AE66A4AECDE
:100640001BF0E552E552E552E5520101280EAD5D81
:10065000000EAE5902E2FEEF0DF0C8EF0DF0190EDC
:10066000E66E4B0EE66EE66AE66A4AEC1BF0E55271
:10067000E552E552E552AFC1E9FFB0C1EAFF090E0C
:10068000EA02F3CFEAFFE902F3CFE9FFF450EA26EA
:100690004E0EE926010EEA22EECF10F0EFCF11F058
:1006A000126A136A10C0E6FF11C0E6FF12C0E6FF2F
:1006B00013C0E6FF0D0EE66EE66A23EC1AF0146E28
:1006C000060EE15E14500101AD2B000EAE2349EC85
:1006D0000EF0000936E0410E0F01405D14E101010A
:1006E000AB5100082BE2AB07170EE66E4B0EE66E21
:1006F000ABC1E6FF010EE66E4AEC1BF0E552E55297
:10070000E552E5521BD00A0E405D18E2150EE66E6A
:100710004B0EE66EABC1E6FF010EE66E4AEC1BF037
:10072000E552E552E552E5520101AB51EA6A3A0F52
:10073000E96E0F0EEA2240CFEFFFAB2B0101AD6B4C
:10074000AE6B060E0101AB5D02E3020EAA6F2C0E2A
:10075000AD5D010EAE5901E3AA6B7AEC0EF0000913
:1007600002E1FEEF0DF00101C8EF0DF0AD6BAE6BD5
:10077000AB6B08EC0EF0000908E00101AF51B011BD
:1007800001E1DFD2150E55EF0AF00101040E55EF1D
:100790000AF0AD2B000EAE23090EE66E4B0EE66E90
:1007A000E66A75EC1BF0E552E552E552FB0EE66E8B
:1007B0004A0EE66E010EE66E75EC1BF0E552E55250
:1007C000E5527AEC0EF0000902E00101AA6B01018A
:1007D000010ECA1906E1CB5104E1C6C1AAF167ECCA
:1007E0000FF00101010ECC1906E1CD5104E1C7C1A2
:1007F000AAF167EC0FF049EC0EF0000903E00101EB
:10080000AD6BAE6B01012C0ED880AD55010EAE550F
:1008100002E3FEEF0DF0C8EF0DF0AD2B000EAE239E
:10082000EA0EE66E4A0EE66EE66A75EC1BF0E552DD
:10083000E552E55249EC0EF000093AE0410E0F0195
:10084000405D14E10101AB5100082FE2AB07170E28
:10085000E66E4B0EE66EABC1E6FF010EE66E4AECAD
:100860001BF0E552E552E552E5521FD00A0E405DFD
:100870001CE2060E0101AB5D18E2150EE66E4B0E92
:10088000E66EABC1E6FF010EE66E4AEC1BF0E552E8
:10089000E552E552E5520101AB51EA6A3A0FE96EC1
:1008A0000F0EEA2240CFEFFFAB2B0101AD6BAE6B19
:1008B00072EC0EF0000908E0060E0101AB5D04E3E6
:1008C0000C0EAA6F67EC0FF07AEC0EF0000905E051
:1008D0000101150EAA6F67EC0FF001012C0ED880F4
:1008E000AD55010EAE5502E3FEEF0DF0C8EF0DF071
:1008F000AD2B000EAE23BD51030A30E0010A20E00B
:10090000030A10E0010A3FE1090EE66E4B0EE66EA7
:10091000E66A75EC1BF0E552E552E552FB0EE66E19
:100920004A0E29D0DC0EE66E4A0EE66EE66A75ECDB
:100930001BF0E552E552E552CF0EE66E4A0E1BD093
:10094000BE0EE66E4A0EE66EE66A75EC1BF0E552E8
:10095000E552E552B00EE66E4A0E0DD0A00EE66EE0
:100960004A0EE66EE66A75EC1BF0E552E552E5527A
:100970009F0EE66E4A0EE66E010EE66E75EC1BF0FB
:10098000E552E552E55272EC0EF0000906E0010175
:10099000BD29030BBD6FAD6BAE6B7AEC0EF0000999
:1009A00002E00101AA6B0101010ECA1911E1CB514C
:1009B0000FE10101BD51E96EEA6AD890E936EA36E5
:1009C000B50EE926010EEA22EFCFAAF167EC0FF08F
:1009D0000101010ECC1915E1CD5113E10101BD5109
:1009E000E96EEA6AD890E936EA36B50EE926010ED4
:1009F000EA22010EE926000EEA22EFCFAAF167EC07
:100A00000FF049EC0EF0000903E00101AD6BAE6B95
:100A100001012C0ED880AD55010EAE5502E3FEEF5C
:100A20000DF0C8EF0DF0AD2B000EAE23900EE66E6C
:100A30004A0EE66EE66A75EC1BF0E552E552E552A9
:100A400049EC0EF000093AE0410E0F01405D14E15F
:100A50000101AB5100082FE2AB07170EE66E4B0EFB
:100A6000E66EABC1E6FF010EE66E4AEC1BF0E55206
:100A7000E552E552E5521FD00A0E405D1CE2060E1B
:100A80000101AB5D18E2150EE66E4B0EE66EABC1D2
:100A9000E6FF010EE66E4AEC1BF0E552E552E55228
:100AA000E5520101AB51EA6A3A0FE96E0F0EEA22F4
:100AB00040CFEFFFAB2B0101AD6BAE6B72EC0EF0D4
:100AC000000908E0060E0101AB5D04E30C0EAA6FFD
:100AD00067EC0FF07AEC0EF0000905E00101080E5A
:100AE000AA6F67EC0FF001012C0ED880AD55010EF6
:100AF000AE5502E3FEEF0DF0C8EF0DF0AD2B000E8A
:100B0000AE23810EE66E4A0EE66EE66A75EC1BF0C9
:100B1000E552E552E5520101010EAD192CE1AE514D
:100B20002AE1060EE66EE66A3A0EE66E0F0EE66EF5
:100B3000AFC1E9FFB0C1EAFF090EEA02F3CFEAFF55
:100B4000E902F3CFE9FFF450EA264E0EE926010E42
:100B5000EA22020EE926000EEA22E9CF10F0EACFDF
:100B600011F0E9CFE6FFEACFE6FF43EC27F0126E83
:100B7000060EE15E12500101280ED880AD55000E20
:100B8000AE5502E3FEEF0DF0C8EF0DF0AD2B000EF9
:100B9000AE23C251010A10E0010A23E1740EE66E91
:100BA0004A0EE66EE66A75EC1BF0E552E552E55238
:100BB000640EE66E4A0E0DD0540EE66E4A0EE66ED8
:100BC000E66A75EC1BF0E552E552E552170EE66E4B
:100BD0004B0EE66E010EE66E75EC1BF0E552E5522B
:100BE000E55272EC0EF0000906E00101C229010B8A
:100BF000C26FAD6BAE6B7AEC0EF0000905E001013F
:100C0000080EAA6F67EC0FF00101010ECA1944E14A
:100C1000CB5142E10101C251E96EEA6AD890E9364E
:100C2000EA36BE0EE926010EEA22EFCFAAF167EC02
:100C30000FF0B1C112F0B2C113F01206000E135A38
:100C40000001136A030E12161250131010E1B1C105
:100C500010F0B2C111F01006000E115A020E0F0B67
:100C600019E0D89011321032E806FBE113D0B1C17F
:100C700010F0B2C111F01006000E115A020E0F0B47
:100C800005E0D89011321032E806FBE1010E102683
:100C9000000E112210C0C3F10101010ECC1948E170
:100CA000CD5146E10101C251E96EEA6AD890E936B8
:100CB000EA36BE0EE926010EEA22010EE926000EF2
:100CC000EA22EFCFAAF167EC0FF0B1C112F0B2C186
:100CD00013F01206000E135A0001136A030E1216C7
:100CE0001250131010E1B1C110F0B2C111F0100692
:100CF000000E115A020E0F0B19E0D890113210326B
:100D0000E806FBE113D0B1C110F0B2C111F010063A
:100D1000000E115A020E0F0B05E0D890113210325E
:100D2000E806FBE1010E1026000E112210C0C3F1EF
:100D300001012C0ED880AD55010EAE5502E3FEEF39
:100D40000DF0080EB2D3AD2B000EAE23490EE66EA9
:100D50004A0EE66EE66AE66A4AEC1BF0E552E55298
:100D6000E552E552B3C110F0B4C111F0126A136A32
:100D7000B3C1E6FFB4C1E6FF12C0E6FF13C0E6FF51
:100D80000A0EE66EE66A23EC1AF0146E060EE15EB9
:100D9000145049EC0EF000093AE0410E0F01405D9D
:100DA00014E10101AB5100082FE2AB07170EE66E0C
:100DB0004B0EE66EABC1E6FF010EE66E4AEC1BF091
:100DC000E552E552E552E5521FD00A0E405D1CE2A5
:100DD000060E0101AB5D18E2150EE66E4B0EE66ED7
:100DE000ABC1E6FF010EE66E4AEC1BF0E552E552A0
:100DF000E552E5520101AB51EA6A3A0FE96E0F0E76
:100E0000EA2240CFEFFFAB2B0101AD6BAE6B72EC72
:100E10000EF0000908E0060E0101AB5D04E3100EC0
:100E2000AA6F67EC0FF07AEC0EF0000905E0010103
:100E30000A0EAA6F67EC0FF001012C0ED880AD5599
:100E4000010EAE5502E3FEEF0DF0080EE5EF0DF0DA
:100E5000AD2B000EAE233F0EE66E4A0EE66EE66A3E
:100E6000E66A4AEC1BF0E552E552E552E552340ED3
:100E7000E66E4A0EE66EE66A010EE66E4AEC1BF07E
:100E8000E552E552E552E5520101010EAD1901E0CE
:100E90008BD0AE5101E088D0DE6ADD6AB1C1E9FFD6
:100EA000B2C1EAFF090EEA02F3CFEAFFE902F3CF8B
:100EB000E9FFF450EA264E0EE926010EEA22B3C1FC
:100EC000EEFFB4C1EDFFDE6ADD6ADECF10F0DDCFEC
:100ED00011F0D890115004E6060E105C000E115867
:100EE00046E2DECFE9FFDDCFEAFF3A0EE9260F0E3C
:100EF000EA22EF50E66EB1C1E9FFB2C1EAFF090E86
:100F0000EA02F3CFEAFFE902F3CFE9FFF450EA2661
:100F10004E0EE926010EEA22020EE926000EEA2212
:100F2000DE50E924E96EDD50EA20EA6EE552E75032
:100F3000EF6EDECFE9FFDDCFEAFF3A0EE9260F0EB6
:100F4000EA22EF50300FE66EDECF10F0DDCF11F069
:100F50000A0E1024E66E010EE66EF8EC19F0E5526A
:100F6000E552E552DF2A010EB0E3DB2AAED7B1C16C
:100F7000E9FFB2C1EAFF090EEA02F3CFEAFFE90294
:100F8000F3CFE9FFF450EA264E0EE926010EEA22DD
:100F9000080EE926000EEA22020EEF6E0101B32BC5
:100FA000000EB423B12BB223B3C110F0B4C111F0C1
:100FB0001006000E115A126A136A10C0E6FF11C023
:100FC000E6FF12C0E6FF13C0E6FF090EE66EE66A12
:100FD00023EC1AF0146E060EE15E14500101280E87
:100FE000D880AD55000EAE5502E3FEEF0DF092EF46
:100FF0000CF0AD2B000EAE23040EC403F328106ECC
:10100000B151105C000EB25530E2300EE66E4A0E61
:10101000E66EE66AE66A4AEC1BF0E552E552E552F6
:10102000E552040E0101C403F328090DF3CFE9FFD3
:10103000F4CFEAFF4E0EE926010EEA22EECF10F0C1
:10104000EFCF11F0126A136A10C0E6FF11C0E6FF7D
:1010500012C0E6FF13C0E6FF030EE66EE66A23EC5D
:101060001AF0146E060EE15E1450040E0101C40362
:10107000F350020F106EB151105C000EB25532E207
:101080002C0EE66E4A0EE66E080EE66EE66A4AEC36
:101090001BF0E552E552E552E552040E0101C4038E
:1010A000F350020F090DF3CFE9FFF4CFEAFF4E0E24
:1010B000E926010EEA22EECF10F0EFCF11F0126A0E
:1010C000136A10C0E6FF11C0E6FF12C0E6FF13C0AE
:1010D000E6FF0B0EE66EE66A23EC1AF0146E060EBF
:1010E000E15E1450040E0101C403F350030F106EAF
:1010F000B151105C000EB25533E2280EE66E4A0E76
:10110000E66EE66A010EE66E4AEC1BF0E552E55229
:10111000E552E552040E0101C403F350030F090D1B
:10112000F3CFE9FFF4CFEAFF4E0EE926010EEA22E3
:10113000EECF10F0EFCF11F0126A136A10C0E6FF85
:1011400011C0E6FF12C0E6FF13C0E6FF030EE66E15
:10115000010EE66E23EC1AF0146E060EE15E1450DA
:10116000040E0101C403F350040F106EB151105C62
:10117000000EB25534E2240EE66E4A0EE66E080EFC
:10118000E66E010EE66E4AEC1BF0E552E552E552C2
:10119000E552040E0101C403F350040F090DF3CF0F
:1011A000E9FFF4CFEAFF4E0EE926010EEA22EECF68
:1011B00010F0EFCF11F0126A136A10C0E6FF11C0F1
:1011C000E6FF12C0E6FF13C0E6FF0B0EE66E010E4F
:1011D000E66E23EC1AF0146E060EE15E145072EC0B
:1011E0000EF000090FE00101C429106EC3C10EF01A
:1011F000096E84EC28F005C0C4F1D5EC18F00101AB
:10120000AD6BAE6B7AEC0EF0000905E001010A0E41
:10121000AA6F67EC0FF049EC0EF000095AE00F01DD
:1012200040050EE1040E0101C403F328106EB15114
:10123000105C000EB25504E2040EC403F3283ED045
:10124000020E0F01405D10E1040E0101C403F350D2
:10125000020F106EB151105C000EB25505E2040E83
:10126000C403F350020F2AD0030E0F01405D10E1BA
:10127000040E0101C403F350030F106EB151105C52
:10128000000EB25505E2040EC403F350030F16D04E
:10129000040E0F01405D10E1040E0101C403F35080
:1012A000040F106EB151105C000EB25505E2040E31
:1012B000C403F350040F02D001010F0EC56F0F0ECF
:1012C000C55D04E0110EAA6F67EC0FF00101AD6B74
:1012D000AE6B01012C0ED880AD55010EAE5502E368
:1012E000FEEF0DF01FD3AD2B000EAE23190EE66EF0
:1012F0004A0EE66EE66AE66A4AEC1BF0E552E552F3
:10130000E552E5520101C551090DF3CFE9FFF4CFD4
:10131000EAFF4E0EE926010EEA22EECF10F0EFCFE3
:1013200011F0126A136A10C0E6FF11C0E6FF12C086
:10133000E6FF13C0E6FF0A0EE66EE66A23EC1AF03B
:10134000146E060EE15E14503F0EE66E0F0EE66E52
:10135000E66AF8EC19F0E552E552E552120EE66E37
:101360004A0EE66EE66A010EE66E4AEC1BF0E552A6
:10137000E552E552E5520A0EE66E4A0EE66E080E9A
:10138000E66E010EE66E4AEC1BF0E552E552E552C0
:10139000E55272EC0EF0000905E067EC0FF0010178
:1013A000120EAA6F7AEC0EF0000905E067EC0FF060
:1013B00001010E0EAA6F49EC0EF0000903E00101D5
:1013C000AD6BAE6B01012C0ED880AD55010EAE5544
:1013D00002E3FEEF0DF065D0AD2B000EAE23FA0E4A
:1013E000E66E490EE66EE66AE66A4AEC1BF0E552E6
:1013F000E552E552E5520101010EAD194BE1AE5146
:1014000049E1C551126E136A1250B15D106E13504E
:10141000B259116E1006000E115A090E1102F3CFC7
:1014200011F01002F3CF10F0F4501126F3CFE6FFC5
:1014300011C0E6FFC551090DF3CF14F0F4CF15F03C
:101440004E0E1426010E1522090E1426000E15222A
:1014500014C0E6FF15C0E6FFC551090DF3CF16F025
:10146000F4CF17F04E0E1626010E172216C0E6FF17
:1014700017C0E6FF43EC27F0186E060EE15E185029
:101480000101000ED880B155000EB25503E2B1073C
:10149000000EB25B280ED880AD55000EAE5501E3AC
:1014A000ADD367EC0FF001010A0EAA6FA7D3AD2BE5
:1014B000000EAE23040EC403F328106EB151105C6D
:1014C000000EB25530E2300EE66E4A0EE66EE66A67
:1014D000E66A4AEC1BF0E552E552E552E552040E8D
:1014E0000101C403F328090DF3CFE9FFF4CFEAFFAC
:1014F0004E0EE926010EEA22EECF10F0EFCF11F0EA
:10150000126A136A10C0E6FF11C0E6FF12C0E6FFC0
:1015100013C0E6FF030EE66EE66A23EC1AF0146EC3
:10152000060EE15E1450040E0101C403F350020FD5
:10153000106EB151105C000EB25532E22C0EE66E08
:101540004A0EE66E080EE66EE66A4AEC1BF0E552BD
:10155000E552E552E552040E0101C403F350020FB7
:10156000090DF3CFE9FFF4CFEAFF4E0EE926010E95
:10157000EA22EECF10F0EFCF11F0126A136A10C01A
:10158000E6FF11C0E6FF12C0E6FF13C0E6FF0B0E38
:10159000E66EE66A23EC1AF0146E060EE15E145055
:1015A000040E0101C403F350030F106EB151105C1F
:1015B000000EB25533E2280EE66E4A0EE66EE66A7B
:1015C000010EE66E4AEC1BF0E552E552E552E5529B
:1015D000040E0101C403F350030F090DF3CFE9FF1B
:1015E000F4CFEAFF4E0EE926010EEA22EECF10F00C
:1015F000EFCF11F0126A136A10C0E6FF11C0E6FFC8
:1016000012C0E6FF13C0E6FF030EE66E010EE66EA3
:1016100023EC1AF0146E060EE15E1450040E010164
:10162000C403F350040F106EB151105C000EB2559C
:1016300034E2240EE66E4A0EE66E080EE66E010EE9
:10164000E66E4AEC1BF0E552E552E552E552040E17
:101650000101C403F350040F090DF3CFE9FFF4CFE8
:10166000EAFF4E0EE926010EEA22EECF10F0EFCF90
:1016700011F0126A136A10C0E6FF11C0E6FF12C033
:10168000E6FF13C0E6FF0B0EE66E010EE66E23ECDE
:101690001AF0146E060EE15E145024DB00090FE010
:1016A0000101C429106EC3C10EF0096E84EC28F04C
:1016B00005C0C4F1D5EC18F00101AD6BAE6B1ADBBF
:1016C000000905E001010A0EAA6F67EC0FF0E1DAEC
:1016D000000959E00F0140050EE1040E0101C403A9
:1016E000F328106EB151105C000EB25504E2040EE6
:1016F000C403F3283ED0020E0F01405D10E1040E3A
:101700000101C403F350020F106EB151105C000EC2
:10171000B25505E2040EC403F350020F2AD0030EA3
:101720000F01405D10E1040E0101C403F350030FEB
:10173000106EB151105C000EB25505E2040EC403E8
:10174000F350030F16D0040E0F01405D10E1040E9C
:101750000101C403F350040F106EB151105C000E70
:10176000B25505E2040EC403F350040F02D0010188
:101770000F0EC56F0F0EC55D03E0130EAA6FA7DB3A
:101780000101AD6BAE6B01012C0ED880AD55010E81
:10179000AE5501E333D2C6D0AD2B000EAE23EF0E13
:1017A000E66E490EE66EE66AE66A4AEC1BF0E55222
:1017B000E552E552E5520101C551090DF3CFE9FFAC
:1017C000F4CFEAFF4E0EE926010EEA22EECF10F02A
:1017D000EFCF11F0126A136A10C0E6FF11C0E6FFE6
:1017E00012C0E6FF13C0E6FF0B0EE66EE66A23ECBE
:1017F0001AF0146E060EE15E14504BDA00093AE05E
:10180000410E0F01405D14E10101AB5100082FE2D0
:10181000AB07170EE66E4B0EE66EABC1E6FF010E90
:10182000E66E4AEC1BF0E552E552E552E5521FD058
:101830000A0E405D1CE2060E0101AB5D18E2150EBA
:10184000E66E4B0EE66EABC1E6FF010EE66E4AECAD
:101850001BF0E552E552E552E5520101AB51EA6A4F
:101860003A0FE96E0F0EEA2240CFEFFFAB2B0101DA
:10187000AD6BAE6B37DA000907E0060E0101AB5D18
:1018800003E3140EAA6F23DB35DA000904E001013B
:101890000F0EAA6F1CDB01012C0ED880AD55010E76
:1018A000AE5501E3ABD13ED0AD2B000EAE23810E81
:1018B000E66E4A0EE66EE66A75EC1BF0E552E552FE
:1018C000E5520101010EAD1925E1AE5123E1060EED
:1018D000E66EE66A3A0EE66E0F0EE66EC551090D2B
:1018E000F3CFE9FFF4CFEAFF4E0EE926010EEA221C
:1018F000020EE926000EEA22E9CF10F0EACF11F03D
:10190000E9CFE6FFEACFE6FF43EC27F0126E060EC2
:10191000E15E12500101280ED880AD55000EAE5583
:1019200001E36CD10A0E51D1AD2B000EAE23010E96
:10193000AD1903E1AE5101E1D5DAE60EE66E490ECE
:10194000E66EE66AE66A4AEC1BF0E552E552E552BD
:10195000E552DE0EE66E490EE66E080EE66EE66AAB
:101960004AEC1BF0E552E552E552E55219C110F080
:101970001AC111F0126A136A19C1E6FF1AC1E6FF13
:1019800012C0E6FF13C0E6FF0C0EE66EE66A23EC1B
:101990001AF0146E060EE15E1450D70EE66E490E74
:1019A000E66EE66A010EE66E4AEC1BF0E552E55281
:1019B000E552E5521DC110F01EC111F0126A136A02
:1019C0001DC1E6FF1EC1E6FF12C0E6FF13C0E6FF21
:1019D000030EE66E010EE66E23EC1AF0146E060E90
:1019E000E15E1450D00EE66E490EE66E080EE66E0D
:1019F000010EE66E4AEC1BF0E552E552E552E55267
:101A00001BC110F01CC111F0126A136A1BC1E6FF62
:101A10001CC1E6FF12C0E6FF13C0E6FF0C0EE66E27
:101A2000010EE66E23EC1AF0146E060EE15E145001
:101A300061D9000904E00101080EAA6F48DA01012A
:101A40002C0ED880AD55010EAE5501E3D7D0A0D0F5
:101A5000AD2B000EAE23E6EC11F050EC14F00009B3
:101A600003E00101AD6BAE6B45D9000905E0010152
:101A7000080EAA6F010EC86F01012C0ED880AD555B
:101A8000010EAE5501E3BAD01CD0AD2B000EAE2333
:101A90000FEC13F050EC14F0000903E00101AD6B02
:101AA000AE6B28D9000905E00101080EAA6F010EEE
:101AB000C86F01012C0ED880AD55010EAE5501E363
:101AC0009DD0AA6B010EC86F99D0AD2B000EAE232E
:101AD000010EAD1918E1AE5116E1AFC1E9FFB0C179
:101AE000EAFF090EEA02F3CFEAFFE902F3CFE9FFCA
:101AF000F450EA264E0EE926010EEA22080EE926E7
:101B0000000EEA22EF6A1F050DE1BF0EE66E490ED8
:101B1000E66EE66AE66A4AEC1BF0E552E552E552EB
:101B2000E552F0D801011F5103E1180EAA6FCFD979
:101B30000101280EAD5D000EAE5960E3180E45D0D0
:101B4000AD2B000EAE23AD0EE66E490EE66EE66AD4
:101B500075EC1BF0E552E552E552A10EE66E490E1A
:101B6000E66E010EE66E75EC1BF0E552E552E552AD
:101B7000E7D801011F6BB6D8000904E0A8D901011C
:101B8000050EAA6F0101640EAD5D000EAE5936E37D
:101B9000AA6B34D0AD2B000EAE23920EE66E490E2A
:101BA000E66EE66A75EC1BF0E552E552E55201017E
:101BB000010EAD1903E1AE5101E1E8D90101280E92
:101BC000AD5D000EAE591AE3080EAA6F80D916D08B
:101BD000AD2B000EAE23810EE66E490EE66EE66A70
:101BE000E66A4AEC1BF0E552E552E552E552010186
:101BF000280EAD5D000EAE5901E3AA6B020EE15C4A
:101C000002E2E16AE552E16EE552E7CFD9FF120048
:101C1000D9CFE6FFE1CFD9FF020EE126DF6A060E3B
:101C2000DF5C2AE2AFC1E9FFB0C1EAFF090EEA02B8
:101C3000F3CFEAFFE902F3CFE9FFF450EA264E0EB4
:101C4000E926010EEA22020EE926000EEA22DF5002
:101C5000E924E96E000EEA20EA6EEFCF10F0DF50C3
:101C6000EA6A3A0FE96E0F0EEA22EF50105C02E0CA
:101C7000000E03D0DF2AD3D7010E106E020EE15CF6
:101C800002E2E16AE552E16E1050E552E7CFD9FF7A
:101C90001200D9CFE6FFE1CFD9FFE652DF6ADF506D
:101CA0000F081AE3EA6ADF34FE0BEA36E96ECA0E61
:101CB000E926010EEA22010EEE180CE1ED500AE1D0
:101CC000DF50EA6A200FE96E010EEA22EFCF40FFF3
:101CD000010E03D0DF2AE3D7000EE552E552E7CF2D
:101CE000D9FF12000101010EE61903E1E75101E1FC
:101CF000010C000C0101010EE21903E1E35101E1C5
:101D0000010C000C000EE66EE66ACBEC00F0E5522A
:101D1000E552010EE66EE66AF3EC00F0E552E5529C
:101D20001200000EE66EE66AF3EC00F0E552E552B2
:101D3000010EE66EE66ACBEC00F0E552E5521200C9
:101D4000000EE66EE66AF3EC00F0E552E552010E95
:101D5000E66EE66AF3EC00F0E552E5521200D9CFE8
:101D6000E6FFE1CFD9FFF90EDBCF10F0FA0EDBCFA3
:101D700011F00A0E105C000E11582CE2F80EDB5028
:101D8000030828E17E0EE66E490EE66EFB0EDBCF01
:101D9000E6FFFD0EDBCFE6FF4AEC1BF0E552E55215
:101DA000E552E552F90EDBCF10F0FA0EDBCF11F061
:101DB000126A136A10C0E6FF11C0E6FF12C0E6FF08
:101DC00013C0E6FFFB0EDBCF14F0FC0EDBCF15F0EB
:101DD000020E45D0F90EDBCF10F0FA0EDBCF11F07A
:101DE0000A0E105C000E115804E2F80EDB500208D7
:101DF0000FE0F90EDBCF10F0FA0EDBCF11F0640E1E
:101E0000105C000E115837E2F80EDB50030833E186
:101E10007C0EE66E490EE66EFB0EDBCFE6FFFD0E96
:101E2000DBCFE6FF4AEC1BF0E552E552E552E55206
:101E3000F90EDBCF10F0FA0EDBCF11F0126A136A45
:101E400010C0E6FF11C0E6FF12C0E6FF13C0E6FFB8
:101E5000FB0EDBCF14F0FC0EDBCF15F0010E1424CB
:101E6000E66EFD0EDBCFE6FF23EC1AF0166E060ED3
:101E7000E15E165028D09F0EE66E4A0EE66EFD0E0D
:101E8000DBCFE6FF75EC1BF0E552E552E552F90EAB
:101E9000DBCF10F0FA0EDBCF11F0126A136A10C01C
:101EA000E6FF11C0E6FF12C0E6FF13C0E6FFFB0E1F
:101EB000DBCFE6FFFD0EDBCFE6FF23EC1AF0146E5E
:101EC000060EE15E1450E552E7CFD9FF1200D5ECC3
:101ED00018F00101AD6BAE6BC46BBD6BC26BAB6B2D
:101EE000AC6B1200D9CFE6FFE1CFD9FF030EE1269C
:101EF000DE6ADD6A000E01011B6F1C6B1D6F1E6B1D
:101F0000196F1A6BDE6ADD6ADECF10F0DDCF11F0DB
:101F1000B151105CB25111582FE2DECFE9FFDDCF95
:101F2000EAFF090EEA02F3CFEAFFE902F3CFE9FF85
:101F3000F450EA264E0EE926010EEA22080EE926A2
:101F4000000EEA22020EEFCFDBFFDB50020A0CE0AC
:101F5000030A06E0010A0BE1192B000E1A2307D031
:101F60001D2B000E1E2303D01B2B000E1C23DF2A6B
:101F7000010ECAE3DB2AC8D7030EE15C02E2E16A84
:101F8000E552E16EE552E7CFD9FF1200D9CFE6FF67
:101F9000E1CFD9FF020EE126DE6ADD6ADE6ADD6A84
:101FA000DECF10F0DDCF11F00101B151105CB25164
:101FB00011581CE2DECFE9FFDDCFEAFF090EEA028D
:101FC000F3CFEAFFE902F3CFE9FFF450EA264E0E21
:101FD000E926010EEA22080EE926000EEA22020E88
:101FE000EF6EDF2A010EDCE3DB2ADAD7020EE15CBA
:101FF00002E2E16AE552E16EE552E7CFD9FF120055
:10200000200EE66EA0EC24F0E552220809E009D883
:10201000220EE66E200EE66E8FEC24F0E552E552BD
:1020200012000101320E106F3B0E116F170E126F6E
:1020300010C1E6FFE66A4FEC24F0E552E55211C10B
:10204000E6FF010EE66E4FEC24F0E552E55212C1B8
:10205000E6FF020EE66E4FEC24F0E552E552120068
:10206000E66AA0EC24F0E5520101106F010EE66E65
:10207000A0EC24F0E5520101116F020EE66EA0EC17
:1020800024F0E5520101126F0A0E125D1DE27C0E72
:10209000E66E490EE66E070EE66E010EE66E4AEC3F
:1020A0001BF0E552E552E552E55212C110F0116AFB
:1020B000126A136A12C1E6FF11C0E6FF12C0E6FF02
:1020C00013C0E6FF080E0ED012C110F0116A126A9A
:1020D000136A12C1E6FF11C0E6FF12C0E6FF13C08B
:1020E000E6FF070EE66E010EE66E23EC1AF0146EA4
:1020F000060EE15E14507A0EE66E490EE66E090E8B
:10210000E66E010EE66E4AEC1BF0E552E552E55232
:10211000E5520A0E0101115D1DE27C0EE66E490ECC
:10212000E66E0A0EE66E010EE66E4AEC1BF0E55214
:10213000E552E552E55211C110F0116A126A136AB4
:1021400011C1E6FF11C0E6FF12C0E6FF13C0E6FFB3
:102150000B0E0ED011C110F0116A126A136A11C170
:10216000E6FF11C0E6FF12C0E6FF13C0E6FF0A0E4D
:10217000E66E010EE66E23EC1AF0146E060EE15EBA
:1021800014507A0EE66E490EE66E0C0EE66E010EE7
:10219000E66E4AEC1BF0E552E552E552E5520A0EB6
:1021A0000101105D1DE27C0EE66E490EE66E0D0E1D
:1021B000E66E010EE66E4AEC1BF0E552E552E55282
:1021C000E55210C110F0116A126A136A10C1E6FFDD
:1021D00011C0E6FF12C0E6FF13C0E6FF0E0E0ED0E0
:1021E00010C110F0116A126A136A10C1E6FF11C023
:1021F000E6FF12C0E6FF13C0E6FF0D0EE66E010E0D
:10220000E66E23EC1AF0146E060EE15E1450120016
:10221000D9CFE6FFE1CFD9FF0A0EF36EFE0EDBCF7A
:10222000F4FFF350F45C1EE27C0EE66E490EE66E9F
:10223000070EE66E010EE66E4AEC1BF0E552E55223
:10224000E552E552FE0EDBCF10F0116A126A136AF6
:1022500010C0E6FF11C0E6FF12C0E6FF13C0E6FFA4
:10226000080E0FD0FE0EDBCF10F0116A126A136A4F
:1022700010C0E6FF11C0E6FF12C0E6FF13C0E6FF84
:10228000070EE66E010EE66E23EC1AF0146E060ED3
:10229000E15E14507A0EE66E490EE66E090EE66EA9
:1022A000010EE66E4AEC1BF0E552E552E552E552AE
:1022B0000A0EF36EFD0EDBCFF4FFF350F45C1EE26A
:1022C0007C0EE66E490EE66E0A0EE66E010EE66EB6
:1022D0004AEC1BF0E552E552E552E552FD0EDBCF2C
:1022E00010F0116A126A136A10C0E6FF11C0E6FF0F
:1022F00012C0E6FF13C0E6FF0B0E0FD0FD0EDBCFC2
:1023000010F0116A126A136A10C0E6FF11C0E6FFEE
:1023100012C0E6FF13C0E6FF0A0EE66E010EE66E7F
:1023200023EC1AF0146E060EE15E14507A0EE66E7F
:10233000490EE66E0C0EE66E010EE66E4AEC1BF0E0
:10234000E552E552E552E5520A0EF36EFC0EDBCF84
:10235000F4FFF350F45C1EE27C0EE66E490EE66E6E
:102360000D0EE66E010EE66E4AEC1BF0E552E552EC
:10237000E552E552FC0EDBCF10F0116A126A136AC7
:1023800010C0E6FF11C0E6FF12C0E6FF13C0E6FF73
:102390000E0E0FD0FC0EDBCF10F0116A126A136A1A
:1023A00010C0E6FF11C0E6FF12C0E6FF13C0E6FF53
:1023B0000D0EE66E010EE66E23EC1AF0146E060E9C
:1023C000E15E1450E552E7CFD9FF12000101C85178
:1023D000060A01E1FBD0030A01E1B6D0010A72E06E
:1023E000070A2DE0010A15E0030A01E009D16E0E8B
:1023F000E66E490EE66EE66A75EC1BF0E552E552B4
:10240000E5522EDE45DA000901E1FCD00101020EA1
:10241000F8D0E66AA0EC24F0E5520101156F010E38
:10242000E66EA0EC24F0E5520101146F020EE66E98
:10243000A0EC24F0E5520101136F030EE2D015C1A8
:10244000E6FF14C1E6FF13C1E6FFE2DEE552E55206
:10245000E5520101CA51CB1115E1CC51CD1112E168
:102460000A0E0101C95D0EE26B0EE66E490EE66EC4
:10247000070EE66E010EE66E4AEC1BF0E552E552E1
:10248000E552E552C9D900090CE001011329106E8B
:10249000180E116E0E6E10C009F084EC28F005C005
:1024A00013F1D8D9000907E00101130713511708E8
:1024B00002E2170E136FECD9000901E1A3D001016C
:1024C000040E9FD015C1E6FF14C1E6FF13C1E6FF5D
:1024D0009FDEE552E552E5520101CA51CB1115E1EB
:1024E000CC51CD1112E10A0E0101C95D0EE26B0E55
:1024F000E66E490EE66E0A0EE66E010EE66E4AECD8
:102500001BF0E552E552E552E55286D900090CE090
:1025100001011429106E3C0E116E0E6E10C009F0F0
:1025200084EC28F005C014F195D9000907E00101F9
:10253000140714513B0802E23B0E146FA9D900099D
:1025400061E00101050E5DD015C1E6FF14C1E6FF93
:1025500013C1E6FF5DDEE552E552E5520101CA51C5
:10256000CB1115E1CC51CD1112E10A0E0101C95D6B
:102570000EE26B0EE66E490EE66E0D0EE66E010E75
:10258000E66E4AEC1BF0E552E552E552E55244D9BD
:1025900000090CE001011529106E3C0E116E0E6E43
:1025A00010C009F084EC28F005C015F153D90009DA
:1025B00007E00101150715513B0802E23B0E156FBC
:1025C00067D900091FE00101060E1BD015C1E6FF07
:1025D000E66A4FEC24F0E552E55214C1E6FF010E25
:1025E000E66E4FEC24F0E552E55213C1E6FF020E11
:1025F000E66E4FEC24F0E552E5520101010E01D0E8
:10260000010EC86F0101C929106E140E116E0E6EF5
:1026100010C009F084EC28F005C0C9F112000101D6
:10262000C851050A01E1A7D0010A63E0070A1EE0CC
:10263000020A01E0E2D05A0EE66E490EE66EE66A44
:1026400075EC1BF0E552E552E55218C1E6FF17C1E3
:10265000E6FF16C1E6FFDCDDE552E552E55218D98A
:10266000000901E1CCD00101030EC8D018C1E6FF7A
:1026700017C1E6FF16C1E6FFCBDDE552E552E55294
:102680000101CA51CB1115E1CC51CD1112E10A0E55
:102690000101C95D0EE26B0EE66E490EE66E070E95
:1026A000E66E010EE66E4AEC1BF0E552E552E5528D
:1026B000E552B2D800090CE001011629106E180E7F
:1026C000116E0E6E10C009F084EC28F005C016F1F2
:1026D000C1D8000907E0010116071651170802E2E8
:1026E000170E166FD5D8000901E189D00101040E3B
:1026F00085D018C1E6FF17C1E6FF16C1E6FF88DDE9
:10270000E552E552E5520101CA51CB1115E1CC5118
:10271000CD1112E10A0E0101C95D0EE26B0EE66EEB
:10272000490EE66E0A0EE66E010EE66E4AEC1BF0EE
:10273000E552E552E552E5526FD800090CE001017F
:102740001729106E3C0E116E0E6E10C009F084EC4D
:1027500028F005C017F17ED8000907E0010117072E
:1027600017513B0802E23B0E176F92D8000947E071
:102770000101050E43D018C1E6FF17C1E6FF16C1DF
:10278000E6FF46DDE552E552E5520101CA51CB11A3
:1027900015E1CC51CD1112E10A0E0101C95D0EE225
:1027A0006B0EE66E490EE66E0D0EE66E010EE66EDF
:1027B0004AEC1BF0E552E552E552E5522DD80009EE
:1027C0000CE001011829106E3C0E116E0E6E10C047
:1027D00009F084EC28F005C018F13CD8000907E0A6
:1027E0000101180718513B0802E23B0E186F50D840
:1027F000000905E00101010E01D0010EC86F0101C1
:10280000C929106E140E116E0E6E10C009F084EC02
:1028100028F005C0C9F112000101010ECA1901E139
:10282000CB5116E0140ED880CA55000ECB5511E2DC
:10283000CAC110F0CBC111F0050E0D6E0E6ACAC1EF
:1028400008F0CBC109F050EC28F00450051001E16C
:10285000010C000C0101010ECC1901E1CD5116E073
:10286000140ED880CC55000ECD5511E2CCC110F01D
:10287000CDC111F0050E0D6E0E6ACCC108F0CDC1B0
:1028800009F050EC28F00450051001E1010C000C97
:102890000101010ECE1903E1CF5101E1010C000C41
:1028A0000101000ED880CA55000ECB550CE3000E76
:1028B000D880CC55000ECD5506E3000ED880CE55FD
:0A28C000000ECF5501E2010C000CE0
:0628CA00D9CFE6FFE1CFCB
:1028D000D9FF040EE126DE6ADD6ADECF10F0DDCF1F
:1028E00011F0126A136A11AE02D012681368D9503F
:1028F000FB0FE96EFF0EDA20EA6EEE50105CEE5030
:102900001158EE501258EE5013581DE2020EDB6AB9
:10291000030EDB6A020EDBCF10F0030EDBCF11F0EB
:10292000D890115004E6050E105C000E115806E216
:10293000020EDB2A030EEEE3DB2AECD7DF2A010EC0
:10294000CCE3DB2ACAD7040EE15C02E2E16AE5527D
:10295000E16EE552E7CFD9FF1200D9CFE6FFE1CF14
:10296000D9FF040EE126DE6ADD6ADECF10F0DDCF8E
:1029700011F0126A136A11AE02D012681368D950AE
:10298000FB0FE96EFF0EDA20EA6EEE50105CEE509F
:102990001158EE501258EE5013581DE2020EDB6A29
:1029A000030EDB6A020EDBCF10F0030EDBCF11F05B
:1029B000D890115004E6EE0E105C000E115806E29D
:1029C000020EDB2A030EEEE3DB2AECD7DF2A010E30
:1029D000CCE3DB2ACAD7040EE15C02E2E16AE552ED
:1029E000E16EE552E7CFD9FF1200D9CFE6FFE1CF84
:1029F000D9FF0F0E8116FE0EDB50F00B811281867F
:102A0000010EE66EE66AE66AE66AA7DFE552E5527F
:102A1000E552E5528196010EE66EE66AE66AE66ADE
:102A20009CDFE552E552E552E5520F0E8116FE0E8F
:102A3000DB38F00B81128186010EE66EE66AE66AEB
:102A4000E66A8BDFE552E552E552E5528196010ECA
:102A5000E66EE66AE66AE66A80DFE552E552E5522E
:102A6000E552E552E7CFD9FF1200D9CFE6FFE1CF1B
:102A7000D9FFE652190EE66EE66AE66AE66A6DDF8F
:102A8000E552E552E552E5520F0E8116F80E811619
:102A90000F0E8116300E81128186010EE66EE66AF7
:102AA000E66AE66A5ADFE552E552E552E55281965A
:102AB000010EE66EE66AE66AE66A4FDFE552E55227
:102AC000E552E5520F0E8116300E81128186010EFD
:102AD000E66EE66AE66AE66A40DFE552E552E552EE
:102AE000E5528196010EE66EE66AE66AE66A35DF31
:102AF000E552E552E552E5520F0E8116300E811275
:102B00008186010EE66EE66AE66AE66A26DFE5522F
:102B1000E552E552E5528196010EE66EE66AE66AF6
:102B2000E66A1BDFE552E552E552E5520F0E8116CB
:102B3000818A8186010EE66EE66AE66AE66A0DDF44
:102B4000E552E552E552E5528196010EE66EE66ADF
:102B5000E66AE66A02DFE552E552E552E552280EE2
:102B6000E66E43DFE5520C0EE66E3FDFE552E552BE
:102B7000E552E7CFD9FF1200D9CFE6FFE1CFD9FF69
:102B8000020EE126DF6A010EDB6A81940F0EE66E0B
:102B9000E66AE66AE66A99DEE552E552E552E552F2
:102BA0000F0E81128186E66EE66AE66AE66A8DDEBF
:102BB000E552E552E552E5520F0E8114E76E010E23
:102BC000E7CFDBFF81960F0EE66EE66AE66AE66AFD
:102BD0007CDEE552E552E552E5520F0E8112818608
:102BE000E66EE66AE66AE66A70DEE552E552E552AE
:102BF000E5520F0E8114DF6E010EDB50DF1281965D
:102C0000010EE66EE66AE66AE66A5FDEE552E552C6
:102C1000E552E552DF50106E020EE15C02E2E16A1D
:102C2000E552E16E1050E552E7CFD9FF1200D9CF3F
:102C3000E6FFE1CFD9FFE652DF6A9EDFDF6EDFBE3F
:102C4000FCD7DF50E552E552E7CFD9FF1200D9CFCC
:102C5000E6FFE1CFD9FF0F0E8116FE0EDB50811289
:102C60008186050EE66EE66AE66AE66A2EDEE552C3
:102C7000E552E552E5528196050EE66EE66AE66A91
:102C8000E66A23DEE552E552E552E552E552E7CF2A
:102C9000D9FF1200D9CFE6FFE1CFD9FF8194050E0D
:102CA000E66EE66AE66AE66A10DEE552E552E5524D
:102CB000E552FE0EDBCFE6FFCADFE552FE0EDB3843
:102CC000F00BE66EC4DFE552E552E7CFD9FF120004
:102CD000D9CFE6FFE1CFD9FF8184050EE66EE66A23
:102CE000E66AE66AF2DDE552E552E552E552FE0E8D
:102CF000DBCFE6FFACDFE552FE0EDB38F00BE66E15
:102D0000A6DFE5528194E552E7CFD9FF1200D9CF73
:102D1000E6FFE1CFD9FFFE0EDBCFE6FFD9DFE552BC
:102D2000E552E7CFD9FF1200D9CFE6FFE1CFD9FFB7
:102D3000FE0EDBCFE6FFCCDFE552E552E7CFD9FF51
:102D40001200D9CFE6FFE1CFD9FFFD0EDBCFF6FFB2
:102D5000FE0EDBCFF7FF0800F5500FE0FD0EDBCFD6
:102D6000F6FFDB2AFE0EDBCFF7FF01E3DB2A0800CC
:102D7000F550E66ED9DFE552E8D7E552E7CFD9FF47
:102D80001200D9CFE6FFE1CFD9FFE652FD0EDB50AE
:102D90000F0B106EFE0EDB50010B400DF350102494
:102DA000DF6E7F0EDF14800FDF6EDFCFE6FF72DF96
:102DB000E552E552E552E7CFD9FF1200010EE66E6B
:102DC00069DFE552E66AE66ADCDFE552E5521200A9
:102DD000D9CFE6FFE1CFD9FF050EE126010EF36E54
:102DE000DB6E020EDB6A030EDB6A040EDB6ADF6A4F
:102DF000DFCF10F0116A10BE1168FB0EDBCF12F0AE
:102E0000FC0EDBCF13F011501318E8AE02D01334D0
:102E100004D01250105C135011582DE2FD0EDBCF80
:102E200010F0FE0EDBCF11F0126A136A11AE02D061
:102E300012681368D950010FE96EDACFEAFF10C0AB
:102E40000BF011C00CF012C00DF013C00EF0EECF5D
:102E500006F0EECF07F0EECF08F0EFCF09F0D7EC99
:102E600027F005C0EDFF04C0EDFF03C0EDFF02C079
:102E7000EFFFDF2ABDD7010EDBCF10F0020EDBCF54
:102E800011F0030EDBCF12F0040EDBCF13F010C0F5
:102E900006F011C007F012C008F013C009F0050ECB
:102EA000E15C02E2E16AE552E16EE552E7CFD9FF6B
:102EB0001200D9CFE6FFE1CFD9FF020EE126DF6A8B
:102EC000FB0EDBCF10F0FC0EDBCF11F0FD0EDBCFE5
:102ED00012F0FE0EDBCF13F0105011101210131071
:102EE00005E1300EE66E20DFE552F4D0D950FB0F3D
:102EF000E96EFF0EDA20EA6ED890030EEB50000A5E
:102F000008E6000EEE5C000EEE58000EEE58000EC5
:102F1000EE5815E22D0EE66E07DFE552D950FB0F95
:102F2000E96EFF0EDA20EA6E000EEE6CEF1EEE2266
:102F3000EF1EEE22EF1EEF22ED52ED52ED52DE5269
:102F4000070EDD6E010EDBCF10F0000EE76E1018DD
:102F5000E8AE02D0103403D0E750D880105401E31B
:102F6000B9D0010EDB04146E156A14BE156814C0C6
:102F7000E6FF15C0E6FF0A0EE66EE66A29DFE552B7
:102F8000E552E552E55206C010F007C011F008C046
:102F900012F009C013F006C00BF007C00CF008C017
:102FA0000DF009C00EF0FB0EDBCF06F0FC0EDBCF00
:102FB00007F0FD0EDBCF08F0FE0EDBCF09F00FECC3
:102FC00028F0065007100810091041E0010EDF6ECE
:102FD000DB04186E196A18BE196818C0E6FF19C01C
:102FE000E6FF0A0EE66EE66AF3DEE552E552E552CA
:102FF000E55206C014F007C015F008C016F009C06D
:1030000017F006C00BF007C00CF008C00DF009C0A7
:103010000EF0FB0EDBCF06F0FC0EDBCF07F0FD0E53
:10302000DBCF08F0FE0EDBCF09F00FEC28F006C076
:1030300010F007C011F008C012F009C013F0300EF4
:103040001026000E112212221322105003D0DF503E
:1030500004E0300EE66E68DEE552010EDB04146E0D
:10306000156A14BE156814C0E6FF15C0E6FF0A0E07
:10307000E66EE66AADDEE552E552E552E55206C07F
:1030800010F007C011F008C012F009C013F0D950B9
:10309000FB0FE96EFF0EDA20EA6E06C00BF007C0E8
:1030A0000CF008C00DF009C00EF0EECF06F0EECF28
:1030B00007F0EECF08F0EFCF09F00FEC28F005C0D5
:1030C000EDFF04C0EDFF03C0EDFF02C0EFFF010EF6
:1030D000DB0638D7020EE15C02E2E16AE552E16EFE
:1030E000E552E7CFD9FF1200D9CFE6FFE1CFD9FFF4
:1030F000FD0EDBCFE6FFFE0EDBCFE6FF42DEE55244
:10310000E552D950F90FE96EFF0EDA20EA6EEECFE4
:10311000E6FFEECFE6FFEECFE6FFEFCFE6FFC9DE3C
:10312000E552E552E552E552E552E7CFD9FF1200EC
:10313000D9CFE6FFE1CFD9FFFD0EDBCFE6FFFE0ED4
:10314000DBCFE6FF1EDEE552E552FB0EDBCFE6FFEE
:10315000FC0EDBCFE6FFF5DDE552E552E552E7CFA9
:10316000D9FF1200D9CFE6FFE1CFD9FF41CF10F050
:1031700042CF11F0040ED89010361136E806FBE16C
:10318000C10E1026000E112210500F014325E96ECA
:1031900011504421EA6EFE0EDBCFEFFF432B000EF1
:1031A0004423E552E7CFD9FF1200D9CFE6FFE1CFA4
:1031B000D9FFE652DF6ADFCF10F0100EE76E10186D
:1031C000E8AE02D0E73402D0E750105C18E2DFCF5F
:1031D000E9FFEA6AE9BEEA68C10EE926000EEA22C2
:1031E000200EEF6EDFCFE9FFEA6AE9BEEA68D10E92
:1031F000E926000EEA22200EEF6EDF2ADCD7E55228
:10320000E552E7CFD9FF1200D9CFE6FFE1CFD9FFD2
:10321000E6520001C051030A52E0010A36E0030AF7
:103220001AE0010A67E1E66AE66AABDDE552E552BB
:10323000DF6A080EDF5C0CE2DF50EA6AC10FE96E5C
:10324000000EEA22EF50E66E6FDDE552DF2AF1D77D
:103250000001010E32D0080EE66EE66A92DDE552FC
:10326000E552DF6A080EDF5C0DE2080EDF24EA6A31
:10327000C10FE96E000EEA22EF50E66E55DDE55211
:10328000DF2AF0D70001020E18D0E66A010EE66EC2
:1032900078DDE552E552DF6A080EDF5C0CE2DF50B4
:1032A000EA6AD10FE96E000EEA22EF50E66E3CDDCD
:1032B000E552DF2AF1D70001030EC06F1CD0080EC3
:1032C000E66E010EE66E5DDDE552E552DF6A080E40
:1032D000DF5C0DE2080EDF24EA6AD10FE96E000E12
:1032E000EA22EF50E66E20DDE552DF2AF0D700013A
:1032F000C06B01D0C06BE552E552E7CFD9FF120099
:10330000D9CFE6FFE1CFD9FFE6520001C051010A53
:103310001BE0010A32E1E66AE66A33DDE552E55276
:10332000DF6A100EDF5C0CE2DF50EA6AC10FE96E63
:10333000000EEA22EF50E66EF7DCE552DF2AF1D705
:103340000001010EC06F1AD0E66A010EE66E19DDAB
:10335000E552E552DF6A100EDF5C0CE2DF50EA6AEC
:10336000D10FE96E000EEA22EF50E66EDDDCE55289
:10337000DF2AF1D70001C06B01D0C06BE552E552E6
:10338000E7CFD9FF1200D9CFE6FFE1CFD9FFE65250
:10339000E66AE66AF6DCE552E552DF6A100EDF5CAB
:1033A0000CE2DF50EA6AC10FE96E000EEA22EF502C
:1033B000E66EBADCE552DF2AF1D7E66A010EE66E68
:1033C000E0DCE552E552DF6A100EDF5C0CE2DF5014
:1033D000EA6AD10FE96E000EEA22EF50E66EA4DC35
:1033E000E552DF2AF1D7E552E552E7CFD9FF1200C7
:1033F000D9CFE6FFE1CFD9FFFE0EDB50010B0F0165
:10340000416F426BFD0EDB500F0B436F446B41CF9E
:1034100010F042CF11F0040ED89010361136E806A5
:10342000FBE1C10E1026000E112210500F014325A2
:10343000E96E11504421EA6EFC0EDBCFEFFFE5523E
:10344000E7CFD9FF1200D9CFE6FFE1CFD9FF020EB7
:10345000E126DF6AFE0EDB50010B0F01416F426B6C
:10346000FD0EDB500F0B436F446BF90EDBCF10F0FA
:10347000FA0EDBCF11F0FB0EDBCF12F0FC0EDBCF30
:1034800013F0105011101210131005E1300EE66EFB
:1034900069DEE552F5D0D950F90FE96EFF0EDA205A
:1034A000EA6ED890030EEB50000A08E6000EEE5CC0
:1034B000000EEE58000EEE58000EEE5815E22D0EDE
:1034C000E66E50DEE552D950F90FE96EFF0EDA20B4
:1034D000EA6E000EEE6CEF1EEE22EF1EEE22EF1EE5
:1034E000EF22ED52ED52ED52DE52070EDD6E010E6F
:1034F000DBCF10F0000EE76E1018E8AE02D01034EB
:1035000003D0E750D880105401E3BAD0010EDB0499
:10351000146E156A14BE156814C0E6FF15C0E6FFE8
:103520000A0EE66EE66A54DCE552E552E552E552D3
:1035300006C010F007C011F008C012F009C013F067
:1035400006C00BF007C00CF008C00DF009C00EF06B
:10355000F90EDBCF06F0FA0EDBCF07F0FB0EDBCF68
:1035600008F0FC0EDBCF09F00FEC28F00650071036
:103570000810091041E0010EDF6EDB04186E196AB5
:1035800018BE196818C0E6FF19C0E6FF0A0EE66EFD
:10359000E66A1EDCE552E552E552E55206C014F03B
:1035A00007C015F008C016F009C017F006C00BF0F0
:1035B00007C00CF008C00DF009C00EF0F90EDBCF0B
:1035C00006F0FA0EDBCF07F0FB0EDBCF08F0FC0EA7
:1035D000DBCF09F00FEC28F006C010F007C011F0A7
:1035E00008C012F009C013F0300E1026000E112290
:1035F00012221322105003D0DF5004E0300EE66E8A
:10360000B1DDE552010EDB04146E156A14BE1568B7
:1036100014C0E6FF15C0E6FF0A0EE66EE66AE8ECA7
:1036200016F0E552E552E552E55206C010F007C02B
:1036300011F008C012F009C013F0D950F90FE96E6B
:10364000FF0EDA20EA6E06C00BF007C00CF008C0CF
:103650000DF009C00EF0EECF06F0EECF07F0EECF82
:1036600008F0EFCF09F00FEC28F005C0EDFF04C023
:10367000EDFF03C0EDFF02C0EFFF010EDB0637D701
:10368000020EE15C02E2E16AE552E16EE552E7CF4B
:10369000D9FF1200D9CFE6FFE1CFD9FFFE0EDB50F4
:1036A000010B0F01416F426BFD0EDB500F0B436F9F
:1036B000446BFB0EDBCFF6FFFC0EDBCFF7FF080001
:1036C000F5500FE0FB0EDBCFF6FFDB2AFC0EDBCF65
:1036D000F7FF01E3DB2A0800F550E66E43DDE55213
:1036E000E8D7E552E7CFD9FF1200D9CFE6FFE1CF07
:1036F000D9FF020EE126DE6ADD6AFE0EDB50010B09
:103700000F01416F426B436B446BDE6ADD6ADECFB3
:1037100010F0DDCF11F0D890115004E6100E105CBF
:10372000000E11581EE2FC0EDBCFF6FFFD0EDBCFC4
:10373000F7FF0800F5500CE0FC0EDBCFF6FFDB2AAC
:10374000FD0EDBCFF7FF01E3DB2A0800F55001D0C7
:10375000200EE66E07DDE552DF2A010ED8E3DB2AF4
:10376000D6D7020EE15C02E2E16AE552E16EE55273
:06377000E7CFD9FF1200B3
:0A377600B06A810EAF6EAC8AAC940D
:10378000B886AC98AB8E9E9A9D8A9F9A949C1200A4
:10379000B06A810EAF6EAC9AAC94B896AC88AB9E12
:1037A0009E9A9D9A9F9A1200D9CFE6FFE1CFD9FF4A
:1037B000040EE126DE6ADD6ADECF10F0DDCF11F007
:1037C000FD0EDBCF12F0FE0EDBCF13F011501318FD
:1037D000E8AE02D0133404D01250105C13501158CC
:1037E0001DE2020EDB6A030EDB6A020EDBCF10F075
:1037F000030EDBCF11F0D890115004E6EE0E105CF2
:10380000000E115806E2020EDB2A030EEEE3DB2A5D
:10381000ECD7DF2A010ED0E3DB2ACED7040EE15C21
:1038200002E2E16AE552E16EE552E7CFD9FF12000C
:10383000D9CFE6FFE1CFD9FF9EA8FED7FE0EDB5021
:10384000AD6E9E98E552E7CFD9FF1200D9CFE6FFC3
:10385000E1CFD9FFFD0EDBCFE9FFFE0EDBCFEAFFA4
:10386000EF5010E0FD0EDBCFE9FFFE0EDBCFEAFFED
:10387000EF50E66EDDDFE552FD0EDB2AFE0EEAE3D9
:10388000DB2AE8D7E552E7CFD9FF1200D9CFE6FF10
:10389000E1CFD9FFFD0EDBCFF6FFFE0EDBCFF7FF4A
:1038A0000800F55015E0FD0EDBCFF6FFFE0EDBCF76
:1038B000F7FF0800F550E66EBBDFE552FD0EDBCFEB
:1038C000F6FFDB2AFE0EDBCFF7FFE4E3DB2AE2D7CD
:1038D000E552E7CFD9FF1200D9CFE6FFE1CFD9FFFC
:1038E000050EE126010EF36EDB6E020EDB6A030E9F
:1038F000DB6A040EDB6ADF6ADFCF10F0116A10BEEC
:103900001168FB0EDBCF12F0FC0EDBCF13F0115071
:103910001318E8AE02D0133404D01250105C1350C8
:1039200011582DE2FD0EDBCF10F0FE0EDBCF11F0B3
:10393000126A136A11AE02D012681368D950010FCF
:10394000E96EDACFEAFF10C00BF011C00CF012C024
:103950000DF013C00EF0EECF06F0EECF07F0EECF75
:1039600008F0EFCF09F0D7EC27F005C0EDFF04C059
:10397000EDFF03C0EDFF02C0EFFFDF2ABDD7010E50
:10398000DBCF10F0020EDBCF11F0030EDBCF12F015
:10399000040EDBCF13F010C006F011C007F012C008
:1039A00008F013C009F0050EE15C02E2E16AE5529D
:1039B000E16EE552E7CFD9FF1200D9CFE6FFE1CFA4
:1039C000D9FF020EE126DF6AFB0EDBCF10F0FC0E02
:1039D000DBCF11F0FD0EDBCF12F0FE0EDBCF13F0CC
:1039E000105011101210131005E1300EE66E20DF9A
:1039F000E552F4D0D950FB0FE96EFF0EDA20EA6EE3
:103A0000D890030EEB50000A08E6000EEE5C000EA4
:103A1000EE58000EEE58000EEE5815E22D0EE66E32
:103A200007DFE552D950FB0FE96EFF0EDA20EA6E90
:103A3000000EEE6CEF1EEE22EF1EEE22EF1EEF22C6
:103A4000ED52ED52ED52DE520A0EDD6E010EDBCF6D
:103A500010F0000EE76E1018E8AE02D0103403D05C
:103A6000E750D880105401E3B9D0010EDB04146E86
:103A7000156A14BE156814C0E6FF15C0E6FF0A0EED
:103A8000E66EE66A29DFE552E552E552E55206C0E8
:103A900010F007C011F008C012F009C013F006C002
:103AA0000BF007C00CF008C00DF009C00EF0FB0EC3
:103AB000DBCF06F0FC0EDBCF07F0FD0EDBCF08F00E
:103AC000FE0EDBCF09F00FEC28F0065007100810AF
:103AD000091041E0010EDF6EDB04186E196A18BE92
:103AE000196818C0E6FF19C0E6FF0A0EE66EE66A1E
:103AF000F3DEE552E552E552E55206C014F007C088
:103B000015F008C016F009C017F006C00BF007C08A
:103B10000CF008C00DF009C00EF0FB0EDBCF06F074
:103B2000FC0EDBCF07F0FD0EDBCF08F0FE0EDBCF87
:103B300009F00FEC28F006C010F007C011F008C023
:103B400012F009C013F0300E1026000E11221222BE
:103B50001322105003D0DF5004E0300EE66E68DE12
:103B6000E552010EDB04146E156A14BE156814C00C
:103B7000E6FF15C0E6FF0A0EE66EE66AADDEE55228
:103B8000E552E552E55206C010F007C011F008C03A
:103B900012F009C013F0D950FB0FE96EFF0EDA20C6
:103BA000EA6E06C00BF007C00CF008C00DF009C0AB
:103BB0000EF0EECF06F0EECF07F0EECF08F0EFCF2D
:103BC00009F00FEC28F005C0EDFF04C0EDFF03C0C5
:103BD000EDFF02C0EFFF010EDB0638D7020EE15CFD
:103BE00002E2E16AE552E16EE552E7CFD9FF120049
:103BF000D9CFE6FFE1CFD9FFFD0EDBCF10F0FE0EEF
:103C0000DBCF11F0640E0D6E0E6A10C008F011C00B
:103C100009F0A1EC26F008C010F009C011F0126AFA
:103C2000136A11AE02D01268136810C0E6FF11C00B
:103C3000E6FF12C0E6FF13C0E6FFBFDEE552E55225
:103C4000E552E5522E0EE66EF3DDE552FD0EDBCFBA
:103C500010F0FE0EDBCF11F0640E0D6E0E6A10C078
:103C600008F011C009F0A1EC26F004C010F005C066
:103C700011F0126A136A11AE02D01268136810C0F4
:103C8000E6FF11C0E6FF12C0E6FF13C0E6FF95DEB7
:103C9000E552E552E552E552E552E7CFD9FF120071
:103CA000D9CFE6FFE1CFD9FFE652AE50DF6E7A0EF4
:103CB000E66E4B0EE66EE66A010EE66E4AEC1BF00F
:103CC000E552E552E552E552DFCF10F0116A126A73
:103CD000136A10C0E6FF11C0E6FF12C0E6FF13C072
:103CE000E6FFE66A010EE66E23EC1AF0146E060E8D
:0E3CF000E15E1450E552E552E7CFD9FF120015
:023CFE00D9CF1C
:103D0000E6FFE1CFD9FFD59EFD0EDBCF00FFFE0E13
:103D1000DBCF01FFD59C13681468156A00CF16F03D
:103D200001CF17F0186A1650135C106E1750145814
:103D3000116E18501558126E0C6A010E0D6E0E6A37
:103D400010C007F011C008F012C009F0C7EC26F04F
:103D50000350D66E13681468156A00CF16F001CFB1
:103D600017F0186A1650135C106E17501458116E25
:103D700018501558126E0C6A010E0D6E0E6A10C0A6
:103D800007F011C008F012C009F0C7EC26F007C018
:103D900010F008C011F009C012F00750D76ED59A84
:103DA000D586F28AF294F184D58EE552E7CFD9FF19
:103DB0001200D59E120013681468156A00CF16F021
:103DC00001CF17F0186A1650135C106E1750145874
:103DD000116E18501558126E0C6A010E0D6E0E6A97
:103DE00010C007F011C008F012C009F0C7EC26F0AF
:103DF0000350D66E13681468156A00CF16F001CF11
:103E000017F0186A1650135C106E17501458116E84
:103E100018501558126E0C6A010E0D6E0E6A10C005
:103E200007F011C008F012C009F0C7EC26F007C077
:103E300010F008C011F009C012F00750D76ED58EEF
:103E40001200D9CFE6FFE1CFD9FFCD90FD0EDBCF39
:103E500002FFFE0EDBCF03FF13681468156A02CF62
:103E600016F003CF17F0186A1650135C106E175037
:103E70001458116E18501558126E0C6A010E0D6E02
:103E80000E6A10C007F011C008F012C009F0C7ECAC
:103E900026F00750CF6E13681468156A02CF16F02B
:103EA00003CF17F0186A1650135C106E1750145891
:103EB000116E18501558126E0C6A010E0D6E0E6AB6
:103EC00010C007F011C008F012C009F0C7EC26F0CE
:103ED00003C010F004C011F005C012F00350CE6E04
:103EE0009D809E909F90CD8ECD8CCD98CD9ACD9675
:103EF000CD92CD80E552E7CFD9FF12001368146848
:103F0000156A02CF16F003CF17F0186A1650135C2B
:103F1000106E17501458116E18501558126E0C6A06
:103F2000010E0D6E0E6A10C007F011C008F012C02D
:103F300009F0C7EC26F00750CF6E13681468156AB5
:103F400002CF16F003CF17F0186A1650135C106EEC
:103F500017501458116E18501558126E0C6A010E35
:103F60000D6E0E6A10C007F011C008F012C009F003
:103F7000C7EC26F003C010F004C011F005C012F029
:103F80000350CE6ECD801200CD901200D9CFE6FF47
:103F9000E1CFD9FFCA94CC6AFE0EDB500F01046F4B
:103FA000056BCB6E9D829E929F92CA90CA92CA84E4
:103FB000E552E7CFD9FF120004CFCBFFCA8412002D
:103FC000CA941200D9CFE6FFE1CFD9FFB190FD0E20
:103FD000DBCF06FFFE0EDBCF07FF13681468156A00
:103FE00006CF16F007CF17F0186A1650135C106E44
:103FF00017501458116E18501558126E0C6A010E95
:104000000D6E0E6A10C007F011C008F012C009F062
:10401000C7EC26F00750B36E13681468156A06CF14
:1040200016F007CF17F0186A1650135C106E175071
:104030001458116E18501558126E0C6A010E0D6E40
:104040000E6A10C007F011C008F012C009F0C7ECEA
:1040500026F003C010F004C011F005C012F00350A8
:10406000B26EA082A192A292B18EB198B19AB19291
:10407000B180E552E7CFD9FF120013681468156AC2
:1040800006CF16F007CF17F0186A1650135C106EA3
:1040900017501458116E18501558126E0C6A010EF4
:1040A0000D6E0E6A10C007F011C008F012C009F0C2
:1040B000C7EC26F00350B26E13681468156A06CF79
:1040C00016F007CF17F0186A1650135C106E1750D1
:1040D0001458116E18501558126E0C6A010E0D6EA0
:1040E0000E6A10C007F011C008F012C009F0C7EC4A
:1040F00026F007C010F008C011F009C012F00750F8
:10410000B36EB1801200B19012000F01102B000E9F
:1041100011231851105D1951115904E3106B116BE3
:10412000010E086F12000F01122B000E13231A51FB
:10413000125D1B51135904E3126B136B010E096FCF
:1041400012000F01142B000E15231C51145D1D517C
:10415000155904E3146B156B010E0A6F12000F0161
:10416000162B000E17231E51165D1F51175904E31D
:10417000166B176B010E0B6F1200D9CFE6FFE1CF64
:10418000D9FFFD0EDBCF18FFFE0EDBCF19FF0F01AD
:10419000106B116B086BE552E7CFD9FF1200D9CF36
:1041A000E6FFE1CFD9FFFD0EDBCF1AFFFE0EDBCF1E
:1041B0001BFF050E0D6E0E6A1ACF08F01BCF09F01B
:1041C000A1EC26F008C01AFF09C01BFF0F01126BFB
:1041D000136B096BE552E7CFD9FF1200D9CFE6FF89
:1041E000E1CFD9FFFD0EDBCF1EFFFE0EDBCF1FFFA1
:1041F0000A0E0D6E0E6A1ECF08F01FCF09F0A1EC5B
:1042000026F008C01EFF09C01FFF0F01166B176BB9
:0A4210000B6BE552E7CFD9FF120057
:06421A000F0E946E826895
:104220001200CF0E9414946E82681200D9CFE6FF6C
:10423000E1CFD9FF050EE126040EDB6ADE6ADD6AF6
:10424000DECF10F0DDCF11F0D890115004E6040E4F
:10425000105C000E115801E395D0DECFE9FFDDCFF1
:10426000EAFFEA0EE926010EEA22EF1C826E020E38
:10427000DB6A030EDB6A020EDBCF10F0030EDBCF2E
:1042800011F0D890115004E6040E105C000E115885
:1042900073E2020EDBCFE9FF030EDBCFEAFFEE0E87
:1042A000E926010EEA22EF50821444E1DECF14F039
:1042B000DDCF15F0D89014361536D8901436153653
:1042C000020EDB501424E96E030EDB501520EA6E5B
:1042D000D890E936EA36CA0EE926010EEA22EECF78
:1042E00012F0EFCF13F0010E1226000E1322DECFD4
:1042F00010F0DDCF11F0D89010361136D89010366E
:104300001136020EDB501024E96E030EDB50112033
:10431000EA6ED890E936EA36CA0EE926010EEA229C
:1043200012C0EEFF13C0EDFF010EF36E040EF3CFCB
:10433000DBFF1BD0DECF10F0DDCF11F0D8901036B0
:104340001136D89010361136020EDB501024E96E6B
:10435000030EDB501120EA6ED890E936EA36CA0E19
:10436000E926010EEA22EE6AED6A020EDB2A030E4E
:1043700001E281D7DB2A7FD7DF2A010E01E260D775
:10438000DB2A5ED7040EDB0404E10101010EF26FAB
:1043900002D00101F26B050EE15C02E2E16AE55236
:1043A000E16EE552E7CFD9FF1200D9CFE6FFE1CFAA
:1043B000D9FF050EE126040EDB6ADE6ADD6ADECF78
:1043C00010F0DDCF11F0D890115004E6020E105C11
:1043D000000E115801E399D0DECFE9FFDDCFEAFFEF
:1043E000EA0EE926010EEA22EF1C8214826E0F0EFD
:1043F0008210826E020EDB6A030EDB6A020EDBCFD6
:1044000010F0030EDBCF11F0D890115004E6040E2B
:10441000105C000E115873E2020EDBCFE9FF030EB1
:10442000DBCFEAFFEE0EE926010EEA22EF508214FE
:1044300044E1DECF14F0DDCF15F0D89014361536F8
:10444000D89014361536020EDB501424E96E030E94
:10445000DB501520EA6ED890E936EA36CA0EE92616
:10446000010EEA22EECF12F0EFCF13F0010E12266A
:10447000000E1322DECF10F0DDCF11F0D8901036F1
:104480001136D89010361136020EDB501024E96E2A
:10449000030EDB501120EA6ED890E936EA36CA0ED8
:1044A000E926010EEA2212C0EEFF13C0EDFF010E55
:1044B000F36E040EF3CFDBFF1BD0DECF10F0DDCFA9
:1044C00011F0D89010361136D89010361136020EF1
:1044D000DB501024E96E030EDB501120EA6ED890F9
:1044E000E936EA36CA0EE926010EEA22EE6AED6ADC
:1044F000020EDB2A030E01E281D7DB2A7FD7DF2AF7
:10450000010E01E25CD7DB2A5AD7040EDB0404E17A
:104510000101010EF26F02D00101F26B050EE15CA8
:1045200002E2E16AE552E16EE552E7CFD9FF1200FF
:10453000D9CFE6FFE1CFD9FF040EE126DE6ADD6ABE
:10454000DECF10F0DDCF11F0FD0EDBCF12F0FE0E4E
:10455000DBCF13F011501318E8AE02D0133404D09F
:104560001250105C135011581DE2020EDB6A030E4C
:10457000DB6A020EDBCF10F0030EDBCF11F0D89018
:10458000115004E6EE0E105C000E115806E2020E09
:10459000DB2A030EEEE3DB2AECD7DF2A010ED0E3A1
:1045A000DB2ACED7040EE15C02E2E16AE552E16E5D
:1045B000E552E7CFD9FF1200D9CFE6FFE1CFD9FF0F
:1045C000040EE126DE6ADD6ADECF10F0DDCF11F0E9
:1045D000D890115004E6040E105C000E115875E2DC
:1045E000DECFE9FFDDCFEAFFEA0EE926010EEA227F
:1045F000EF1C826E020EDB6A030EDB6A020EDBCF5B
:1046000010F0030EDBCF11F0D890115004E6040E29
:10461000105C000E11584AE2DECF10F0DDCF11F031
:10462000D89010361136D89010361136020EDB5065
:104630001024E96E030EDB501120EA6ED890E936A3
:10464000EA36CA0EE926010EEA22EE6AED6A020E89
:10465000DBCFE9FF030EDBCFEAFFEE0EE926010E0A
:10466000EA22EF5082141CE1DECF10F0DDCF11F012
:10467000D89010361136D89010361136020EDB5015
:104680001024E96E030EDB501120EA6ED890E93653
:10469000EA36CA0EE926010EEA22010EEE6EED6A36
:1046A000020EDB2A030EAAE3DB2AA8D78250816E12
:1046B000E80EE66E030EE66E3BDFE552E552DF2ABA
:1046C000010E01E281D7DB2A7FD7040EE15C02E212
:0E46D000E16AE552E16EE552E7CFD9FF120034
:0246DE00D9CF32
:1046E000E6FFE1CFD9FF020EE126FE0EDB500F0BF5
:1046F000DF6EFE0EDB380F0B0A0D010EF3CFDBFF72
:10470000DB50DF24106E020EE15C02E2E16AE5524A
:10471000E16E1050E552E7CFD9FF1200D9CFE6FF86
:10472000E1CFD9FF020EE1260A0E106E0E6EFE0ECC
:10473000DBCF09F084EC28F00550DF6E0A0E106E16
:104740000E6EFE0EDBCF09F084EC28F00950100D40
:10475000010EF3CFDBFFDB50DF24106E020EE15CB5
:1047600002E2E16AE552E16E1050E552E7CFD9FF6F
:104770001200949694981200D9CFE6FFE1CFD9FFAA
:10478000E652DF6AFE0EDB50DF5C02E2DF2AFAD778
:10479000E552E552E7CFD9FF120082A8000C010CC8
:1047A0000001FC5102E08288828682988296010E86
:1047B000FC6F12008298828682880001FC6B1200D6
:1047C000D9CFE6FFE1CFD9FF020EE126DF6ADFCFC6
:1047D00010F0080EE76E1018E8AE02D0E73402D0F1
:1047E000E750105C0FE2FE0EDBBE02D0829801D0D3
:1047F000828882868296DB50020DFE0EF3CFDBFFAD
:10480000DF2AE5D794888286C8DFE76E010EE7CFFE
:10481000DBFF82969498DB50106E020EE15C02E2A0
:10482000E16AE552E16E1050E552E7CFD9FF120080
:10483000D9CFE6FFE1CFD9FF020EE126DF6A9488E7
:10484000010EDB6ADBCF10F0080EE76E1018E8AE41
:1048500002D0E73402D0E750105C0BE282869DDF85
:10486000106EDF50E8241010DF6E8296010EDB2AF6
:10487000E9D79498FE0EDB5002E0828801D082983E
:1048800082868296DF50106E020EE15C02E2E16ADF
:10489000E552E16E1050E552E7CFD9FF1200D9CFB3
:1048A000E6FFE1CFD9FF7CDFD00EE66E89DFE5526F
:1048B000FE0EDBCFE6FF84DFE552FD0EDBCFE6FF29
:1048C0002DDFE552E66E7CDFE55274DFE552E7CF7F
:1048D000D9FF1200D9CFE6FFE1CFD9FFE65260DF62
:1048E000D00EE66E6DDFE552FE0EDBCFE6FF68DF31
:1048F000E55256DFD10EE66E63DFE552010EE66E3D
:1049000097DFE552DF6EDFCFE6FFE9DEE552DF6ECF
:1049100051DFDF50E552E552E7CFD9FF1200D9CF82
:10492000E6FFE1CFD9FFFD0EDBCFE6FFFE0EDBCFCA
:10493000E6FFB5DFE552E552E552E7CFD9FF1200B9
:10494000D9CFE6FFE1CFD9FFFE0EDBCFE6FFC2DF16
:0A495000E552E552E7CFD9FF12004F
:06495A004348414E4745B1
:10496000204C4154452054494D45002020004348E7
:10497000414E47452054494D45003A003000303003
:104980000050415353574F52442057524F4E4720E7
:104990002000434C45415220434845434B20494E5B
:1049A000004E4558542049442020202000505245B4
:1049B0005353202320544F20454E54455220004F3E
:1049C00050454E494E4720444F4F52202020200052
:1049D0005620202020200054202020202000484461
:1049E0002020202020004C4F472020202020004E57
:1049F0004557205057204944200052454D4F5645B9
:104A000020434F4D504C45544500593A454E54456E
:104A100052004E3A4241434B0052454D4F564520BD
:104A200049442000342E2000332E2000322E200056
:104A3000312E200050415353574F52443A20004EDC
:104A40004557204944203A2000505720464F5220D5
:104A500049442000312E4348414E4745204D454DA5
:104A600020505700322E52454D4F5645204D454D52
:104A700042455200312E414444204D454D4245525D
:104A8000004348414E474520535543434553530047
:104A90004348414E47452041442050415353000074
:104AA000312E4348414E4745204C2E54494D450038
:104AB000322E4348414E47452054494D4500312E42
:104AC000434C45415220434845434B20494E003218
:104AD0002E435245415445204C4F4700312E4D4105
:104AE0004E4147452055534552004348414E4745A6
:104AF0002055534552205041535300322E434841D4
:104B00004E4745205041535300312E4F50454E20C3
:104B1000444F4F52002A0020005041535320464F2B
:104B2000522049442000496E76616C6964204944F2
:104B30002020202020200020202020202020202095
:104B40002020202000454E5445522049442020205A
:104B50002020202020002020202020202020202075
:104B6000202020202020005052455353202320464F
:0E4B70004F5220504153530046002020200099
:024B7E00F28EB5
:104B8000D08EF28C1200F19CF292F2881200D8CFF3
:104B9000E4FFE0CFE4FFE46EDACFE4FFE2CFDAFF38
:104BA000E9CFE4FFEACFE4FFF6CFE4FFF7CFE4FF7D
:104BB000F5CFE4FFF3CFE4FFF4CFE4FFFACFE4FF57
:104BC00000EE00F0100EE80403E3EECFE4FFFBD7A5
:104BD00000EE10F00A0EE80403E3EECFE4FFFBD78B
:104BE000E652F2A407D0D9EC1EF0F294DBEC1EF0F2
:104BF00085EC20F09EA007D0C4EC1FF09E907EECC8
:104C00001FF093EC20F0A1A207D083EC20F0A1923A
:104C10003DEC20F0AFEC20F0F2B2F2929EBA9E9AF8
:104C2000E55200EE19F00A0EE80403E3E5CFEDFFCC
:104C3000FBD700EE0FF0100EE80403E3E5CFEDFF25
:104C4000FBD7E5CFFAFFE5CFF4FFE5CFF3FFE5CFE4
:104C5000F5FFE5CFF7FFE5CFF6FFE5CFEAFFE5CFBC
:104C6000E9FFE5CFDAFFE550E5CFE0FFE5CFD8FF7C
:104C70001000DACFE4FFE2CFDAFFE9CFE4FFEACFBA
:104C8000E4FFF6CFE4FFF7CFE4FFF5CFE4FFF3CF87
:104C9000E4FFF4CFE4FFFACFE4FF00EE00F0100EE3
:104CA000E80403E3EECFE4FFFBD700EE10F00A0EBA
:104CB000E80403E3EECFE4FFFBD7E652F2A407D00B
:104CC000D9EC1EF0F294DBEC1EF085EC20F09EA0F7
:104CD00007D0C4EC1FF09E907EEC1FF093EC20F008
:104CE000A1A207D083EC20F0A1923DEC20F0AFEC24
:104CF00020F0F2B2F2929EBA9E9AE55200EE19F0BE
:104D00000A0EE80403E3E5CFEDFFFBD700EE0FF05A
:104D1000100EE80403E3E5CFEDFFFBD7E5CFFAFF84
:104D2000E5CFF4FFE5CFF3FFE5CFF5FFE5CFF7FFE4
:104D3000E5CFF6FFE5CFEAFFE5CFE9FFE5CFDAFF04
:024D4000110060
:0E4D4200006A0EAEAAEF26F00D6C0E1EE86A97
:104D50000E22001E09AEB2EF26F0086C091EE86AAA
:104D60000922001E50EC28F009BEC2EF26F000AE6A
:104D7000000C086C091EE86A0922046C051EE86A2A
:104D80000522000C00BEB9EF26F00188FF0C006A76
:104D90000EAED2EF26F00C6C0D1E0E1EE86A0D2230
:104DA0000E22001E09AEDCEF26F0076C081E091E5D
:104DB000E86A08220922001E33EC28F009BEEFEF52
:104DC00026F000AE000C076C081E091EE86A0822D7
:104DD0000922036C041E051E04220522000C00BEDD
:084DE000E3EF26F00188FF0C4F
:084DE8001E0EF66E000EF76EC0
:104DF000000EF86E01010900F550F86F0900F5503A
:104E0000F96F03E1F86701D03DD00900F550F36F69
:104E10000900F550F46F0900F550F56F090009001D
:104E2000F550E96E0900F550EA6E09000900090025
:104E3000F550F66F0900F550F76F09000900F6CF3D
:104E4000FAF1F7CFFBF1F8CFFCF1F3C1F6FFF4C1B3
:104E5000F7FFF5C1F8FF0101F65302E1F75307E050
:104E60000900F550EE6EF607F8E2F707F9D7FAC138
:104E7000F6FFFBC1F7FFFCC1F8FF0101F807000EC8
:064E8000F95BBFD7120030
:0A4E8600D9CFE6FFDACFE6FFFA0EFF
:104E9000E3CFD9FFFB0EE3CFDAFFFC0EE3CFE9FF50
:104EA000FD0EE3CFEAFFE9CFF3FFEACFF4FFE950CD
:104EB000D95CEA50DA580EE3F80EE35003E1F90E3C
:104EC000E35024E0F80EE30602E2F90EE306DECF3B
:104ED000EEFFF2D7F80EE350D926F90EE350DA22AE
:104EE000DD52F80EE350E926F90EE350EA22ED52C6
:104EF000F80EE35003E1F90EE35008E0F80EE30684
:104F000002E2F90EE306DDCFEDFFF2D7FF0EE3CFAD
:0E4F1000DAFFE552FF0EE3CFD9FFE5521200A3
:024F1E00010E82
:104F2000926E0E0EC16EC26A040EC06EC280120076
:104F3000D9CFE6FFE1CFD9FF020EE126DE6ADD6AB6
:104F4000C282C2B2FED7C450DE6EDD6ADECF12F07E
:104F5000DDCF13F0D89012361336D89012361336B0
:104F6000060EC3CFE7FF070B04E0E742E79EE80623
:104F7000FCE1E7501224106E000E132010C0DEFF7B
:104F8000DD6EDECF20FFDDCF21FFDECF10F0DDCFE5
:104F900011F010C0F3FF11C0F4FF020EE15C02E259
:0E4FA000E16AE552E16EE552E7CFD9FF12005B
:024FAE000650AB
:104FB0000B02F3CF02F0F4CF03F00C02F350032600
:104FC000000EF420046E06500D02F3500426000E6D
:104FD000F420056E06500E02F350052607500B0212
:104FE000F3500326F4500422000E052207500C0251
:104FF000F3500426F450052207500D02F350052605
:1050000008500B02F3500426F450052208500C02FD
:0E501000F350052609500B02F350052612003E
:02501E00056A21
:10502000046A036A026A200EE76ED89006360736D5
:105030000836093602360336043605360B50025C54
:105040000C5003580D5004580E50055809E30B50EE
:10505000025E0C50035A0D50045A0E50055A062A8F
:06506000E72EE4D7120068
:0A506600056A046A036A180EE76E7B
:10507000D8900736083609360336043605360C5004
:10508000035C0D5004580E50055807E30C50035EA6
:105090000D50045A0E50055A072AE72EEAD712007F
:1050A000056A046A100EE76ED89008360936043691
:1050B00005360D50045C0E50055805E30D50045E96
:0C50C0000E50055A082AE72EF0D7120007
:0450CC00800EF36EF1
:1050D00000EE00F00F0E01D81200EA6002D0EE6A76
:0C50E000FCD7F350E9601200EE6AFCD728
:0450EC001EEE00F0C4
:1050F0002EEE00F0F86A019CF4EC26F003EC00F0D0
:0851000034EC00F0FBD71200B3
:08510800056A080EE76ED8905D
:10511000093605360E50055C02E3056E092AE72EB6
:04512000F7D71200AB
:0C5124000000000000000000000000007F
:10513000000000000000000000000000010001006D
:045140000100010069
:0C51440001020408102040800000000060
:10515000000000000000000000000000000000004F
:10516000000000010102034104050642070809434B
:105170002A0045440102030405060207080907083E
:105180000303030303030408060802010541424325
:10519000447800000102030405060201000207082A
:1051A00009070802020003030303030302030004C8
:1051B00008060802010200000000000000000000D4
:1051C00000000000000000000000000000000000DF
:1051D00000000000000000000000000000000000CF
:1051E00000000000000000000000000000000000BF
:1051F00000000000000400040003090A0B17191A3C
:0E52000008000D0E0F0A00000000031601004A
:02520E0000009E
:1052100000000000000010101010101010101818DE
:105220001818181818181C1C1C1C1C1C1C1C1E1ED2
:105230001E1E1E1E1E1E1F1F1F1F1F1F1F1F0000C2
:10524000000000000000000000000000000000005E
:10525000000000000000000000000000000000004E
:0F5260000000000000000000000000000000003F
:01526F00003E
:105270000000D000222222072509100001000000B2
:0B528000000000000000000000000023
:05528B0000000000001E
:10529000000000000000000000000000000000000E
:1052A000000000000000000000000010204080010D
:0452B00002040800EC
:020000040030CA
:0100010002FC
:0100020003FA
:010003001EDE
:010005008179
:010006008178
:010008000FE8
:01000900C036
:01000A000FE6
:01000B00E014
:01000C000FE4
:01000D0040B2
:00000001FF
