:020000040000FA
:06000000BFEF28F0120022
:020006001200E6
:0600080082EF26F0120059
:02000E000000F0
:020010000000EE
:0600180010EF26F01200BB
:02001E000800D8
:10002000035300008000000029000000F752000088
:10003000100F00000C000000DB520000C90000009F
:100040001C0000000E000000270F0000040000004C
:100050007A52000094010000610000006A52000022
:10006000000F000010000000D65100000001000049
:1000700094000000B6510000A9000000200000001C
:10008000D9CFE6FFE1CFD9FF020EE126DE6ADD6AB5
:10009000DE6ADD6ADECF10F0DDCF11F001017A51AA
:1000A000105C7B5111582BE2DECFE9FFDDCFEAFF78
:1000B000090EEA02F3CFEAFFE902F3CFE9FFF450B9
:1000C000EA261A0EE926010EEA22EECF10F0EFCF53
:1000D00011F0FD0EDB5010180DE1FE0EDB50111873
:1000E00009E1DECF10F0DDCF11F010C0F3FF11C039
:1000F000F4FF07D0DF2A010ECDE3DB2ACBD7F3686C
:10010000F468020EE15C02E2E16AE552E16EE5525A
:10011000E7CFD9FF1200D9CFE6FFE1CFD9FF020E1A
:10012000E126DF6A060EDF5C2AE278C1E9FF79C1C9
:10013000EAFF090EEA02F3CFEAFFE902F3CFE9FF93
:10014000F450EA261A0EE926010EEA22020EE926EA
:10015000000EEA22DF50E924E96E000EEA20EA6E82
:10016000EFCF10F0DF50EA6A1D0FE96E0F0EEA22A2
:10017000EF50105C02E0000E03D0DF2AD3D7010E4F
:10018000106E020EE15C02E2E16AE552E16E10508F
:10019000E552E7CFD9FF1200D9CFE6FFE1CFD9FF73
:1001A000F90EDBCF10F0FA0EDBCF11F00A0E105C67
:1001B000000E11582CE2F80EDB50030828E10D0E5A
:1001C000E66E4C0EE66EFB0EDBCFE6FFFD0EDBCFE0
:1001D000E6FFC7EC15F0E552E552E552E552F90E9F
:1001E000DBCF10F0FA0EDBCF11F0126A136A10C0E9
:1001F000E6FF11C0E6FF12C0E6FF13C0E6FFFB0EEC
:10020000DBCF14F0FC0EDBCF15F0020E45D0F90E5B
:10021000DBCF10F0FA0EDBCF11F00A0E105C000EEF
:10022000115804E2F80EDB5002080FE0F90EDBCFA4
:1002300010F0FA0EDBCF11F0640E105C000E1158B6
:1002400037E2F80EDB50030833E10B0EE66E4C0E7E
:10025000E66EFB0EDBCFE6FFFD0EDBCFE6FFC7EC65
:1002600015F0E552E552E552E552F90EDBCF10F0FC
:10027000FA0EDBCF11F0126A136A10C0E6FF11C04C
:10028000E6FF12C0E6FF13C0E6FFFB0EDBCF14F063
:10029000FC0EDBCF15F0010E1424E66EFD0EDBCF55
:1002A000E6FFA0EC14F0166E060EE15E165028D0A4
:1002B0000A0EE66E4C0EE66EFD0EDBCFE6FFF2ECAC
:1002C00015F0E552E552E552F90EDBCF10F0FA0ECB
:1002D000DBCF11F0126A136A10C0E6FF11C0E6FF0F
:1002E00012C0E6FF13C0E6FFFB0EDBCFE6FFFD0EFC
:1002F000DBCFE6FFA0EC14F0146E060EE15E1450A6
:10030000E552E7CFD9FF120052EC13F001017F6BE9
:10031000806B906B896B8E6B766B776B1200D9CF8D
:10032000E6FFE1CFD9FF030EE126DE6ADD6A000EAB
:100330000101056F066B076F086B036F046BDE6AC4
:10034000DD6ADECF10F0DDCF11F07A51105C7B5109
:1003500011582FE2DECFE9FFDDCFEAFF090EEA02F6
:10036000F3CFEAFFE902F3CFE9FFF450EA261A0ED1
:10037000E926010EEA22080EE926000EEA22020E04
:10038000EFCFDBFFDB50020A0CE0030A06E0010AB4
:100390000BE1032B000E042307D0072B000E0823CC
:1003A00003D0052B000E0623DF2A010ECAE3DB2A49
:1003B000C8D7030EE15C02E2E16AE552E16EE55264
:1003C000E7CFD9FF1200D9CFE6FFE1CFD9FF020E68
:1003D000E126DE6ADD6ADE6ADD6ADECF10F0DDCF9F
:1003E00011F001017A51105C7B5111581CE2DECFF3
:1003F000E9FFDDCFEAFF090EEA02F3CFEAFFE902E7
:10040000F3CFE9FFF450EA261A0EE926010EEA229C
:10041000080EE926000EEA22020EEF6EDF2A010E18
:10042000DCE3DB2ADAD7020EE15C02E2E16AE552A4
:10043000E16EE552E7CFD9FF1200E66AECEC22F05C
:10044000E552010EE66E14EC23F0E5521200E66A66
:1004500014EC23F0E552010EE66EECEC22F0E552CE
:100460001200E66A14EC23F0E552010EE66E14EC7D
:1004700023F0E5521200D9CFE6FFE1CFD9FFE652D3
:10048000DF6ADF500F081AE3EA6ADF34FE0BEA3650
:10049000E96E800EE926000EEA22010EEE180CE14C
:1004A000ED500AE1DF50EA6A0A0FE96E010EEA2216
:1004B000EFCF1CFF010E03D0DF2AE3D7000EE55279
:1004C000E552E7CFD9FF12000001010E9C1903E1AC
:1004D0009D5101E1010C000C0001010E981903E18E
:1004E000995101E1010C000CD9CFE6FFE1CFD9FF12
:1004F000020EE12601017E51040A02E1C2EF0EF074
:10050000130A02E1A2EF0EF00F0A02E173EF0EF000
:100510001B0A02E1EEEF0DF0190A02E1CBEF0DF03C
:10052000030A02E1ACEF0DF0120A02E115EF0DF043
:100530001F0A02E1D5EF0CF0070A02E148EF0CF0C8
:100540001C0A02E1CFEF0AF01D0A02E162EF0AF095
:10055000030A02E1E9EF09F01F0A02E16FEF08F078
:100560001E0A02E19EEF07F01D0A02E119EF07F0F3
:10057000070A01E181D3060A01E136D3050A01E148
:10058000CBD2010A01E131D21E0A01E1C8D1030A2E
:1005900001E185D1170A01E170D1030A01E1E8D038
:1005A000060A01E1CCD0010A01E1AED0030A2EE037
:1005B000050A02E0D8EF0EF0F90EE66E4B0EE66E7D
:1005C000E66AE66AC7EC15F0E552E552E552E552F7
:1005D000E80EE66E4B0EE66EE66A010EE66EC7ECBE
:1005E00015F0E552E552E552E55268EC16F00101CE
:1005F000010E096F69DF000902E1D8EF0EF084DE19
:100600000101746B756B050ECCEF0AF07F2B000EA9
:100610008023D70EE66E4B0EE66EE66AE66AC7ECFE
:1006200015F0E552E552E552E55225DF000933E0C9
:10063000410E0F011C5D14E101017751000828E211
:100640000A0E0D6E0E6A74C108F075C109F099ECBE
:1006500028F008C074F109C075F10101770718D0BE
:100660000A0E1C5D15E274C110F075C111F00A0E7E
:100670001102F3CF11F01002F3CF10F0F450112655
:100680001C510101F324746F000E1120756F772B3C
:1006900001017F6B806B77C1E6FF74C1E6FF75C116
:1006A000E6FF000EE66EE66A010EE66EE66A74DDAF
:1006B000106E070EE15E1050C90EE66E4B0EE66E30
:1006C000030EE66E010EE66EC7EC15F0E552E5523C
:1006D000E552E552030E0101775D03E2F5DE000904
:1006E00004E012DE0101060E7E6FF6DE000902E074
:1006F00001017E6B01012C0E7F5D010E805902E22B
:10070000D8EF0EF0A0EF0EF07F6B806B74C1E6FFA8
:1007100075C1E6FFB5DCE552E552F3CF78F1F4CFD1
:1007200079F10101F31C01E1791D06E0010E7E6FF4
:1007300052EC13F0D8EF0EF0070ECCEF0AF07F2B3F
:10074000000E8023B80EE66E4B0EE66EE66AE66A91
:10075000C7EC15F0E552E552E552E5520101280ECD
:100760007F5D000E805902E2D8EF0EF0A0EF0EF090
:10077000AB0EE66E4B0EE66EE66AE66AC7EC15F067
:10078000E552E552E552E55278C1E9FF79C1EAFF49
:10079000090EEA02F3CFEAFFE902F3CFE9FFF450D2
:1007A000EA261A0EE926010EEA22EECF10F0EFCF6C
:1007B00011F0126A136A10C0E6FF11C0E6FF12C002
:1007C000E6FF13C0E6FF0D0EE66EE66AA0EC14F03D
:1007D000146E060EE15E145001017F2B000E802383
:1007E0004ADE000936E0410E0F011C5D14E10101F3
:1007F000765100082BE27607A90EE66E4B0EE66EE8
:1008000076C1E6FF010EE66EC7EC15F0E552E55243
:10081000E552E5521BD00A0E1C5D18E2A70EE66EEB
:100820004B0EE66E76C1E6FF010EE66EC7EC15F0E4
:10083000E552E552E552E55201017651EA6A1D0F93
:10084000E96E0F0EEA221CCFEFFF762B01017F6BC2
:10085000806B060E0101765D02E3020E7E6F2C0EA8
:100860007F5D010E805901E37E6B36DE000902E1F7
:10087000D8EF0EF00101A0EF0EF07F6B806B766B6E
:100880004ADC000908E001017851791101E1CFD279
:10089000150ECCEF0AF00101040ECCEF0AF07F2B0D
:1008A000000E80239B0EE66E4B0EE66EE66AF2ECBF
:1008B00015F0E552E552E5528D0EE66E4B0EE66EF2
:1008C000010EE66EF2EC15F0E552E552E55204DE5B
:1008D000000902E001017E6B0001010E801905E1B3
:1008E000815103E192C17EF10FDD0001010E8219F9
:1008F00005E1835103E193C17EF106DDBCDD000912
:1009000003E001017F6B806B01012C0ED8807F55C5
:10091000010E805502E3D8EF0EF0A0EF0EF07F2B12
:10092000000E80237C0EE66E4B0EE66EE66AF2EC5D
:1009300015F0E552E552E5529EDD00093AE0410E20
:100940000F011C5D14E10101765100082FE27607CA
:10095000A90EE66E4B0EE66E76C1E6FF010EE66E60
:10096000C7EC15F0E552E552E552E5521FD00A0EEC
:100970001C5D1CE2060E0101765D18E2A70EE66E14
:100980004B0EE66E76C1E6FF010EE66EC7EC15F083
:10099000E552E552E552E55201017651EA6A1D0F32
:1009A000E96E0F0EEA221CCFEFFF762B01017F6B61
:1009B000806B8ADD000907E0060E0101765D03E326
:1009C0000C0E7E6FA1DC88DD000904E00101150E2C
:1009D0007E6F9ADC01012C0ED8807F55010E805568
:1009E00002E3D8EF0EF0A0EF0EF07F2B000E802375
:1009F0008951030A30E0010A20E0030A10E0010AED
:100A00003FE19B0EE66E4B0EE66EE66AF2EC15F0E9
:100A1000E552E552E5528D0EE66E4B0E29D06E0E74
:100A2000E66E4B0EE66EE66AF2EC15F0E552E55224
:100A3000E552610EE66E4B0E1BD0500EE66E4B0E6D
:100A4000E66EE66AF2EC15F0E552E552E552420E2A
:100A5000E66E4B0E0DD0320EE66E4B0EE66EE66A7B
:100A6000F2EC15F0E552E552E5520A0EE66E4C0E38
:100A7000E66E010EE66EF2EC15F0E552E552E55237
:100A800023DD000906E001018929030B896F7F6BD3
:100A9000806B22DD000902E001017E6B0001010E86
:100AA000801910E181510EE101018951E96EEA6A74
:100AB000D890E936EA36810EE926010EEA22EFCF18
:100AC0007EF122DC0001010E821915E1835113E150
:100AD00001018951E96EEA6AD890E936EA36810E59
:100AE000E926010EEA22010EE926000EEA22EFCFE6
:100AF0007EF184EC01F0BFDC000903E001017F6BB3
:100B0000806B01012C0ED8807F55010E805502E3C9
:100B1000D8EF0EF0A0EF0EF07F2B000E8023230EF7
:100B2000E66E4B0EE66EE66AF2EC15F0E552E55223
:100B3000E552A1DC00093AE0410E0F011C5D14E111
:100B40000101765100082FE27607A90EE66E4B0EE2
:100B5000E66E76C1E6FF010EE66EC7EC15F0E552D3
:100B6000E552E552E5521FD00A0E1C5D1CE2060E4E
:100B70000101765D18E2A70EE66E4B0EE66E76C1B9
:100B8000E6FF010EE66EC7EC15F0E552E552E552C0
:100B9000E55201017651EA6A1D0FE96E0F0EEA2255
:100BA0001CCFEFFF762B01017F6B806B8DDC000982
:100BB00008E0060E0101765D04E30C0E7E6F84EC06
:100BC00001F08ADC000905E00101080E7E6F84EC6B
:100BD00001F001012C0ED8807F55010E805502E3F3
:100BE000D8EF0EF0A0EF0EF07F2B000E8023140E36
:100BF000E66E4B0EE66EE66AF2EC15F0E552E55253
:100C0000E5520101010E7F192CE180512AE1060E07
:100C1000E66EE66A1D0EE66E0F0EE66E78C1E9FF1F
:100C200079C1EAFF090EEA02F3CFEAFFE902F3CF46
:100C3000E9FFF450EA261A0EE926010EEA22020E16
:100C4000E926000EEA22E9CF10F0EACF11F0E9CF51
:100C5000E6FFEACFE6FF8CEC27F0126E060EE15EAF
:100C600012500101280ED8807F55000E805502E3F6
:100C7000D8EF0EF0A0EF0EF07F2B000E80238E51E8
:100C8000010A10E0010A23E1070EE66E4B0EE66E44
:100C9000E66AF2EC15F0E552E552E552F70EE66E23
:100CA0004A0E0DD0E70EE66E4A0EE66EE66AF2ECEC
:100CB00015F0E552E552E552A90EE66E4B0EE66ED2
:100CC000010EE66EF2EC15F0E552E552E55264ECE9
:100CD00002F0000906E001018E29010B8E6F7F6B87
:100CE000806B6CEC02F0000905E00101080E7E6FDC
:100CF00084EC01F00001010E801944E1815142E1D0
:100D000001018E51E96EEA6AD890E936EA368A0E18
:100D1000E926010EEA22EFCF7EF184EC01F07AC1E0
:100D200012F07BC113F01206000E135A0001136A71
:100D3000030E12161250131010E17AC110F07BC18D
:100D400011F01006000E115A020E0F0B19E0D89088
:100D500011321032E806FBE113D07AC110F07BC1EA
:100D600011F01006000E115A020E0F0B05E0D8907C
:100D700011321032E806FBE1010E1026000E11229E
:100D800010C08FF10001010E821948E1835146E144
:100D900001018E51E96EEA6AD890E936EA368A0E88
:100DA000E926010EEA22010EE926000EEA22EFCF23
:100DB0007EF184EC01F07AC112F07BC113F01206CF
:100DC000000E135A0001136A030E1216125013106C
:100DD00010E17AC110F07BC111F01006000E115A1B
:100DE000020E0F0B19E0D89011321032E806FBE129
:100DF00013D07AC110F07BC111F01006000E115A09
:100E0000020E0F0B05E0D89011321032E806FBE11C
:100E1000010E1026000E112210C08FF101012C0EC0
:100E2000D8807F55010E805502E3D8EF0EF0080EF2
:100E3000B3D37F2B000E8023DC0EE66E4A0EE66EE7
:100E4000E66AE66AC7EC15F0E552E552E552E5526E
:100E50007CC110F07DC111F0126A136A7CC1E6FFFB
:100E60007DC1E6FF12C0E6FF13C0E6FF0A0EE66E84
:100E7000E66AA0EC14F0146E060EE15E14503BEC32
:100E800002F000093AE0410E0F011C5D14E101017E
:100E9000765100082FE27607A90EE66E4B0EE66E3D
:100EA00076C1E6FF010EE66EC7EC15F0E552E5529D
:100EB000E552E5521FD00A0E1C5D1CE2060E010130
:100EC000765D18E2A70EE66E4B0EE66E76C1E6FF83
:100ED000010EE66EC7EC15F0E552E552E552E5521B
:100EE00001017651EA6A1D0FE96E0F0EEA221CCF4E
:100EF000EFFF762B01017F6B806B64EC02F0000941
:100F000008E0060E0101765D04E3100E7E6F84ECAE
:100F100001F06CEC02F0000905E001010A0E7E6FA1
:100F200084EC01F001012C0ED8807F55010E805514
:100F300002E3D8EF0EF0080EBEEF0EF07F2B000E8E
:100F40008023D20EE66E4A0EE66EE66AE66AC7ECCB
:100F500015F0E552E552E552E552C70EE66E4A0E2F
:100F6000E66EE66A010EE66EC7EC15F0E552E55254
:100F7000E552E5520101010E7F1901E08BD080514D
:100F800001E088D0DE6ADD6A7AC1E9FF7BC1EAFF51
:100F9000090EEA02F3CFEAFFE902F3CFE9FFF450CA
:100FA000EA261A0EE926010EEA227CC1EEFF7DC177
:100FB000EDFFDE6ADD6ADECF10F0DDCF11F0D890F4
:100FC000115004E6060E105C000E115846E2DECF0A
:100FD000E9FFDDCFEAFF1D0EE9260F0EEA22EF50F2
:100FE000E66E7AC1E9FF7BC1EAFF090EEA02F3CFA0
:100FF000EAFFE902F3CFE9FFF450EA261A0EE926E8
:10100000010EEA22020EE926000EEA22DE50E92451
:10101000E96EDD50EA20EA6EE552E750EF6EDECF72
:10102000E9FFDDCFEAFF1D0EE9260F0EEA22EF50A1
:10103000300FE66EDECF10F0DDCF11F00A0E102477
:10104000E66E010EE66E75EC14F0E552E552E552DF
:10105000DF2A010EB0E3DB2AAED77AC1E9FF7BC1FC
:10106000EAFF090EEA02F3CFEAFFE902F3CFE9FF54
:10107000F450EA261A0EE926010EEA22080EE926A5
:10108000000EEA22020EEF6E01017C2B000E7D2382
:101090007A2B7B237CC110F07DC111F01006000E6D
:1010A000115A126A136A10C0E6FF11C0E6FF12C09F
:1010B000E6FF13C0E6FF090EE66EE66AA0EC14F048
:1010C000146E060EE15E14500101280ED8807F5583
:1010D000000E805502E3D8EF0EF013EF0DF07F2BDA
:1010E000000E8023040E9003F328106E7A51105CDA
:1010F000000E7B5530E2C30EE66E4A0EE66EE66ADF
:10110000E66AC7EC15F0E552E552E552E552040EE9
:1011100001019003F328090DF3CFE9FFF4CFEAFFB3
:101120001A0EE926010EEA22EECF10F0EFCF11F0F1
:10113000126A136A10C0E6FF11C0E6FF12C0E6FF94
:1011400013C0E6FF030EE66EE66AA0EC14F0146E20
:10115000060EE15E1450040E01019003F350020FDD
:10116000106E7A51105C000E7B5532E2BF0EE66EB7
:101170004A0EE66E080EE66EE66AC7EC15F0E5521A
:10118000E552E552E552040E01019003F350020FBF
:10119000090DF3CFE9FFF4CFEAFF1A0EE926010E9D
:1011A000EA22EECF10F0EFCF11F0126A136A10C0EE
:1011B000E6FF11C0E6FF12C0E6FF13C0E6FF0B0E0C
:1011C000E66EE66AA0EC14F0146E060EE15E1450B2
:1011D000040E01019003F350030F106E7A51105C5E
:1011E000000E7B5533E2BB0EE66E4A0EE66EE66AF3
:1011F000010EE66EC7EC15F0E552E552E552E552F8
:10120000040E01019003F350030F090DF3CFE9FF22
:10121000F4CFEAFF1A0EE926010EEA22EECF10F013
:10122000EFCF11F0126A136A10C0E6FF11C0E6FF9B
:1012300012C0E6FF13C0E6FF030EE66E010EE66E77
:10124000A0EC14F0146E060EE15E1450040E0101C1
:101250009003F350040F106E7A51105C000E7B5512
:1012600034E2B70EE66E4A0EE66E080EE66E010E2A
:10127000E66EC7EC15F0E552E552E552E552040E74
:1012800001019003F350040F090DF3CFE9FFF4CFF0
:10129000EAFF1A0EE926010EEA22EECF10F0EFCF98
:1012A00011F0126A136A10C0E6FF11C0E6FF12C007
:1012B000E6FF13C0E6FF0B0EE66E010EE66EA0EC35
:1012C00014F0146E060EE15E145064EC02F0000996
:1012D0000FE001019029106E8FC10EF0096ECDEC68
:1012E00028F005C090F152EC13F001017F6B806B88
:1012F0006CEC02F0000905E001010A0E7E6F84EC3F
:1013000001F03BEC02F000095AE00F011C050EE170
:10131000040E01019003F328106E7A51105C000E48
:101320007B5504E2040E9003F3283ED0020E0F0119
:101330001C5D10E1040E01019003F350020F106ECA
:101340007A51105C000E7B5505E2040E9003F350B9
:10135000020F2AD0030E0F011C5D10E1040E0101E3
:101360009003F350030F106E7A51105C000E7B5502
:1013700005E2040E9003F350030F16D0040E0F0184
:101380001C5D10E1040E01019003F350040F106E78
:101390007A51105C000E7B5505E2040E9003F35069
:1013A000040F02D001010F0E916F0F0E915D04E04A
:1013B000110E7E6F84EC01F001017F6B806B0101E7
:1013C0002C0ED8807F55010E805502E3D8EF0EF029
:1013D0002AD37F2B000E8023AC0EE66E4A0EE66EFB
:1013E000E66AE66AC7EC15F0E552E552E552E552C9
:1013F00001019151090DF3CFE9FFF4CFEAFF1A0E75
:10140000E926010EEA22EECF10F0EFCF11F0126ABA
:10141000136A10C0E6FF11C0E6FF12C0E6FF13C05A
:10142000E6FF0A0EE66EE66AA0EC14F0146E060EF5
:10143000E15E14503F0EE66E0F0EE66EE66A75EC46
:1014400014F0E552E552E552A50EE66E4A0EE66E40
:10145000E66A010EE66EC7EC15F0E552E552E5527C
:10146000E5529D0EE66E4A0EE66E080EE66E010E21
:10147000E66EC7EC15F0E552E552E552E55264EC34
:1014800002F0000905E084EC01F00101120E7E6F0C
:101490006CEC02F0000905E084EC01F001010E0E95
:1014A0007E6F3BEC02F0000903E001017F6B806B73
:1014B00001012C0ED8807F55010E805502E3D8EF34
:1014C0000EF066D07F2B000E80238D0EE66E4A0E46
:1014D000E66EE66AE66AC7EC15F0E552E552E552BB
:1014E000E5520101010E7F194BE1805149E1915113
:1014F000126E136A12507A5D106E13507B59116E82
:101500001006000E115A090E1102F3CF11F010024D
:10151000F3CF10F0F4501126F3CFE6FF11C0E6FF31
:101520009151090DF3CF14F0F4CF15F01A0E1426D3
:10153000010E1522090E1426000E152214C0E6FF16
:1015400015C0E6FF9151090DF3CF16F0F4CF17F057
:101550001A0E1626010E172216C0E6FF17C0E6FF68
:101560008CEC27F0186E060EE15E18500101000E9B
:10157000D8807A55000E7B5503E27A07000E7B5B1C
:10158000280ED8807F55000E805502E3D8EF0EF06C
:1015900084EC01F001010A0E7E6FD8EF0EF07F2B74
:1015A000000E8023040E9003F328106E7A51105C15
:1015B000000E7B5530E2C30EE66E4A0EE66EE66A1A
:1015C000E66AC7EC15F0E552E552E552E552040E25
:1015D00001019003F328090DF3CFE9FFF4CFEAFFEF
:1015E0001A0EE926010EEA22EECF10F0EFCF11F02D
:1015F000126A136A10C0E6FF11C0E6FF12C0E6FFD0
:1016000013C0E6FF030EE66EE66AA0EC14F0146E5B
:10161000060EE15E1450040E01019003F350020F18
:10162000106E7A51105C000E7B5532E2BF0EE66EF2
:101630004A0EE66E080EE66EE66AC7EC15F0E55255
:10164000E552E552E552040E01019003F350020FFA
:10165000090DF3CFE9FFF4CFEAFF1A0EE926010ED8
:10166000EA22EECF10F0EFCF11F0126A136A10C029
:10167000E6FF11C0E6FF12C0E6FF13C0E6FF0B0E47
:10168000E66EE66AA0EC14F0146E060EE15E1450ED
:10169000040E01019003F350030F106E7A51105C99
:1016A000000E7B5533E2BB0EE66E4A0EE66EE66A2E
:1016B000010EE66EC7EC15F0E552E552E552E55233
:1016C000040E01019003F350030F090DF3CFE9FF5E
:1016D000F4CFEAFF1A0EE926010EEA22EECF10F04F
:1016E000EFCF11F0126A136A10C0E6FF11C0E6FFD7
:1016F00012C0E6FF13C0E6FF030EE66E010EE66EB3
:10170000A0EC14F0146E060EE15E1450040E0101FC
:101710009003F350040F106E7A51105C000E7B554D
:1017200034E2B70EE66E4A0EE66E080EE66E010E65
:10173000E66EC7EC15F0E552E552E552E552040EAF
:1017400001019003F350040F090DF3CFE9FFF4CF2B
:10175000EAFF1A0EE926010EEA22EECF10F0EFCFD3
:1017600011F0126A136A10C0E6FF11C0E6FF12C042
:10177000E6FF13C0E6FF0B0EE66E010EE66EA0EC70
:1017800014F0146E060EE15E145064EC02F00009D1
:101790000FE001019029106E8FC10EF0096ECDECA3
:1017A00028F005C090F152EC13F001017F6B806BC3
:1017B0006CEC02F0000905E001010A0E7E6F84EC7A
:1017C00001F03BEC02F000095AE00F011C050EE1AC
:1017D000040E01019003F328106E7A51105C000E84
:1017E0007B5504E2040E9003F3283ED0020E0F0155
:1017F0001C5D10E1040E01019003F350020F106E06
:101800007A51105C000E7B5505E2040E9003F350F4
:10181000020F2AD0030E0F011C5D10E1040E01011E
:101820009003F350030F106E7A51105C000E7B553D
:1018300005E2040E9003F350030F16D0040E0F01BF
:101840001C5D10E1040E01019003F350040F106EB3
:101850007A51105C000E7B5505E2040E9003F350A4
:10186000040F02D001010F0E916F0F0E915D04E085
:10187000130E7E6F84EC01F001017F6B806B010120
:101880002C0ED8807F55010E805501E391D2CBD02C
:101890007F2B000E8023820EE66E4A0EE66EE66A0D
:1018A000E66AC7EC15F0E552E552E552E552010152
:1018B0009151090DF3CFE9FFF4CFEAFF1A0EE926A3
:1018C000010EEA22EECF10F0EFCF11F0126A136A88
:1018D00010C0E6FF11C0E6FF12C0E6FF13C0E6FF2E
:1018E0000B0EE66EE66AA0EC14F0146E060EE15ED6
:1018F00014503BEC02F000093AE0410E0F011C5D70
:1019000014E10101765100082FE27607A90EE66E78
:101910004B0EE66E76C1E6FF010EE66EC7EC15F0E3
:10192000E552E552E552E5521FD00A0E1C5D1CE25D
:10193000060E0101765D18E2A70EE66E4B0EE66E0E
:1019400076C1E6FF010EE66EC7EC15F0E552E552F2
:10195000E552E55201017651EA6A1D0FE96E0F0E5C
:10196000EA221CCFEFFF762B01017F6B806B64ECCA
:1019700002F0000908E0060E0101765D04E3140E92
:101980007E6F84EC01F06CEC02F0000905E00101CF
:101990000F0E7E6F84EC01F001012C0ED8807F5574
:1019A000010E805501E304D23ED07F2B000E802330
:1019B000140EE66E4B0EE66EE66AF2EC15F0E5529A
:1019C000E552E5520101010E7F1925E1805123E125
:1019D000060EE66EE66A1D0EE66E0F0EE66E91517D
:1019E000090DF3CFE9FFF4CFEAFF1A0EE926010E45
:1019F000EA22020EE926000EEA22E9CF10F0EACF31
:101A000011F0E9CFE6FFEACFE6FF8CEC27F0126E8B
:101A1000060EE15E12500101280ED8807F55000E9F
:101A2000805501E3C5D10A0EA9D17F2B000E80237A
:101A3000010E7F1904E1805102E18FEC01F0790E73
:101A4000E66E4A0EE66EE66AE66AC7EC15F0E55207
:101A5000E552E552E552710EE66E4A0EE66E080E4C
:101A6000E66EE66AC7EC15F0E552E552E552E5523E
:101A700003C110F004C111F0126A136A03C1E6FF3A
:101A800004C1E6FF12C0E6FF13C0E6FF0C0EE66ECF
:101A9000E66AA0EC14F0146E060EE15E14506A0EB5
:101AA000E66E4A0EE66EE66A010EE66EC7EC15F0CB
:101AB000E552E552E552E55207C110F008C111F0B8
:101AC000126A136A07C1E6FF08C1E6FF12C0E6FF0B
:101AD00013C0E6FF030EE66E010EE66EA0EC14F0F6
:101AE000146E060EE15E1450630EE66E4A0EE66E4C
:101AF000080EE66E010EE66EC7EC15F0E552E552F3
:101B0000E552E55205C110F006C111F0126A136AE0
:101B100005C1E6FF06C1E6FF12C0E6FF13C0E6FFFF
:101B20000C0EE66E010EE66EA0EC14F0146E060EBE
:101B3000E15E14506CEC02F0000905E00101080EB2
:101B40007E6F84EC01F001012C0ED8807F55010ED0
:101B5000805501E32DD1F4D07F2B000E80231EECA5
:101B600018F03BEC02F0000903E001017F6B806B91
:101B70006CEC02F0000906E00101080E7E6F0F0117
:101B8000010E106F01012C0ED8807F55010E80557B
:101B900001E30ED11ED07F2B000E802356EC19F0EE
:101BA0003BEC02F0000903E001017F6B806B6CEC01
:101BB00002F0000906E00101080E7E6F0F01010E20
:101BC000106F01012C0ED8807F55010E805501E366
:101BD000EFD07E6B0F01010E106FEAD07F2B000E4D
:101BE0008023010E7F1960E180515EE1E66AE9EC35
:101BF00024F0E5520101026F010EE66EE9EC24F0DB
:101C0000E5520101016F020EE66EE9EC24F0E552A7
:101C10000101006F0F0117510101D880005516E333
:101C20000F0117510101005D29E10F011851010158
:101C3000D88001550BE30F0118510101015D1EE130
:101C40000F0119510101D880025518E278C1E9FF4E
:101C500079C1EAFF090EEA02F3CFEAFFE902F3CF06
:101C6000E9FFF450EA261A0EE926010EEA22080ED0
:101C7000E926000EEA22010EEF6E16D078C1E9FFC8
:101C800079C1EAFF090EEA02F3CFEAFFE902F3CFD6
:101C9000E9FFF450EA261A0EE926010EEA22080EA0
:101CA000E926000EEA22EF6A09050EE1520EE66E01
:101CB0004A0EE66EE66AE66AC7EC15F0E552E552B2
:101CC000E552E5521DEC02F00101095104E1180E44
:101CD0007E6F84EC01F00101280E7F5D000E8059BB
:101CE00067E3180E4BD07F2B000E8023400EE66E6C
:101CF0004A0EE66EE66AF2EC15F0E552E552E55260
:101D0000340EE66E4A0EE66E010EE66EF2EC15F04B
:101D1000E552E552E55231EC02F00101096B64EC49
:101D200002F0000907E084EC01F00101050E7E6F6E
:101D3000746B756B0101640E7F5D000E805938E392
:101D40007E6B36D07F2B000E8023250EE66E4A0E6A
:101D5000E66EE66AF2EC15F0E552E552E552010155
:101D6000010E7F1904E1805102E1E3EC01F0010171
:101D7000280E7F5D000E80591BE3080E7E6F84ECF9
:101D800001F016D07F2B000E8023140EE66E4A0E53
:101D9000E66EE66AE66AC7EC15F0E552E552E552F2
:101DA000E5520101280E7F5D000E805901E37E6B34
:101DB000020EE15C02E2E16AE552E16EE552E7CF34
:041DC000D9FF120035
:0C1DC400D9CFE6FFE1CFD9FF040EE126E5
:101DD000DE6ADD6ADECF10F0DDCF11F0126A136A21
:101DE00011AE02D012681368D950FB0FE96EFF0ED6
:101DF000DA20EA6EEE50105CEE501158EE50125898
:101E0000EE5013581DE2020EDB6A030EDB6A020E6F
:101E1000DBCF10F0030EDBCF11F0D890115004E6A9
:101E2000050E105C000E115806E2020EDB2A030EAE
:101E3000EEE3DB2AECD7DF2A010ECCE3DB2ACAD79C
:101E4000040EE15C02E2E16AE552E16EE552E7CFA1
:101E5000D9FF1200D9CFE6FFE1CFD9FF040EE1266A
:101E6000DE6ADD6ADECF10F0DDCF11F0126A136A90
:101E700011AE02D012681368D950FB0FE96EFF0E45
:101E8000DA20EA6EEE50105CEE501158EE50125807
:101E9000EE5013581DE2020EDB6A030EDB6A020EDF
:101EA000DBCF10F0030EDBCF11F0D890115004E619
:101EB000EE0E105C000E115806E2020EDB2A030E35
:101EC000EEE3DB2AECD7DF2A010ECCE3DB2ACAD70C
:101ED000040EE15C02E2E16AE552E16EE552E7CF11
:101EE000D9FF1200D9CFE6FFE1CFD9FF0F0E81163F
:101EF000FE0EDB50F00B81128186010EE66EE66A63
:101F0000E66AE66AA7DFE552E552E552E5528196B8
:101F1000010EE66EE66AE66AE66A9CDFE552E55285
:101F2000E552E5520F0E8116FE0EDB38F00B8112E2
:101F30008186010EE66EE66AE66AE66A8BDFE552A6
:101F4000E552E552E5528196010EE66EE66AE66AD2
:101F5000E66A80DFE552E552E552E552E552E7CF09
:101F6000D9FF1200D9CFE6FFE1CFD9FFE652190E13
:101F7000E66EE66AE66AE66A6DDFE552E552E5522C
:101F8000E5520F0E8116F80E81160F0E8116300ED7
:101F900081128186010EE66EE66AE66AE66A5ADF1B
:101FA000E552E552E552E5528196010EE66EE66A8B
:101FB000E66AE66A4FDFE552E552E552E5520F0E5A
:101FC0008116300E81128186010EE66EE66AE66A9F
:101FD000E66A40DFE552E552E552E5528196010E90
:101FE000E66EE66AE66AE66A35DFE552E552E552F4
:101FF000E5520F0E8116300E81128186010EE66EBB
:10200000E66AE66AE66A26DFE552E552E552E552FF
:102010008196010EE66EE66AE66AE66A1BDFE55225
:10202000E552E552E5520F0E8116818A8186010E36
:10203000E66EE66AE66AE66A0DDFE552E552E552CB
:10204000E5528196010EE66EE66AE66AE66A02DF0E
:10205000E552E552E552E552280EE66E43DFE552C1
:102060000C0EE66E3FDFE552E552E552E7CFD9FFB1
:102070001200D9CFE6FFE1CFD9FF020EE126DF6AD9
:10208000010EDB6A81940F0EE66EE66AE66AE66A86
:1020900099DEE552E552E552E5520F0E8112818636
:1020A000E66EE66AE66AE66A8DDEE552E552E552DC
:1020B000E5520F0E8114E76E010EE7CFDBFF81962C
:1020C0000F0EE66EE66AE66AE66A7CDEE552E552E7
:1020D000E552E5520F0E81128186E66EE66AE66AE7
:1020E000E66A70DEE552E552E552E5520F0E8114C4
:1020F000DF6E010EDB50DF128196010EE66EE66A9E
:10210000E66AE66A5FDEE552E552E552E552DF50E7
:10211000106E020EE15C02E2E16AE552E16E1050DF
:10212000E552E7CFD9FF1200D9CFE6FFE1CFD9FFC3
:10213000E652DF6A9EDFDF6EDFBEFCD7DF50E5527E
:10214000E552E7CFD9FF1200D9CFE6FFE1CFD9FFA3
:102150000F0E8116FE0EDB5081128186050EE66E93
:10216000E66AE66AE66A2EDEE552E552E552E55297
:102170008196050EE66EE66AE66AE66A23DEE552B9
:10218000E552E552E552E552E7CFD9FF1200D9CF2B
:10219000E6FFE1CFD9FF8194050EE66EE66AE66AB6
:1021A000E66A10DEE552E552E552E552FE0EDBCF5F
:1021B000E6FFCADFE552FE0EDB38F00BE66EC4DF49
:1021C000E552E552E7CFD9FF1200D9CFE6FFE1CFC4
:1021D000D9FF8184050EE66EE66AE66AE66AF2DDFC
:1021E000E552E552E552E552FE0EDBCFE6FFACDFED
:1021F000E552FE0EDB38F00BE66EA6DFE552819469
:10220000E552E7CFD9FF1200D9CFE6FFE1CFD9FFE2
:10221000FE0EDBCFE6FFD9DFE552E552E7CFD9FF6F
:102220001200D9CFE6FFE1CFD9FFFE0EDBCFE6FFEC
:10223000CCDFE552E552E7CFD9FF1200D9CFE6FF58
:10224000E1CFD9FFFD0EDBCFF6FFFE0EDBCFF7FFB0
:102250000800F5500FE0FD0EDBCFF6FFDB2AFE0E87
:10226000DBCFF7FF01E3DB2A0800F550E66ED9DF8C
:10227000E552E8D7E552E7CFD9FF1200D9CFE6FF04
:10228000E1CFD9FFE652FD0EDB500F0B106EFE0EB4
:10229000DB50010B400DF3501024DF6E7F0EDF1476
:1022A000800FDF6EDFCFE6FF72DFE552E552E552C9
:1022B000E7CFD9FF1200010EE66E69DFE552E66A4C
:1022C000E66ADCDFE552E5521200D9CFE6FFE1CF46
:1022D000D9FF050EE126010EF36EDB6E020EDB6AFE
:1022E000030EDB6A040EDB6ADF6ADFCF10F0116ACF
:1022F00010BE1168FB0EDBCF12F0FC0EDBCF13F02B
:1023000011501318E8AE02D0133404D01250105CF0
:10231000135011582DE2FD0EDBCF10F0FE0EDBCF77
:1023200011F0126A136A11AE02D012681368D95004
:10233000010FE96EDACFEAFF10C00BF011C00CF00C
:1023400012C00DF013C00EF0EECF06F0EECF07F086
:10235000EECF08F0EFCF09F020EC28F005C0EDFF3C
:1023600004C0EDFF03C0EDFF02C0EFFFDF2ABDD7C1
:10237000010EDBCF10F0020EDBCF11F0030EDBCF2E
:1023800012F0040EDBCF13F010C006F011C007F0FE
:1023900012C008F013C009F0050EE15C02E2E16A28
:1023A000E552E16EE552E7CFD9FF1200D9CFE6FF43
:1023B000E1CFD9FF020EE126DF6AFB0EDBCF10F082
:1023C000FC0EDBCF11F0FD0EDBCF12F0FE0EDBCFEB
:1023D00013F0105011101210131005E1300EE66EBC
:1023E00020DFE552F4D0D950FB0FE96EFF0EDA2062
:1023F000EA6ED890030EEB50000A08E6000EEE5C81
:10240000000EEE58000EEE58000EEE5815E22D0E9E
:10241000E66E07DFE552D950FB0FE96EFF0EDA20BA
:10242000EA6E000EEE6CEF1EEE22EF1EEE22EF1EA5
:10243000EF22ED52ED52ED52DE52070EDD6E010E2F
:10244000DBCF10F0000EE76E1018E8AE02D01034AB
:1024500003D0E750D880105401E3B9D0010EDB045B
:10246000146E156A14BE156814C0E6FF15C0E6FFA9
:102470000A0EE66EE66A29DFE552E552E552E552BC
:1024800006C010F007C011F008C012F009C013F028
:1024900006C00BF007C00CF008C00DF009C00EF02C
:1024A000FB0EDBCF06F0FC0EDBCF07F0FD0EDBCF23
:1024B00008F0FE0EDBCF09F058EC28F006500710AC
:1024C0000810091041E0010EDF6EDB04186E196A76
:1024D00018BE196818C0E6FF19C0E6FF0A0EE66EBE
:1024E000E66AF3DEE552E552E552E55206C014F025
:1024F00007C015F008C016F009C017F006C00BF0B1
:1025000007C00CF008C00DF009C00EF0FB0EDBCFC9
:1025100006F0FC0EDBCF07F0FD0EDBCF08F0FE0E61
:10252000DBCF09F058EC28F006C010F007C011F01E
:1025300008C012F009C013F0300E1026000E112250
:1025400012221322105003D0DF5004E0300EE66E4A
:1025500068DEE552010EDB04146E156A14BE1568C0
:1025600014C0E6FF15C0E6FF0A0EE66EE66AADDEB1
:10257000E552E552E552E55206C010F007C011F0F1
:1025800008C012F009C013F0D950FB0FE96EFF0E1E
:10259000DA20EA6E06C00BF007C00CF008C00DF0A0
:1025A00009C00EF0EECF06F0EECF07F0EECF08F048
:1025B000EFCF09F058EC28F005C0EDFF04C0EDFFA7
:1025C00003C0EDFF02C0EFFF010EDB0638D7020E9D
:1025D000E15C02E2E16AE552E16EE552E7CFD9FF44
:1025E0001200D9CFE6FFE1CFD9FFFD0EDBCFE6FF2A
:1025F000FE0EDBCFE6FF42DEE552E552D950F90F81
:10260000E96EFF0EDA20EA6EEECFE6FFEECFE6FFD0
:10261000EECFE6FFEFCFE6FFC9DEE552E552E55229
:10262000E552E552E7CFD9FF1200D9CFE6FFE1CF5F
:10263000D9FFFD0EDBCFE6FFFE0EDBCFE6FF1EDE91
:10264000E552E552FB0EDBCFE6FFFC0EDBCFE6FFEB
:10265000F5DDE552E552E552E7CFD9FF1200D9CFBB
:10266000E6FFE1CFD9FF23CF10F024CF11F0040E05
:10267000D89010361136E806FBE1D50E1026010E73
:10268000112210500F012525E96E11502621EA6E06
:10269000FE0EDBCFEFFF252B000E2623E552E7CF02
:1026A000D9FF1200D9CFE6FFE1CFD9FFE652DF6AAA
:1026B000DFCF10F0100EE76E1018E8AE02D0E7344E
:1026C00002D0E750105C18E2DFCFE9FFEA6AE9BE0A
:1026D000EA68D50EE926010EEA22200EEF6EDFCF62
:1026E000E9FFEA6AE9BEEA68E50EE926010EEA2298
:1026F000200EEF6EDF2ADCD7E552E552E7CFD9FF97
:102700001200D9CFE6FFE1CFD9FFE6520101D45143
:10271000030A52E0010A36E0030A1AE0010A67E1FF
:10272000E66AE66AABDDE552E552DF6A080EDF5C79
:102730000CE2DF50EA6AD50FE96E010EEA22EF5093
:10274000E66E6FDDE552DF2AF1D70101010E32D0CE
:10275000080EE66EE66A92DDE552E552DF6A080E83
:10276000DF5C0DE2080EDF24EA6AD50FE96E010E88
:10277000EA22EF50E66E55DDE552DF2AF0D701017F
:10278000020E18D0E66A010EE66E78DDE552E552DB
:10279000DF6A080EDF5C0CE2DF50EA6AE50FE96EE3
:1027A000010EEA22EF50E66E3CDDE552DF2AF1D75A
:1027B0000101030ED46F1CD0080EE66E010EE66E0A
:1027C0005DDDE552E552DF6A080EDF5C0DE2080EC2
:1027D000DF24EA6AE50FE96E010EEA22EF50E66EA9
:1027E00020DDE552DF2AF0D70101D46B01D0D46B94
:1027F000E552E552E7CFD9FF1200D9CFE6FFE1CF8E
:10280000D9FFE6520101D451010A1BE0010A32E16D
:10281000E66AE66A33DDE552E552DF6A100EDF5CF8
:102820000CE2DF50EA6AD50FE96E010EEA22EF50A2
:10283000E66EF7DCE552DF2AF1D70101010ED46F15
:102840001AD0E66A010EE66E19DDE552E552DF6A3E
:10285000100EDF5C0CE2DF50EA6AE50FE96E010E54
:10286000EA22EF50E66EDDDCE552DF2AF1D7010106
:10287000D46B01D0D46BE552E552E7CFD9FF1200FB
:10288000D9CFE6FFE1CFD9FFE652E66AE66AF6DC89
:10289000E552E552DF6A100EDF5C0CE2DF50EA6AB7
:1028A000D50FE96E010EEA22EF50E66EBADCE55272
:1028B000DF2AF1D7E66A010EE66EE0DCE552E5526A
:1028C000DF6A100EDF5C0CE2DF50EA6AE50FE96EAA
:1028D000010EEA22EF50E66EA4DCE552DF2AF1D7C2
:1028E000E552E552E7CFD9FF1200D9CFE6FFE1CF9D
:1028F000D9FFFE0EDB50010B0F01236F246BFD0E81
:10290000DB500F0B256F266B23CF10F024CF11F077
:10291000040ED89010361136E806FBE1D50E1026CD
:10292000010E112210500F012525E96E11502621AC
:10293000EA6EFC0EDBCFEFFFE552E7CFD9FF1200C6
:10294000D9CFE6FFE1CFD9FF020EE126DF6AFE0E06
:10295000DB50010B0F01236F246BFD0EDB500F0BBF
:10296000256F266BF90EDBCF10F0FA0EDBCF11F0DE
:10297000FB0EDBCF12F0FC0EDBCF13F0105011106A
:102980001210131005E1300EE66E69DEE552F5D047
:10299000D950F90FE96EFF0EDA20EA6ED890030ED7
:1029A000EB50000A08E6000EEE5C000EEE58000E3A
:1029B000EE58000EEE5815E22D0EE66E50DEE55292
:1029C000D950F90FE96EFF0EDA20EA6E000EEE6CB8
:1029D000EF1EEE22EF1EEE22EF1EEF22ED52ED5221
:1029E000ED52DE52070EDD6E010EDBCF10F0000E51
:1029F000E76E1018E8AE02D0103403D0E750D8804C
:102A0000105401E3BAD0010EDB04146E156A14BE33
:102A1000156814C0E6FF15C0E6FF0A0EE66EE66A0A
:102A200054DCE552E552E552E55206C010F007C00D
:102A300011F008C012F009C013F006C00BF007C077
:102A40000CF008C00DF009C00EF0F90EDBCF06F057
:102A5000FA0EDBCF07F0FB0EDBCF08F0FC0EDBCF6E
:102A600009F058EC28F0065007100810091041E052
:102A7000010EDF6EDB04186E196A18BE196818C0E3
:102A8000E6FF19C0E6FF0A0EE66EE66A1EDCE552B6
:102A9000E552E552E55206C014F007C015F008C033
:102AA00016F009C017F006C00BF007C00CF008C004
:102AB0000DF009C00EF0F90EDBCF06F0FA0EDBCFF9
:102AC00007F0FB0EDBCF08F0FC0EDBCF09F058EC73
:102AD00028F006C010F007C011F008C012F009C0BD
:102AE00013F0300E1026000E112212221322105065
:102AF00003D0DF5004E0300EE66EB1DDE552010E8A
:102B0000DB04146E156A14BE156814C0E6FF15C008
:102B1000E6FF0A0EE66EE66A65EC11F0E552E55254
:102B2000E552E55206C010F007C011F008C012F0DF
:102B300009C013F0D950F90FE96EFF0EDA20EA6EE2
:102B400006C00BF007C00CF008C00DF009C00EF075
:102B5000EECF06F0EECF07F0EECF08F0EFCF09F0A2
:102B600058EC28F005C0EDFF04C0EDFF03C0EDFFF9
:102B700002C0EFFF010EDB0637D7020EE15C02E276
:102B8000E16AE552E16EE552E7CFD9FF1200D9CFF5
:102B9000E6FFE1CFD9FFFE0EDB50010B0F01236FE3
:102BA000246BFD0EDB500F0B256F266BFB0EDBCF6E
:102BB000F6FFFC0EDBCFF7FF0800F5500FE0FB0E31
:102BC000DBCFF6FFDB2AFC0EDBCFF7FF01E3DB2ACE
:102BD0000800F550E66E43DDE552E8D7E552E7CF51
:102BE000D9FF1200D9CFE6FFE1CFD9FF020EE126CF
:102BF000DE6ADD6AFE0EDB50010B0F01236F246BD2
:102C0000256B266BDE6ADD6ADECF10F0DDCF11F0BA
:102C1000D890115004E6100E105C000E11581EE200
:102C2000FC0EDBCFF6FFFD0EDBCFF7FF0800F55003
:102C30000CE0FC0EDBCFF6FFDB2AFD0EDBCFF7FF4F
:102C400001E3DB2A0800F55001D0200EE66E07DD17
:102C5000E552DF2A010ED8E3DB2AD6D7020EE15C6B
:102C600002E2E16AE552E16EE552E7CFD9FF1200D8
:102C70000F01320E116F3B0E126F170E136F11CF33
:102C8000E6FFE66A98EC24F0E552E55212CFE6FF43
:102C9000010EE66E98EC24F0E552E55213CFE6FF04
:102CA000020EE66E98EC24F0E552E5521200200E7A
:102CB000E66EE9EC24F0E552220809E0D9DF220EA5
:102CC000E66E200EE66ED8EC24F0E552E5521200D6
:102CD000E66AE9EC24F0E5520F01116F010EE66E91
:102CE000E9EC24F0E5520F01126F020EE66EE9ECFA
:102CF00024F0E5520F01136F0A0E135D1DE2120E50
:102D0000E66E4A0EE66E070EE66E010EE66EC7EC44
:102D100015F0E552E552E552E55213CF10F0116A75
:102D2000126A136A13CFE6FF11C0E6FF12C0E6FF76
:102D300013C0E6FF080E0ED013CF10F0116A126A0E
:102D4000136A13CFE6FF11C0E6FF12C0E6FF13C0FF
:102D5000E6FF070EE66E010EE66EA0EC14F0146EB0
:102D6000060EE15E1450100EE66E4A0EE66E090E77
:102D7000E66E010EE66EC7EC15F0E552E552E5523F
:102D8000E5520A0E0F01125D1DE2120EE66E4A0EAA
:102D9000E66E0A0EE66E010EE66EC7EC15F0E55221
:102DA000E552E552E55212CF10F0116A126A136A29
:102DB00012CFE6FF11C0E6FF12C0E6FF13C0E6FF28
:102DC0000B0E0ED012CF10F0116A126A136A12CFD6
:102DD000E6FF11C0E6FF12C0E6FF13C0E6FF0A0ED1
:102DE000E66E010EE66EA0EC14F0146E060EE15EC7
:102DF0001450100EE66E4A0EE66E0C0EE66E010ED4
:102E0000E66EC7EC15F0E552E552E552E5520A0EC2
:102E10000F01115D1DE2120EE66E4A0EE66E0D0EFA
:102E2000E66E010EE66EC7EC15F0E552E552E5528E
:102E3000E55211CF10F0116A126A136A11CFE6FF42
:102E400011C0E6FF12C0E6FF13C0E6FF0E0E0ED063
:102E500011CF10F0116A126A136A11CFE6FF11C088
:102E6000E6FF12C0E6FF13C0E6FF0D0EE66E010E90
:102E7000E66EA0EC14F0146E060EE15E1450120023
:102E8000D9CFE6FFE1CFD9FF0A0EF36EFE0EDBCFFE
:102E9000F4FFF350F45C1EE2120EE66E4A0EE66E8C
:102EA000070EE66E010EE66EC7EC15F0E552E55230
:102EB000E552E552FE0EDBCF10F0116A126A136A7A
:102EC00010C0E6FF11C0E6FF12C0E6FF13C0E6FF28
:102ED000080E0FD0FE0EDBCF10F0116A126A136AD3
:102EE00010C0E6FF11C0E6FF12C0E6FF13C0E6FF08
:102EF000070EE66E010EE66EA0EC14F0146E060EE0
:102F0000E15E1450100EE66E4A0EE66E090EE66E95
:102F1000010EE66EC7EC15F0E552E552E552E552BA
:102F20000A0EF36EFD0EDBCFF4FFF350F45C1EE2ED
:102F3000120EE66E4A0EE66E0A0EE66E010EE66EA2
:102F4000C7EC15F0E552E552E552E552FD0EDBCF38
:102F500010F0116A126A136A10C0E6FF11C0E6FF92
:102F600012C0E6FF13C0E6FF0B0E0FD0FD0EDBCF45
:102F700010F0116A126A136A10C0E6FF11C0E6FF72
:102F800012C0E6FF13C0E6FF0A0EE66E010EE66E03
:102F9000A0EC14F0146E060EE15E1450100EE66EF6
:102FA0004A0EE66E0C0EE66E010EE66EC7EC15F0EC
:102FB000E552E552E552E5520A0EF36EFC0EDBCF08
:102FC000F4FFF350F45C1EE2120EE66E4A0EE66E5B
:102FD0000D0EE66E010EE66EC7EC15F0E552E552F9
:102FE000E552E552FC0EDBCF10F0116A126A136A4B
:102FF00010C0E6FF11C0E6FF12C0E6FF13C0E6FFF7
:103000000E0E0FD0FC0EDBCF10F0116A126A136A9D
:1030100010C0E6FF11C0E6FF12C0E6FF13C0E6FFD6
:103020000D0EE66E010EE66EA0EC14F0146E060EA8
:10303000E15E1450E552E7CFD9FF12000F011051A5
:10304000060A01E102D1030A01E1BBD0010A01E154
:1030500074D0070A2DE0010A15E0030A01E00FD140
:10306000040EE66E4A0EE66EE66AF2EC15F0E552E4
:10307000E552E5522DDE61DA000901E102D10F01CE
:10308000020EFED0E66AE9EC24F0E5520F01166F5D
:10309000010EE66EE9EC24F0E5520F01156F020E09
:1030A000E66EE9EC24F0E5520F01146F030EE8D050
:1030B00016CFE6FF15CFE6FF14CFE6FFE1DEE552BF
:1030C000E552E55200018051811117E182518311CF
:1030D00014E10F010A0E1A5D000E1B590EE2010EDB
:1030E000E66E4A0EE66E070EE66E010EE66EC7EC61
:1030F00015F0E552E552E552E552E3D900090CE03E
:103100000F011429106E180E116E0E6E10C009F00A
:10311000CDEC28F005C014FFF2D9000907E00F013B
:1031200014071451170802E2170E146F06DA00098B
:1031300001E1A7D00F01040EA3D016CFE6FF15CFF3
:10314000E6FF14CFE6FF9CDEE552E552E5520001B2
:103150008051811117E18251831114E10F010A0E90
:103160001A5D000E1B590EE2010EE66E4A0EE66E67
:103170000A0EE66E010EE66EC7EC15F0E552E5525A
:10318000E552E5529ED900090CE00F011529106E99
:103190003C0E116E0E6E10C009F0CDEC28F005C08B
:1031A00015FFADD9000907E00F01150715513B08C0
:1031B00002E23B0E156FC1D9000963E00F01050E55
:1031C0005FD016CFE6FF15CFE6FF14CFE6FF58DE3F
:1031D000E552E552E55200018051811117E182511B
:1031E000831114E10F010A0E1A5D000E1B590EE245
:1031F000010EE66E4A0EE66E0D0EE66E010EE66EEE
:10320000C7EC15F0E552E552E552E5525AD90009EE
:103210000CE00F011629106E3C0E116E0E6E10C0E0
:1032200009F0CDEC28F005C016FF69D9000907E0C8
:103230000F01160716513B0802E23B0E166F7DD9AF
:1032400000091FE00F01060E1BD016CFE6FFE66A4D
:1032500098EC24F0E552E55215CFE6FF010EE66E3C
:1032600098EC24F0E552E55214CFE6FF020EE66E2C
:1032700098EC24F0E552E5520F01010E01D0010E49
:10328000106F010E0F011A251A6F000E1B211B6F04
:10329000140E0D6E0E6A1ACF08F01BCF09F099ECD0
:1032A00028F004C01AFF05C01BFF12000F011051C7
:1032B000050A01E1ABD0010A65E0070A1EE0020A37
:1032C00001E0E8D0F00EE66E490EE66EE66AF2EC3A
:1032D00015F0E552E552E55219CFE6FF18CFE6FFAB
:1032E00017CFE6FFCDDDE552E552E55226D90009BC
:1032F00001E1D2D00F01030ECED019CFE6FF18CFD7
:10330000E6FF17CFE6FFBCDDE552E552E5520001CE
:103310008051811117E18251831114E10F010A0ECE
:103320001A5D000E1B590EE2010EE66E4A0EE66EA5
:10333000070EE66E010EE66EC7EC15F0E552E5529B
:10334000E552E552BED800090CE00F011729106EB6
:10335000180E116E0E6E10C009F0CDEC28F005C0ED
:1033600017FFCDD8000907E00F01170717511708FD
:1033700002E2170E176FE1D8000901E18DD00F01AD
:10338000040E89D019CFE6FF18CFE6FF17CFE6FF6E
:1033900077DDE552E552E55200018051811117E1D8
:1033A0008251831114E10F010A0E1A5D000E1B59A0
:1033B0000EE2010EE66E4A0EE66E0A0EE66E010E93
:1033C000E66EC7EC15F0E552E552E552E55279D8C4
:1033D00000090CE00F011829106E3C0E116E0E6EE4
:1033E00010C009F0CDEC28F005C018FF88D80009FE
:1033F00007E00F01180718513B0802E23B0E186F57
:103400009CD8000949E00F01050E45D019CFE6FF11
:1034100018CFE6FF17CFE6FF33DDE552E552E55260
:1034200000018051811117E18251831114E10F01D4
:103430000A0E1A5D000E1B590EE2010EE66E4A0ED0
:10344000E66E0D0EE66E010EE66EC7EC15F0E55267
:10345000E552E552E55235D800090CE00F01192973
:10346000106E3C0E116E0E6E10C009F0CDEC28F0FF
:1034700005C019FF44D8000907E00F0119071951C9
:103480003B0802E23B0E196F58D8000905E00F0116
:10349000010E01D0010E106F010E0F011A251A6FD7
:1034A000000E1B211B6F140E0D6E0E6A1ACF08F052
:1034B0001BCF09F099EC28F004C01AFF05C01BFFD0
:1034C00012000001010E801901E1815116E0140E75
:1034D000D8808055000E815511E280C010F081C067
:1034E00011F0050E0D6E0E6A80C008F081C009F063
:1034F00099EC28F00450051001E1010C000C0001CA
:10350000010E821901E1835116E0140ED880825514
:10351000000E835511E282C010F083C011F0050E39
:103520000D6E0E6A82C008F083C009F099EC28F095
:103530000450051001E1010C000C0001010E84197A
:0A35400003E1855101E1010C000CCC
:06354A00B06A810EAF6EB5
:10355000AC8AAC94B886AC98AB8E9E9A9D8A9F9AA2
:10356000949C1200B06A810EAF6EAC9AAC94B8967F
:10357000AC88AB9E9E9A9D9A9F9A1200D9CFE6FF87
:10358000E1CFD9FF040EE126DE6ADD6ADECF10F05E
:10359000DDCF11F0FD0EDBCF12F0FE0EDBCF13F00E
:1035A00011501318E8AE02D0133404D01250105C3E
:1035B000135011581DE2020EDB6A030EDB6A020E85
:1035C000DBCF10F0030EDBCF11F0D890115004E6E2
:1035D000EE0E105C000E115806E2020EDB2A030EFE
:1035E000EEE3DB2AECD7DF2A010ED0E3DB2ACED7CD
:1035F000040EE15C02E2E16AE552E16EE552E7CFDA
:10360000D9FF1200D9CFE6FFE1CFD9FF9EA8FED7A0
:10361000FE0EDB50AD6E9E98E552E7CFD9FF12004B
:10362000D9CFE6FFE1CFD9FFFD0EDBCFE9FFFE0EDC
:10363000DBCFEAFFEF5010E0FD0EDBCFE9FFFE0E1F
:10364000DBCFEAFFEF50E66EDDDFE552FD0EDB2A51
:10365000FE0EEAE3DB2AE8D7E552E7CFD9FF1200F6
:10366000D9CFE6FFE1CFD9FFFD0EDBCFF6FFFE0E8F
:10367000DBCFF7FF0800F55015E0FD0EDBCFF6FFBE
:10368000FE0EDBCFF7FF0800F550E66EBBDFE5521C
:10369000FD0EDBCFF6FFDB2AFE0EDBCFF7FFE4E308
:1036A000DB2AE2D7E552E7CFD9FF1200D9CFE6FFF8
:1036B000E1CFD9FF050EE126010EF36EDB6E020E9F
:1036C000DB6A030EDB6A040EDB6ADF6ADFCF10F011
:1036D000116A10BE1168FB0EDBCF12F0FC0EDBCFBF
:1036E00013F011501318E8AE02D0133404D0125066
:1036F000105C135011582DE2FD0EDBCF10F0FE0EC2
:10370000DBCF11F0126A136A11AE02D0126813688F
:10371000D950010FE96EDACFEAFF10C00BF011C0EB
:103720000CF012C00DF013C00EF0EECF06F0EECF8D
:1037300007F0EECF08F0EFCF09F020EC28F005C03D
:10374000EDFF04C0EDFF03C0EDFF02C0EFFFDF2A75
:10375000BDD7010EDBCF10F0020EDBCF11F0030E50
:10376000DBCF12F0040EDBCF13F010C006F011C057
:1037700007F012C008F013C009F0050EE15C02E288
:10378000E16AE552E16EE552E7CFD9FF1200D9CFE9
:10379000E6FFE1CFD9FF020EE126DF6AFB0EDBCFA9
:1037A00010F0FC0EDBCF11F0FD0EDBCF12F0FE0EA1
:1037B000DBCF13F0105011101210131005E1300E72
:1037C000E66E20DFE552F4D0D950FB0FE96EFF0E14
:1037D000DA20EA6ED890030EEB50000A08E6000EDD
:1037E000EE5C000EEE58000EEE58000EEE5815E29C
:1037F0002D0EE66E07DFE552D950FB0FE96EFF0E86
:10380000DA20EA6E000EEE6CEF1EEE22EF1EEE22C4
:10381000EF1EEF22ED52ED52ED52DE520A0EDD6E3A
:10382000010EDBCF10F0000EE76E1018E8AE02D0EC
:10383000103403D0E750D880105401E3B9D0010E02
:10384000DB04146E156A14BE156814C0E6FF15C0BB
:10385000E6FF0A0EE66EE66A29DFE552E552E5521A
:10386000E55206C010F007C011F008C012F009C000
:1038700013F006C00BF007C00CF008C00DF009C033
:103880000EF0FB0EDBCF06F0FC0EDBCF07F0FD0EDB
:10389000DBCF08F0FE0EDBCF09F058EC28F0065025
:1038A00007100810091041E0010EDF6EDB04186EEE
:1038B000196A18BE196818C0E6FF19C0E6FF0A0E9B
:1038C000E66EE66AF3DEE552E552E552E55206C0E1
:1038D00014F007C015F008C016F009C017F006C0B4
:1038E0000BF007C00CF008C00DF009C00EF0FB0E85
:1038F000DBCF06F0FC0EDBCF07F0FD0EDBCF08F0D0
:10390000FE0EDBCF09F058EC28F006C010F007C01F
:1039100011F008C012F009C013F0300E1026000E8E
:10392000112212221322105003D0DF5004E0300E77
:10393000E66E68DEE552010EDB04146E156A14BEF5
:10394000156814C0E6FF15C0E6FF0A0EE66EE66ACB
:10395000ADDEE552E552E552E55206C010F007C073
:1039600011F008C012F009C013F0D950FB0FE96E36
:10397000FF0EDA20EA6E06C00BF007C00CF008C09C
:103980000DF009C00EF0EECF06F0EECF07F0EECF4F
:1039900008F0EFCF09F058EC28F005C0EDFF04C0A7
:1039A000EDFF03C0EDFF02C0EFFF010EDB0638D7CD
:1039B000020EE15C02E2E16AE552E16EE552E7CF18
:1039C000D9FF1200D9CFE6FFE1CFD9FFFD0EDBCF43
:1039D00010F0FE0EDBCF11F0640E0D6E0E6A10C0FB
:1039E00008F011C009F0EAEC26F008C010F009C098
:1039F00011F0126A136A11AE02D01268136810C077
:103A0000E6FF11C0E6FF12C0E6FF13C0E6FFBFDE0F
:103A1000E552E552E552E5522E0EE66EF3DDE55233
:103A2000FD0EDBCF10F0FE0EDBCF11F0640E0D6E3D
:103A30000E6A10C008F011C009F0EAEC26F004C0CC
:103A400010F005C011F0126A136A11AE02D01268AC
:103A5000136810C0E6FF11C0E6FF12C0E6FF13C0F6
:103A6000E6FF95DEE552E552E552E552E552E7CF35
:103A7000D9FF1200D9CFE6FFE1CFD9FFE652AE5011
:103A8000DF6EEC0EE66E490EE66EE66A010EE66E3D
:103A9000C7EC15F0E552E552E552E552DFCF10F0E4
:103AA000116A126A136A10C0E6FF11C0E6FF12C065
:103AB000E6FF13C0E6FFE66A010EE66EA0EC14F026
:103AC000146E060EE15E1450E552E552E7CFD9FFC1
:023AD0001200E2
:0E3AD200D9CFE6FFE1CFD9FFD59EFD0EDBCFA9
:103AE000A9F0FE0EDBCFAAF0D59C13681468156A06
:103AF000A9C016F0AAC017F0186A1650135C106E11
:103B000017501458116E18501558126E0C6A010E89
:103B10000D6E0E6A10C007F011C008F012C009F057
:103B200010EC27F00350D66E13681468156AA9C00C
:103B300016F0AAC017F0186A1650135C106E1750D2
:103B40001458116E18501558126E0C6A010E0D6E35
:103B50000E6A10C007F011C008F012C009F010EC96
:103B600027F007C010F008C011F009C012F007508C
:103B7000D76ED59AD586F28AF294F184D58EE55225
:103B8000E7CFD9FF1200D59E120013681468156A9A
:103B9000A9C016F0AAC017F0186A1650135C106E70
:103BA00017501458116E18501558126E0C6A010EE9
:103BB0000D6E0E6A10C007F011C008F012C009F0B7
:103BC00010EC27F00350D66E13681468156AA9C06C
:103BD00016F0AAC017F0186A1650135C106E175032
:103BE0001458116E18501558126E0C6A010E0D6E95
:103BF0000E6A10C007F011C008F012C009F010ECF6
:103C000027F007C010F008C011F009C012F00750EB
:103C1000D76ED58E1200D9CFE6FFE1CFD9FFCD9078
:103C2000FD0EDBCFABF0FE0EDBCFACF013681468FB
:103C3000156AABC016F0ACC017F0186A1650135CCA
:103C4000106E17501458116E18501558126E0C6AD9
:103C5000010E0D6E0E6A10C007F011C008F012C000
:103C600009F010EC27F00750CF6E13681468156A3E
:103C7000ABC016F0ACC017F0186A1650135C106E8B
:103C800017501458116E18501558126E0C6A010E08
:103C90000D6E0E6A10C007F011C008F012C009F0D6
:103CA00010EC27F003C010F004C011F005C012F0B2
:103CB0000350CE6E9D809E909F90CD8ECD8CCD98E2
:103CC000CD9ACD96CD92CD80E552E7CFD9FF1200A7
:103CD00013681468156AABC016F0ACC017F0186A08
:103CE0001650135C106E17501458116E185015585A
:103CF000126E0C6A010E0D6E0E6A10C007F011C034
:103D000008F012C009F010EC27F00750CF6E1368CE
:103D10001468156AABC016F0ACC017F0186A1650DC
:103D2000135C106E17501458116E18501558126EFF
:103D30000C6A010E0D6E0E6A10C007F011C008F07B
:103D400012C009F010EC27F003C010F004C011F00D
:103D500005C012F00350CE6ECD801200CD9012003F
:103D6000D9CFE6FFE1CFD9FFCA94CC6AFE0EDB5073
:103D70000001AD6FAE6BCB6E9D829E929F92CA90FA
:103D8000CA92CA84E552E7CFD9FF1200ADC0CBFF7B
:103D9000CA841200CA941200D9CFE6FFE1CFD9FF3E
:103DA000B190FD0EDBCFAFF0FE0EDBCFB0F01368AD
:103DB0001468156AAFC016F0B0C017F0186A165034
:103DC000135C106E17501458116E18501558126E5F
:103DD0000C6A010E0D6E0E6A10C007F011C008F0DB
:103DE00012C009F010EC27F00750B36E1368146886
:103DF000156AAFC016F0B0C017F0186A1650135C01
:103E0000106E17501458116E18501558126E0C6A17
:103E1000010E0D6E0E6A10C007F011C008F012C03E
:103E200009F010EC27F003C010F004C011F005C039
:103E300012F00350B26EA082A192A292B18EB198FC
:103E4000B19AB192B180E552E7CFD9FF1200136861
:103E50001468156AAFC016F0B0C017F0186A165093
:103E6000135C106E17501458116E18501558126EBE
:103E70000C6A010E0D6E0E6A10C007F011C008F03A
:103E800012C009F010EC27F00350B26E13681468EA
:103E9000156AAFC016F0B0C017F0186A1650135C60
:103EA000106E17501458116E18501558126E0C6A77
:103EB000010E0D6E0E6A10C007F011C008F012C09E
:103EC00009F010EC27F007C010F008C011F009C08D
:103ED00012F00750B36EB1801200B19012000001D1
:103EE000B92B000EBA23C151B95DC251BA5904E3CE
:103EF000B96BBA6B010EB16F12000001BB2B000E43
:103F0000BC23C351BB5DC451BC5904E3BB6BBC6B48
:103F1000010EB26F12000001BD2B000EBE23C55171
:103F2000BD5DC651BE5904E3BD6BBE6B010EB36FE0
:103F300012000001BF2B000EC023C751BF5DC85146
:103F4000C05904E3BF6BC06B010EB46F1200D9CF30
:103F5000E6FFE1CFD9FFFD0EDBCFC1F0FE0EDBCFD8
:103F6000C2F00001B96BBA6BB16BE552E7CFD9FF74
:103F70001200D9CFE6FFE1CFD9FFFD0EDBCFC3F0B2
:103F8000FE0EDBCFC4F0050E0D6E0E6AC3C008F046
:103F9000C4C009F0EAEC26F008C0C3F009C0C4F0C0
:103FA0000001BB6BBC6BB26BE552E7CFD9FF1200CF
:103FB000D9CFE6FFE1CFD9FFFD0EDBCFC7F0FE0E74
:103FC000DBCFC8F00A0E0D6E0E6AC7C008F0C8C07D
:103FD00009F0EAEC26F008C0C7F009C0C8F00001FB
:0E3FE000BF6BC06BB46BE552E7CFD9FF120088
:023FEE000F0EB4
:103FF000946E82681200CF0E9414946E8268120040
:10400000D9CFE6FFE1CFD9FF050EE126040EDB6A2A
:10401000DE6ADD6ADECF10F0DDCF11F0D8901150EE
:1040200004E6040E105C000E115801E390D0DECFC0
:10403000E9FFDDCFEAFFA00EE926000EEA22EF1C21
:10404000826E020EDB6A030EDB6A020EDBCF10F01B
:10405000030EDBCF11F0D890115004E6040E105C73
:10406000000E11586EE2020EDBCFE9FF030EDBCF2C
:10407000EAFFA40EE926000EEA22EF5082143FE187
:10408000DECF14F0DDCF15F0D89014361536D89069
:1040900014361536020EDB501424E96E030EDB5085
:1040A0001520EA6ED890E936EA36800EE926000E31
:1040B000EA22EECF12F0EFCF13F0010E1226000E1F
:1040C0001322DECF10F0DDCF11F0D890103611366C
:1040D000D89010361136020EDB501024E96E030E14
:1040E000DB501120EA6ED890E936EA36800EE926D8
:1040F000000EEA2212C0EEFF13C0EDFF1BD0DECF90
:1041000010F0DDCF11F0D89010361136D89010365F
:104110001136020EDB501024E96E030EDB50112025
:10412000EA6ED890E936EA36800EE926000EEA22D9
:10413000EE6AED6A020EDB2A030E01E286D7DB2A65
:1041400084D7DF2A010E01E265D7DB2A63D7050E8B
:10415000E15C02E2E16AE552E16EE552E7CFD9FFA8
:104160001200D9CFE6FFE1CFD9FF050EE126040EFC
:10417000DB6ADE6ADD6ADECF10F0DDCF11F0D890A9
:10418000115004E6020E105C000E115801E399D0A4
:10419000DECFE9FFDDCFEAFFA00EE926000EEA221E
:1041A000EF1C8214826E0F0E8210826E020EDB6A8A
:1041B000030EDB6A020EDBCF10F0030EDBCF11F033
:1041C000D890115004E6040E105C000E115873E2F2
:1041D000020EDBCFE9FF030EDBCFEAFFA40EE926D8
:1041E000000EEA22EF50821444E1DECF14F0DDCF5E
:1041F00015F0D89014361536D89014361536020EB0
:10420000DB501424E96E030EDB501520EA6ED890C3
:10421000E936EA36800EE926000EEA22EECF12F0E9
:10422000EFCF13F0010E1226000E1322DECF10F096
:10423000DDCF11F0D89010361136D89010361136E7
:10424000020EDB501024E96E030EDB501120EA6EE3
:10425000D890E936EA36800EE926000EEA2212C02E
:10426000EEFF13C0EDFF010EF36E040EF3CFDBFF84
:104270001BD0DECF10F0DDCF11F0D8901036113604
:10428000D89010361136020EDB501024E96E030E62
:10429000DB501120EA6ED890E936EA36800EE92626
:1042A000000EEA22EE6AED6A020EDB2A030E01E23C
:1042B00081D7DB2A7FD7DF2A010E01E25CD7DB2A18
:1042C0005AD7040EDB0404E10001010EA86F02D0EE
:1042D0000001A86B050EE15C02E2E16AE552E16EC5
:1042E000E552E7CFD9FF1200D9CFE6FFE1CFD9FFE2
:1042F000040EE126DE6ADD6ADECF10F0DDCF11F0BC
:10430000FD0EDBCF12F0FE0EDBCF13F011501318B1
:10431000E8AE02D0133404D01250105C1350115880
:104320001DE2020EDB6A030EDB6A020EDBCF10F029
:10433000030EDBCF11F0D890115004E6EE0E105CA6
:10434000000E115806E2020EDB2A030EEEE3DB2A12
:10435000ECD7DF2A010ED0E3DB2ACED7040EE15CD6
:1043600002E2E16AE552E16EE552E7CFD9FF1200C1
:10437000D9CFE6FFE1CFD9FF040EE126DE6ADD6A80
:10438000DECF10F0DDCF11F0D890115004E6040E0E
:10439000105C000E115875E2DECFE9FFDDCFEAFFB9
:1043A000A00EE926000EEA22EF1C826E020EDB6AE6
:1043B000030EDB6A020EDBCF10F0030EDBCF11F031
:1043C000D890115004E6040E105C000E11584AE219
:1043D000DECF10F0DDCF11F0D89010361136D89026
:1043E00010361136020EDB501024E96E030EDB503E
:1043F0001120EA6ED890E936EA36800EE926000EE2
:10440000EA22EE6AED6A020EDBCFE9FF030EDBCF94
:10441000EAFFA40EE926000EEA22EF5082141CE106
:10442000DECF10F0DDCF11F0D89010361136D890D5
:1044300010361136020EDB501024E96E030EDB50ED
:104440001120EA6ED890E936EA36800EE926000E91
:10445000EA22010EEE6EED6A020EDB2A030EAAE3DB
:10446000DB2AA8D78250816EE80EE66E030EE66E58
:104470003BDFE552E552DF2A010E01E281D7DB2A5C
:104480007FD7040EE15C02E2E16AE552E16EE5529B
:06449000E7CFD9FF120086
:0A449600D9CFE6FFE1CFD9FF020EF7
:1044A000E126DE6ADD6A58D857EC16F0E80EE66EB3
:1044B000030EE66E0DD8E552E5520001B451FDE061
:1044C000B46B00EC20F074EC02F081EC13F0F5D743
:1044D000D9CFE6FFE1CFD9FF040EE126DE6ADD6A1F
:1044E000DECF10F0DDCF11F0FD0EDBCF12F0FE0EAF
:1044F000DBCF13F011501318E8AE02D0133404D000
:104500001250105C135011581DE2020EDB6A030EAC
:10451000DB6A020EDBCF10F0030EDBCF11F0D89078
:10452000115004E6EE0E105C000E115806E2020E69
:10453000DB2A030EEEE3DB2AECD7DF2A010ED0E301
:10454000DB2ACED7040EE15C02E2E16AE552E16EBD
:10455000E552E7CFD9FF1200936A956AB2EC0FF0EB
:1045600052EC13F008EC26F0E80EE66E030EE66E51
:10457000AFDFE552E552570EE66E120EE66E69ECBD
:104580001DF0E552E552AE0EE66E240EE66E0BEC23
:104590001EF0E552E552660EE66EB70EE66ECCEC06
:1045A0001EF0E552E552020EE66EE66AA7EC1FF039
:1045B000E552E5520A0EE66EE66AB9EC1FF0E552E6
:1045C000E552320EE66EE66AD8EC1FF0E552E5528F
:1045D000F7EC1FF002EF24F0D9CFE6FFE1CFD9FFCF
:1045E000FE0EDBCF11F0800E11141AE1FD0EDBCFB1
:1045F00012F0FE0EDBCF13F0133404E21250070862
:10460000000E13540DE3FD0EDBCFE9FFFE0EDBCFF2
:10461000EAFF000EE9260F0EEA22EF508310836EA8
:10462000E552E7CFD9FF1200D9CFE6FFE1CFD9FF9E
:10463000FE0EDBCF11F0800E11141AE1FD0EDBCF60
:1046400012F0FE0EDBCF13F0133404E21250070811
:10465000000E13540DE3FD0EDBCFE9FFFE0EDBCFA2
:10466000EAFF000EE9260F0EEA22EF1C8314836E88
:10467000E552E7CFD9FF1200D9CFE6FFE1CFD9FF4E
:10468000FD0EDBCFE9FFFE0EDBCFEAFF080EE926C9
:104690000F0EEA22EF0415E1FD0EDBCFE6FFFE0E62
:1046A000DBCFE6FFC1DFE552E552FD0EDBCFE9FFD0
:1046B000FE0EDBCFEAFF080EE9260F0EEA22EF6AB4
:1046C00015D0FD0EDBCFE6FFFE0EDBCFE6FF84DF6D
:1046D000E552E552FD0EDBCFE9FFFE0EDBCFEAFF30
:1046E000080EE9260F0EEA22010EEF6EE552E7CF23
:1046F000D9FF1200D9CFE6FFE1CFD9FF020EE126A4
:10470000DE6ADD6ADECF10F0DDCF11F0113404E295
:1047100010500708000E115421E3DECFE6FFDDCF75
:10472000E6FF5ADFE552E552F40EE66E010EE66E44
:10473000CFDEE552E552DECFE6FFDDCFE6FF74DFE8
:10474000E552E552F40EE66E010EE66EC1DEE5526C
:10475000E552DF2A010ED6E3DB2AD4D7020EE15C54
:1047600002E2E16AE552E16EE552E7CFD9FF1200BD
:10477000D9CFE6FFE1CFD9FF020EE126FE0EDB50D6
:104780000F0BDF6EFE0EDB380F0B0A0D010EF3CFA1
:10479000DBFFDB50DF24106E020EE15C02E2E16A17
:1047A000E552E16E1050E552E7CFD9FF1200D9CFA4
:1047B000E6FFE1CFD9FF020EE1260A0E106E0E6E63
:1047C000FE0EDBCF09F0CDEC28F00550DF6E0A0EAF
:1047D000106E0E6EFE0EDBCF09F0CDEC28F0095006
:1047E000100D010EF3CFDBFFDB50DF24106E020E45
:1047F000E15C02E2E16AE552E16E1050E552E7CF7A
:10480000D9FF1200949694981200D9CFE6FFE1CF19
:10481000D9FFE652DF6AFE0EDB50DF5C02E2DF2AE0
:10482000FAD7E552E552E7CFD9FF120082A8000C73
:10483000010C0001E45102E082888286829882960F
:10484000010EE46F12008298828682880001E46B78
:104850001200D9CFE6FFE1CFD9FF020EE126DF6AD1
:10486000DFCF10F0080EE76E1018E8AE02D0E73484
:1048700002D0E750105C0FE2FE0EDBBE02D0829841
:1048800001D0828882868296DB50020DFE0EF3CF25
:10489000DBFFDF2AE5D794888286C8DFE76E010E4A
:1048A000E7CFDBFF82969498DB50106E020EE15C3E
:1048B00002E2E16AE552E16E1050E552E7CFD9FF1E
:1048C0001200D9CFE6FFE1CFD9FF020EE126DF6A61
:1048D0009488010EDB6ADBCF10F0080EE76E10182B
:1048E000E8AE02D0E73402D0E750105C0BE28286DB
:1048F0009DDF106EDF50E8241010DF6E8296010EEF
:10490000DB2AE9D79498FE0EDB5002E0828801D0C2
:10491000829882868296DF50106E020EE15C02E27F
:10492000E16AE552E16E1050E552E7CFD9FF12007F
:10493000D9CFE6FFE1CFD9FF7CDFD00EE66E89DF6D
:10494000E552FE0EDBCFE6FF84DFE552FD0EDBCF46
:10495000E6FF2DDFE552E66E7CDFE55274DFE552BF
:10496000E7CFD9FF1200D9CFE6FFE1CFD9FFE6525A
:1049700060DFD00EE66E6DDFE552FE0EDBCFE6FFA8
:1049800068DFE55256DFD10EE66E63DFE552010EB9
:10499000E66E97DFE552DF6EDFCFE6FFE9DEE55238
:1049A000DF6E51DFDF50E552E552E7CFD9FF12004D
:1049B000D9CFE6FFE1CFD9FFFD0EDBCFE6FFFE0E3C
:1049C000DBCFE6FFB5DFE552E552E552E7CFD9FF91
:1049D0001200D9CFE6FFE1CFD9FFFE0EDBCFE6FF15
:0C49E000C2DFE552E552E7CFD9FF12001C
:0449EC002020200067
:1049F0004348414E4745204C4154452054494D457C
:104A0000002020004348414E47452054494D450071
:104A10003A00300050415353574F52442057524FA1
:104A20004E47202000434C45415220434845434BCC
:104A300020494E004E455854204944202020200053
:104A40005052455353202320544F20454E54455235
:104A500020004F50454E494E4720444F4F52202092
:104A6000202000562020202020005420202020201C
:104A70000048442020202020004C4F4720202020A8
:104A800020004E4557205057204944200052454DA4
:104A90004F564520434F4D504C45544500593A45DB
:104AA0004E544552004E3A4241434B0052454D4F01
:104AB00056452049442000342E2000332E20003259
:104AC0002E2000312E200050415353574F52443A6C
:104AD00020004E4557204944203A20005057204698
:104AE0004F522049442000312E4348414E47452033
:104AF0004D454D20505700322E52454D4F564520C2
:104B00004D454D42455200312E414444204D454DC6
:104B1000424552004348414E474520535543434583
:104B20005353004348414E47452041442050415390
:104B30005300312E4348414E4745204C2E54494D99
:104B40004500322E4348414E47452054494D4500CB
:104B5000312E434C45415220434845434B20494E5A
:104B600000322E435245415445204C4F4700312ED0
:104B70004D414E4147452055534552004348414E13
:104B800047452055534552205041535300322E4340
:104B900048414E4745205041535300312E4F504518
:104BA0004E20444F4F52002A0020005041535320C2
:104BB000464F522049442000496E76616C6964205A
:104BC00049442020202020200020202020202020B8
:104BD00020202020202000454E54455220494420CA
:104BE00020202020202020002020202020202020E5
:104BF00020202020202020200050524553532023E5
:104C000020464F52205041535300003000303000B6
:104C1000F28ED08EF28C1200F19CF292F288120089
:104C2000D8CFE4FFE0CFE4FFE46EDACFE4FFE2CFD9
:104C3000DAFFE9CFE4FFEACFE4FFF6CFE4FFF7CFF6
:104C4000E4FFF5CFE4FFF3CFE4FFF4CFE4FFFACFC6
:104C5000E4FF00EE00F0100EE80403E3EECFE4FF03
:104C6000FBD700EE10F00A0EE80403E3EECFE4FFFA
:104C7000FBD7E652F2A407D0C3EC1DF0F294C5ECCA
:104C80001DF06FEC1FF09EA007D0AEEC1EF09E90C2
:104C900068EC1EF07DEC1FF0A1A207D06DEC1FF0B8
:104CA000A19227EC1FF099EC1FF0F2B2F2929EBA9B
:104CB0009E9AE55200EE19F00A0EE80403E3E5CFF0
:104CC000EDFFFBD700EE0FF0100EE80403E3E5CF95
:104CD000EDFFFBD7E5CFFAFFE5CFF4FFE5CFF3FF1C
:104CE000E5CFF5FFE5CFF7FFE5CFF6FFE5CFEAFF2C
:104CF000E5CFE9FFE5CFDAFFE550E5CFE0FFE5CF0F
:104D0000D8FF1000DACFE4FFE2CFDAFFE9CFE4FF0B
:104D1000EACFE4FFF6CFE4FFF7CFE4FFF5CFE4FFFF
:104D2000F3CFE4FFF4CFE4FFFACFE4FF00EE00F0AE
:104D3000100EE80403E3EECFE4FFFBD700EE10F023
:104D40000A0EE80403E3EECFE4FFFBD7E652F2A439
:104D500007D0C3EC1DF0F294C5EC1DF06FEC1FF012
:104D60009EA007D0AEEC1EF09E9068EC1EF07DEC8D
:104D70001FF0A1A207D06DEC1FF0A19227EC1FF04D
:104D800099EC1FF0F2B2F2929EBA9E9AE55200EEB2
:104D900019F00A0EE80403E3E5CFEDFFFBD700EEC0
:104DA0000FF0100EE80403E3E5CFEDFFFBD7E5CFEE
:104DB000FAFFE5CFF4FFE5CFF3FFE5CFF5FFE5CF51
:104DC000F7FFE5CFF6FFE5CFEAFFE5CFE9FFE5CF57
:044DD000DAFF1100F5
:0C4DD400006A0EAEF3EF26F00D6C0E1E10
:104DE000E86A0E22001E09AEFBEF26F0086C091ED1
:104DF000E86A0922001E99EC28F009BE0BEF27F0A3
:104E000000AE000C086C091EE86A0922046C051E3D
:104E1000E86A0522000C00BE02EF27F00188FF0CB3
:104E2000006A0EAE1BEF27F00C6C0D1E0E1EE86A1A
:104E30000D220E22001E09AE25EF27F0076C081E7A
:104E4000091EE86A08220922001E7CEC28F009BE2F
:104E500038EF27F000AE000C076C081E091EE86A48
:104E600008220922036C041E051E04220522000CE0
:0A4E700000BE2CEF27F00188FF0CB4
:064E7A001E0EF66E000E94
:104E8000F76E000EF86E01010900F550FA6F090087
:104E9000F550FB6F03E1FA6701D03DD00900F550F2
:104EA000F56F0900F550F66F0900F550F76F09002E
:104EB0000900F550E96E0900F550EA6E0900090095
:104EC0000900F550F86F0900F550F96F0900090065
:104ED000F6CFFCF1F7CFFDF1F8CFFEF1F5C1F6FF0B
:104EE000F6C1F7FFF7C1F8FF0101F85302E1F953EA
:104EF00007E00900F550EE6EF807F8E2F907F9D778
:104F0000FCC1F6FFFDC1F7FFFEC1F8FF0101FA0782
:084F1000000EFB5BBFD712008D
:084F1800D9CFE6FFDACFE6FF76
:104F2000FA0EE3CFD9FFFB0EE3CFDAFFFC0EE3CF9F
:104F3000E9FFFD0EE3CFEAFFE9CFF3FFEACFF4FF8D
:104F4000E950D95CEA50DA580EE3F80EE35003E179
:104F5000F90EE35024E0F80EE30602E2F90EE30650
:104F6000DECFEEFFF2D7F80EE350D926F90EE3506C
:104F7000DA22DD52F80EE350E926F90EE350EA2278
:104F8000ED52F80EE35003E1F90EE35008E0F80E9D
:104F9000E30602E2F90EE306DDCFEDFFF2D7FF0EE6
:104FA000E3CFDAFFE552FF0EE3CFD9FFE55212005F
:104FB000010E926E0E0EC16EC26A040EC06EC280E9
:104FC0001200D9CFE6FFE1CFD9FF020EE126DE6A5B
:104FD000DD6AC282C2B2FED7C450DE6EDD6ADECFA9
:104FE00012F0DDCF13F0D89012361336D890123667
:104FF0001336060EC3CFE7FF070B04E0E742E79E38
:10500000E806FCE1E7501224106E000E132010C0D9
:10501000DEFFDD6EDECFE5F0DDCFE6F0DECF10F0B7
:10502000DDCF11F010C0F3FF11C0F4FF020EE15C00
:1050300002E2E16AE552E16EE552E7CFD9FF1200E4
:1050400006500B02F3CF02F0F4CF03F00C02F35042
:105050000326000EF420046E06500D02F3500426C1
:10506000000EF420056E06500E02F3500526075080
:105070000B02F3500326F4500422000E05220750C1
:105080000C02F3500426F450052207500D02F35091
:10509000052608500B02F3500426F4500522085050
:1050A0000C02F350052609500B02F350052612009E
:1050B000056A046A036A026A200EE76ED890063613
:1050C00007360836093602360336043605360B50E5
:1050D000025C0C5003580D5004580E50055809E35B
:1050E0000B50025E0C50035A0D50045A0E50055AD4
:0850F000062AE72EE4D71200A6
:0850F800056A046A036A180E40
:10510000E76ED8900736083609360336043605367A
:105110000C50035C0D5004580E50055807E30C501A
:10512000035E0D50045A0E50055A072AE72EEAD79F
:0251300012006B
:0E513200056A046A100EE76ED890083609363A
:10514000043605360D50045C0E50055805E30D502D
:0E515000045E0E50055A082AE72EF0D7120012
:02515E00800EC1
:10516000F36E00EE00F00F0E01D81200EA6002D0DC
:0E517000EE6AFCD7F350E9601200EE6AFCD73D
:02517E001EEE23
:1051800000F02EEE00F0F86A019C3DEC27F003ECF5
:0A51900000F04BEC22F0FBD71200F8
:06519A00056A080EE76E35
:1051A000D890093605360E50055C02E3056E092AD3
:0651B000E72EF7D7120004
:0A51B60000000000000000000000EF
:1051C00000000000000000000000000000000100DE
:0651D000010001000100D6
:0A51D60000000000000000000001CE
:1051E0000102034104050642070809432A00454419
:1051F0000000010203040506020100020708090776
:105200000802020003030303030302030004080669
:105210000802010200000000000000000000000081
:10522000000000000000000000000000000000007E
:10523000000000000000000000000000000000006E
:10524000000000000000000000000000000000005E
:105250000400040000000003090A0B17191A0800D3
:0A5260000D0E0F0A000000000316F7
:06526A00010204081020FF
:0A5270004080000000000000000074
:06527A000000000000002E
:10528000000010101010101010101818181818180E
:1052900018181C1C1C1C1C1C1C1C1E1E1E1E1E1E4A
:1052A0001E1E1F1F1F1F1F1F1F1F000000000000CA
:1052B00000000000000000000000000000000000EE
:1052C00000000000000000000000000000000000DE
:0B52D0000000000000000000000000D3
:0552DB00000000D000FE
:1052E0002222220725091000010000000000000012
:0752F00000000000000000B7
:0952F700010000000000000000AD
:03530000000000AA
:0D530300000000000000000000000000009D
:10531000000000000000000000000000000000008D
:0C53200000000010204080010204080082
:020000040030CA
:0100010002FC
:0100020003FA
:010003001EDE
:010005008179
:010006008178
:010008000FE8
:01000900C036
:01000A000FE6
:01000B00E014
:01000C000FE4
:01000D0040B2
:00000001FF
