:020000040000FA
:0600000024EF2DF01200B8
:020006001200E6
:06000800BAEF2AF012001D
:02000E000000F0
:020010000000EE
:0600180048EF2AF012007F
:02001E000800D8
:10002000D95B0000A001000029000000BD5B0000BA
:10003000E10000001C0000000E000000440F000062
:10004000040000005C5B0000800000006100000014
:100050004C5B00001A0F000010000000AC5A0000BA
:1000600000010000A0000000A05A00002A0F0000BC
:100070000C000000805A0000C901000020000000B0
:10008000D9CFE6FFE1CFD9FF060EE126DE6ADD6AB1
:10009000020EDB6A030EDB6A040EDB6A050EDB6A06
:1000A000DE6ADD6ADECF14F0DDCF15F0D890155092
:1000B00004E6080E145C000E155812E2DECFE9FFCC
:1000C000DDCFEAFFD890E936EA36F00EE926010ED8
:1000D000EA22EE68ED68DF2A010EE4E3DB2AE2D7CC
:1000E000DE6ADD6ADECF14F0DDCF15F001017A5152
:1000F000145C7B51155801E37BD0DECFE9FFDDCFE7
:10010000EAFF090EEA02F3CFEAFFE902F3CFE9FFC3
:10011000F450EA261A0EE926010EEA22080EE92614
:10012000000EEA22EFCF14F0FE0EDB50145C5AE111
:10013000020EDB2A030E01E3DB2A020EDBCF14F0F2
:10014000030EDBCF15F0FC0EDBCFE9FFFD0EDBCF9E
:10015000EAFFEECF16F0EFCF17F0030ED890163669
:100160001736E806FBE11450165C155017583AE2B2
:10017000DECFE9FFDDCFEAFF090EEA02F3CFEAFFA7
:10018000E902F3CFE9FFF450EA261A0EE926010E40
:10019000EA22EECF14F0EFCF15F0040EDBCFE9FF2B
:1001A000050EDBCFEAFFD890E936EA36F00EE926F5
:1001B000010EEA2214C0EEFF15C0EDFF040EDB2A8B
:1001C000050E01E3DB2A040EDBCF14F0050EDBCFB6
:1001D00015F0D890155004E6080E145C000E155862
:1001E00001E3C6D0DF2A010E01E27CD7DB2A7AD7F1
:1001F000FC0EDBCFE9FFFD0EDBCFEAFF000ED8805F
:10020000EE54000EED5401E3B3D0020EDBCF14F038
:10021000030EDBCF15F0FC0EDBCFE9FFFD0EDBCFCD
:10022000EAFFEECF16F0EFCF17F0030ED890163698
:100230001736E806FBE11450165C1550175801E21A
:1002400097D0FC0EDBCFE9FFFD0EDBCFEAFFEE6AB5
:10025000ED6A040EDB6A050EDB6A020EDB6A030E32
:10026000DB6ADE6ADD6ADECF14F0DDCF15F0010156
:100270007A51145C7B51155801E37AD0DECFE9FF47
:10028000DDCFEAFF090EEA02F3CFEAFFE902F3CF7E
:10029000E9FFF450EA261A0EE926010EEA22080EBA
:1002A000E926000EEA22EFCF14F0FE0EDB50145CBC
:1002B00059E1020EDB2A030E01E3DB2A020EDBCF3B
:1002C00014F0030EDBCF15F0FC0EDBCFE9FFFD0EC3
:1002D000DBCFEAFFEECF16F0EFCF17F0030ED8908A
:1002E00016361736E806FBE11450165C1550175801
:1002F00039E2DECFE9FFDDCFEAFF090EEA02F3CFF4
:10030000EAFFE902F3CFE9FFF450EA261A0EE926E4
:10031000010EEA22EECF14F0EFCF15F0040EDBCF82
:10032000E9FF050EDBCFEAFFD890E936EA36F00E9A
:10033000E926010EEA2214C0EEFF15C0EDFF040EFF
:10034000DB2A050E01E3DB2A040EDBCF14F0050ED9
:10035000DBCF15F0D890155004E6080E145C000EA3
:10036000155806E2DF2A010E01E27DD7DB2A7BD792
:10037000060EE15C02E2E16AE552E16EE552E7CF8A
:10038000D9FF1200D9CFE6FFE1CFD9FF020EE12657
:10039000DE6ADD6A50EC17F0DE6ADD6ADECF14F04B
:1003A000DDCF15F0D890155004E6080E145C000E51
:1003B000155801E3C7D0DECF14F0DDCF15F0D8908B
:1003C000155004E6040E145C000E155852E2DECF00
:1003D000E9FFDDCFEAFFD890E936EA36F00EE926EC
:1003E000010EEA22FF0EEE1814E1FF0EED1811E1E6
:1003F000DA0EE66E510EE66E040E086E096ADECF66
:100400000DF0DDCF0EF075EC2BF00650E66EE66ACF
:1004100057D0DECFE9FFDDCFEAFFD890E936EA36E4
:10042000F00EE926010EEA22EECF14F0EFCF15F020
:10043000166A176A15AE02D01668176814C0E6FF70
:1004400015C0E6FF16C0E6FF17C0E6FF040E086EF3
:10045000096ADECF0DF0DDCF0EF075EC2BF0065003
:10046000E66EE66A9EEC18F0186E060EE15E185015
:1004700063D0DECFE9FFDDCFEAFFD890E936EA3678
:10048000F00EE926010EEA22FF0EEE1820E1FF0E23
:10049000ED181DE1DA0EE66E510EE66EDECF14F0B9
:1004A000DDCF15F0040E145E000E155AD8901436E8
:1004B0001536D890143615361450E66E010EE66ED9
:1004C000C5EC19F0E552E552E552E55235D0DECFE4
:1004D000E9FFDDCFEAFFD890E936EA36F00EE926EB
:1004E000010EEA22EECF14F0EFCF15F0166A176A6C
:1004F00015AE02D01668176814C0E6FF15C0E6FFF7
:1005000016C0E6FF17C0E6FFDECF18F0DDCF19F00A
:10051000040E185E000E195AD89018361936D89065
:10052000183619361850E66E010EE66E9EEC18F07D
:100530001A6E060EE15E1A50DF2A010E01E22ED776
:10054000DB2A2CD7020EE15C02E2E16AE552E16EA1
:10055000E552E7CFD9FF1200D9CFE6FFE1CFD9FFAF
:10056000020EE126DE6ADD6ADE6ADD6ADECF14F0A5
:10057000DDCF15F001017A51145C7B5115582BE247
:10058000DECFE9FFDDCFEAFF090EEA02F3CFEAFF93
:10059000E902F3CFE9FFF450EA261A0EE926010E2C
:1005A000EA22EECF14F0EFCF15F0FD0EDB50141859
:1005B0000DE1FE0EDB50151809E1DECF14F0DDCFA2
:1005C00015F014C0F3FF15C0F4FF07D0DF2A010EA9
:1005D000CDE3DB2ACBD7F368F468020EE15C02E2DC
:1005E000E16AE552E16EE552E7CFD9FF1200D9CFBB
:1005F000E6FFE1CFD9FF020EE126DF6A060EDF5CDF
:100600002AE278C1E9FF79C1EAFF090EEA02F3CFD5
:10061000EAFFE902F3CFE9FFF450EA261A0EE926D1
:10062000010EEA22020EE926000EEA22DF50E9243A
:10063000E96E000EEA20EA6EEFCF14F0DF50EA6AAE
:10064000EA0FE96E010EEA22EF50145C02E0000EA0
:1006500003D0DF2AD3D7010E146E020EE15C02E252
:10066000E16AE552E16E1450E552E7CFD9FF12007E
:10067000D9CFE6FFE1CFD9FFF90EDBCF14F0FA0EA8
:10068000DBCF15F00A0E145C000E15582CE2F80EA4
:10069000DB50030828E1D70EE66E510EE66EFB0E26
:1006A000DBCFE6FFFD0EDBCFE6FFC5EC19F0E55230
:1006B000E552E552E552F90EDBCF14F0FA0EDBCF2E
:1006C00015F0166A176A14C0E6FF15C0E6FF16C0DB
:1006D000E6FF17C0E6FFFB0EDBCF18F0FC0EDBCF0A
:1006E00019F0020E45D0F90EDBCF14F0FA0EDBCF75
:1006F00015F00A0E145C000E155804E2F80EDB50DB
:1007000002080FE0F90EDBCF14F0FA0EDBCF15F084
:10071000640E145C000E155837E2F80EDB50030827
:1007200033E1D50EE66E510EE66EFB0EDBCFE6FF33
:10073000FD0EDBCFE6FFC5EC19F0E552E552E552C0
:10074000E552F90EDBCF14F0FA0EDBCF15F0166A86
:10075000176A14C0E6FF15C0E6FF16C0E6FF17C013
:10076000E6FFFB0EDBCF18F0FC0EDBCF19F0010E1D
:100770001824E66EFD0EDBCFE6FF9EEC18F01A6E35
:10078000060EE15E1A5028D0D40EE66E510EE66ECB
:10079000FD0EDBCFE6FFF0EC19F0E552E552E55235
:1007A000F90EDBCF14F0FA0EDBCF15F0166A176ADC
:1007B00014C0E6FF15C0E6FF16C0E6FF17C0E6FF4F
:1007C000FB0EDBCFE6FFFD0EDBCFE6FF9EEC18F065
:1007D000186E060EE15E1850E552E7CFD9FF120001
:1007E00050EC17F001017F6B806B956B866B8A6B09
:1007F000906B936B766B776B1200D9CFE6FFE1CFEE
:10080000D9FF030EE126DE6ADD6A000E0101056FE5
:10081000066B076F086B036F046BDE6ADD6ADECF61
:1008200014F0DDCF15F07A51145C7B5115582FE28E
:10083000DECFE9FFDDCFEAFF090EEA02F3CFEAFFE0
:10084000E902F3CFE9FFF450EA261A0EE926010E79
:10085000EA22080EE926000EEA22020EEFCFDBFFA5
:10086000DB50020A0CE0030A06E0010A0BE1032B4D
:10087000000E042307D0072B000E082303D0052BFE
:10088000000E0623DF2A010ECAE3DB2AC8D7030EB7
:10089000E15C02E2E16AE552E16EE552E7CFD9FFA1
:1008A0001200D9CFE6FFE1CFD9FF020EE126DE6AC2
:1008B000DD6ADE6ADD6ADECF14F0DDCF15F00101FE
:1008C0007A51145C7B5115581CE2DECFE9FFDDCF75
:1008D000EAFF090EEA02F3CFEAFFE902F3CFE9FFEC
:1008E000F450EA261A0EE926010EEA22080EE9263D
:1008F000000EEA22020EEF6EDF2A010EDCE3DB2A95
:10090000DAD7020EE15C02E2E16AE552E16EE552FD
:10091000E7CFD9FF1200E66AD9EC26F0E552010EC6
:10092000E66E01EC27F0E5521200E66A01EC27F0D2
:10093000E552010EE66ED9EC26F0E5521200E66AA9
:1009400001EC27F0E552010EE66E01EC27F0E552CE
:100950001200D9CFE6FFE1CFD9FFE652DF6ADF50C0
:100960000F081AE3EA6ADF34FE0BEA36E96EA00EDE
:10097000E926010EEA22010EEE180CE1ED500AE123
:10098000DF50EA6A0A0FE96E010EEA22EFCFE9F1C1
:10099000010E03D0DF2AE3D7000EE552E552E7CF80
:1009A000D9FF12000101010EBC1903E1BD5101E1A3
:1009B000010C000C0101010EB81903E1B95101E16C
:1009C000010C000CD9CFE6FFE1CFD9FF020EE126E2
:1009D00001017E51040A02E1C0EF12F01C0A02E19B
:1009E00091EF12F01B0A02E109EF12F0190A02E17D
:1009F000E6EF11F0030A02E1C7EF11F0060A02E187
:100A00005CEF11F0080A02E13EEF11F00A0A02E180
:100A100004EF11F0010A02E1CAEF10F0070A02E147
:100A200091EF10F0100A02E1FAEF0FF0150A02E15F
:100A300074EF0FF00A0A02E134EF0FF0070A02E147
:100A4000A7EF0EF01C0A02E12DEF0DF01D0A02E1E6
:100A5000C1EF0CF0030A02E148EF0CF01F0A02E1BB
:100A6000CEEF0AF01E0A02E1FDEF09F01D0A02E1D5
:100A700078EF09F0070A01E194D3060A01E149D3AE
:100A8000050A01E1DED2010A01E15AD21E0A01E1A2
:100A9000F1D1030A01E186D1170A01E170D1030AFD
:100AA00001E1E8D0060A01E1CCD0010A01E1AED0B3
:100AB000030A2EE0050A02E0D6EF12F0C30EE66E3E
:100AC000510EE66EE66AE66AC5EC19F0E552E552AB
:100AD000E552E552B20EE66E510EE66EE66A010E82
:100AE000E66EC5EC19F0E552E552E552E55269ECC7
:100AF0001AF00101010E096F55DF000902E1D6EF7E
:100B000012F06EDE0101746B756B050EC5EF11F00E
:100B10007F2B000E8023A10EE66E510EE66EE66A74
:100B2000E66AC5EC19F0E552E552E552E55211DFEF
:100B3000000933E0410E0101E95D14E10101775143
:100B4000000828E20A0E0D6E0E6A74C108F075C125
:100B500009F0FEEC2CF008C074F109C075F1010138
:100B6000770718D00A0EE95D15E274C114F075C15B
:100B700015F00A0E1502F3CF15F01402F3CF14F09E
:100B8000F4501526E9510101F324746F000E15206D
:100B9000756F772B01017F6B806B77C1E6FF74C1A6
:100BA000E6FF75C1E6FF000EE66EE66A010EE66E30
:100BB000E66A5EDD146E070EE15E1450930EE66E7B
:100BC000510EE66E030EE66E010EE66EC5EC19F0F0
:100BD000E552E552E552E552030E0101775D03E26D
:100BE000E1DE000904E0FCDD0101060E7E6FE2DEBD
:100BF000000902E001017E6B01012C0E7F5D010EF8
:100C0000805902E2D6EF12F0BEEF12F07F6B806BDC
:100C100074C1E6FF75C1E6FF9FDCE552E552F3CFF4
:100C200078F1F4CF79F10101F31C01E1791D06E0BF
:100C3000010E7E6F50EC17F0D6EF12F0070EC5EFE5
:100C400011F07F2B000E8023820EE66E510EE66EB1
:100C5000E66AE66AC5EC19F0E552E552E552E5525E
:100C60000101280E7F5D000E805902E2D6EF12F0DE
:100C7000BEEF12F0750EE66E510EE66EE66AE66A9B
:100C8000C5EC19F0E552E552E552E55278C1E9FFAD
:100C900079C1EAFF090EEA02F3CFEAFFE902F3CFD6
:100CA000E9FFF450EA261A0EE926010EEA22EECFF9
:100CB00014F0EFCF15F0166A176A14C0E6FF15C0DE
:100CC000E6FF16C0E6FF17C0E6FF0D0EE66EE66A09
:100CD0009EEC18F0186E060EE15E185001017F2B95
:100CE000000E802336DE000936E0410E0101E95D89
:100CF00014E10101765100082BE27607730EE66ECF
:100D0000510EE66E76C1E6FF010EE66EC5EC19F0F7
:100D1000E552E552E552E5521BD00A0EE95D18E2B4
:100D2000710EE66E510EE66E76C1E6FF010EE66EBE
:100D3000C5EC19F0E552E552E552E5520101765154
:100D4000EA6AEA0FE96E010EEA22E9C1EFFF762BAB
:100D500001017F6B806B060E0101765D02E3020EDE
:100D60007E6F2C0E7F5D010E805901E37E6B22DECB
:100D7000000902E1D6EF12F00101BEEF12F07F6B25
:100D8000806B766B34DC000909E001017851791140
:100D900002E1F8EF0FF0150EC5EF11F00101040E9E
:100DA000C5EF11F07F2B000E80239951010A10E04E
:100DB000010A23E1610EE66E510EE66EE66AF0EC82
:100DC00019F0E552E552E552510EE66E510E0DD086
:100DD000410EE66E510EE66EE66AF0EC19F0E55251
:100DE000E552E552310EE66E510EE66E010EE66EEC
:100DF000F0EC19F0E552E552E552D4DD000909E0C6
:100E00000101992B020E995D02E3010E996F7F6B30
:100E1000806BD0DD00090DE001019951000802E36B
:100E20007E6B07D09907000E995D01E2996B7F6B8D
:100E3000806B0101010EBA190CE1BB510AE10101FD
:100E40009951EA6A970FE96E010EEA22EFCF7EF11F
:100E5000C7DC7FDD000903E001017F6B806B0101CE
:100E60002C0ED8807F55010E805502E3D6EF12F08C
:100E7000BEEF12F07F2B000E8023200EE66E510E87
:100E8000E66EE66AF0EC19F0E552E552E55261DDF6
:100E900000093AE0410E0101E95D14E101017651DA
:100EA00000082FE27607730EE66E510EE66E76C1ED
:100EB000E6FF010EE66EC5EC19F0E552E552E5528B
:100EC000E5521FD00A0EE95D1CE2060E0101765DB7
:100ED00018E2710EE66E510EE66E76C1E6FF010E67
:100EE000E66EC5EC19F0E552E552E552E552010116
:100EF0007651EA6AEA0FE96E010EEA22E9C1EFFFD4
:100F0000762B01017F6B806B4DDD000907E0060E3B
:100F10000101765D03E30C0E7E6F62DC4BDD0009A0
:100F200004E00101150E7E6F5BDC01012C0ED88000
:100F30007F55010E805502E3D6EF12F0BEEF12F09E
:100F40007F2B000E80238651040A2CE0070A1CE048
:100F5000010A16E0030A10E0010A39E1610EE66EAB
:100F6000510EE66EE66AF0EC19F0E552E552E552F4
:100F7000510EE66E510E23D0410EE66E510E07D093
:100F8000000EE66E510E03D0F00EE66E500EE66EC9
:100F9000E66AF0EC19F0E552E552E552100EE66E05
:100FA000510E0DD0E00EE66E500EE66EE66AF0ECE5
:100FB00019F0E552E552E552310EE66E510EE66E3D
:100FC000010EE66EF0EC19F0E552E552E552EADC6E
:100FD000000909E00101862B050E865D02E3040E7F
:100FE000866F7F6B806BE6DC000909E001018651AA
:100FF000000802E37E6B03D086077F6B806B0101E4
:10100000010EBA190DE1BB510BE101018651EA6AEB
:10101000810FE96E010EEA22EFCF7EF1F0EC03F0D2
:1010200098DC000903E001017F6B806B01012C0E4D
:10103000D8807F55010E805502E3D6EF12F0BEEF47
:1010400012F07F2B000E8023D10EE66E500EE66E5E
:10105000E66AF0EC19F0E552E552E5527ADC000957
:101060003AE0410E0101E95D14E101017651000809
:101070002FE27607730EE66E510EE66E76C1E6FF3E
:10108000010EE66EC5EC19F0E552E552E552E55267
:101090001FD00A0EE95D1CE2060E0101765D18E222
:1010A000710EE66E510EE66E76C1E6FF010EE66E3B
:1010B000C5EC19F0E552E552E552E55201017651D1
:1010C000EA6AEA0FE96E010EEA22E9C1EFFF762B28
:1010D00001017F6B806B66DC000908E0060E0101F0
:1010E000765D04E30C0E7E6FF0EC03F063DC000928
:1010F00005E00101080E7E6FF0EC03F001012C0EFB
:10110000D8807F55010E805502E3D6EF12F0BEEF76
:1011100012F07F2B000E8023C20EE66E500EE66E9C
:10112000E66AF0EC19F0E552E552E5520101010ED4
:101130007F192CE180512AE1060EE66EE66AEA0E7E
:10114000E66E010EE66E78C1E9FF79C1EAFF090E8D
:10115000EA02F3CFEAFFE902F3CFE9FFF450EA260F
:101160001A0EE926010EEA22020EE926000EEA22F4
:10117000E9CF14F0EACF15F0E9CFE6FFEACFE6FFBA
:10118000F1EC2BF0166E060EE15E16500101280EF2
:10119000D8807F55000E805502E3D6EF12F0BEEFE7
:1011A00012F07F2B000E80238A51020A20E0030AEE
:1011B00010E0010A31E1B20EE66E500EE66EE66A0C
:1011C000F0EC19F0E552E552E552510EE66E510E83
:1011D0001BD0A20EE66E500EE66EE66AF0EC19F039
:1011E000E552E552E552100EE66E510E0DD0920E0C
:1011F000E66E500EE66EE66AF0EC19F0E552E55246
:10120000E552310EE66E510EE66E010EE66EF0EC22
:1012100019F0E552E552E552D2EC04F0000909E07C
:1012200001018A2B030E8A5D02E3020E8A6F7F6B37
:10123000806BDAEC04F000090CE001018A5100082F
:1012400005E3080E7E6FF0EC03F003D08A077F6B96
:10125000806B0101010EBA1940E1BB513EE1010171
:101260008A51EA6A870FE96E010EEA22EFCF7EF11A
:10127000F0EC03F07AC116F07BC117F01606000EF1
:10128000175A0001176A030E16161650171010E1B0
:101290007AC114F07BC115F01406000E155A020E27
:1012A0000F0B19E0D89015321432E806FBE113D089
:1012B0007AC114F07BC115F01406000E155A020E07
:1012C0000F0B05E0D89015321432E806FBE1010E51
:1012D0001426000E152214C094F101012C0ED880A2
:1012E0007F55010E805502E3D6EF12F0F8EF0FF0B4
:1012F0007F2B000E8023870EE66E500EE66EE66AA8
:10130000E66AC5EC19F0E552E552E552E5527CC1BA
:1013100014F07DC115F0166A176A7CC1E6FF7DC125
:10132000E6FF16C0E6FF17C0E6FF0A0EE66EE66AA5
:101330009EEC18F0186E060EE15E1850A9EC04F051
:1013400000093AE0410E0101E95D14E10101765125
:1013500000082FE27607730EE66E510EE66E76C138
:10136000E6FF010EE66EC5EC19F0E552E552E552D6
:10137000E5521FD00A0EE95D1CE2060E0101765D02
:1013800018E2710EE66E510EE66E76C1E6FF010EB2
:10139000E66EC5EC19F0E552E552E552E552010161
:1013A0007651EA6AEA0FE96E010EEA22E9C1EFFF1F
:1013B000762B01017F6B806BD2EC04F0000908E012
:1013C000060E0101765D04E3100E7E6FF0EC03F073
:1013D000DAEC04F0000905E001010A0E7E6FF0EC82
:1013E00003F001012C0ED8807F55010E805502E3D9
:1013F000D6EF12F0080E8DEF12F07F2B000E802337
:101400007D0EE66E500EE66EE66AE66AC5EC19F0F1
:10141000E552E552E552E552720EE66E500EE66E6A
:10142000E66A010EE66EC5EC19F0E552E552E552AA
:10143000E5520101010E7F1901E08BD0805101E0DE
:1014400088D0DE6ADD6A7AC1E9FF7BC1EAFF090E56
:10145000EA02F3CFEAFFE902F3CFE9FFF450EA260C
:101460001A0EE926010EEA227CC1EEFF7DC1EDFFD6
:10147000DE6ADD6ADECF14F0DDCF15F0D8901550AE
:1014800004E6060E145C000E155846E2DECFE9FFB6
:10149000DDCFEAFFEA0EE926010EEA22EF50E66E02
:1014A0007AC1E9FF7BC1EAFF090EEA02F3CFEAFF46
:1014B000E902F3CFE9FFF450EA261A0EE926010EFD
:1014C000EA22020EE926000EEA22DE50E924E96E45
:1014D000DD50EA20EA6EE552E750EF6EDECFE9FF1D
:1014E000DDCFEAFFEA0EE926010EEA22EF50300FC7
:1014F000E66EDECF14F0DDCF15F00A0E1424E66E92
:10150000010EE66E73EC18F0E552E552E552DF2A63
:10151000010EB0E3DB2AAED77AC1E9FF7BC1EAFF57
:10152000090EEA02F3CFEAFFE902F3CFE9FFF45034
:10153000EA261A0EE926010EEA22080EE926000E16
:10154000EA22020EEF6E01017C2B000E7D237A2B26
:101550007B237CC114F07DC115F01406000E155AD2
:10156000166A176A14C0E6FF15C0E6FF16C0E6FF4C
:1015700017C0E6FF090EE66EE66A9EEC18F0186EDC
:10158000060EE15E18500101280ED8807F55000E2E
:10159000805502E3D6EF12F072EF0FF07F2B000EB2
:1015A0008023040E9503F328146E7A51145C000E08
:1015B0007B5530E26E0EE66E500EE66EE66AE66A27
:1015C000C5EC19F0E552E552E552E552040E010171
:1015D0009503F328090DF3CFE9FFF4CFEAFF1A0EC4
:1015E000E926010EEA22EECF14F0EFCF15F0166ACD
:1015F000176A14C0E6FF15C0E6FF16C0E6FF17C065
:10160000E6FF030EE66EE66A9EEC18F0186E060E14
:10161000E15E1850040E01019503F350020F146EA1
:101620007A51145C000E7B5532E26A0EE66E500E63
:10163000E66E080EE66EE66AC5EC19F0E552E55274
:10164000E552E552040E01019503F350020F090D16
:10165000F3CFE9FFF4CFEAFF1A0EE926010EEA22E2
:10166000EECF14F0EFCF15F0166A176A14C0E6FF3C
:1016700015C0E6FF16C0E6FF17C0E6FF0B0EE66ECC
:10168000E66A9EEC18F0186E060EE15E1850040E25
:1016900001019503F350030F146E7A51145C000E90
:1016A0007B5533E2660EE66E500EE66EE66A010E7C
:1016B000E66EC5EC19F0E552E552E552E552040E2E
:1016C00001019503F350030F090DF3CFE9FFF4CFA8
:1016D000EAFF1A0EE926010EEA22EECF14F0EFCF50
:1016E00015F0166A176A14C0E6FF15C0E6FF16C0AB
:1016F000E6FF17C0E6FF030EE66E010EE66E9EECF7
:1017000018F0186E060EE15E1850040E01019503E4
:10171000F350040F146E7A51145C000E7B5534E2C2
:10172000620EE66E500EE66E080EE66E010EE66E76
:10173000C5EC19F0E552E552E552E552040E0101FF
:101740009503F350040F090DF3CFE9FFF4CFEAFF3F
:101750001A0EE926010EEA22EECF14F0EFCF15F0B3
:10176000166A176A14C0E6FF15C0E6FF16C0E6FF4A
:1017700017C0E6FF0B0EE66E010EE66E9EEC18F04B
:10178000186E060EE15E1850D2EC04F000090FE06E
:1017900001019529146E94C10EF0096E32EC2DF002
:1017A00005C095F150EC17F001017F6B806BDAEC0E
:1017B00004F0000905E001010A0E7E6FF0EC03F071
:1017C000A9EC04F000095AE00101E9050EE1040E5C
:1017D00001019503F328146E7A51145C000E7B55B9
:1017E00004E2040E9503F3283ED0020E0101E95DE8
:1017F00010E1040E01019503F350020F146E7A51AB
:10180000145C000E7B5505E2040E9503F350020FA5
:101810002AD0030E0101E95D10E1040E01019503D8
:10182000F350030F146E7A51145C000E7B5505E2E1
:10183000040E9503F350030F16D0040E0101E95D69
:1018400010E1040E01019503F350040F146E7A5158
:10185000145C000E7B5505E2040E9503F350040F53
:1018600002D001010F0E966F0F0E965D04E0110E6F
:101870007E6FF0EC03F001017F6B806B01012C0E99
:10188000D8807F55010E805502E3D6EF12F02AD39F
:101890007F2B000E8023570EE66E500EE66EE66A32
:1018A000E66AC5EC19F0E552E552E552E552010150
:1018B0009651090DF3CFE9FFF4CFEAFF1A0EE9269E
:1018C000010EEA22EECF14F0EFCF15F0166A176A78
:1018D00014C0E6FF15C0E6FF16C0E6FF17C0E6FF1E
:1018E0000A0EE66EE66A9EEC18F0186E060EE15ED1
:1018F00018503F0EE66E0F0EE66EE66A73EC18F0B7
:10190000E552E552E552500EE66E500EE66EE66A7E
:10191000010EE66EC5EC19F0E552E552E552E552CE
:10192000480EE66E500EE66E080EE66E010EE66E8E
:10193000C5EC19F0E552E552E552E552D2EC04F05F
:10194000000905E0F0EC03F00101120E7E6FDAEC05
:1019500004F0000905E0F0EC03F001010E0E7E6FCB
:10196000A9EC04F0000903E001017F6B806B010129
:101970002C0ED8807F55010E805502E3D6EF12F071
:1019800066D07F2B000E8023380EE66E500EE66E7A
:10199000E66AE66AC5EC19F0E552E552E552E55211
:1019A0000101010E7F194BE1805149E19651166EFC
:1019B000176A16507A5D146E17507B59156E14060F
:1019C000000E155A090E1502F3CF15F01402F3CFCD
:1019D00014F0F4501526F3CFE6FF15C0E6FF96513C
:1019E000090DF3CF18F0F4CF19F01A0E1826010ED6
:1019F0001922090E1826000E192218C0E6FF19C078
:101A0000E6FF9651090DF3CF1AF0F4CF1BF01A0E32
:101A10001A26010E1B221AC0E6FF1BC0E6FFF1ECDE
:101A20002BF01C6E060EE15E1C500101000ED880EA
:101A30007A55000E7B5503E27A07000E7B5B280E79
:101A4000D8807F55000E805502E3D6EF12F0F0ECFF
:101A500003F001010A0EC5EF11F07F2B000E802369
:101A6000040E9503F328146E7A51145C000E7B5516
:101A700030E26E0EE66E500EE66EE66AE66AC5EC81
:101A800019F0E552E552E552E552040E01019503C5
:101A9000F328090DF3CFE9FFF4CFEAFF1A0EE92688
:101AA000010EEA22EECF14F0EFCF15F0166A176A96
:101AB00014C0E6FF15C0E6FF16C0E6FF17C0E6FF3C
:101AC000030EE66EE66A9EEC18F0186E060EE15EF6
:101AD0001850040E01019503F350020F146E7A5151
:101AE000145C000E7B5532E26A0EE66E500EE66E16
:101AF000080EE66EE66AC5EC19F0E552E552E552CD
:101B0000E552040E01019503F350020F090DF3CFC6
:101B1000E9FFF4CFEAFF1A0EE926010EEA22EECF22
:101B200014F0EFCF15F0166A176A14C0E6FF15C05F
:101B3000E6FF16C0E6FF17C0E6FF0B0EE66EE66A8C
:101B40009EEC18F0186E060EE15E1850040E0101AE
:101B50009503F350030F146E7A51145C000E7B55FD
:101B600033E2660EE66E500EE66EE66A010EE66E33
:101B7000C5EC19F0E552E552E552E552040E0101BB
:101B80009503F350030F090DF3CFE9FFF4CFEAFFFC
:101B90001A0EE926010EEA22EECF14F0EFCF15F06F
:101BA000166A176A14C0E6FF15C0E6FF16C0E6FF06
:101BB00017C0E6FF030EE66E010EE66E9EEC18F00F
:101BC000186E060EE15E1850040E01019503F350E5
:101BD000040F146E7A51145C000E7B5534E2620ED1
:101BE000E66E500EE66E080EE66E010EE66EC5EC71
:101BF00019F0E552E552E552E552040E0101950354
:101C0000F350040F090DF3CFE9FFF4CFEAFF1A0EEA
:101C1000E926010EEA22EECF14F0EFCF15F0166A96
:101C2000176A14C0E6FF15C0E6FF16C0E6FF17C02E
:101C3000E6FF0B0EE66E010EE66E9EEC18F0186ED7
:101C4000060EE15E1850D2EC04F000090FE001012D
:101C50009529146E94C10EF0096E32EC2DF005C07A
:101C600095F150EC17F001017F6B806BDAEC04F01A
:101C7000000905E001010A0E7E6FF0EC03F0A9EC0B
:101C800004F000095AE00101E9050EE1040E01012A
:101C90009503F328146E7A51145C000E7B5504E210
:101CA000040E9503F3283ED0020E0101E95D10E118
:101CB000040E01019503F350020F146E7A51145C67
:101CC000000E7B5505E2040E9503F350020F2AD057
:101CD000030E0101E95D10E1040E01019503F350CB
:101CE000030F146E7A51145C000E7B5505E2040E4E
:101CF0009503F350030F16D0040E0101E95D10E1C6
:101D0000040E01019503F350040F146E7A51145C14
:101D1000000E7B5505E2040E9503F350040F02D02C
:101D200001010F0E966F0F0E965D04E0130E7E6F8D
:101D3000F0EC03F001017F6B806B01012C0ED88069
:101D40007F55010E805502E3D6EF12F0CBD07F2BEA
:101D5000000E80232D0EE66E500EE66EE66AE66AF1
:101D6000C5EC19F0E552E552E552E55201019651F4
:101D7000090DF3CFE9FFF4CFEAFF1A0EE926010EB1
:101D8000EA22EECF14F0EFCF15F0166A176A14C0EE
:101D9000E6FF15C0E6FF16C0E6FF17C0E6FF0B0E14
:101DA000E66EE66A9EEC18F0186E060EE15E1850BC
:101DB000A9EC04F000093AE0410E0101E95D14E1EB
:101DC0000101765100082FE27607730EE66E510E80
:101DD000E66E76C1E6FF010EE66EC5EC19F0E5523F
:101DE000E552E552E5521FD00A0EE95D1CE2060EEF
:101DF0000101765D18E2710EE66E510EE66E76C157
:101E0000E6FF010EE66EC5EC19F0E552E552E5522B
:101E1000E55201017651EA6AEA0FE96E010EEA2203
:101E2000E9C1EFFF762B01017F6B806BD2EC04F0F0
:101E3000000908E0060E0101765D04E3140E7E6FD2
:101E4000F0EC03F0DAEC04F0000905E001010F0EFC
:101E50007E6FF0EC03F001012C0ED8807F55010E4F
:101E6000805501E3A3D33ED07F2B000E8023C20E0A
:101E7000E66E500EE66EE66AF0EC19F0E552E552B9
:101E8000E5520101010E7F1925E1805123E1060E83
:101E9000E66EE66AEA0EE66E010EE66E9651090DF2
:101EA000F3CFE9FFF4CFEAFF1A0EE926010EEA228A
:101EB000020EE926000EEA22E9CF14F0EACF15F06F
:101EC000E9CFE6FFEACFE6FFF1EC2BF0166E060E47
:101ED000E15E16500101280ED8807F55000E805516
:101EE00001E364D30A0E19D37F2B000E8023905197
:101EF000040A2CE0070A1CE0010A16E0030A10E0BD
:101F0000010A39E11D0EE66E500EE66EE66AF0EC4F
:101F100019F0E552E552E552510EE66E510E23D00E
:101F20000D0EE66E500E07D0FD0EE66E4F0E03D07E
:101F3000ED0EE66E4F0EE66EE66AF0EC19F0E55235
:101F4000E552E552100EE66E510E0DD0DC0EE66E37
:101F50004F0EE66EE66AF0EC19F0E552E552E552F6
:101F6000310EE66E510EE66E010EE66EF0EC19F0E3
:101F7000E552E552E552D2EC04F0000909E0010116
:101F8000902B050E905D02E3040E906F7F6B806BCB
:101F9000DAEC04F000090CE001019051000805E3BF
:101FA000080E7E6FF0EC03F003D090077F6B806B20
:101FB0000101010EBA190DE1BB510BE10101905174
:101FC000EA6A8B0FE96E010EEA22EFCF7EF1F0ECA8
:101FD00003F0A9EC04F0000903E001017F6B806BC2
:101FE00001012C0ED8807F55010E805501E3DED211
:101FF000080ECBD17F2B000E8023010E7F1904E148
:10200000805102E1FDEC03F0D30EE66E4F0EE66E5A
:10201000E66AE66AC5EC19F0E552E552E552E5528A
:10202000CB0EE66E4F0EE66E080EE66EE66AC5EC67
:1020300019F0E552E552E552E55203C114F004C12E
:1020400015F0166A176A03C1E6FF04C1E6FF16C061
:10205000E6FF17C0E6FF0C0EE66EE66A9EEC18F08F
:10206000186E060EE15E1850C40EE66E4F0EE66E58
:10207000E66A010EE66EC5EC19F0E552E552E5524E
:10208000E55207C114F008C115F0166A176A07C1B6
:10209000E6FF08C1E6FF16C0E6FF17C0E6FF030E25
:1020A000E66E010EE66E9EEC18F0186E060EE15E0E
:1020B0001850BD0EE66E4F0EE66E080EE66E010E6F
:1020C000E66EC5EC19F0E552E552E552E55205C160
:1020D00014F006C115F0166A176A05C1E6FF06C1BD
:1020E000E6FF16C0E6FF17C0E6FF0C0EE66E010E17
:1020F000E66E9EEC18F0186E060EE15E1850DAECF3
:1021000004F0000905E001011E0E7E6FF0EC03F003
:1021100001012C0ED8807F55010E805501E346D277
:102120002DD27F2B000E8023010E7F190EE18051EE
:102130000CE19A0EE66E010EE66EE66A40EC00F0E7
:10214000E552E552E552C2EC01F0D2EC04F0000990
:1021500006E001019A2B000E9B237F6B806BDAEC6B
:1021600004F0000908E001011E0E7E6FF0EC03F0A0
:1021700001019A6B9B6B01012C0ED8807F55010EDB
:10218000805501E313D27E6BF0EC03F001019A6BF2
:102190009B6B0CD27F2B000E8023010E7F190FE169
:1021A00080510DE19C0EE66E010EE66E010EE66EAC
:1021B00040EC00F0E552E552E552C2EC01F0D2EC01
:1021C00004F0000906E001019C2B000E9D237F6BAB
:1021D000806BDAEC04F0000908E001011E0E7E6F4E
:1021E000F0EC03F001019C6B9D6B01012C0ED8807B
:1021F0007F55010E805501E3D9D17E6BF0EC03F0E1
:1022000001019C6B9D6BD2D17F2B000E8023010EB0
:102210007F190FE180510DE19E0EE66E010EE66E14
:10222000020EE66E40EC00F0E552E552E552C2ECDB
:1022300001F0D2EC04F0000906E001019E2B000E33
:102240009F237F6B806BDAEC04F0000908E001014A
:102250001E0E7E6FF0EC03F001019E6B9F6B01017F
:102260002C0ED8807F55010E805501E39FD17E6BE7
:10227000F0EC03F001019E6B9F6B98D17F2B000E59
:102280008023AE0EE66E4F0EE66EE66AF0EC19F0B5
:10229000E552E552E5520101010E7F1904E180513A
:1022A00002E151EC04F00101280E7F5D000E80591F
:1022B00001E27CD11E0E31D17F2B000E8023935181
:1022C000010A10E0010A23E19E0EE66E4F0EE66E53
:1022D000E66AF0EC19F0E552E552E552510EE66E71
:1022E000510E0DD08E0EE66E4F0EE66EE66AF0ECE5
:1022F00019F0E552E552E552310EE66E510EE66EEA
:10230000010EE66EF0EC19F0E552E552E552D2EC22
:1023100004F0000909E00101932B020E935D02E332
:10232000010E936F7F6B806BDAEC04F000090CE018
:1023300001019351000805E3080E7E6FF0EC03F0F5
:1023400003D093077F6B806B0101010EBA190DE179
:10235000BB510BE101019351EA6A910FE96E010E45
:10236000EA22EFCF7EF1F0EC03F0A9EC04F00009D3
:1023700003E001017F6B806B01012C0ED8807F553B
:10238000010E805501E312D1080E7E6F0FD17F2B15
:10239000000E80230CEC1CF0A9EC04F0000903E013
:1023A00001017F6B806BDAEC04F0000906E00101AB
:1023B0001F0E7E6F0F01010E2A6F01012C0ED880B7
:1023C0007F55010E805501E3F1D01ED07F2B000E0A
:1023D000802323EC1DF0A9EC04F0000903E00101C7
:1023E0007F6B806BDAEC04F0000906E001011F0E40
:1023F0007E6F0F01010E2A6F01012C0ED8807F55D0
:10240000010E805501E3D2D07E6B0F01010E2A6FC1
:10241000CDD07F2B000E8023010E7F1960E180510B
:102420005EE1E66A33EC2AF0E5520101026F010E2B
:10243000E66E33EC2AF0E5520101016F020EE66E02
:1024400033EC2AF0E5520101006F0F013151010117
:10245000D880005516E30F0131510101005D29E1DB
:102460000F0132510101D88001550BE30F013251A8
:102470000101015D1EE10F0133510101D8800255B8
:1024800018E278C1E9FF79C1EAFF090EEA02F3CF49
:10249000EAFFE902F3CFE9FFF450EA261A0EE92633
:1024A000010EEA22080EE926000EEA22010EEF6E66
:1024B00016D078C1E9FF79C1EAFF090EEA02F3CF2D
:1024C000EAFFE902F3CFE9FFF450EA261A0EE92603
:1024D000010EEA22080EE926000EEA22EF6A09053B
:1024E0000EE17D0EE66E4F0EE66EE66AE66AC5EC1C
:1024F00019F0E552E552E552E5528BEC04F001018A
:10250000095104E1180E7E6FF0EC03F00101280E72
:102510007F5D000E80594AE3180E7E6FF0EC03F0E9
:1025200045D07F2B000E80236B0EE66E4F0EE66EBD
:10253000E66AF0EC19F0E552E552E5525F0EE66E00
:102540004F0EE66E010EE66EF0EC19F0E552E55224
:10255000E5529FEC04F00101096BD2EC04F0000994
:1025600007E0F0EC03F00101050E7E6F746B756BF4
:102570000101640E7F5D000E805918E37E6B16D05A
:102580007F2B000E80234E0EE66E4F0EE66EE66A3F
:10259000E66AC5EC19F0E552E552E552E552010153
:1025A000280E7F5D000E805901E37E6B020EE15C18
:1025B00002E2E16AE552E16EE552E7CFD9FF12008F
:1025C000D9CFE6FFE1CFD9FF040EE126DE6ADD6A4E
:1025D000DECF14F0DDCF15F0166A176A15AE02D003
:1025E00016681768D950FB0FE96EFF0EDA20EA6E05
:1025F000EE50145CEE501558EE501658EE50175829
:102600001DE2020EDB6A030EDB6A020EDBCF14F062
:10261000030EDBCF15F0D890155004E6050E145CC0
:10262000000E155806E2020EDB2A030EEEE3DB2A4B
:10263000ECD7DF2A010ECCE3DB2ACAD7040EE15C1B
:1026400002E2E16AE552E16EE552E7CFD9FF1200FE
:10265000D9CFE6FFE1CFD9FF040EE126DE6ADD6ABD
:10266000DECF14F0DDCF15F0166A176A15AE02D072
:1026700016681768D950FB0FE96EFF0EDA20EA6E74
:10268000EE50145CEE501558EE501658EE50175898
:102690001DE2020EDB6A030EDB6A020EDBCF14F0D2
:1026A000030EDBCF15F0D890155004E6EE0E145C47
:1026B000000E155806E2020EDB2A030EEEE3DB2ABB
:1026C000ECD7DF2A010ECCE3DB2ACAD7040EE15C8B
:1026D00002E2E16AE552E16EE552E7CFD9FF12006E
:1026E000D9CFE6FFE1CFD9FF0F0E8116FE0EDB50EA
:1026F000F00B81128186010EE66EE66AE66AE66AF2
:10270000A7DFE552E552E552E5528196010EE66EED
:10271000E66AE66AE66A9CDFE552E552E552E55272
:102720000F0E8116FE0EDB38F00B81128186010E32
:10273000E66EE66AE66AE66A8BDFE552E552E55246
:10274000E5528196010EE66EE66AE66AE66A80DF89
:10275000E552E552E552E552E552E7CFD9FF1200C6
:10276000D9CFE6FFE1CFD9FFE652190EE66EE66A51
:10277000E66AE66A6DDFE552E552E552E5520F0E74
:102780008116F80E81160F0E8116300E8112818689
:10279000010EE66EE66AE66AE66A5ADFE552E5523F
:1027A000E552E5528196010EE66EE66AE66AE66A51
:1027B0004FDFE552E552E552E5520F0E8116300E1D
:1027C00081128186010EE66EE66AE66AE66A40DFFD
:1027D000E552E552E552E5528196010EE66EE66A53
:1027E000E66AE66A35DFE552E552E552E5520F0E3C
:1027F0008116300E81128186010EE66EE66AE66A67
:10280000E66A26DFE552E552E552E5528196010E71
:10281000E66EE66AE66AE66A1BDFE552E552E552D5
:10282000E5520F0E8116818A8186010EE66EE66AF8
:10283000E66AE66A0DDFE552E552E552E552819619
:10284000010EE66EE66AE66AE66A02DFE552E552E6
:10285000E552E552280EE66E43DFE5520C0EE66EB9
:102860003FDFE552E552E552E7CFD9FF1200D9CF5D
:10287000E6FFE1CFD9FF020EE126DF6A010EDB6A37
:1028800081940F0EE66EE66AE66AE66A99DEE55224
:10289000E552E552E5520F0E81128186E66EE66A38
:1028A000E66AE66A8DDEE552E552E552E5520F0E24
:1028B0008114E76E010EE7CFDBFF81960F0EE66E07
:1028C000E66AE66AE66A7CDEE552E552E552E552E2
:1028D0000F0E81128186E66EE66AE66AE66A70DEAF
:1028E000E552E552E552E5520F0E8114DF6E010EFE
:1028F000DB50DF128196010EE66EE66AE66AE66A52
:102900005FDEE552E552E552E552DF50146E020EED
:10291000E15C02E2E16AE552E16E1450E552E7CF74
:10292000D9FF1200D9CFE6FFE1CFD9FFE652DF6A27
:102930009EDFDF6EDFBEFCD7DF50E552E552E7CF0A
:10294000D9FF1200D9CFE6FFE1CFD9FF0F0E8116D4
:10295000FE0EDB5081128186050EE66EE66AE66A9F
:10296000E66A2EDEE552E552E552E5528196050E05
:10297000E66EE66AE66AE66A23DEE552E552E5526D
:10298000E552E552E7CFD9FF1200D9CFE6FFE1CFFC
:10299000D9FF8194050EE66EE66AE66AE66A10DE05
:1029A000E552E552E552E552FE0EDBCFE6FFCADF07
:1029B000E552FE0EDB38F00BE66EC4DFE552E55261
:1029C000E7CFD9FF1200D9CFE6FFE1CFD9FF81844D
:1029D000050EE66EE66AE66AE66AF2DDE552E55263
:1029E000E552E552FE0EDBCFE6FFACDFE552FE0E10
:1029F000DB38F00BE66EA6DFE5528194E552E7CFB7
:102A0000D9FF1200D9CFE6FFE1CFD9FFFE0EDBCF11
:102A1000E6FFD9DFE552E552E7CFD9FF1200D9CF63
:102A2000E6FFE1CFD9FFFE0EDBCFE6FFCCDFE552BC
:102A3000E552E7CFD9FF1200D9CFE6FFE1CFD9FFAA
:102A4000FD0EDBCFF6FFFE0EDBCFF7FF0800F550E3
:102A50000FE0FD0EDBCFF6FFDB2AFE0EDBCFF7FF2C
:102A600001E3DB2A0800F550E66ED9DFE552E8D72E
:102A7000E552E7CFD9FF1200D9CFE6FFE1CFD9FF6A
:102A8000E652FD0EDB500F0B146EFE0EDB50010BF9
:102A9000400DF3501424DF6E7F0EDF14800FDF6EC5
:102AA000DFCFE6FF72DFE552E552E552E7CFD9FF0F
:102AB0001200010EE66E69DFE552E66AE66ADCDFC7
:102AC000E552E5521200D9CFE6FFE1CFD9FF050E5E
:102AD000E126010EF36EDB6E020EDB6A030EDB6A8B
:102AE000040EDB6ADF6ADFCF14F0156A14BE1568C6
:102AF000FB0EDBCF16F0FC0EDBCF17F015501718CE
:102B0000E8AE02D0173404D01650145C1750155894
:102B10002DE2FD0EDBCF14F0FE0EDBCF15F0166AB2
:102B2000176A15AE02D016681768D950010FE96E02
:102B3000DACFEAFF14C00BF015C00CF016C00DF090
:102B400017C00EF0EECF06F0EECF07F0EECF08F094
:102B5000EFCF09F085EC2CF005C0EDFF04C0EDFFD0
:102B600003C0EDFF02C0EFFFDF2ABDD7010EDBCFB0
:102B700014F0020EDBCF15F0030EDBCF16F0040EBF
:102B8000DBCF17F014C006F015C007F016C008F030
:102B900017C009F0050EE15C02E2E16AE552E16E60
:102BA000E552E7CFD9FF1200D9CFE6FFE1CFD9FF39
:102BB000020EE126DF6AFB0EDBCF14F0FC0EDBCF4A
:102BC00015F0FD0EDBCF16F0FE0EDBCF17F0145024
:102BD00015101610171005E1300EE66E20DFE552D5
:102BE000F4D0D950FB0FE96EFF0EDA20EA6ED890D0
:102BF000030EEB50000A08E6000EEE5C000EEE58E5
:102C0000000EEE58000EEE5815E22D0EE66E07DFB0
:102C1000E552D950FB0FE96EFF0EDA20EA6E000E86
:102C2000EE6CEF1EEE22EF1EEE22EF1EEF22ED52B3
:102C3000ED52ED52DE52070EDD6E010EDBCF14F0C9
:102C4000000EE76E1418E8AE02D0143403D0E7503B
:102C5000D880145401E3B9D0010EDB04186E196A50
:102C600018BE196818C0E6FF19C0E6FF0A0EE66E26
:102C7000E66A29DFE552E552E552E55206C014F056
:102C800007C015F008C016F009C017F006C00BF019
:102C900007C00CF008C00DF009C00EF0FB0EDBCF32
:102CA00006F0FC0EDBCF07F0FD0EDBCF08F0FE0ECA
:102CB000DBCF09F0BDEC2CF006500710081009100E
:102CC00041E0010EDF6EDB041C6E1D6A1CBE1D6838
:102CD0001CC0E6FF1DC0E6FF0A0EE66EE66AF3DEE4
:102CE000E552E552E552E55206C018F007C019F06A
:102CF00008C01AF009C01BF006C00BF007C00CF0AA
:102D000008C00DF009C00EF0FB0EDBCF06F0FC0E84
:102D1000DBCF07F0FD0EDBCF08F0FE0EDBCF09F0B6
:102D2000BDEC2CF006C014F007C015F008C016F07A
:102D300009C017F0300E1426000E15221622172295
:102D4000145003D0DF5004E0300EE66E68DEE5522A
:102D5000010EDB04186E196A18BE196818C0E6FF68
:102D600019C0E6FF0A0EE66EE66AADDEE552E552F0
:102D7000E552E55206C014F007C015F008C016F081
:102D800009C017F0D950FB0FE96EFF0EDA20EA6E8A
:102D900006C00BF007C00CF008C00DF009C00EF023
:102DA000EECF06F0EECF07F0EECF08F0EFCF09F050
:102DB000BDEC2CF005C0EDFF04C0EDFF03C0EDFF3E
:102DC00002C0EFFF010EDB0638D7020EE15C02E223
:102DD000E16AE552E16EE552E7CFD9FF1200D9CFA3
:102DE000E6FFE1CFD9FFFD0EDBCFE6FFFE0EDBCF26
:102DF000E6FF42DEE552E552D950F90FE96EFF0ECB
:102E0000DA20EA6EEECFE6FFEECFE6FFEECFE6FF8A
:102E1000EFCFE6FFC9DEE552E552E552E552E55255
:102E2000E7CFD9FF1200D9CFE6FFE1CFD9FFFD0EE2
:102E3000DBCFE6FFFE0EDBCFE6FF1EDEE552E552FE
:102E4000FB0EDBCFE6FFFC0EDBCFE6FFF5DDE55248
:102E5000E552E552E7CFD9FF1200D9CFE6FFE1CF27
:102E6000D9FF40CF14F041CF15F0040ED89014369E
:102E70001536E806FBE1C10E1426000E152214508B
:102E80000F014225E96E15504321EA6EFE0EDBCF9D
:102E9000EFFF422B000E4323E552E7CFD9FF12008C
:102EA000D9CFE6FFE1CFD9FFE652DF6ADFCF14F0DA
:102EB000100EE76E1418E8AE02D0E73402D0E750E7
:102EC000145C18E2DFCFE9FFEA6AE9BEEA68C10EE6
:102ED000E926000EEA22200EEF6EDFCFE9FFEA6A54
:102EE000E9BEEA68D10EE926000EEA22200EEF6E56
:102EF000DF2ADCD7E552E552E7CFD9FF1200D9CF60
:102F0000E6FFE1CFD9FFE6520001C051030A52E0CB
:102F1000010A36E0030A1AE0010A67E1E66AE66A96
:102F2000ABDDE552E552DF6A080EDF5C0CE2DF50F4
:102F3000EA6AC10FE96E000EEA22EF50E66E6FDD1D
:102F4000E552DF2AF1D70001010E32D0080EE66EFD
:102F5000E66A92DDE552E552DF6A080EDF5C0DE2BB
:102F6000080EDF24EA6AC10FE96E000EEA22EF5074
:102F7000E66E55DDE552DF2AF0D70001020E18D0CB
:102F8000E66A010EE66E78DDE552E552DF6A080E6C
:102F9000DF5C0CE2DF50EA6AD10FE96E000EEA2234
:102FA000EF50E66E3CDDE552DF2AF1D70001030E5B
:102FB000C06F1CD0080EE66E010EE66E5DDDE552B8
:102FC000E552DF6A080EDF5C0DE2080EDF24EA6AD4
:102FD000D10FE96E000EEA22EF50E66E20DDE552D9
:102FE000DF2AF0D70001C06B01D0C06BE552E5527B
:102FF000E7CFD9FF1200D9CFE6FFE1CFD9FFE652E4
:103000000001C051010A1BE0010A32E1E66AE66AEA
:1030100033DDE552E552DF6A100EDF5C0CE2DF5073
:10302000EA6AC10FE96E000EEA22EF50E66EF7DCA5
:10303000E552DF2AF1D70001010EC06F1AD0E66A0F
:10304000010EE66E19DDE552E552DF6A100EDF5C17
:103050000CE2DF50EA6AD10FE96E000EEA22EF506F
:10306000E66EDDDCE552DF2AF1D70001C06B01D04E
:10307000C06BE552E552E7CFD9FF1200D9CFE6FF8A
:10308000E1CFD9FFE652E66AE66AF6DCE552E552A0
:10309000DF6A100EDF5C0CE2DF50EA6AC10FE96EF6
:1030A000000EEA22EF50E66EBADCE552DF2AF1D7D5
:1030B000E66A010EE66EE0DCE552E552DF6A100ECC
:1030C000DF5C0CE2DF50EA6AD10FE96E000EEA2203
:1030D000EF50E66EA4DCE552DF2AF1D7E552E55267
:1030E000E7CFD9FF1200D9CFE6FFE1CFD9FFFE0E1F
:1030F000DB50010B0F01406F416BFD0EDB500F0BDE
:10310000426F436B40CF14F041CF15F0040ED890BE
:1031100014361536E806FBE1C10E1426000E152202
:1031200014500F014225E96E15504321EA6EFC0E42
:10313000DBCFEFFFE552E7CFD9FF1200D9CFE6FF93
:10314000E1CFD9FF020EE126DF6AFE0EDB50010B54
:103150000F01406F416BFD0EDB500F0B426F436B55
:10316000F90EDBCF14F0FA0EDBCF15F0FB0EDBCF40
:1031700016F0FC0EDBCF17F01450151016101710B8
:1031800005E1300EE66E69DEE552F5D0D950F90F53
:10319000E96EFF0EDA20EA6ED890030EEB50000ABB
:1031A00008E6000EEE5C000EEE58000EEE58000E23
:1031B000EE5815E22D0EE66E50DEE552D950F90FAD
:1031C000E96EFF0EDA20EA6E000EEE6CEF1EEE22C4
:1031D000EF1EEE22EF1EEF22ED52ED52ED52DE52C7
:1031E000070EDD6E010EDBCF14F0000EE76E141833
:1031F000E8AE02D0143403D0E750D880145401E371
:10320000BAD0010EDB04186E196A18BE196818C00E
:10321000E6FF19C0E6FF0A0EE66EE66A54DCE552E8
:10322000E552E552E55206C014F007C015F008C09B
:1032300016F009C017F006C00BF007C00CF008C06C
:103240000DF009C00EF0F90EDBCF06F0FA0EDBCF61
:1032500007F0FB0EDBCF08F0FC0EDBCF09F0BDEC76
:103260002CF0065007100810091041E0010EDF6E27
:10327000DB041C6E1D6A1CBE1D681CC0E6FF1DC061
:10328000E6FF0A0EE66EE66A1EDCE552E552E552FE
:10329000E55206C018F007C019F008C01AF009C0BE
:1032A0001BF006C00BF007C00CF008C00DF009C001
:1032B0000EF0F90EDBCF06F0FA0EDBCF07F0FB0EB7
:1032C000DBCF08F0FC0EDBCF09F0BDEC2CF006C024
:1032D00014F007C015F008C016F009C017F0300E42
:1032E0001426000E152216221722145003D0DF5088
:1032F00004E0300EE66EB1DDE552010EDB04186E1F
:10330000196A18BE196818C0E6FF19C0E6FF0A0E50
:10331000E66EE66A63EC15F0E552E552E552E552D9
:1033200006C014F007C015F008C016F009C017F069
:10333000D950F90FE96EFF0EDA20EA6E06C00BF0E5
:1033400007C00CF008C00DF009C00EF0EECF06F07B
:10335000EECF07F0EECF08F0EFCF09F0BDEC2CF088
:1033600005C0EDFF04C0EDFF03C0EDFF02C0EFFF9D
:10337000010EDB0637D7020EE15C02E2E16AE5529C
:10338000E16EE552E7CFD9FF1200D9CFE6FFE1CFDA
:10339000D9FFFE0EDB50010B0F01406F416BFD0E9C
:1033A000DB500F0B426F436BFB0EDBCFF6FFFC0EC7
:1033B000DBCFF7FF0800F5500FE0FB0EDBCFF6FF89
:1033C000DB2AFC0EDBCFF7FF01E3DB2A0800F55018
:1033D000E66E43DDE552E8D7E552E7CFD9FF1200AC
:1033E000D9CFE6FFE1CFD9FF020EE126DE6ADD6A22
:1033F000FE0EDB50010B0F01406F416B426B436BC4
:10340000DE6ADD6ADECF14F0DDCF15F0D8901550FE
:1034100004E6100E145C000E15581EE2FC0EDBCF05
:10342000F6FFFD0EDBCFF7FF0800F5500CE0FC0EB9
:10343000DBCFF6FFDB2AFD0EDBCFF7FF01E3DB2A54
:103440000800F55001D0200EE66E07DDE552DF2AB8
:10345000010ED8E3DB2AD6D7020EE15C02E2E16A74
:0C346000E552E16EE552E7CFD9FF120003
:04346C000F01320E0C
:103470002B6F3B0E2C6F170E2D6F120036EF1AF0CC
:103480000F012B29146E3C0E156E0E6E14C009F040
:1034900032EC2DF005C02BFF0F01055019E12C294E
:1034A000146E3C0E156E0E6E14C009F032EC2DF049
:1034B00005C02CFF0F0105500BE12D29146E180ECD
:1034C000156E0E6E14C009F032EC2DF005C02DFF04
:1034D00012000A0E0F012D5D1DE2010EE66E520E66
:1034E000E66E070EE66E010EE66EC5EC19F0E552CB
:1034F000E552E552E5522DCF14F0156A166A176AA7
:103500002DCFE6FF15C0E6FF16C0E6FF17C0E6FFA9
:10351000080E0ED02DCF14F0156A166A176A2DCF3B
:10352000E6FF15C0E6FF16C0E6FF17C0E6FF070E70
:10353000E66E010EE66E9EEC18F0186E060EE15E69
:103540001850FF0EE66E510EE66E090EE66E010E85
:10355000E66EC5EC19F0E552E552E552E5520A0E69
:103560000F012C5D1DE2010EE66E520EE66E0A0E94
:10357000E66E010EE66EC5EC19F0E552E552E55235
:10358000E5522CCF14F0156A166A176A2CCFE6FFA5
:1035900015C0E6FF16C0E6FF17C0E6FF0B0E0ED003
:1035A0002CCF14F0156A166A176A2CCFE6FF15C0E7
:1035B000E6FF16C0E6FF17C0E6FF0A0EE66E010E34
:1035C000E66E9EEC18F0186E060EE15E1850FF0EC7
:1035D000E66E510EE66E0C0EE66E010EE66EC5EC62
:1035E00019F0E552E552E552E5520A0E0F012B5D46
:1035F0001DE2010EE66E520EE66E0D0EE66E010E37
:10360000E66EC5EC19F0E552E552E552E5522BCFD6
:1036100014F0156A166A176A2BCFE6FF15C0E6FF8D
:1036200016C0E6FF17C0E6FF0E0E0ED02BCF14F02B
:10363000156A166A176A2BCFE6FF15C0E6FF16C09B
:10364000E6FF17C0E6FF0D0EE66E010EE66E9EEC7D
:1036500018F0186E060EE15E18501200D9CFE6FF82
:10366000E1CFD9FF0A0EF36EFE0EDBCFF4FFF3506D
:10367000F45C1EE2010EE66E520EE66E070EE66E7A
:10368000010EE66EC5EC19F0E552E552E552E55241
:10369000FE0EDBCF14F0156A166A176A14C0E6FF37
:1036A00015C0E6FF16C0E6FF17C0E6FF080E0FD0F4
:1036B000FE0EDBCF14F0156A166A176A14C0E6FF17
:1036C00015C0E6FF16C0E6FF17C0E6FF070EE66E60
:1036D000010EE66E9EEC18F0186E060EE15E1850B4
:1036E000FF0EE66E510EE66E090EE66E010EE66EF8
:1036F000C5EC19F0E552E552E552E5520A0EF36EBB
:10370000FD0EDBCFF4FFF350F45C1EE2010EE66E1B
:10371000520EE66E0A0EE66E010EE66EC5EC19F06C
:10372000E552E552E552E552FD0EDBCF14F0156A85
:10373000166A176A14C0E6FF15C0E6FF16C0E6FF5A
:1037400017C0E6FF0B0E0FD0FD0EDBCF14F0156A8D
:10375000166A176A14C0E6FF15C0E6FF16C0E6FF3A
:1037600017C0E6FF0A0EE66E010EE66E9EEC18F03C
:10377000186E060EE15E1850FF0EE66E510EE66EF4
:103780000C0EE66E010EE66EC5EC19F0E552E55240
:10379000E552E5520A0EF36EFC0EDBCFF4FFF35058
:1037A000F45C1EE2010EE66E520EE66E0D0EE66E43
:1037B000010EE66EC5EC19F0E552E552E552E55210
:1037C000FC0EDBCF14F0156A166A176A14C0E6FF08
:1037D00015C0E6FF16C0E6FF17C0E6FF0E0E0FD0BD
:1037E000FC0EDBCF14F0156A166A176A14C0E6FFE8
:1037F00015C0E6FF16C0E6FF17C0E6FF0D0EE66E29
:10380000010EE66E9EEC18F0186E060EE15E185082
:10381000E552E7CFD9FF12000F012A51060A01E154
:10382000F3D0030A01E1ACD0010A66E0070A1FE009
:10383000010A15E0030A01E0EFD0F30EE66E510E27
:10384000E66EE66AF0EC19F0E552E552E55241DE2B
:1038500041DA000901E1E2D00F01020EDED02BCFE8
:1038600030FF2CCF2FFF2DCF2EFF030ED6D030CF21
:10387000E6FF2FCFE6FF2ECFE6FFF0DEE552E55262
:10388000E5520101A051A11117E1A251A31114E1C8
:103890000F010A0E345D000E35590EE2F00EE66E91
:1038A000510EE66E070EE66E010EE66EC5EC19F0DF
:1038B000E552E552E552E552D1D900090CE00F017D
:1038C0002E29146E180E156E0E6E14C009F032EC0F
:1038D0002DF005C02EFFE0D9000907E00F012E07EB
:1038E0002E51170802E2170E2E6FF4D9000901E1DC
:1038F00095D00F01040E91D030CFE6FF2FCFE6FF19
:103900002ECFE6FFABDEE552E552E5520101A051B4
:10391000A11117E1A251A31114E10F010A0E345DA8
:10392000000E35590EE2F00EE66E510EE66E0A0EEE
:10393000E66E010EE66EC5EC19F0E552E552E55271
:10394000E5528CD900090CE00F012F29146E3C0EB2
:10395000156E0E6E14C009F032EC2DF005C02FFF6D
:103960009BD9000907E00F012F072F513B0802E206
:103970003B0E2F6FAFD9000951E00F01050E4DD05E
:1039800030CFE6FF2FCFE6FF2ECFE6FF67DEE55212
:10399000E552E5520101A051A11117E1A251A31175
:1039A00014E10F010A0E345D000E35590EE2F00EDF
:1039B000E66E510EE66E0D0EE66E010EE66EC5EC7D
:1039C00019F0E552E552E552E55248D900090CE0FC
:1039D0000F013029146E3C0E156E0E6E14C009F0E6
:1039E00032EC2DF005C030FF57D9000907E00F0178
:1039F000300730513B0802E23B0E306F6BD90009B3
:103A00000DE00F01060E09D030CF2BFF2FCF2CFF7A
:103A10002ECF2DFF010E01D0010E2A6F010E0F01D6
:103A20003425346F000E3521356F140E0D6E0E6A7D
:103A300034CF08F035CF09F0FEEC2CF004C034FF91
:103A400005C035FF12000F012A51050A01E1ABD074
:103A5000010A65E0070A1EE0020A01E0E8D0DF0E75
:103A6000E66E510EE66EE66AF0EC19F0E552E552AC
:103A7000E55233CFE6FF32CFE6FF31CFE6FFEEDD92
:103A8000E552E552E55226D9000901E1D2D00F01F5
:103A9000030ECED033CFE6FF32CFE6FF31CFE6FFC5
:103AA000DDDDE552E552E5520101A051A11117E11A
:103AB000A251A31114E10F010A0E345D000E355915
:103AC0000EE2F00EE66E510EE66E070EE66E010E89
:103AD000E66EC5EC19F0E552E552E552E552BED866
:103AE00000090CE00F013129146E180E156E0E6ED0
:103AF00014C009F032EC2DF005C031FFCDD800091B
:103B000007E00F0131073151170802E2170E316F3C
:103B1000E1D8000901E18DD00F01040E89D033CF27
:103B2000E6FF32CFE6FF31CFE6FF98DDE552E55202
:103B3000E5520101A051A11117E1A251A31114E115
:103B40000F010A0E345D000E35590EE2F00EE66EDE
:103B5000510EE66E0A0EE66E010EE66EC5EC19F029
:103B6000E552E552E552E55279D800090CE00F0123
:103B70003229146E3C0E156E0E6E14C009F032EC34
:103B80002DF005C032FF88D8000907E00F01320789
:103B900032513B0802E23B0E326F9CD8000949E0EB
:103BA0000F01050E45D033CFE6FF32CFE6FF31CF10
:103BB000E6FF54DDE552E552E5520101A051A111A5
:103BC00017E1A251A31114E10F010A0E345D000E9A
:103BD00035590EE2F00EE66E510EE66E0D0EE66EF3
:103BE000010EE66EC5EC19F0E552E552E552E552DC
:103BF00035D800090CE00F013329146E3C0E156E08
:103C00000E6E14C009F032EC2DF005C033FF44D81D
:103C1000000907E00F01330733513B0802E23B0E76
:103C2000336F58D8000905E00F01010E01D0010ED5
:103C30002A6F010E0F013425346F000E3521356FC8
:103C4000140E0D6E0E6A34CF08F035CF09F0FEEC7D
:103C50002CF004C034FF05C035FF12000101010E35
:103C6000A01901E1A15116E0140ED880A055000E54
:103C7000A15511E2A0C114F0A1C115F0050E0D6E01
:103C80000E6AA0C108F0A1C109F0FEEC2CF00450AE
:103C9000051001E1010C000C0101010EA21901E166
:103CA000A35116E0140ED880A255000EA35511E2C0
:103CB000A2C114F0A3C115F0050E0D6E0E6AA2C1CB
:103CC00008F0A3C109F0FEEC2CF00450051001E14E
:103CD000010C000C0101010EA41903E1A55101E141
:043CE000010C000CC7
:0C3CE400B06A810EAF6EAC8AAC94B8865A
:103CF000AC98AB8E9E9A9D8A9F9A949C1200B06A53
:103D0000810EAF6EAC9AAC94B896AC88AB9E9E9A7E
:103D10009D9A9F9A1200D9CFE6FFE1CFD9FF040EFA
:103D2000E126DE6ADD6ADECF14F0DDCF15F0FD0E90
:103D3000DBCF16F0FE0EDBCF17F015501718E8AEEC
:103D400002D0173404D01650145C175015581DE2D9
:103D5000020EDB6A030EDB6A020EDBCF14F0030EE9
:103D6000DBCF15F0D890155004E6EE0E145C000E73
:103D7000155806E2020EDB2A030EEEE3DB2AECD72F
:103D8000DF2A010ED0E3DB2ACED7040EE15C02E28B
:103D9000E16AE552E16EE552E7CFD9FF1200D9CFD3
:103DA000E6FFE1CFD9FF9EA8FED7FE0EDB50AD6E39
:103DB0009E98E552E7CFD9FF1200D9CFE6FFE1CFB9
:103DC000D9FFFD0EDBCFE9FFFE0EDBCFEAFFEF50A0
:103DD00010E0FD0EDBCFE9FFFE0EDBCFEAFFEF5078
:103DE000E66EDDDFE552FD0EDB2AFE0EEAE3DB2A9E
:103DF000E8D7E552E7CFD9FF1200D9CFE6FFE1CFF0
:103E0000D9FFFD0EDBCFF6FFFE0EDBCFF7FF08007C
:103E1000F55015E0FD0EDBCFF6FFFE0EDBCFF7FF12
:103E20000800F550E66EBBDFE552FD0EDBCFF6FF76
:103E3000DB2AFE0EDBCFF7FFE4E3DB2AE2D7E55215
:103E4000E7CFD9FF1200D9CFE6FFE1CFD9FF050EAA
:103E5000E126010EF36EDB6E020EDB6A030EDB6AF7
:103E6000040EDB6ADF6ADFCF14F0156A14BE156832
:103E7000FB0EDBCF16F0FC0EDBCF17F0155017183A
:103E8000E8AE02D0173404D01650145C1750155801
:103E90002DE2FD0EDBCF14F0FE0EDBCF15F0166A1F
:103EA000176A15AE02D016681768D950010FE96E6F
:103EB000DACFEAFF14C00BF015C00CF016C00DF0FD
:103EC00017C00EF0EECF06F0EECF07F0EECF08F001
:103ED000EFCF09F085EC2CF005C0EDFF04C0EDFF3D
:103EE00003C0EDFF02C0EFFFDF2ABDD7010EDBCF1D
:103EF00014F0020EDBCF15F0030EDBCF16F0040E2C
:103F0000DBCF17F014C006F015C007F016C008F09C
:103F100017C009F0050EE15C02E2E16AE552E16ECC
:103F2000E552E7CFD9FF1200D9CFE6FFE1CFD9FFA5
:103F3000020EE126DF6AFB0EDBCF14F0FC0EDBCFB6
:103F400015F0FD0EDBCF16F0FE0EDBCF17F0145090
:103F500015101610171005E1300EE66E20DFE55241
:103F6000F4D0D950FB0FE96EFF0EDA20EA6ED8903C
:103F7000030EEB50000A08E6000EEE5C000EEE5851
:103F8000000EEE58000EEE5815E22D0EE66E07DF1D
:103F9000E552D950FB0FE96EFF0EDA20EA6E000EF3
:103FA000EE6CEF1EEE22EF1EEE22EF1EEF22ED5220
:103FB000ED52ED52DE520A0EDD6E010EDBCF14F033
:103FC000000EE76E1418E8AE02D0143403D0E750A8
:103FD000D880145401E3B9D0010EDB04186E196ABD
:103FE00018BE196818C0E6FF19C0E6FF0A0EE66E93
:103FF000E66A29DFE552E552E552E55206C014F0C3
:1040000007C015F008C016F009C017F006C00BF085
:1040100007C00CF008C00DF009C00EF0FB0EDBCF9E
:1040200006F0FC0EDBCF07F0FD0EDBCF08F0FE0E36
:10403000DBCF09F0BDEC2CF006500710081009107A
:1040400041E0010EDF6EDB041C6E1D6A1CBE1D68A4
:104050001CC0E6FF1DC0E6FF0A0EE66EE66AF3DE50
:10406000E552E552E552E55206C018F007C019F0D6
:1040700008C01AF009C01BF006C00BF007C00CF016
:1040800008C00DF009C00EF0FB0EDBCF06F0FC0EF1
:10409000DBCF07F0FD0EDBCF08F0FE0EDBCF09F023
:1040A000BDEC2CF006C014F007C015F008C016F0E7
:1040B00009C017F0300E1426000E15221622172202
:1040C000145003D0DF5004E0300EE66E68DEE55297
:1040D000010EDB04186E196A18BE196818C0E6FFD5
:1040E00019C0E6FF0A0EE66EE66AADDEE552E5525D
:1040F000E552E55206C014F007C015F008C016F0EE
:1041000009C017F0D950FB0FE96EFF0EDA20EA6EF6
:1041100006C00BF007C00CF008C00DF009C00EF08F
:10412000EECF06F0EECF07F0EECF08F0EFCF09F0BC
:10413000BDEC2CF005C0EDFF04C0EDFF03C0EDFFAA
:1041400002C0EFFF010EDB0638D7020EE15C02E28F
:10415000E16AE552E16EE552E7CFD9FF1200D9CF0F
:10416000E6FFE1CFD9FFFD0EDBCF14F0FE0EDBCF73
:1041700015F0640E0D6E0E6A14C008F015C009F03B
:1041800022EC2BF008C014F009C015F0166A176A6B
:1041900015AE02D01668176814C0E6FF15C0E6FF1A
:1041A00016C0E6FF17C0E6FFBFDEE552E552E55256
:1041B000E5522E0EE66EF3DDE552FD0EDBCF14F078
:1041C000FE0EDBCF15F0640E0D6E0E6A14C008F003
:1041D00015C009F022EC2BF004C014F005C015F056
:1041E000166A176A15AE02D01668176814C0E6FF83
:1041F00015C0E6FF16C0E6FF17C0E6FF95DEE552E4
:10420000E552E552E552E552E7CFD9FF1200D9CF8A
:10421000E6FFE1CFD9FFE652AE50DF6E4A0EE66E02
:104220004F0EE66EE66A010EE66EC5EC19F0E55239
:10423000E552E552E552DFCF14F0156A166A176AA7
:1042400014C0E6FF15C0E6FF16C0E6FF17C0E6FF84
:10425000E66A010EE66E9EEC18F0186E060EE15E40
:0C4260001850E552E552E7CFD9FF1200DC
:04426C00D9CFE6FFC1
:10427000E1CFD9FFD59EFD0EDBCFC9F1FE0EDBCF1E
:10428000CAF1D59C17681868196AC9C11AF0CAC161
:104290001BF01C6A1A50175C146E1B501858156ED0
:1042A0001C501958166E0C6A010E0D6E0E6A14C061
:1042B00007F015C008F016C009F048EC2BF00350C9
:1042C000D66E17681868196AC9C11AF0CAC11BF0FE
:1042D0001C6A1A50175C146E1B501858156E1C502F
:1042E0001958166E0C6A010E0D6E0E6A14C007F096
:1042F00015C008F016C009F048EC2BF007C014F008
:1043000008C015F009C016F00750D76ED59AD586AB
:10431000F28AF294F184D58EE552E7CFD9FF1200EC
:10432000D59E120017681868196AC9C11AF0CAC167
:104330001BF01C6A1A50175C146E1B501858156E2F
:104340001C501958166E0C6A010E0D6E0E6A14C0C0
:1043500007F015C008F016C009F048EC2BF0035028
:10436000D66E17681868196AC9C11AF0CAC11BF05D
:104370001C6A1A50175C146E1B501858156E1C508E
:104380001958166E0C6A010E0D6E0E6A14C007F0F5
:1043900015C008F016C009F048EC2BF007C014F067
:1043A00008C015F009C016F00750D76ED58E120060
:1043B000D9CFE6FFE1CFD9FFCD90FD0EDBCFCBF11A
:1043C000FE0EDBCFCCF117681868196ACBC11AF062
:1043D000CCC11BF01C6A1A50175C146E1B50185885
:1043E000156E1C501958166E0C6A010E0D6E0E6A71
:1043F00014C007F015C008F016C009F048EC2BF007
:104400000750CF6E17681868196ACBC11AF0CCC173
:104410001BF01C6A1A50175C146E1B501858156E4E
:104420001C501958166E0C6A010E0D6E0E6A14C0DF
:1044300007F015C008F016C009F048EC2BF003C0D7
:1044400014F004C015F005C016F00350CE6E9D8028
:104450009E909F90CD8ECD8CCD98CD9ACD96CD92BD
:10446000CD80E552E7CFD9FF120017681868196AA6
:10447000CBC11AF0CCC11BF01C6A1A50175C146E29
:104480001B501858156E1C501958166E0C6A010EE8
:104490000D6E0E6A14C007F015C008F016C009F0C2
:1044A00048EC2BF00750CF6E17681868196ACBC11B
:1044B0001AF0CCC11BF01C6A1A50175C146E1B500A
:1044C0001858156E1C501958166E0C6A010E0D6E98
:1044D0000E6A14C007F015C008F016C009F048ECC9
:1044E0002BF003C014F004C015F005C016F0035003
:1044F000CE6ECD801200CD901200D9CFE6FFE1CF75
:10450000D9FFCA94CC6AFE0EDB500101CD6FCE6B91
:10451000CB6E9D829E929F92CA90CA92CA84E552A7
:10452000E7CFD9FF1200CDC1CBFFCA841200CA94D5
:104530001200D9CFE6FFE1CFD9FFB190FD0EDBCF5E
:10454000CFF1FE0EDBCFD0F117681868196ACFC122
:104550001AF0D0C11BF01C6A1A50175C146E1B5065
:104560001858156E1C501958166E0C6A010E0D6EF7
:104570000E6A14C007F015C008F016C009F048EC28
:104580002BF00750B36E17681868196ACFC11AF07C
:10459000D0C11BF01C6A1A50175C146E1B501858BF
:1045A000156E1C501958166E0C6A010E0D6E0E6AAF
:1045B00014C007F015C008F016C009F048EC2BF045
:1045C00003C014F004C015F005C016F00350B26E1D
:1045D000A082A192A292B18EB198B19AB192B1800B
:1045E000E552E7CFD9FF120017681868196ACFC1E2
:1045F0001AF0D0C11BF01C6A1A50175C146E1B50C5
:104600001858156E1C501958166E0C6A010E0D6E56
:104610000E6A14C007F015C008F016C009F048EC87
:104620002BF00350B26E17681868196ACFC11AF0E0
:10463000D0C11BF01C6A1A50175C146E1B5018581E
:10464000156E1C501958166E0C6A010E0D6E0E6A0E
:1046500014C007F015C008F016C009F048EC2BF0A4
:1046600007C014F008C015F009C016F00750B36E6B
:10467000B1801200B19012000101D92B000EDA2393
:10468000E151D95DE251DA5904E3D96BDA6B010EDD
:10469000D16F12000101DB2B000EDC23E351DB5D47
:1046A000E451DC5904E3DB6BDC6B010ED26F1200CA
:1046B0000101DD2B000EDE23E551DD5DE651DE5903
:1046C00004E3DD6BDE6B010ED36F12000101DF2B03
:1046D000000EE023E751DF5DE851E05904E3DF6BB2
:1046E000E06B010ED46F1200D9CFE6FFE1CFD9FF06
:1046F000FD0EDBCFE1F1FE0EDBCFE2F10101D96B64
:10470000DA6BD16BE552E7CFD9FF1200D9CFE6FFC4
:10471000E1CFD9FFFD0EDBCFE3F1FE0EDBCFE4F1FD
:10472000050E0D6E0E6AE3C108F0E4C109F022EC3B
:104730002BF008C0E3F109C0E4F10101DB6BDC6B95
:10474000D26BE552E7CFD9FF1200D9CFE6FFE1CF18
:10475000D9FFFD0EDBCFE7F1FE0EDBCFE8F10A0E4D
:104760000D6E0E6AE7C108F0E8C109F022EC2BF0EB
:1047700008C0E7F109C0E8F10101DF6BE06BD46B21
:08478000E552E7CFD9FF12005A
:084788000F0E946E826812000E
:10479000CF0E9414946E82681200D9CFE6FFE1CF59
:1047A000D9FF050EE126040EDB6ADE6ADD6ADECF84
:1047B00014F0DDCF15F0D890155004E6040E145C0B
:1047C000000E155801E390D0DECFE9FFDDCFEAFF00
:1047D000C00EE926010EEA22EF1C826E020EDB6A91
:1047E000030EDB6A020EDBCF14F0030EDBCF15F0F5
:1047F000D890155004E6040E145C000E15586EE2B5
:10480000020EDBCFE9FF030EDBCFEAFFC40EE92681
:10481000010EEA22EF5082143FE1DECF18F0DDCF27
:1048200019F0D89018361936D89018361936020E65
:10483000DB501824E96E030EDB501920EA6ED89085
:10484000E936EA36A00EE926010EEA22EECF16F08E
:10485000EFCF17F0010E1626000E1722DECF14F050
:10486000DDCF15F0D89014361536D890143615369D
:10487000020EDB501424E96E030EDB501520EA6EA5
:10488000D890E936EA36A00EE926010EEA2216C0D3
:10489000EEFF17C0EDFF1BD0DECF14F0DDCF15F01B
:1048A000D89014361536D89014361536020EDB50D3
:1048B0001424E96E030EDB501520EA6ED890E93619
:1048C000EA36A00EE926010EEA22EE6AED6A020E31
:1048D000DB2A030E01E286D7DB2A84D7DF2A010E0A
:1048E00001E265D7DB2A63D7050EE15C02E2E16AEB
:1048F000E552E16EE552E7CFD9FF1200D9CFE6FFCE
:10490000E1CFD9FF050EE126040EDB6ADE6ADD6A1F
:10491000DECF14F0DDCF15F0D890155004E6020E6E
:10492000145C000E155801E399D0DECFE9FFDDCF0E
:10493000EAFFC00EE926010EEA22EF1C8214826E05
:104940000F0E8210826E020EDB6A030EDB6A020E0D
:10495000DBCF14F0030EDBCF15F0D890155004E632
:10496000040E145C000E155873E2020EDBCFE9FF53
:10497000030EDBCFEAFFC40EE926010EEA22EF5058
:10498000821444E1DECF18F0DDCF19F0D89018364C
:104990001936D89018361936020EDB501824E96EF5
:1049A000030EDB501920EA6ED890E936EA36A00EE5
:1049B000E926010EEA22EECF16F0EFCF17F0010E36
:1049C0001626000E1722DECF14F0DDCF15F0D8909A
:1049D00014361536D89014361536020EDB501424D2
:1049E000E96E030EDB501520EA6ED890E936EA3600
:1049F000A00EE926010EEA2216C0EEFF17C0EDFF59
:104A0000010EF36E040EF3CFDBFF1BD0DECF14F0EC
:104A1000DDCF15F0D89014361536D89014361536EB
:104A2000020EDB501424E96E030EDB501520EA6EF3
:104A3000D890E936EA36A00EE926010EEA22EE6A9F
:104A4000ED6A020EDB2A030E01E281D7DB2A7FD753
:104A5000DF2A010E01E25CD7DB2A5AD7040EDB0401
:104A600004E10101010EC86F02D00101C86B050EFF
:104A7000E15C02E2E16AE552E16EE552E7CFD9FF7F
:104A80001200D9CFE6FFE1CFD9FF040EE126DE6A9E
:104A9000DD6ADECF14F0DDCF15F0FD0EDBCF16F0B2
:104AA000FE0EDBCF17F015501718E8AE02D0173402
:104AB00004D01650145C175015581DE2020EDB6A24
:104AC000030EDB6A020EDBCF14F0030EDBCF15F012
:104AD000D890155004E6EE0E145C000E155806E250
:104AE000020EDB2A030EEEE3DB2AECD7DF2A010EEF
:104AF000D0E3DB2ACED7040EE15C02E2E16AE552A4
:104B0000E16EE552E7CFD9FF1200D9CFE6FFE1CF42
:104B1000D9FF040EE126DE6ADD6ADECF14F0DDCFB8
:104B200015F0D890155004E6040E145C000E1558CC
:104B300075E2DECFE9FFDDCFEAFFC00EE926010E08
:104B4000EA22EF1C826E020EDB6A030EDB6A020EA3
:104B5000DBCF14F0030EDBCF15F0D890155004E630
:104B6000040E145C000E15584AE2DECF14F0DDCFBF
:104B700015F0D89014361536D89014361536020E26
:104B8000DB501424E96E030EDB501520EA6ED8903A
:104B9000E936EA36A00EE926010EEA22EE6AED6A4F
:104BA000020EDBCFE9FF030EDBCFEAFFC40EE926DE
:104BB000010EEA22EF5082141CE1DECF14F0DDCFAB
:104BC00015F0D89014361536D89014361536020ED6
:104BD000DB501424E96E030EDB501520EA6ED890EA
:104BE000E936EA36A00EE926010EEA22010EEE6E43
:104BF000ED6A020EDB2A030EAAE3DB2AA8D7825055
:104C0000816EE80EE66E030EE66E3BDFE552E5527E
:104C1000DF2A010E01E281D7DB2A7FD7040EE15C97
:104C200002E2E16AE552E16EE552E7CFD9FF1200F8
:104C3000D9CFE6FFE1CFD9FF020EE126DE6ADD6AB9
:104C40007AD83EEC1AF0E80EE66E030EE66E2FD828
:104C5000E552E5520101D451FDE0D46BDECF14F0F2
:104C6000DDCF15F0010E1426000E1522140E0D6E68
:104C70000E6A14C008F015C009F0FEEC2CF004C058
:104C800014F005C015F004C0DEFF05C0DDFFD9CF6C
:104C9000E9FFDACFEAFFEE50ED1002E140EC1AF046
:104CA000CDEC23F0E2EC04F07FEC17F0D3D7D9CFB2
:104CB000E6FFE1CFD9FF040EE126DE6ADD6ADECF32
:104CC00014F0DDCF15F0FD0EDBCF16F0FE0EDBCFBE
:104CD00017F015501718E8AE02D0173404D016504C
:104CE000145C175015581DE2020EDB6A030EDB6AD6
:104CF000020EDBCF14F0030EDBCF15F0D890155069
:104D000004E6EE0E145C000E155806E2020EDB2AD5
:104D1000030EEEE3DB2AECD7DF2A010ED0E3DB2A19
:104D2000CED7040EE15C02E2E16AE552E16EE552A3
:104D3000E7CFD9FF1200936A956AB0EC13F050ECFC
:104D400017F040EC2AF0E80EE66E030EE66EAFDFD9
:104D5000E552E552570EE66E120EE66E36EC21F085
:104D6000E552E552AE0EE66E240EE66ED8EC21F06A
:104D7000E552E552660EE66EB70EE66E99EC22F04D
:104D8000E552E552020EE66EE66A74EC23F0E55257
:104D9000E5520A0EE66EE66A86EC23F0E552E5522D
:104DA000320EE66EE66AA5EC23F0E552E552C4EF5A
:104DB00023F0D9CFE6FFE1CFD9FFFE0EDBCF15F010
:104DC000800E15141AE1FD0EDBCF16F0FE0EDBCFC0
:104DD00017F0173404E216500708000E17540DE3BD
:104DE000FD0EDBCFE9FFFE0EDBCFEAFF1A0EE92650
:104DF0000F0EEA22EF508310836EE552E7CFD9FF02
:104E00001200D9CFE6FFE1CFD9FFFE0EDBCF15F0C0
:104E1000800E15141AE1FD0EDBCF16F0FE0EDBCF6F
:104E200017F0173404E216500708000E17540DE36C
:104E3000FD0EDBCFE9FFFE0EDBCFEAFF1A0EE926FF
:104E40000F0EEA22EF1C8314836EE552E7CFD9FFE1
:104E50001200D9CFE6FFE1CFD9FFFD0EDBCFE9FF8E
:104E6000FE0EDBCFEAFF220EE9260F0EEA22EF0448
:104E700015E1FD0EDBCFE6FFFE0EDBCFE6FFC1DF67
:104E8000E552E552FD0EDBCFE9FFFE0EDBCFEAFF78
:104E9000220EE9260F0EEA22EF6A15D0FD0EDBCFB7
:104EA000E6FFFE0EDBCFE6FF84DFE552E552FD0EA6
:104EB000DBCFE9FFFE0EDBCFEAFF220EE9260F0E65
:104EC000EA22010EEF6EE552E7CFD9FF1200D9CFEB
:104ED000E6FFE1CFD9FF020EE126DE6ADD6ADECF12
:104EE00014F0DDCF15F0153404E214500708000E5D
:104EF000155421E3DECFE6FFDDCFE6FF5ADFE552B2
:104F0000E552F40EE66E010EE66ED1DEE552E55294
:104F1000DECFE6FFDDCFE6FF74DFE552E552F40EAB
:104F2000E66E010EE66EC3DEE552E552DF2A010EA3
:104F3000D6E3DB2AD4D7020EE15C02E2E16AE55255
:0A4F4000E16EE552E7CFD9FF120041
:064F4A0020202000504170
:104F50005353574F52442057524F4E472020004E34
:104F60004558542049442020202000505245535396
:104F7000202320544F20454E54455220004F504589
:104F80004E494E4720444F4F522020202000322EC1
:104F90004348414E4745204C2E54494D4500203151
:104FA0002E4348414E47452054494D452000434C2F
:104FB00045415220434845434B20494E005620204E
:104FC00020202000542020202020004844202020A1
:104FD0002020004C4F47202020202000352E434C1D
:104FE00045415220434845434B20494E0020342E32
:104FF000414253454E54204C495354200020203305
:105000002E4C415445204C49535420200020322E30
:1050100050524553454E54204C49535400202031A2
:105020002E435245415445204C4F4720004E455792
:10503000205057204944200052454D4F56452043AB
:105040004F4D504C45544500593A454E5445520039
:105050004E3A4241434B0052454D4F56452049443C
:105060002000342E2000332E2000322E2000312E3E
:10507000200050415353574F52443A20004E455759
:10508000204944203A2000505720464F522049449E
:105090002000332E4348414E4745204D454D20507A
:1050A0005700322E52454D4F5645204D454D4245F5
:1050B000520020312E414444204D454D424552205E
:1050C00020004348414E47452053554343455353E1
:1050D000004348414E47452041442050415353002E
:1050E00020202020352E54494D452020202020000E
:1050F0002020342E434845434B20494E2020200099
:1051000020332E4D414E41474520555345522000F6
:105110003C202020202020402020202020203E0055
:105120004348414E47452055534552205041535323
:10513000003C202020202020402020202020202053
:10514000002020322E4348414E4745205057202012
:105150000020202020202020402020202020203E31
:10516000002020312E4F50454E20444F4F522020DA
:10517000002A0020005041535320464F52204944FA
:105180002000496E76616C6964204944202020200B
:10519000202000202020202020202020202020202F
:1051A00000454E54455220494420202020202020F4
:1051B000200020202020202020202020202020200F
:1051C0002020005052455353202320464F52205058
:1051D0004153530000300030300020202020004395
:1051E00048414E4745204C4154452054494D4500C7
:1051F0002020004348414E47452054494D45003A40
:035200000030007B
:0C520400D9CFE6FFE1CFD9FF020EE12672
:10521000FE0EDB500F0BDF6EFE0EDB380F0B0A0DA0
:10522000010EF3CFDBFFDB50DF24146E020EE15CD6
:1052300002E2E16AE552E16E1450E552E7CFD9FF90
:105240001200D9CFE6FFE1CFD9FF020EE1260A0E08
:10525000146E0E6EFE0EDBCF09F032EC2DF0055011
:10526000DF6E0A0E146E0E6EFE0EDBCF09F032EC0E
:105270002DF00950100D010EF3CFDBFFDB50DF24C2
:10528000146E020EE15C02E2E16AE552E16E145036
:10529000E552E7CFD9FF1200949694981200D9CF27
:1052A000E6FFE1CFD9FFE652DF6AFE0EDB50DF5C9E
:1052B00002E2DF2AFAD7E552E552E7CFD9FF120022
:1052C00082A8000C010C0001FC5102E08288828659
:1052D00082988296010EFC6F1200829882868288E4
:1052E0000001FC6B1200D9CFE6FFE1CFD9FF020E1F
:1052F000E126DF6ADFCF14F0080EE76E1418E8AE7F
:1053000002D0E73402D0E750145C0FE2FE0EDBBEA1
:1053100002D0829801D0828882868296DB50020D6C
:10532000FE0EF3CFDBFFDF2AE5D794888286C8DF45
:10533000E76E010EE7CFDBFF82969498DB50146E88
:10534000020EE15C02E2E16AE552E16E1450E552C0
:10535000E7CFD9FF1200D9CFE6FFE1CFD9FF020E88
:10536000E126DF6A9488010EDB6ADBCF14F0080EB9
:10537000E76E1418E8AE02D0E73402D0E750145CB0
:105380000BE282869DDF146EDF50E8241410DF6E7E
:105390008296010EDB2AE9D79498FE0EDB5002E0DC
:1053A000828801D0829882868296DF50146E020E27
:1053B000E15C02E2E16AE552E16E1450E552E7CFAA
:1053C000D9FF1200D9CFE6FFE1CFD9FF7CDFD00EA5
:1053D000E66E89DFE552FE0EDBCFE6FF84DFE552A5
:1053E000FD0EDBCFE6FF2DDFE552E66E7CDFE552FA
:1053F00074DFE552E7CFD9FF1200D9CFE6FFE1CF46
:10540000D9FFE65260DFD00EE66E6DDFE552FE0E8C
:10541000DBCFE6FF68DFE55256DFD10EE66E63DFD5
:10542000E552010EE66E97DFE552DF6EDFCFE6FF55
:10543000E9DEE552DF6E51DFDF50E552E552E7CF9E
:10544000D9FF1200D9CFE6FFE1CFD9FFFD0EDBCFA8
:10545000E6FFFE0EDBCFE6FFB5DFE552E552E55293
:10546000E7CFD9FF1200D9CFE6FFE1CFD9FFFE0E7B
:10547000DBCFE6FFC2DFE552E552E7CFD9FF1200EE
:10548000F28ED08EF28C1200F19CF292F288120011
:10549000D8CFE4FFE0CFE4FFE46EDACFE4FFE2CF61
:1054A000DAFFE9CFE4FFEACFE4FFF6CFE4FFF7CF7E
:1054B000E4FFF5CFE4FFF3CFE4FFF4CFE4FFFACF4E
:1054C000E4FF00EE00F0140EE80403E3EECFE4FF87
:1054D000FBD700EE14F00A0EE80403E3EECFE4FF7E
:1054E000FBD7E652F2A407D090EC21F0F29492ECB4
:1054F00021F03CEC23F09EA007D07BEC22F09E90A4
:1055000035EC22F04AEC23F0A1A207D03AEC23F0CC
:10551000A192F4EC22F066EC23F0F2B2F2929EBA81
:105520009E9AE55200EE1DF00A0EE80403E3E5CF73
:10553000EDFFFBD700EE13F0140EE80403E3E5CF14
:10554000EDFFFBD7E5CFFAFFE5CFF4FFE5CFF3FFA3
:10555000E5CFF5FFE5CFF7FFE5CFF6FFE5CFEAFFB3
:10556000E5CFE9FFE5CFDAFFE550E5CFE0FFE5CF96
:10557000D8FF1000DACFE4FFE2CFDAFFE9CFE4FF93
:10558000EACFE4FFF6CFE4FFF7CFE4FFF5CFE4FF87
:10559000F3CFE4FFF4CFE4FFFACFE4FF00EE00F036
:1055A000140EE80403E3EECFE4FFFBD700EE14F0A3
:1055B0000A0EE80403E3EECFE4FFFBD7E652F2A4C1
:1055C00007D090EC21F0F29492EC21F03CEC23F027
:1055D0009EA007D07BEC22F09E9035EC22F04AECA6
:1055E00023F0A1A207D03AEC23F0A192F4EC22F030
:1055F00066EC23F0F2B2F2929EBA9E9AE55200EE69
:105600001DF00A0EE80403E3E5CFEDFFFBD700EE43
:1056100013F0140EE80403E3E5CFEDFFFBD7E5CF6D
:10562000FAFFE5CFF4FFE5CFF3FFE5CFF5FFE5CFD8
:10563000F7FFE5CFF6FFE5CFEAFFE5CFE9FFE5CFDE
:04564000DAFF11007C
:0C564400006A0EAE2BEF2BF00D6C0E1E5A
:10565000E86A0E22001E09AE33EF2BF0086C091E1B
:10566000E86A0922001EFEEC2CF009BE43EF2BF085
:1056700000AE000C086C091EE86A0922046C051EC5
:10568000E86A0522000C00BE3AEF2BF00188FF0CFF
:10569000006A0EAE53EF2BF00C6C0D1E0E1EE86A66
:1056A0000D220E22001E09AE5DEF2BF0076C081EC6
:1056B000091EE86A08220922001EE1EC2CF009BE4E
:1056C00070EF2BF000AE000C076C081E091EE86A94
:1056D00008220922036C041E051E04220522000C68
:1056E00000BE64EF2BF00188FF0C09C013F008C066
:1056F00012F008500D02F4CF07F0F3CF06F0095076
:105700000E02F4CF09F0F3CF08F00D02F350072694
:10571000F4500822E86A092212500E02F3500726BC
:10572000F4500822E86A09220EAE9BEF2BF01250CB
:10573000085E1350095A13AE000C0D50085E0E504F
:04574000095A000CF6
:0C5744001E0EF66E000EF76E000EF86EE2
:105750000F010900F5503B6F0900F5503C6F03E164
:105760003B6701D03DD00900F550366F0900F55078
:10577000376F0900F550386F09000900F550E96EE0
:105780000900F550EA6E090009000900F550396F6B
:105790000900F5503A6F09000900F6CF3DFFF7CF39
:1057A0003EFFF8CF3FFF36CFF6FF37CFF7FF38CFBA
:1057B000F8FF0F01395302E13A5307E00900F550B1
:1057C000EE6E3907F8E23A07F9D73DCFF6FF3ECF44
:1057D000F7FF3FCFF8FF0F013B07000E3C5BBFD741
:0257E0001200B5
:0E57E200D9CFE6FFDACFE6FFFA0EE3CFD9FF0C
:1057F000FB0EE3CFDAFFFC0EE3CFE9FFFD0EE3CFB4
:10580000EAFFE9CFF3FFEACFF4FFE950D95CEA50B1
:10581000DA580EE3F80EE35003E1F90EE35024E00A
:10582000F80EE30602E2F90EE306DECFEEFFF2D752
:10583000F80EE350D926F90EE350DA22DD52F80EC5
:10584000E350E926F90EE350EA22ED52F80EE35058
:1058500003E1F90EE35008E0F80EE30602E2F90E68
:10586000E306DDCFEDFFF2D7FF0EE3CFDAFFE5521F
:0A587000FF0EE3CFD9FFE55212004E
:06587A00010E926E0E0EFD
:10588000C16EC26A040EC06EC2801200D9CFE6FF9C
:10589000E1CFD9FF020EE126DE6ADD6AC282C2B222
:1058A000FED7C450DE6EDD6ADECF16F0DDCF17F016
:1058B000D89016361736D89016361736060EC3CF40
:1058C000E7FF070B04E0E742E79EE806FCE1E7504C
:1058D0001624146E000E172014C0DEFFDD6EDECF1E
:1058E00000FFDDCF01FFDECF14F0DDCF15F014C0D7
:1058F000F3FF15C0F4FF020EE15C02E2E16AE5523B
:0A590000E16EE552E7CFD9FF120077
:06590A0006500B02F3CF72
:1059100002F0F4CF03F00C02F3500326000EF42043
:10592000046E06500D02F3500426000EF420056E9E
:1059300006500E02F350052607500B02F3500326C3
:10594000F4500422000E052207500C02F3500426E6
:10595000F450052207500D02F350052608500B02A3
:10596000F3500426F450052208500C02F35005268B
:0A59700009500B02F3500526120047
:06597A00056A046A036ADD
:10598000026A200EE76ED8900636073608360936CA
:1059900002360336043605360B50025C0C500358B1
:1059A0000D5004580E50055809E30B50025E0C5080
:1059B000035A0D50045A0E50055A062AE72EE4D712
:0259C0001200D3
:0E59C200056A046A036A180EE76ED89007366D
:1059D000083609360336043605360C50035C0D5084
:1059E00004580E50055807E30C50035E0D50045A3E
:0C59F0000E50055A072AE72EEAD71200D5
:0459FC00056A046ACA
:105A0000100EE76ED89008360936043605360D506C
:105A1000045C0E50055805E30D50045E0E50055A07
:085A2000082AE72EF0D712005E
:085A2800800EF36E00EE00F0A9
:105A30000F0E01D81200EA6002D0EE6AFCD7F350D4
:085A4000E9601200EE6AFCD7D8
:085A48001EEE00F02EEE00F04E
:105A5000F86A019CA2EC2BF003EC00F018EC26F0A5
:045A6000FBD712005E
:0C5A6400056A080EE76ED890093605367A
:105A70000E50055C02E3056E092AE72EF7D71200E7
