:020000040000FA
:060000007EEF1CF012006F
:020006001200E6
:06000800DCEF19F012000C
:02000E000000F0
:020010000000EE
:0600180067EF19F0120071
:02001E000600DA
:10002000E7390000000F000028000000CB39000075
:10003000E10000001C0000000E0000007C0F00002A
:10004000040000006A390000800000006100000028
:1000500054390000620F000016000000343900001F
:08006000280F00002000000041
:08006800D9CFE6FFE1CFD9FF7B
:10007000040EE126DE6ADD6ADECF14F0DDCF15F076
:10008000166A176A15AE02D016681768D950FB0FAA
:10009000E96EFF0EDA20EA6EEE50145CEE50155851
:1000A000EE501658EE5017581DE2020EDB6A030E92
:1000B000DB6A020EDBCF14F0030EDBCF15F0D89015
:1000C000155004E6050E145C000E155806E2020EEB
:1000D000DB2A030EEEE3DB2AECD7DF2A010ECCE3AA
:1000E000DB2ACAD7040EE15C02E2E16AE552E16E66
:1000F000E552E7CFD9FF1200D9CFE6FFE1CFD9FF14
:10010000040EE126DE6ADD6ADECF14F0DDCF15F0E5
:10011000166A176A15AE02D016681768D950FB0F19
:10012000E96EFF0EDA20EA6EEE50145CEE501558C0
:10013000EE501658EE5017581DE2020EDB6A030E01
:10014000DB6A020EDBCF14F0030EDBCF15F0D89084
:10015000155004E6EE0E145C000E155806E2020E71
:10016000DB2A030EEEE3DB2AECD7DF2A010ECCE319
:10017000DB2ACAD7040EE15C02E2E16AE552E16ED5
:10018000E552E7CFD9FF1200D9CFE6FFE1CFD9FF83
:100190000F0E8116FE0EDB50F00B81128186010ED0
:1001A000E66EE66AE66AE66AA7DFE552E552E552E0
:1001B000E5528196010EE66EE66AE66AE66A9CDF23
:1001C000E552E552E552E5520F0E8116FE0EDB3880
:1001D000F00B81128186010EE66EE66AE66AE66A37
:1001E0008BDFE552E552E552E5528196010EE66E4F
:1001F000E66AE66AE66A80DFE552E552E552E552D4
:10020000E552E7CFD9FF1200D9CFE6FFE1CFD9FF02
:10021000E652190EE66EE66AE66AE66A6DDFE552B8
:10022000E552E552E5520F0E8116F80E81160F0EBB
:100230008116300E81128186010EE66EE66AE66A4C
:10024000E66A5ADFE552E552E552E5528196010E23
:10025000E66EE66AE66AE66A4FDFE552E552E55287
:10026000E5520F0E8116300E81128186010EE66E68
:10027000E66AE66AE66A40DFE552E552E552E55293
:100280008196010EE66EE66AE66AE66A35DFE552B9
:10029000E552E552E5520F0E8116300E811281862D
:1002A000010EE66EE66AE66AE66A26DFE552E55288
:1002B000E552E5528196010EE66EE66AE66AE66A66
:1002C0001BDFE552E552E552E5520F0E8116818A99
:1002D0008186010EE66EE66AE66AE66A0DDFE552A1
:1002E000E552E552E5528196010EE66EE66AE66A4F
:1002F000E66A02DFE552E552E552E552280EE66E67
:1003000043DFE5520C0EE66E3FDFE552E552E55263
:10031000E7CFD9FF1200D9CFE6FFE1CFD9FF020E18
:10032000E126DF6A010EDB6A81940F0EE66EE66A53
:10033000E66AE66A99DEE552E552E552E5520F0EAD
:1003400081128186E66EE66AE66AE66A8DDEE5522D
:10035000E552E552E5520F0E8114E76E010EE7CF2C
:10036000DBFF81960F0EE66EE66AE66AE66A7CDEE1
:10037000E552E552E552E5520F0E81128186E66E96
:10038000E66AE66AE66A70DEE552E552E552E55253
:100390000F0E8114DF6E010EDB50DF128196010E0D
:1003A000E66EE66AE66AE66A5FDEE552E552E55227
:1003B000E552DF50146E020EE15C02E2E16AE552A2
:1003C000E16E1450E552E7CFD9FF1200D9CFE6FF16
:1003D000E1CFD9FFE652DF6A9EDFDF6EDFBEFCD7DA
:1003E000DF50E552E552E7CFD9FF1200D9CFE6FF43
:1003F000E1CFD9FF0F0E8116FE0EDB5081128186F0
:10040000050EE66EE66AE66AE66A2EDEE552E5521B
:10041000E552E5528196050EE66EE66AE66AE66A00
:1004200023DEE552E552E552E552E552E7CFD9FF2A
:100430001200D9CFE6FFE1CFD9FF8194050EE66E19
:10044000E66AE66AE66A10DEE552E552E552E552F2
:10045000FE0EDBCFE6FFCADFE552FE0EDB38F00B07
:10046000E66EC4DFE552E552E7CFD9FF1200D9CFDF
:10047000E6FFE1CFD9FF8184050EE66EE66AE66A03
:10048000E66AF2DDE552E552E552E552FE0EDBCFBB
:10049000E6FFACDFE552FE0EDB38F00BE66EA6DFC2
:1004A000E5528194E552E7CFD9FF1200D9CFE6FF9C
:1004B000E1CFD9FFFE0EDBCFE6FFD9DFE552E552F3
:1004C000E7CFD9FF1200D9CFE6FFE1CFD9FFFE0E6B
:1004D000DBCFE6FFCCDFE552E552E7CFD9FF1200D4
:1004E000D9CFE6FFE1CFD9FFFD0EDBCFF6FFFE0E41
:1004F000DBCFF7FF0800F5500FE0FD0EDBCFF6FF76
:10050000DB2AFE0EDBCFF7FF01E3DB2A0800F55004
:10051000E66ED9DFE552E8D7E552E7CFD9FF120002
:10052000D9CFE6FFE1CFD9FFE652FD0EDB500F0B2E
:10053000146EFE0EDB50010B400DF3501424DF6EE1
:100540007F0EDF14800FDF6EDFCFE6FF72DFE55234
:10055000E552E552E7CFD9FF1200010EE66E69DFE2
:10056000E552E66AE66ADCDFE552E5521200D9CFD1
:10057000E6FFE1CFD9FF050EE126010EF36EDB6E3B
:10058000020EDB6A030EDB6A040EDB6ADF6ADFCF72
:1005900014F0156A14BE1568FB0EDBCF16F0FC0EC6
:1005A000DBCF17F015501718E8AE02D0173404D07F
:1005B0001650145C175015582DE2FD0EDBCF14F0C9
:1005C000FE0EDBCF15F0166A176A15AE02D016685C
:1005D0001768D950010FE96EDACFEAFF14C00BF0AB
:1005E00015C00CF016C00DF017C00EF0EECF06F0DF
:1005F000EECF07F0EECF08F0EFCF09F0DFEC1BF005
:1006000005C0EDFF04C0EDFF03C0EDFF02C0EFFF2A
:10061000DF2ABDD7010EDBCF14F0020EDBCF15F0C1
:10062000030EDBCF16F0040EDBCF17F014C006F07C
:1006300015C007F016C008F017C009F0050EE15C00
:1006400002E2E16AE552E16EE552E7CFD9FF12001E
:10065000D9CFE6FFE1CFD9FF020EE126DF6AFB0E1C
:10066000DBCF14F0FC0EDBCF15F0FD0EDBCF16F068
:10067000FE0EDBCF17F0145015101610171005E101
:10068000300EE66E20DFE552F4D0D950FB0FE96E54
:10069000FF0EDA20EA6ED890030EEB50000A08E64F
:1006A000000EEE5C000EEE58000EEE58000EEE58F6
:1006B00015E22D0EE66E07DFE552D950FB0FE96E0D
:1006C000FF0EDA20EA6E000EEE6CEF1EEE22EF1E39
:1006D000EE22EF1EEF22ED52ED52ED52DE52070EEA
:1006E000DD6E010EDBCF14F0000EE76E1418E8AEDD
:1006F00002D0143403D0E750D880145401E3B9D0A9
:10070000010EDB04186E196A18BE196818C0E6FFDE
:1007100019C0E6FF0A0EE66EE66A29DFE552E552E9
:10072000E552E55206C014F007C015F008C016F0F7
:1007300009C017F006C00BF007C00CF008C00DF0A0
:1007400009C00EF0FB0EDBCF06F0FC0EDBCF07F08E
:10075000FD0EDBCF08F0FE0EDBCF09F017EC1CF02E
:10076000065007100810091041E0010EDF6EDB048F
:100770001C6E1D6A1CBE1D681CC0E6FF1DC0E6FF86
:100780000A0EE66EE66AF3DEE552E552E552E55200
:1007900006C018F007C019F008C01AF009C01BF015
:1007A00006C00BF007C00CF008C00DF009C00EF039
:1007B000FB0EDBCF06F0FC0EDBCF07F0FD0EDBCF30
:1007C00008F0FE0EDBCF09F017EC1CF006C014F0A9
:1007D00007C015F008C016F009C017F0300E142637
:1007E000000E152216221722145003D0DF5004E009
:1007F000300EE66E68DEE552010EDB04186E196AF3
:1008000018BE196818C0E6FF19C0E6FF0A0EE66EAA
:10081000E66AADDEE552E552E552E55206C014F057
:1008200007C015F008C016F009C017F0D950FB0F2B
:10083000E96EFF0EDA20EA6E06C00BF007C00CF07E
:1008400008C00DF009C00EF0EECF06F0EECF07F0B5
:10085000EECF08F0EFCF09F017EC1CF005C0EDFF6C
:1008600004C0EDFF03C0EDFF02C0EFFF010EDB0689
:1008700038D7020EE15C02E2E16AE552E16EE55230
:10088000E7CFD9FF1200D9CFE6FFE1CFD9FFFD0EA8
:10089000DBCFE6FFFE0EDBCFE6FF42DEE552E552A0
:1008A000D950F90FE96EFF0EDA20EA6EEECFE6FFBF
:1008B000EECFE6FFEECFE6FFEFCFE6FFC9DEE55273
:1008C000E552E552E552E552E7CFD9FF1200D9CF04
:1008D000E6FFE1CFD9FFFD0EDBCFE6FFFE0EDBCF5B
:1008E000E6FF1EDEE552E552FB0EDBCFE6FFFC0E17
:1008F000DBCFE6FFF5DDE552E552E552E7CFD9FF64
:100900001200D9CFE6FFE1CFD9FF78CF14F079CF2D
:1009100015F0040ED89014361536E806FBE1C10E2A
:100920001426000E152214500F017A25E96E155079
:100930007B21EA6EFE0EDBCFEFFF7A2B000E7B23CE
:10094000E552E7CFD9FF1200D9CFE6FFE1CFD9FFBB
:10095000E652DF6ADFCF14F0100EE76E1418E8AE2F
:1009600002D0E73402D0E750145C18E2DFCFE9FF91
:10097000EA6AE9BEEA68C10EE926000EEA22200E04
:10098000EF6EDFCFE9FFEA6AE9BEEA68D10EE92639
:10099000000EEA22200EEF6EDF2ADCD7E552E55288
:1009A000E7CFD9FF1200D9CFE6FFE1CFD9FFE6525A
:1009B0000001C051030A52E0010A36E0030A1AE0BE
:1009C000010A67E1E66AE66AABDDE552E552DF6AF5
:1009D000080EDF5C0CE2DF50EA6AC10FE96E000E20
:1009E000EA22EF50E66E6FDDE552DF2AF1D7000113
:1009F000010E32D0080EE66EE66A92DDE552E5524F
:100A0000DF6A080EDF5C0DE2080EDF24EA6AC10F20
:100A1000E96E000EEA22EF50E66E55DDE552DF2A60
:100A2000F0D70001020E18D0E66A010EE66E78DDFE
:100A3000E552E552DF6A080EDF5C0CE2DF50EA6A3D
:100A4000D10FE96E000EEA22EF50E66E3CDDE55272
:100A5000DF2AF1D70001030EC06F1CD0080EE66E2E
:100A6000010EE66E5DDDE552E552DF6A080EDF5CE1
:100A70000DE2080EDF24EA6AD10FE96E000EEA22C9
:100A8000EF50E66E20DDE552DF2AF0D70001C06BA3
:100A900001D0C06BE552E552E7CFD9FF1200D9CFA4
:100AA000E6FFE1CFD9FFE6520001C051010A1BE089
:100AB000010A32E1E66AE66A33DDE552E552DF6AB1
:100AC000100EDF5C0CE2DF50EA6AC10FE96E000E27
:100AD000EA22EF50E66EF7DCE552DF2AF1D700019B
:100AE000010EC06F1AD0E66A010EE66E19DDE552FE
:100AF000E552DF6A100EDF5C0CE2DF50EA6AD10FCC
:100B0000E96E000EEA22EF50E66EDDDCE552DF2AE8
:100B1000F1D70001C06B01D0C06BE552E552E7CFC1
:100B2000D9FF1200D9CFE6FFE1CFD9FFE652E66A3E
:100B3000E66AF6DCE552E552DF6A100EDF5C0CE295
:100B4000DF50EA6AC10FE96E000EEA22EF50E66E4E
:100B5000BADCE552DF2AF1D7E66A010EE66EE0DC88
:100B6000E552E552DF6A100EDF5C0CE2DF50EA6A04
:100B7000D10FE96E000EEA22EF50E66EA4DCE552DA
:100B8000DF2AF1D7E552E552E7CFD9FF1200D9CFDE
:100B9000E6FFE1CFD9FFFE0EDB50010B0F01786FAE
:100BA000796BFD0EDB500F0B7A6F7B6B78CF14F0F7
:100BB00079CF15F0040ED89014361536E806FBE10F
:100BC000C10E1426000E152214500F017A25E96E6D
:100BD00015507B21EA6EFC0EDBCFEFFFE552E7CF2D
:100BE000D9FF1200D9CFE6FFE1CFD9FF020EE126EF
:100BF000DF6AFE0EDB50010B0F01786F796BFD0E83
:100C0000DB500F0B7A6F7B6BF90EDBCF14F0FA0E13
:100C1000DBCF15F0FB0EDBCF16F0FC0EDBCF17F0B1
:100C2000145015101610171005E1300EE66E69DE2F
:100C3000E552F5D0D950F90FE96EFF0EDA20EA6ED1
:100C4000D890030EEB50000A08E6000EEE5C000E92
:100C5000EE58000EEE58000EEE5815E22D0EE66E20
:100C600050DEE552D950F90FE96EFF0EDA20EA6E38
:100C7000000EEE6CEF1EEE22EF1EEE22EF1EEF22B4
:100C8000ED52ED52ED52DE52070EDD6E010EDBCF5E
:100C900014F0000EE76E1418E8AE02D0143403D03E
:100CA000E750D880145401E3BAD0010EDB04186E6B
:100CB000196A18BE196818C0E6FF19C0E6FF0A0EC7
:100CC000E66EE66A54DCE552E552E552E55206C0AE
:100CD00014F007C015F008C016F009C017F006C0E0
:100CE0000BF007C00CF008C00DF009C00EF0F90EB3
:100CF000DBCF06F0FA0EDBCF07F0FB0EDBCF08F000
:100D0000FC0EDBCF09F017EC1CF0065007100810A2
:100D1000091041E0010EDF6EDB041C6E1D6A1CBE73
:100D20001D681CC0E6FF1DC0E6FF0A0EE66EE66AFF
:100D30001EDCE552E552E552E55206C018F007C048
:100D400019F008C01AF009C01BF006C00BF007C06C
:100D50000CF008C00DF009C00EF0F90EDBCF06F064
:100D6000FA0EDBCF07F0FB0EDBCF08F0FC0EDBCF7B
:100D700009F017EC1CF006C014F007C015F008C00D
:100D800016F009C017F0300E1426000E1522162298
:100D90001722145003D0DF5004E0300EE66EB1DDB0
:100DA000E552010EDB04186E196A18BE196818C0E6
:100DB000E6FF19C0E6FF0A0EE66EE66AB7EC02F03F
:100DC000E552E552E552E55206C014F007C015F0B1
:100DD00008C016F009C017F0D950F90FE96EFF0EE0
:100DE000DA20EA6E06C00BF007C00CF008C00DF068
:100DF00009C00EF0EECF06F0EECF07F0EECF08F010
:100E0000EFCF09F017EC1CF005C0EDFF04C0EDFFBB
:100E100003C0EDFF02C0EFFF010EDB0637D7020E65
:100E2000E15C02E2E16AE552E16EE552E7CFD9FF0B
:100E30001200D9CFE6FFE1CFD9FFFE0EDB50010B48
:100E40000F01786F796BFD0EDB500F0B7A6F7B6BA8
:100E5000FB0EDBCFF6FFFC0EDBCFF7FF0800F550F3
:100E60000FE0FB0EDBCFF6FFDB2AFC0EDBCFF7FF3C
:100E700001E3DB2A0800F550E66E43DDE552E8D7D2
:100E8000E552E7CFD9FF1200D9CFE6FFE1CFD9FF76
:100E9000050EE126D9CFE9FFDACFEAFFF90EDBCF65
:100EA000EEFFFA0EDBCFEEFFFB0EDBCFEEFFFC0E0C
:100EB000DBCFEEFFD9CFE9FFDACFEAFFEECF14F0B8
:100EC000EECF15F0EECF16F0EFCF17F0E80E0B6E69
:100ED000030E0C6E0D6A0E6A14C006F015C007F002
:100EE00016C008F017C009F0B4EC1AF006C014F0F0
:100EF00007C015F008C016F009C017F006C0E6FFDD
:100F000007C0E6FF08C0E6FF09C0E6FFFD0EDBCF25
:100F1000E6FFFE0EDBCFE6FF65DE186E060EE15E35
:100F20001850D9CFE9FFDACFEAFFEECF06F0EECFC7
:100F300007F0EECF08F0EFCF09F0E80E0B6E030ECE
:100F40000C6E0D6A0E6AB4EC1AF002C0DEFF03C02C
:100F5000DEFF04C0DEFF05C0DDFFDD52DD52D9CF6C
:100F6000E9FFDACFEAFFEECF14F0EECF15F0EECFC7
:100F700016F0EFCF17F0640E0B6E0C6A0D6A0E6A56
:100F800014C006F015C007F016C008F017C009F02D
:100F9000B4EC1AF006C014F007C015F008C016F043
:100FA00009C017F006C0E6FF07C0E6FF08C0E6FF6D
:100FB00009C0E6FFFD0EDB28E66EFE0EDBCFE6FF86
:100FC00011DE186E060EE15E1850D9CFE9FFDACFB8
:100FD000EAFFEECF06F0EECF07F0EECF08F0EFCF4E
:100FE00009F0640E0B6E0C6A0D6A0E6AB4EC1AF00E
:100FF00002C0DEFF03C0DEFF04C0DEFF05C0DDFF70
:10100000DD52DD523A0EE66E370EE66EFD0EDB5017
:10101000020FE66EFE0EDBCFE6FF0BDFE552E55278
:10102000E552E552D9CFE9FFDACFEAFFEECF14F06F
:10103000EECF15F0EECF16F0EFCF17F00A0E0B6ED5
:101040000C6A0D6A0E6A14C006F015C007F016C0CF
:1010500008F017C009F0B4EC1AF006C014F007C08D
:1010600015F008C016F009C017F006C0E6FF07C06B
:10107000E6FF08C0E6FF09C0E6FFFD0EDB50030FE8
:10108000E66EFE0EDBCFE6FFADDD186E060EE15E0E
:101090001850D9CFE9FFDACFEAFFEECF06F0EECF56
:1010A00007F0EECF08F0EFCF09F0E80E0B6E030E5D
:1010B0000C6E0D6A0E6AB4EC1AF002C0DEFF03C0BB
:1010C000DEFF04C0DEFF05C0DDFFDD52DD52D9CFFB
:1010D000E9FFDACFEAFFEECF14F0EECF15F0EECF56
:1010E00016F0EFCF17F00A0E0B6E0C6A0D6A0E6A3F
:1010F00014C006F015C007F016C008F017C009F0BC
:10110000B4EC1AF002C014F003C015F004C016F0DD
:1011100005C017F002C0E6FF03C0E6FF04C0E6FF0B
:1011200005C0E6FFFD0EDB50040FE66EFE0EDBCFC2
:10113000E6FF58DD186E060EE15E1850050EE15C04
:1011400002E2E16AE552E16EE552E7CFD9FF120013
:10115000D9CFE6FFE1CFD9FF020EE126DE6ADD6AD4
:101160005BD8ADEC02F0A4EC04F0E80EE66E030EE2
:10117000E66E0ED8E552E55249EC10F00F013351FE
:10118000FDE0336B97EC16F082DBD3EC04F0F6D77E
:10119000D9CFE6FFE1CFD9FF040EE126DE6ADD6A92
:1011A000DECF14F0DDCF15F0FD0EDBCF16F0FE0E16
:1011B000DBCF17F015501718E8AE02D0173404D063
:1011C0001650145C175015581DE2020EDB6A030E10
:1011D000DB6A020EDBCF14F0030EDBCF15F0D890E4
:1011E000155004E6EE0E145C000E155806E2020ED1
:1011F000DB2A030EEEE3DB2AECD7DF2A010ED0E375
:10120000DB2ACED7040EE15C02E2E16AE552E16E30
:10121000E552E7CFD9FF1200936A926A04EC01F01D
:10122000836A5FEC19F0E80EE66E030EE66EB0DF3F
:10123000E552E552570EE66E120EE66E51EC13F0D3
:10124000E552E552AE0EE66E240EE66EF3EC13F0B8
:10125000E552E552660EE66EB70EE66EB4EC14F09B
:10126000E552E552020EE66EE66A8FEC15F0E552A5
:10127000E5520A0EE66EE66AA1EC15F0E552E5527B
:10128000320EE66EE66AC0EC15F0E552E552E3EC8C
:1012900015F097EC10F055EC1BF06BEF18F0D9CF70
:1012A000E6FFE1CFD9FFFE0EDBCF15F0800E15145F
:1012B0001AE1FD0EDBCF16F0FE0EDBCF17F0173470
:1012C00004E216500708000E17540DE3FD0EDBCFA5
:1012D000E9FFFE0EDBCFEAFF620EE9260F0EEA22DF
:1012E000EF508310836EE552E7CFD9FF1200D9CFBC
:1012F000E6FFE1CFD9FFFE0EDBCF15F0800E15140F
:101300001AE1FD0EDBCF16F0FE0EDBCF17F017341F
:1013100004E216500708000E17540DE3FD0EDBCF54
:10132000E9FFFE0EDBCFEAFF620EE9260F0EEA228E
:10133000EF1C8314836EE552E7CFD9FF1200D9CF9B
:10134000E6FFE1CFD9FFFD0EDBCFE9FFFE0EDBCFDD
:10135000EAFF6A0EE9260F0EEA22EF0415E1FD0E00
:10136000DBCFE6FFFE0EDBCFE6FFC1DFE552E55245
:10137000FD0EDBCFE9FFFE0EDBCFEAFF6A0EE926AA
:101380000F0EEA22EF6A15D0FD0EDBCFE6FFFE0E50
:10139000DBCFE6FF84DFE552E552FD0EDBCFE9FF50
:1013A000FE0EDBCFEAFF6A0EE9260F0EEA22010EDF
:1013B000EF6EE552E7CFD9FF1200D9CFE6FFE1CFBC
:1013C000D9FF020EE126DE6ADD6ADECF14F0DDCF42
:1013D00015F0153404E214500708000E155421E3EB
:1013E000DECFE6FFDDCFE6FF5ADFE552E552F40E31
:1013F000E66E010EE66ECCDEE552E552DECFE6FF8C
:10140000DDCFE6FF74DFE552E552F40EE66E010E25
:10141000E66EBEDEE552E552DF2A010ED6E3DB2A98
:10142000D4D7020EE15C02E2E16AE552E16EE552D8
:10143000E7CFD9FF1200D9CFE6FFE1CFD9FF080EE1
:10144000E1265EEC1BF0F3CF14F0F4CF15F0166A32
:10145000176A15AE02D016681768040E14C0DBFFB9
:10146000050E15C0DBFF060E16C0DBFF070E17C00A
:10147000DBFF040EDBCF06F0050EDBCF07F0060E18
:10148000DBCF08F0070EDBCF09F08C0E0B6E0C6A79
:101490000D6A0E6ADFEC1BF002C006F003C007F015
:1014A00004C008F005C009F00B68030E0C6E0D6A4D
:1014B0000E6A17EC1CF006C0DEFF07C0DEFF08C096
:1014C000DEFF09C0DDFFDD52DD520A0EE66EEAECFA
:1014D00010F0E5520D0EE66EEAEC10F0E552AD0E9E
:1014E000E66E370EE66EE66AE66A19EC07F0E5523C
:1014F000E552E552E552D9CFE9FFDACFEAFF640EB3
:10150000EE5C000EEE58000EEE58000EEE5801E3B1
:10151000A1D0D9CFE9FFDACFEAFFEECF14F0EECFBA
:1015200015F0EECF16F0EFCF17F00A0E0B6E0C6A27
:101530000D6A0E6A14C006F015C007F016C008F058
:1015400017C009F017EC1CF006C014F007C015F026
:1015500008C016F009C017F006C0E6FF07C0E6FF96
:1015600008C0E6FF09C0E6FF0A0EE66EE66AF2EC86
:1015700005F0186E060EE15E1850D9CFE9FFDACFFC
:10158000EAFFEECF14F0EECF15F0EECF16F0EFCF6E
:1015900017F00A0E0B6E0C6A0D6A0E6A14C006F084
:1015A00015C007F016C008F017C009F017EC1CF0C2
:1015B00006C014F007C015F008C016F009C017F0F7
:1015C000300E1426000E1522162217221450E66E35
:1015D000EAEC10F0E552AB0EE66E370EE66E0B0E3F
:1015E000E66EE66A19EC07F0E552E552E552E5527F
:1015F0002E0EE66EEAEC10F0E552D9CFE9FFDACF15
:10160000EAFFEECF14F0EECF15F0EECF16F0EFCFED
:1016100017F00A0E0B6E0C6A0D6A0E6A14C006F003
:1016200015C007F016C008F017C009F017EC1CF041
:1016300002C014F003C015F004C016F005C017F086
:1016400002C0E6FF03C0E6FF04C0E6FF05C0E6FFF8
:101650000C0EDDD0D9CFE9FFDACFEAFFEECF14F0E0
:10166000EECF15F0EECF16F0EFCF17F00A0E0B6E9F
:101670000C6A0D6A0E6A14C006F015C007F016C099
:1016800008F017C009F017EC1CF006C014F007C0F2
:1016900015F008C016F009C017F006C0E6FF07C035
:1016A000E6FF08C0E6FF09C0E6FF0A0EE66EE66A3E
:1016B000F2EC05F0186E060EE15E1850D9CFE9FF86
:1016C000DACFEAFFEECF14F0EECF15F0EECF16F042
:1016D000EFCF17F0640E0B6E0C6A0D6A0E6A14C021
:1016E00006F015C007F016C008F017C009F017EC97
:1016F0001CF006C014F007C015F008C016F009C0B1
:1017000017F0300E1426000E152216221722145040
:10171000E66EEAEC10F0E552D9CFE9FFDACFEAFF46
:10172000EECF14F0EECF15F0EECF16F0EFCF17F0AE
:101730000A0E0B6E0C6A0D6A0E6A14C006F015C014
:1017400007F016C008F017C009F017EC1CF006C02F
:1017500014F007C015F008C016F009C017F00A0E03
:101760000B6E0C6A0D6A0E6A17EC1CF002C014F0C6
:1017700003C015F004C016F005C017F0300E142693
:10178000000E1522162217221450E66EEAEC10F015
:10179000E552AB0EE66E370EE66E0C0EE66EE66AAE
:1017A00019EC07F0E552E552E552E5522E0EE66ED1
:1017B000EAEC10F0E552D9CFE9FFDACFEAFFEECF3D
:1017C00014F0EECF15F0EECF16F0EFCF17F00A0EB3
:1017D0000B6E0C6A0D6A0E6A14C006F015C007F095
:1017E00016C008F017C009F017EC1CF002C014F086
:1017F00003C015F004C016F005C017F002C0E6FFE4
:1018000003C0E6FF04C0E6FF05C0E6FF0D0EE66E6E
:10181000E66AF2EC05F0186E060EE15E1850D9CFBC
:10182000E9FFDACFEAFFEECF14F0EECF15F0EECFFE
:1018300016F0EFCF17F00A0E0B6E0C6A0D6A0E6AE7
:1018400014C006F015C007F016C008F017C009F064
:1018500017EC1CF002C014F003C015F004C016F021
:1018600005C017F0300E1426000E1522162217227E
:101870001450E66EEAEC10F0E552080EE15C02E26C
:10188000E16AE552E16EE552E7CFD9FF1200D9CF08
:10189000E6FFE1CFD9FF020EE126010E010100258E
:1018A000006F000E0121016F280E0D6E0E6A00C13F
:1018B00008F001C109F058EC1CF004C000F105C0AB
:1018C00001F101010450051001E019D25EEC1BF09A
:1018D000F3CFDEFFF4CFDDFF010E01010225026F21
:1018E000000E0321036F640E0D6E0E6A02C108F034
:1018F00003C109F058EC1CF004C002F105C003F16B
:10190000DECF06F0DDCF07F0086A096A07AE02D025
:1019100008680968780E0B6E050E0C6E0D6A0E6A6B
:10192000DFEC1BF002C006F003C007F004C008F0B3
:1019300005C009F00B68030E0C6E0D6A0E6AB4EC5C
:101940001AF006C004F107C005F1DECF06F0DDCFC6
:1019500007F0086A096A07AE02D008680968880EAD
:101960000B6E130E0C6E0D6A0E6ADFEC1BF002C0DC
:1019700006F003C007F004C008F005C009F00B68CA
:10198000030E0C6E0D6A0E6AB4EC1AF006C006F176
:1019900007C007F1DECF06F0DDCF07F0086A096A5D
:1019A00007AE02D008680968F40E0B6E010E0C6ECB
:1019B0000D6A0E6ADFEC1BF002C006F003C007F0F0
:1019C00004C008F005C009F00B68030E0C6E0D6A28
:1019D0000E6AB4EC1AF006C008F107C009F1DECFB8
:1019E00006F0DDCF07F0086A096A07AE02D0086882
:1019F0000968E80E0B6E030E0C6E0D6A0E6ADFECC2
:101A00001BF002C006F003C007F004C008F005C0D8
:101A100009F00B68030E0C6E0D6A0E6AB4EC1AF036
:101A200006C00AF107C00BF1DECF06F0DDCF07F0EC
:101A3000086A096A07AE02D008680968D00E0B6E02
:101A4000070E0C6E0D6A0E6ADFEC1BF002C006F08A
:101A500003C007F004C008F005C009F00B68030ECE
:101A60000C6E0D6A0E6AB4EC1AF006C00CF107C0D9
:101A70000DF1DECF14F0DDCF15F0166A176A15AE42
:101A800002D016681768D00E0B6E070E0C6E0D6A2A
:101A90000E6A14C006F015C007F016C008F017C093
:101AA00009F0DFEC1BF002C014F003C015F004C015
:101AB00016F005C017F00B68030E0C6E0D6A0E6A67
:101AC00002C006F003C007F004C008F005C009F02A
:101AD000B4EC1AF006C014F007C015F008C016F0F8
:101AE00009C017F0D00E1426070E1522000E16227C
:101AF000172214C00EF115C00FF1DECF06F0DDCFB6
:101B000007F0086A096A07AE02D008680968100E73
:101B10000B6E270E0C6E0D6A0E6ADFEC1BF002C016
:101B200006F003C007F004C008F005C009F00B6818
:101B3000030E0C6E0D6A0E6AB4EC1AF006C010F1BA
:101B400007C011F1A50EE66E370EE66E0C0EE66EBE
:101B5000E66A19EC07F0E552E552E552E5529F0EB0
:101B6000E66E370EE66EE66AE66A19EC07F0E552B5
:101B7000E552E552E5520A0E086E096A02C10DF0FF
:101B800003C10EF0E8EC1AF006C014F007C015F01F
:101B9000700E1426170E1522166A176A14C0E6FF77
:101BA00015C0E6FF16C0E6FF17C0E6FF060EE66E9C
:101BB000E66A44EC07F0186E060EE15E1850990EC6
:101BC000E66E370EE66EE66A010EE66E19EC07F079
:101BD000E552E552E552E552900E01010225146EE0
:101BE000010E0321156E166A176A14C0E6FFE66E31
:101BF00016C0E6FF17C0E6FF060EE66E010EE66EA3
:101C000044EC07F0186E060EE15E185082D8910E73
:101C1000E66E370EE66E18EC11F0E552E55204C19F
:101C2000E6FF05C1E6FFCAEC12F0E552E552880E68
:101C3000E66E370EE66E18EC11F0E552E55206C17D
:101C4000E6FF07C1E6FFCAEC12F0E552E5527C0E52
:101C5000E66E370EE66E18EC11F0E552E55208C15B
:101C6000E6FF09C1E6FFCAEC12F0E552E552700E3C
:101C7000E66E370EE66E18EC11F0E552E5520EC135
:101C8000E6FF0FC1E6FFCAEC12F0E552E552660E20
:101C9000E66E370EE66E18EC11F0E552E5520AC119
:101CA000E6FF0BC1E6FFCAEC12F0E552E5525A0E10
:101CB000E66E370EE66E18EC11F0E552E5520CC1F7
:101CC000E6FF0DC1E6FFCAEC12F0E552E5524D0EFB
:101CD000E66E370EE66E18EC11F0E552E55210C1D3
:101CE000E6FF11C1E6FFCAEC12F0E552E552440EE0
:101CF000E66E370EE66E18EC11F0E552E552020E74
:101D0000E15C02E2E16AE552E16EE552E7CFD9FF1C
:101D10001200E66A1CEC19F0E5520F01726F010E19
:101D2000E66E1CEC19F0E5520F01736F020EE66EC1
:101D30001CEC19F0E5520F01746F040EE66E1CECFA
:101D400019F0E5520F01756F050EE66E1CEC19F0E7
:101D5000E5520F01766F060EE66E1CEC19F0E552A7
:101D60000F01776F0A0E186E0E6E75CF09F047ECF3
:101D70001AF009C014F0156A166A176A14AE03D077
:101D800015681668176814C0E6FF15C0E6FF16C090
:101D9000E6FF17C0E6FFAFEC11F0E552E552E55261
:101DA000E55275CF09F00A0E0E6E47EC1AF005C029
:101DB00014F0156A166A176A14AE03D0156816680F
:101DC000176814C0E6FF15C0E6FF16C0E6FF17C08F
:101DD000E6FFAFEC11F0E552E552E552E552AB0EED
:101DE000E66E370EE66E18EC11F0E552E5520A0E7B
:101DF000186E0E6E76CF09F047EC1AF009C014F099
:101E0000156A166A176A14AE03D015681668176843
:101E100014C0E6FF15C0E6FF16C0E6FF17C0E6FFD8
:101E2000AFEC11F0E552E552E552E55276CF09F0FC
:101E30000A0E0E6E47EC1AF005C014F0156A166A09
:101E4000176A14AE03D015681668176814C0E6FF49
:101E500015C0E6FF16C0E6FF17C0E6FFAFEC11F0B5
:101E6000E552E552E552E552AB0EE66E370EE66EF0
:101E700018EC11F0E552E5520A0E186E0E6E77CF8F
:101E800009F047EC1AF009C014F0156A166A176ACF
:101E900014AE03D015681668176814C0E6FF15C0A5
:101EA000E6FF16C0E6FF17C0E6FFAFEC11F0E55203
:101EB000E552E552E55277CF09F00A0E0E6E47EC77
:101EC0001AF005C014F0156A166A176A14AE03D02A
:101ED00015681668176814C0E6FF15C0E6FF16C03F
:101EE000E6FF17C0E6FFAFEC11F0E552E552E55210
:101EF000E552420EE66E370EE66E18EC11F0E55232
:101F0000E5520A0E186E0E6E74CF09F047EC1AF007
:101F100009C014F0156A166A176A14AE03D0156862
:101F20001668176814C0E6FF15C0E6FF16C0E6FF86
:101F300017C0E6FFAFEC11F0E552E552E552E5526D
:101F400074CF09F00A0E0E6E47EC1AF005C014F0BB
:101F5000156A166A176A14AE03D0156816681768F2
:101F600014C0E6FF15C0E6FF16C0E6FF17C0E6FF87
:101F7000AFEC11F0E552E552E552E552400EE66E47
:101F8000370EE66E18EC11F0E552E5520A0E186EA7
:101F90000E6E73CF09F047EC1AF009C014F0156A01
:101FA000166A176A14AE03D015681668176814C04D
:101FB000E6FF15C0E6FF16C0E6FF17C0E6FFAFEC70
:101FC00011F0E552E552E552E55273CF09F00A0EE1
:101FD0000E6E47EC1AF005C014F0156A166A176AFF
:101FE00014AE03D015681668176814C0E6FF15C054
:101FF000E6FF16C0E6FF17C0E6FFAFEC11F0E552B2
:10200000E552E552E552400EE66E370EE66E18ECEC
:1020100011F0E552E5520A0E186E0E6E72CF09F0FD
:1020200047EC1AF009C014F0156A166A176A14AE64
:1020300003D015681668176814C0E6FF15C0E6FFE0
:1020400016C0E6FF17C0E6FFAFEC11F0E552E5520F
:10205000E552E55272CF09F00A0E0E6E47EC1AF007
:1020600005C014F0156A166A176A14AE03D0156815
:102070001668176814C0E6FF15C0E6FF16C0E6FF35
:1020800017C0E6FFAFEC11F0E552E552E552E5521C
:102090001200200EE66E52EC19F0E552220809E01B
:1020A00009D8220EE66E200EE66E41EC19F0E552DC
:1020B000E55212000F01320E726F3B0E736F170E56
:1020C000746F1F0E756F0C0E766F0E0E776F72CFDA
:1020D000E6FFE66A01EC19F0E552E55273CFE6FF40
:1020E000010EE66E01EC19F0E552E55274CFE6FF01
:1020F000020EE66E01EC19F0E552E55275CFE6FFEF
:10210000040EE66E01EC19F0E552E55276CFE6FFDB
:10211000050EE66E01EC19F0E552E55277CFE6FFC9
:0E212000060EE66E01EC19F0E552E5521200D3
:02212E00B06A95
:10213000810EAF6EAC8AAC94B886AC98AB8EAB888F
:102140009E9A9D8A9F9A949C948E1200D9CFE6FF06
:10215000E1CFD9FF040EE126DE6ADD6ADECF14F09E
:10216000DDCF15F0FD0EDBCF16F0FE0EDBCF17F046
:1021700015501718E8AE02D0173404D01650145C6E
:10218000175015581DE2020EDB6A030EDB6A020EC1
:10219000DBCF14F0030EDBCF15F0D890155004E61A
:1021A000EE0E145C000E155806E2020EDB2A030E3A
:1021B000EEE3DB2AECD7DF2A010ED0E3DB2ACED711
:1021C000040EE15C02E2E16AE552E16EE552E7CF1E
:1021D000D9FF1200D9CFE6FFE1CFD9FF9EA8FED7E5
:1021E000FE0EDB50AD6E9E98E552E7CFD9FF120090
:1021F000D9CFE6FFE1CFD9FFFD0EDBCFE9FFFE0E21
:10220000DBCFEAFFEF5010E0FD0EDBCFE9FFFE0E63
:10221000DBCFEAFFEF50E66EDDDFE552FD0EDB2A95
:10222000FE0EEAE3DB2AE8D7E552E7CFD9FF12003A
:10223000D9CFE6FFE1CFD9FFFD0EDBCFF6FFFE0ED3
:10224000DBCFF7FF0800F55015E0FD0EDBCFF6FF02
:10225000FE0EDBCFF7FF0800F550E66EBBDFE55260
:10226000FD0EDBCFF6FFDB2AFE0EDBCFF7FFE4E34C
:10227000DB2AE2D7E552E7CFD9FF1200D9CFE6FF3C
:10228000E1CFD9FF050EE126010EF36EDB6E020EE3
:10229000DB6A030EDB6A040EDB6ADF6ADFCF14F051
:1022A000156A14BE1568FB0EDBCF16F0FC0EDBCFF3
:1022B00017F015501718E8AE02D0173404D0165096
:1022C000145C175015582DE2FD0EDBCF14F0FE0EF6
:1022D000DBCF15F0166A176A15AE02D016681768BC
:1022E000D950010FE96EDACFEAFF14C00BF015C028
:1022F0000CF016C00DF017C00EF0EECF06F0EECFCA
:1023000007F0EECF08F0EFCF09F0DFEC1BF005C0CF
:10231000EDFF04C0EDFF03C0EDFF02C0EFFFDF2AB9
:10232000BDD7010EDBCF14F0020EDBCF15F0030E8C
:10233000DBCF16F0040EDBCF17F014C006F015C08B
:1023400007F016C008F017C009F0050EE15C02E2C4
:10235000E16AE552E16EE552E7CFD9FF1200D9CF2D
:10236000E6FFE1CFD9FF020EE126DF6AFB0EDBCFED
:1023700014F0FC0EDBCF15F0FD0EDBCF16F0FE0ED9
:10238000DBCF17F0145015101610171005E1300EA2
:10239000E66E20DFE552F4D0D950FB0FE96EFF0E58
:1023A000DA20EA6ED890030EEB50000A08E6000E21
:1023B000EE5C000EEE58000EEE58000EEE5815E2E0
:1023C0002D0EE66E07DFE552D950FB0FE96EFF0ECA
:1023D000DA20EA6E000EEE6CEF1EEE22EF1EEE2209
:1023E000EF1EEF22ED52ED52ED52DE520A0EDD6E7F
:1023F000010EDBCF14F0000EE76E1418E8AE02D029
:10240000143403D0E750D880145401E3B9D0010E3E
:10241000DB04186E196A18BE196818C0E6FF19C0E7
:10242000E6FF0A0EE66EE66A29DFE552E552E5525E
:10243000E55206C014F007C015F008C016F009C038
:1024400017F006C00BF007C00CF008C00DF009C073
:102450000EF0FB0EDBCF06F0FC0EDBCF07F0FD0E1F
:10246000DBCF08F0FE0EDBCF09F017EC1CF00650B6
:1024700007100810091041E0010EDF6EDB041C6E2E
:102480001D6A1CBE1D681CC0E6FF1DC0E6FF0A0ECB
:10249000E66EE66AF3DEE552E552E552E55206C025
:1024A00018F007C019F008C01AF009C01BF006C0E8
:1024B0000BF007C00CF008C00DF009C00EF0FB0EC9
:1024C000DBCF06F0FC0EDBCF07F0FD0EDBCF08F014
:1024D000FE0EDBCF09F017EC1CF006C014F007C0AD
:1024E00015F008C016F009C017F0300E1426000EC3
:1024F000152216221722145003D0DF5004E0300EAC
:10250000E66E68DEE552010EDB04186E196A18BE2D
:10251000196818C0E6FF19C0E6FF0A0EE66EE66A03
:10252000ADDEE552E552E552E55206C014F007C0B3
:1025300015F008C016F009C017F0D950FB0FE96E6E
:10254000FF0EDA20EA6E06C00BF007C00CF008C0E0
:102550000DF009C00EF0EECF06F0EECF07F0EECF93
:1025600008F0EFCF09F017EC1CF005C0EDFF04C038
:10257000EDFF03C0EDFF02C0EFFF010EDB0638D711
:10258000020EE15C02E2E16AE552E16EE552E7CF5C
:10259000D9FF1200D9CFE6FFE1CFD9FFFD0EDBCF87
:1025A00014F0FE0EDBCF15F0640E0D6E0E6A14C033
:1025B00008F015C009F061EC1AF008C014F009C069
:1025C00015F0166A176A15AE02D01668176814C09F
:1025D000E6FF15C0E6FF16C0E6FF17C0E6FFBFDE48
:1025E000E552E552E552E5522E0EE66EF3DDE55278
:1025F000FD0EDBCF14F0FE0EDBCF15F0640E0D6E7A
:102600000E6A14C008F015C009F061EC1AF004C09D
:1026100014F005C015F0166A176A15AE02D01668D8
:10262000176814C0E6FF15C0E6FF16C0E6FF17C026
:10263000E6FF95DEE552E552E552E552E552E7CF79
:10264000D9FF1200D9CFE6FFE1CFD9FFE652AE5055
:10265000DF6E3C0EE66E370EE66EE66A010EE66E43
:1026600019EC07F0E552E552E552E552DFCF14F0E0
:10267000156A166A176A14C0E6FF15C0E6FF16C091
:10268000E6FF17C0E6FFE66A010EE66EF2EC05F023
:10269000186E060EE15E1850E552E552E7CFD9FFFD
:0226A000120026
:0E26A200D9CFE6FFE1CFD9FFD59EFD0EDBCFED
:1026B00028FFFE0EDBCF29FFD59C17681868196A22
:1026C00028CF1AF029CF1BF01C6A1A50175C146E21
:1026D0001B501858156E1C501958166E0C6A010EB6
:1026E0000D6E0E6A14C007F015C008F016C009F090
:1026F00087EC1AF00350D66E17681868196A28CF4D
:102700001AF029CF1BF01C6A1A50175C146E1B506C
:102710001858156E1C501958166E0C6A010E0D6E65
:102720000E6A14C007F015C008F016C009F087EC57
:102730001AF007C014F008C015F009C016F00750D1
:10274000D76ED59AD586F28AF294F184D58EE55269
:10275000E7CFD9FF1200D59E120017681868196AD2
:1027600028CF1AF029CF1BF01C6A1A50175C146E80
:102770001B501858156E1C501958166E0C6A010E15
:102780000D6E0E6A14C007F015C008F016C009F0EF
:1027900087EC1AF00350D66E17681868196A28CFAC
:1027A0001AF029CF1BF01C6A1A50175C146E1B50CC
:1027B0001858156E1C501958166E0C6A010E0D6EC5
:1027C0000E6A14C007F015C008F016C009F087ECB7
:1027D0001AF007C014F008C015F009C016F0075031
:1027E000D76ED58E1200D9CFE6FFE1CFD9FFCD90BD
:1027F000FD0EDBCF2AFFFE0EDBCF2BFF176818681C
:10280000196A2ACF1AF02BCF1BF01C6A1A50175CDA
:10281000146E1B501858156E1C501958166E0C6A01
:10282000010E0D6E0E6A14C007F015C008F016C038
:1028300009F087EC1AF00750CF6E17681868196A0C
:102840002ACF1AF02BCF1BF01C6A1A50175C146E9B
:102850001B501858156E1C501958166E0C6A010E34
:102860000D6E0E6A14C007F015C008F016C009F00E
:1028700087EC1AF003C014F004C015F005C016F080
:102880000350CE6E9D809E909F90CD8ECD8CCD9826
:10289000CD9ACD96CD92CD80E552E7CFD9FF1200EB
:1028A00017681868196A2ACF1AF02BCF1BF01C6A18
:1028B0001A50175C146E1B501858156E1C5019587E
:1028C000166E0C6A010E0D6E0E6A14C007F015C06C
:1028D00008F016C009F087EC1AF00750CF6E1768A1
:1028E0001868196A2ACF1AF02BCF1BF01C6A1A50ED
:1028F000175C146E1B501858156E1C501958166E24
:102900000C6A010E0D6E0E6A14C007F015C008F0B7
:1029100016C009F087EC1AF003C014F004C015F0DB
:1029200005C016F00350CE6ECD801200CD9012007F
:10293000D9CFE6FFE1CFD9FFCA94CC6AFE0EDB50B7
:102940000F012C6F2D6BCB6E9D829E929F92CA9031
:10295000CA92CA84E552E7CFD9FF12002CCFCBFF31
:10296000CA841200CA941200D9CFE6FFE1CFD9FF82
:10297000B190FD0EDBCF2EFFFE0EDBCF2FFF1768D1
:102980001868196A2ECF1AF02FCF1BF01C6A1A5044
:10299000175C146E1B501858156E1C501958166E83
:1029A0000C6A010E0D6E0E6A14C007F015C008F017
:1029B00016C009F087EC1AF00750B36E1768186854
:1029C000196A2ECF1AF02FCF1BF01C6A1A50175C11
:1029D000146E1B501858156E1C501958166E0C6A40
:1029E000010E0D6E0E6A14C007F015C008F016C077
:1029F00009F087EC1AF003C014F004C015F005C00C
:102A000016F00350B26EA082A192A292B18EB1983C
:102A1000B19AB192B180E552E7CFD9FF12001768A1
:102A20001868196A2ECF1AF02FCF1BF01C6A1A50A3
:102A3000175C146E1B501858156E1C501958166EE2
:102A40000C6A010E0D6E0E6A14C007F015C008F076
:102A500016C009F087EC1AF00350B26E17681868B8
:102A6000196A2ECF1AF02FCF1BF01C6A1A50175C70
:102A7000146E1B501858156E1C501958166E0C6A9F
:102A8000010E0D6E0E6A14C007F015C008F016C0D6
:102A900009F087EC1AF007C014F008C015F009C05F
:102AA00016F00750B36EB1801200B19012000F0102
:102AB000382B000E39234051385D4151395904E318
:102AC000386B396B010E306F12000F013A2B000E7C
:102AD0003B2342513A5D43513B5904E33A6B3B6B14
:102AE000010E316F12000F013C2B000E3D234451AB
:102AF0003C5D45513D5904E33C6B3D6B010E326F2B
:102B000012000F013E2B000E3F2346513E5D475100
:102B10003F5904E33E6B3F6B010E336F1200D9CF78
:102B2000E6FFE1CFD9FFFD0EDBCF40FFFE0EDBCF8E
:102B300041FF0F01386B396B306BE552E7CFD9FF9E
:102B40001200D9CFE6FFE1CFD9FFFD0EDBCF42FF68
:102B5000FE0EDBCF43FF050E0D6E0E6A42CF08F06E
:102B600043CF09F061EC1AF008C042FF09C043FFEF
:102B70000F013A6B3B6B316BE552E7CFD9FF120087
:102B8000D9CFE6FFE1CFD9FFFD0EDBCF46FFFE0E2A
:102B9000DBCF47FF0A0E0D6E0E6A46CF08F047CF17
:102BA00009F061EC1AF008C046FF09C047FF0F01A9
:0E2BB0003E6B3F6B336BE552E7CFD9FF12004F
:022BBE000F0EF8
:102BC000946E82681200CF0E9414946E8268120084
:102BD000D9CFE6FFE1CFD9FF040EE126DE6ADD6A38
:102BE000DECF14F0DDCF15F0D890155004E6040EBA
:102BF000145C000E155801E390D0DECFE9FFDDCF65
:102C0000EAFF200EE9260F0EEA22EF1C826E020E6A
:102C1000DB6A030EDB6A020EDBCF14F0030EDBCFA0
:102C200015F0D890155004E6040E145C000E1558EB
:102C30006EE2020EDBCFE9FF030EDBCFEAFF240ECC
:102C4000E9260F0EEA22EF5082143FE1DECF18F0A2
:102C5000DDCF19F0D89018361936D89018361936B5
:102C6000020EDB501824E96E030EDB501920EA6EC9
:102C7000D890E936EA36000EE9260F0EEA22EECFAA
:102C800016F0EFCF17F0010E1626000E1722DECF3A
:102C900014F0DDCF15F0D89014361536D8901436D0
:102CA0001536020EDB501424E96E030EDB5015209E
:102CB000EA6ED890E936EA36000EE9260F0EEA22CF
:102CC00016C0EEFF17C0EDFF1BD0DECF14F0DDCF36
:102CD00015F0D89014361536D89014361536020EE5
:102CE000DB501424E96E030EDB501520EA6ED890F9
:102CF000E936EA36000EE9260F0EEA22EE6AED6AA0
:102D0000020EDB2A030E01E286D7DB2A84D7DF2AF4
:102D1000010E01E265D7DB2A63D7040EE15C02E213
:102D2000E16AE552E16EE552E7CFD9FF1200D9CF53
:102D3000E6FFE1CFD9FF040EE126DE6ADD6ADECFD1
:102D400014F0DDCF15F0D890155004E6020E145C97
:102D5000000E155801E394D0DECFE9FFDDCFEAFF86
:102D6000200EE9260F0EEA22EF1C8214826E0F0E4F
:102D70008210826E020EDB6A030EDB6A020EDBCF6C
:102D800014F0030EDBCF15F0D890155004E6040EB6
:102D9000145C000E15586EE2020EDBCFE9FF030E45
:102DA000DBCFEAFF240EE9260F0EEA22EF50821451
:102DB0003FE1DECF18F0DDCF19F0D8901836193684
:102DC000D89018361936020EDB501824E96E030E1F
:102DD000DB501920EA6ED890E936EA36000EE92673
:102DE0000F0EEA22EECF16F0EFCF17F0010E1626E7
:102DF000000E1722DECF14F0DDCF15F0D890143678
:102E00001536D89014361536020EDB501424E96EB0
:102E1000030EDB501520EA6ED890E936EA36000E34
:102E2000E9260F0EEA2216C0EEFF17C0EDFF1BD0F9
:102E3000DECF14F0DDCF15F0D89014361536D890CB
:102E400014361536020EDB501424E96E030EDB50E7
:102E50001520EA6ED890E936EA36000EE9260F0E04
:102E6000EA22EE6AED6A020EDB2A030E01E286D741
:102E7000DB2A84D7DF2A010E01E261D7DB2A5FD784
:102E8000040EE15C02E2E16AE552E16EE552E7CF51
:102E9000D9FF1200D9CFE6FFE1CFD9FF040EE1261A
:102EA000DE6ADD6ADECF14F0DDCF15F0FD0EDBCF7C
:102EB00016F0FE0EDBCF17F015501718E8AE02D053
:102EC000173404D01650145C175015581DE2020E2A
:102ED000DB6A030EDB6A020EDBCF14F0030EDBCFDE
:102EE00015F0D890155004E6EE0E145C000E15583F
:102EF00006E2020EDB2A030EEEE3DB2AECD7DF2A22
:102F0000010ED0E3DB2ACED7040EE15C02E2E16AD7
:102F1000E552E16EE552E7CFD9FF1200D9CFE6FFC7
:102F2000E1CFD9FF040EE126DE6ADD6ADECF14F0C0
:102F3000DDCF15F0D890155004E6040E145C000E99
:102F4000155875E2DECFE9FFDDCFEAFF200EE92656
:102F50000F0EEA22EF1C826E020EDB6A030EDB6AA2
:102F6000020EDBCF14F0030EDBCF15F0D890155016
:102F700004E6040E145C000E15584AE2DECF14F08D
:102F8000DDCF15F0D89014361536D8901436153696
:102F9000020EDB501424E96E030EDB501520EA6E9E
:102FA000D890E936EA36000EE9260F0EEA22EE6ADC
:102FB000ED6A020EDBCFE9FF030EDBCFEAFF240E42
:102FC000E9260F0EEA22EF5082141CE1DECF14F046
:102FD000DDCF15F0D89014361536D8901436153646
:102FE000020EDB501424E96E030EDB501520EA6E4E
:102FF000D890E936EA36000EE9260F0EEA22010ED5
:10300000EE6EED6A020EDB2A030EAAE3DB2AA8D7D6
:103010008250816EE80EE66E030EE66E3BDFE552EF
:10302000E552DF2A010E01E281D7DB2A7FD7040EA9
:10303000E15C02E2E16AE552E16EE552E7CFD9FFD9
:0230400012007C
:0E304200D9CFE6FFE1CFD9FF020EE126FE0E48
:10305000DB500F0BDF6EFE0EDB380F0B0A0D010E7F
:10306000F3CFDBFFDB50DF24146E020EE15C02E2E3
:10307000E16AE552E16E1450E552E7CFD9FF120044
:10308000D9CFE6FFE1CFD9FF020EE1260A0E146E7A
:103090000E6EFE0EDBCF09F08CEC1CF00550DF6EDF
:1030A0000A0E146E0E6EFE0EDBCF09F08CEC1CF0D7
:1030B0000950100D010EF3CFDBFFDB50DF24146E3F
:1030C000020EE15C02E2E16AE552E16E1450E55263
:1030D000E7CFD9FF1200949694981200D9CFE6FF5B
:1030E000E1CFD9FFE652DF6AFE0EDB50DF5C02E281
:1030F000DF2AFAD7E552E552E7CFD9FF120082A8BE
:10310000000C010C0001FC5102E08288828682984A
:103110008296010EFC6F12008298828682880001DE
:10312000FC6B1200D9CFE6FFE1CFD9FF020EE126FA
:10313000DF6ADFCF14F0080EE76E1418E8AE02D095
:10314000E73402D0E750145C0FE2FE0EDBBE02D083
:10315000829801D0828882868296DB50020DFE0E14
:10316000F3CFDBFFDF2AE5D794888286C8DFE76EDE
:10317000010EE7CFDBFF82969498DB50146E020EAF
:10318000E15C02E2E16AE552E16E1450E552E7CFFC
:10319000D9FF1200D9CFE6FFE1CFD9FF020EE12619
:1031A000DF6A9488010EDB6ADBCF14F0080EE76E4D
:1031B0001418E8AE02D0E73402D0E750145C0BE2FA
:1031C00082869DDF146EDF50E8241410DF6E829635
:1031D000010EDB2AE9D79498FE0EDB5002E08288CC
:1031E00001D0829882868296DF50146E020EE15CD6
:1031F00002E2E16AE552E16E1450E552E7CFD9FFF1
:103200001200D9CFE6FFE1CFD9FF7CDFD00EE66E0A
:1032100089DFE552FE0EDBCFE6FF84DFE552FD0ECF
:10322000DBCFE6FF2DDFE552E66E7CDFE55274DF93
:10323000E552E7CFD9FF1200D9CFE6FFE1CFD9FFA2
:10324000E65260DFD00EE66E6DDFE552FE0EDBCF9C
:10325000E6FF68DFE55256DFD10EE66E63DFE5522A
:10326000010EE66E97DFE552DF6EDFCFE6FFE9DEA7
:10327000E552DF6E51DFDF50E552E552E7CFD9FF6F
:103280001200D9CFE6FFE1CFD9FFFD0EDBCFE6FF7D
:10329000FE0EDBCFE6FFB5DFE552E552E552E7CFA4
:1032A000D9FF1200D9CFE6FFE1CFD9FFFE0EDBCF69
:0E32B000E6FFC2DFE552E552E7CFD9FF12007C
:0232BE00F28E8E
:1032C000D08EF28C1200F19CF292F2881200D8CFCC
:1032D000E4FFE0CFE4FFE46EDACFE4FFE2CFDAFF11
:1032E000E9CFE4FFEACFE4FFF6CFE4FFF7CFE4FF56
:1032F000F5CFE4FFF3CFE4FFF4CFE4FFFACFE4FF30
:1033000000EE00F0140EE80403E3EECFE4FFFBD779
:1033100000EE14F00A0EE80403E3EECFE4FFFBD75F
:10332000E652F2A407D0ABEC13F0F294ADEC13F03C
:1033300057EC15F09EA007D096EC14F09E9050EC40
:1033400014F065EC15F0A1A207D055EC15F0A19290
:103350000FEC15F081EC15F0F2B2F2929EAA03D0B8
:103360009E9A22EC13F0E55200EE1DF00A0EE804DE
:1033700003E3E5CFEDFFFBD700EE13F0140EE804F6
:1033800003E3E5CFEDFFFBD7E5CFFAFFE5CFF4FF91
:10339000E5CFF3FFE5CFF5FFE5CFF7FFE5CFF6FF8C
:1033A000E5CFEAFFE5CFE9FFE5CFDAFFE550E5CF6E
:1033B000E0FFE5CFD8FF1000DACFE4FFE2CFDAFF7D
:1033C000E9CFE4FFEACFE4FFF6CFE4FFF7CFE4FF75
:1033D000F5CFE4FFF3CFE4FFF4CFE4FFFACFE4FF4F
:1033E00000EE00F0140EE80403E3EECFE4FFFBD799
:1033F00000EE14F00A0EE80403E3EECFE4FFFBD77F
:10340000E652F2A407D0ABEC13F0F294ADEC13F05B
:1034100057EC15F09EA007D096EC14F09E9050EC5F
:1034200014F065EC15F0A1A207D055EC15F0A192AF
:103430000FEC15F081EC15F0F2B2F2929EAA03D0D7
:103440009E9A22EC13F0E55200EE1DF00A0EE804FD
:1034500003E3E5CFEDFFFBD700EE13F0140EE80415
:1034600003E3E5CFEDFFFBD7E5CFFAFFE5CFF4FFB0
:10347000E5CFF3FFE5CFF5FFE5CFF7FFE5CFF6FFAB
:0E348000E5CFEAFFE5CFE9FFE5CFDAFF110067
:02348E00006AD2
:103490000EAE4DEF1AF00E6C001E09AE52EF1AF090
:1034A000096C001E8CEC1CF009BE5CEF1AF000AE3B
:1034B000000C096C056C000C00BE59EF1AF0018875
:1034C000FF0C006A0EAE6AEF1AF00D6C0E1EE86A71
:1034D0000E22001E09AE72EF1AF0086C091EE86A8F
:1034E0000922001E58EC1CF009BE82EF1AF000AE53
:1034F000000C086C091EE86A0922046C051EE86AC3
:103500000522000C00BE79EF1AF00188FF0C006A5A
:103510000EAE92EF1AF00C6C0D1E0E1EE86A0D2214
:103520000E22001E09AE9CEF1AF0076C081E091E41
:10353000E86A08220922001E3BEC1CF009BEAFEF2E
:103540001AF000AE000C076C081E091EE86A08227B
:103550000922036C041E051E04220522000C00BE75
:10356000A3EF1AF00188FF0C006AE86A0EAEC1EF03
:103570001AF00B6C0C1E0D1E0E1E0C220D220E22BC
:10358000001E09AECCEF1AF0066C071E081E091EBD
:10359000072208220922001E17EC1CF009BEE3EFE7
:1035A0001AF000AE000C066C071E081E091EE86A21
:1035B000072208220922026C031E041E051E032294
:1035C00004220522000C00BED3EF1AF00188FF0C84
:1035D00008C012F008500D02F4CF07F0F3CF06F048
:1035E00009500E02F4CF09F0F3CF08F00D02F350AA
:1035F0000726F4500822E86A092212500E02F350FE
:0C3600000726F4500822E86A0922000C9A
:04360C001E0EF66E2A
:10361000000EF76E000EF86E01010900F550176FED
:103620000900F550186F03E1176701D03DD009007C
:10363000F550126F0900F550136F0900F550146F23
:1036400009000900F550E96E0900F550EA6E09001D
:1036500009000900F550156F0900F550166F0900B3
:103660000900F6CF19F1F7CF1AF1F8CF1BF112C10B
:10367000F6FF13C1F7FF14C1F8FF0101155302E172
:10368000165307E00900F550EE6E1507F8E216072D
:10369000F9D719C1F6FF1AC1F7FF1BC1F8FF0101E5
:0A36A0001707000E185BBFD71200D9
:0636AA00010E926E0E0EEF
:1036B000C16EC26A040EC06EC2801200D9CFE6FF8E
:1036C000E1CFD9FF020EE126DE6ADD6AC282C2B214
:1036D000FED7C450DE6EDD6ADECF16F0DDCF17F008
:1036E000D89016361736D89016361736060EC3CF32
:1036F000E7FF070B04E0E742E79EE806FCE1E7503E
:103700001624146E000E172014C0DEFFDD6EDECF0F
:1037100048FFDDCF49FFDECF14F0DDCF15F014C038
:10372000F3FF15C0F4FF020EE15C02E2E16AE5522C
:0A373000E16EE552E7CFD9FF120069
:06373A002E0020202000FB
:103740003A002000206D332F68200D0A00206D679D
:103750002F6C20464C4F573D2000206D672F6C206A
:103760004E4F333D200020F843204E48343D20008A
:10377000206D672F6C20544D503D2000206D672F29
:103780006C204353423D20002070482053533D207D
:1037900000202070483D202000434F443D2000532E
:1037A000533D202000474D415431002E0020202061
:0E37B00020202020202020202020202020006B
:0237BE000650B3
:1037C0000B02F3CF02F0F4CF03F00C02F350032608
:1037D000000EF420046E06500D02F3500426000E75
:1037E000F420056E06500E02F350052607500B021A
:1037F000F3500326F4500422000E052207500C0259
:10380000F3500426F450052207500D02F35005260C
:1038100008500B02F3500426F450052208500C0205
:0E382000F350052609500B02F3500526120046
:02382E00056A29
:10383000046A036A026A200EE76ED89006360736DD
:103840000836093602360336043605360B50025C5C
:103850000C5003580D5004580E50055809E30B50F6
:10386000025E0C50035A0D50045A0E50055A062A97
:06387000E72EE4D7120070
:0A387600056A046A036A180EE76E83
:10388000D8900736083609360336043605360C500C
:10389000035C0D5004580E50055807E30C50035EAE
:1038A0000D50045A0E50055A072AE72EEAD7120087
:1038B000056A046A100EE76ED89008360936043699
:1038C00005360D50045C0E50055805E30D50045E9E
:0C38D0000E50055A082AE72EF0D712000F
:0438DC00800EF36EF9
:1038E00000EE00F00F0E01D81200EA6002D0EE6A7E
:0C38F000FCD7F350E9601200EE6AFCD730
:0438FC001EEE00F0CC
:103900002EEE00F0F86A019C06EC1BF003EC00F0D0
:08391000A8EC08F0FBD712003F
:08391800056A080EE76ED89065
:10392000093605360E50055C02E3056E092AE72EBE
:04393000F7D71200B3
:0C39340000000000000000000000000087
:103940000000000000000000000000000100010075
:043950000100010071
:0C39540001020408102040800000000068
:0A396000000000000000000000005D
:06396A0000000000000057
:103970000000101010101010101018181818181837
:1039800018181C1C1C1C1C1C1C1C1E1E1E1E1E1E73
:103990001E1E1F1F1F1F1F1F1F1F000000000000F3
:1039A0000000000000000000000000000000000017
:1039B0000000000000000000000000000000000007
:0B39C0000000000000000000000000FC
:0539CB00000000D00027
:1039D000222222072509100001000000000000003B
:0739E00000000000000000E0
:0939E700000000000000000000D7
:1039F00000000000000000000000000000000000C7
:0F3A0000000000000000001020408001020408B8
:020000040030CA
:0100010002FC
:0100020003FA
:010003001EDE
:010005008179
:010006008178
:010008000FE8
:01000900C036
:01000A000FE6
:01000B00E014
:01000C000FE4
:01000D0040B2
:00000001FF
