:020000040000FA
:06000000DBEF11F012001D
:020006001200E6
:06000800F4EF0FF01200FE
:02000E000000F0
:020010000000EE
:06001800B8EF0FF012002A
:02001E000600DA
:10002000A1240000000F000028000000852400002B
:10003000E10000001C0000000E0000007C0F00002A
:100040000400000024240000800000006100000083
:100050000E240000620F000016000000EE230000D6
:08006000280F00002000000041
:08006800CEEC04F0E3DB15AE61
:1000700002D0166817688CDB13E2F1DBB1DB04E613
:10008000050E145C000E155806E2020EDB2A030E64
:10009000F5E3DB2AF3D7DF2A010EE8E3DB2AE6D714
:1000A000040EE15C02E2E16AE552E16E1FD3CEECA0
:1000B00004F0C0DB15AE02D01668176869DB13E2E6
:1000C000CEDB8EDB04E6EE0E145C000E155806E265
:1000D000020EDB2A030EF5E3DB2AF3D7DF2A010E3B
:1000E000E8E3DB2AE6D7040EE15C02E2E16AE552CE
:1000F000E16EFCD2D4EC04F0F00B80EC04F0FE0EC8
:10010000DB38F00B8112CDDAF1D2CBEC04F0190E12
:10011000C2DB0F0E8116F80E81160F0E8116300EFF
:10012000EFDB300EEDDB300EEBDB818ABADA280E26
:10013000E66EE0DFE5520C0EE66EDCDFE552E552DE
:10014000D5D2C1EC04F0010EDB6A8194DEDBE76EF0
:10015000010EE7CFDBFF8196D8DBDF6E010EDB50AF
:10016000DF128196010EA4DADF50146E020EE15CFC
:1001700002E2E16AE552E16E1450B8D2CBEC04F031
:10018000DF6ADFDFDF6EDFBEFCD7DF50E552AED2C5
:10019000D4EC04F081128186050E8ADA8196050E70
:1001A00087DAA4D29EDA8194050E82DAFDDA9ED235
:1001B00098DA8184050E7CDAF7DA819497D2CDD370
:1001C000CCD38FDAFD0EDBCFF6FFFE0EDBCFF7FFD1
:1001D0000800F5500DE0FD0EDBCFF6FFDB2AFE0E2A
:1001E000DBCFF7FF01E3DB2A0800F550ADDBEAD7F0
:1001F0007DD2D1DBFD0EDB500F0B146EFE0EDB50FB
:10020000010B400DF3501424DF6E7F0EDF14800FBE
:10021000DF6EDFCFE6FFC6DFE552E55267D2010EA3
:10022000E66EC0DFE552E66AE66ADAEF04F059DA14
:10023000050EE126010EF36EDB6E11DB040EDB6AA8
:10024000DF6ADFCF14F0156A14BE1568FADA1550AC
:100250001718E8AE02D0173404D01650145C1750AB
:1002600015581FE2FD0EDBCF14F0FE0EDBCF15F0AC
:10027000166A176A15AE02D016681768D950010FB2
:10028000E96EDACFEAFF14C00BF015C00CF016C00F
:100290000DF017C00EF096DB3CEC11F069DBDF2AA5
:1002A000D0D7010EDBCF14F0020EDBCF15F0030E1A
:1002B000DBCF16F0040EDBCF17F004DB050EE15C9C
:1002C00002E2E16AE552E16E11D25BDBFB0EDBCFAD
:1002D00014F0FC0EDBCF15F0FD0EDBCF16F0FE0E9A
:1002E000DBCF17F0145015101610171003E1300E65
:1002F0002BDB36D0D950FB0F7CDA01E680DA05E241
:100300002D0E22DBD950FB0F36DADE52070EDD6EE2
:100310009FDAE8AE02D0143403D0E750D8801454EA
:100320001FE27FDA18BE1968CAD9ACDAF7DA70DAD8
:100330000BE0010EDF6EDB041C6E1D6A1CBE1D6827
:10034000EFD9ECDA0BDA03D0DF5002E0300EFCDA42
:1003500068DA18BE1968B3D9D950FB0FD8D9D8D7E5
:10036000020EE15C02E2E16AE552E16EBFD1B9D969
:1003700031DAD950F90FECDAEECFE6FFEECFE6FF37
:10038000EECFE6FFEFCFE6FFA0DF25DBAFD1A9D9A7
:1003900021DAFB0EDBCFE6FFFC0EDBCFE6FF11DF41
:1003A000E552E552A3D19DD978CF14F079CF15F05D
:1003B000040ED89014361536E806FBE1FFD9FE0E80
:1003C000DBCFEFFF7A2B000E7B2390D1E4DADF6ADC
:1003D000DFCF14F0100EE76E1418E8AE02D0E73449
:1003E00002D0E750145C18E2DFCFE9FFEA6AE9BE09
:1003F000EA68C10EE926000EEA22200EEF6EDFCF7A
:10040000E9FFEA6AE9BEEA68D10EE926000EEA22AF
:10041000200EEF6EDF2ADCD7E55268D1BCDA00018E
:10042000C051030A29E0010A1CE0030A0CE0010A9A
:1004300032E1C4DA080EDF5C03E2DF5055DAFAD7A6
:100440000001010E17D0080EE66EE66A78D9080E94
:10045000DF5C04E2080EDF2447DAF9D70001020E60
:1004600009D094DA080EDF5C03E2DF5043DAFAD7F2
:100470000001030EC06F10D0080EE66E010EE66E8E
:100480005ED9080EDF5C04E2080EDF2433DAF9D708
:100490000001C06B01D0C06BE55228D17CDA0001AD
:1004A000C051010A0DE0010A15E188DA100EDF5C87
:1004B00003E2DF5019DAFAD70001010EC06F0BD04A
:1004C00065DA100EDF5C03E2DF5014DAFAD70001C0
:1004D000C06B01D0C06BE55209D15DDA6FDA100E46
:1004E000DF5C03E2DF5000DAFAD750DA100EDF5C8F
:1004F00003E2DF50FFD9FAD7E552F8D0F2D822D97B
:1005000078CF14F079CF15F0040ED8901436153644
:10051000E806FBE153D9FC0EDBCFEFFFE7D031DA81
:1005200011D9F90EDBCF14F0FA0EDBCF15F089D913
:10053000145015101610171003E1300E77D936D06D
:10054000D950F90F56D901E65AD905E22D0E6ED9C8
:10055000D950F90F10D9DE52070EDD6E79D9E8AE09
:1005600002D0143403D0E750D88014541FE259D974
:1005700018BE1968A4D886D9DCD94AD90BE0010E77
:10058000DF6EDB041C6E1D6A1CBE1D68C9D8D1D984
:10059000E5D803D0DF5002E0300E48D942D918BE6A
:1005A00019688DD8D950F90FB2D8D8D7020EE15CAE
:1005B00002E2E16AE552E16E99D093D8C3D8FB0E0E
:1005C000DBCFF6FFFC0EDBCFF7FF0800F5500DE0A8
:1005D000FB0EDBCFF6FFDB2AFC0EDBCFF7FF01E3E0
:1005E000DB2A0800F55022D9EAD780D07AD8050E48
:1005F000E12602DAF90EDBCFEEFFFA0EDBCFEEFFDB
:10060000FB0EDBCFEEFFFC0EDBCFEEFF2DD9E80EAD
:100610000B6E030E0C6E5AD8FD0EDBCFE6FF6AD8C8
:10062000640E0B6E0C6A52D8FD0EDB28E66E26D9DE
:10063000640E0B6E0C6A37D9F40EE66E210EE66E70
:10064000FD0EDB50020FE66EDCD9B7DFC4D90CD942
:100650000A0E0B6E0C6A3AD8FD0EDB50030FE66EE5
:1006600049D80A0E0B6E0C6AC2D902C014F003C03E
:1006700015F004C016F005C017F002C0E6FF03C075
:10068000E6FF04C0E6FF05C0E6FFFD0EDB50040FE9
:10069000E66EA6D9050EE15C02E2E16AE552E16E82
:1006A00025D08186010EF7D88196010E4BEF04F01C
:1006B000E66EE66AE66AE66AD7DCEBEF04F018C09D
:1006C000E6FF19C0E6FF4ED96BEF04F090D903D9CD
:1006D00006C0E6FF07C0E6FF08C0E6FF09C0E6FF68
:1006E0001200D9CFE6FFE1CFD9FF1200E552E7CFE4
:1006F000D9FF1200C3D8E80E0B6E030E0C6ED3D8D0
:1007000034EF04F0EA22EF501FD9DF2A120020D97B
:10071000B9D858D974EC11F02BD9010EDB061200B0
:100720001CC0E6FF1DC0E6FF1DD906C018F007C0BB
:1007300019F008C01AF009C01BF042EF04F03AD9D2
:10074000DF6A1200FE0EDB50010B0F01786F796B30
:10075000FD0EDB500F0B7A6F7B6B1200DBCF09F0C5
:1007600074EC11F0B8D8300E1426000E15221622A3
:10077000172214501200ECD8000EEE6CEF1EEE2281
:10078000EF1EEE22EF1EEF22ED52ED52ED5212005F
:10079000D950FB0FDDD8EE50145CEE501558EE50DA
:1007A0001658EE50175812002CD9F2DCE552FE0E06
:1007B000DB38F00BE66EECDCE5521200C10E1426BD
:1007C000000E152214500F017A25E96E15507B2179
:1007D000EA6E1200FD0EDBCFE6FF13D9DAEF04F06C
:1007E000020EDBCF14F0030EDBCF15F0D8901550BE
:1007F0001200AED8D890030EEB50000A1200000E83
:10080000EE5C000EEE58000EEE58000EEE58120090
:10081000DBCF09F074EC11F0065007100810091036
:100820001200010EDB04186E196A1200E66EBBDDC1
:10083000E5521200DECF14F0DDCF15F0166A176A0C
:100840001200FB0EDBCF16F0FC0EDBCF17F0120010
:10085000010EDBCF14F0000EE76E14181200020E2A
:10086000DB6A030EDB6A1200C7D8EECF14F0EECFBE
:1008700015F0EECF16F0EFCF17F01200B1D8BCD8BC
:10088000E2EF04F006C00BF007C00CF008C00DF05A
:1008900009C00EF01200E66EE66AE66AE66A57ECF8
:1008A00000F0EBEF04F00D6A0E6A5EEC0FF002C090
:1008B000DEFF03C0DEFF04C0DEFF05C0DDFFDD524A
:1008C000DD52120014C006F015C007F016C008F083
:1008D00017C009F0120006C014F007C015F008C0D8
:1008E00016F009C017F01200EA6AC10FE96E000E97
:1008F00082EF03F0EA6AD10FE96E000E82EF03F097
:100900008112CFDE0F0E811612000F0ED1DE0F0EF8
:1009100081128186CDDE0F0E81141200FB0EDBCF1B
:1009200006F0FC0EDBCF07F0FD0EDBCF08F0FE0E6D
:100930001200F90EDBCF06F0FA0EDBCF07F0FB0E4C
:10094000DBCF08F0FC0E1200E66E3ADCE552120036
:10095000E96EFF0EDA20EA6E1200C3DE52D828DC00
:10096000E552C4D60A0EE66EE66A61DCEBEF04F0EF
:1009700005C0EDFF04C0EDFF03C0EDFF02C0EFFFB7
:100980001200AFDE020EE126DF6A1200E66A010EF7
:10099000E66E9FEF03F0A5DEE6521200A2DE040E23
:1009A000E126DE6ADD6A12009CDE0F0E8116FE0E65
:1009B000DB5012001EDCE552E5521200E66AE66AE0
:1009C0009FEF03F0EECF06F0EECF07F0EECF08F08A
:1009D000EFCF09F01200E552E552E552E552120060
:1009E00010D89DDD186E060EE15E185012000D6ADB
:1009F0000E6A68DF5EEF0FF0D9CFE9FFDACFEAFFCA
:0A0A00001200FE0EDBCFE6FF12002D
:060A0A0043EC09F049D89D
:100A10000FEC01F0E6EC01F0E80EE66E030EAFDB42
:100A200006DB0F013351FDE0336BF6EC0CF03ED9E1
:100A30000EEC02F0F6D78FDB040EE126DE6ADD6AEB
:100A4000D5DBA8DB15501718E8AE02D0173404D058
:100A50001650145C175015581DE2020EDB6A030E87
:100A6000DB6A020EDBCF14F0030EDBCF15F0D8905B
:100A7000155004E6EE0E145C000E155806E2020E48
:100A8000DB2A030EEEE3DB2AECD7DF2A010ED8E3E4
:100A9000DB2AD6D7040EE15C02E2E16AE552E16EA0
:100AA00065D3936A926A85EC00F0836AB0EC0FF02C
:100AB000E80EE66E030E63DB570EE66E120EE66E70
:100AC0009AEC0BF0E552E552AE0EE66E240EE66EA1
:100AD000B0EC0BF0E552E552660EE66EB70EE66E30
:100AE000DFEC0BF0E552E552020EE66EE66A38ECFA
:100AF0000CF0E552E5520A0EE66EE66A44EC0CF0A4
:100B0000E552E552320EE66EE66A5DEC0CF0E55217
:100B1000E552D0EC0CF085EC09F0B2EC10F016EFD9
:100B20000EF0A3DB0CE136DB173404E216500708A5
:100B3000000E175404E328DBEF508310836E16D3A6
:100B400094DB0CE127DB173404E216500708000E93
:100B5000175404E319DBEF1C8314836E07D3FBDA0D
:100B6000F4DAEF0407E134DBEBDFE552E552EDDACE
:100B7000EF6A07D02DDBD5DFE552E552E6DA010E4C
:100B8000EF6EF4D280DB32DB153404E21450070838
:100B9000000E155411E3DECFE6FFDDCFE6FFC1DF27
:100BA0006BDBDECFE6FFDDCFE6FFCADF65DBDF2AEA
:100BB000010EE9E3DB2AE7D7020EE15C02E2E16A1B
:100BC000E552E16ED3D2C7DA080EE126BBEC10F095
:100BD000F3CF14F0F4CF15F0166A176A15AE02D0F1
:100BE00016681768040E14C0DBFF050E15C0DBFF86
:100BF000060E16C0DBFF070E17C0DBFF040EDBCFAF
:100C000006F0050EDBCF07F0060EDBCF08F0070E6F
:100C1000DBCF09F08C0E0B6E0C6A04DB74EC11F068
:100C200006C0DEFF07C0DEFF08C0DEFF09C0DDFF33
:100C3000DD52DD520A0E4ADB0D0E48DB670EE66E12
:100C4000220EE66EE66A77DAD9CFE9FFDACFEAFF5D
:100C5000640EEE5C000EEE58000EEE58000EEE58DC
:100C600007E2C9DA4FDB15DB0B0EE7DA0C0E13D007
:100C7000C2DAEBDA640E3BDB3BDA43DA43DB0A0E23
:100C80000B6E0C6A0D6A0E6A74EC11F04BDA01DB24
:100C90000C0ED3DA0D0E30DB04DA44DA32DA080E49
:100CA000E15C02E2E16AE552E16E60D254DA020EE2
:100CB000E126010E01010025006F000E0121016FE8
:100CC000280E0D6E0E6A00C108F001C109F0B5ECE6
:100CD00011F004C000F105C001F10101045005103C
:100CE00001E012D1BBEC10F0F3CFDEFFF4CFDDFF5B
:100CF000010E01010225026F000E0321036F640E35
:100D00000D6E0E6A02C108F003C109F0B5EC11F0D6
:100D100004C002F105C003F111DA07AE02D0086881
:100D20000968780E0B6E050ECFD906C004F107C016
:100D300005F104DA07AE02D008680968880E0B6E68
:100D4000130EC2D906C006F107C007F1F7D907AEE6
:100D500002D008680968F40E0B6E010EB5D906C002
:100D600008F107C009F1EAD907AE02D0086809689E
:100D7000E80E0B6E030EA8D906C00AF107C00BF1EE
:100D8000DDD907AE02D008680968D00E0B6E070ED9
:100D90009BD906C00CF107C00DF128DA166A176A54
:100DA00015AE02D016681768D00E0B6E070E0C6ECB
:100DB0002EDA3CEC11F0B6D90B68030E0C6E0D6AFE
:100DC0000E6A7BDA5EEC0FF093D9D00E1426070E74
:100DD0001522000E1622172214C00EF115C00FF1B5
:100DE000ADD907AE02D008680968100E0B6E270E49
:100DF0006BD906C010F107C011F15F0EE66E220E2E
:100E0000E66E0C0EE66E97D9590EE66E220EE66E71
:100E1000E66A91D90A0E086E096A02C10DF003C193
:100E20000EF092EC0FF006C014F007C015F0700E33
:100E30001426170E1522166A176A14C0E6FF15C08D
:100E4000E6FFCDD9E66AF6EC02F0ABD9530EE66EBA
:100E5000220EE66EE66A010EE66E21DA900E0101C0
:100E60000225146E010E0321156E166A176A14C04E
:100E7000E6FFE66EB4D9010EE66EF6EC02F091D90B
:100E80004AD84B0EE66E220E23D904C1E6FF05C1F7
:100E9000E6FF70D9420EE66E220E1AD906C1E6FFB1
:100EA00007C1E6FF67D9360EE66E220E11D908C1DA
:100EB000E6FF09C1E6FF5ED92A0EE66E220E08D9CA
:100EC0000EC1E6FF0FC1E6FF55D9200EE66E220ED9
:100ED000FFD80AC1E6FF0BC1E6FF4CD9140EE66E3F
:100EE000220EF6D80CC1E6FF0DC1E6FF43D9070E6E
:100EF000E66E220EEDD810C1E6FF11C1E6FF3AD929
:100F0000FE0EE66E210EE4D8020EE15C02E2E16A1A
:100F1000E552E16E2BD1E66AA0EC0EF0E5520F012E
:100F2000726F010E43D90F01736F020E3FD90F018B
:100F3000746F040E3BD90F01756F050E37D90F0181
:100F4000766F060E33D90F01776F3ED975CF09F052
:100F5000E1D814AE03D0156816681768A6D875CF07
:100F600009F0BCD814AE03D0156816681768B3D959
:100F700076CF09F0CFD814AE03D01568166817687D
:100F800094D876CF09F0AAD814AE03D015681668A5
:100F90001768A1D977CF09F0BDD814AE03D0156872
:100FA0001668176882D877CF09F098D814AE03D0A6
:100FB00015681668176879D8FC0EE66E210E52D9AE
:100FC00074CF09F0A7D814AE03D015681668176857
:100FD0006CD874CF09F082D814AE03D015681668A7
:100FE00017687FD973CF09F095D814AE03D0156870
:100FF000166817685AD873CF09F070D814AE03D0AA
:101000001568166817686DD972CF09F083D814AEC9
:1010100003D015681668176848D872CF09F05ED8F3
:1010200014AE03D015681668176855EF08F0200E47
:10103000E66EBFEC0EF0E552220809E009D8220E58
:10104000E66E200EE66EB4EC0EF0E552E5521200AC
:101050000F01320E726F3B0E736F170E746F1F0EFF
:10106000756F0C0E766F0E0E776F72CFE6FFE66A25
:1010700096EC0EF0E552E55273CFE6FF010E70D804
:1010800074CFE6FF020E6CD875CFE6FF040E68D869
:1010900076CFE6FF050E64D877CFE6FF060EB0EFF9
:1010A00008F0D3D80A0E77EF09F014C0E6FF15C098
:1010B000E6FF16C0E6FF17C0E6FF49EC0AF0E5526E
:1010C000E552E552E55212000C6EACD85EEF0FF01F
:1010D000E66EE1EC09F0E552E55212000A0E0E6EE2
:1010E000F1EC0EF005C014F0156A166A176A1200CA
:1010F00006C014F007C015F008C016F009C017F0BC
:101100001200300E1426000E15221622172214503B
:1011100066EF09F0F1EC0EF009C014F0156A166ADA
:10112000176A120002C014F003C015F004C016F0D4
:1011300005C017F01200E66A4FEF09F0DECF06F0A7
:10114000DDCF07F0086A096A1200B0D86A0EE926F6
:101150000F0EEA221200D9CFE6FFE1CFD9FF12002D
:10116000E66E96EC0EF0E552E5521200E552E7CF3E
:10117000D9FF1200D0EC0AF0E552E5521200E66EFB
:101180005ADCE552E552120091D8620EE9260F0EA4
:10119000EA221200FD0EDBCF16F0FE0EDBCF17F0B9
:1011A0001200186E060EE15E18501200E66EA0ECFA
:1011B0000EF0E552120002C0E6FF03C0E6FF04C0D5
:1011C000E6FF05C0E6FF12000A0E186E0E6E120052
:1011D000FD0EDBCFE6FFFE0EDBCFE6FF120016C0F2
:1011E000E6FF17C0E6FF060EE66E1200DECF14F033
:1011F000DDCF15F0120086D806C0E6FF07C0E6FF77
:1012000008C0E6FF09C0E6FF0A0E7CEF09F00D6A90
:101210000E6A14C006F015C007F016C008F017C01B
:1012200009F012000D6A0E6A3CEC11F046D80B680A
:10123000030E0C6E0D6A0E6A1200E66E7CDF2E0E37
:1012400045D82FDF6FDFDBEF08F0D9CFE9FFDACF2A
:10125000EAFFEECF14F0EECF15F0EECF16F0EFCFA1
:1012600017F0120035DFE4EF08F075DFFE0EDBCF7C
:1012700015F0800E15141200E552E552F40EE66EDC
:10128000010EBFEF08F067DF020EE126DE6ADD6ABD
:10129000120037DF650EE66E220EE66E1200DDEC00
:1012A00002F0E552E552E552E5521200FD0EDBCFA9
:1012B000E9FFFE0EDBCFEAFF120002C006F003C01A
:1012C00007F004C008F005C009F01200E66ECDEC8E
:1012D00009F0E5521200E9DE650EE66E220E32EFED
:1012E00009F0E3DEFA0EE66E210E32EF09F00B6E26
:1012F0000C6A8DDF74EF11F0E66EE66A8FEC02F097
:0A130000D1EF08F0CEDE78EF08F020
:06130A00B06A810EAF6E17
:10131000AC8AAC94B886AC98AB8EAB889E9A9D8A0A
:101320009F9A949C948E12008CD9040EE126DE6A5A
:10133000DD6ADECF14F0DDCF15F0C8D915501718CF
:10134000E8AE02D0173404D01650145C175015586C
:101350001DE2020EDB6A030EDB6A020EDBCF14F025
:10136000030EDBCF15F0D890155004E6EE0E145C9A
:10137000000E155806E2020EDB2A030EEEE3DB2A0E
:10138000ECD7DF2A010ED5E3DB2AD3D7040EE15CCC
:1013900002E2E16AE552E16E59D153D99EA8FED727
:1013A000FE0EDB50AD6E9E9851D14BD987D908E027
:1013B00085D95ED9FD0EDB2AFE0EF8E3DB2AF6D7CF
:1013C00045D13FD960D90CE05ED952D9FD0EDBCFB3
:1013D000F6FFDB2AFE0EDBCFF7FFF4E3DB2AF2D7C2
:1013E00035D12FD9050EE126010EF36EDB6E020E0C
:1013F000DB6A030EDB6A040EDB6ADF6ADFCF14F000
:10140000156A14BE1568FB0EDBCF16F0FC0EDBCFA1
:1014100017F015501718E8AE02D0173404D0165044
:10142000145C175015581AE279D9166A176A15AE66
:1014300002D016681768D950010FE96EDACFEAFFBB
:1014400014C00BF015C00CF016C00DF017C00EF054
:1014500023D93CEC11F029D9DF2AD0D7010EDBCFFC
:1014600014F0020EDBCF15F0030EDBCF16F0040EE6
:10147000DBCF17F014C006F015C007F016C008F057
:1014800017C009F0050EE15C02E2E16AE552E16E87
:10149000DDD0D7D8020EE126DF6AFB0EDBCF14F0D9
:1014A000FC0EDBCF15F012D91450151016101710C2
:1014B00003E1300EDDD86DD0DFD8D890030EEB50AD
:1014C000000A08E6000EEE5C000EEE58000EEE5824
:1014D000000EEE580EE22D0ECBD8CED8000EEE6CDC
:1014E000EF1EEE22EF1EEE22EF1EEF22ED52ED5226
:1014F000ED52DE520A0EDD6E010EDBCF14F0000E4F
:10150000E76E1418E8AE02D0143403D0E750D88048
:1015100014543FE2010EDB04186E196A18BE1968F4
:1015200089D879D806500710081009101EE0010E5E
:10153000DF6EDB041C6E1D6A1CBE1D681CC0E6FF4E
:101540001DC0E6FFCAD806C018F007C019F008C0D1
:101550001AF009C01BF05FD8C6D8300E1426000E52
:10156000152216221722145003D0DF5002E0300E4D
:101570007FD8010EDB04186E196A18BE19685AD894
:101580007BD8BAD889D874EC11F08FD8010EDB065D
:10159000B3D7020EE15C02E2E16AE552E16E56D099
:1015A00050D858D808C014F009C015F0166A176A48
:1015B00015AE02D01668176857D82E0E59D84AD8DB
:1015C00004C014F005C015F0166A176A15AE02D0F3
:1015D0001668176849D83AD034D8E652AE50DF6E54
:1015E000F60EE66E210EE66EE66A010EE66EDDECA4
:1015F00002F09BD8DFCF14F0156A166A176A85D8F7
:10160000E66A010EE66E8FEC02F0186E060EE15EE1
:101610001850E5521BD070D8FB0EDBCF06F0FC0E45
:10162000DBCF07F0FD0EDBCF08F0FE0EDBCF09F0BD
:1016300074EF11F018C0E6FF19C0E6FF4ED873EF43
:101640000BF0D9CFE6FFE1CFD9FF1200E552E7CF8B
:10165000D9FF120063D8640E0D6E0E6A14C008F034
:1016600015C009F00BEF0FF050D813DF95EF0BF01A
:10167000E66E93DEE5521200D950FB0FE96EFF0EC5
:10168000DA20EA6E1200FD0EDBCFF6FFFE0EDBCF96
:10169000F7FF0800F5501200EECF06F0EECF07F08E
:1016A000EECF08F0EFCF09F0120005C0EDFF04C047
:1016B000EDFF03C0EDFF02C0EFFF1200FD0EDBCF18
:1016C000E9FFFE0EDBCFEAFFEF501200FD0EDBCF8D
:1016D00016F0FE0EDBCF17F012000A0EE66EE66A79
:1016E00080DE95EF0BF006C014F007C015F008C0BF
:1016F00016F009C017F0120006C00BF007C00CF07E
:1017000008C00DF009C00EF0120014C0E6FF15C0AD
:10171000E6FF16C0E6FF17C0E6FF1200FD0EDBCFA6
:1017200014F0FE0EDBCF15F01200E552E552E55243
:04173000E55212006C
:0C173400F1D8D59EFD0EDBCF28FFFE0E85
:10174000DBCF29FFD59C05D9D59AD586F28AF294AC
:10175000F184D58EE6D0D59E1200FBD8D58E12002E
:10176000DBD8CD90FD0EDBCF2AFFFE0EDBCF2BFFAB
:10177000F7D89D809E909F90CD8ECD8CCD98CD9AA0
:10178000CD96CD92CD80CDD0EBD8CD801200CD902E
:101790001200C2D8CA94CC6AFE0EDB500F012C6F27
:1017A0002D6BCB6E9D829E929F92CA90CA92CA84E4
:1017B000B8D02CCFCBFFCA841200CA941200ACD888
:1017C000B190FD0EDBCF2EFFFE0EDBCF2FFFCFD86B
:1017D0000750B36ECCD8B5D8B26EA082A192A292B7
:1017E000B18EB198B19AB192B1809BD0C0D803505C
:1017F000B26EBDD89ED8B36EB1801200B190120007
:101800000F01382B000E39234051385D41513959B1
:1018100004E3386B396B010E306F12000F013A2B65
:10182000000E3B2342513A5D43513B5904E33A6B6E
:101830003B6B010E316F12000F013C2B000E3D235C
:1018400044513C5D45513D5904E33C6B3D6B010EF9
:10185000326F12000F013E2B000E3F2346513E5DBA
:1018600047513F5904E33E6B3F6B010E336F12004B
:1018700053D8FD0EDBCF40FFFE0EDBCF41FF0F0143
:10188000386B396B306B4DD047D8FD0EDBCF42FF44
:10189000FE0EDBCF43FF050E0D6E0E6A42CF08F041
:1018A00043CF09F00BEC0FF008C042FF09C043FF23
:1018B0000F013A6B3B6B316B34D02ED8FD0EDBCF72
:1018C00046FFFE0EDBCF47FF0A0E0D6E0E6A46CFB7
:1018D00008F047CF09F00BEC0FF008C046FF09C035
:1018E00047FF0F013E6B3F6B336B1BD01C6A1A50D6
:1018F000175C146E1B501858156E1C501958166E34
:101900000C6A010E0D6E0E6A14C007F015C008F0C7
:1019100016C009F031EF0FF0D9CFE6FFE1CFD9FFC4
:101920001200E552E7CFD9FF120017681868196A4C
:10193000120007C014F008C015F009C016F00750D7
:10194000120003C014F004C015F005C016F00350D7
:10195000120014D80350D66E11D8EBDFD76E1200E8
:1019600014D80750CF6E11D8ECDFCE6E1200DDDF39
:101970002ECF1AF02FCF1BF076EF0CF0D6DF28CF4A
:101980001AF029CF1BF076EF0CF0CFDF2ACF1AF038
:081990002BCF1BF076EF0CF0E9
:081998000F0E946E826812002C
:1019A000CF0E9414946E82681200C0D8E0D801E67D
:1019B000E2D816E2CDD8E4D8C2D801E6DCD80BE2F2
:1019C000A8D802E1E3D801D001D9020EDB2A030E28
:1019D000F3E3DB2AF1D7DF2A010EE8E3DB2AE6D7BF
:1019E000040EE15C02E2E16AE552BCD09FD8BFD8A8
:1019F00004E6020E145C000E15581AE2A9D88214EF
:101A0000826E0F0E8210BCD89AD801E6B4D80BE2D1
:101A100080D802E1BBD801D0D9D8020EDB2A030E50
:101A2000F3E3DB2AF1D7DF2A010EE1E3DB2ADFD77C
:101A3000040EE15C02E2E16AE55294D077D8CAD89C
:101A4000FD0EDBCF16F0FE0EDBCF17F0155017188A
:101A5000E8AE02D0173404D01650145C1750155855
:101A600016E2020EDB6A030EDB6A69D804E6EE0EAC
:101A7000145C000E155806E2020EDB2A030EF5E395
:101A8000DB2AF3D7DF2A010EDAE3DB2AD8D7040EEC
:101A9000E15C02E2E16AE55265D048D868D801E627
:101AA0006AD821E255D86CD84AD801E664D80DE24C
:101AB0008DD82FD804E11DD8010EEE6EED6A020E0E
:101AC000DB2A030EF1E3DB2AEFD78250816EE80EAA
:101AD000E66E030EE66EB2DFE552E552DF2A010E36
:101AE000DDE3DB2ADBD7040EE15C02E2E16AE552CA
:101AF00039D070D8D89014361536D890143615369B
:101B0000020EDB501424E96E030EDB501520EFEFBC
:101B10000DF0020EDBCFE9FF030EDBCFEAFF240E50
:101B2000E9260F0EEA22EF5082141200D9CFE6FF09
:101B3000E1CFD9FF040EE126DE6ADD6A1200020E53
:101B4000DBCF14F0030EDBCF15F0D8901550120048
:101B5000DECFE9FFDDCFEAFF200EE9260F0EEA22F5
:101B6000EF1C1200E16EE552E7CFD9FF120032D828
:101B7000D89015501200040E145C000E1558120077
:101B8000826E020EDB6A030EDB6A1200DECF18F0F3
:101B9000DDCF19F0D89018361936D8901836193686
:101BA000020EDB501824E96E030EDB50192017D803
:101BB000EECF16F0EFCF17F0010E1626000E17220B
:101BC00098DF16C0EEFF17C0EDFF120092DFEE6A3D
:101BD000ED6A1200DECF14F0DDCF15F01200EA6ED0
:101BE000D890E936EA36000EE9260F0EEA221200F6
:101BF000F0D8FE0EDB500F0BDF6EFE0EDB380F0B46
:101C00000A0DD6D802E2E16AE552E16E1450C3D063
:101C1000E0D8D7D80550DF6ED4D80950100DC8D8F9
:101C200002E2E16AE552E16E1450B5D094969498C0
:101C30001200ACD8E652DF6AFE0EDB50DF5C02E237
:101C4000DF2AFAD7E552A7D082A8000C010C0001C8
:101C5000FC5102E08288828682988296010EFC6F97
:101C600012008298828682880001FC6B1200B1D833
:101C7000DF6ADFCF14F0080EE76E1418E8AE02D06A
:101C8000E73402D0E750145C0FE2FE0EDBBE02D058
:101C9000829801D0828882868296DB50020DFE0EE9
:101CA000F3CFDBFFDF2AE5D794888286CDDFE76EAE
:101CB000010EE7CFDBFF82969498DB50146E020E84
:101CC000E15C02E2E16AE552E16E145064D081D831
:101CD000DF6A9488010EDB6ADBCF14F0080EE76E32
:101CE0001418E8AE02D0E73402D0E750145C0BE2DF
:101CF0008286AADF146EDF50E8241410DF6E82960D
:101D0000010EDB2AE9D79498FE0EDB5002E08288B0
:101D100001D0829882868296DF50146E020EE15CBA
:101D200002E2E16AE552E16E145035D02FD837D87F
:101D3000FD0EDBCFE6FF6CDFE5524FD892DF2BD0F4
:101D400025D8E6522CD883DFD10E47D8010EE66E97
:101D5000BEDFE552DF6EDFCFE6FF4ADFE552DF6E22
:101D600080DFDF50E55217D011D8FD0EDBCFE6FF44
:101D7000FE0EDBCFE6FFDADFE552E5520CD006D8E7
:101D8000FE0EDBCFE6FFDCDFE55205D0D9CFE6FF64
:101D9000E1CFD9FF1200E552E7CFD9FF120057DF9C
:101DA000D00E1BD8FE0EDBCFE6FF61DFE55212003E
:101DB000010EF3CFDBFFDB50DF24146E020EE15C7B
:101DC00012000A0E146E0E6EFE0EDBCF09F0E9EF64
:101DD00011F0DCDF020EE1261200E66E48DFE5526C
:021DE0001200EF
:0E1DE200006A0EAEF7EF0EF00E6C001E09AE9A
:101DF000FCEF0EF0096C001EE9EC11F009BE06EFD5
:101E00000FF000AE000C096C056C000C00BE03EF77
:101E10000FF00188FF0C006A0EAE14EF0FF00D6C8E
:101E20000E1EE86A0E22001E09AE1CEF0FF0086CB1
:101E3000091EE86A0922001EB5EC11F009BE2CEF5C
:101E40000FF000AE000C086C091EE86A0922046C51
:101E5000051EE86A0522000C00BE23EF0FF0018882
:101E6000FF0C006A0EAE3CEF0FF00C6C0D1E0E1E48
:101E7000E86A0D220E22001E09AE46EF0FF0076C35
:101E8000081E091EE86A08220922001E98EC11F0BB
:101E900009BE59EF0FF000AE000C076C081E091EBA
:101EA000E86A08220922036C041E051E042205228A
:101EB000000C00BE4DEF0FF00188FF0C006AE86ACD
:101EC0000EAE6BEF0FF00B6C0C1E0D1E0E1E0C22D7
:101ED0000D220E22001E09AE76EF0FF0066C071ED3
:101EE000081E091E072208220922001E74EC11F0A8
:101EF00009BE8DEF0FF000AE000C066C071E081E29
:101F0000091EE86A072208220922026C031E041E29
:101F1000051E032204220522000C00BE7DEF0FF0F7
:101F20000188FF0C08C012F008500D02F4CF07F032
:101F3000F3CF06F009500E02F4CF09F0F3CF08F00A
:101F40000D02F3500726F4500822E86A09221250C5
:101F50000E02F3500726F4500822E86A0922000C0A
:101F6000F28ED08EF28C1200F19CF292F288120066
:101F7000D8CFE4FFE0CFE4FFE46E68D800EE00F0D5
:101F8000140EE80403E3EECFE4FFFBD700EE14F0F9
:101F90000A0EE80403E3EECFE4FFFBD7E652F2B407
:101FA0007DD89EB082D8A1B287D8F2B2F2929EAA12
:101FB00003D09E9AECEC0AF0E55200EE1DF00A0EFA
:101FC000E80403E3E5CFEDFFFBD700EE13F0140EBA
:101FD000E80403E3E5CFEDFFFBD74DD8E550E5CFAF
:101FE000E0FFE5CFD8FF100031D800EE00F0140E6E
:101FF000E80403E3EECFE4FFFBD700EE14F00A0E93
:10200000E80403E3EECFE4FFFBD7E652F2B446D890
:102010009EB04BD8A1B250D8F2B2F2929EAA03D091
:102020009E9AECEC0AF0E55200EE1DF00A0EE80470
:1020300003E3E5CFEDFFFBD700EE13F0140EE80449
:1020400003E3E5CFEDFFFBD716D81100DACFE4FFAD
:10205000E2CFDAFFE9CFE4FFEACFE4FFF6CFE4FF17
:10206000F7CFE4FFF5CFE4FFF3CFE4FFF4CFE4FFD5
:10207000FACFE4FF1200E5CFFAFFE5CFF4FFE5CF9A
:10208000F3FFE5CFF5FFE5CFF7FFE5CFF6FFE5CFAF
:10209000EAFFE5CFE9FFE5CFDAFF1200ABEC0BF08A
:1020A000F294ADEC0BF000EF0CF0C7EC0BF09E904F
:1020B000C4EC0BF00EEF0CF0FEEC0BF0A192F6EC82
:0620C0000BF02AEF0CF00A
:0A20C6001E0EF66E000EF76E000EFF
:1020D000F86E01010900F550176F0900F550186FEF
:1020E00003E1176701D03DD00900F550126F0900D8
:1020F000F550136F0900F550146F09000900F550F1
:10210000E96E0900F550EA6E090009000900F55072
:10211000156F0900F550166F09000900F6CF19F187
:10212000F7CF1AF1F8CF1BF112C1F6FF13C1F7FF79
:1021300014C1F8FF0101155302E1165307E009002D
:10214000F550EE6E1507F8E21607F9D719C1F6FF3C
:102150001AC1F7FF1BC1F8FF01011707000E185B3A
:04216000BFD71200D3
:0C216400010E926E0E0EC16EC26A040ED7
:10217000C06EC2801200D9CFE6FFE1CFD9FF020EB8
:10218000E126DE6ADD6AC282C2B2FED7C450DE6ECC
:10219000DD6ADECF16F0DDCF17F0D8901636173691
:1021A000D89016361736060EC3CFE7FF070B04E0AC
:1021B000E742E79EE806FCE1E7501624146E000EA5
:1021C000172014C0DEFFDD6EDECF48FFDDCF49FFF4
:1021D000DECF14F0DDCF15F014C0F3FF15C0F4FF0F
:1021E000020EE15C02E2E16AE552E16EE552E7CF00
:0421F000D9FF120001
:0C21F4002E00202020003A002000206D6A
:10220000332F68200D0A00206D672F6C20464C4F3D
:10221000573D2000206D672F6C204E4F333D20002E
:1022200020F843204E48343D2000206D672F6C205D
:10223000544D503D2000206D672F6C204353423D8C
:1022400020002070482053533D2000202070483D3E
:10225000202000434F443D200053533D20200047A1
:102260004D415431002E002020202020202020200D
:08227000202020202020200086
:0822780006500B02F3CF02F047
:10228000F4CF03F00C02F3500326000EF420046E8A
:1022900006500D02F3500426000EF420056E065081
:1022A0000E02F350052607500B02F3500326F4509C
:1022B0000422000E052207500C02F3500426F450AD
:1022C000052207500D02F350052608500B02F3506B
:1022D0000426F450052208500C02F350052609503C
:0822E0000B02F3500526120069
:0822E800056A046A036A026A38
:1022F000200EE76ED89006360736083609360236C5
:102300000336043605360B50025C0C5003580D5052
:1023100004580E50055809E30B50025E0C50035A46
:102320000D50045A0E50055A062AE72EE4D7120023
:10233000056A046A036A180EE76ED89007360836F5
:1023400009360336043605360C50035C0D5004582C
:102350000E50055807E30C50035E0D50045A0E5002
:0A236000055A072AE72EEAD71200FB
:06236A00056A046A100E72
:10237000E76ED89008360936043605360D50045CF1
:102380000E50055805E30D50045E0E50055A082AFC
:06239000E72EF0D7120059
:0A239600800EF36E00EE00F00F0E53
:1023A00001D81200EA6002D0EE6AFCD7F350E9606F
:0623B0001200EE6AFCD7EA
:0A23B6001EEE00F02EEE00F0F86AB3
:1023C000019C63EC10F003EC00F005EC05F0FBD78A
:0223D0001200F9
:0E23D200056A080EE76ED890093605360E50E3
:0E23E000055C02E3056E092AE72EF7D712000E
:0223EE000000ED
:1023F00000000000000000000000000000000000DD
:0E2400000000000000000100010001000100CA
:02240E000102C9
:1024100004081020408000000000000000000000C0
:0424200000000000B8
:0C2424000000000000000000101010106C
:102430001010101018181818181818181C1C1C1C2C
:102440001C1C1C1C1E1E1E1E1E1E1E1E1F1F1F1FB0
:102450001F1F1F1F00000000000000000000000000
:10246000000000000000000000000000000000006C
:10247000000000000000000000000000000000005C
:05248000000000000057
:0B248500000000D000222222072509E1
:10249000100001000000000000000000000000002B
:0124A000003B
:0F24A1000000000000000000000000000000002C
:1024B000000000000000000000000000000000001C
:0924C00000102040800102040814
:020000040030CA
:0100010002FC
:0100020003FA
:010003001EDE
:010005008179
:010006008178
:010008000FE8
:01000900C036
:01000A000FE6
:01000B00E014
:01000C000FE4
:01000D0040B2
:00000001FF
