:020000040000FA
:0600000073EF20F0120076
:020006001200E6
:0600080099EF1AF012004E
:01000E0000F1
:01000F0000F0
:03001000000000ED
:060018001BEF1AF01200BC
:02001E000900D7
:100020000A4200002901000028000000F6410000FB
:100030007101000014000000DB410000E500000039
:100040001B0000000F000000A201000004000000DF
:100050007A410000000F0000610000000E00000067
:10006000A9010000010000006741000085010000B7
:100070001300000047410000510100002000000073
:0C0080001E4100000001000029000000EB
:04008C00D9CFE6FFE3
:10009000E1CFD9FFFE0EDBCF11F0800E11141AE173
:1000A000FD0EDBCF12F0FE0EDBCF13F0133404E2B3
:1000B00012500708000E13540DE3FD0EDBCFE9FFCD
:1000C000FE0EDBCFEAFF000EE926010EEA22EF501A
:1000D0008310836EE552E7CFD9FF1200D9CFE6FF38
:1000E000E1CFD9FFFE0EDBCF11F0800E11141AE123
:1000F000FD0EDBCF12F0FE0EDBCF13F0133404E263
:1001000012500708000E13540DE3FD0EDBCFE9FF7C
:10011000FE0EDBCFEAFF000EE926010EEA22EF1CFD
:100120008314836EE552E7CFD9FF1200D9CFE6FFE3
:10013000E1CFD9FFFD0EDBCFE9FFFE0EDBCFEAFFFB
:10014000080EE926010EEA22EF0415E1FD0EDBCFD1
:10015000E6FFFE0EDBCFE6FFC1DFE552E552FD0E06
:10016000DBCFE9FFFE0EDBCFEAFF080EE926010E2A
:10017000EA22EF6A15D0FD0EDBCFE6FFFE0EDBCFE5
:10018000E6FF84DFE552E552FD0EDBCFE9FFFE0E10
:10019000DBCFEAFF080EE926010EEA22010EEF6E20
:1001A000E552E7CFD9FF1200D9CFE6FFE1CFD9FF63
:1001B000020EE126DE6ADD6ADECF10F0DDCF11F03F
:1001C000D890115004E60E0E105C000E115823E278
:1001D000DECFE6FFDDCFE6FF59DFE552E552F40E54
:1001E000E66E010EE66E28EC1BF0E552E552DECF1E
:1001F000E6FFDDCFE6FF72DFE552E552F40EE66E74
:10020000010EE66E28EC1BF0E552E552DF2A010EE6
:10021000D3E3DB2AD1D7020EE15C02E2E16AE552C8
:10022000E16EE552E7CFD9FF12000101010E31194D
:1002300005E1325103E1010EF36E01D0F36AF46A75
:10024000120001013C0ED8803155000E325503E2F8
:10025000010EF36E01D0F36AF46A12000101010E7F
:10026000331905E1345103E1010EF36E01D0F36A55
:10027000F46A12000101140ED8803355000E345573
:100280000BE233C110F0116A030E1016105011105A
:1002900003E1010EF36E01D0F36AF46A120001016A
:1002A000010E351905E1365103E1010EF36E01D05F
:1002B000F36AF46A12000101140ED8803555000E5D
:1002C00036550BE235C110F0116A030E10161050AE
:1002D000111003E1010EF36E01D0F36AF46A12000B
:1002E0000101010E311901E132510AE0010E331909
:1002F00001E1345105E0010E351905E1365103E104
:10030000010EF36E01D0F36AF46A1200D9CFE6FF52
:10031000E1CFD9FFFE0EDB0405E1040EE66EE66ACE
:10032000B5DE04D0040EE66EE66AD8DEE552E5528C
:10033000E552E7CFD9FF1200D9CFE6FFE1CFD9FFD1
:10034000FE0EDB0405E1020EE66EE66A9FDE04D0D7
:10035000020EE66EE66AC2DEE552E552E552E7CFEE
:10036000D9FF1200D9CFE6FFE1CFD9FFFE0EDB04A3
:1003700005E1000EE66EE66A89DE04D0000EE66E48
:10038000E66AACDEE552E552E552E7CFD9FF12004E
:10039000D9CFE6FFE1CFD9FFFE0EDB0405E1050E64
:1003A000E66EE66A73DE04D0050EE66EE66A96DE59
:1003B000E552E552E552E7CFD9FF1200D9CFE6FF6B
:1003C000E1CFD9FFFE0EDB0405E1030EE66EE66A1F
:1003D0005DDE04D0030EE66EE66A80DEE552E5528D
:1003E000E552E7CFD9FF1200D9CFE6FFE1CFD9FF21
:1003F000FE0EDB0405E1010EE66EE66A47DE04D080
:10040000010EE66EE66A6ADEE552E552E552E7CF96
:10041000D9FF1200D9CFE6FFE1CFD9FFFD0EDBCF28
:1004200008F0FE0EDBCF09F0040E081801E10950B8
:1004300023E0030E081801E109501AE0020E081823
:1004400001E1095011E0010E081801E1095008E02E
:1004500008501EE109501CE1740EE66E3C0E0FD0F0
:10046000680EE66E3C0E0BD05A0EE66E3C0E07D0C0
:100470004D0EE66E3C0E03D0400EE66E3C0EE66E70
:10048000FC0EDBCFE6FF30EC11F0E552E552E55211
:10049000E552E7CFD9FF1200D9CFE6FFE1CFD9FF70
:1004A000010E01012125216F000E2221226F280E4D
:1004B0000D6E0E6A21C108F022C109F0CEEC1EF0CB
:1004C00004C021F105C022F1FD0EDBCF08F0FE0EC5
:1004D000DBCF09F0040E081801E1095001E140D119
:1004E000030E081801E1095001E1D8D0020E0818E6
:1004F00001E1095071E0010E081801E109500AE01C
:10050000085001E08ED1095001E08BD10101216B2F
:10051000226B87D10A0E010122AF02D0D89003D0FE
:10052000215D000E225915E201013351341111E110
:10053000355136110EE13C0EE66E3C0EE66E050EB0
:10054000E66EE66A05EC11F0E552E552E552E55239
:1005500016D014C110F0116A126A136A14C1E6FFB2
:1005600011C0E6FF12C0E6FF13C0E6FF050EE66EFF
:10057000E66ADEEC0FF0146E060EE15E14506EDEDD
:10058000F3CF10F0F4CF11F0F350F41008E172DE65
:10059000F3CF12F0F4CF13F0F350F41005E0630E34
:1005A0000101145D01E2142B7ADEF3CF10F0F4CFD9
:1005B00011F0F350F41009E17EDEF3CF12F0F4CF26
:1005C00013F0F350F41001E12CD101011451000893
:1005D00001E327D1140725D10A0E010122AF02D071
:1005E000D89003D0215D000E225915E2010133514C
:1005F000341111E1355136110EE13C0EE66E3C0E20
:10060000E66E0D0EE66EE66A05EC11F0E552E55277
:10061000E552E55216D015C110F0116A126A136A3C
:1006200015C1E6FF11C0E6FF12C0E6FF13C0E6FFEA
:100630000D0EE66EE66ADEEC0FF0146E060EE15E5D
:1006400014500CDEF3CF10F0F4CF11F0F350F4108F
:1006500008E110DEF3CF12F0F4CF13F0F350F410F2
:1006600005E0630E0101155D01E2152B18DEF3CFE5
:1006700010F0F4CF11F0F350F41009E11CDEF3CFC9
:1006800012F0F4CF13F0F350F41001E1CAD00101DD
:100690001551000801E3C5D01507C3D00A0E0101AA
:1006A00022AF02D0D89003D0215D000E225916E26D
:1006B00001013351341112E1355136110FE13C0E75
:1006C000E66E3C0EE66E050EE66E010EE66E05EC7D
:1006D00011F0E552E552E552E55217D016C110F07F
:1006E000116A126A136A16C1E6FF11C0E6FF12C052
:1006F000E6FF13C0E6FF050EE66E010EE66EDEECC9
:100700000FF0146E060EE15E1450A8DDF3CF10F06A
:10071000F4CF11F0F350F41008E1ACDDF3CF12F098
:10072000F4CF13F0F350F41005E0630E0101165DF1
:1007300001E2162BB4DDF3CF10F0F4CF11F0F3503B
:10074000F41008E1B8DDF3CF12F0F4CF13F0F3505A
:10075000F41067E001011651000863E2160761D04A
:100760000A0E010122AF02D0D89003D0215D000E05
:10077000225916E201013351341112E1355136117B
:100780000FE13C0EE66E3C0EE66E0D0EE66E010EBF
:10079000E66E05EC11F0E552E552E552E55217D050
:1007A00017C110F0116A126A136A17C1E6FF11C06F
:1007B000E6FF12C0E6FF13C0E6FF0D0EE66E010E67
:1007C000E66EDEEC0FF0146E060EE15E145046DDB0
:1007D000F3CF10F0F4CF11F0F350F41008E14ADD3C
:1007E000F3CF12F0F4CF13F0F350F41005E0630EE2
:1007F0000101175D01E2172B52DDF3CF10F0F4CFAA
:1008000011F0F350F41008E156DDF3CF12F0F4CFFD
:1008100013F0F350F41005E001011751000801E254
:100820001707E552E7CFD9FF1200D9CFE6FFE1CF96
:10083000D9FFFD0EDBCFE9FFFE0EDBCFEAFFEECFE7
:1008400008F0EDCF09F0040E081801E1095001E1AC
:10085000A6D1030E081801E1095001E19CD1050E53
:10086000081801E1095001E163D1020E081801E105
:10087000095001E101D1010E081801E1095001E11F
:10088000D2D0085001E109501CE0C30EE66E3B0EC9
:10089000E66EE66A010EE66E05EC11F0E552E552F1
:1008A000E552E552FD0EDBCFE9FFFE0EDBCFEAFF9E
:1008B000EECF10F0EFCF11F0126A136A11AE7DD1B6
:1008C0007AD1330EE66E3C0EE66EE66AE66A05EC19
:1008D00011F0E552E552E552E55214C110F0116AEB
:1008E000126A136A14C1E6FF11C0E6FF12C0E6FFE8
:1008F00013C0E6FF050EE66EE66ADEEC0FF0146E3E
:10090000060EE15E14502A0EE66E3C0EE66E080EF0
:10091000E66EE66A05EC11F0E552E552E552E55265
:1009200015C110F0116A126A136A15C1E6FF11C0F1
:10093000E6FF12C0E6FF13C0E6FF0D0EE66EE66AA4
:10094000DEEC0FF0146E060EE15E1450210EE66E22
:100950003C0EE66EE66A010EE66E05EC11F0E5521D
:10096000E552E552E55216C110F0116A126A136A97
:1009700016C1E6FF11C0E6FF12C0E6FF13C0E6FF96
:10098000050EE66E010EE66EDEEC0FF0146E060E3E
:10099000E15E1450180EE66E3C0EE66E080EE66E32
:1009A000010EE66E05EC11F0E552E552E552E55216
:1009B00017C110F0116A126A136A17C1E6FF11C05D
:1009C000E6FF12C0E6FF13C0E6FF0D0EE66E010E55
:1009D000E66EDEEC0FF0146E060EE15E145025DCC0
:1009E000F3CF10F0F4CF11F0F350F41014E0010E37
:1009F00001011E251E6F000E1F211F6F050E0D6EBB
:100A00000E6A1EC108F01FC109F0CEEC1EF004C032
:100A10001EF105C01FF11EC1E6FF1FC1E6FF3CDD50
:100A2000E552E55283D00A0EE66E3C0EE66EE66AAB
:100A300030EC11F0E552E552E5520101205106E09B
:100A400089EC09F0000EE66E3C0E04D0AADBF50E30
:100A5000E66E3B0EE66E010EE66E30EC11F0E552EE
:100A6000E552E5521CDCF350F41001E1B8D001016D
:100A70002029010B206FB3D0E60EE66E3B0EE66E2A
:100A8000E66A30EC11F0E552E552E55201012351DE
:100A9000020A0CE0030A06E0010A13E1E20EE66E28
:100AA0003B0E07D0DC0EE66E3B0E03D0D50EE66E95
:100AB0003B0EE66E010EE66E30EC11F0E552E552AB
:100AC000E5522EEC01F0F3CF10F0F4CF11F0F3501B
:100AD000F4100AE001012329106E096E030E0E6E58
:100AE000B4EC1EF005C023F1D10EE66E3B0EE66EAF
:100AF0000A0EE66E010EE66E05EC11F0E552E552C7
:100B0000E552E5524FEC01F0F3CF10F0F4CF11F0C5
:100B1000F350F4100BE0FD0EDBCFE9FFFE0EDBCF50
:100B2000EAFF050EEE6EED6A0FEC1CF03ADB57D0D3
:100B3000C90EE66E3B0EE66E0A0EE66E010EE66E1E
:100B400005EC11F0E552E552E552E5520101235161
:100B5000020A0AE0030A05E0010A08E1BFEC09F015
:100B600005D0F5EC09F002D0DAEC09F04FEC01F019
:100B7000F3CF10F0F4CF11F0F350F41030E081EC2B
:100B80000EF0FD0EDBCFE9FFFE0EDBCFEAFF020E1B
:100B9000EE6EED6A24D04D0EE66E3C0E03D0400E94
:100BA000E66E3C0EE66E010EE66E30EC11F0E5529C
:100BB000E552E55214D01268136810C0E6FF11C068
:100BC000E6FF12C0E6FF13C0E6FF0C0EE66E010E54
:100BD000E66EDEEC0FF0146E060EE15E1450E55288
:100BE000E7CFD9FF120001011051020A01E1CBD079
:100BF000030A2CE0010A01E01200F3D815EC01F021
:100C0000F3CF10F0F4CF11F0F350F41001E1E8D07D
:100C100081EC0EF00101010E106F1B6B1C6B1D6B44
:100C2000E66A000EE66EE66A0AEC02F0E552E5526C
:100C3000E552010EE66EE66EE66A0AEC02F0E55257
:100C4000E552E5520101116B126B1200112B000EDF
:100C50001223E66A0F0EE66E1DC1E6FFA4EC0FF04C
:100C6000E552E552E5524FEC01F0F3CF10F0F4CF2E
:100C700011F0F350F4102FE0040E01011CAF02D06C
:100C8000D89003D01B5D000E1C5925E21B2B000ED3
:100C90001C23E66A1BC110F01CC111F01006115A8A
:100CA00010C0E6FF11C0E6FF0AEC02F0E552E55283
:100CB000E552010EE66E1BC1E6FF1CC1E6FF0AEC21
:100CC00002F0E552E552E552010E01011D5D01E21F
:100CD0001D2B116B126B2EEC01F0F3CF10F0F4CF43
:100CE00011F0F350F4102DE001011C352AE21B51E4
:100CF0000008000E1C5525E21B07000E1C5BE66A6F
:100D00001BC1E6FF1CC1E6FF0AEC02F0E552E5520A
:100D1000E552010EE66E0101116A1B25106E1C5191
:100D2000112210C0E6FF11C0E6FF0AEC02F0E55206
:100D3000E552E55201011D51000801E21D07116B4A
:100D4000126B15EC01F0F3CF10F0F4CF11F0F3506B
:100D5000F4100CE081EC0EF00101116B126B1E6BB4
:100D60001F6B206B1A6B236B020E106F0101123583
:100D700008E211512C08010E125503E2106B81ECB0
:100D80000EF0D1EF08F01B0EE66E010EE66E4DDDA3
:100D9000E552E55221EC01F0F3CF10F0F4CF11F061
:100DA000F350F4101DE081EC0EF00101010E106F04
:100DB0001B6B1C6B1D6BE66A000EE66EE66A0AECA6
:100DC00002F0E552E552E552010EE66EE66EE66A85
:100DD0000AEC02F0E552E552E5520101116B126B8B
:100DE000120001011929106E140E116E0E6E10C042
:100DF00009F081EC20F005C019F10101055001E175
:100E000018071351030A01E153D1010A01E1DFD0B0
:100E1000030A71E0010A01E0C1D1010EE66E86EC21
:100E200001F0E552E66A9CEC01F0E552E66AB2ECAC
:100E300001F0E552E66AC8EC01F0E552E66ADEEC44
:100E400001F0E552010EE66EF4EC01F0E552BA0E47
:100E5000E66E3B0EE66EE66A010EE66E05EC11F0FC
:100E6000E552E552E552E55218C110F0116A126AD6
:100E7000136A18C1E6FF11C0E6FF12C0E6FF13C0F7
:100E8000E6FF040EE66E010EE66EDEEC0FF0146E69
:100E9000060EE15E1450B10EE66E3B0EE66E080ED5
:100EA000E66E010EE66E05EC11F0E552E552E552F4
:100EB000E552010118511525106E116A126A136A64
:100EC000E66E11C0E6FF12C0E6FF13C0E6FF0C0E8F
:100ED000E66E010EE66EDEEC0FF0146E060EE15EBD
:100EE00014500101185104E1010E136F15C118F1DE
:100EF0001851152547D1E66A86EC01F0E552010E3E
:100F0000E66E9CEC01F0E552E66AB2EC01F0E552C7
:100F1000E66AC8EC01F0E552E66ADEEC01F0E55263
:100F2000010EE66EF4EC01F0E552A80EE66E3B0E03
:100F3000E66EE66A010EE66E05EC11F0E552E5524A
:100F4000E552E55218C110F0116A126A136A18C10D
:100F5000E6FF11C0E6FF12C0E6FF13C0E6FF040E75
:100F6000E66E010EE66EDEEC0FF0146E060EE15E2C
:100F70001450B10EE66E3B0EE66E080EE66E010EE4
:100F8000E66E05EC11F0E552E552E552E55218C166
:100F900010F0116A126A136A18C1E6FF11C0E6FF69
:100FA00012C0E6FF13C0E6FF0C0EE66E010EE66E01
:100FB000DEEC0FF0146E060EE15E145001011851C4
:100FC00004E1020E136F16C118F11851DBD0E66A66
:100FD00086EC01F0E552E66A9CEC01F0E552010E68
:100FE000E66EB2EC01F0E552010EE66EC8EC01F0DF
:100FF000E552E66ADEEC01F0E552E66AF4EC01F057
:10100000E552B10EE66E3B0EE66EE66A010EE66E46
:1010100005EC11F0E552E552E552E5520101185197
:101020001725106E116A126A136AE66E11C0E6FF88
:1010300012C0E6FF13C0E6FF040EE66E010EE66E78
:10104000DEEC0FF0146E060EE15E1450BA0EE66E82
:101050003B0EE66E080EE66E010EE66E05EC11F034
:10106000E552E552E552E55218C110F0116A126AD4
:10107000136A18C1E6FF11C0E6FF12C0E6FF13C0F5
:10108000E6FF0C0EE66E010EE66EDEEC0FF0146E5F
:10109000060EE15E14500101185104E1030E136FB6
:1010A00017C118F11851E66EE66A185117256DD070
:1010B000E66A86EC01F0E552E66A9CEC01F0E55246
:1010C000010EE66EB2EC01F0E552E66AC8EC01F002
:1010D000E552010EE66EDEEC01F0E552E66AF4EC54
:1010E00001F0E552B10EE66E3B0EE66EE66A010EC9
:1010F000E66E05EC11F0E552E552E552E55218C1F5
:1011000010F0116A126A136A18C1E6FF11C0E6FFF7
:1011100012C0E6FF13C0E6FF040EE66E010EE66E97
:10112000DEEC0FF0146E060EE15E1450A80EE66EB3
:101130003B0EE66E080EE66E010EE66E05EC11F053
:10114000E552E552E552E55218C110F0116A126AF3
:10115000136A18C1E6FF11C0E6FF12C0E6FF13C014
:10116000E6FF0C0EE66E010EE66EDEEC0FF0146E7E
:10117000060EE15E14500101185103E1136B14C116
:1011800018F11851E66EE66A1851E66EE66A41EC0F
:101190001CF0E552E552E552E55201D0136B19EF10
:1011A0001CF001011929106E140E116E0E6E10C084
:1011B00009F081EC20F005C019F10101055001E1B1
:1011C00018071351030A75E0010A4CE0030A27E0EF
:1011D000010A01E09BD0010EE66E86EC01F0E552BB
:1011E000E66A9CEC01F0E552E66AB2EC01F0E552E9
:1011F000E66AC8EC01F0E552E66ADEEC01F0E55281
:10120000010EE66EF4EC01F0E5520101185104E123
:10121000010E136F15C118F1185115256BD0E66A30
:1012200086EC01F0E552010EE66E9CEC01F0E55211
:10123000E66AB2EC01F0E552E66AC8EC01F0E5526C
:10124000E66ADEEC01F0E552010EE66EF4EC01F028
:10125000E5520101185104E1020E136F16C118F195
:10126000185148D0E66A86EC01F0E552E66A9CEC3B
:1012700001F0E552010EE66EB2EC01F0E552010E0E
:10128000E66EC8EC01F0E552E66ADEEC01F0E552EC
:10129000E66AF4EC01F0E5520101185104E1030E95
:1012A000136F17C118F11851E66EE66A1851172529
:1012B00024D0E66A86EC01F0E552E66A9CEC01F087
:1012C000E552010EE66EB2EC01F0E552E66AC8ECBA
:1012D00001F0E552010EE66EDEEC01F0E552E66A41
:1012E000F4EC01F0E5520101185103E1136B14C154
:1012F00018F11851E66EE66A1851E66EE66A41EC9E
:101300001CF0E552E552E552E55201D0136B19EF9E
:101310001CF001011A29106E280E116E0E6E10C0FD
:1013200009F081EC20F005C01AF10101055012E12D
:101330000FEC1CF0E66AB2EC01F0E552E66A86ECCE
:1013400001F0E552E66AF4EC01F0E552E66AC8EC19
:1013500001F0E552140E01011A5D08E2010EE66E7D
:101360009CEC01F0E552010EE66E05D0E66A9CECBD
:1013700001F0E552E66ADEEC01F0E5521200010EE2
:10138000E66EB2EC01F0E552E66A86EC01F0E55259
:10139000E66A9CEC01F0E552010EE66EF4EC01F019
:1013A000E552E66AC8EC01F0E552E66ADEEC01F0CF
:1013B000E5521200E66AB2EC01F0E552E66A86EC0C
:1013C00001F0E552010EE66E9CEC01F0E552E66A92
:1013D000F4EC01F0E552E66AC8EC01F0E552010ECA
:1013E000E66EDEEC01F0E5521200E66AB2EC01F0C6
:1013F000E552010EE66E86EC01F0E552E66A9CECE1
:1014000001F0E552E66AF4EC01F0E552010EE66EF9
:10141000C8EC01F0E552E66ADEEC01F0E55212009C
:10142000D9CFE6FFE1CFD9FF040EE126DE6ADD6AFF
:10143000DECF10F0DDCF11F0126A136A11AE02D0C8
:1014400012681368D950FB0FE96EFF0EDA20EA6EBE
:10145000EE50105CEE501158EE501258EE501358EA
:101460001DE2020EDB6A030EDB6A020EDBCF10F018
:10147000030EDBCF11F0D890115004E6050E105C7E
:10148000000E115806E2020EDB2A030EEEE3DB2A01
:10149000ECD7DF2A010ECCE3DB2ACAD7040EE15CCD
:1014A00002E2E16AE552E16EE552E7CFD9FF1200B0
:1014B000D9CFE6FFE1CFD9FF040EE126DE6ADD6A6F
:1014C000DECF10F0DDCF11F0126A136A11AE02D038
:1014D00012681368D950FB0FE96EFF0EDA20EA6E2E
:1014E000EE50105CEE501158EE501258EE5013585A
:1014F0001DE2020EDB6A030EDB6A020EDBCF10F088
:10150000030EDBCF11F0D890115004E6EE0E105C04
:10151000000E115806E2020EDB2A030EEEE3DB2A70
:10152000ECD7DF2A010ECCE3DB2ACAD7040EE15C3C
:1015300002E2E16AE552E16EE552E7CFD9FF12001F
:10154000D9CFE6FFE1CFD9FF0F0E8116FE0EDB509B
:10155000F00B81128186010EE66EE66AE66AE66AA3
:10156000A7DFE552E552E552E5528196010EE66E9F
:10157000E66AE66AE66A9CDFE552E552E552E55224
:101580000F0E8116FE0EDB38F00B81128186010EE4
:10159000E66EE66AE66AE66A8BDFE552E552E552F8
:1015A000E5528196010EE66EE66AE66AE66A80DF3B
:1015B000E552E552E552E552E552E7CFD9FF120078
:1015C000D9CFE6FFE1CFD9FFE652936A190EE66E56
:1015D000E66AE66AE66A6CDFE552E552E552E552F4
:1015E0000F0E8116F80E81160F0E8116300E811225
:1015F0008186010EE66EE66AE66AE66A59DFE55222
:10160000E552E552E5528196010EE66EE66AE66A1B
:10161000E66A4EDFE552E552E552E5520F0E8116BD
:10162000300E81128186010EE66EE66AE66AE66A8F
:101630003FDFE552E552E552E5528196010EE66E36
:10164000E66AE66AE66A34DFE552E552E552E552BB
:101650000F0E8116300E81128186010EE66EE66A4B
:10166000E66AE66A25DFE552E552E552E5528196E3
:10167000010EE66EE66AE66AE66A1ADFE552E552B0
:10168000E552E5520F0E8116818A8186010EE66EC3
:10169000E66AE66AE66A0CDFE552E552E552E55293
:1016A0008196010EE66EE66AE66AE66A01DFE552B9
:1016B000E552E552E552280EE66E42DFE5520C0E89
:1016C000E66E3EDFE552E552E552E7CFD9FF120064
:1016D000D9CFE6FFE1CFD9FF020EE126DF6A010E86
:1016E000DB6A81940F0EE66EE66AE66AE66A98DEC9
:1016F000E552E552E552E5520F0E81128186E66E03
:10170000E66AE66AE66A8CDEE552E552E552E552A3
:101710000F0E8114E76E010EE7CFDBFF81960F0EEF
:10172000E66EE66AE66AE66A7BDEE552E552E55277
:10173000E5520F0E81128186E66EE66AE66AE66A77
:101740006FDEE552E552E552E5520F0E8114DF6E71
:10175000010EDB50DF128196010EE66EE66AE66A44
:10176000E66A5EDEE552E552E552E552DF50106E64
:10177000020EE15C02E2E16AE552E16E1050E552D0
:10178000E7CFD9FF1200D9CFE6FFE1CFD9FFE6526C
:10179000DF6A9EDFDF6EDFBEFCD7DF50E552E55229
:1017A000E7CFD9FF1200D9CFE6FFE1CFD9FF0F0E67
:1017B0008116FE0EDB5081128186050EE66EE66A0A
:1017C000E66AE66A2DDEE552E552E552E55281967B
:1017D000050EE66EE66AE66AE66A22DEE552E55244
:1017E000E552E552E552E7CFD9FF1200D9CFE6FF27
:1017F000E1CFD9FF8194050EE66EE66AE66AE66AF5
:101800000FDEE552E552E552E552FE0EDBCFE6FF74
:10181000CADFE552FE0EDB38F00BE66EC4DFE552A0
:10182000E552E7CFD9FF1200D9CFE6FFE1CFD9FFCC
:101830008184050EE66EE66AE66AE66AF1DDE55247
:10184000E552E552E552FE0EDBCFE6FFACDFE55296
:10185000FE0EDB38F00BE66EA6DFE5528194E55212
:10186000E7CFD9FF1200D9CFE6FFE1CFD9FFFE0EB7
:10187000DBCFE6FFD9DFE552E552E7CFD9FF120013
:10188000D9CFE6FFE1CFD9FFFE0EDBCFE6FFCCDFFD
:10189000E552E552E7CFD9FF1200D9CFE6FFE1CFFD
:1018A000D9FFFD0EDBCFF6FFFE0EDBCFF7FF080002
:1018B000F5500FE0FD0EDBCFF6FFDB2AFE0EDBCF8F
:1018C000F7FF01E3DB2A0800F550E66ED9DFE552A9
:1018D000E8D7E552E7CFD9FF1200D9CFE6FFE1CF35
:1018E000D9FFE652FD0EDB500F0B106EFE0EDB50E3
:1018F000010B400DF3501024DF6E7F0EDF14800FBC
:10190000DF6EDFCFE6FF72DFE552E552E552E7CF4B
:10191000D9FF1200010EE66E69DFE552E66AE66A5B
:10192000DCDFE552E5521200D9CFE6FFE1CFD9FF67
:10193000050EE126010EF36EDB6E020EDB6A030E6E
:10194000DB6A040EDB6ADF6ADFCF10F0116A10BEBB
:101950001168FB0EDBCF12F0FC0EDBCF13F0115041
:101960001318E8AE02D0133404D01250105C135098
:1019700011582DE2FD0EDBCF10F0FE0EDBCF11F083
:10198000126A136A11AE02D012681368D950010F9F
:10199000E96EDACFEAFF10C00BF011C00CF012C0F4
:1019A0000DF013C00EF0EECF06F0EECF07F0EECF45
:1019B00008F0EFCF09F0B8EC1FF005C0EDFF04C050
:1019C000EDFF03C0EDFF02C0EFFFDF2ABDD7010E20
:1019D000DBCF10F0020EDBCF11F0030EDBCF12F0E5
:1019E000040EDBCF13F010C006F011C007F012C0D8
:1019F00008F013C009F0050EE15C02E2E16AE5526D
:101A0000E16EE552E7CFD9FF1200D9CFE6FFE1CF73
:101A1000D9FF020EE126DF6AFB0EDBCF10F0FC0ED1
:101A2000DBCF11F0FD0EDBCF12F0FE0EDBCF13F09B
:101A3000105011101210131005E1300EE66E20DF69
:101A4000E552F4D0D950FB0FE96EFF0EDA20EA6EB2
:101A5000D890030EEB50000A08E6000EEE5C000E74
:101A6000EE58000EEE58000EEE5815E22D0EE66E02
:101A700007DFE552D950FB0FE96EFF0EDA20EA6E60
:101A8000000EEE6CEF1EEE22EF1EEE22EF1EEF2296
:101A9000ED52ED52ED52DE52070EDD6E010EDBCF40
:101AA00010F0000EE76E1018E8AE02D0103403D02C
:101AB000E750D880105401E3B9D0010EDB04146E56
:101AC000156A14BE156814C0E6FF15C0E6FF0A0EBD
:101AD000E66EE66A29DFE552E552E552E55206C0B8
:101AE00010F007C011F008C012F009C013F006C0D2
:101AF0000BF007C00CF008C00DF009C00EF0FB0E93
:101B0000DBCF06F0FC0EDBCF07F0FD0EDBCF08F0DD
:101B1000FE0EDBCF09F0F0EC1FF0065007100810A6
:101B2000091041E0010EDF6EDB04186E196A18BE61
:101B3000196818C0E6FF19C0E6FF0A0EE66EE66AED
:101B4000F3DEE552E552E552E55206C014F007C057
:101B500015F008C016F009C017F006C00BF007C05A
:101B60000CF008C00DF009C00EF0FB0EDBCF06F044
:101B7000FC0EDBCF07F0FD0EDBCF08F0FE0EDBCF57
:101B800009F0F0EC1FF006C010F007C011F008C01B
:101B900012F009C013F0300E1026000E112212228E
:101BA0001322105003D0DF5004E0300EE66E68DEE2
:101BB000E552010EDB04146E156A14BE156814C0DC
:101BC000E6FF15C0E6FF0A0EE66EE66AADDEE552F8
:101BD000E552E552E55206C010F007C011F008C00A
:101BE00012F009C013F0D950FB0FE96EFF0EDA2096
:101BF000EA6E06C00BF007C00CF008C00DF009C07B
:101C00000EF0EECF06F0EECF07F0EECF08F0EFCFFC
:101C100009F0F0EC1FF005C0EDFF04C0EDFF03C0BC
:101C2000EDFF02C0EFFF010EDB0638D7020EE15CCC
:101C300002E2E16AE552E16EE552E7CFD9FF120018
:101C4000D9CFE6FFE1CFD9FFFD0EDBCFE6FFFE0ED9
:101C5000DBCFE6FF42DEE552E552D950F90FE96EDF
:101C6000FF0EDA20EA6EEECFE6FFEECFE6FFEECF14
:101C7000E6FFEFCFE6FFC9DEE552E552E552E55259
:101C8000E552E7CFD9FF1200D9CFE6FFE1CFD9FF68
:101C9000FD0EDBCFE6FFFE0EDBCFE6FF1EDEE552DC
:101CA000E552FB0EDBCFE6FFFC0EDBCFE6FFF5DDFA
:101CB000E552E552E552E7CFD9FF1200D9CFE6FF52
:101CC000E1CFD9FF7BCF10F07CCF11F0040ED8907C
:101CD00010361136E806FBE1410E10260F0E1122D8
:101CE00010500F017D25E96E11507E21EA6EFE0E27
:101CF000DBCFEFFF7D2B000E7E23E552E7CFD9FF30
:101D00001200D9CFE6FFE1CFD9FFE652DF6ADFCF7D
:101D100010F0100EE76E1018E8AE02D0E73402D0D3
:101D2000E750105C18E2DFCFE9FFEA6AE9BEEA6833
:101D3000410EE9260F0EEA22200EEF6EDFCFE9FFFB
:101D4000EA6AE9BEEA68510EE9260F0EEA22200E81
:101D5000EF6EDF2ADCD7E552E552E7CFD9FF12005C
:101D6000D9CFE6FFE1CFD9FFE6520F014051030A78
:101D700052E0010A36E0030A1AE0010A67E1E66A66
:101D8000E66AABDDE552E552DF6A080EDF5C0CE285
:101D9000DF50EA6A410FE96E0F0EEA22EF50E66E5D
:101DA0006FDDE552DF2AF1D70F01010E32D0080EA8
:101DB000E66EE66A92DDE552E552DF6A080EDF5C08
:101DC0000DE2080EDF24EA6A410FE96E0F0EEA22E7
:101DD000EF50E66E55DDE552DF2AF0D70F01020E17
:101DE00018D0E66A010EE66E78DDE552E552DF6A4C
:101DF000080EDF5C0CE2DF50EA6A510FE96E0F0E4D
:101E0000EA22EF50E66E3CDDE552DF2AF1D70F0102
:101E1000030E406F1CD0080EE66E010EE66E5DDD0F
:101E2000E552E552DF6A080EDF5C0DE2080EDF24A2
:101E3000EA6A510FE96E0F0EEA22EF50E66E20DDDE
:101E4000E552DF2AF0D70F01406B01D0406BE5521D
:101E5000E552E7CFD9FF1200D9CFE6FFE1CFD9FF96
:101E6000E6520F014051010A1BE0010A32E1E66A25
:101E7000E66A33DDE552E552DF6A100EDF5C0CE204
:101E8000DF50EA6A410FE96E0F0EEA22EF50E66E6C
:101E9000F7DCE552DF2AF1D70F01010E406F1AD0AF
:101EA000E66A010EE66E19DDE552E552DF6A100EB4
:101EB000DF5C0CE2DF50EA6A510FE96E0F0EEA2296
:101EC000EF50E66EDDDCE552DF2AF1D70F01406B03
:101ED00001D0406BE552E552E7CFD9FF1200D9CFD0
:101EE000E6FFE1CFD9FFE652E66AE66AF6DCE552A4
:101EF000E552DF6A100EDF5C0CE2DF50EA6A410F48
:101F0000E96E0F0EEA22EF50E66EBADCE552DF2AE8
:101F1000F1D7E66A010EE66EE0DCE552E552DF6AD3
:101F2000100EDF5C0CE2DF50EA6A510FE96E0F0E13
:101F3000EA22EF50E66EA4DCE552DF2AF1D7E55243
:101F4000E552E7CFD9FF1200D9CFE6FFE1CFD9FFA5
:101F5000FE0EDB50010B0F017B6F7C6BFD0EDB5027
:101F60000F0B7D6F7E6BFC0EDB500A0802E1610EE9
:101F700005D0FC0EDB500D0805E1640EF36EFC0E7F
:101F8000F3CFDBFF7BCF10F07CCF11F0040ED890A5
:101F900010361136E806FBE1410E10260F0E112215
:101FA00010500F017D25E96E11507E21EA6EFC0E66
:101FB000DBCFEFFFE552E7CFD9FF1200D9CFE6FF25
:101FC000E1CFD9FF020EE126DF6AFE0EDB50010BE6
:101FD0000F017B6F7C6BFD0EDB500F0B7D6F7E6BFB
:101FE000F90EDBCF10F0FA0EDBCF11F0FB0EDBCFDA
:101FF00012F0FC0EDBCF13F0105011101210131062
:1020000005E1300EE66E5ADEE552F5D0D950F90FF3
:10201000E96EFF0EDA20EA6ED890030EEB50000A4C
:1020200008E6000EEE5C000EEE58000EEE58000EB4
:10203000EE5815E22D0EE66E41DEE552D950F90F4D
:10204000E96EFF0EDA20EA6E000EEE6CEF1EEE2255
:10205000EF1EEE22EF1EEF22ED52ED52ED52DE5258
:10206000070EDD6E010EDBCF10F0000EE76E1018CC
:10207000E8AE02D0103403D0E750D880105401E30A
:10208000BAD0010EDB04146E156A14BE156814C0B4
:10209000E6FF15C0E6FF0A0EE66EE66A45DCE5528D
:1020A000E552E552E55206C010F007C011F008C035
:1020B00012F009C013F006C00BF007C00CF008C006
:1020C0000DF009C00EF0F90EDBCF06F0FA0EDBCFF3
:1020D00007F0FB0EDBCF08F0FC0EDBCF09F0F0ECD5
:1020E0001FF0065007100810091041E0010EDF6EC6
:1020F000DB04186E196A18BE196818C0E6FF19C00B
:10210000E6FF0A0EE66EE66A0FDCE552E552E5529E
:10211000E55206C014F007C015F008C016F009C05B
:1021200017F006C00BF007C00CF008C00DF009C096
:102130000EF0F90EDBCF06F0FA0EDBCF07F0FB0E48
:10214000DBCF08F0FC0EDBCF09F0F0EC1FF006C08F
:1021500010F007C011F008C012F009C013F0300EE3
:102160001026000E112212221322105003D0DF502D
:1021700004E0300EE66EA2DDE552010EDB04146EC3
:10218000156A14BE156814C0E6FF15C0E6FF0A0EF6
:10219000E66EE66A94EC0CF0E552E552E552E55243
:1021A00006C010F007C011F008C012F009C013F00B
:1021B000D950F90FE96EFF0EDA20EA6E06C00BF077
:1021C00007C00CF008C00DF009C00EF0EECF06F00D
:1021D000EECF07F0EECF08F0EFCF09F0F0EC1FF0F4
:1021E00005C0EDFF04C0EDFF03C0EDFF02C0EFFF2F
:1021F000010EDB0637D7020EE15C02E2E16AE5522E
:10220000E16EE552E7CFD9FF1200D9CFE6FFE1CF6B
:10221000D9FFFE0EDB50010B0F017B6F7C6BFD0EB7
:10222000DB500F0B7D6F7E6BFB0EDBCFF6FFFC0EE2
:10223000DBCFF7FF0800F5500FE0FB0EDBCFF6FF1A
:10224000DB2AFC0EDBCFF7FF01E3DB2A0800F550A9
:10225000E66E34DDE552E8D7E552E7CFD9FF12004C
:10226000D9CFE6FFE1CFD9FF020EE126DE6ADD6AB3
:10227000FE0EDB50010B0F017B6F7C6B7D6B7E6B69
:10228000DE6ADD6ADECF10F0DDCF11F0D89011509C
:1022900004E6100E105C000E11581EE2FC0EDBCF9F
:1022A000F6FFFD0EDBCFF7FF0800F5500CE0FC0E4B
:1022B000DBCFF6FFDB2AFD0EDBCFF7FF01E3DB2AE6
:1022C0000800F55001D0200EE66EF8DCE552DF2A5A
:1022D000010ED8E3DB2AD6D7020EE15C02E2E16A06
:1022E000E552E16EE552E7CFD9FF1200D9CFE6FF04
:1022F000E1CFD9FF040EE126DE6ADD6A020EDB6A59
:10230000030EDB6AFC0EDB50080DF350E66ED9506D
:10231000020FE96EDACFEAFFE552E750EE6EED6AA2
:10232000400EE76E020EDBCF10F0030EDBCF11F094
:10233000E7501012020E10C0DBFF030E11C0DBFFCE
:10234000020EDBCFE6FFF6EC0BF0E552DE6ADD6A4B
:10235000DECF10F0DDCF11F0080E105C000E11582A
:1023600028E2FD0EDBCF10F0FE0EDBCF11F0DE50C9
:102370001024E96EDD501120EA6EEF50E66E14EC89
:102380000CF0E552010EE76E020EDBCF10F0030EEB
:10239000DBCF11F0E7501026000E1122020E10C004
:1023A000DBFF030E11C0DBFFDF2A010ED1E3DB2AC6
:1023B000CFD7040EE15C02E2E16AE552E16EE5523C
:1023C000E7CFD9FF1200E66A000EE66E0F0EE66E4A
:1023D0008DDFE552E552E552010EE66E080EE66E1F
:1023E0000F0EE66E83DFE552E552E552020EE66E11
:1023F000100EE66E0F0EE66E79DFE552E552E552FD
:10240000030EE66E180EE66E0F0EE66E6FDFE552F7
:06241000E552E552120046
:0A2416000F0E946E82681200070E8C
:102420009410946EDF0E9414946E82681200D9CFCB
:10243000E6FFE1CFD9FF040EE126DE6ADD6ADECFDA
:1024400010F0DDCF11F0D890115004E6040E105CAE
:10245000000E115801E390D0DECFE9FFDDCFEAFF97
:10246000490EE926010EEA22EF1C826E020EDB6A9B
:10247000030EDB6A020EDBCF10F0030EDBCF11F090
:10248000D890115004E6040E105C000E11586EE254
:10249000020EDBCFE9FF030EDBCFEAFF4D0EE9268C
:1024A000010EEA22EF5082143FE1DECF14F0DDCFBF
:1024B00015F0D89014361536D89014361536020E0D
:1024C000DB501424E96E030EDB501520EA6ED89021
:1024D000E936EA36290EE926010EEA22EECF12F09D
:1024E000EFCF13F0010E1226000E1322DECF10F0F4
:1024F000DDCF11F0D89010361136D8901036113645
:10250000020EDB501024E96E030EDB501120EA6E40
:10251000D890E936EA36290EE926010EEA2212C0E1
:10252000EEFF13C0EDFF1BD0DECF10F0DDCF11F0BA
:10253000D89010361136D89010361136020EDB5076
:102540001024E96E030EDB501120EA6ED890E936B4
:10255000EA36290EE926010EEA22EE6AED6A020E3B
:10256000DB2A030E01E286D7DB2A84D7DF2A010E9D
:1025700001E265D7DB2A63D7040EE15C02E2E16A7F
:10258000E552E16EE552E7CFD9FF1200D9CFE6FF61
:10259000E1CFD9FF040EE126DE6ADD6ADECF10F05E
:1025A000DDCF11F0D890115004E6020E105C000E41
:1025B000115801E391D0DECFE9FFDDCFEAFF490EEC
:1025C000E926010EEA22EF1C8214826E020EDB6AFB
:1025D000030EDB6A020EDBCF10F0030EDBCF11F02F
:1025E000D890115004E6040E105C000E11586EE2F3
:1025F000020EDBCFE9FF030EDBCFEAFF4D0EE9262B
:10260000010EEA22EF5082143FE1DECF14F0DDCF5D
:1026100015F0D89014361536D89014361536020EAB
:10262000DB501424E96E030EDB501520EA6ED890BF
:10263000E936EA36290EE926010EEA22EECF12F03B
:10264000EFCF13F0010E1226000E1322DECF10F092
:10265000DDCF11F0D89010361136D89010361136E3
:10266000020EDB501024E96E030EDB501120EA6EDF
:10267000D890E936EA36290EE926010EEA2212C080
:10268000EEFF13C0EDFF1BD0DECF10F0DDCF11F059
:10269000D89010361136D89010361136020EDB5015
:1026A0001024E96E030EDB501120EA6ED890E93653
:1026B000EA36290EE926010EEA22EE6AED6A020EDA
:1026C000DB2A030E01E286D7DB2A84D7DF2A010E3C
:1026D00001E264D7DB2A62D7040EE15C02E2E16A20
:1026E000E552E16EE552E7CFD9FF1200D9CFE6FF00
:1026F000E1CFD9FF040EE126DE6ADD6A020EDB6A55
:10270000030EDB6A0101491D8214826E020EDB6A30
:10271000030EDB6A020EDBCF10F0030EDBCF11F0ED
:10272000D890115004E6040E105C000E11586EE2B1
:10273000020EDBCFE9FF030EDBCFEAFF4D0EE926E9
:10274000010EEA22EF5082143FE1DECF14F0DDCF1C
:1027500015F0D89014361536D89014361536020E6A
:10276000DB501424E96E030EDB501520EA6ED8907E
:10277000E936EA36290EE926010EEA22EECF12F0FA
:10278000EFCF13F0010E1226000E1322DECF10F051
:10279000DDCF11F0D89010361136D89010361136A2
:1027A000020EDB501024E96E030EDB501120EA6E9E
:1027B000D890E936EA36290EE926010EEA2212C03F
:1027C000EEFF13C0EDFF1BD0DECF10F0DDCF11F018
:1027D000D89010361136D89010361136020EDB50D4
:1027E0001024E96E030EDB501120EA6ED890E93612
:1027F000EA36290EE926010EEA22EE6AED6A020E99
:10280000DB2A030E01E286D7DB2A84D7040EE15CC3
:1028100002E2E16AE552E16EE552E7CFD9FF12002C
:10282000D9CFE6FFE1CFD9FF040EE126DE6ADD6AEB
:10283000020EDB6A030EDB6A010EDE6EDD6ADECF9E
:10284000E9FFDDCFEAFF490EE926010EEA22EF1C7F
:102850008214826E020EDB6A030EDB6A020EDBCF8D
:1028600010F0030EDBCF11F0D890115004E6030EE8
:10287000105C000E11586EE2020EDBCFE9FF030E72
:10288000DBCFEAFF4D0EE926010EEA22EF5082145B
:102890003FE1DECF14F0DDCF15F0D89014361536B9
:1028A000D89014361536020EDB501424E96E030E50
:1028B000DB501520EA6ED890E936EA36290EE92673
:1028C000010EEA22EECF12F0EFCF13F0010E122626
:1028D000000E1322DECF10F0DDCF11F0D8901036AD
:1028E0001136D89010361136020EDB501024E96EE6
:1028F000030EDB501120EA6ED890E936EA36290E35
:10290000E926010EEA2212C0EEFF13C0EDFF1BD034
:10291000DECF10F0DDCF11F0D89010361136D89000
:1029200010361136020EDB501024E96E030EDB5018
:102930001120EA6ED890E936EA36290EE926010E12
:10294000EA22EE6AED6A020EDB2A030E01E286D766
:10295000DB2A84D7040EE15C02E2E16AE552E16E13
:10296000E552E7CFD9FF1200D9CFE6FFE1CFD9FF7B
:10297000040EE126DE6ADD6ADECF10F0DDCF11F055
:10298000FD0EDBCF12F0FE0EDBCF13F0115013184B
:10299000E8AE02D0133404D01250105C135011581A
:1029A0001DE2020EDB6A030EDB6A020EDBCF10F0C3
:1029B000030EDBCF11F0D890115004E6EE0E105C40
:1029C000000E115806E2020EDB2A030EEEE3DB2AAC
:1029D000ECD7DF2A010ED0E3DB2ACED7040EE15C70
:1029E00002E2E16AE552E16EE552E7CFD9FF12005B
:1029F000D9CFE6FFE1CFD9FF040EE126DE6ADD6A1A
:102A0000DECF10F0DDCF11F0D890115004E6040EA7
:102A1000105C000E115875E2DECFE9FFDDCFEAFF52
:102A2000490EE926010EEA22EF1C826E020EDB6AD5
:102A3000030EDB6A020EDBCF10F0030EDBCF11F0CA
:102A4000D890115004E6040E105C000E11584AE2B2
:102A5000DECF10F0DDCF11F0D89010361136D890BF
:102A600010361136020EDB501024E96E030EDB50D7
:102A70001120EA6ED890E936EA36290EE926010ED1
:102A8000EA22EE6AED6A020EDBCFE9FF030EDBCF2E
:102A9000EAFF4D0EE926010EEA22EF5082141CE1F6
:102AA000DECF10F0DDCF11F0D89010361136D8906F
:102AB00010361136020EDB501024E96E030EDB5087
:102AC0001120EA6ED890E936EA36290EE926010E81
:102AD000EA22010EEE6EED6A020EDB2A030EAAE375
:102AE000DB2AA8D78250816EE80EE66E030EE66EF2
:102AF0003BDFE552E552DF2A010E01E281D7DB2AF6
:102B00007FD7040EE15C02E2E16AE552E16EE55234
:102B1000E7CFD9FF1200D9CFE6FF040EE12684B03B
:102B200005D00101292B000E2A2303D00101296BB6
:102B30002A6B84B204D02B2B000E2C2302D02B6BDB
:102B40002C6B84B404D02D2B000E2E2302D02D6BC1
:102B50002E6B82B004D02F2B000E302302D02F6BAF
:102B6000306B82B204D0312B000E322302D0316B95
:102B7000326B82B404D0332B000E342302D0336B7B
:102B8000346B82BA04D0352B000E362302D0356B5D
:102B9000366B81B004D0372B000E382302D0376B50
:102BA000386B040EE15C02E2E16AE552E16EE55247
:102BB000E7CFD9FF1200070E9610966E270E9410DD
:0A2BC000946E010E9310936E120044
:062BCA00D9CFE6FFE1CFC8
:102BD000D9FFD59EFD0EDBCF51F1FE0EDBCF52F1BA
:102BE000D59C13681468156A51C116F052C117F0CC
:102BF000186A1650135C106E17501458116E185046
:102C00001558126E0C6A010E0D6E0E6A10C007F098
:102C100011C008F012C009F0F4EC1EF00350D66E9B
:102C200013681468156A51C116F052C117F0186A7A
:102C30001650135C106E17501458116E185015581A
:102C4000126E0C6A010E0D6E0E6A10C007F011C0F4
:102C500008F012C009F0F4EC1EF007C010F008C034
:102C600011F009C012F00750D76ED59AD586F28AB6
:102C7000F294F184D58EE552E7CFD9FF1200D59EAC
:102C8000120013681468156A51C116F052C117F08A
:102C9000186A1650135C106E17501458116E1850A5
:102CA0001558126E0C6A010E0D6E0E6A10C007F0F8
:102CB00011C008F012C009F0F4EC1EF00350D66EFB
:102CC00013681468156A51C116F052C117F0186ADA
:102CD0001650135C106E17501458116E185015587A
:102CE000126E0C6A010E0D6E0E6A10C007F011C054
:102CF00008F012C009F0F4EC1EF007C010F008C094
:102D000011F009C012F00750D76ED58E1200D9CF3E
:102D1000E6FFE1CFD9FFCD90FD0EDBCF53F1FE0EE4
:102D2000DBCF54F113681468156A53C116F054C10F
:102D300017F0186A1650135C106E17501458116E65
:102D400018501558126E0C6A010E0D6E0E6A10C0E6
:102D500007F011C008F012C009F0F4EC1EF00750A3
:102D6000CF6E13681468156A53C116F054C117F07A
:102D7000186A1650135C106E17501458116E1850C4
:102D80001558126E0C6A010E0D6E0E6A10C007F017
:102D900011C008F012C009F0F4EC1EF003C010F0EE
:102DA00004C011F005C012F00350CE6E9D809E90BD
:102DB0009F90CD8ECD8CCD98CD9ACD96CD92CD8055
:102DC000E552E7CFD9FF120013681468156A53C1A2
:102DD00016F054C117F0186A1650135C106E175095
:102DE0001458116E18501558126E0C6A010E0D6EA3
:102DF0000E6A10C007F011C008F012C009F0F4EC20
:102E00001EF00750CF6E13681468156A53C116F090
:102E100054C117F0186A1650135C106E17501458EE
:102E2000116E18501558126E0C6A010E0D6E0E6A56
:102E300010C007F011C008F012C009F0F4EC1EF049
:102E400003C010F004C011F005C012F00350CE6EA4
:102E5000CD801200CD901200D9CFE6FFE1CFD9FF8F
:102E6000CA94CC6AFE0EDB500101556F566BCB6ED7
:102E70009D829E929F92CA90CA92CA84E552E7CFE1
:102E8000D9FF120055C1CBFFCA841200CA941200A8
:102E9000D9CFE6FFE1CFD9FFB190FD0EDBCF57F1DF
:102EA000FE0EDBCF58F113681468156A57C116F08F
:102EB00058C117F0186A1650135C106E175014584A
:102EC000116E18501558126E0C6A010E0D6E0E6AB6
:102ED00010C007F011C008F012C009F0F4EC1EF0A9
:102EE0000750B36E13681468156A57C116F058C1BD
:102EF00017F0186A1650135C106E17501458116EA4
:102F000018501558126E0C6A010E0D6E0E6A10C024
:102F100007F011C008F012C009F0F4EC1EF003C075
:102F200010F004C011F005C012F00350B26EA08280
:102F3000A192A292B18EB198B19AB192B180E552AC
:102F4000E7CFD9FF120013681468156A57C116F04D
:102F500058C117F0186A1650135C106E17501458A9
:102F6000116E18501558126E0C6A010E0D6E0E6A15
:102F700010C007F011C008F012C009F0F4EC1EF008
:102F80000350B26E13681468156A57C116F058C121
:102F900017F0186A1650135C106E17501458116E03
:102FA00018501558126E0C6A010E0D6E0E6A10C084
:102FB00007F011C008F012C009F0F4EC1EF007C0D1
:102FC00010F008C011F009C012F00750B36EB180C4
:102FD0001200B19012000101612B000E62236951B1
:102FE000615D6A51625904E3616B626B010E596F56
:102FF00012000101632B000E64236B51635D6C5161
:10300000645904E3636B646B010E5A6F1200010193
:10301000652B000E66236D51655D6E51665904E3A4
:10302000656B666B010E5B6F12000101672B000E72
:1030300068236F51675D7051685904E3676B686B73
:10304000010E5C6F1200D9CFE6FFE1CFD9FFFD0E74
:10305000DBCF69F1FE0EDBCF6AF10101616B626BC0
:10306000596BE552E7CFD9FF1200D9CFE6FFE1CF88
:10307000D9FFFD0EDBCF6BF1FE0EDBCF6CF1050E41
:103080000D6E0E6A6BC108F06CC109F0CEEC1EF03B
:1030900008C06BF109C06CF10101636B646B5A6B82
:1030A000E552E7CFD9FF1200D9CFE6FFE1CFD9FF34
:1030B000FD0EDBCF6FF1FE0EDBCF70F10A0E0D6E51
:1030C0000E6A6FC108F070C109F0CEEC1EF008C0A6
:1030D0006FF109C070F10101676B686B5C6BE552C1
:0630E000E7CFD9FF12004A
:0A30E600D9CFE6FFE1CFD9FF020EBB
:1030F000E126FE0EDB500F0BDF6EFE0EDB380F0BF2
:103100000A0D010EF3CFDBFFDB50DF24106E020E41
:10311000E15C02E2E16AE552E16E1050E552E7CF70
:10312000D9FF1200D9CFE6FFE1CFD9FF020EE12689
:103130000A0E106E0E6EFE0EDBCF09F081EC20F051
:103140000550DF6E0A0E106E0E6EFE0EDBCF09F01C
:1031500081EC20F00950100D010EF3CFDBFFDB50A6
:10316000DF24106E020EE15C02E2E16AE552E16EDC
:103170001050E552E7CFD9FF120094869488C79E7D
:10318000C79CC690C692C694C686310EC86EC68AC3
:103190001200D9CFE6FFE1CFD9FF9E96FE0EDB509D
:1031A000D00FC96E9EA6FED7E552E7CFD9FF120019
:1031B000D9CFE6FFE1CFD9FF9E96FE0EDB50A00FE0
:1031C000C96E9EA6FED7E552E7CFD9FF12009E96A4
:1031D000C5809EA6FED712009E96C5849EA6FED7E9
:1031E0001200D9CFE6FFE1CFD9FF9E96FE0EDB504D
:1031F000C96E9EA6FED7E552E7CFD9FF12009E9674
:10320000C5869EA6FED7C95012009E96C59AC5884F
:103210009EA6FED712009E96C58AC5889EA6FED79A
:103220001200D9CFE6FFE1CFD9FFD1DFE66AB1DFE7
:10323000E5520101010EA86FE85004E0C550400BB3
:10324000FAE0F8D7FE0EDBCFE6FFCBDFE552010157
:10325000010EA86FE85004E0C550400BFAE0F8D723
:10326000FD0EDBCFE6FF5EDFE552E66EBADFE5522C
:103270000101010EA86FE85004E0C550400BFAE0D0
:10328000F8D7AADFE552E7CFD9FF1200D9CFE6FF82
:10329000E1CFD9FF9CDFE66A8BDFE5520101010E29
:1032A000A86FE85004E0C550400BFAE0F8D7FE0ED6
:1032B000DBCFE6FF96DFE5520101010EA86FE85073
:1032C00004E0C550400BFAE0F8D7FD0EDBCF10F05C
:1032D000FE0EDBCF11F00001116A1050E66E81DFA7
:1032E000E5520101010EA86FE85004E0C550400B03
:1032F000FAE0F8D7FC0EDBCFE6FF73DFE552010101
:10330000010EA86FE85004E0C550400BFAE0F8D772
:1033100063DFE552E7CFD9FF1200D9CFE6FFE1CF57
:10332000D9FFE65254DFE66A34DFE5520101010EAF
:10333000A86FE85004E0C550400BFAE0F8D7FE0E45
:10334000DBCFE6FF4EDFE5520101010EA86FE8502A
:1033500004E0C550400BFAE0F8D739DF010EE66E05
:1033600018DFE5520101010EA86FE85004E0C550D6
:10337000400BFAE0F8D743DFDF6EDFCFE6FFB3DEC6
:10338000E552DF6EDF50E552E552E7CFD9FF12007C
:10339000D9CFE6FFE1CFD9FFE65219DFE66A08DFB1
:1033A000E5520101010EA86FE85004E0C550400B42
:1033B000FAE0F8D7FE0EDBCFE6FF13DFE55201019E
:1033C000010EA86FE85004E0C550400BFAE0F8D7B2
:1033D000FD0EDBCF10F0FE0EDBCF11F00001116A05
:1033E0001050E66EFEDEE5520101010EA86FE850B6
:1033F00004E0C550400BFAE0F8D7E9DE010EE66EB6
:10340000D7DEE5520101010EA86FE85004E0C55077
:10341000400BFAE0F8D7F3DEDF6EDF50E552E552FD
:06342000E7CFD9FF120006
:0A342600F28ED08EF28C1200F19CA1
:10343000F292F2881200D8CFE4FFE0CFE4FFE46E0E
:10344000DACFE4FFE2CFDAFFE9CFE4FFEACFE4FF2F
:10345000F6CFE4FFF7CFE4FFF5CFE4FFF3CFE4FFCF
:10346000F4CFE4FFFACFE4FF00EE00F0100EE80422
:1034700003E3EECFE4FFFBD700EE10F00A0EE80402
:1034800003E3EECFE4FFFBD7E652F2A407D03FEC14
:1034900016F0F29441EC16F0EBEC17F09EA007D07A
:1034A0002AEC17F09E90E4EC16F0F9EC17F09EA2CF
:1034B00007D046EC17F09E9242EC17F007EC18F09C
:1034C000A1A207D0E9EC17F0A192A3EC17F015EC3C
:1034D00018F0F2B2F2929EAA03D09E9A38EC1DF038
:1034E000E55200EE19F00A0EE80403E3E5CFEDFF24
:1034F000FBD700EE0FF0100EE80403E3E5CFEDFF7D
:10350000FBD7E5CFFAFFE5CFF4FFE5CFF3FFE5CF3B
:10351000F5FFE5CFF7FFE5CFF6FFE5CFEAFFE5CF13
:10352000E9FFE5CFDAFFE550E5CFE0FFE5CFD8FFD3
:103530001000DACFE4FFE2CFDAFFE9CFE4FFEACF11
:10354000E4FFF6CFE4FFF7CFE4FFF5CFE4FFF3CFDE
:10355000E4FFF4CFE4FFFACFE4FF00EE00F0100E3A
:10356000E80403E3EECFE4FFFBD700EE10F00A0E11
:10357000E80403E3EECFE4FFFBD7E652F2A407D062
:103580003FEC16F0F29441EC16F0EBEC17F09EA035
:1035900007D02AEC17F09E90E4EC16F0F9EC17F047
:1035A0009EA207D046EC17F09E9242EC17F007EC73
:1035B00018F0A1A207D0E9EC17F0A192A3EC17F044
:1035C00015EC18F0F2B2F2929EAA03D09E9A38EC53
:1035D0001DF0E55200EE19F00A0EE80403E3E5CF12
:1035E000EDFFFBD700EE0FF0100EE80403E3E5CF8C
:1035F000EDFFFBD7E5CFFAFFE5CFF4FFE5CFF3FF13
:10360000E5CFF5FFE5CFF7FFE5CFF6FFE5CFEAFF22
:0A361000E5CFE9FFE5CFDAFF110076
:06361A00D9CFE6FFE1CF6D
:10362000D9FF020EE126DE6ADD6A59D8E80EE66EA1
:10363000030EE66E0DD8E552E55201015C51FDE046
:103640005C6B10EC14F0F3EC05F0B0EC0EF0F5D779
:10365000D9CFE6FFE1CFD9FF040EE126DE6ADD6AAD
:10366000DECF10F0DDCF11F0FD0EDBCF12F0FE0E3D
:10367000DBCF13F011501318E8AE02D0133404D08E
:103680001250105C135011581DE2020EDB6A030E3B
:10369000DB6A020EDBCF10F0030EDBCF11F0D89007
:1036A000115004E6EE0E105C000E115806E2020EF8
:1036B000DB2A030EEEE3DB2AECD7DF2A010ED0E390
:1036C000DB2ACED7040EE15C02E2E16AE552E16E4C
:1036D000E552E7CFD9FF1200956A836A1200FCDF3A
:1036E00041EC1EF0E0EC0AF0E3EC11F00FEC12F00C
:1036F00013EC1AF0BDEC18F091EC1CF08AEC0CF015
:1037000081EC0EF0F40EE66E010EE66EA1DFE552DE
:10371000E552570EE66E120EE66EE5EC15F0E55238
:10372000E552660EE66EB70EE66E48EC17F0E5520F
:10373000E552020EE66EE66A23EC18F0E552E55219
:10374000320EE66EE66A54EC18F0E552E5521200CD
:10375000D9CFE6FFE1CFD9FF020EE126DE6ADD6AAE
:10376000DE6ADD6ADECF10F0DDCF11F0D8901150A7
:1037700004E6100E105C000E11581FE2DECFE9FFC8
:10378000DDCFEAFFD890E936EA36290EE926010EA8
:10379000EA22EE50ED1002E0610E01D0200EE66E3E
:1037A000DFCFE6FFE66AA4EC0FF0E552E552E55202
:1037B000DF2A010ED7E3DB2AD5D7020EE15C02E255
:0E37C000E16AE552E16EE552E7CFD9FF120053
:0237CE00D9CF51
:1037D000E6FFE1CFD9FFFB0EDBCFE9FFFC0EDBCF2D
:1037E000EAFF7F0EE926010EEA22EF50E66E48EC72
:1037F0001EF0E552FD0EDBCFE9FFFE0EDBCFEAFF48
:10380000750EE926010EEA22EF50E66E48EC1EF036
:10381000E552AAEC1EF0E552E7CFD9FF1200E668A8
:1038200048EC1EF0E552E66A48EC1EF0E552AAEFBD
:103830001EF083C1E6FF84C1E6FF710E01018325FE
:10384000E96E010E8421EA6EEF50E66EE66ABFDF94
:10385000E552E552E552E552010E01018325836FE1
:10386000000E8421846F040E0D6E0E6A83C108F071
:1038700084C109F0CEEC1EF004C083F105C084F1D0
:103880001200D9CFE6FFE1CFD9FF0A0E106E116A00
:10389000FD0EDBCF08F0FE0EDBCF09F010C00DF0FF
:1038A00011C00EF0CEEC1EF008C071F1FD0EDBCFA2
:1038B00010F0FE0EDBCF11F00A0E0D6E0E6A10C076
:1038C00008F011C009F0CEEC1EF004C072F10A0E2F
:1038D000106E116AFB0EDBCF08F0FC0EDBCF09F097
:1038E00010C00DF011C00EF0CEEC1EF008C073F148
:1038F000FB0EDBCF10F0FC0EDBCF11F00A0E0D6ECD
:103900000E6A10C008F011C009F0CEEC1EF004C021
:1039100010F005C011F004C074F1E552E7CFD9FFF3
:02392000120093
:0E392200B06A810EAF6EAC8AAC94B886AC98D9
:10393000AB8EAB889E9A9D8A9F9A949C948E12001F
:10394000D9CFE6FFE1CFD9FF040EE126DE6ADD6ABA
:10395000DECF10F0DDCF11F0FD0EDBCF12F0FE0E4A
:10396000DBCF13F011501318E8AE02D0133404D09B
:103970001250105C135011581DE2020EDB6A030E48
:10398000DB6A020EDBCF10F0030EDBCF11F0D89014
:10399000115004E6EE0E105C000E115806E2020E05
:1039A000DB2A030EEEE3DB2AECD7DF2A010ED0E39D
:1039B000DB2ACED7040EE15C02E2E16AE552E16E59
:1039C000E552E7CFD9FF1200D9CFE6FFE1CFD9FF0B
:1039D0009EA8FED7FE0EDB50AD6E9E98E552E7CF57
:1039E000D9FF1200D9CFE6FFE1CFD9FFFD0EDBCF23
:1039F000E9FFFE0EDBCFEAFFEF5010E0FD0EDBCF5C
:103A0000E9FFFE0EDBCFEAFFEF50E66EDDDFE552A9
:103A1000FD0EDB2AFE0EEAE3DB2AE8D7E552E7CF0C
:103A2000D9FF1200D9CFE6FFE1CFD9FFFD0EDBCFE2
:103A3000F6FFFE0EDBCFF7FF0800F55015E0FD0E98
:103A4000DBCFF6FFFE0EDBCFF7FF0800F550E66E8A
:103A5000BBDFE552FD0EDBCFF6FFDB2AFE0EDBCF30
:103A6000F7FFE4E3DB2AE2D7E552E7CFD9FF120004
:043A70003AEF1DF01C
:0C3A7400D9CFE6FFE1CFD9FFE652AE50FB
:103A8000DF6EDFCFE6FFE4EC1CF0E5520101875169
:103A9000050A2AE0010A21E0070A11E0010A0AE00A
:103AA000020A02E0010A2AE1FF0EDF5C28E18A6BCC
:103AB000020E22D0FF0EDF5C15E1030E1DD08A51ED
:103AC000EA6A810FE96E000EEA22DFCFEFFF8A2B50
:103AD0008C518A5D14E3040E0FD0FE0EDF5C02E110
:103AE000050E0AD0010E08D0FE0EDF5C04E1010EC7
:103AF000886F876B04D0010E876F01D0876BE5520A
:103B0000E552E7CFD9FF120012000101880541E11B
:103B1000970EE66E3B0EE66EE66AE66A05EC11F07D
:103B2000E552E552E552E5520001806B01018C51EE
:103B30000001805D21E28051EA6A810FE96E000E8A
:103B4000EA22EFCF10F0116A126A136A10C0E6FF82
:103B500011C0E6FF12C0E6FF13C0E6FF030E8003AC
:103B6000F350E66EE66ADEEC0FF0146E060EE15ED0
:103B700014500001802BDAD7940EE66E3B0EE66EF1
:103B80000E0EE66EE66A05EC11F0E552E552E552DE
:043B9000E5521200E8
:0C3B94004F4B002020202020202020206B
:103BA0002020202020202000594C57202020202099
:103BB0000052454420202020200047524E20202043
:103BC00020200077726F6E67004F4E20202020204B
:103BD000004F46460059454C4C4F5700475245450B
:103BE0004E00524544002020204D414E55414C206E
:103BF0004D4F444500202020202020204F464600E5
:103C0000202020202020204F4E0020202020534C18
:103C10004F57204D4F444500594C57323A202020F1
:103C20000047524E323A20202000594C57313A205A
:103C300020200047524E313A202020002020200032
:103C4000352E46554E4354494F4E5F3100342E4673
:103C5000554E4354494F4E5F3000332E4D414E5523
:103C6000414C204D4F444500322E534C4F57204D70
:103C70004F444500312E4348414E47452054494D5D
:023C80004500FD
:0E3C82003F0E95169294839C839E80941200B0
:103C9000D9CFE6FFE1CFD9FF020EE126DE6ADD6A69
:103CA000DE6ADD6ADECF10F0DDCF11F0D890115062
:103CB00004E6080E105C000E115815E2839EFE0EFD
:103CC000DB50010B02E1839C01D0838C838EFE0EBE
:103CD000DB407F0BE76EFE0EE7CFDBFFDF2A010E36
:103CE000E1E3DB2ADFD7839E020EE15C02E2E16AB8
:103CF000E552E16EE552E7CFD9FF1200D9CFE6FFDA
:103D0000E1CFD9FF020EE126DE6ADD6ADECF10F0D8
:103D1000DDCF11F0FD0EDBCF12F0FE0EDBCF13F086
:103D200011501318E8AE02D0133404D01250105CB6
:103D30001350115805E2DF2A010EE8E3DB2AE6D72B
:103D4000020EE15C02E2E16AE552E16EE552E7CF84
:103D5000D9FF120080948084640EE66EE66ACEDF9E
:083D6000E552E55280941200C7
:083D6800006A0EAEBAEF1EF076
:103D70000E6C001E09AEBFEF1EF0096C001E81EC38
:103D800020F009BEC9EF1EF000AE000C096C056CF6
:103D9000000C00BEC6EF1EF00188FF0C006A0EAEDC
:103DA000D7EF1EF00D6C0E1EE86A0E22001E09AE43
:103DB000DFEF1EF0086C091EE86A0922001E4DECB8
:103DC00020F009BEEFEF1EF000AE000C086C091EDB
:103DD000E86A0922046C051EE86A0522000C00BE90
:103DE000E6EF1EF00188FF0C006A0EAEFFEF1EF03A
:103DF0000C6C0D1E0E1EE86A0D220E22001E09AE6E
:103E000009EF1FF0076C081E091EE86A0822092244
:103E1000001E14EC20F009BE1CEF1FF000AE000CD9
:103E2000076C081E091EE86A08220922036C041E9A
:103E3000051E04220522000C00BE10EF1FF00188B1
:023E4000FF0C75
:0E3E42001E0EF66E000EF76E000EF86E0101F9
:103E50000900F5509D6F0900F5509E6F03E19D67C5
:103E600001D03DD00900F550986F0900F550996FC9
:103E70000900F5509A6F09000900F550E96E090034
:103E8000F550EA6E090009000900F5509B6F090022
:103E9000F5509C6F09000900F6CF9FF1F7CFA0F114
:103EA000F8CFA1F198C1F6FF99C1F7FF9AC1F8FFC9
:103EB00001019B5302E19C5307E00900F550EE6EAF
:103EC0009B07F8E29C07F9D79FC1F6FFA0C1F7FF57
:103ED000A1C1F8FF01019D07000E9E5BBFD7120034
:103EE000010E926E0E0EC16EC26A040EC06EC280CA
:103EF0001200D9CFE6FFE1CFD9FF020EE126DE6A3C
:103F0000DD6AC282C2B2FED7C450DE6EDD6ADECF89
:103F100012F0DDCF13F0D89012361336D890123647
:103F20001336060EC3CFE7FF070B04E0E742E79E18
:103F3000E806FCE1E7501224106E000E132010C0BA
:103F4000DEFFDD6EDECF61FFDDCF62FFDECF10F082
:103F5000DDCF11F010C0F3FF11C0F4FF020EE15CE1
:103F600002E2E16AE552E16EE552E7CFD9FF1200C5
:103F700006500B02F3CF02F0F4CF03F00C02F35023
:103F80000326000EF420046E06500D02F3500426A2
:103F9000000EF420056E06500E02F3500526075061
:103FA0000B02F3500326F4500422000E05220750A2
:103FB0000C02F3500426F450052207500D02F35072
:103FC000052608500B02F3500426F4500522085031
:103FD0000C02F350052609500B02F350052612007F
:103FE000056A046A036A026A200EE76ED8900636F4
:103FF00007360836093602360336043605360B50C6
:10400000025C0C5003580D5004580E50055809E33B
:104010000B50025E0C50035A0D50045A0E50055AB4
:08402000062AE72EE4D7120086
:08402800056A046A036A180E20
:10403000E76ED8900736083609360336043605365B
:104040000C50035C0D5004580E50055807E30C50FB
:10405000035E0D50045A0E50055A072AE72EEAD780
:0240600012004C
:0E406200CA94CA90CA829B0ECB6EBD98BD9ABE
:10407000BE6ABD9CBD9EBD90BD92BD84BD8694941C
:10408000CA841200D9CFE6FFE1CFD9FFFE0EDB5084
:0A409000BE6EE552E7CFD9FF120023
:06409A00056A046A100E25
:1040A000E76ED89008360936043605360D50045CA4
:1040B0000E50055805E30D50045E0E50055A082AAF
:0640C000E72EF0D712000C
:0A40C600800EF36E00EE00F00F0E06
:1040D00001D81200EA6002D0EE6AFCD7F350E96022
:0640E0001200EE6AFCD79D
:0A40E6001EEE00F02EEE00F0F86A66
:1040F000019C21EC1FF003EC00F00DEC1BF0FBD752
:024100001200AB
:0E410200056A080EE76ED890093605360E5095
:0E411000055C02E3056E092AE72EF7D71200C0
:02411E0001029C
:104120000408102040800000000000000000000093
:10413000000019031403000000000000000000004C
:07414000000000010203046E
:094147000000000000000000006F
:10415000000000000000000000000000000000015E
:074160000001000100010055
:0941670000000000000000050545
:0A4170000000000000000000000045
:06417A000103070F07031B
:10418000010010181C1E1C18100000040E1F0E0445
:1041900000000004081F080400001E1E1E1E1E1E34
:1041A0001E001F1F1F1F1F1F1F0000000000000018
:1041B00000000000000000000000000000000000FF
:1041C00000000000000000000000000000000000EF
:0B41D0000000000000000000000000E4
:0541DB00000000D0000F
:1041E0002222220725091000010000000000000023
:0641F000000000000000C9
:0A41F600010203043F065B4F666DF3
:0A4200007D077F6F0E0D0B07000015
:06420A00000000000000AE
:10421000000000000000000000000000000000009E
:10422000000000000000000000001020408001029B
:02423000040880
:020000040030CA
:0100010002FC
:0100020003FA
:010003001EDE
:010005008179
:010006008178
:010008000FE8
:01000900C036
:01000A000FE6
:01000B00E014
:01000C000FE4
:01000D0040B2
:00000001FF
