:020000040000FA
:0600000071EF0FF0120089
:020006001200E6
:06000800DFEF0BF0120017
:02000E000000F0
:020010000000EE
:06001800A1EF0BF0120045
:02001E000800D8
:10002000072000003E01000028000000EC1F000037
:10003000E50000001B0000000E000000AA01000007
:10004000040000008B1F0000000F00006100000092
:100050004D1F0000000100003E000000971B000043
:10006000AF010000010000003A1F000086010000FF
:10007000130000001A1F00006601000020000000AD
:1000800065EC04F08CDB11AE02D01268136831DB32
:1000900013E29ADB5ADB04E6050E105C000E1158E1
:1000A00006E2020EDB2A030EF5E3DB2AF3D7DF2A92
:1000B000010EE8E3DB2AE6D7040EE15C02E2E16A26
:1000C000E552E16ECCD265EC04F069DB11AE02D0F2
:1000D000126813680EDB13E277DB37DB04E6EE0E03
:1000E000105C000E115806E2020EDB2A030EF5E347
:1000F000DB2AF3D7DF2A010EE8E3DB2AE6D7040E7A
:10010000E15C02E2E16AE552E16EA9D2E4DBF00BC8
:100110007BDBFE0EDB38F00B811288DAA0D2D2DB5B
:10012000936A190E5FDB0F0E8116F80E81160F0E03
:100130008116300E69DB300E67DB300E65DB818A9D
:1001400075DA280EE66EE2DFE5520C0EE66EDEDFB3
:10015000E552E55284D2ACDB010EDB6A819459DBB7
:10016000E76E010EE7CFDBFF819653DBDF6E010EFA
:10017000DB50DF128196010E60DADF50106E020E46
:10018000E15C02E2E16AE552E16E105068D29ADB6E
:10019000DF6AE1DFDF6EDFBEFCD7DF50E5525FD202
:1001A0009ADB81128186050E48DA8196050E45DAC2
:1001B00056D250DA8194050E40DAA7DA50D24ADAE4
:1001C0008184050E3ADAA1DA819449D24AD349D31F
:1001D00041DAFD0EDBCFF6FFFE0EDBCFF7FF0800A6
:1001E000F5500DE0FD0EDBCFF6FFDB2AFE0EDBCF78
:1001F000F7FF01E3DB2A0800F5502ADBEAD72FD20C
:1002000061DBFD0EDB500F0B106EFE0EDB50010BA1
:10021000400DF3501024DF6E7F0EDF14800FDF6E71
:10022000DFCFE6FFC6DFE552E55219D2010EE66EDA
:10023000C0DFE552E66AE66A71EF04F00BDA050EFC
:10024000E126010EF36EDB6EBFDA040EDB6ADF6AB5
:10025000DFCF10F0116A10BE1168A8DA1150131820
:10026000E8AE02D0133404D01250105C1350115871
:100270001FE2FD0EDBCF10F0FE0EDBCF11F0126A95
:10028000136A11AE02D012681368D950010FE96EDB
:10029000DACFEAFF10C00BF011C00CF012C00DF065
:1002A00013C00EF0EADAB6EC0EF0F0DADF2AD0D79F
:1002B000010EDBCF10F0020EDBCF11F0030EDBCF0F
:1002C00012F0040EDBCF13F010C006F011C007F0DF
:1002D00012C008F013C009F0050EE15C02E2E16A09
:1002E000E552E16EBCD1E4DAFB0EDBCF10F0FC0E80
:1002F000DBCF11F0FD0EDBCF12F0FE0EDBCF13F0E3
:10030000105011101210131003E1300EA1DA36D084
:10031000D950FB0F23DA01E627DA05E22D0E98DA31
:10032000D950FB0FD9D9DE52070EDD6E46DAE8AEA2
:1003300002D0103403D0E750D88010541FE226DAE0
:1003400014BE156880D945DA6DDA17DA0BE0010EB4
:10035000DF6EDB04186E196A18BE196892D962DA6A
:10036000AED903D0DF5002E0300E72DA0FDA14BEDD
:10037000156869D9D950FB0F7BD9D8D7020EE15C3B
:1003800002E2E16AE552E16E6AD164D9D6D9D95068
:10039000F90F62DAEECFE6FFEECFE6FFEECFE6FF33
:1003A000EFCFE6FFA0DFE552E552E552E55257D127
:1003B00051D9C3D9FB0EDBCFE6FFFC0EDBCFE6FF46
:1003C00007DFE552E5524BD145D97BCF10F07CCF0A
:1003D00011F0040ED89010361136E806FBE1A1D9D1
:1003E000FE0EDBCFEFFF7D2B000E7E2338D16ADAC5
:1003F000DF6ADFCF10F0100EE76E1018E8AE02D003
:10040000E73402D0E750105C18E2DFCFE9FFEA6A78
:10041000E9BEEA68410EE9260F0EEA22200EEF6ED1
:10042000DFCFE9FFEA6AE9BEEA68510EE9260F0E5E
:10043000EA22200EEF6EDF2ADCD7E55210D142DA35
:100440000F014051030A29E0010A1CE0030A0CE0F5
:10045000010A32E14ADA080EDF5C03E2DF50C8D954
:10046000FAD70F01010E17D0080EE66EE66A18D90A
:10047000080EDF5C04E2080EDF24BAD9F9D70F01B9
:10048000020E09D01ADA080EDF5C03E2DF50B6D99B
:10049000FAD70F01030E406F10D0080EE66E010E62
:1004A000E66EFED8080EDF5C04E2080EDF24A6D953
:1004B000F9D70F01406B01D0406BE552D0D002DA82
:1004C0000F014051010A0DE0010A15E10EDA100E8C
:1004D000DF5C03E2DF508CD9FAD70F01010E406FC9
:1004E0000BD0EBD9100EDF5C03E2DF5087D9FAD7CF
:1004F0000F01406B01D0406BE552B1D0E3D9F5D983
:10050000100EDF5C03E2DF5073D9FAD7D6D9100E94
:10051000DF5C03E2DF5072D9FAD7E552A0D09AD857
:10052000C2D8FC0EDB500A0802E1610E05D0FC0EB9
:10053000DB500D0805E1640EF36EFC0EF3CFDBFF1C
:100540007BCF10F07CCF11F0040ED890103611360E
:10055000E806FBE1E6D8FC0EDBCFEFFF80D0A8D9A0
:10056000A2D8F90EDBCF10F0FA0EDBCF11F01ED9B6
:10057000105011101210131003E1300E0CD936D0A8
:10058000D950F90FEBD801E6EFD805E22D0E03D9CB
:10059000D950F90FA1D8DE52070EDD6E0ED9E8AEA4
:1005A00002D0103403D0E750D88010541FE2EED8A8
:1005B00014BE156848D80DD940D9DFD80BE0010E1C
:1005C000DF6EDB04186E196A18BE19685AD835D95F
:1005D00076D803D0DF5002E0300EDDD8D7D814BE75
:1005E000156831D8D950F90F43D8D8D7020EE15C3D
:1005F00002E2E16AE552E16E32D02CD854D8FB0E0B
:10060000DBCFF6FFFC0EDBCFF7FF0800F5500DE067
:10061000FB0EDBCFF6FFDB2AFC0EDBCFF7FF01E39F
:10062000DB2A0800F550B7D8EAD719D08186010E29
:10063000D9D88196010EF2EF03F0E66EE66AE66A1B
:10064000E66A1EDD56D114C0E6FF15C0E6FF10D9DC
:100650004FEF04F0D9CFE6FFE1CFD9FF1200E5520A
:10066000E7CFD9FF1200EA22EF50F2D8DF2A1200BA
:10067000F3D8AFD802D9EEEC0EF008D9010EDB06A4
:10068000120018C0E6FF19C0E6FFF2D806C014F049
:1006900007C015F008C016F009C017F0E9EF03F025
:1006A00020D9DF6A1200FE0EDB50010B0F017B6FB9
:1006B0007C6BFD0EDB500F0B7D6F7E6B1200DBCF72
:1006C00009F0EEEC0EF0EBD8300E1026000E1122E1
:1006D0001222132210501200BFD8000EEE6CEF1E33
:1006E000EE22EF1EEE22EF1EEF22ED52ED52ED5202
:1006F0001200D950FB0FB0D8EE50105CEE501158DC
:10070000EE501258EE5013581200FE0EDBCFE6FFEB
:1007100047DDE552FE0EDB38F00BE66E41DDE552BB
:100720001200410E10260F0E112210500F017D25D0
:10073000E96E11507E21EA6E1200FD0EDBCFE6FF5E
:10074000FE0EDBCFE6FF71EF04F0020EDBCF10F000
:10075000030EDBCF11F0D890115012007DD8D89045
:10076000030EEB50000A1200000EEE5C000EEE5875
:10077000000EEE58000EEE581200DBCF09F0EEEC42
:100780000EF006500710081009101200010EDB04CD
:10079000146E156A1200E66E17DEE5521200DECF07
:1007A00010F0DDCF11F0126A136A1200FB0EDBCFDE
:1007B00012F0FC0EDBCF13F01200010EDBCF10F0B5
:1007C000000EE76E10181200020EDB6A030EDB6AE1
:1007D000120006C00BF007C00CF008C00DF009C0F5
:1007E0000EF01200E66EE66AE66AE66A6CDC81D01C
:1007F000EA6A410FE96E0F0E33EF03F0EA6A510F18
:10080000E96E0F0E33EF03F0811210DF0F0E811629
:1008100012000F0E12DF0F0E811281860EDF0F0EF7
:1008200081141200FB0EDBCF06F0FC0EDBCF07F0CD
:10083000FD0EDBCF08F0FE0E1200F90EDBCF06F046
:10084000FA0EDBCF07F0FB0EDBCF08F0FC0E120038
:10085000E66EBDDCE5521200E96EFF0EDA20EA6EAC
:100860001200F8DEFE0EDBCFE6FFA9DCE552F7D67C
:100870000A0EE66EE66AE2DC3CD0EECF06F0EECF82
:1008800007F0EECF08F0EFCF09F0120005C0EDFF42
:1008900004C0EDFF03C0EDFF02C0EFFF120006C071
:1008A00010F007C011F008C012F009C013F01200D8
:1008B000D1DE020EE126DF6A1200E66A010EE66E64
:1008C00050EF03F0C7DEE6521200C4DE040EE1264C
:1008D000DE6ADD6A1200BEDE0F0E8116FE0EDB50F0
:1008E00012008EDCE552E5521200E66AE66A50EF2D
:0C08F00003F0E552E552E552E55212001B
:0408FC00C1DA63D822
:10090000E80EE66E030EE66E25D8E552E5520101CB
:100910007151FDE0716B96EC07F0A3DA010E102621
:10092000000E1122140E0D6E0E6A10C008F011C0D8
:1009300009F04BEC0FF004C010F005C011F004C03A
:10094000DEFF05C0DDFF33EC0DF01CDABBD97EEC19
:1009500002F0DDD759DA040EE126DE6ADD6A81DABB
:100960006ADA11501318E8AE02D0133404D01250D2
:10097000105C135011581DE2020EDB6A030EDB6A95
:10098000020EDBCF10F0030EDBCF11F0D890115028
:1009900004E6EE0E105C000E115806E2020EDB2A91
:1009A000030EEEE3DB2AECD7DF2A010ED8E3DB2AC5
:1009B000D6D7040EE15C02E2E16AE552E16E31D283
:1009C000956A836A1200FCDF8FEC00F06EEC07F092
:1009D00099EC0BF043EC09F057EC0CF016EC01F03D
:1009E000F7EC01F016DA570EE66E120EE66E67ECC3
:1009F0000AF0E552E552660EE66EB70EE66EACEC16
:100A00000AF0E552E552020EE66EE66A05EC0BF0DE
:100A1000E552E552320EE66EE66A2AEC0BF0E5523C
:100A2000E552120026DA0CE106DA133404E2125021
:100A30000708000E135404E3F8D9EF508310836EB7
:100A4000F0D117DA0CE1F7D9133404E21250070899
:100A5000000E135404E3E9D9EF1C8314836EE1D133
:100A6000D3D9CCD9EF0405E1F5D925DAC7D9EF6A96
:100A700005D0F0D924DAC2D9010EEF6ED2D100DA56
:100A8000F0D9D890115004E60E0E105C000E1158EB
:100A900011E2DECFE6FFDDCFE6FF11DABAD9DECF15
:100AA000E6FFDDCFE6FF07DAB4D9DF2A010EE8E37F
:100AB000DB2AE6D7020EE15C02E2E16AE552E16E72
:100AC000B0D101013451040A5CE0070A4FE0010A89
:100AD00042E0030A16E0FE0A01E01200720EE66E22
:100AE0001B0E88D9610EE66E1B0EE66EE66ABED955
:100AF000CFD8C4D8000950E00101356B366B010E28
:100B000033D0500EE66E1B0E75D90101362B93D8EB
:100B1000000912E04E0EE66E1B0EE66E35C1E6FFD2
:100B2000A5D901013551EA6AA30FE96E010EEA2247
:100B3000A7C1EFFF352B366B040E0101355D02E3D3
:100B4000020E346F640E365D01E3346997D80009F4
:100B500023E001011FD0366B20D8000903E001011A
:100B6000030E02D00101040E346F1200362B3D0E2D
:100B7000E66E1B0E3FD98AD8640E0101365D0CE388
:100B800009D0362B2C0EE66E1B0E34D9280E01012F
:100B9000365D02E334691200120036D9040EE126F4
:100BA00051D9DF6A050EDF5C3DE24CD9010EDB6AEC
:100BB000040EF36E010EDBCFF4FFF350F45C24E27D
:100BC000010EDB50EA6AA30FE96E010EEA22EFCFB5
:100BD00010F0DF50040DF3CF11F0F4CF12F0200E1F
:100BE0001126010E1222010EDB501124E96E000EB7
:100BF0001220EA6EEF50105C04E0020EDB6A030E76
:100C0000DB6A010EDB2AD4D7D950020FE96EDACFA6
:100C1000EAFF010EEE1804E1ED5002E1DF2802D0F8
:100C2000DF2AC0D7106E040EE15C02E2E16AE552F1
:100C3000E16E1050F6D0E8D8E652DF6ADF500F08B8
:100C40001AE3EA6ADF34FE0BEA36E96E3E0EE92665
:100C5000010EEA220A0EEE180CE1ED500AE1DF5017
:100C6000EA6A100FE96E010EEA22EFCFA7F1010E3A
:100C700003D0DF2AE3D7000EE552D3D001010A0EDC
:100C80005A1903E15B5101E1010C000C000EAAD0DE
:100C9000000EACD0000EA6D0000EA8D0040EA2D03C
:100CA000040EA4D0060E9ED0060EA0D0010E9AD03F
:100CB000010E9CD0050E96D0050E98D0070E92D04E
:100CC000070E94D001013D29106E140E116E0E6EA8
:100CD00010C009F07FEC0FF005C03DF10101055097
:100CE00001E13C073751040A3DE0070A2FE0010A01
:100CF0001FE0030A10E0010A43E1CCDFD5DFDEDFAD
:100D00001B0EE66E1B0E5BD83CE1010E376FC4DF95
:100D100039C13CF11200C2DFD1DF0A0EE66E1B0EB4
:100D20004ED82FE1020E376FBBDF3AC13CF1120003
:100D3000BDDFC6DFB7DFF90EE66E1A0E40D821E13F
:100D4000030E376FB5DF3BC13CF11200B3DFAADF02
:100D5000E80EE66E1A0E33D814E1376BADDF38C1FA
:100D60003CF1120099DFA4DF9FDFAADF01013D51B2
:100D70000C0803E393DF5AEF06F092DF5CEF06F016
:100D8000376B1200010189050CE1896B000181516B
:100D900008E182C038F183C039F184C03AF185C0DE
:100DA0003BF1040E01018825106E116A126A136A64
:100DB000E66E6CD80F0EE66EE66A4DEF07F0E66E53
:100DC000E66A54D83CC110F0116A126A136A3CC139
:100DD000E6FF5CD80E0EE66E010EE66E5ED80101EF
:100DE0003C511200E66EE66A5FEF07F0E66EE66AD7
:100DF0005BEF07F0E66EE66AE66A65D055D8080E46
:100E0000E926010EEA221200D9CFE6FFE1CFD9FF91
:100E10001200F40EE66E010EE66E9CDDE552E55220
:100E20001200E552E7CFD9FF12003ED8000EE926A6
:100E3000010EEA221200FD0EDBCF12F0FE0EDBCF18
:100E400013F01200010EF36E020EF3CFDBFF030E60
:100E5000DB6A1200FD0EDBCFE6FFFE0EDBCFE6FF06
:100E60001200DECF10F0DDCF11F01200010EE66EA1
:100E70002AD0CADFFE0EDBCF11F0800E1114120053
:100E8000C3DF020EE126DE6ADD6A120011C0E6FF52
:100E900012C0E6FF13C0E6FF1200AFEC02F0146EC2
:100EA000060EE15E14501200FD0EDBCFE9FFFE0ED0
:100EB000DBCFEAFF1200C5DDE552E5521200B2DDDC
:100EC000E552E5521200FDEC02F0E552E552E55222
:040ED000E5521200D5
:0C0ED4000F0E946E82681200070E94103E
:100EE000946EDF0E9414946E826812003ED968D915
:100EF00001E661D915E24BD9826E58D93FD901E696
:100F00005AD909E225D902E16CD901D083D965D932
:100F1000F5E3DB2AF3D7DF2A010EE9E3DB2AE7D783
:100F2000040EE15C02E2E16AE5523BD11ED948D9E8
:100F300004E6020E105C000E115813E26FD91ED9A0
:100F400001E639D909E204D902E14BD901D062D9CD
:100F500044D9F5E3DB2AF3D7DF2A010EE8E3DB2AE5
:100F6000E6D7040EE15C02E2E16AE5521AD1FDD84F
:100F70001DD901015E1D8214826E18D9FFD801E6C9
:100F80001AD909E2E5D802E12CD901D043D925D9F3
:100F9000F5E3DB2AF3D7040EE15C02E2E16AE552F5
:100FA00000D1E3D803D9010EDE6EDD6A37D9E6D869
:100FB00004E6030E105C000E115809E2C9D802E1E4
:100FC00010D901D027D909D9F2E3DB2AF0D7040ED2
:100FD000E15C02E2E16AE552E4D0C7D824D9FD0E13
:100FE000DBCF12F0FE0EDBCF13F011501318E8AE7A
:100FF00002D0133404D01250105C1350115811E277
:10100000D5D8BCD804E6EE0E105C000E115804E2F0
:10101000E4D8F7E3DB2AF5D7DF2A010EDFE3DB2A8A
:10102000DDD7040EE15C02E2E16AE552BAD09DD858
:10103000C7D801E6C0D820E2AAD8826EB7D89ED819
:1010400001E6B9D80BE2E6D883D804E171D8010EE5
:10105000EE6EED6AC2D8F3E3DB2AF1D78250816EDF
:10106000E80EE66E030EE66EB8DFE552E552DF2AC3
:10107000010EDEE3DB2ADCD7040EE15C02E2E16A6A
:10108000E5528FD0D9CFE6FF040EE12684B005D01B
:1010900001013E2B000E3F2303D001013E6B3F6B4D
:1010A00084B204D0402B000E412302D0406B416B30
:1010B00084B404D0422B000E432302D0426B436B16
:1010C00082B004D0442B000E452302D0446B456B04
:1010D00082B204D0462B000E472302D0466B476BEA
:1010E00082B404D0482B000E492302D0486B496BD0
:1010F00082BA04D04A2B000E4B2302D04A6B4B6BB2
:1011000081B004D04C2B000E4D2302D04C6B4D6BA4
:10111000040EE15C02E2E16AE55243D0070E96104C
:10112000966E270E9410946E010E9310936E12001B
:101130007AD8D89010361136D89010361136020E63
:10114000DB501024E96E030EDB50112018EF09F07C
:10115000020EDBCFE9FF030EDBCFEAFF620EE926CA
:10116000010EEA22EF5082141200D9CFE6FFE1CF40
:10117000D9FF040EE126DE6ADD6A1200020EDBCF23
:1011800010F0030EDBCF11F0D89011501200DECF1B
:10119000E9FFDDCFEAFF5E0EE926010EEA22EF1C31
:1011A0001200E16EE552E7CFD9FF1200020EDB6AB2
:1011B000030EDB6A1200040E105C000E11581200C0
:1011C00032D8D89011501200D8901436153612002B
:1011D00012C0EEFF13C0EDFF1200020EDB2A030E59
:1011E0001200DECF14F0DDCF15F0EEDFEDDF020EE2
:1011F000DB501424E96E030EDB50152019D8EECF16
:1012000012F0EFCF13F0010E1226000E132290DF22
:10121000E8EF08F08DDFEE6AED6A1200B8DF8214A5
:10122000826ED6EF08F0DECF10F0DDCF11F01200A5
:10123000EA6ED890E936EA363E0EE926010EEA2239
:0212400012009A
:0E1242000AD9020EE126FE0EDB500F0BDF6E06
:10125000FE0EDB380F0B0A0D14D902E2E16AE552EB
:10126000E16E1050FED0F8D8020EE12613D90550D9
:10127000DF6E10D90950100D04D902E2E16AE5527F
:10128000E16E1050EED094869488C79EC79CC6909D
:10129000C692C694C686310EC86EC68A12000ED992
:1012A000D00FC96E9EA6FED7DCD008D9A00FC96E9C
:1012B0009EA6FED7D6D09E96C5809EA6FED71200CB
:1012C0009E96C5849EA6FED71200F8D8C96E9EA62B
:1012D000FED7C7D09E96C5869EA6FED7C9501200DF
:1012E0009E96C59AC5889EA6FED712009E96C58A70
:1012F000C5889EA6FED71200AFD8D4D8010EAE6F17
:10130000E85004E0C550400BFAE0F8D7FE0EA0D834
:10131000010EAE6FE85004E0C550400BFAE0F8D77C
:10132000FD0EDBCFE6FF9FDFE552E66ECCD8010E67
:10133000AE6FE85004E0C550400BFAE0F8D7C0DFCC
:1013400090D08AD8B5D8010EAE6FE85004E0C550F1
:10135000400BFAE0F8D7FE0E7BD8010EAE6FE850D6
:1013600004E0C550400BFAE0F8D77FD8010EAE6F0D
:10137000E85004E0C550400BFAE0F8D7FC0E68D8FE
:10138000010EAE6FE85004E0C550400BFAE0F8D70C
:1013900097DF67D061D8E65285D8010EAE6FE8506E
:1013A00004E0C550400BFAE0F8D7FE0E51D8010E0C
:1013B000AE6FE85004E0C550400BFAE0F8D77BDF91
:1013C000010EE66E6CDFE5520101010EAE6FE850D2
:1013D00004E0C550400BFAE0F8D77CDFDF6EDFCFCA
:1013E000E6FF2FDFE552DF6EDF50E5523AD034D80A
:1013F000E6525ED8010EAE6FE85004E0C550400BD7
:10140000FAE0F8D7FE0E24D8010EAE6FE85004E0E3
:10141000C550400BFAE0F8D728D8010EAE6FE8505F
:1014200004E0C550400BFAE0F8D745DF010EE66E48
:101430003CDFE5520101010EAE6FE85004E0C550FB
:10144000400BFAE0F8D746DFDF6EDF50E55209D0F7
:10145000DBCFE6FF63EF0AF0D9CFE6FFE1CFD9FF9C
:101460001200E552E7CFD9FF1200FD0EDBCF10F0DE
:10147000FE0EDBCF11F00001116A1050E66E63EF33
:101480000AF0010EF3CFDBFFDB50DF24106E020EFB
:10149000E15C12000A0E106E0E6EFE0EDBCF09F03C
:1014A0007FEF0FF008DFE66AFADEE5520101120075
:1014B00002DFE66AFADEE55201011200CDDF9E96F8
:0E14C000FE0EDB50120001DFE55201011200AA
:0214CE00F1D853
:1014D000D59EFD0EDBCF66F1FE0EDBCF67F1D59C0E
:1014E00005D9D59AD586F28AF294F184D58EE6D0C4
:1014F000D59E1200FBD8D58E1200DBD8CD90FD0E04
:10150000DBCF68F1FE0EDBCF69F1F7D89D809E90AE
:101510009F90CD8ECD8CCD98CD9ACD96CD92CD800D
:10152000CDD0EBD8CD801200CD901200C2D8CA9495
:10153000CC6AFE0EDB5001016A6F6B6BCB6E9D8235
:101540009E929F92CA90CA92CA84B8D06AC1CBFFB9
:10155000CA841200CA941200ACD8B190FD0EDBCF41
:101560006CF1FE0EDBCF6DF1CFD80750B36ECCD847
:10157000B5D8B26EA082A192A292B18EB198B19A62
:10158000B192B1809BD0C0D80350B26EBDD89ED866
:10159000B36EB1801200B19012000101762B000EE3
:1015A00077237E51765D7F51775904E3766B776BB5
:1015B000010E6E6F12000101782B000E792380510D
:1015C000785D8151795904E3786B796B010E6F6F07
:1015D000120001017A2B000E7B2382517A5D835128
:1015E0007B5904E37A6B7B6B010E706F1200010173
:1015F0007C2B000E7D2384517C5D85517D5904E355
:101600007C6B7D6B010E716F120053D8FD0EDBCF2A
:101610007EF1FE0EDBCF7FF10101766B776B6E6B97
:101620004DD047D8FD0EDBCF80F1FE0EDBCF81F130
:10163000050E0D6E0E6A80C108F081C109F0CCEC78
:101640000DF008C080F109C081F10101786B796B60
:101650006F6B34D02ED8FD0EDBCF84F1FE0EDBCFC6
:1016600085F10A0E0D6E0E6A84C108F085C109F07D
:10167000CCEC0DF008C084F109C085F101017C6B50
:101680007D6B716B1BD0186A1650135C106E17506F
:101690001458116E18501558126E0C6A010E0D6E0A
:1016A0000E6A10C007F011C008F012C009F0F2EF86
:1016B0000DF0D9CFE6FFE1CFD9FF1200E552E7CF19
:1016C000D9FF120013681468156A120007C010F0E1
:1016D00008C011F009C012F00750120003C010F04A
:1016E00004C011F005C012F00350120014D80350CA
:1016F000D66E11D8EBDFD76E120014D80750CF6E1C
:1017000011D8ECDFCE6E1200DDDF6CC116F06DC1BA
:1017100017F043EF0BF0D6DF66C116F067C117F084
:1017200043EF0BF0CFDF68C116F069C117F043EF4C
:021730000BF0BC
:0E173200F28ED08EF28C1200F19CF292F288B0
:101740001200D8CFE4FFE0CFE4FFE46E6CD800EEE7
:1017500000F0100EE80403E3EECFE4FFFBD700EE49
:1017600010F00A0EE80403E3EECFE4FFFBD7E652E5
:10177000F2B481D89EB086D89EB28BD8A1B290D850
:10178000F2B2F2929EAA03D09E9ACCEC0CF0E552F3
:1017900000EE19F00A0EE80403E3E5CFEDFFFBD7F6
:1017A00000EE0FF0100EE80403E3E5CFEDFFFBD7EA
:1017B0004FD8E550E5CFE0FFE5CFD8FF100033D894
:1017C00000EE00F0100EE80403E3EECFE4FFFBD7D9
:1017D00000EE10F00A0EE80403E3EECFE4FFFBD7BF
:1017E000E652F2B448D89EB04DD89EB252D8A1B2BB
:1017F00057D8F2B2F2929EAA03D09E9ACCEC0CF08B
:10180000E55200EE19F00A0EE80403E3E5CFEDFF20
:10181000FBD700EE0FF0100EE80403E3E5CFEDFF79
:10182000FBD716D81100DACFE4FFE2CFDAFFE9CF19
:10183000E4FFEACFE4FFF6CFE4FFF7CFE4FFF5CF14
:10184000E4FFF3CFE4FFF4CFE4FFFACFE4FF1200AC
:10185000E5CFFAFFE5CFF4FFE5CFF3FFE5CFF5FFE6
:10186000E5CFF7FFE5CFF6FFE5CFEAFFE5CFE9FFEC
:10187000E5CFDAFF120078EC0AF0F2947AEC0AF085
:10188000CDEF0AF094EC0AF09E9091EC0AF0DBEFB9
:101890000AF0AAEC0AF09E92A6EC0AF0E9EF0AF030
:0E18A000CBEC0AF0A192C3EC0AF0F7EF0AF0CD
:0218AE00B06A1E
:1018B000810EAF6EAC8AAC94B886AC98AB8EAB8818
:1018C0009E9A9D8A9F9A949C948E120070D8040EC2
:1018D000E126DE6ADD6ADECF10F0DDCF11F0FD0E0D
:1018E000DBCF12F0FE0EDBCF13F011501318E8AE71
:1018F00002D0133404D01250105C135011581DE262
:10190000020EDB6A030EDB6A020EDBCF10F0030E61
:10191000DBCF11F0D890115004E6EE0E105C000EF3
:10192000115806E2020EDB2A030EEEE3DB2AECD7A7
:10193000DF2A010ED0E3DB2ACED7040EE15C02E2FF
:10194000E16AE552E16E38D032D89EA8FED7FE0E8D
:10195000DB50AD6E9E9830D02AD832D80AE030D80D
:10196000E66EF2DFE552FD0EDB2AFE0EF6E3DB2A21
:10197000F4D722D01CD812D80EE010D8E66EE4DFDF
:10198000E552FD0EDBCFF6FFDB2AFE0EDBCFF7FFC5
:10199000F2E3DB2AF0D710D0E8EF0CF0FD0EDBCF3E
:1019A000F6FFFE0EDBCFF7FF0800F5501200D9CF8F
:1019B000E6FFE1CFD9FF1200E552E7CFD9FF1200D1
:1019C000FD0EDBCFE9FFFE0EDBCFEAFFEF5012008A
:1019D000D9CFE6FFE1CFD9FFE652AE50DF6EDFCFC1
:1019E000E6FFA4EC0CF0E55201018851050A2AE05B
:1019F000010A21E0070A11E0010A0AE0020A02E0F6
:101A0000010A2AE1FF0EDF5C28E18B6B020E22D077
:101A1000FF0EDF5C15E1030E1DD08B51EA6A810FCA
:101A2000E96E000EEA22DFCFEFFF8B2B8D518B5D2D
:101A300014E3040E0FD0FE0EDF5C02E1050E0AD0A7
:101A4000010E08D0FE0EDF5C04E1010E896F886B89
:101A500004D0010E886F01D0886BE552E552E7CFC4
:101A6000D9FF120012000101890535E1860EE66EEC
:101A70001B0EE66EE66A30D80001806B01018D51C5
:101A80000001805D21E28051EA6A810FE96E000E5B
:101A9000EA22EFCF10F0116A126A136A10C0E6FF53
:101AA00011C0E6FF12C0E6FF13C0E6FF030E80037D
:101AB000F350E66EE66AAFEC02F0146E060EE15EDD
:101AC00014500001802BDAD7830EE66E1B0EE66EF3
:101AD0000E0EE66E01D81200E66AFDEC02F0E55249
:081AE000E552E552E552120047
:081AE8005048415345325F599B
:101AF000454C4C4F573A2020005048415345325FE7
:101B0000475245454E3A2020200050484153453128
:101B10005F59454C4C4F573A20200050484153459F
:101B2000315F475245454E3A2020200050415353E3
:101B3000574F52442057524F4E472020004F504598
:101B40004E494E4720444F4F5220202020002A006B
:101B5000454E5445522050415353574F5244202034
:101B60000020202020202020202020202020202095
:101B700020005052455353202320464F52205041BD
:101B80005353004F4B0020202020202020202020D5
:071B9000202020202020008E
:011B9700004D
:081B9800006A0EAED5EF0DF05E
:101BA0000D6C0E1EE86A0E22001E09AEDDEF0DF070
:101BB000086C091EE86A0922001E4BEC0FF009BEF2
:101BC000EDEF0DF000AE000C086C091EE86A09226A
:101BD000046C051EE86A0522000C00BEE4EF0DF05F
:101BE0000188FF0C006A0EAEFDEF0DF00C6C0D1EAF
:101BF0000E1EE86A0D220E22001E09AE07EF0EF03F
:101C0000076C081E091EE86A08220922001E12EC51
:101C10000FF009BE1AEF0EF000AE000C076C081EA4
:101C2000091EE86A08220922036C041E051E04220C
:0E1C30000522000C00BE0EEF0EF00188FF0C26
:021C3E001E0E78
:101C4000F66E000EF76E000EF86E01010900F550F9
:101C50009E6F0900F5509F6F03E19E6701D03DD054
:101C60000900F550996F0900F5509A6F0900F55079
:101C70009B6F09000900F550E96E0900F550EA6E06
:101C8000090009000900F5509C6F0900F5509D6F8F
:101C900009000900F6CFA0F1F7CFA1F1F8CFA2F12A
:101CA00099C1F6FF9AC1F7FF9BC1F8FF01019C5350
:101CB00002E19D5307E00900F550EE6E9C07F8E243
:101CC0009D07F9D7A0C1F6FFA1C1F7FFA2C1F8FF98
:0C1CD00001019E07000E9F5BBFD71200B1
:041CDC00010E926EF5
:101CE0000E0EC16EC26A040EC06EC2801200D9CF41
:101CF000E6FFE1CFD9FF020EE126DE6ADD6AC2828D
:101D0000C2B2FED7C450DE6EDD6ADECF12F0DDCF88
:101D100013F0D89012361336D89012361336060EBA
:101D2000C3CFE7FF070B04E0E742E79EE806FCE1CC
:101D3000E7501224106E000E132010C0DEFFDD6E7F
:101D4000DECF61FFDDCF62FFDECF10F0DDCF11F01F
:101D500010C0F3FF11C0F4FF020EE15C02E2E16A81
:0C1D6000E552E16EE552E7CFD9FF12001A
:041D6C0006500B0210
:101D7000F3CF02F0F4CF03F00C02F3500326000E71
:101D8000F420046E06500D02F3500426000EF420D9
:101D9000056E06500E02F350052607500B02F35055
:101DA0000326F4500422000E052207500C02F350C3
:101DB0000426F450052207500D02F3500526085062
:101DC0000B02F3500426F450052208500C02F35085
:0C1DD000052609500B02F35005261200F6
:041DDC00056A046A26
:101DE000036A026A200EE76ED89006360736083678
:101DF000093602360336043605360B50025C0C50A9
:101E000003580D5004580E50055809E30B50025E5C
:101E10000C50035A0D50045A0E50055A062AE72E4C
:041E2000E4D71200F1
:0C1E2400056A046A036A180EE76ED89085
:101E30000736083609360336043605360C50035C7F
:101E40000D5004580E50055807E30C50035E0D501A
:0E1E5000045A0E50055A072AE72EEAD7120050
:021E5E00CA9424
:101E6000CA90CA829B0ECB6EBD98BD9ABE6ABD9CBD
:101E7000BD9EBD90BD92BD84BD869494CA8412005F
:101E8000D9CFE6FFE1CFD9FFFE0EDB50BE6EE552A3
:061E9000E7CFD9FF1200AC
:0A1E9600056A046A100EE76ED8908A
:101EA00008360936043605360D50045C0E500558C8
:101EB00005E30D50045E0E50055A082AE72EF0D7B0
:021EC00012000E
:0E1EC200800EF36E00EE00F00F0E01D812003D
:101ED000EA6002D0EE6AFCD7F350E9601200EE6AC5
:021EE000FCD72D
:0E1EE2001EEE00F02EEE00F0F86A019C1FECE0
:0E1EF0000EF003EC00F07EEC04F0FBD71200C5
:021EFE00056A73
:101F0000080EE76ED890093605360E50055C02E3E0
:0A1F1000056E092AE72EF7D712002C
:061F1A00000000000000C1
:101F200000000000000000000000000000000000B1
:0A1F300000000100010001000100A3
:061F3A00000000000000A1
:0D1F4000000505000000000000000000008A
:031F4D000102048A
:101F50000810204080000000000000000001020383
:101F60004104050642070809432A004544010203CB
:101F70000402070809030303030408060805414295
:0B1F800043FF0000FF190314030000E2
:051F8B00000000000051
:101F90000000001010101010101010181818181849
:101FA0001818181C1C1C1C1C1C1C1C1E1E1E1E1E73
:101FB0001E1E1E1F1F1F1F1F1F1F1F0000000000CF
:101FC0000000000000000000000000000000000011
:101FD0000000000000000000000000000000000001
:0C1FE000000000000000000000000000F5
:041FEC00000000D021
:101FF0000022222207250910000100000000000035
:0720000000000000000000D9
:09200700000000000000000000D0
:1020100000000000000000000000000000000000C0
:0F202000000000000000001020408001020408B2
:020000040030CA
:0100010002FC
:0100020003FA
:010003001EDE
:010005008179
:010006008178
:010008000FE8
:01000900C036
:01000A000FE6
:01000B00E014
:01000C000FE4
:01000D0040B2
:00000001FF
