:020000040000FA
:0600000081EF18F0120070
:020006001200E6
:0600080096EF16F0120055
:02000E000000F0
:020010000000EE
:0600180024EF16F01200B7
:02001E000600DA
:10002000EA310000000F000028000000CE3100007F
:10003000E10000001C0000000E000000690F00003D
:10004000040000006D31000080000000610000002D
:100050005A310000480F0000130000003A31000040
:08006000280F00002000000041
:08006800D9CFE6FFE1CFD9FF7B
:10007000020EE126DE6ADD6A86D87AEC0DF008D938
:10008000E80EE66E030EE66E3AD8E552E552B70E7C
:10009000E66E2F0EE66E060EE66EE66A3DEC0DF09D
:1000A000E552E552E552E55220D90F013351FDE00A
:1000B000336BB4EC12F0DECF10F0DDCF11F0010E97
:1000C0001026000E1122D00E0D6E070E0E6E10C0FF
:1000D00008F011C009F05BEC18F004C010F005C086
:1000E00011F004C0DEFF05C0DDFFE6D92DEC05F000
:1000F00035EC07F0BDEC08F068EC0EF0D6D7D9CFA0
:10010000E6FFE1CFD9FF040EE126DE6ADD6ADECF2D
:1001100010F0DDCF11F0FD0EDBCF12F0FE0EDBCFC5
:1001200013F011501318E8AE02D0133404D012505B
:10013000105C135011581DE2020EDB6A030EDB6ADD
:10014000020EDBCF10F0030EDBCF11F0D890115070
:1001500004E6EE0E105C000E115806E2020EDB2AD9
:10016000030EEEE3DB2AECD7DF2A010ED0E3DB2A15
:10017000CED7040EE15C02E2E16AE552E16EE5529F
:10018000E7CFD9FF1200936A956ADAEC09F01CEC0C
:1001900016F0E80EE66E030EE66EB1DFE552E552AC
:1001A000570EE66E120EE66E1AEC10F0E552E552AE
:1001B000AE0EE66E240EE66EBCEC10F0E552E55293
:1001C000660EE66EB70EE66E7DEC11F0E552E55276
:1001D000020EE66EE66A58EC12F0E552E5520A0E9F
:1001E000E66EE66A6AEC12F0E552E552320EE66E11
:1001F000E66A89EC12F0E552E552A8EC12F028EF1D
:1002000015F00F01370E486F3B0E496F170E4A6FFE
:10021000070E4B6F1F0E4C6F0C0E4D6F0D0E4E6F79
:1002200048CFE6FFE66AFEEC15F0E552E55249CF0D
:10023000E6FF010EE66EFEEC15F0E552E5524ACF00
:10024000E6FF020EE66EFEEC15F0E552E5524BCFEE
:10025000E6FF030EE66EFEEC15F0E552E5524CCFDC
:10026000E6FF040EE66EFEEC15F0E552E5524DCFCA
:10027000E6FF050EE66EFEEC15F0E552E5524ECFB8
:10028000E6FF060EE66EFEEC15F0E552E5521200B2
:10029000200EE66E0FEC16F0E552220825E0B1DFE5
:1002A000E66A100EE66EFEEC15F0E552E552E66ADF
:1002B000110EE66EFEEC15F0E552E552E66A120EFE
:1002C000E66EFEEC15F0E552E552E66A130EE66EB8
:1002D000FEEC15F0E552E552220EE66E200EE66EBB
:1002E000FEEC15F0E552E5521200100EE66E0FEC32
:1002F00016F0E5520F01526F110EE66E0FEC16F07C
:10030000E5520F01536F120EE66E0FEC16F0E55238
:100310000F01546F130EE66E0FEC16F0E5520F014D
:10032000586F1200E66A0FEC16F0E5520F01486FA5
:10033000010EE66E0FEC16F0E5520F01496F020E4A
:10034000E66E0FEC16F0E5520F014A6F030EE66EF3
:100350000FEC16F0E5520F014B6F040EE66E0FEC3A
:1003600016F0E5520F014C6F050EE66E0FEC16F01D
:10037000E5520F014D6F060EE66E0FEC16F0E552DA
:100380000F014E6F106E116A126A136AE66E11C089
:10039000E6FF12C0E6FF13C0E6FFE66AE66AC8ECB5
:1003A0000EF0146E060EE15E14504DCF10F0116A7F
:1003B000126A136A4DCFE6FF11C0E6FF12C0E6FFD6
:1003C00013C0E6FF030EE66EE66AC8EC0EF0146E8C
:1003D000060EE15E14504CCF10F0116A126A136AD7
:1003E0004CCFE6FF11C0E6FF12C0E6FF13C0E6FFE8
:1003F000060EE66EE66AC8EC0EF0146E060EE15EBE
:1004000014504BCF10F0116A126A136A4BCFE6FFFB
:1004100011C0E6FF12C0E6FF13C0E6FF090EE66E4C
:10042000E66AC8EC0EF0146E060EE15E14504ACF78
:1004300010F0116A126A136A4ACFE6FF11C0E6FF94
:1004400012C0E6FF13C0E6FFE66A010EE66EC8ECD6
:100450000EF0146E060EE15E145049CF10F0116AD2
:10046000126A136A49CFE6FF11C0E6FF12C0E6FF29
:1004700013C0E6FF030EE66E010EE66EC8EC0EF04A
:10048000146E060EE15E145048CF10F0116A126A25
:10049000136A48CFE6FF11C0E6FF12C0E6FF13C0A3
:1004A000E6FF060EE66E010EE66EC8EC0EF0146E68
:1004B000060EE15E14501200E66A0FEC16F0E552EB
:1004C0000F01486F010EE66E0FEC16F0E5520F01BA
:1004D000496F020EE66E0FEC16F0E5520F014A6FFF
:1004E000030EE66E0FEC16F0E5520F014B6F040E93
:1004F000E66E0FEC16F0E5520F014C6F050EE66E3E
:100500000FEC16F0E5520F014D6F060EE66E0FEC84
:1005100016F0E5520F014E6F4B51070A24E0010A15
:100520001EE0030A18E0010A12E0070A0CE0010AC3
:1005300006E0030A24E1B30EE66E2F0E17D0AF0ECD
:10054000E66E2F0E13D0AB0EE66E2F0E0FD0A70E59
:10055000E66E2F0E0BD0A30EE66E2F0E07D09F0E69
:10056000E66E2F0E03D09B0EE66E2F0EE66EE66A49
:10057000E66AEFEC0FF0E552E552E552E5520A0E5D
:100580000F014A5D1CE2990EE66E2F0EE66E040E18
:10059000E66EE66AEFEC0FF0E552E552E552E55201
:1005A0004ACF10F0116A126A136A4ACFE6FF11C0EF
:1005B000E6FF12C0E6FF13C0E6FF050E0ED04ACFDD
:1005C00010F0116A126A136A4ACFE6FF11C0E6FF03
:1005D00012C0E6FF13C0E6FF040EE66EE66AC8EC42
:1005E0000EF0146E060EE15E1450970EE66E2F0E9E
:1005F000E66E060EE66EE66AEFEC0FF0E552E552A7
:10060000E552E5520A0E0F01495D1CE2990EE66EB5
:100610002F0EE66E070EE66EE66AEFEC0FF0E5527F
:10062000E552E552E55249CF10F0116A126A136A99
:1006300049CFE6FF11C0E6FF12C0E6FF13C0E6FF98
:10064000080E0ED049CF10F0116A126A136A49CF12
:10065000E6FF11C0E6FF12C0E6FF13C0E6FF070E7B
:10066000E66EE66AC8EC0EF0146E060EE15E1450FB
:10067000970EE66E2F0EE66E090EE66EE66AEFEC5A
:100680000FF0E552E552E552E5520A0E0F01485DC2
:100690001CE2990EE66E2F0EE66E0A0EE66EE66A14
:1006A000EFEC0FF0E552E552E552E55248CF10F07D
:1006B000116A126A136A48CFE6FF11C0E6FF12C042
:1006C000E6FF13C0E6FF0B0E0ED048CF10F0116A04
:1006D000126A136A48CFE6FF11C0E6FF12C0E6FFB8
:1006E00013C0E6FF0A0EE66EE66AC8EC0EF0146E62
:1006F000060EE15E14500F015451010A06E0010A92
:1007000011E1930EE66E2F0E03D08F0EE66E2F0EC4
:10071000E66E0D0EE66EE66AEFEC0FF0E552E5527E
:10072000E552E5520F014D510C0A42E0070A3CE048
:10073000010A36E0030A30E0010A2AE00F0A24E049
:10074000010A1EE0030A18E0010A12E0070A0CE0A1
:10075000010A06E0030A3AE18B0EE66E2F0E2BD05B
:10076000870EE66E2F0E27D0830EE66E2F0E23D057
:100770007F0EE66E2F0E1FD07B0EE66E2F0E1BD067
:10078000770EE66E2F0E17D0730EE66E2F0E13D077
:100790006F0EE66E2F0E0FD06B0EE66E2F0E0BD087
:1007A000670EE66E2F0E07D0630EE66E2F0E03D097
:1007B0005F0EE66E2F0EE66E020EE66E010EE66E20
:1007C000EFEC0FF0E552E552E552E5525D0EE66EB4
:1007D0002F0EE66E050EE66E010EE66EEFEC0FF0E4
:1007E000E552E552E552E5520A0E0F014C5D1DE25D
:1007F0005D0EE66E2F0EE66E060EE66E010EE66EDE
:10080000EFEC0FF0E552E552E552E5524CCF10F017
:10081000116A126A136A4CCFE6FF11C0E6FF12C0DC
:10082000E6FF13C0E6FF070E0ED04CCF10F0116AA2
:10083000126A136A4CCFE6FF11C0E6FF12C0E6FF52
:1008400013C0E6FF060EE66E010EE66EC8EC0EF073
:10085000146E060EE15E14505D0EE66E2F0EE66E0F
:10086000080EE66E010EE66EEFEC0FF0E552E55273
:10087000E552E552140EE66EE66AE66AE66A090E8D
:10088000E66E010EE66EC8EC0EF0106E060EE15E2E
:1008900010504ECF10F0116A126A136A4ECFE6FF65
:1008A00011C0E6FF12C0E6FF13C0E6FF0B0EE66EB6
:1008B000010EE66EC8EC0EF0146E060EE15E1450EA
:1008C00012004C0EE66E2F0EE66EE66AE66AEFEC5C
:1008D0000FF0E552E552E552E552490EE66E2F0E55
:1008E000E66EE66A010EE66EEFEC0FF0E552E552B9
:1008F000E552E5520A0E0F01525D1DE2990EE66EB9
:100900002F0EE66E020EE66E010EE66EEFEC0FF0B5
:10091000E552E552E552E55252CF10F0116A126AE3
:10092000136A52CFE6FF11C0E6FF12C0E6FF13C004
:10093000E6FF030E0ED052CF10F0116A126A136A4E
:1009400052CFE6FF11C0E6FF12C0E6FF13C0E6FF7C
:10095000020EE66E010EE66EC8EC0EF0146E060E88
:10096000E15E1450970EE66E2F0EE66E040EE66EF4
:10097000010EE66EEFEC0FF0E552E552E552E5525E
:100980000A0E0F01535D1DE2990EE66E2F0EE66E04
:10099000050EE66E010EE66EEFEC0FF0E552E55245
:1009A000E552E55253CF10F0116A126A136A53CF21
:1009B000E6FF11C0E6FF12C0E6FF13C0E6FF060E19
:1009C0000ED053CF10F0116A126A136A53CFE6FFAC
:1009D00011C0E6FF12C0E6FF13C0E6FF050EE66E8B
:1009E000010EE66EC8EC0EF0146E060EE15E1450B9
:1009F000450EE66E2F0EE66E070EE66E010EE66EF3
:100A0000EFEC0FF0E552E552E552E5520F0154517B
:100A1000010A06E0010A12E1930EE66E2F0E03D0E2
:100A20008F0EE66E2F0EE66E0A0EE66E010EE66E75
:100A3000EFEC0FF0E552E552E552E552400EE66E5E
:100A40002F0EE66E0D0EE66E010EE66EEFEC0FF069
:100A5000E552E552E552E55212000F0150510B0AE2
:100A600001E1A9D1010A01E158D1030A01E106D14E
:100A7000010A01E1B6D00F0A62E0010A0EE0060A9F
:100A800001E0EFD107DB000901E1EED10F015905CB
:100A900001E0EAD1060E506F1200596B5529106E15
:100AA000140E116E0E6E10C009F08FEC18F005C018
:100AB00055FF0F0105500F080DE2490EE66E2F0E8F
:100AC000E66E040EE66EE66AEFEC0FF0E552E552D4
:100AD000E552E552FFDA000914E00F014A29106ED1
:100AE000180E116E0E6E10C009F08FEC18F005C0D4
:100AF0004AFF05C0E6FF020EE66EFEEC15F0E55279
:100B0000E5520ADB000910E00F014A054A6FE85080
:100B1000170802E2170E4A6F4ACFE6FF020EE66E92
:100B2000FEEC15F0E552E552B5DA000903E00F01DD
:100B3000070E506FB7DA000901E196D18BD1596BDE
:100B40005529106E140E116E0E6E10C009F08FEC48
:100B500018F005C055FF0F0105500F080DE2490EB2
:100B6000E66E2F0EE66E070EE66EE66AEFEC0FF00D
:100B7000E552E552E552E552ADDA000914E00F0105
:100B80004929106E3C0E116E0E6E10C009F08FECEC
:100B900018F005C049FF05C0E6FF010EE66EFEEC49
:100BA00015F0E552E552B8DA000910E00F014905E9
:100BB000496FE8503B0802E23B0E496F49CFE6FF20
:100BC000010EE66EFEEC15F0E552E55263DA00091F
:100BD00003E00F01080E506F65DA000901E144D10E
:100BE00039D1596B5529106E140E116E0E6E10C04E
:100BF00009F08FEC18F005C055FF0F0105500F08E4
:100C00000CE2450EE66E2F0EE66EE66AE66AEFEC43
:100C10000FF0E552E552E552E5525CDA000910E0CA
:100C20000F014B294B6FE850070802E2010E4B6F92
:100C30004BCFE6FF030EE66EFEEC15F0E552E552F3
:100C40006BDA000910E00F014B054B6FE850070805
:100C500002E2070E4B6F4BCFE6FF030EE66EFEEC93
:100C600015F0E552E55216DA000903E00F01090E0E
:100C7000506F18DA000901E1F7D0ECD0596B552913
:100C8000106E140E116E0E6E10C009F08FEC18F07D
:100C900005C055FF0F0105500F080EE2490EE66E24
:100CA0002F0EE66E060EE66E010EE66EEFEC0FF00E
:100CB000E552E552E552E5520DDA000910E00F0168
:100CC0004C294C6FE8501F0802E2010E4C6F4CCFCC
:100CD000E6FF040EE66EFEEC15F0E552E5521CDA76
:100CE000000910E00F014C054C6F010E4C5D02E253
:100CF0001F0E4C6F4CCFE6FF040EE66EFEEC15F0B7
:100D0000E552E552C7D9000903E00F010A0E506F02
:100D1000C9D9000901E1A8D09DD0596B5529106EA1
:100D2000140E116E0E6E10C009F08FEC18F005C095
:100D300055FF0F0105500F080EE2450EE66E2F0E0F
:100D4000E66E020EE66E010EE66EEFEC0FF0E55277
:100D5000E552E552E552BED9000910E00F014D29D8
:100D60004D6FE8500C0802E2010E4D6F4DCFE6FFCB
:100D7000050EE66EFEEC15F0E552E552CDD9000900
:100D800010E00F014D054D6F010E4D5D02E20C0E9E
:100D90004D6F4DCFE6FF050EE66EFEEC15F0E55209
:100DA000E55278D9000903E00F010B0E506F7AD994
:100DB00000095AE04FD0596B5529106E140E116E70
:100DC0000E6E10C009F08FEC18F005C055FF0F0132
:100DD00005500F080EE2400EE66E2F0EE66E090E6D
:100DE000E66E010EE66EEFEC0FF0E552E552E552CD
:100DF000E55270D900090FE00F014E294E6FE850FF
:100E0000630801E24E6B4ECFE6FF060EE66EFEEC87
:100E100015F0E552E55280D9000910E00F014E05AA
:100E20004E6FE850630802E2630E4D6F4ECFE6FF4F
:100E3000060EE66EFEEC15F0E552E5522BD90009E0
:100E400006E07AEC0DF00F01010E596F506B2AD9B4
:100E500000090AE07AEC0DF00F01010E596F506B9A
:100E60001200010E596F4F6B12000F014F51030A10
:100E700001E1BBD0010A65E0030A0EE0010A01E0CE
:100E8000120018D9000901E104D10F01590501E050
:100E900000D1010E4F6F1200596B13DD0F01552960
:100EA000106E140E116E0E6E10C009F08FEC18F05B
:100EB00005C055FF0F0105500F080EE2490EE66E02
:100EC0002F0EE66E020EE66E010EE66EEFEC0FF0F0
:100ED000E552E552E552E552FDD8000914E00F0154
:100EE0005229106E180E116E0E6E10C009F08FECA4
:100EF00018F005C052FF05C0E6FF100EE66EFEECCE
:100F000015F0E552E55208D9000910E00F0152052D
:100F1000526FE850170802E2170E526F52CFE6FFE9
:100F2000100EE66EFEEC15F0E552E552C3D800094E
:100F300003E00F01020E4F6FC5D8000901E1A9D0EF
:100F4000A1D0596BBEDC0F015529106E140E116E25
:100F50000E6E10C009F08FEC18F005C055FF0F01A0
:100F600005500F080EE2490EE66E2F0EE66E050ED6
:100F7000E66E010EE66EEFEC0FF0E552E552E5523B
:100F8000E552A8D8000914E00F015329106E3C0E59
:100F9000116E0E6E10C009F08FEC18F005C053FFF3
:100FA00005C0E6FF110EE66EFEEC15F0E552E552C7
:100FB000B3D8000910E00F015305536FE8503B0808
:100FC00002E23B0E536F53CFE6FF110EE66EFEECCE
:100FD00015F0E552E5526ED8000903E00F01030E4B
:100FE0004F6F70D8000955E04DD0596B6ADC0F0186
:100FF0005529106E140E116E0E6E10C009F08FEC94
:1010000018F005C055FF0F0105500F080EE2450E00
:10101000E66E2F0EE66E0A0EE66E010EE66EEFEC41
:101020000FF0E552E552E552E55254D800090BE0C5
:101030000F015429010B546FE66E120EE66EFEECA2
:1010400015F0E552E55268D8000910E00F0154058B
:10105000546FE850010802E2010E546F54CFE6FFCE
:10106000120EE66EFEEC15F0E552E55223D80009AB
:1010700006E07AEC0DF00F014F6B010E596F22D88C
:10108000000907E07AEC0DF00F01010E596F4F6B6C
:10109000120012000F01010E081903E1095101E1CC
:1010A000010C000C0F010A0E081903E1095101E1BE
:1010B000010C000C0F01010E101903E1115101E1A7
:1010C000010C000C0F010A0E101903E1115101E18E
:1010D000010C000C0F01010E0A1901E10B511AE07D
:1010E0000A0ED8800A55000E0B5515E20ACF10F0F3
:1010F0000BCF11F0030E0D6E0E6A0ACF08F00BCF66
:1011000009F05BEC18F005C011F0010E041803E1C2
:10111000115001E1010C000C0F01010E121901E147
:1011200013511AE00A0ED8801255000E135515E21D
:1011300012CF10F013CF11F0030E0D6E0E6A12CF06
:1011400008F013CF09F05BEC18F005C011F0010EA8
:10115000041803E1115001E1010C000C0F01525180
:101160004A5D0AE15351495D07E1485105E15405E3
:1011700003E1590501E1010C000C0F015151050A71
:101180001AE0010A05E0040A01E01200040E11D081
:10119000E5DF00090AE00F01010E586FE66E130E3D
:1011A000E66EFEEC15F0E552E5520F01585131E0C4
:1011B000050E516F1200596B5A29106E140E116EE4
:1011C0000E6E10C009F08FEC18F005C05AFF0A0E21
:1011D0000F01055C02E27AEC0DF00F01562B000EB8
:1011E0005723900ED8805655010E575512E2010E26
:1011F000596F586B58CFE6FF130EE66EFEEC15F0F4
:10120000E552E5520F01566B576B7AEC0DF00F016A
:04121000516B12000C
:0C121400D9CFE6FFE1CFD9FF040EE126A0
:10122000DE6ADD6ADECF10F0DDCF11F0126A136ADC
:1012300011AE02D012681368D950FB0FE96EFF0E91
:10124000DA20EA6EEE50105CEE501158EE50125853
:10125000EE5013581DE2020EDB6A030EDB6A020E2B
:10126000DBCF10F0030EDBCF11F0D890115004E665
:10127000050E105C000E115806E2020EDB2A030E6A
:10128000EEE3DB2AECD7DF2A010ECCE3DB2ACAD758
:10129000040EE15C02E2E16AE552E16EE552E7CF5D
:1012A000D9FF1200D9CFE6FFE1CFD9FF040EE12626
:1012B000DE6ADD6ADECF10F0DDCF11F0126A136A4C
:1012C00011AE02D012681368D950FB0FE96EFF0E01
:1012D000DA20EA6EEE50105CEE501158EE501258C3
:1012E000EE5013581DE2020EDB6A030EDB6A020E9B
:1012F000DBCF10F0030EDBCF11F0D890115004E6D5
:10130000EE0E105C000E115806E2020EDB2A030EF0
:10131000EEE3DB2AECD7DF2A010ECCE3DB2ACAD7C7
:10132000040EE15C02E2E16AE552E16EE552E7CFCC
:10133000D9FF1200D9CFE6FFE1CFD9FF0F0E8116FA
:10134000FE0EDB50F00B81128186010EE66EE66A1E
:10135000E66AE66AA7DFE552E552E552E552819674
:10136000010EE66EE66AE66AE66A9CDFE552E55241
:10137000E552E5520F0E8116FE0EDB38F00B81129E
:101380008186010EE66EE66AE66AE66A8BDFE55262
:10139000E552E552E5528196010EE66EE66AE66A8E
:1013A000E66A80DFE552E552E552E552E552E7CFC5
:1013B000D9FF1200D9CFE6FFE1CFD9FFE652190ECF
:1013C000E66EE66AE66AE66A6DDFE552E552E552E8
:1013D000E5520F0E8116F80E81160F0E8116300E93
:1013E00081128186010EE66EE66AE66AE66A5ADFD7
:1013F000E552E552E552E5528196010EE66EE66A47
:10140000E66AE66A4FDFE552E552E552E5520F0E15
:101410008116300E81128186010EE66EE66AE66A5A
:10142000E66A40DFE552E552E552E5528196010E4B
:10143000E66EE66AE66AE66A35DFE552E552E552AF
:10144000E5520F0E8116300E81128186010EE66E76
:10145000E66AE66AE66A26DFE552E552E552E552BB
:101460008196010EE66EE66AE66AE66A1BDFE552E1
:10147000E552E552E5520F0E8116818A8186010EF2
:10148000E66EE66AE66AE66A0DDFE552E552E55287
:10149000E5528196010EE66EE66AE66AE66A02DFCA
:1014A000E552E552E552E552280EE66E43DFE5527D
:1014B0000C0EE66E3FDFE552E552E552E7CFD9FF6D
:1014C0001200D9CFE6FFE1CFD9FF020EE126DF6A95
:1014D000010EDB6A81940F0EE66EE66AE66AE66A42
:1014E00099DEE552E552E552E5520F0E81128186F2
:1014F000E66EE66AE66AE66A8DDEE552E552E55298
:10150000E5520F0E8114E76E010EE7CFDBFF8196E7
:101510000F0EE66EE66AE66AE66A7CDEE552E552A2
:10152000E552E5520F0E81128186E66EE66AE66AA2
:10153000E66A70DEE552E552E552E5520F0E81147F
:10154000DF6E010EDB50DF128196010EE66EE66A59
:10155000E66AE66A5FDEE552E552E552E552DF50A3
:10156000106E020EE15C02E2E16AE552E16E10509B
:10157000E552E7CFD9FF1200D9CFE6FFE1CFD9FF7F
:10158000E652DF6A9EDFDF6EDFBEFCD7DF50E5523A
:10159000E552E7CFD9FF1200D9CFE6FFE1CFD9FF5F
:1015A0000F0E8116FE0EDB5081128186050EE66E4F
:1015B000E66AE66AE66A2EDEE552E552E552E55253
:1015C0008196050EE66EE66AE66AE66A23DEE55275
:1015D000E552E552E552E552E7CFD9FF1200D9CFE7
:1015E000E6FFE1CFD9FF8194050EE66EE66AE66A72
:1015F000E66A10DEE552E552E552E552FE0EDBCF1B
:10160000E6FFCADFE552FE0EDB38F00BE66EC4DF04
:10161000E552E552E7CFD9FF1200D9CFE6FFE1CF7F
:10162000D9FF8184050EE66EE66AE66AE66AF2DDB7
:10163000E552E552E552E552FE0EDBCFE6FFACDFA8
:10164000E552FE0EDB38F00BE66EA6DFE552819424
:10165000E552E7CFD9FF1200D9CFE6FFE1CFD9FF9E
:10166000FE0EDBCFE6FFD9DFE552E552E7CFD9FF2B
:101670001200D9CFE6FFE1CFD9FFFE0EDBCFE6FFA8
:10168000CCDFE552E552E7CFD9FF1200D9CFE6FF14
:10169000E1CFD9FFFD0EDBCFF6FFFE0EDBCFF7FF6C
:1016A0000800F5500FE0FD0EDBCFF6FFDB2AFE0E43
:1016B000DBCFF7FF01E3DB2A0800F550E66ED9DF48
:1016C000E552E8D7E552E7CFD9FF1200D9CFE6FFC0
:1016D000E1CFD9FFE652FD0EDB500F0B106EFE0E70
:1016E000DB50010B400DF3501024DF6E7F0EDF1432
:1016F000800FDF6EDFCFE6FF72DFE552E552E55285
:10170000E7CFD9FF1200010EE66E69DFE552E66A07
:10171000E66ADCDFE552E5521200D9CFE6FFE1CF01
:10172000D9FF050EE126010EF36EDB6E020EDB6AB9
:10173000030EDB6A040EDB6ADF6ADFCF10F0116A8A
:1017400010BE1168FB0EDBCF12F0FC0EDBCF13F0E6
:1017500011501318E8AE02D0133404D01250105CAC
:10176000135011582DE2FD0EDBCF10F0FE0EDBCF33
:1017700011F0126A136A11AE02D012681368D950C0
:10178000010FE96EDACFEAFF10C00BF011C00CF0C8
:1017900012C00DF013C00EF0EECF06F0EECF07F042
:1017A000EECF08F0EFCF09F0E2EC17F005C0EDFF47
:1017B00004C0EDFF03C0EDFF02C0EFFFDF2ABDD77D
:1017C000010EDBCF10F0020EDBCF11F0030EDBCFEA
:1017D00012F0040EDBCF13F010C006F011C007F0BA
:1017E00012C008F013C009F0050EE15C02E2E16AE4
:1017F000E552E16EE552E7CFD9FF1200D9CFE6FFFF
:10180000E1CFD9FF020EE126DF6AFB0EDBCF10F03D
:10181000FC0EDBCF11F0FD0EDBCF12F0FE0EDBCFA6
:1018200013F0105011101210131005E1300EE66E77
:1018300020DFE552F4D0D950FB0FE96EFF0EDA201D
:10184000EA6ED890030EEB50000A08E6000EEE5C3C
:10185000000EEE58000EEE58000EEE5815E22D0E5A
:10186000E66E07DFE552D950FB0FE96EFF0EDA2076
:10187000EA6E000EEE6CEF1EEE22EF1EEE22EF1E61
:10188000EF22ED52ED52ED52DE52070EDD6E010EEB
:10189000DBCF10F0000EE76E1018E8AE02D0103467
:1018A00003D0E750D880105401E3B9D0010EDB0417
:1018B000146E156A14BE156814C0E6FF15C0E6FF65
:1018C0000A0EE66EE66A29DFE552E552E552E55278
:1018D00006C010F007C011F008C012F009C013F0E4
:1018E00006C00BF007C00CF008C00DF009C00EF0E8
:1018F000FB0EDBCF06F0FC0EDBCF07F0FD0EDBCFDF
:1019000008F0FE0EDBCF09F01AEC18F006500710B5
:101910000810091041E0010EDF6EDB04186E196A31
:1019200018BE196818C0E6FF19C0E6FF0A0EE66E79
:10193000E66AF3DEE552E552E552E55206C014F0E0
:1019400007C015F008C016F009C017F006C00BF06C
:1019500007C00CF008C00DF009C00EF0FB0EDBCF85
:1019600006F0FC0EDBCF07F0FD0EDBCF08F0FE0E1D
:10197000DBCF09F01AEC18F006C010F007C011F028
:1019800008C012F009C013F0300E1026000E11220C
:1019900012221322105003D0DF5004E0300EE66E06
:1019A00068DEE552010EDB04146E156A14BE15687C
:1019B00014C0E6FF15C0E6FF0A0EE66EE66AADDE6D
:1019C000E552E552E552E55206C010F007C011F0AD
:1019D00008C012F009C013F0D950FB0FE96EFF0EDA
:1019E000DA20EA6E06C00BF007C00CF008C00DF05C
:1019F00009C00EF0EECF06F0EECF07F0EECF08F004
:101A0000EFCF09F01AEC18F005C0EDFF04C0EDFFB0
:101A100003C0EDFF02C0EFFF010EDB0638D7020E58
:101A2000E15C02E2E16AE552E16EE552E7CFD9FFFF
:101A30001200D9CFE6FFE1CFD9FFFD0EDBCFE6FFE5
:101A4000FE0EDBCFE6FF42DEE552E552D950F90F3C
:101A5000E96EFF0EDA20EA6EEECFE6FFEECFE6FF8C
:101A6000EECFE6FFEFCFE6FFC9DEE552E552E552E5
:101A7000E552E552E7CFD9FF1200D9CFE6FFE1CF1B
:101A8000D9FFFD0EDBCFE6FFFE0EDBCFE6FF1EDE4D
:101A9000E552E552FB0EDBCFE6FFFC0EDBCFE6FFA7
:101AA000F5DDE552E552E552E7CFD9FF1200D9CF77
:101AB000E6FFE1CFD9FF65CF10F066CF11F0040E3D
:101AC000D89010361136E806FBE1C10E1026000E44
:101AD000112210500F016725E96E11506821EA6E3E
:101AE000FE0EDBCFEFFF672B000E6823E552E7CF3A
:101AF000D9FF1200D9CFE6FFE1CFD9FFE652DF6A66
:101B0000DFCF10F0100EE76E1018E8AE02D0E73409
:101B100002D0E750105C18E2DFCFE9FFEA6AE9BEC5
:101B2000EA68C10EE926000EEA22200EEF6EDFCF32
:101B3000E9FFEA6AE9BEEA68D10EE926000EEA2268
:101B4000200EEF6EDF2ADCD7E552E552E7CFD9FF52
:101B50001200D9CFE6FFE1CFD9FFE6520001C05114
:101B6000030A52E0010A36E0030A1AE0010A67E1BB
:101B7000E66AE66AABDDE552E552DF6A080EDF5C35
:101B80000CE2DF50EA6AC10FE96E000EEA22EF5064
:101B9000E66E6FDDE552DF2AF1D70001010E32D08B
:101BA000080EE66EE66A92DDE552E552DF6A080E3F
:101BB000DF5C0DE2080EDF24EA6AC10FE96E000E59
:101BC000EA22EF50E66E55DDE552DF2AF0D700013C
:101BD000020E18D0E66A010EE66E78DDE552E55297
:101BE000DF6A080EDF5C0CE2DF50EA6AD10FE96EB3
:101BF000000EEA22EF50E66E3CDDE552DF2AF1D717
:101C00000001030EC06F1CD0080EE66E010EE66EDA
:101C10005DDDE552E552DF6A080EDF5C0DE2080E7D
:101C2000DF24EA6AD10FE96E000EEA22EF50E66E79
:101C300020DDE552DF2AF0D70001C06B01D0C06B78
:101C4000E552E552E7CFD9FF1200D9CFE6FFE1CF49
:101C5000D9FFE6520001C051010A1BE0010A32E13E
:101C6000E66AE66A33DDE552E552DF6A100EDF5CB4
:101C70000CE2DF50EA6AC10FE96E000EEA22EF5073
:101C8000E66EF7DCE552DF2AF1D70001010EC06FE6
:101C90001AD0E66A010EE66E19DDE552E552DF6AFA
:101CA000100EDF5C0CE2DF50EA6AD10FE96E000E25
:101CB000EA22EF50E66EDDDCE552DF2AF1D70001C3
:101CC000C06B01D0C06BE552E552E7CFD9FF1200DF
:101CD000D9CFE6FFE1CFD9FFE652E66AE66AF6DC45
:101CE000E552E552DF6A100EDF5C0CE2DF50EA6A73
:101CF000C10FE96E000EEA22EF50E66EBADCE55243
:101D0000DF2AF1D7E66A010EE66EE0DCE552E55225
:101D1000DF6A100EDF5C0CE2DF50EA6AD10FE96E79
:101D2000000EEA22EF50E66EA4DCE552DF2AF1D77E
:101D3000E552E552E7CFD9FF1200D9CFE6FFE1CF58
:101D4000D9FFFE0EDB50010B0F01656F666BFD0EB8
:101D5000DB500F0B676F686B65CF10F066CF11F02B
:101D6000040ED89010361136E806FBE1C10E10269D
:101D7000000E112210500F016725E96E11506821E5
:101D8000EA6EFC0EDBCFEFFFE552E7CFD9FF120082
:101D9000D9CFE6FFE1CFD9FF020EE126DF6AFE0EC2
:101DA000DB50010B0F01656F666BFD0EDB500F0BF7
:101DB000676F686BF90EDBCF10F0FA0EDBCF11F016
:101DC000FB0EDBCF12F0FC0EDBCF13F01050111026
:101DD0001210131005E1300EE66E69DEE552F5D003
:101DE000D950F90FE96EFF0EDA20EA6ED890030E93
:101DF000EB50000A08E6000EEE5C000EEE58000EF6
:101E0000EE58000EEE5815E22D0EE66E50DEE5524D
:101E1000D950F90FE96EFF0EDA20EA6E000EEE6C73
:101E2000EF1EEE22EF1EEE22EF1EEF22ED52ED52DC
:101E3000ED52DE52070EDD6E010EDBCF10F0000E0C
:101E4000E76E1018E8AE02D0103403D0E750D88007
:101E5000105401E3BAD0010EDB04146E156A14BEEF
:101E6000156814C0E6FF15C0E6FF0A0EE66EE66AC6
:101E700054DCE552E552E552E55206C010F007C0C9
:101E800011F008C012F009C013F006C00BF007C033
:101E90000CF008C00DF009C00EF0F90EDBCF06F013
:101EA000FA0EDBCF07F0FB0EDBCF08F0FC0EDBCF2A
:101EB00009F01AEC18F0065007100810091041E05C
:101EC000010EDF6EDB04186E196A18BE196818C09F
:101ED000E6FF19C0E6FF0A0EE66EE66A1EDCE55272
:101EE000E552E552E55206C014F007C015F008C0EF
:101EF00016F009C017F006C00BF007C00CF008C0C0
:101F00000DF009C00EF0F90EDBCF06F0FA0EDBCFB4
:101F100007F0FB0EDBCF08F0FC0EDBCF09F01AEC6C
:101F200018F006C010F007C011F008C012F009C088
:101F300013F0300E1026000E112212221322105020
:101F400003D0DF5004E0300EE66EB1DDE552010E45
:101F5000DB04146E156A14BE156814C0E6FF15C0C4
:101F6000E6FF0A0EE66EE66A8DEC0BF0E552E552EE
:101F7000E552E55206C010F007C011F008C012F09B
:101F800009C013F0D950F90FE96EFF0EDA20EA6E9E
:101F900006C00BF007C00CF008C00DF009C00EF031
:101FA000EECF06F0EECF07F0EECF08F0EFCF09F05E
:101FB0001AEC18F005C0EDFF04C0EDFF03C0EDFF03
:101FC00002C0EFFF010EDB0637D7020EE15C02E232
:101FD000E16AE552E16EE552E7CFD9FF1200D9CFB1
:101FE000E6FFE1CFD9FFFE0EDB50010B0F01656F5D
:101FF000666BFD0EDB500F0B676F686BFB0EDBCF64
:10200000F6FFFC0EDBCFF7FF0800F5500FE0FB0EEC
:10201000DBCFF6FFDB2AFC0EDBCFF7FF01E3DB2A89
:102020000800F550E66E43DDE552E8D7E552E7CF0C
:04203000D9FF1200C2
:0C203400D9CFE6FFE1CFD9FFD59EFD0E0D
:10204000DBCF28FFFE0EDBCF29FFD59C1368146879
:10205000156A28CF16F029CF17F0186A1650135CAE
:10206000106E17501458116E18501558126E0C6AD5
:10207000010E0D6E0E6A10C007F011C008F012C0FC
:1020800009F024EC17F00350D66E13681468156A33
:1020900028CF16F029CF17F0186A1650135C106E6F
:1020A00017501458116E18501558126E0C6A010E04
:1020B0000D6E0E6A10C007F011C008F012C009F0D2
:1020C00024EC17F007C010F008C011F009C012F09E
:1020D0000750D76ED59AD586F28AF294F184D58EC0
:1020E000E552E7CFD9FF1200D59E1200136814689D
:1020F000156A28CF16F029CF17F0186A1650135C0E
:10210000106E17501458116E18501558126E0C6A34
:10211000010E0D6E0E6A10C007F011C008F012C05B
:1021200009F024EC17F00350D66E13681468156A92
:1021300028CF16F029CF17F0186A1650135C106ECE
:1021400017501458116E18501558126E0C6A010E63
:102150000D6E0E6A10C007F011C008F012C009F031
:1021600024EC17F007C010F008C011F009C012F0FD
:102170000750D76ED58E1200D9CFE6FFE1CFD9FF39
:10218000CD90FD0EDBCF2AFFFE0EDBCF2BFF1368B9
:102190001468156A2ACF16F02BCF17F0186A16505C
:1021A000135C106E17501458116E18501558126E9B
:1021B0000C6A010E0D6E0E6A10C007F011C008F017
:1021C00012C009F024EC17F00750CF6E13681468A2
:1021D000156A2ACF16F02BCF17F0186A1650135C29
:1021E000106E17501458116E18501558126E0C6A54
:1021F000010E0D6E0E6A10C007F011C008F012C07B
:1022000009F024EC17F003C010F004C011F005C071
:1022100012F00350CE6E9D809E909F90CD8ECD8CFF
:10222000CD98CD9ACD96CD92CD80E552E7CFD9FF0E
:10223000120013681468156A2ACF16F02BCF17F016
:10224000186A1650135C106E17501458116E1850FF
:102250001558126E0C6A010E0D6E0E6A10C007F052
:1022600011C008F012C009F024EC17F00750CF6E2F
:1022700013681468156A2ACF16F02BCF17F0186A66
:102280001650135C106E17501458116E18501558D4
:10229000126E0C6A010E0D6E0E6A10C007F011C0AE
:1022A00008F012C009F024EC17F003C010F004C0CD
:1022B00011F005C012F00350CE6ECD801200CD900B
:1022C0001200D9CFE6FFE1CFD9FFCA94CC6AFE0E47
:1022D000DB500F012C6F2D6BCB6E9D829E929F92D7
:1022E000CA90CA92CA84E552E7CFD9FF12002CCF18
:1022F000CBFFCA841200CA941200D9CFE6FFE1CF07
:10230000D9FFB190FD0EDBCF2EFFFE0EDBCF2FFFEE
:1023100013681468156A2ECF16F02FCF17F0186ABD
:102320001650135C106E17501458116E1850155833
:10233000126E0C6A010E0D6E0E6A10C007F011C00D
:1023400008F012C009F024EC17F00750B36E1368C0
:102350001468156A2ECF16F02FCF17F0186A165092
:10236000135C106E17501458116E18501558126ED9
:102370000C6A010E0D6E0E6A10C007F011C008F055
:1023800012C009F024EC17F003C010F004C011F0E3
:1023900005C012F00350B26EA082A192A292B18E3B
:1023A000B198B19AB192B180E552E7CFD9FF12004E
:1023B00013681468156A2ECF16F02FCF17F0186A1D
:1023C0001650135C106E17501458116E1850155893
:1023D000126E0C6A010E0D6E0E6A10C007F011C06D
:1023E00008F012C009F024EC17F00350B26E136825
:1023F0001468156A2ECF16F02FCF17F0186A1650F2
:10240000135C106E17501458116E18501558126E38
:102410000C6A010E0D6E0E6A10C007F011C008F0B4
:1024200012C009F024EC17F007C010F008C011F03A
:1024300009C012F00750B36EB1801200B1901200C3
:102440000F01382B000E39234051385D4151395965
:1024500004E3386B396B010E306F12000F013A2B19
:10246000000E3B2342513A5D43513B5904E33A6B22
:102470003B6B010E316F12000F013C2B000E3D2310
:1024800044513C5D45513D5904E33C6B3D6B010EAD
:10249000326F12000F013E2B000E3F2346513E5D6E
:1024A00047513F5904E33E6B3F6B010E336F1200FF
:1024B000D9CFE6FFE1CFD9FFFD0EDBCF40FFFE0E07
:1024C000DBCF41FF0F01386B396B306BE552E7CF43
:1024D000D9FF1200D9CFE6FFE1CFD9FFFD0EDBCF48
:1024E00042FFFE0EDBCF43FF050E0D6E0E6A42CF9C
:1024F00008F043CF09F0FEEC16F008C042FF09C017
:1025000043FF0F013A6B3B6B316BE552E7CFD9FFCD
:102510001200D9CFE6FFE1CFD9FFFD0EDBCF46FF9A
:10252000FE0EDBCF47FF0A0E0D6E0E6A46CF08F097
:1025300047CF09F0FEEC16F008C046FF09C047FF80
:102540000F013E6B3F6B336BE552E7CFD9FF1200B3
:102550000F0E946E82681200070E9410946EDF0EB8
:102560009414946E82681200D9CFE6FFE1CFD9FFB0
:10257000040EE126DE6ADD6ADECF10F0DDCF11F059
:10258000D890115004E6040E105C000E115801E3BF
:1025900090D0DECFE9FFDDCFEAFF200EE9260F0E57
:1025A000EA22EF1C826E020EDB6A030EDB6A020E69
:1025B000DBCF10F0030EDBCF11F0D890115004E602
:1025C000040E105C000E11586EE2020EDBCFE9FF24
:1025D000030EDBCFEAFF240EE9260F0EEA22EF50AE
:1025E00082143FE1DECF14F0DDCF15F0D890143621
:1025F0001536D89014361536020EDB501424E96EC9
:10260000030EDB501520EA6ED890E936EA36000E4C
:10261000E9260F0EEA22EECF12F0EFCF13F0010EF3
:102620001226000E1322DECF10F0DDCF11F0D8906D
:1026300010361136D89010361136020EDB501024A9
:10264000E96E030EDB501120EA6ED890E936EA36C7
:10265000000EE9260F0EEA2212C0EEFF13C0EDFFB6
:102660001BD0DECF10F0DDCF11F0D8901036113630
:10267000D89010361136020EDB501024E96E030E8E
:10268000DB501120EA6ED890E936EA36000EE926D2
:102690000F0EEA22EE6AED6A020EDB2A030E01E259
:1026A00086D7DB2A84D7DF2A010E01E265D7DB2A31
:1026B00063D7040EE15C02E2E16AE552E16EE552A5
:1026C000E7CFD9FF1200D9CFE6FFE1CFD9FF040E43
:1026D000E126DE6ADD6A020EDB6A030EDB6A010EAA
:1026E000DE6EDD6ADECFE9FFDDCFEAFF200EE926F0
:1026F0000F0EEA22EF1C8214826E020EDB6A030EBA
:10270000DB6A020EDBCF10F0030EDBCF11F0D890A6
:10271000115004E6030E105C000E11586EE2020E1A
:10272000DBCFE9FF030EDBCFEAFF240EE9260F0E15
:10273000EA22EF5082143FE1DECF14F0DDCF15F036
:10274000D89014361536D89014361536020EDB5054
:102750001424E96E030EDB501520EA6ED890E9369A
:10276000EA36000EE9260F0EEA22EECF12F0EFCF86
:1027700013F0010E1226000E1322DECF10F0DDCF73
:1027800011F0D89010361136D89010361136020E4E
:10279000DB501024E96E030EDB501120EA6ED89056
:1027A000E936EA36000EE9260F0EEA2212C0EEFFE5
:1027B00013C0EDFF1BD0DECF10F0DDCF11F0D890AD
:1027C00010361136D89010361136020EDB50102418
:1027D000E96E030EDB501120EA6ED890E936EA3636
:1027E000000EE9260F0EEA22EE6AED6A020EDB2ADF
:1027F000030E01E286D7DB2A84D7040EE15C02E2F5
:10280000E16AE552E16EE552E7CFD9FF1200D9CF78
:10281000E6FFE1CFD9FF040EE126DE6ADD6ADECFF6
:1028200010F0DDCF11F0FD0EDBCF12F0FE0EDBCF8E
:1028300013F011501318E8AE02D0133404D0125024
:10284000105C135011581DE2020EDB6A030EDB6AA6
:10285000020EDBCF10F0030EDBCF11F0D890115039
:1028600004E6EE0E105C000E115806E2020EDB2AA2
:10287000030EEEE3DB2AECD7DF2A010ED0E3DB2ADE
:10288000CED7040EE15C02E2E16AE552E16EE55268
:10289000E7CFD9FF1200D9CFE6FFE1CFD9FF040E71
:1028A000E126DE6ADD6ADECF10F0DDCF11F0D890D0
:1028B000115004E6040E105C000E115875E2DECFD4
:1028C000E9FFDDCFEAFF200EE9260F0EEA22EF1C1A
:1028D000826E020EDB6A030EDB6A020EDBCF10F0A3
:1028E000030EDBCF11F0D890115004E6040E105CFB
:1028F000000E11584AE2DECF10F0DDCF11F0D89073
:1029000010361136D89010361136020EDB501024D6
:10291000E96E030EDB501120EA6ED890E936EA36F4
:10292000000EE9260F0EEA22EE6AED6A020EDBCFF8
:10293000E9FF030EDBCFEAFF240EE9260F0EEA22A1
:10294000EF5082141CE1DECF10F0DDCF11F0D890F3
:1029500010361136D89010361136020EDB50102486
:10296000E96E030EDB501120EA6ED890E936EA36A4
:10297000000EE9260F0EEA22010EEE6EED6A020E3F
:10298000DB2A030EAAE3DB2AA8D78250816EE80E69
:10299000E66E030EE66E3BDFE552E552DF2A010EDE
:1029A00001E281D7DB2A7FD7040EE15C02E2E16A13
:0C29B000E552E16EE552E7CFD9FF1200BE
:0429BC00D9CFE6FF8A
:1029C000E1CFD9FF020EE126FE0EDB500F0BDF6ECA
:1029D000FE0EDB380F0B0A0D010EF3CFDBFFDB50D1
:1029E000DF24106E020EE15C02E2E16AE552E16E64
:1029F0001050E552E7CFD9FF1200D9CFE6FFE1CF63
:102A0000D9FF020EE1260A0E106E0E6EFE0EDBCF0F
:102A100009F08FEC18F00550DF6E0A0E106E0E6E86
:102A2000FE0EDBCF09F08FEC18F00950100D010EEF
:102A3000F3CFDBFFDB50DF24106E020EE15C02E21D
:102A4000E16AE552E16E1050E552E7CFD9FF12007E
:102A5000949694981200D9CFE6FFE1CFD9FFE652C1
:102A6000DF6AFE0EDB50DF5C02E2DF2AFAD7E552B6
:102A7000E552E7CFD9FF120082A8000C010C00013B
:102A8000FC5102E08288828682988296010EFC6F59
:102A900012008298828682880001FC6B1200D9CFD6
:102AA000E6FFE1CFD9FF020EE126DF6ADFCF10F0AB
:102AB000080EE76E1018E8AE02D0E73402D0E750F7
:102AC000105C0FE2FE0EDBBE02D0829801D082883D
:102AD00082868296DB50020DFE0EF3CFDBFFDF2AEB
:102AE000E5D794888286C8DFE76E010EE7CFDBFF6B
:102AF00082969498DB50106E020EE15C02E2E16A6D
:102B0000E552E16E1050E552E7CFD9FF1200D9CF60
:102B1000E6FFE1CFD9FF020EE126DF6A9488010EBD
:102B2000DB6ADBCF10F0080EE76E1018E8AE02D0BB
:102B3000E73402D0E750105C0BE282869DDF106E16
:102B4000DF50E8241010DF6E8296010EDB2AE9D7F1
:102B50009498FE0EDB5002E0828801D08298828633
:102B60008296DF50106E020EE15C02E2E16AE552ED
:102B7000E16E1050E552E7CFD9FF1200D9CFE6FF42
:102B8000E1CFD9FF7CDFD00EE66E89DFE552FE0E85
:102B9000DBCFE6FF84DFE552FD0EDBCFE6FF2DDF66
:102BA000E552E66E7CDFE55274DFE552E7CFD9FFF0
:102BB0001200D9CFE6FFE1CFD9FFE65260DFD00E99
:102BC000E66E6DDFE552FE0EDBCFE6FF68DFE55215
:102BD00056DFD10EE66E63DFE552010EE66E97DF3B
:102BE000E552DF6EDFCFE6FFE9DEE552DF6E51DF53
:102BF000DF50E552E552E7CFD9FF1200D9CFE6FF0B
:102C0000E1CFD9FFFD0EDBCFE6FFFE0EDBCFE6FF07
:102C1000B5DFE552E552E552E7CFD9FF1200D9CF33
:102C2000E6FFE1CFD9FFFE0EDBCFE6FFC2DFE552C4
:082C3000E552E7CFD9FF1200C5
:082C3800F28ED08EF28C120026
:102C4000F19CF292F2881200D8CFE4FFE0CFE4FFCB
:102C5000E46EDACFE4FFE2CFDAFFE9CFE4FFEACFB8
:102C6000E4FFF6CFE4FFF7CFE4FFF5CFE4FFF3CFC7
:102C7000E4FFF4CFE4FFFACFE4FF00EE00F0100E23
:102C8000E80403E3EECFE4FFFBD700EE10F00A0EFA
:102C9000E80403E3EECFE4FFFBD7E652F2A407D04B
:102CA00074EC10F0F29476EC10F020EC12F09EA090
:102CB00007D05FEC11F09E9019EC11F02EEC12F0A1
:102CC000A1A207D01EEC12F0A192D8EC11F04AECB0
:102CD00012F0F2B2F2929EBA9E9AE55200EE19F00C
:102CE0000A0EE80403E3E5CFEDFFFBD700EE0FF09B
:102CF000100EE80403E3E5CFEDFFFBD7E5CFFAFFC5
:102D0000E5CFF4FFE5CFF3FFE5CFF5FFE5CFF7FF24
:102D1000E5CFF6FFE5CFEAFFE5CFE9FFE5CFDAFF44
:102D2000E550E5CFE0FFE5CFD8FF1000DACFE4FFB4
:102D3000E2CFDAFFE9CFE4FFEACFE4FFF6CFE4FF2A
:102D4000F7CFE4FFF5CFE4FFF3CFE4FFF4CFE4FFE8
:102D5000FACFE4FF00EE00F0100EE80403E3EECF3C
:102D6000E4FFFBD700EE10F00A0EE80403E3EECF19
:102D7000E4FFFBD7E652F2A407D074EC10F0F29413
:102D800076EC10F020EC12F09EA007D05FEC11F072
:102D90009E9019EC11F02EEC12F0A1A207D01EECBF
:102DA00012F0A192D8EC11F04AEC12F0F2B2F292C9
:102DB0009EBA9E9AE55200EE19F00A0EE80403E36B
:102DC000E5CFEDFFFBD700EE0FF0100EE80403E3B4
:102DD000E5CFEDFFFBD7E5CFFAFFE5CFF4FFE5CF79
:102DE000F3FFE5CFF5FFE5CFF7FFE5CFF6FFE5CF42
:0C2DF000EAFFE5CFE9FFE5CFDAFF1100B4
:042DFC00006A0EAEAD
:102E000007EF17F00D6C0E1EE86A0E22001E09AEC9
:102E10000FEF17F0086C091EE86A0922001E5BEC30
:102E200018F009BE1FEF17F000AE000C086C091E69
:102E3000E86A0922046C051EE86A0522000C00BE3F
:102E400016EF17F00188FF0C006A0EAE2FEF17F097
:102E50000C6C0D1E0E1EE86A0D220E22001E09AE1D
:102E600039EF17F0076C081E091EE86A08220922CC
:102E7000001E3EEC18F009BE4CEF17F000AE000C3F
:102E8000076C081E091EE86A08220922036C041E4A
:102E9000051E04220522000C00BE40EF17F0018839
:022EA000FF0C25
:0E2EA2001E0EF66E000EF76E000EF86E0F019B
:102EB0000900F550606F0900F550616F03E160672C
:102EC00001D03DD00900F5505B6F0900F5505C6FF3
:102ED0000900F5505D6F09000900F550E96E090021
:102EE000F550EA6E090009000900F5505E6F09000F
:102EF000F5505F6F09000900F6CF62FFF7CF63FF5F
:102F0000F8CF64FF5BCFF6FF5CCFF7FF5DCFF8FF34
:102F10000F015E5302E15F5307E00900F550EE6ECA
:102F20005E07F8E25F07F9D762CFF6FF63CFF7FFDE
:102F300064CFF8FF0F016007000E615BBFD712007E
:102F400020202020002020200020200020202020E1
:102F50002020414C41524D202020202000200044C0
:102F60004543004E4F56004F4354005345500041D7
:102F70005547004A554C004A554E004D41590041B5
:102F80005052004D415200464542004A414E004FCA
:102F90004E20004F4646003A003000534154004650
:102FA0005249005448550057454400545545004D7A
:102FB0004F4E0053554E00414C41524D20434C4F13
:032FC000434B0080
:0C2FC40006500B02F3CF02F0F4CF03F034
:102FD0000C02F3500326000EF420046E06500D027E
:102FE000F3500426000EF420056E06500E02F35036
:102FF000052607500B02F3500326F4500422000E5E
:10300000052207500C02F3500426F4500522075005
:103010000D02F350052608500B02F3500426F4501D
:10302000052208500C02F350052609500B02F350FC
:04303000052612005F
:0C303400056A046A036A026A200EE76E57
:10304000D890063607360836093602360336043677
:1030500005360B50025C0C5003580D5004580E50AE
:10306000055809E30B50025E0C50035A0D50045AE8
:0C3070000E50055A062AE72EE4D7120085
:04307C00056A046A73
:10308000036A180EE76ED8900736083609360336FD
:10309000043605360C50035C0D5004580E5005588C
:1030A00007E30C50035E0D50045A0E50055A072AD0
:0630B000E72EEAD7120032
:0A30B600056A046A100EE76ED89058
:1030C00008360936043605360D50045C0E50055896
:1030D00005E30D50045E0E50055A082AE72EF0D77E
:0230E0001200DC
:0E30E200800EF36E00EE00F00F0E01D812000B
:1030F000EA6002D0EE6AFCD7F350E9601200EE6A93
:02310000FCD7FA
:0E3102001EEE00F02EEE00F0F86A019C51EC7B
:0E31100017F003EC00F034EC00F0FBD71200D7
:02311E00056A40
:10312000080EE76ED890093605360E50055C02E3AE
:0A313000056E092AE72EF7D71200FA
:06313A000000000000008F
:10314000000000000000000000000000000000007F
:0A3150000000010001000100010071
:06315A000000000000006F
:0D3160000000000000000000000000010061
:03316D000000005F
:103170000000000000101010101010101018181887
:1031800018181818181C1C1C1C1C1C1C1C1E1E1E8D
:103190001E1E1E1E1E1F1F1F1F1F1F1F1F000000A1
:1031A000000000000000000000000000000000001F
:1031B000000000000000000000000000000000000F
:0E31C000000000000000000000000000000001
:0231CE000000FF
:1031D00000D0002222220725091000010000000073
:0A31E00000000000000000000000E5
:0631EA00000000000000DF
:1031F00000000000000000000000000000000000CF
:1032000000000000000000000000102040800102CB
:023210000408B0
:020000040030CA
:0100010002FC
:0100020003FA
:010003001EDE
:010005008179
:010006008178
:010008000FE8
:01000900C036
:01000A000FE6
:01000B00E014
:01000C000FE4
:01000D0040B2
:00000001FF
